{
  "abi": [
    {
      "anonymous": false,
      "inputs": [
        {
          "indexed": true,
          "internalType": "address",
          "name": "outbound_tkn",
          "type": "address"
        },
        {
          "indexed": true,
          "internalType": "address",
          "name": "inbound_tkn",
          "type": "address"
        },
        {
          "indexed": true,
          "internalType": "address",
          "name": "owner",
          "type": "address"
        },
        {
          "indexed": false,
          "internalType": "address",
          "name": "spender",
          "type": "address"
        },
        {
          "indexed": false,
          "internalType": "uint256",
          "name": "value",
          "type": "uint256"
        }
      ],
      "name": "Approval",
      "type": "event"
    },
    {
      "anonymous": false,
      "inputs": [],
      "name": "CleanComplete",
      "type": "event"
    },
    {
      "anonymous": false,
      "inputs": [
        {
          "indexed": true,
          "internalType": "bytes32",
          "name": "olKeyHash",
          "type": "bytes32"
        },
        {
          "indexed": true,
          "internalType": "address",
          "name": "taker",
          "type": "address"
        },
        {
          "indexed": false,
          "internalType": "uint256",
          "name": "offersToBeCleaned",
          "type": "uint256"
        }
      ],
      "name": "CleanStart",
      "type": "event"
    },
    {
      "anonymous": false,
      "inputs": [
        {
          "indexed": true,
          "internalType": "address",
          "name": "maker",
          "type": "address"
        },
        {
          "indexed": false,
          "internalType": "uint256",
          "name": "amount",
          "type": "uint256"
        }
      ],
      "name": "Credit",
      "type": "event"
    },
    {
      "anonymous": false,
      "inputs": [
        {
          "indexed": true,
          "internalType": "address",
          "name": "maker",
          "type": "address"
        },
        {
          "indexed": false,
          "internalType": "uint256",
          "name": "amount",
          "type": "uint256"
        }
      ],
      "name": "Debit",
      "type": "event"
    },
    {
      "anonymous": false,
      "inputs": [],
      "name": "Kill",
      "type": "event"
    },
    {
      "anonymous": false,
      "inputs": [],
      "name": "NewMgv",
      "type": "event"
    },
    {
      "anonymous": false,
      "inputs": [
        {
          "indexed": true,
          "internalType": "bytes32",
          "name": "olKeyHash",
          "type": "bytes32"
        },
        {
          "indexed": true,
          "internalType": "address",
          "name": "taker",
          "type": "address"
        },
        {
          "indexed": true,
          "internalType": "uint256",
          "name": "id",
          "type": "uint256"
        },
        {
          "indexed": false,
          "internalType": "uint256",
          "name": "takerWants",
          "type": "uint256"
        },
        {
          "indexed": false,
          "internalType": "uint256",
          "name": "takerGives",
          "type": "uint256"
        },
        {
          "indexed": false,
          "internalType": "uint256",
          "name": "penalty",
          "type": "uint256"
        },
        {
          "indexed": false,
          "internalType": "bytes32",
          "name": "mgvData",
          "type": "bytes32"
        }
      ],
      "name": "OfferFail",
      "type": "event"
    },
    {
      "anonymous": false,
      "inputs": [
        {
          "indexed": true,
          "internalType": "bytes32",
          "name": "olKeyHash",
          "type": "bytes32"
        },
        {
          "indexed": true,
          "internalType": "address",
          "name": "taker",
          "type": "address"
        },
        {
          "indexed": true,
          "internalType": "uint256",
          "name": "id",
          "type": "uint256"
        },
        {
          "indexed": false,
          "internalType": "uint256",
          "name": "takerWants",
          "type": "uint256"
        },
        {
          "indexed": false,
          "internalType": "uint256",
          "name": "takerGives",
          "type": "uint256"
        },
        {
          "indexed": false,
          "internalType": "uint256",
          "name": "penalty",
          "type": "uint256"
        },
        {
          "indexed": false,
          "internalType": "bytes32",
          "name": "mgvData",
          "type": "bytes32"
        },
        {
          "indexed": false,
          "internalType": "bytes32",
          "name": "posthookData",
          "type": "bytes32"
        }
      ],
      "name": "OfferFailWithPosthookData",
      "type": "event"
    },
    {
      "anonymous": false,
      "inputs": [
        {
          "indexed": true,
          "internalType": "bytes32",
          "name": "olKeyHash",
          "type": "bytes32"
        },
        {
          "indexed": true,
          "internalType": "address",
          "name": "maker",
          "type": "address"
        },
        {
          "indexed": false,
          "internalType": "uint256",
          "name": "id",
          "type": "uint256"
        },
        {
          "indexed": false,
          "internalType": "bool",
          "name": "deprovision",
          "type": "bool"
        }
      ],
      "name": "OfferRetract",
      "type": "event"
    },
    {
      "anonymous": false,
      "inputs": [
        {
          "indexed": true,
          "internalType": "bytes32",
          "name": "olKeyHash",
          "type": "bytes32"
        },
        {
          "indexed": true,
          "internalType": "address",
          "name": "taker",
          "type": "address"
        },
        {
          "indexed": true,
          "internalType": "uint256",
          "name": "id",
          "type": "uint256"
        },
        {
          "indexed": false,
          "internalType": "uint256",
          "name": "takerWants",
          "type": "uint256"
        },
        {
          "indexed": false,
          "internalType": "uint256",
          "name": "takerGives",
          "type": "uint256"
        }
      ],
      "name": "OfferSuccess",
      "type": "event"
    },
    {
      "anonymous": false,
      "inputs": [
        {
          "indexed": true,
          "internalType": "bytes32",
          "name": "olKeyHash",
          "type": "bytes32"
        },
        {
          "indexed": true,
          "internalType": "address",
          "name": "taker",
          "type": "address"
        },
        {
          "indexed": true,
          "internalType": "uint256",
          "name": "id",
          "type": "uint256"
        },
        {
          "indexed": false,
          "internalType": "uint256",
          "name": "takerWants",
          "type": "uint256"
        },
        {
          "indexed": false,
          "internalType": "uint256",
          "name": "takerGives",
          "type": "uint256"
        },
        {
          "indexed": false,
          "internalType": "bytes32",
          "name": "posthookData",
          "type": "bytes32"
        }
      ],
      "name": "OfferSuccessWithPosthookData",
      "type": "event"
    },
    {
      "anonymous": false,
      "inputs": [
        {
          "indexed": true,
          "internalType": "bytes32",
          "name": "olKeyHash",
          "type": "bytes32"
        },
        {
          "indexed": true,
          "internalType": "address",
          "name": "maker",
          "type": "address"
        },
        {
          "indexed": false,
          "internalType": "int256",
          "name": "tick",
          "type": "int256"
        },
        {
          "indexed": false,
          "internalType": "uint256",
          "name": "gives",
          "type": "uint256"
        },
        {
          "indexed": false,
          "internalType": "uint256",
          "name": "gasprice",
          "type": "uint256"
        },
        {
          "indexed": false,
          "internalType": "uint256",
          "name": "gasreq",
          "type": "uint256"
        },
        {
          "indexed": false,
          "internalType": "uint256",
          "name": "id",
          "type": "uint256"
        }
      ],
      "name": "OfferWrite",
      "type": "event"
    },
    {
      "anonymous": false,
      "inputs": [
        {
          "indexed": true,
          "internalType": "bytes32",
          "name": "olKeyHash",
          "type": "bytes32"
        },
        {
          "indexed": true,
          "internalType": "address",
          "name": "taker",
          "type": "address"
        },
        {
          "indexed": false,
          "internalType": "uint256",
          "name": "fee",
          "type": "uint256"
        }
      ],
      "name": "OrderComplete",
      "type": "event"
    },
    {
      "anonymous": false,
      "inputs": [
        {
          "indexed": true,
          "internalType": "bytes32",
          "name": "olKeyHash",
          "type": "bytes32"
        },
        {
          "indexed": true,
          "internalType": "address",
          "name": "taker",
          "type": "address"
        },
        {
          "indexed": false,
          "internalType": "Tick",
          "name": "maxTick",
          "type": "int256"
        },
        {
          "indexed": false,
          "internalType": "uint256",
          "name": "fillVolume",
          "type": "uint256"
        },
        {
          "indexed": false,
          "internalType": "bool",
          "name": "fillWants",
          "type": "bool"
        }
      ],
      "name": "OrderStart",
      "type": "event"
    },
    {
      "anonymous": false,
      "inputs": [
        {
          "indexed": true,
          "internalType": "bytes32",
          "name": "olKeyHash",
          "type": "bytes32"
        },
        {
          "indexed": true,
          "internalType": "address",
          "name": "outbound_tkn",
          "type": "address"
        },
        {
          "indexed": true,
          "internalType": "address",
          "name": "inbound_tkn",
          "type": "address"
        },
        {
          "indexed": false,
          "internalType": "uint256",
          "name": "tickSpacing",
          "type": "uint256"
        },
        {
          "indexed": false,
          "internalType": "bool",
          "name": "value",
          "type": "bool"
        }
      ],
      "name": "SetActive",
      "type": "event"
    },
    {
      "anonymous": false,
      "inputs": [
        {
          "indexed": true,
          "internalType": "bytes32",
          "name": "olKeyHash",
          "type": "bytes32"
        },
        {
          "indexed": false,
          "internalType": "uint256",
          "name": "value",
          "type": "uint256"
        }
      ],
      "name": "SetDensity96X32",
      "type": "event"
    },
    {
      "anonymous": false,
      "inputs": [
        {
          "indexed": true,
          "internalType": "bytes32",
          "name": "olKeyHash",
          "type": "bytes32"
        },
        {
          "indexed": false,
          "internalType": "uint256",
          "name": "value",
          "type": "uint256"
        }
      ],
      "name": "SetFee",
      "type": "event"
    },
    {
      "anonymous": false,
      "inputs": [
        {
          "indexed": true,
          "internalType": "bytes32",
          "name": "olKeyHash",
          "type": "bytes32"
        },
        {
          "indexed": false,
          "internalType": "uint256",
          "name": "offer_gasbase",
          "type": "uint256"
        }
      ],
      "name": "SetGasbase",
      "type": "event"
    },
    {
      "anonymous": false,
      "inputs": [
        {
          "indexed": false,
          "internalType": "uint256",
          "name": "value",
          "type": "uint256"
        }
      ],
      "name": "SetGasmax",
      "type": "event"
    },
    {
      "anonymous": false,
      "inputs": [
        {
          "indexed": false,
          "internalType": "uint256",
          "name": "value",
          "type": "uint256"
        }
      ],
      "name": "SetGasprice",
      "type": "event"
    },
    {
      "anonymous": false,
      "inputs": [
        {
          "indexed": false,
          "internalType": "address",
          "name": "value",
          "type": "address"
        }
      ],
      "name": "SetGovernance",
      "type": "event"
    },
    {
      "anonymous": false,
      "inputs": [
        {
          "indexed": false,
          "internalType": "uint256",
          "name": "value",
          "type": "uint256"
        }
      ],
      "name": "SetMaxGasreqForFailingOffers",
      "type": "event"
    },
    {
      "anonymous": false,
      "inputs": [
        {
          "indexed": false,
          "internalType": "uint256",
          "name": "value",
          "type": "uint256"
        }
      ],
      "name": "SetMaxRecursionDepth",
      "type": "event"
    },
    {
      "anonymous": false,
      "inputs": [
        {
          "indexed": false,
          "internalType": "address",
          "name": "value",
          "type": "address"
        }
      ],
      "name": "SetMonitor",
      "type": "event"
    },
    {
      "anonymous": false,
      "inputs": [
        {
          "indexed": false,
          "internalType": "bool",
          "name": "value",
          "type": "bool"
        }
      ],
      "name": "SetNotify",
      "type": "event"
    },
    {
      "anonymous": false,
      "inputs": [
        {
          "indexed": false,
          "internalType": "bool",
          "name": "value",
          "type": "bool"
        }
      ],
      "name": "SetUseOracle",
      "type": "event"
    },
    {
      "inputs": [
        {
          "components": [
            {
              "internalType": "address",
              "name": "outbound_tkn",
              "type": "address"
            },
            {
              "internalType": "address",
              "name": "inbound_tkn",
              "type": "address"
            },
            {
              "internalType": "uint256",
              "name": "tickSpacing",
              "type": "uint256"
            }
          ],
          "internalType": "struct OLKey",
          "name": "olKey",
          "type": "tuple"
        },
        {
          "internalType": "uint256",
          "name": "fee",
          "type": "uint256"
        },
        {
          "internalType": "uint256",
          "name": "density96X32",
          "type": "uint256"
        },
        {
          "internalType": "uint256",
          "name": "offer_gasbase",
          "type": "uint256"
        }
      ],
      "name": "activate",
      "outputs": [],
      "stateMutability": "nonpayable",
      "type": "function"
    },
    {
      "inputs": [
        {
          "components": [
            {
              "internalType": "address",
              "name": "outbound_tkn",
              "type": "address"
            },
            {
              "internalType": "address",
              "name": "inbound_tkn",
              "type": "address"
            },
            {
              "internalType": "uint256",
              "name": "tickSpacing",
              "type": "uint256"
            }
          ],
          "internalType": "struct OLKey",
          "name": "olKey",
          "type": "tuple"
        }
      ],
      "name": "deactivate",
      "outputs": [],
      "stateMutability": "nonpayable",
      "type": "function"
    },
    {
      "inputs": [],
      "name": "governance",
      "outputs": [
        {
          "internalType": "address",
          "name": "",
          "type": "address"
        }
      ],
      "stateMutability": "view",
      "type": "function"
    },
    {
      "inputs": [],
      "name": "kill",
      "outputs": [],
      "stateMutability": "nonpayable",
      "type": "function"
    },
    {
      "inputs": [
        {
          "components": [
            {
              "internalType": "address",
              "name": "outbound_tkn",
              "type": "address"
            },
            {
              "internalType": "address",
              "name": "inbound_tkn",
              "type": "address"
            },
            {
              "internalType": "uint256",
              "name": "tickSpacing",
              "type": "uint256"
            }
          ],
          "internalType": "struct OLKey",
          "name": "olKey",
          "type": "tuple"
        },
        {
          "internalType": "uint256",
          "name": "density96X32",
          "type": "uint256"
        }
      ],
      "name": "setDensity96X32",
      "outputs": [],
      "stateMutability": "nonpayable",
      "type": "function"
    },
    {
      "inputs": [
        {
          "components": [
            {
              "internalType": "address",
              "name": "outbound_tkn",
              "type": "address"
            },
            {
              "internalType": "address",
              "name": "inbound_tkn",
              "type": "address"
            },
            {
              "internalType": "uint256",
              "name": "tickSpacing",
              "type": "uint256"
            }
          ],
          "internalType": "struct OLKey",
          "name": "olKey",
          "type": "tuple"
        },
        {
          "internalType": "uint256",
          "name": "fee",
          "type": "uint256"
        }
      ],
      "name": "setFee",
      "outputs": [],
      "stateMutability": "nonpayable",
      "type": "function"
    },
    {
      "inputs": [
        {
          "components": [
            {
              "internalType": "address",
              "name": "outbound_tkn",
              "type": "address"
            },
            {
              "internalType": "address",
              "name": "inbound_tkn",
              "type": "address"
            },
            {
              "internalType": "uint256",
              "name": "tickSpacing",
              "type": "uint256"
            }
          ],
          "internalType": "struct OLKey",
          "name": "olKey",
          "type": "tuple"
        },
        {
          "internalType": "uint256",
          "name": "offer_gasbase",
          "type": "uint256"
        }
      ],
      "name": "setGasbase",
      "outputs": [],
      "stateMutability": "nonpayable",
      "type": "function"
    },
    {
      "inputs": [
        {
          "internalType": "uint256",
          "name": "gasmax",
          "type": "uint256"
        }
      ],
      "name": "setGasmax",
      "outputs": [],
      "stateMutability": "nonpayable",
      "type": "function"
    },
    {
      "inputs": [
        {
          "internalType": "uint256",
          "name": "gasprice",
          "type": "uint256"
        }
      ],
      "name": "setGasprice",
      "outputs": [],
      "stateMutability": "nonpayable",
      "type": "function"
    },
    {
      "inputs": [
        {
          "internalType": "address",
          "name": "governanceAddress",
          "type": "address"
        }
      ],
      "name": "setGovernance",
      "outputs": [],
      "stateMutability": "nonpayable",
      "type": "function"
    },
    {
      "inputs": [
        {
          "internalType": "uint256",
          "name": "maxGasreqForFailingOffers",
          "type": "uint256"
        }
      ],
      "name": "setMaxGasreqForFailingOffers",
      "outputs": [],
      "stateMutability": "nonpayable",
      "type": "function"
    },
    {
      "inputs": [
        {
          "internalType": "uint256",
          "name": "maxRecursionDepth",
          "type": "uint256"
        }
      ],
      "name": "setMaxRecursionDepth",
      "outputs": [],
      "stateMutability": "nonpayable",
      "type": "function"
    },
    {
      "inputs": [
        {
          "internalType": "address",
          "name": "monitor",
          "type": "address"
        }
      ],
      "name": "setMonitor",
      "outputs": [],
      "stateMutability": "nonpayable",
      "type": "function"
    },
    {
      "inputs": [
        {
          "internalType": "bool",
          "name": "notify",
          "type": "bool"
        }
      ],
      "name": "setNotify",
      "outputs": [],
      "stateMutability": "nonpayable",
      "type": "function"
    },
    {
      "inputs": [
        {
          "internalType": "bool",
          "name": "useOracle",
          "type": "bool"
        }
      ],
      "name": "setUseOracle",
      "outputs": [],
      "stateMutability": "nonpayable",
      "type": "function"
    },
    {
      "inputs": [
        {
          "internalType": "address",
          "name": "tokenAddress",
          "type": "address"
        },
        {
          "internalType": "uint256",
          "name": "value",
          "type": "uint256"
        }
      ],
      "name": "withdrawERC20",
      "outputs": [],
      "stateMutability": "nonpayable",
      "type": "function"
    }
  ],
  "bytecode": {
    "object": "0x608060405234801561001057600080fd5b5061108f806100206000396000f3fe608060405234801561001057600080fd5b50600436106101005760003560e01c806395999ee311610097578063e37de38b11610066578063e37de38b146101fc578063eeba33681461020f578063f514244414610222578063fcaa7e2e1461023557600080fd5b806395999ee3146101b057806396b4c30f146101c3578063a1db9782146101d6578063ab033ea9146101e957600080fd5b80635b275296116100d35780635b275296146101645780635cd82390146101775780636804f6131461018a57806374bfac331461019d57600080fd5b806341c0e1b514610105578063443759fb1461010f5780635a611f4e146101225780635aa6e67514610135575b600080fd5b61010d610248565b005b61010d61011d366004610e4c565b610292565b61010d610130366004610e88565b61036d565b600054610148906001600160a01b031681565b6040516001600160a01b03909116815260200160405180910390f35b61010d610172366004610ea5565b6103c7565b61010d610185366004610ec1565b61046a565b61010d610198366004610e88565b6104d4565b61010d6101ab366004610edc565b610527565b61010d6101be366004610edc565b6105bb565b61010d6101d1366004610ef5565b610670565b61010d6101e4366004610f2f565b610787565b61010d6101f7366004610ec1565b6107ef565b61010d61020a366004610edc565b610891565b61010d61021d366004610e4c565b610924565b61010d610230366004610e4c565b6109db565b61010d610243366004610edc565b610a9f565b610250610b5b565b60015465080000000000191665080000000000176001556040517fbe26733c2bf6ff3ea5ba8cfe744422bd49052ff9ed5685c9e81e6f9321dbaddd90600090a1565b61029a610b5b565b6040805180820190915260148152736d67762f636f6e6669672f6665652f386269747360601b602082015260ff821682146102f15760405162461bcd60e51b81526004016102e89190610f7d565b60405180910390fd5b50600060026000610303856060902090565b815260208101919091526040016000208054909150600161010160f71b031660ff60f71b60f784901b16178155606083206040518381527f139d6f58e9a127229667c8e3b36e88890a66cfc8ab1024ddc513e189e125b75b906020015b60405180910390a2505050565b610375610b5b565b6001546001605e1b1916605e82901b6001605e1b161760015560405181151581527f9b84fe4d9ffc14a6f7ec50c18884ee0d4bb8165aa718a28558df12ab4bd32b14906020015b60405180910390a150565b6103cf610b5b565b6000600260006103e0846060902090565b8152602001908152602001600020905061040860008260000154610bc890919063ffffffff16565b8155602082015182516001600160a01b039182169116610429846060902090565b6040808601518151908152600060208201527fae754ab4fca7273731e24a2db3350b4f89e22d7eff0819e2e3ab99aadca96de2910160405180910390a45050565b610472610b5b565b6001546bffffffffffffffffffffffff166bffffffffffffffffffffffff19606083901b16176001556040516001600160a01b03821681527ff592e42c32883b35bebfbf9d9b801570a25d5ccbba452310746ad2cfd20d548f906020016103bc565b6104dc610b5b565b6001546001605f1b1916605f82901b6001605f1b161760015560405181151581527fbf39fbfab835c119637f4dbc4fb0f428c559c210200405d1ec25ddb50a93f9d4906020016103bc565b61052f610b5b565b63ffffffff811681146040518060600160405280602b815260200161102f602b91399061056f5760405162461bcd60e51b81526004016102e89190610f7d565b506001546407fffffff819166407fffffff8600383901b16176001556040518181527fd03e2a424e8f5cf53988a496e7a6a3b7e11e7c082a349bdfdb61f4623863bc01906020016103bc565b6105c3610b5b565b60408051808201909152601881527f6d67762f636f6e6669672f6761736d61782f3234626974730000000000000000602082015262ffffff8216821461061c5760405162461bcd60e51b81526004016102e89190610f7d565b50600154680ffffff000000000001916680ffffff00000000000602c83901b16176001556040518181527f8cdff0cd5ed2543bcdf7eb93d8ec1c23626e579925f4531beeef15d84cf78d18906020016103bc565b610678610b5b565b606084206000818152600360209081526040808320885181546001600160a01b03199081166001600160a01b03928316178355848b0151600184018054909216921691909117905581890151600291820155909152902080546001600160ff1b0316600160ff1b178155602086015186516001600160a01b039182169116610701886060902090565b6040808a01518151908152600160208201527fae754ab4fca7273731e24a2db3350b4f89e22d7eff0819e2e3ab99aadca96de2910160405180910390a46107488686610292565b61075286856109db565b61075c8684610924565b600019600090815260019091016020526040808220600160ff1b908190558280529120555050505050565b61078f610b5b565b6000546107a79083906001600160a01b031683610bdb565b6107eb5760405162461bcd60e51b81526020600482015260156024820152741b59dd8bddda5d1a191c985dd15490cc8c11985a5b605a1b60448201526064016102e8565b5050565b6107f7610b5b565b6001600160a01b0381166108435760405162461bcd60e51b815260206004820152601360248201527206d67762f636f6e6669672f676f762f6e6f743606c1b60448201526064016102e8565b600080546001600160a01b0319166001600160a01b0383169081179091556040519081527f24a8c4807b324a269a51827c3446b8ac1cc13810d7d0c0ca1efafabddd7b6219906020016103bc565b610899610b5b565b60ff81168114604051806060016040528060228152602001610fea60229139906108d65760405162461bcd60e51b81526004016102e89190610f7d565b506001546507f80000000019166507f800000000602383901b16176001556040518181527ff9212b044703fa96962c8e40c32a62753a62752f2508fc05be2648e74dd24d85906020016103bc565b61092c610b5b565b61093d6103e882046101ff81161490565b60405180606001604052806023815260200161100c60239139906109745760405162461bcd60e51b81526004016102e89190610f7d565b50600060026000610986856060902090565b8152602081019190915260400160002080549091506109a59083610cb0565b8155606083206040518381527f4e29e260c5052737cbcd072416e6066a3db8a95f90ed5a03d4b424fc04c54b8390602001610360565b6109e3610b5b565b6000600260006109f4856060902090565b81526020019081526020016000209050610a1182600160801b1190565b610a5d5760405162461bcd60e51b815260206004820152601d60248201527f6d67762f636f6e6669672f64656e7369747939365833322f77726f6e6700000060448201526064016102e8565b8054610a699083610cd5565b8155606083206040518381527f0bd5b439c78e74e0095d271b67b573d223bc701828c7e2f0bb943a44c5eaa4fe90602001610360565b610aa7610b5b565b60408051808201909152601a81527f6d67762f636f6e6669672f67617370726963652f32366269747300000000000060208201526303ffffff82168214610b015760405162461bcd60e51b81526004016102e89190610f7d565b506001546b3ffffff0000000000000000019166b3ffffff00000000000000000604483901b16176001556040518181527fdbebd814ae648f654dcc50c734aa76e55a32e96b7d85303a08e2ddf11874a0dd906020016103bc565b6000546001600160a01b0316331480610b7357503330145b80610b8757506000546001600160a01b0316155b610bc65760405162461bcd60e51b815260206004820152601060248201526f1b59dd8bdd5b985d5d1a1bdc9a5e995960821b60448201526064016102e8565b565b60ff1b6001600160ff1b03919091161790565b604080516001600160a01b038481166024830152604480830185905283518084039091018152606490920183526020820180516001600160e01b031663a9059cbb60e01b179052915160009283918291881690610c39908590610fb0565b6000604051808303816000865af19150503d8060008114610c76576040519150601f19603f3d011682016040523d82523d6000602084013e610c7b565b606091505b5091509150818015610ca5575080511580610ca5575080806020019051810190610ca59190610fcc565b979650505050505050565b60006503fe000000001983166503fe000000006103e8840460211b16175b9392505050565b6000610cce610ce383610cfe565b849060ee1b6101ff60ee1b166101ff60ee1b19919091161790565b600060038211610d0c575090565b6000610da2837e09010a0d15021d0b0e10121619031e080c141c0f111807131b17061a05041f6307c4acdd60e01b6fffffffffffffffffffffffffffffffff831160071b8315600890811b9190911784811c67ffffffffffffffff1060061b1784811c63ffffffff1060051b1793841c600181901c17600281901c17600481901c179081901c17601081901c170260fb1c1a1790565b90506003600119820184901c16600282901b17610cce565b80356001600160a01b0381168114610dd157600080fd5b919050565b600060608284031215610de857600080fd5b6040516060810181811067ffffffffffffffff82111715610e1957634e487b7160e01b600052604160045260246000fd5b604052905080610e2883610dba565b8152610e3660208401610dba565b6020820152604083013560408201525092915050565b60008060808385031215610e5f57600080fd5b610e698484610dd6565b946060939093013593505050565b8015158114610e8557600080fd5b50565b600060208284031215610e9a57600080fd5b8135610cce81610e77565b600060608284031215610eb757600080fd5b610cce8383610dd6565b600060208284031215610ed357600080fd5b610cce82610dba565b600060208284031215610eee57600080fd5b5035919050565b60008060008060c08587031215610f0b57600080fd5b610f158686610dd6565b966060860135965060808601359560a00135945092505050565b60008060408385031215610f4257600080fd5b610f4b83610dba565b946020939093013593505050565b60005b83811015610f74578181015183820152602001610f5c565b50506000910152565b6020815260008251806020840152610f9c816040850160208701610f59565b601f01601f19169190910160400192915050565b60008251610fc2818460208701610f59565b9190910192915050565b600060208284031215610fde57600080fd5b8151610cce81610e7756fe6d67762f636f6e6669672f6d6178526563757273696f6e44657074682f38626974736d67762f636f6e6669672f6b696c6f5f6f666665725f676173626173652f39626974736d67762f636f6e6669672f6d6178476173726571466f724661696c696e674f66666572732f333262697473a2646970667358221220473d3274e9f5c917c693df0225503c3663de6d44ee2f29d5c2a605b1fe2a075664736f6c63430008140033",
    "linkReferences": {}
  },
  "methodIdentifiers": {
    "activate((address,address,uint256),uint256,uint256,uint256)": "96b4c30f",
    "deactivate((address,address,uint256))": "5b275296",
    "governance()": "5aa6e675",
    "kill()": "41c0e1b5",
    "setDensity96X32((address,address,uint256),uint256)": "f5142444",
    "setFee((address,address,uint256),uint256)": "443759fb",
    "setGasbase((address,address,uint256),uint256)": "eeba3368",
    "setGasmax(uint256)": "95999ee3",
    "setGasprice(uint256)": "fcaa7e2e",
    "setGovernance(address)": "ab033ea9",
    "setMaxGasreqForFailingOffers(uint256)": "74bfac33",
    "setMaxRecursionDepth(uint256)": "e37de38b",
    "setMonitor(address)": "5cd82390",
    "setNotify(bool)": "5a611f4e",
    "setUseOracle(bool)": "6804f613",
    "withdrawERC20(address,uint256)": "a1db9782"
  },
  "id": 45
}