{
  "abi": [
    {
      "inputs": [
        {
          "internalType": "address",
          "name": "admin",
          "type": "address"
        },
        {
          "internalType": "string",
          "name": "name",
          "type": "string"
        },
        {
          "internalType": "string",
          "name": "symbol",
          "type": "string"
        },
        {
          "internalType": "uint8",
          "name": "_decimals",
          "type": "uint8"
        }
      ],
      "stateMutability": "nonpayable",
      "type": "constructor"
    },
    {
      "anonymous": false,
      "inputs": [
        {
          "indexed": true,
          "internalType": "address",
          "name": "owner",
          "type": "address"
        },
        {
          "indexed": true,
          "internalType": "address",
          "name": "spender",
          "type": "address"
        },
        {
          "indexed": false,
          "internalType": "uint256",
          "name": "value",
          "type": "uint256"
        }
      ],
      "name": "Approval",
      "type": "event"
    },
    {
      "anonymous": false,
      "inputs": [
        {
          "indexed": true,
          "internalType": "address",
          "name": "from",
          "type": "address"
        },
        {
          "indexed": true,
          "internalType": "address",
          "name": "to",
          "type": "address"
        },
        {
          "indexed": false,
          "internalType": "uint256",
          "name": "value",
          "type": "uint256"
        }
      ],
      "name": "Transfer",
      "type": "event"
    },
    {
      "inputs": [],
      "name": "DOMAIN_SEPARATOR",
      "outputs": [
        {
          "internalType": "bytes32",
          "name": "",
          "type": "bytes32"
        }
      ],
      "stateMutability": "view",
      "type": "function"
    },
    {
      "inputs": [],
      "name": "__decimals",
      "outputs": [
        {
          "internalType": "uint256",
          "name": "",
          "type": "uint256"
        }
      ],
      "stateMutability": "view",
      "type": "function"
    },
    {
      "inputs": [
        {
          "internalType": "address",
          "name": "",
          "type": "address"
        }
      ],
      "name": "_blacklisted",
      "outputs": [
        {
          "internalType": "bool",
          "name": "",
          "type": "bool"
        }
      ],
      "stateMutability": "view",
      "type": "function"
    },
    {
      "inputs": [
        {
          "internalType": "address",
          "name": "admin",
          "type": "address"
        }
      ],
      "name": "addAdmin",
      "outputs": [],
      "stateMutability": "nonpayable",
      "type": "function"
    },
    {
      "inputs": [
        {
          "internalType": "address",
          "name": "owner",
          "type": "address"
        },
        {
          "internalType": "address",
          "name": "spender",
          "type": "address"
        }
      ],
      "name": "allowance",
      "outputs": [
        {
          "internalType": "uint256",
          "name": "",
          "type": "uint256"
        }
      ],
      "stateMutability": "view",
      "type": "function"
    },
    {
      "inputs": [
        {
          "internalType": "address",
          "name": "spender",
          "type": "address"
        },
        {
          "internalType": "uint256",
          "name": "amount",
          "type": "uint256"
        }
      ],
      "name": "approve",
      "outputs": [
        {
          "internalType": "bool",
          "name": "",
          "type": "bool"
        }
      ],
      "stateMutability": "nonpayable",
      "type": "function"
    },
    {
      "inputs": [
        {
          "internalType": "address",
          "name": "account",
          "type": "address"
        }
      ],
      "name": "balanceOf",
      "outputs": [
        {
          "internalType": "uint256",
          "name": "",
          "type": "uint256"
        }
      ],
      "stateMutability": "view",
      "type": "function"
    },
    {
      "inputs": [
        {
          "internalType": "address",
          "name": "account",
          "type": "address"
        }
      ],
      "name": "blacklists",
      "outputs": [],
      "stateMutability": "nonpayable",
      "type": "function"
    },
    {
      "inputs": [
        {
          "internalType": "address",
          "name": "account",
          "type": "address"
        },
        {
          "internalType": "uint256",
          "name": "amount",
          "type": "uint256"
        }
      ],
      "name": "burn",
      "outputs": [],
      "stateMutability": "nonpayable",
      "type": "function"
    },
    {
      "inputs": [],
      "name": "decimals",
      "outputs": [
        {
          "internalType": "uint8",
          "name": "",
          "type": "uint8"
        }
      ],
      "stateMutability": "view",
      "type": "function"
    },
    {
      "inputs": [
        {
          "internalType": "address",
          "name": "spender",
          "type": "address"
        },
        {
          "internalType": "uint256",
          "name": "subtractedValue",
          "type": "uint256"
        }
      ],
      "name": "decreaseAllowance",
      "outputs": [
        {
          "internalType": "bool",
          "name": "",
          "type": "bool"
        }
      ],
      "stateMutability": "nonpayable",
      "type": "function"
    },
    {
      "inputs": [
        {
          "internalType": "address",
          "name": "spender",
          "type": "address"
        },
        {
          "internalType": "uint256",
          "name": "addedValue",
          "type": "uint256"
        }
      ],
      "name": "increaseAllowance",
      "outputs": [
        {
          "internalType": "bool",
          "name": "",
          "type": "bool"
        }
      ],
      "stateMutability": "nonpayable",
      "type": "function"
    },
    {
      "inputs": [
        {
          "internalType": "address",
          "name": "to",
          "type": "address"
        },
        {
          "internalType": "uint256",
          "name": "amount",
          "type": "uint256"
        }
      ],
      "name": "mint",
      "outputs": [],
      "stateMutability": "nonpayable",
      "type": "function"
    },
    {
      "inputs": [
        {
          "internalType": "uint256",
          "name": "amount",
          "type": "uint256"
        }
      ],
      "name": "mint",
      "outputs": [],
      "stateMutability": "nonpayable",
      "type": "function"
    },
    {
      "inputs": [
        {
          "internalType": "address",
          "name": "to",
          "type": "address"
        },
        {
          "internalType": "uint256",
          "name": "amount",
          "type": "uint256"
        }
      ],
      "name": "mintAdmin",
      "outputs": [],
      "stateMutability": "nonpayable",
      "type": "function"
    },
    {
      "inputs": [],
      "name": "name",
      "outputs": [
        {
          "internalType": "string",
          "name": "",
          "type": "string"
        }
      ],
      "stateMutability": "view",
      "type": "function"
    },
    {
      "inputs": [
        {
          "internalType": "address",
          "name": "owner",
          "type": "address"
        }
      ],
      "name": "nonces",
      "outputs": [
        {
          "internalType": "uint256",
          "name": "",
          "type": "uint256"
        }
      ],
      "stateMutability": "view",
      "type": "function"
    },
    {
      "inputs": [
        {
          "internalType": "address",
          "name": "owner",
          "type": "address"
        },
        {
          "internalType": "address",
          "name": "spender",
          "type": "address"
        },
        {
          "internalType": "uint256",
          "name": "value",
          "type": "uint256"
        },
        {
          "internalType": "uint256",
          "name": "deadline",
          "type": "uint256"
        },
        {
          "internalType": "uint8",
          "name": "v",
          "type": "uint8"
        },
        {
          "internalType": "bytes32",
          "name": "r",
          "type": "bytes32"
        },
        {
          "internalType": "bytes32",
          "name": "s",
          "type": "bytes32"
        }
      ],
      "name": "permit",
      "outputs": [],
      "stateMutability": "nonpayable",
      "type": "function"
    },
    {
      "inputs": [
        {
          "internalType": "uint256",
          "name": "n",
          "type": "uint256"
        },
        {
          "internalType": "uint256",
          "name": "e",
          "type": "uint256"
        }
      ],
      "name": "pow",
      "outputs": [
        {
          "internalType": "uint256",
          "name": "",
          "type": "uint256"
        }
      ],
      "stateMutability": "pure",
      "type": "function"
    },
    {
      "inputs": [],
      "name": "symbol",
      "outputs": [
        {
          "internalType": "string",
          "name": "",
          "type": "string"
        }
      ],
      "stateMutability": "view",
      "type": "function"
    },
    {
      "inputs": [],
      "name": "totalSupply",
      "outputs": [
        {
          "internalType": "uint256",
          "name": "",
          "type": "uint256"
        }
      ],
      "stateMutability": "view",
      "type": "function"
    },
    {
      "inputs": [
        {
          "internalType": "address",
          "name": "to",
          "type": "address"
        },
        {
          "internalType": "uint256",
          "name": "amount",
          "type": "uint256"
        }
      ],
      "name": "transfer",
      "outputs": [
        {
          "internalType": "bool",
          "name": "",
          "type": "bool"
        }
      ],
      "stateMutability": "nonpayable",
      "type": "function"
    },
    {
      "inputs": [
        {
          "internalType": "address",
          "name": "from",
          "type": "address"
        },
        {
          "internalType": "address",
          "name": "to",
          "type": "address"
        },
        {
          "internalType": "uint256",
          "name": "amount",
          "type": "uint256"
        }
      ],
      "name": "transferFrom",
      "outputs": [
        {
          "internalType": "bool",
          "name": "",
          "type": "bool"
        }
      ],
      "stateMutability": "nonpayable",
      "type": "function"
    },
    {
      "inputs": [
        {
          "internalType": "address",
          "name": "account",
          "type": "address"
        }
      ],
      "name": "whitelists",
      "outputs": [],
      "stateMutability": "nonpayable",
      "type": "function"
    }
  ],
  "bytecode": {
    "object": "0x6101406040523480156200001257600080fd5b5060405162001c7238038062001c72833981016040819052620000359162000205565b82828180604051806040016040528060018152602001603160f81b8152508484816003908162000066919062000338565b50600462000075828262000338565b5050825160208085019190912083518483012060e08290526101008190524660a0818152604080517f8b73c3c69bb8fe3d512ecc4cf759cc79239f7b179b0ffacaa9a75d522b39400f81880181905281830187905260608201869052608082019490945230818401528151808203909301835260c0019052805194019390932091935091906080523060c05261012052505050506001600160a01b03969096166000908152600860205260409020805460ff19166001179055505060ff166009555062000404915050565b634e487b7160e01b600052604160045260246000fd5b600082601f8301126200016857600080fd5b81516001600160401b038082111562000185576200018562000140565b604051601f8301601f19908116603f01168101908282118183101715620001b057620001b062000140565b81604052838152602092508683858801011115620001cd57600080fd5b600091505b83821015620001f15785820183015181830184015290820190620001d2565b600093810190920192909252949350505050565b600080600080608085870312156200021c57600080fd5b84516001600160a01b03811681146200023457600080fd5b60208601519094506001600160401b03808211156200025257600080fd5b620002608883890162000156565b945060408701519150808211156200027757600080fd5b50620002868782880162000156565b925050606085015160ff811681146200029e57600080fd5b939692955090935050565b600181811c90821680620002be57607f821691505b602082108103620002df57634e487b7160e01b600052602260045260246000fd5b50919050565b601f8211156200033357600081815260208120601f850160051c810160208610156200030e5750805b601f850160051c820191505b818110156200032f578281556001016200031a565b5050505b505050565b81516001600160401b0381111562000354576200035462000140565b6200036c81620003658454620002a9565b84620002e5565b602080601f831160018114620003a457600084156200038b5750858301515b600019600386901b1c1916600185901b1785556200032f565b600085815260208120601f198616915b82811015620003d557888601518255948401946001909101908401620003b4565b5085821015620003f45787850151600019600388901b60f8161c191681555b5050505050600190811b01905550565b60805160a05160c05160e051610100516101205161181e62000454600039600061098c015260006109db015260006109b60152600061090f0152600061093901526000610963015261181e6000f3fe608060405234801561001057600080fd5b50600436106101585760003560e01c806370a08231116100c3578063a0712d681161007c578063a0712d68146102d7578063a457c2d7146102ea578063a9059cbb146102fd578063c3a7199914610310578063d505accf14610323578063dd62ed3e1461033657600080fd5b806370a08231146102545780637a6d69b41461027d5780637ecebe00146102a05780638ea2da7d146102b357806395d89b41146102bc5780639dc29fac146102c457600080fd5b80632e4c697f116101155780632e4c697f146101eb578063313ce567146101fe5780633644e51514610213578063395093511461021b57806340c10f191461022e578063704802751461024157600080fd5b806306fdde031461015d578063095ea7b31461017b57806316c021291461019e57806318160ddd146101b35780631e7be210146101c557806323b872dd146101d8575b600080fd5b610165610349565b604051610172919061150d565b60405180910390f35b61018e610189366004611577565b6103db565b6040519015158152602001610172565b6101b16101ac3660046115a1565b610462565b005b6002545b604051908152602001610172565b6101b16101d33660046115a1565b610495565b61018e6101e63660046115c3565b6104c2565b6101b76101f93660046115ff565b61057e565b60095460405160ff9091168152602001610172565b6101b76105e6565b61018e610229366004611577565b6105f5565b6101b161023c366004611577565b610621565b6101b161024f3660046115a1565b61062f565b6101b76102623660046115a1565b6001600160a01b031660009081526020819052604090205490565b61018e61028b3660046115a1565b60076020526000908152604090205460ff1681565b6101b76102ae3660046115a1565b61065b565b6101b760095481565b610165610679565b6101b16102d2366004611577565b610688565b6101b16102e5366004611621565b61069a565b61018e6102f8366004611577565b6106a4565b61018e61030b366004611577565b61072a565b6101b161031e366004611577565b61079f565b6101b161033136600461163a565b6107b1565b6101b76103443660046116ad565b610841565b606060038054610358906116e0565b80601f0160208091040260200160405190810160405280929190818152602001828054610384906116e0565b80156103d15780601f106103a6576101008083540402835291602001916103d1565b820191906000526020600020905b8154815290600101906020018083116103b457829003601f168201915b5050505050905090565b6001600160a01b038216600090815260076020526040812054839060ff161561041f5760405162461bcd60e51b815260040161041690611714565b60405180910390fd5b3360008181526007602052604090205460ff161561044f5760405162461bcd60e51b815260040161041690611714565b610459858561086c565b95945050505050565b61046a61087a565b610492816001600160a01b03166000908152600760205260409020805460ff19166001179055565b50565b61049d61087a565b610492816001600160a01b03166000908152600760205260409020805460ff19169055565b6001600160a01b038316600090815260076020526040812054849060ff16156104fd5760405162461bcd60e51b815260040161041690611714565b6001600160a01b038416600090815260076020526040902054849060ff16156105385760405162461bcd60e51b815260040161041690611714565b3360008181526007602052604090205460ff16156105685760405162461bcd60e51b815260040161041690611714565b6105738787876108e9565b979650505050505050565b600081600003610590575060016105e0565b8160010361059f5750816105e0565b60006105b0846101f960028661176d565b90506105bc8180611781565b90506105c9600284611798565b6001036105dd576105da8482611781565b90505b90505b92915050565b60006105f0610902565b905090565b6000336106178185856106088383610841565b61061291906117ac565b610a29565b5060019392505050565b61062b8282610b4d565b5050565b61063761087a565b6001600160a01b03166000908152600860205260409020805460ff19166001179055565b6001600160a01b0381166000908152600560205260408120546105e0565b606060048054610358906116e0565b61069061087a565b61062b8282610be5565b6104923382610b4d565b600033816106b28286610841565b9050838110156107125760405162461bcd60e51b815260206004820152602560248201527f45524332303a2064656372656173656420616c6c6f77616e63652062656c6f77604482015264207a65726f60d81b6064820152608401610416565b61071f8286868403610a29565b506001949350505050565b6001600160a01b038216600090815260076020526040812054839060ff16156107655760405162461bcd60e51b815260040161041690611714565b3360008181526007602052604090205460ff16156107955760405162461bcd60e51b815260040161041690611714565b6104598585610d33565b6107a761087a565b61062b8282610d41565b6001600160a01b038716600090815260076020526040902054879060ff16156107ec5760405162461bcd60e51b815260040161041690611714565b6001600160a01b038716600090815260076020526040902054879060ff16156108275760405162461bcd60e51b815260040161041690611714565b61083689898989898989610e20565b505050505050505050565b6001600160a01b03918216600090815260016020908152604080832093909416825291909152205490565b600033610617818585610a29565b3360009081526008602052604090205460ff166108e75760405162461bcd60e51b815260206004820152602560248201527f4d696e7461626c654552433230424c57697468446563696d616c732f61646d696044820152646e4f6e6c7960d81b6064820152608401610416565b565b6000336108f7858285610f84565b61071f858585610ffe565b6000306001600160a01b037f00000000000000000000000000000000000000000000000000000000000000001614801561095b57507f000000000000000000000000000000000000000000000000000000000000000046145b1561098557507f000000000000000000000000000000000000000000000000000000000000000090565b50604080517f00000000000000000000000000000000000000000000000000000000000000006020808301919091527f0000000000000000000000000000000000000000000000000000000000000000828401527f000000000000000000000000000000000000000000000000000000000000000060608301524660808301523060a0808401919091528351808403909101815260c0909201909252805191012090565b6001600160a01b038316610a8b5760405162461bcd60e51b8152602060048201526024808201527f45524332303a20617070726f76652066726f6d20746865207a65726f206164646044820152637265737360e01b6064820152608401610416565b6001600160a01b038216610aec5760405162461bcd60e51b815260206004820152602260248201527f45524332303a20617070726f766520746f20746865207a65726f206164647265604482015261737360f01b6064820152608401610416565b6001600160a01b0383811660008181526001602090815260408083209487168084529482529182902085905590518481527f8c5be1e5ebec7d5bd14f71427d1e84f3dd0314c0f7b2291e5b200ac8c7c3b925910160405180910390a3505050565b620186a0610b67600a610b5f60095490565b60ff1661057e565b610b719082611781565b821115610bd65760405162461bcd60e51b815260206004820152602d60248201527f4d696e7461626c654552433230424c57697468446563696d616c732f6d696e7460448201526c131a5b5a5d115e18d959591959609a1b6064820152608401610416565b610be08383610d41565b505050565b6001600160a01b038216610c455760405162461bcd60e51b815260206004820152602160248201527f45524332303a206275726e2066726f6d20746865207a65726f206164647265736044820152607360f81b6064820152608401610416565b6001600160a01b03821660009081526020819052604090205481811015610cb95760405162461bcd60e51b815260206004820152602260248201527f45524332303a206275726e20616d6f756e7420657863656564732062616c616e604482015261636560f01b6064820152608401610416565b6001600160a01b0383166000908152602081905260408120838303905560028054849290610ce89084906117bf565b90915550506040518281526000906001600160a01b038516907fddf252ad1be2c89b69c2b068fc378daa952ba7f163c4a11628f55a4df523b3ef9060200160405180910390a3505050565b600033610617818585610ffe565b6001600160a01b038216610d975760405162461bcd60e51b815260206004820152601f60248201527f45524332303a206d696e7420746f20746865207a65726f2061646472657373006044820152606401610416565b8060026000828254610da991906117ac565b90915550506001600160a01b03821660009081526020819052604081208054839290610dd69084906117ac565b90915550506040518181526001600160a01b038316906000907fddf252ad1be2c89b69c2b068fc378daa952ba7f163c4a11628f55a4df523b3ef9060200160405180910390a35050565b83421115610e705760405162461bcd60e51b815260206004820152601d60248201527f45524332305065726d69743a206578706972656420646561646c696e650000006044820152606401610416565b60007f6e71edae12b1b97f4d1f60370fef10105fa2faae0126114a169c64845d6126c9888888610e9f8c6111cc565b6040805160208101969096526001600160a01b0394851690860152929091166060840152608083015260a082015260c0810186905260e0016040516020818303038152906040528051906020012090506000610efa826111f4565b90506000610f0a82878787611242565b9050896001600160a01b0316816001600160a01b031614610f6d5760405162461bcd60e51b815260206004820152601e60248201527f45524332305065726d69743a20696e76616c6964207369676e617475726500006044820152606401610416565b610f788a8a8a610a29565b50505050505050505050565b6000610f908484610841565b90506000198114610ff85781811015610feb5760405162461bcd60e51b815260206004820152601d60248201527f45524332303a20696e73756666696369656e7420616c6c6f77616e63650000006044820152606401610416565b610ff88484848403610a29565b50505050565b6001600160a01b0383166110625760405162461bcd60e51b815260206004820152602560248201527f45524332303a207472616e736665722066726f6d20746865207a65726f206164604482015264647265737360d81b6064820152608401610416565b6001600160a01b0382166110c45760405162461bcd60e51b815260206004820152602360248201527f45524332303a207472616e7366657220746f20746865207a65726f206164647260448201526265737360e81b6064820152608401610416565b6001600160a01b0383166000908152602081905260409020548181101561113c5760405162461bcd60e51b815260206004820152602660248201527f45524332303a207472616e7366657220616d6f756e7420657863656564732062604482015265616c616e636560d01b6064820152608401610416565b6001600160a01b038085166000908152602081905260408082208585039055918516815290812080548492906111739084906117ac565b92505081905550826001600160a01b0316846001600160a01b03167fddf252ad1be2c89b69c2b068fc378daa952ba7f163c4a11628f55a4df523b3ef846040516111bf91815260200190565b60405180910390a3610ff8565b6001600160a01b03811660009081526005602052604090208054600181018255905b50919050565b60006105e0611201610902565b8360405161190160f01b6020820152602281018390526042810182905260009060620160405160208183030381529060405280519060200120905092915050565b60008060006112538787878761126a565b9150915061126081611357565b5095945050505050565b6000807f7fffffffffffffffffffffffffffffff5d576e7357a4501ddfe92f46681b20a08311156112a1575060009050600361134e565b8460ff16601b141580156112b957508460ff16601c14155b156112ca575060009050600461134e565b6040805160008082526020820180845289905260ff881692820192909252606081018690526080810185905260019060a0016020604051602081039080840390855afa15801561131e573d6000803e3d6000fd5b5050604051601f1901519150506001600160a01b0381166113475760006001925092505061134e565b9150600090505b94509492505050565b600081600481111561136b5761136b6117d2565b036113735750565b6001816004811115611387576113876117d2565b036113d45760405162461bcd60e51b815260206004820152601860248201527f45434453413a20696e76616c6964207369676e617475726500000000000000006044820152606401610416565b60028160048111156113e8576113e86117d2565b036114355760405162461bcd60e51b815260206004820152601f60248201527f45434453413a20696e76616c6964207369676e6174757265206c656e677468006044820152606401610416565b6003816004811115611449576114496117d2565b036114a15760405162461bcd60e51b815260206004820152602260248201527f45434453413a20696e76616c6964207369676e6174757265202773272076616c604482015261756560f01b6064820152608401610416565b60048160048111156114b5576114b56117d2565b036104925760405162461bcd60e51b815260206004820152602260248201527f45434453413a20696e76616c6964207369676e6174757265202776272076616c604482015261756560f01b6064820152608401610416565b600060208083528351808285015260005b8181101561153a5785810183015185820160400152820161151e565b506000604082860101526040601f19601f8301168501019250505092915050565b80356001600160a01b038116811461157257600080fd5b919050565b6000806040838503121561158a57600080fd5b6115938361155b565b946020939093013593505050565b6000602082840312156115b357600080fd5b6115bc8261155b565b9392505050565b6000806000606084860312156115d857600080fd5b6115e18461155b565b92506115ef6020850161155b565b9150604084013590509250925092565b6000806040838503121561161257600080fd5b50508035926020909101359150565b60006020828403121561163357600080fd5b5035919050565b600080600080600080600060e0888a03121561165557600080fd5b61165e8861155b565b965061166c6020890161155b565b95506040880135945060608801359350608088013560ff8116811461169057600080fd5b9699959850939692959460a0840135945060c09093013592915050565b600080604083850312156116c057600080fd5b6116c98361155b565b91506116d76020840161155b565b90509250929050565b600181811c908216806116f457607f821691505b6020821081036111ee57634e487b7160e01b600052602260045260246000fd5b602080825260139082015272115490cc8c10930bd09b1858dadb1a5cdd1959606a1b604082015260600190565b634e487b7160e01b600052601260045260246000fd5b634e487b7160e01b600052601160045260246000fd5b60008261177c5761177c611741565b500490565b80820281158282048414176105e0576105e0611757565b6000826117a7576117a7611741565b500690565b808201808211156105e0576105e0611757565b818103818111156105e0576105e0611757565b634e487b7160e01b600052602160045260246000fdfea26469706673582212209677c0647a9d8de8cf6222ea20b1c062f2684730068df41a6c0575c50135e00964736f6c63430008140033",
    "linkReferences": {}
  },
  "methodIdentifiers": {
    "DOMAIN_SEPARATOR()": "3644e515",
    "__decimals()": "8ea2da7d",
    "_blacklisted(address)": "7a6d69b4",
    "addAdmin(address)": "70480275",
    "allowance(address,address)": "dd62ed3e",
    "approve(address,uint256)": "095ea7b3",
    "balanceOf(address)": "70a08231",
    "blacklists(address)": "16c02129",
    "burn(address,uint256)": "9dc29fac",
    "decimals()": "313ce567",
    "decreaseAllowance(address,uint256)": "a457c2d7",
    "increaseAllowance(address,uint256)": "39509351",
    "mint(address,uint256)": "40c10f19",
    "mint(uint256)": "a0712d68",
    "mintAdmin(address,uint256)": "c3a71999",
    "name()": "06fdde03",
    "nonces(address)": "7ecebe00",
    "permit(address,address,uint256,uint256,uint8,bytes32,bytes32)": "d505accf",
    "pow(uint256,uint256)": "2e4c697f",
    "symbol()": "95d89b41",
    "totalSupply()": "18160ddd",
    "transfer(address,uint256)": "a9059cbb",
    "transferFrom(address,address,uint256)": "23b872dd",
    "whitelists(address)": "1e7be210"
  },
  "id": 62
}