{
  "abi": [
    {
      "inputs": [
        {
          "internalType": "uint256",
          "name": "from",
          "type": "uint256"
        },
        {
          "internalType": "uint256",
          "name": "to",
          "type": "uint256"
        },
        {
          "internalType": "Tick",
          "name": "baseQuoteTickIndex0",
          "type": "int256"
        },
        {
          "internalType": "uint256",
          "name": "_baseQuoteTickOffset",
          "type": "uint256"
        },
        {
          "internalType": "uint256",
          "name": "firstAskIndex",
          "type": "uint256"
        },
        {
          "internalType": "uint256",
          "name": "bidGives",
          "type": "uint256"
        },
        {
          "internalType": "uint256",
          "name": "askGives",
          "type": "uint256"
        },
        {
          "internalType": "uint256",
          "name": "pricePoints",
          "type": "uint256"
        },
        {
          "internalType": "uint256",
          "name": "stepSize",
          "type": "uint256"
        }
      ],
      "name": "createGeometricDistribution",
      "outputs": [
        {
          "components": [
            {
              "components": [
                {
                  "internalType": "uint256",
                  "name": "index",
                  "type": "uint256"
                },
                {
                  "internalType": "Tick",
                  "name": "tick",
                  "type": "int256"
                },
                {
                  "internalType": "uint256",
                  "name": "gives",
                  "type": "uint256"
                }
              ],
              "internalType": "struct DirectWithBidsAndAsksDistribution.DistributionOffer[]",
              "name": "asks",
              "type": "tuple[]"
            },
            {
              "components": [
                {
                  "internalType": "uint256",
                  "name": "index",
                  "type": "uint256"
                },
                {
                  "internalType": "Tick",
                  "name": "tick",
                  "type": "int256"
                },
                {
                  "internalType": "uint256",
                  "name": "gives",
                  "type": "uint256"
                }
              ],
              "internalType": "struct DirectWithBidsAndAsksDistribution.DistributionOffer[]",
              "name": "bids",
              "type": "tuple[]"
            }
          ],
          "internalType": "struct DirectWithBidsAndAsksDistribution.Distribution",
          "name": "distribution",
          "type": "tuple"
        }
      ],
      "stateMutability": "pure",
      "type": "function"
    }
  ],
  "bytecode": {
    "object": "0x610cc461003a600b82828239805160001a60731461002d57634e487b7160e01b600052600060045260246000fd5b30600052607381538281f3fe73000000000000000000000000000000000000000030146080604052600436106100355760003560e01c8063fbbd4a651461003a575b600080fd5b61004d610048366004610a15565b610063565b60405161005a9190610ac5565b60405180910390f35b60408051808201909152606080825260208201526000198514158061008a57506000198414155b6100db5760405162461bcd60e51b815260206004820152601860248201527f4b616e64656c2f626f746847697665735661726961626c65000000000000000060448201526064015b60405180910390fd5b6000806100e9600285610b1d565b6100f4600286610b47565b6100fe9190610b5b565b905080881161010e576000610118565b6101188189610b6e565b915060006101268587610b6e565b905080831115610134578092505b506101429050600284610b47565b61014c9088610b5b565b96508287101561015a578296505b808a10156101655750885b8a871015610171578a96505b60008a881061018157600061018b565b61018b888c610b6e565b828d106101995760006101a3565b6101a38d84610b6e565b6101ad9190610b5b565b90508067ffffffffffffffff8111156101c8576101c8610b81565b60405190808252806020026020018201604052801561021d57816020015b61020a60405180606001604052806000815260200160008152602001600081525090565b8152602001906001900390816101e65790505b5060208401528067ffffffffffffffff81111561023c5761023c610b81565b60405190808252806020026020018201604052801561029157816020015b61027e60405180606001604052806000815260200160008152602001600081525090565b81526020019060019003908161025a5790505b508352508a60006102a2828b610b97565b6102ac908c610bc7565b6102b590610bef565b905060005b838310156103a15760405180606001604052808481526020018381526020016000198b146102e8578a6102f2565b6102f2848b6104bb565b8152508560200151828151811061030b5761030b610c0b565b60200260200101819052506000610325600185898b6104ed565b90506040518060600160405280828152602001828e6103449190610b97565b8f61034f9190610bc7565b81526000602090910152865180518490811061036d5761036d610c0b565b60209081029190910101526103828c84610c21565b925061038d82610c48565b9150508261039a90610c48565b92506102ba565b8992506103ae838c610b97565b6103b8908d610bc7565b91505b8c8310156104aa5760405180606001604052808481526020018381526020016000198a146103e957896103f3565b6103f3848c6104bb565b9052855180518390811061040957610409610c0b565b60200260200101819052506000610423600085898b6104ed565b90506040518060600160405280828152602001828e6104429190610b97565b8f61044d9190610bc7565b61045690610bef565b815260200160008152508660200151838151811061047657610476610c0b565b602090810291909101015261048b8c84610bc7565b925061049682610c48565b915050826104a390610c48565b92506103bb565b505050509998505050505050505050565b600080806104d06104cb86610bef565b61054a565b9092509050806104e08584610c61565b901c925050505b92915050565b6000600185600181111561050357610503610c78565b0361052e576105128385610b5b565b905081811061052957610526600183610b6e565b90505b610542565b8284106105425761053f8385610b6e565b90505b949350505050565b600080610556836105bc565b909250905060eb83901b60007ed89e8c075c4155dd3213326cbbcf86fd1f63f5c205dd2ad2cf44f9349b39e180830782139083050390607e1982850101908113156105a45793841c936105ae565b8060000385901b94505b81607f039350505050915091565b60008060008084126105ce57836105d7565b6105d784610bef565b9050620d89e881111561062c5760405162461bcd60e51b815260206004820152601760248201527f6d67762f6162735469636b2f6f75744f66426f756e647300000000000000000060448201526064016100d2565b6000600182161561064f576ffff97272373d413259a46990580e21399350610657565b600160801b93505b600282161561068157608061067c856ffff2e50f5f656932ef12357cf3c7fdcb610c61565b901c93505b60048216156106ab5760806106a6856fffe5caca7e10e4e61c3624eaa0941ccf610c61565b901c93505b60088216156106d55760806106d0856fffcb9843d60f6159c9db58835c926643610c61565b901c93505b60108216156106ff5760806106fa856fff973b41fa98c081472e6896dfb254bf610c61565b901c93505b6020821615610729576080610724856fff2ea16466c96a3843ec78b326b52860610c61565b901c93505b604082161561075357608061074e856ffe5dee046a99a2a811c461f1969c3052610c61565b901c93505b608082161561077d576080610778856ffcbe86c7900a88aedcffc83b479aa3a3610c61565b901c93505b6101008216156107a85760806107a3856ff987a7253ac413176f2b074cf7815e53610c61565b901c93505b6102008216156107d35760806107ce856ff3392b0822b70005940c7a398e4b70f2610c61565b901c93505b6104008216156107fe5760806107f9856fe7159475a2c29b7443b29c7fa6e889d8610c61565b901c93505b610800821615610829576080610824856fd097f3bdfd2022b8845ad8f792aa5825610c61565b901c93505b61100082161561085457608061084f856fa9f746462d870fdf8a65dc1f90e061e4610c61565b901c93505b61200082161561088c57608061087a856fe1b0d342ada5437121767bec575e65ed610c61565b901c9350610889600182610bc7565b90505b6140008216156108c45760806108b2856fc6f84d7e5f423f66048c541550bf3e96610c61565b901c93506108c1600282610bc7565b90505b6180008216156108fc5760806108ea856f9aa508b5b7a84e1c677de54f3e99bc8f610c61565b901c93506108f9600482610bc7565b90505b62010000821615610935576080610923856fbad5f1bdb70232cd33865244bdcc089c610c61565b901c9350610932600982610bc7565b90505b6202000082161561096e57608061095c856f885b9613d7e87aa498106fb7fa5edd37610c61565b901c935061096b601282610bc7565b90505b620400008216156109a7576080610995856f9142e0723efb884889d1f447715afacd610c61565b901c93506109a4602582610bc7565b90505b620800008216156109e05760806109ce856fa4d9a773d61316918f140bd96e8e6814610c61565b901c93506109dd604b82610bc7565b90505b6000851315610a01576001848560000304019350806109fe90610bef565b90505b610a0c816080610bc7565b92505050915091565b60008060008060008060008060006101208a8c031215610a3457600080fd5b505087359960208901359950604089013598606081013598506080810135975060a0810135965060c0810135955060e08101359450610100013592509050565b600081518084526020808501945080840160005b83811015610aba5781518051885283810151848901526040908101519088015260609096019590820190600101610a88565b509495945050505050565b602081526000825160406020840152610ae16060840182610a74565b90506020840151601f19848303016040850152610afe8282610a74565b95945050505050565b634e487b7160e01b600052601260045260246000fd5b600082610b2c57610b2c610b07565b500690565b634e487b7160e01b600052601160045260246000fd5b600082610b5657610b56610b07565b500490565b808201808211156104e7576104e7610b31565b818103818111156104e7576104e7610b31565b634e487b7160e01b600052604160045260246000fd5b80820260008212600160ff1b84141615610bb357610bb3610b31565b81810583148215176104e7576104e7610b31565b8082018281126000831280158216821582161715610be757610be7610b31565b505092915050565b6000600160ff1b8201610c0457610c04610b31565b5060000390565b634e487b7160e01b600052603260045260246000fd5b8181036000831280158383131683831282161715610c4157610c41610b31565b5092915050565b600060018201610c5a57610c5a610b31565b5060010190565b80820281158282048414176104e7576104e7610b31565b634e487b7160e01b600052602160045260246000fdfea2646970667358221220a05440459b620cf464e6aad5b6d3632d28caa918ca6360f5699a138b8804a39364736f6c63430008140033",
    "linkReferences": {}
  },
  "methodIdentifiers": {
    "createGeometricDistribution(uint256,uint256,int256,uint256,uint256,uint256,uint256,uint256,uint256)": "fbbd4a65"
  },
  "id": 116
}