{
  "abi": [
    {
      "inputs": [
        {
          "internalType": "contract IMangrove",
          "name": "mgv",
          "type": "address"
        },
        {
          "components": [
            {
              "internalType": "address",
              "name": "outbound_tkn",
              "type": "address"
            },
            {
              "internalType": "address",
              "name": "inbound_tkn",
              "type": "address"
            },
            {
              "internalType": "uint256",
              "name": "tickSpacing",
              "type": "uint256"
            }
          ],
          "internalType": "struct OLKey",
          "name": "olKeyBaseQuote",
          "type": "tuple"
        },
        {
          "internalType": "uint256",
          "name": "gasreq",
          "type": "uint256"
        },
        {
          "internalType": "address",
          "name": "reserveId",
          "type": "address"
        }
      ],
      "stateMutability": "nonpayable",
      "type": "constructor"
    },
    {
      "anonymous": false,
      "inputs": [
        {
          "indexed": true,
          "internalType": "contract IERC20",
          "name": "token",
          "type": "address"
        },
        {
          "indexed": false,
          "internalType": "uint256",
          "name": "amount",
          "type": "uint256"
        }
      ],
      "name": "Credit",
      "type": "event"
    },
    {
      "anonymous": false,
      "inputs": [
        {
          "indexed": true,
          "internalType": "contract IERC20",
          "name": "token",
          "type": "address"
        },
        {
          "indexed": false,
          "internalType": "uint256",
          "name": "amount",
          "type": "uint256"
        }
      ],
      "name": "Debit",
      "type": "event"
    },
    {
      "anonymous": false,
      "inputs": [
        {
          "indexed": true,
          "internalType": "bytes32",
          "name": "olKeyHash",
          "type": "bytes32"
        },
        {
          "indexed": true,
          "internalType": "uint256",
          "name": "offerId",
          "type": "uint256"
        },
        {
          "indexed": false,
          "internalType": "bytes32",
          "name": "makerData",
          "type": "bytes32"
        },
        {
          "indexed": false,
          "internalType": "bytes32",
          "name": "mgvData",
          "type": "bytes32"
        }
      ],
      "name": "LogIncident",
      "type": "event"
    },
    {
      "anonymous": false,
      "inputs": [
        {
          "indexed": false,
          "internalType": "contract IMangrove",
          "name": "mgv",
          "type": "address"
        }
      ],
      "name": "Mgv",
      "type": "event"
    },
    {
      "anonymous": false,
      "inputs": [
        {
          "indexed": false,
          "internalType": "bytes32",
          "name": "olKeyHash",
          "type": "bytes32"
        }
      ],
      "name": "OfferListKey",
      "type": "event"
    },
    {
      "anonymous": false,
      "inputs": [],
      "name": "PopulateEnd",
      "type": "event"
    },
    {
      "anonymous": false,
      "inputs": [],
      "name": "PopulateStart",
      "type": "event"
    },
    {
      "anonymous": false,
      "inputs": [],
      "name": "RetractEnd",
      "type": "event"
    },
    {
      "anonymous": false,
      "inputs": [],
      "name": "RetractStart",
      "type": "event"
    },
    {
      "anonymous": false,
      "inputs": [
        {
          "indexed": false,
          "internalType": "address",
          "name": "admin",
          "type": "address"
        }
      ],
      "name": "SetAdmin",
      "type": "event"
    },
    {
      "anonymous": false,
      "inputs": [
        {
          "indexed": false,
          "internalType": "uint256",
          "name": "value",
          "type": "uint256"
        }
      ],
      "name": "SetBaseQuoteTickOffset",
      "type": "event"
    },
    {
      "anonymous": false,
      "inputs": [
        {
          "indexed": false,
          "internalType": "uint256",
          "name": "value",
          "type": "uint256"
        }
      ],
      "name": "SetGasprice",
      "type": "event"
    },
    {
      "anonymous": false,
      "inputs": [
        {
          "indexed": false,
          "internalType": "uint256",
          "name": "value",
          "type": "uint256"
        }
      ],
      "name": "SetGasreq",
      "type": "event"
    },
    {
      "anonymous": false,
      "inputs": [
        {
          "indexed": true,
          "internalType": "enum OfferType",
          "name": "ba",
          "type": "uint8"
        },
        {
          "indexed": false,
          "internalType": "uint256",
          "name": "index",
          "type": "uint256"
        },
        {
          "indexed": false,
          "internalType": "uint256",
          "name": "offerId",
          "type": "uint256"
        }
      ],
      "name": "SetIndexMapping",
      "type": "event"
    },
    {
      "anonymous": false,
      "inputs": [
        {
          "indexed": false,
          "internalType": "uint256",
          "name": "value",
          "type": "uint256"
        }
      ],
      "name": "SetLength",
      "type": "event"
    },
    {
      "anonymous": false,
      "inputs": [
        {
          "indexed": true,
          "internalType": "address",
          "name": "reserveId",
          "type": "address"
        }
      ],
      "name": "SetReserveId",
      "type": "event"
    },
    {
      "anonymous": false,
      "inputs": [
        {
          "indexed": false,
          "internalType": "contract AbstractRouter",
          "name": "router",
          "type": "address"
        }
      ],
      "name": "SetRouter",
      "type": "event"
    },
    {
      "anonymous": false,
      "inputs": [
        {
          "indexed": false,
          "internalType": "uint256",
          "name": "value",
          "type": "uint256"
        }
      ],
      "name": "SetStepSize",
      "type": "event"
    },
    {
      "inputs": [],
      "name": "BASE",
      "outputs": [
        {
          "internalType": "contract IERC20",
          "name": "",
          "type": "address"
        }
      ],
      "stateMutability": "view",
      "type": "function"
    },
    {
      "inputs": [],
      "name": "CONSTANT_GASREQ",
      "outputs": [
        {
          "internalType": "uint256",
          "name": "",
          "type": "uint256"
        }
      ],
      "stateMutability": "view",
      "type": "function"
    },
    {
      "inputs": [],
      "name": "MGV",
      "outputs": [
        {
          "internalType": "contract IMangrove",
          "name": "",
          "type": "address"
        }
      ],
      "stateMutability": "view",
      "type": "function"
    },
    {
      "inputs": [],
      "name": "NO_ROUTER",
      "outputs": [
        {
          "internalType": "contract AbstractRouter",
          "name": "",
          "type": "address"
        }
      ],
      "stateMutability": "view",
      "type": "function"
    },
    {
      "inputs": [],
      "name": "QUOTE",
      "outputs": [
        {
          "internalType": "contract IERC20",
          "name": "",
          "type": "address"
        }
      ],
      "stateMutability": "view",
      "type": "function"
    },
    {
      "inputs": [],
      "name": "RESERVE_ID",
      "outputs": [
        {
          "internalType": "address",
          "name": "",
          "type": "address"
        }
      ],
      "stateMutability": "view",
      "type": "function"
    },
    {
      "inputs": [],
      "name": "TICK_SPACING",
      "outputs": [
        {
          "internalType": "uint256",
          "name": "",
          "type": "uint256"
        }
      ],
      "stateMutability": "view",
      "type": "function"
    },
    {
      "inputs": [
        {
          "internalType": "contract IERC20[]",
          "name": "tokens",
          "type": "address[]"
        }
      ],
      "name": "activate",
      "outputs": [],
      "stateMutability": "nonpayable",
      "type": "function"
    },
    {
      "inputs": [],
      "name": "admin",
      "outputs": [
        {
          "internalType": "address",
          "name": "current",
          "type": "address"
        }
      ],
      "stateMutability": "view",
      "type": "function"
    },
    {
      "inputs": [
        {
          "internalType": "contract IERC20",
          "name": "token",
          "type": "address"
        },
        {
          "internalType": "address",
          "name": "spender",
          "type": "address"
        },
        {
          "internalType": "uint256",
          "name": "amount",
          "type": "uint256"
        }
      ],
      "name": "approve",
      "outputs": [
        {
          "internalType": "bool",
          "name": "",
          "type": "bool"
        }
      ],
      "stateMutability": "nonpayable",
      "type": "function"
    },
    {
      "inputs": [],
      "name": "baseQuoteTickOffset",
      "outputs": [
        {
          "internalType": "uint256",
          "name": "",
          "type": "uint256"
        }
      ],
      "stateMutability": "view",
      "type": "function"
    },
    {
      "inputs": [
        {
          "internalType": "contract IERC20[]",
          "name": "tokens",
          "type": "address[]"
        }
      ],
      "name": "checkList",
      "outputs": [],
      "stateMutability": "view",
      "type": "function"
    },
    {
      "inputs": [
        {
          "internalType": "uint256",
          "name": "from",
          "type": "uint256"
        },
        {
          "internalType": "uint256",
          "name": "to",
          "type": "uint256"
        },
        {
          "internalType": "Tick",
          "name": "baseQuoteTickIndex0",
          "type": "int256"
        },
        {
          "internalType": "uint256",
          "name": "_baseQuoteTickOffset",
          "type": "uint256"
        },
        {
          "internalType": "uint256",
          "name": "firstAskIndex",
          "type": "uint256"
        },
        {
          "internalType": "uint256",
          "name": "bidGives",
          "type": "uint256"
        },
        {
          "internalType": "uint256",
          "name": "askGives",
          "type": "uint256"
        },
        {
          "internalType": "uint256",
          "name": "pricePoints",
          "type": "uint256"
        },
        {
          "internalType": "uint256",
          "name": "stepSize",
          "type": "uint256"
        }
      ],
      "name": "createDistribution",
      "outputs": [
        {
          "components": [
            {
              "components": [
                {
                  "internalType": "uint256",
                  "name": "index",
                  "type": "uint256"
                },
                {
                  "internalType": "Tick",
                  "name": "tick",
                  "type": "int256"
                },
                {
                  "internalType": "uint256",
                  "name": "gives",
                  "type": "uint256"
                }
              ],
              "internalType": "struct DirectWithBidsAndAsksDistribution.DistributionOffer[]",
              "name": "asks",
              "type": "tuple[]"
            },
            {
              "components": [
                {
                  "internalType": "uint256",
                  "name": "index",
                  "type": "uint256"
                },
                {
                  "internalType": "Tick",
                  "name": "tick",
                  "type": "int256"
                },
                {
                  "internalType": "uint256",
                  "name": "gives",
                  "type": "uint256"
                }
              ],
              "internalType": "struct DirectWithBidsAndAsksDistribution.DistributionOffer[]",
              "name": "bids",
              "type": "tuple[]"
            }
          ],
          "internalType": "struct DirectWithBidsAndAsksDistribution.Distribution",
          "name": "distribution",
          "type": "tuple"
        }
      ],
      "stateMutability": "pure",
      "type": "function"
    },
    {
      "inputs": [
        {
          "internalType": "uint256",
          "name": "baseAmount",
          "type": "uint256"
        },
        {
          "internalType": "uint256",
          "name": "quoteAmount",
          "type": "uint256"
        }
      ],
      "name": "depositFunds",
      "outputs": [],
      "stateMutability": "nonpayable",
      "type": "function"
    },
    {
      "inputs": [
        {
          "internalType": "enum OfferType",
          "name": "ba",
          "type": "uint8"
        },
        {
          "internalType": "uint256",
          "name": "index",
          "type": "uint256"
        }
      ],
      "name": "getOffer",
      "outputs": [
        {
          "internalType": "Offer",
          "name": "offer",
          "type": "uint256"
        }
      ],
      "stateMutability": "view",
      "type": "function"
    },
    {
      "inputs": [
        {
          "internalType": "enum OfferType",
          "name": "ba",
          "type": "uint8"
        },
        {
          "internalType": "uint256",
          "name": "offerId",
          "type": "uint256"
        }
      ],
      "name": "indexOfOfferId",
      "outputs": [
        {
          "internalType": "uint256",
          "name": "index",
          "type": "uint256"
        }
      ],
      "stateMutability": "view",
      "type": "function"
    },
    {
      "inputs": [
        {
          "internalType": "contract AavePooledRouter",
          "name": "router_",
          "type": "address"
        }
      ],
      "name": "initialize",
      "outputs": [],
      "stateMutability": "nonpayable",
      "type": "function"
    },
    {
      "inputs": [
        {
          "components": [
            {
              "components": [
                {
                  "internalType": "address",
                  "name": "outbound_tkn",
                  "type": "address"
                },
                {
                  "internalType": "address",
                  "name": "inbound_tkn",
                  "type": "address"
                },
                {
                  "internalType": "uint256",
                  "name": "tickSpacing",
                  "type": "uint256"
                }
              ],
              "internalType": "struct OLKey",
              "name": "olKey",
              "type": "tuple"
            },
            {
              "internalType": "uint256",
              "name": "offerId",
              "type": "uint256"
            },
            {
              "internalType": "Offer",
              "name": "offer",
              "type": "uint256"
            },
            {
              "internalType": "uint256",
              "name": "takerWants",
              "type": "uint256"
            },
            {
              "internalType": "uint256",
              "name": "takerGives",
              "type": "uint256"
            },
            {
              "internalType": "OfferDetail",
              "name": "offerDetail",
              "type": "uint256"
            },
            {
              "internalType": "Global",
              "name": "global",
              "type": "uint256"
            },
            {
              "internalType": "Local",
              "name": "local",
              "type": "uint256"
            }
          ],
          "internalType": "struct MgvLib.SingleOrder",
          "name": "order",
          "type": "tuple"
        }
      ],
      "name": "makerExecute",
      "outputs": [
        {
          "internalType": "bytes32",
          "name": "ret",
          "type": "bytes32"
        }
      ],
      "stateMutability": "nonpayable",
      "type": "function"
    },
    {
      "inputs": [
        {
          "components": [
            {
              "components": [
                {
                  "internalType": "address",
                  "name": "outbound_tkn",
                  "type": "address"
                },
                {
                  "internalType": "address",
                  "name": "inbound_tkn",
                  "type": "address"
                },
                {
                  "internalType": "uint256",
                  "name": "tickSpacing",
                  "type": "uint256"
                }
              ],
              "internalType": "struct OLKey",
              "name": "olKey",
              "type": "tuple"
            },
            {
              "internalType": "uint256",
              "name": "offerId",
              "type": "uint256"
            },
            {
              "internalType": "Offer",
              "name": "offer",
              "type": "uint256"
            },
            {
              "internalType": "uint256",
              "name": "takerWants",
              "type": "uint256"
            },
            {
              "internalType": "uint256",
              "name": "takerGives",
              "type": "uint256"
            },
            {
              "internalType": "OfferDetail",
              "name": "offerDetail",
              "type": "uint256"
            },
            {
              "internalType": "Global",
              "name": "global",
              "type": "uint256"
            },
            {
              "internalType": "Local",
              "name": "local",
              "type": "uint256"
            }
          ],
          "internalType": "struct MgvLib.SingleOrder",
          "name": "order",
          "type": "tuple"
        },
        {
          "components": [
            {
              "internalType": "bytes32",
              "name": "makerData",
              "type": "bytes32"
            },
            {
              "internalType": "bytes32",
              "name": "mgvData",
              "type": "bytes32"
            }
          ],
          "internalType": "struct MgvLib.OrderResult",
          "name": "result",
          "type": "tuple"
        }
      ],
      "name": "makerPosthook",
      "outputs": [],
      "stateMutability": "nonpayable",
      "type": "function"
    },
    {
      "inputs": [
        {
          "internalType": "contract IERC20",
          "name": "token",
          "type": "address"
        },
        {
          "internalType": "address",
          "name": "reserveId",
          "type": "address"
        }
      ],
      "name": "offerGasreq",
      "outputs": [
        {
          "internalType": "uint256",
          "name": "",
          "type": "uint256"
        }
      ],
      "stateMutability": "view",
      "type": "function"
    },
    {
      "inputs": [],
      "name": "offerGasreq",
      "outputs": [
        {
          "internalType": "uint256",
          "name": "",
          "type": "uint256"
        }
      ],
      "stateMutability": "view",
      "type": "function"
    },
    {
      "inputs": [
        {
          "internalType": "enum OfferType",
          "name": "ba",
          "type": "uint8"
        },
        {
          "internalType": "uint256",
          "name": "index",
          "type": "uint256"
        }
      ],
      "name": "offerIdOfIndex",
      "outputs": [
        {
          "internalType": "uint256",
          "name": "offerId",
          "type": "uint256"
        }
      ],
      "stateMutability": "view",
      "type": "function"
    },
    {
      "inputs": [
        {
          "internalType": "enum OfferType",
          "name": "ba",
          "type": "uint8"
        }
      ],
      "name": "offeredVolume",
      "outputs": [
        {
          "internalType": "uint256",
          "name": "volume",
          "type": "uint256"
        }
      ],
      "stateMutability": "view",
      "type": "function"
    },
    {
      "inputs": [],
      "name": "params",
      "outputs": [
        {
          "internalType": "uint32",
          "name": "gasprice",
          "type": "uint32"
        },
        {
          "internalType": "uint24",
          "name": "gasreq",
          "type": "uint24"
        },
        {
          "internalType": "uint88",
          "name": "stepSize",
          "type": "uint88"
        },
        {
          "internalType": "uint112",
          "name": "pricePoints",
          "type": "uint112"
        }
      ],
      "stateMutability": "view",
      "type": "function"
    },
    {
      "inputs": [
        {
          "internalType": "enum OfferType",
          "name": "ba",
          "type": "uint8"
        }
      ],
      "name": "pending",
      "outputs": [
        {
          "internalType": "int256",
          "name": "",
          "type": "int256"
        }
      ],
      "stateMutability": "view",
      "type": "function"
    },
    {
      "inputs": [
        {
          "components": [
            {
              "components": [
                {
                  "internalType": "uint256",
                  "name": "index",
                  "type": "uint256"
                },
                {
                  "internalType": "Tick",
                  "name": "tick",
                  "type": "int256"
                },
                {
                  "internalType": "uint256",
                  "name": "gives",
                  "type": "uint256"
                }
              ],
              "internalType": "struct DirectWithBidsAndAsksDistribution.DistributionOffer[]",
              "name": "asks",
              "type": "tuple[]"
            },
            {
              "components": [
                {
                  "internalType": "uint256",
                  "name": "index",
                  "type": "uint256"
                },
                {
                  "internalType": "Tick",
                  "name": "tick",
                  "type": "int256"
                },
                {
                  "internalType": "uint256",
                  "name": "gives",
                  "type": "uint256"
                }
              ],
              "internalType": "struct DirectWithBidsAndAsksDistribution.DistributionOffer[]",
              "name": "bids",
              "type": "tuple[]"
            }
          ],
          "internalType": "struct DirectWithBidsAndAsksDistribution.Distribution",
          "name": "distribution",
          "type": "tuple"
        },
        {
          "components": [
            {
              "internalType": "uint32",
              "name": "gasprice",
              "type": "uint32"
            },
            {
              "internalType": "uint24",
              "name": "gasreq",
              "type": "uint24"
            },
            {
              "internalType": "uint88",
              "name": "stepSize",
              "type": "uint88"
            },
            {
              "internalType": "uint112",
              "name": "pricePoints",
              "type": "uint112"
            }
          ],
          "internalType": "struct CoreKandel.Params",
          "name": "parameters",
          "type": "tuple"
        },
        {
          "internalType": "uint256",
          "name": "baseAmount",
          "type": "uint256"
        },
        {
          "internalType": "uint256",
          "name": "quoteAmount",
          "type": "uint256"
        }
      ],
      "name": "populate",
      "outputs": [],
      "stateMutability": "payable",
      "type": "function"
    },
    {
      "inputs": [
        {
          "components": [
            {
              "components": [
                {
                  "internalType": "uint256",
                  "name": "index",
                  "type": "uint256"
                },
                {
                  "internalType": "Tick",
                  "name": "tick",
                  "type": "int256"
                },
                {
                  "internalType": "uint256",
                  "name": "gives",
                  "type": "uint256"
                }
              ],
              "internalType": "struct DirectWithBidsAndAsksDistribution.DistributionOffer[]",
              "name": "asks",
              "type": "tuple[]"
            },
            {
              "components": [
                {
                  "internalType": "uint256",
                  "name": "index",
                  "type": "uint256"
                },
                {
                  "internalType": "Tick",
                  "name": "tick",
                  "type": "int256"
                },
                {
                  "internalType": "uint256",
                  "name": "gives",
                  "type": "uint256"
                }
              ],
              "internalType": "struct DirectWithBidsAndAsksDistribution.DistributionOffer[]",
              "name": "bids",
              "type": "tuple[]"
            }
          ],
          "internalType": "struct DirectWithBidsAndAsksDistribution.Distribution",
          "name": "distribution",
          "type": "tuple"
        }
      ],
      "name": "populateChunk",
      "outputs": [],
      "stateMutability": "nonpayable",
      "type": "function"
    },
    {
      "inputs": [
        {
          "internalType": "uint256",
          "name": "from",
          "type": "uint256"
        },
        {
          "internalType": "uint256",
          "name": "to",
          "type": "uint256"
        },
        {
          "internalType": "Tick",
          "name": "baseQuoteTickIndex0",
          "type": "int256"
        },
        {
          "internalType": "uint256",
          "name": "firstAskIndex",
          "type": "uint256"
        },
        {
          "internalType": "uint256",
          "name": "bidGives",
          "type": "uint256"
        },
        {
          "internalType": "uint256",
          "name": "askGives",
          "type": "uint256"
        }
      ],
      "name": "populateChunkFromOffset",
      "outputs": [],
      "stateMutability": "payable",
      "type": "function"
    },
    {
      "inputs": [
        {
          "internalType": "uint256",
          "name": "from",
          "type": "uint256"
        },
        {
          "internalType": "uint256",
          "name": "to",
          "type": "uint256"
        },
        {
          "internalType": "Tick",
          "name": "baseQuoteTickIndex0",
          "type": "int256"
        },
        {
          "internalType": "uint256",
          "name": "_baseQuoteTickOffset",
          "type": "uint256"
        },
        {
          "internalType": "uint256",
          "name": "firstAskIndex",
          "type": "uint256"
        },
        {
          "internalType": "uint256",
          "name": "bidGives",
          "type": "uint256"
        },
        {
          "internalType": "uint256",
          "name": "askGives",
          "type": "uint256"
        },
        {
          "components": [
            {
              "internalType": "uint32",
              "name": "gasprice",
              "type": "uint32"
            },
            {
              "internalType": "uint24",
              "name": "gasreq",
              "type": "uint24"
            },
            {
              "internalType": "uint88",
              "name": "stepSize",
              "type": "uint88"
            },
            {
              "internalType": "uint112",
              "name": "pricePoints",
              "type": "uint112"
            }
          ],
          "internalType": "struct CoreKandel.Params",
          "name": "parameters",
          "type": "tuple"
        },
        {
          "internalType": "uint256",
          "name": "baseAmount",
          "type": "uint256"
        },
        {
          "internalType": "uint256",
          "name": "quoteAmount",
          "type": "uint256"
        }
      ],
      "name": "populateFromOffset",
      "outputs": [],
      "stateMutability": "payable",
      "type": "function"
    },
    {
      "inputs": [
        {
          "components": [
            {
              "internalType": "address",
              "name": "outbound_tkn",
              "type": "address"
            },
            {
              "internalType": "address",
              "name": "inbound_tkn",
              "type": "address"
            },
            {
              "internalType": "uint256",
              "name": "tickSpacing",
              "type": "uint256"
            }
          ],
          "internalType": "struct OLKey",
          "name": "olKey",
          "type": "tuple"
        },
        {
          "internalType": "uint256",
          "name": "offerId",
          "type": "uint256"
        }
      ],
      "name": "provisionOf",
      "outputs": [
        {
          "internalType": "uint256",
          "name": "provision",
          "type": "uint256"
        }
      ],
      "stateMutability": "view",
      "type": "function"
    },
    {
      "inputs": [
        {
          "internalType": "enum OfferType",
          "name": "ba",
          "type": "uint8"
        }
      ],
      "name": "reserveBalance",
      "outputs": [
        {
          "internalType": "uint256",
          "name": "balance",
          "type": "uint256"
        }
      ],
      "stateMutability": "view",
      "type": "function"
    },
    {
      "inputs": [
        {
          "internalType": "uint256",
          "name": "from",
          "type": "uint256"
        },
        {
          "internalType": "uint256",
          "name": "to",
          "type": "uint256"
        },
        {
          "internalType": "uint256",
          "name": "baseAmount",
          "type": "uint256"
        },
        {
          "internalType": "uint256",
          "name": "quoteAmount",
          "type": "uint256"
        },
        {
          "internalType": "uint256",
          "name": "freeWei",
          "type": "uint256"
        },
        {
          "internalType": "address payable",
          "name": "recipient",
          "type": "address"
        }
      ],
      "name": "retractAndWithdraw",
      "outputs": [],
      "stateMutability": "nonpayable",
      "type": "function"
    },
    {
      "inputs": [
        {
          "internalType": "uint256",
          "name": "from",
          "type": "uint256"
        },
        {
          "internalType": "uint256",
          "name": "to",
          "type": "uint256"
        }
      ],
      "name": "retractOffers",
      "outputs": [],
      "stateMutability": "nonpayable",
      "type": "function"
    },
    {
      "inputs": [],
      "name": "router",
      "outputs": [
        {
          "internalType": "contract AbstractRouter",
          "name": "",
          "type": "address"
        }
      ],
      "stateMutability": "view",
      "type": "function"
    },
    {
      "inputs": [
        {
          "internalType": "address",
          "name": "admin_",
          "type": "address"
        }
      ],
      "name": "setAdmin",
      "outputs": [],
      "stateMutability": "nonpayable",
      "type": "function"
    },
    {
      "inputs": [
        {
          "internalType": "uint256",
          "name": "_baseQuoteTickOffset",
          "type": "uint256"
        }
      ],
      "name": "setBaseQuoteTickOffset",
      "outputs": [],
      "stateMutability": "nonpayable",
      "type": "function"
    },
    {
      "inputs": [
        {
          "internalType": "uint256",
          "name": "gasprice",
          "type": "uint256"
        }
      ],
      "name": "setGasprice",
      "outputs": [],
      "stateMutability": "nonpayable",
      "type": "function"
    },
    {
      "inputs": [
        {
          "internalType": "uint256",
          "name": "gasreq",
          "type": "uint256"
        }
      ],
      "name": "setGasreq",
      "outputs": [],
      "stateMutability": "nonpayable",
      "type": "function"
    },
    {
      "inputs": [
        {
          "internalType": "contract AbstractRouter",
          "name": "router_",
          "type": "address"
        }
      ],
      "name": "setRouter",
      "outputs": [],
      "stateMutability": "nonpayable",
      "type": "function"
    },
    {
      "inputs": [
        {
          "internalType": "uint256",
          "name": "stepSize",
          "type": "uint256"
        }
      ],
      "name": "setStepSize",
      "outputs": [],
      "stateMutability": "nonpayable",
      "type": "function"
    },
    {
      "inputs": [
        {
          "internalType": "uint256",
          "name": "amount",
          "type": "uint256"
        },
        {
          "internalType": "address payable",
          "name": "receiver",
          "type": "address"
        }
      ],
      "name": "withdrawFromMangrove",
      "outputs": [],
      "stateMutability": "nonpayable",
      "type": "function"
    },
    {
      "inputs": [
        {
          "internalType": "uint256",
          "name": "baseAmount",
          "type": "uint256"
        },
        {
          "internalType": "uint256",
          "name": "quoteAmount",
          "type": "uint256"
        },
        {
          "internalType": "address",
          "name": "recipient",
          "type": "address"
        }
      ],
      "name": "withdrawFunds",
      "outputs": [],
      "stateMutability": "nonpayable",
      "type": "function"
    },
    {
      "stateMutability": "payable",
      "type": "receive"
    }
  ],
  "bytecode": {
    "object": "0x6101406040523480156200001257600080fd5b50604051620057f3380380620057f383398101604081905262000035916200040b565b8383838383838383828483838260008383838233806200009c5760405162461bcd60e51b815260206004820152601860248201527f416363657373436f6e74726f6c6c65642f307841646d696e000000000000000060448201526064015b60405180910390fd5b600080546001600160a01b0319166001600160a01b039290921691909117905562ffffff81168114620001125760405162461bcd60e51b815260206004820152601760248201527f6d67764f666665722f6761737265714f766572666c6f77000000000000000000604482015260640162000093565b6001600160a01b03821660a081905260808290526040519081527f23274a2ea157bc8b802cd1ca98faaaf1e5ed5472079061e406176ba38449d6879060200160405180910390a150506001600160a01b0383161562000176576200017683620002ba565b60006001600160a01b038216156200018f578162000191565b305b6001600160a01b03811660c0819052604051919250907f1efc2ac62377bfc2967149995d76b6a9a1ad2809a99afd6106b5ba742698217f90600090a2505086516001600160a01b0390811660e052602088015116610100525050506040840151610120525050606082207fa1824a64387381916c722ef6d39d525cb7c1dcbdfc58fc2dcd8cf57c061fc4e9915060405190815260200160405180910390a1505089516200024797509550506200036a9350505050565b158015620002625750602083015162000260906200036a565b155b620002b05760405162461bcd60e51b815260206004820152601c60248201527f416176654b616e64656c2f63616e6e6f74547261646541546f6b656e00000000604482015260640162000093565b50505050620004f5565b6000546001600160a01b03163314620003165760405162461bcd60e51b815260206004820152601860248201527f416363657373436f6e74726f6c6c65642f496e76616c69640000000000000000604482015260640162000093565b600180546001600160a01b0319166001600160a01b0383169081179091556040519081527f6de4326a8b9054d72d9dbab97d27bc4edffadee7d966f5af9cc4eafdaf8e54559060200160405180910390a150565b6000816001600160a01b031663b16a19de6040518163ffffffff1660e01b8152600401602060405180830381865afa925050508015620003c9575060408051601f3d908101601f19168201909252620003c691810190620004ce565b60015b15620003d85750600192915050565b506000919050565b6001600160a01b0381168114620003f657600080fd5b50565b80516200040681620003e0565b919050565b60008060008084860360c08112156200042357600080fd5b85516200043081620003e0565b94506060601f19820112156200044557600080fd5b50604051606081016001600160401b03811182821017156200047757634e487b7160e01b600052604160045260246000fd5b60405260208601516200048a81620003e0565b815260408601516200049c81620003e0565b60208201526060860151604082015260808601519093509150620004c360a08601620003f9565b905092959194509250565b600060208284031215620004e157600080fd5b8151620004ee81620003e0565b9392505050565b60805160a05160c05160e0516101005161012051615173620006806000396000818161037e015281816127fc015261288e01526000818161052601528181610faa015281816115cd0152818161191b0152818161210801528181612683015281816126f8015281816127cd015281816128300152612b3c0152600081816107d501528181610f7b015281816115a2015281816118f20152818161212e015281816125a80152818161261d0152818161279e0152818161285f01528181612aba015261372d01526000818161084501528181610b3e01528181610fd901528181611d31015281816123a9015281816128e301528181612bec01526133350152600081816104f201528181610a5301528181610bc80152818161116c015281816111f8015281816113880152818161194c01528181611b33015281816124710152818161296101528181612ca701528181612dc6015281816130e00152818161384d0152818161394e0152613c4801526000818161055a015281816114f8015261152601526151736000f3fe6080604052600436106102555760003560e01c80639eb7d4fe11610139578063cfcd2679116100b6578063ea0f394d1161007a578063ea0f394d146107a3578063ec342ad0146107c3578063f851a440146107f7578063f887ea4014610815578063fbc7d10b14610833578063fcaa7e2e1461086757600080fd5b8063cfcd26791461069c578063cff0ab96146106b1578063d2e498fe14610740578063e1f21c6714610760578063e4f248f41461079057600080fd5b8063ace67902116100fd578063ace67902146105fc578063bfc353f91461061c578063c0d786551461063c578063c4d66de81461065c578063c7e1bb441461067c57600080fd5b80639eb7d4fe146105485780639ee8a91c1461057c578063a224b5e91461059c578063a24f2b2d146105bc578063a2e241af146105dc57600080fd5b80635293840d116101d25780637692c328116101965780637692c32814610460578063790532a114610480578063820db1f7146104a057806398ed5340146104c057806399fa5e2d146104e05780639c5798391461051457600080fd5b80635293840d146103b35780635570db1d146103d357806361638ed514610400578063704b6c02146104205780637144df241461044057600080fd5b80632380fafd116102195780632380fafd146102ff57806334bd89311461031f5780633fce15c91461033f57806346ca626b1461036c5780634f605c5b146103a057600080fd5b806303eb17e2146102615780631450acd214610283578063148b7cea146102a357806314ee02bd146102b657806318acf82f146102df57600080fd5b3661025c57005b600080fd5b34801561026d57600080fd5b5061028161027c3660046143c1565b610887565b005b34801561028f57600080fd5b5061028161029e366004614436565b6108d6565b6102816102b1366004614624565b610a21565b3480156102c257600080fd5b506102cc60085481565b6040519081526020015b60405180910390f35b3480156102eb57600080fd5b506102cc6102fa366004614696565b610b00565b34801561030b57600080fd5b506102cc61031a3660046146c4565b610bc4565b34801561032b57600080fd5b5061028161033a366004614436565b610c7b565b34801561034b57600080fd5b5061035f61035a3660046146e1565b610d44565b6040516102d69190614791565b34801561037857600080fd5b506102cc7f000000000000000000000000000000000000000000000000000000000000000081565b6102816103ae3660046147ca565b610e16565b3480156103bf57600080fd5b506102816103ce3660046143c1565b610ede565b3480156103df57600080fd5b506103e8600081565b6040516001600160a01b0390911681526020016102d6565b34801561040c57600080fd5b5061028161041b36600461480d565b610f52565b34801561042c57600080fd5b5061028161043b366004614844565b61104f565b34801561044c57600080fd5b5061028161045b366004614861565b611124565b34801561046c57600080fd5b506102cc61047b366004614891565b611354565b34801561048c57600080fd5b5061028161049b3660046148bb565b611409565b3480156104ac57600080fd5b506102cc6104bb366004614910565b61145a565b3480156104cc57600080fd5b506102cc6104db366004614696565b611555565b3480156104ec57600080fd5b506103e87f000000000000000000000000000000000000000000000000000000000000000081565b34801561052057600080fd5b506103e87f000000000000000000000000000000000000000000000000000000000000000081565b34801561055457600080fd5b506102cc7f000000000000000000000000000000000000000000000000000000000000000081565b34801561058857600080fd5b5061028161059736600461493e565b611573565b3480156105a857600080fd5b506102816105b7366004614436565b6115f3565b3480156105c857600080fd5b506102cc6105d73660046149c9565b6116b2565b3480156105e857600080fd5b506102816105f736600461480d565b6116be565b34801561060857600080fd5b50610281610617366004614a06565b611756565b34801561062857600080fd5b506102cc610637366004614891565b6117fe565b34801561064857600080fd5b50610281610657366004614844565b611842565b34801561066857600080fd5b50610281610677366004614844565b6118ba565b34801561068857600080fd5b50610281610697366004614a3b565b61194a565b3480156106a857600080fd5b506102cc611a1c565b3480156106bd57600080fd5b506007546106fe9063ffffffff811690600160201b810462ffffff1690600160381b81046001600160581b031690600160901b90046001600160701b031684565b6040805163ffffffff909516855262ffffff90931660208501526001600160581b03909116918301919091526001600160701b031660608201526080016102d6565b34801561074c57600080fd5b506102cc61075b366004614696565b611a2e565b34801561076c57600080fd5b5061078061077b366004614a72565b611a75565b60405190151581526020016102d6565b61028161079e366004614ab3565b611b01565b3480156107af57600080fd5b506102cc6107be366004614891565b611bdc565b3480156107cf57600080fd5b506103e87f000000000000000000000000000000000000000000000000000000000000000081565b34801561080357600080fd5b506000546001600160a01b03166103e8565b34801561082157600080fd5b506001546001600160a01b03166103e8565b34801561083f57600080fd5b506103e87f000000000000000000000000000000000000000000000000000000000000000081565b34801561087357600080fd5b50610281610882366004614436565b611c20565b60005b818110156108d1576108c18383838181106108a7576108a7614b2f565b90506020020160208101906108bc9190614844565b611cdb565b6108ca81614b5b565b905061088a565b505050565b6000546001600160a01b031633146109095760405162461bcd60e51b815260040161090090614b74565b60405180910390fd5b808061094f5760405162461bcd60e51b81526020600482015260156024820152744b616e64656c2f7374657053697a65546f6f4c6f7760581b6044820152606401610900565b81816001600160581b03161480156109785750600754600160901b90046001600160701b031682105b6109bd5760405162461bcd60e51b8152602060048201526016602482015275096c2dcc8cad85ee6e8cae0a6d2f4caa8dede90d2ced60531b6044820152606401610900565b6007805471ffffffffffffffffffffff000000000000001916600160381b6001600160581b038416021790556040518281527f0408193baae9f2730f7be76d9be93983ed2dd45af2305c085920b8f00c25bbcd906020015b60405180910390a15050565b6000546001600160a01b03163314610a4b5760405162461bcd60e51b815260040161090090614b74565b3415610ac6577f00000000000000000000000000000000000000000000000000000000000000006001600160a01b031663b60d4288346040518263ffffffff1660e01b81526004016000604051808303818588803b158015610aac57600080fd5b505af1158015610ac0573d6000803e3d6000fd5b50505050505b610acf83611d98565b610ad98282610f52565b600754610afa90859062ffffff600160201b8204169063ffffffff16612008565b50505050565b600080610b0c836120eb565b9050610b1783612153565b610b1f6121ca565b60405163fe380db560e01b81526001600160a01b0384811660048301527f000000000000000000000000000000000000000000000000000000000000000081166024830152919091169063fe380db590604401602060405180830381865afa158015610b8f573d6000803e3d6000fd5b505050506040513d601f19601f82011682018060405250810190610bb39190614bab565b610bbd9190614bc4565b9392505050565b60007f0000000000000000000000000000000000000000000000000000000000000000336001600160a01b03821614610c0f5760405162461bcd60e51b815260040161090090614b74565b610c18836121de565b9150610c288360a00135846122a0565b15610c755760405162461bcd60e51b815260206004820152601860248201527f6d67764f666665722f61626f72742f6765744661696c656400000000000000006044820152606401610900565b50919050565b6000546001600160a01b03163314610ca55760405162461bcd60e51b815260040161090090614b74565b8062ffffff81168114610cf15760405162461bcd60e51b8152602060048201526014602482015273096c2dcc8cad85ecec2e6e4cae2a8dede90d2ced60631b6044820152606401610900565b6007805466ffffff000000001916600160201b62ffffff8416908102919091179091556040519081527fafef3ad374c0b972e3c793be825735801fa05cc4c67157d98d9a111b4027988d90602001610a15565b60408051808201825260608082526020820152905163fbbd4a6560e01b8152600481018b9052602481018a905260448101899052606481018890526084810187905260a4810186905260c4810185905260e48101849052610104810183905273__$c9b0e4557995336ec140d025d87b634e02$__9063fbbd4a659061012401600060405180830381865af4158015610de0573d6000803e3d6000fd5b505050506040513d6000823e601f3d908101601f19168201604052610e089190810190614c6a565b9a9950505050505050505050565b6000546001600160a01b03163314610e405760405162461bcd60e51b815260040161090090614b74565b6040805160808101825260075463ffffffff81168252600160201b810462ffffff166020830152600160381b81046001600160581b0316928201839052600160901b90046001600160701b0316606082018190526008549192600092610eb4928b928b928b9290918b918b918b9190610d44565b9050610ed481836020015162ffffff16846000015163ffffffff16612008565b5050505050505050565b6000546001600160a01b03163314610f085760405162461bcd60e51b815260040161090090614b74565b60005b818110156108d157610f42838383818110610f2857610f28614b2f565b9050602002016020810190610f3d9190614844565b612455565b610f4b81614b5b565b9050610f0b565b610f5c82826125a3565b610f646121ca565b604051636f9a302f60e01b81526001600160a01b037f000000000000000000000000000000000000000000000000000000000000000081166004830152602482018590527f000000000000000000000000000000000000000000000000000000000000000081166044830152606482018490527f0000000000000000000000000000000000000000000000000000000000000000811660848301529190911690636f9a302f9060a40160408051808303816000875af115801561102b573d6000803e3d6000fd5b505050506040513d601f19601f82011682018060405250810190610afa9190614cff565b6000546001600160a01b031633146110795760405162461bcd60e51b815260040161090090614b74565b6001600160a01b0381166110cf5760405162461bcd60e51b815260206004820152601860248201527f416363657373436f6e74726f6c6c65642f307841646d696e00000000000000006044820152606401610900565b600080546001600160a01b0319166001600160a01b0383169081179091556040519081527f5a272403b402d892977df56625f4164ccaf70ca3863991c43ecfe76a6905b0a1906020015b60405180910390a150565b6000546001600160a01b0316331461114e5760405162461bcd60e51b815260040161090090614b74565b60001982036111e2576040516370a0823160e01b81523060048201527f00000000000000000000000000000000000000000000000000000000000000006001600160a01b0316906370a0823190602401602060405180830381865afa1580156111bb573d6000803e3d6000fd5b505050506040513d601f19601f820116820180604052508101906111df9190614bab565b91505b604051632e1a7d4d60e01b8152600481018390527f00000000000000000000000000000000000000000000000000000000000000006001600160a01b031690632e1a7d4d906024016020604051808303816000875af1158015611249573d6000803e3d6000fd5b505050506040513d601f19601f8201168201806040525081019061126d9190614d23565b6112b15760405162461bcd60e51b81526020600482015260156024820152741b59dd93d999995c8bddda5d1a191c985dd1985a5b605a1b6044820152606401610900565b6000816001600160a01b03168360405160006040518083038185875af1925050503d80600081146112fe576040519150601f19603f3d011682016040523d82523d6000602084013e611303565b606091505b50509050806108d15760405162461bcd60e51b815260206004820152601860248201527f6d67764f666665722f7765695472616e736665724661696c00000000000000006044820152606401610900565b60008061136184846117fe565b9050600061136e8561275d565b604051630129e86d60e21b81529091506001600160a01b037f000000000000000000000000000000000000000000000000000000000000000016906304a7a1b4906113bf9084908690600401614d6c565b602060405180830381865afa1580156113dc573d6000803e3d6000fd5b505050506040513d601f19601f820116820180604052508101906114009190614bab565b95945050505050565b6000546001600160a01b031633146114335760405162461bcd60e51b815260040161090090614b74565b61143d86866116be565b611448848483611573565b6114528282611124565b505050505050565b60008061146f6001546001600160a01b031690565b90506001600160a01b038116156115245760405163143b7da760e11b81526001600160a01b0385811660048301528481166024830152821690632876fb4e90604401602060405180830381865afa1580156114ce573d6000803e3d6000fd5b505050506040513d601f19601f820116820180604052508101906114f29190614bab565b61151c907f0000000000000000000000000000000000000000000000000000000000000000614bc4565b91505061154f565b7f000000000000000000000000000000000000000000000000000000000000000091505061154f565b505b92915050565b600061156082611a2e565b61156983610b00565b61154f9190614d87565b6000546001600160a01b0316331461159d5760405162461bcd60e51b815260040161090090614b74565b6115c87f000000000000000000000000000000000000000000000000000000000000000084836128b6565b6108d17f000000000000000000000000000000000000000000000000000000000000000083836128b6565b6000546001600160a01b0316331461161d5760405162461bcd60e51b815260040161090090614b74565b808162ffffff16146116715760405162461bcd60e51b815260206004820152601860248201527f4b616e64656c2f7469636b4f6666736574546f6f4869676800000000000000006044820152606401610900565b80600854146116af5760088190556040518181527f286da08673f0eb4b3843f2824fb8e3e412534a62f6094fdc8b4008cfeba4ba6690602001611119565b50565b6000610bbd838361295c565b6000546001600160a01b031633146116e85760405162461bcd60e51b815260040161090090614b74565b6040517f97714c1c48a0b9a1a347710cb6a62f056f5a811d4006655e3b41959e1e72a40990600090a161171d82826001612a1d565b61172982826000612a1d565b6040517fa9bc12cd7db30bdfe60fece3ec52cfa7c8d60e396e2ea5df439a7d458f05f9b690600090a15050565b6000546001600160a01b031633146117805760405162461bcd60e51b815260040161090090614b74565b6040805160808101825260075463ffffffff81168252600160201b810462ffffff166020830152600160381b81046001600160581b031692820192909252600160901b9091046001600160701b031660608201526117fa6117e083614da7565b826020015162ffffff16836000015163ffffffff16612008565b5050565b6000600183600181111561181457611814614db3565b1461182d57600082815260046020526040902054610bbd565b50600090815260036020526040902054919050565b6000546001600160a01b0316331461186c5760405162461bcd60e51b815260040161090090614b74565b600180546001600160a01b0319166001600160a01b0383169081179091556040519081527f6de4326a8b9054d72d9dbab97d27bc4edffadee7d966f5af9cc4eafdaf8e545590602001611119565b6000546001600160a01b031633146118e45760405162461bcd60e51b815260040161090090614b74565b6118ed81611842565b6119167f0000000000000000000000000000000000000000000000000000000000000000612455565b61193f7f0000000000000000000000000000000000000000000000000000000000000000612455565b6116af61033a611a1c565b7f0000000000000000000000000000000000000000000000000000000000000000336001600160a01b038216146119935760405162461bcd60e51b815260040161090090614b74565b81602001356f6d67762f74726164655375636365737360801b036119bc57610afa838335612a67565b60608301356119da6119d336869003860186614dc9565b6060902090565b6040805185358152602080870135908201527f45b7a2e43f35c7d127ad18416b3d34235d187b2060d4050bb82bb11de272a7c3910160405180910390a3505050565b6000611a2960008061145a565b905090565b6000805b600254811015610c75576000611a488483611354565b9050611a6160016001607f1b03602c83901c1684614bc4565b92505080611a6e90614b5b565b9050611a32565b600080546001600160a01b03163314611aa05760405162461bcd60e51b815260040161090090614b74565b611aab848484612c75565b611af75760405162461bcd60e51b815260206004820152601760248201527f6d67764f666665722f617070726f76652f6661696c65640000000000000000006044820152606401610900565b5060019392505050565b6000546001600160a01b03163314611b2b5760405162461bcd60e51b815260040161090090614b74565b3415611ba6577f00000000000000000000000000000000000000000000000000000000000000006001600160a01b031663b60d4288346040518263ffffffff1660e01b81526004016000604051808303818588803b158015611b8c57600080fd5b505af1158015611ba0573d6000803e3d6000fd5b50505050505b611baf83611d98565b611bb8876115f3565b611bc28282610f52565b611bd08a8a8a898989610e16565b50505050505050505050565b60006001836001811115611bf257611bf2614db3565b14611c0b57600082815260066020526040902054610bbd565b50600090815260056020526040902054919050565b6000546001600160a01b03163314611c4a5760405162461bcd60e51b815260040161090090614b74565b63040000008110611c965760405162461bcd60e51b8152602060048201526016602482015275096c2dcc8cad85ecec2e6e0e4d2c6caa8dede90d2ced60531b6044820152606401610900565b6007805463ffffffff191663ffffffff83161790556040518181527fdbebd814ae648f654dcc50c734aa76e55a32e96b7d85303a08e2ddf11874a0dd90602001611119565b611ce481612c8a565b6000611cf86001546001600160a01b031690565b6001600160a01b0316146116af576001546001600160a01b0316604051631403b99b60e31b81526001600160a01b0383811660048301527f000000000000000000000000000000000000000000000000000000000000000081166024830152919091169063a01dccd89060440160006040518083038186803b158015611d7d57600080fd5b505afa158015611d91573d6000803e3d6000fd5b5050505050565b604080516080808201835260075463ffffffff81168352600160201b810462ffffff166020840152600160381b81046001600160581b031693830193909352600160901b9092046001600160701b03166060808301919091529091611e0291908401908401614de5565b6001600160701b031681606001516001600160701b031614611efc576000611e306080840160608501614de5565b9050611e426080840160608501614de5565b6001600160701b0316816001600160701b0316148015611e6c57506002816001600160701b031610155b611eb85760405162461bcd60e51b815260206004820152601960248201527f4b616e64656c2f696e76616c69645072696365506f696e7473000000000000006044820152606401610900565b611eca816001600160701b0316612d75565b600780546001600160701b03909216600160901b0271ffffffffffffffffffffffffffffffffffff9092169190911790555b611f0c6060830160408401614e0e565b6001600160581b031681604001516001600160581b031614611f4957611f49611f3b6060840160408501614e0e565b6001600160581b03166108d6565b611f566020830183614e37565b63ffffffff1615801590611f835750805163ffffffff16611f7a6020840184614e37565b63ffffffff1614155b15611fa357611fa3611f986020840184614e37565b63ffffffff16611c20565b611fb36040830160208401614e5d565b62ffffff1615801590611fe65750806020015162ffffff16826020016020810190611fde9190614e5d565b62ffffff1614155b156117fa576117fa611ffe6040840160208501614e5d565b62ffffff16610c7b565b6040517faab0a16d4cef87072f3977d7f1c066be401e0e6486526674f5f6172d42703db190600090a1612039614367565b6060810183905260808101829052612051600061275d565b8152602084015161206490600083612daa565b80516040805160608082018352600080835260208084018290529284015282519081018352818401516001600160a01b039081168252845116918101919091529181015190820152815283516120bc90600183612daa565b6040517fac65490b93de6b3189ca1e1653852249eb8680e816c258cff6ccf73d8501d3d090600090a150505050565b6000600182600181111561210157612101614db3565b1461212c577f000000000000000000000000000000000000000000000000000000000000000061154f565b7f000000000000000000000000000000000000000000000000000000000000000092915050565b60008061215f836120eb565b6040516370a0823160e01b81523060048201529091506001600160a01b038216906370a0823190602401602060405180830381865afa1580156121a6573d6000803e3d6000fd5b505050506040513d601f19601f82011682018060405250810190610bbd9190614bab565b6000611a296001546001600160a01b031690565b60008060a08301356121f36020850185614844565b6001600160a01b03166370a082316122136001546001600160a01b031690565b6040516001600160e01b031960e084901b1681526001600160a01b039091166004820152602401602060405180830381865afa158015612257573d6000803e3d6000fd5b505050506040513d601f19601f8201168201806040525081019061227b9190614bab565b106122865780610bbd565b6e24a9afa324a929aa2fa82aa62622a960891b9392505050565b6000806122b06020840184614844565b6040516370a0823160e01b81523060048201526001600160a01b0391909116906370a0823190602401602060405180830381865afa1580156122f6573d6000803e3d6000fd5b505050506040513d601f19601f8201168201806040525081019061231a9190614bab565b905083811061232d57600091505061154f565b6123378185614e82565b9050600061234d6001546001600160a01b031690565b90506001600160a01b0381166123655750905061154f565b60006001600160a01b03821663333dbb0d6123836020880188614844565b6040516001600160e01b031960e084901b1681526001600160a01b0391821660048201527f0000000000000000000000000000000000000000000000000000000000000000909116602482018190526044820187905230141560648201526084016020604051808303816000875af1158015612403573d6000803e3d6000fd5b505050506040513d601f19601f820116820180604052508101906124279190614bab565b9050828110156124405761243b8184614e82565b612443565b60005b935050505061154f565b505092915050565b60006124696001546001600160a01b031690565b9050612498827f0000000000000000000000000000000000000000000000000000000000000000600019612c75565b6124e45760405162461bcd60e51b815260206004820152601d60248201527f6d67764f666665722f617070726f76654d616e67726f76652f4661696c0000006044820152606401610900565b6001600160a01b038116156117fa576125008282600019612c75565b61254c5760405162461bcd60e51b815260206004820152601a60248201527f6d67764f666665722f617070726f7665526f757465724661696c0000000000006044820152606401610900565b604051630716a76760e21b81526001600160a01b038381166004830152821690631c5a9d9c90602401600060405180830381600087803b15801561258f57600080fd5b505af1158015611452573d6000803e3d6000fd5b6125cf7f0000000000000000000000000000000000000000000000000000000000000000333085612ed8565b61261b5760405162461bcd60e51b815260206004820152601760248201527f4b616e64656c2f626173655472616e736665724661696c0000000000000000006044820152606401610900565b7f00000000000000000000000000000000000000000000000000000000000000006001600160a01b03167f1bbf55d483639f8103dc4e035af71a4fbdb16c80be740fa3eef81198acefa0948360405161267691815260200190565b60405180910390a26126aa7f0000000000000000000000000000000000000000000000000000000000000000333084612ed8565b6126f65760405162461bcd60e51b815260206004820152601860248201527f4b616e64656c2f71756f74655472616e736665724661696c00000000000000006044820152606401610900565b7f00000000000000000000000000000000000000000000000000000000000000006001600160a01b03167f1bbf55d483639f8103dc4e035af71a4fbdb16c80be740fa3eef81198acefa0948260405161275191815260200190565b60405180910390a25050565b604080516060810182526000808252602082018190529181018290529082600181111561278c5761278c614db3565b146128235760405180606001604052807f00000000000000000000000000000000000000000000000000000000000000006001600160a01b031681526020017f00000000000000000000000000000000000000000000000000000000000000006001600160a01b031681526020017f000000000000000000000000000000000000000000000000000000000000000081525061154f565b60405180606001604052807f00000000000000000000000000000000000000000000000000000000000000006001600160a01b031681526020017f00000000000000000000000000000000000000000000000000000000000000006001600160a01b031681526020017f000000000000000000000000000000000000000000000000000000000000000081525092915050565b8115612951576128c46121ca565b604051636ce5768960e11b81526001600160a01b0385811660048301527f00000000000000000000000000000000000000000000000000000000000000008116602483015260448201859052919091169063d9caed1290606401600060405180830381600087803b15801561293857600080fd5b505af115801561294c573d6000803e3d6000fd5b505050505b6108d1838383612fa7565b6000807f00000000000000000000000000000000000000000000000000000000000000006001600160a01b031663e982fb8d85856040518363ffffffff1660e01b81526004016129ad929190614d6c565b602060405180830381865afa1580156129ca573d6000803e3d6000fd5b505050506040513d601f19601f820116820180604052508101906129ee9190614bab565b9050604881901c62ffffff16612a03826130b0565b01602582901c6303ffffff1602620f424002949350505050565b6000612a288261275d565b9050835b83811015611d91576000612a4084836117fe565b90508015612a5657612a54838260016130c6565b505b50612a6081614b5b565b9050612a2c565b6000612a728361315c565b6e24a9afa324a929aa2fa82aa62622a960891b8203612c6b57612a936121ca565b6040516370a0823160e01b81523060048201526001600160a01b0391821691636f9a302f917f0000000000000000000000000000000000000000000000000000000000000000918216906370a0823190602401602060405180830381865afa158015612b03573d6000803e3d6000fd5b505050506040513d601f19601f82011682018060405250810190612b279190614bab565b6040516370a0823160e01b81523060048201527f0000000000000000000000000000000000000000000000000000000000000000906001600160a01b038216906370a0823190602401602060405180830381865afa158015612b8d573d6000803e3d6000fd5b505050506040513d601f19601f82011682018060405250810190612bb19190614bab565b60405160e086901b6001600160e01b03191681526001600160a01b0394851660048201526024810193909352908316604483015260648201527f0000000000000000000000000000000000000000000000000000000000000000909116608482015260a40160408051808303816000875af1158015612c34573d6000803e3d6000fd5b505050506040513d601f19601f82011682018060405250810190612c589190614cff565b5050612c64838361319f565b905061154f565b610bbd838361325f565b6000612c8284848461339b565b949350505050565b604051636eb1769f60e11b81523060048201526001600160a01b037f0000000000000000000000000000000000000000000000000000000000000000811660248301526000919083169063dd62ed3e90604401602060405180830381865afa158015612cfa573d6000803e3d6000fd5b505050506040513d601f19601f82011682018060405250810190612d1e9190614bab565b116116af5760405162461bcd60e51b815260206004820152602160248201527f6d67764f666665722f4c6f6769634d757374417070726f76654d616e67726f766044820152606560f81b6064820152608401610900565b60028190556040518181527f26003f10937c9ed98d59e0d595a28bc7d35537a044aeaad037fedaab24d1799890602001611119565b8051604051631c04321560e01b81526000916001600160a01b037f00000000000000000000000000000000000000000000000000000000000000001691631c04321591612df991600401614e95565b602060405180830381865afa158015612e16573d6000803e3d6000fd5b505050506040513d601f19601f82011682018060405250810190612e3a9190614bab565b90506000612e68612e4a83613481565b8460600151612e599190614bc4565b60ee84901c6101ff1690613491565b905060005b8551811015611452576000868281518110612e8a57612e8a614b2f565b60209081029190910181015180518183015192880192909252604080820151908801529150612ec587612ebd81846117fe565b8389886134ca565b505080612ed190614b5b565b9050612e6d565b600081600003612eea57506001612c82565b826001600160a01b0316846001600160a01b031603612f79576040516370a0823160e01b81526001600160a01b0385811660048301528391908716906370a0823190602401602060405180830381865afa158015612f4c573d6000803e3d6000fd5b505050506040513d601f19601f82011682018060405250810190612f709190614bab565b10159050612c82565b306001600160a01b03851603612f9b57612f94858484613573565b9050612c82565b611400858585856135a9565b600019820361301b576040516370a0823160e01b81523060048201526001600160a01b038416906370a0823190602401602060405180830381865afa158015612ff4573d6000803e3d6000fd5b505050506040513d601f19601f820116820180604052508101906130189190614bab565b91505b613026838284613686565b6130685760405162461bcd60e51b815260206004820152601360248201527212d85b99195b0bdd1c985b9cd9995c91985a5b606a1b6044820152606401610900565b826001600160a01b03167f59c79d79be0fadf59fe689b6952b7ebe90201a3a1f00d4a31982377890bc6046836040516130a391815260200190565b60405180910390a2505050565b6000603f82901c6101ff165b6103e80292915050565b604051630dcf4b9760e31b81526000906001600160a01b037f00000000000000000000000000000000000000000000000000000000000000001690636e7a5cb89061311990879087908790600401614ea3565b6020604051808303816000875af1158015613138573d6000803e3d6000fd5b505050506040513d601f19601f82011682018060405250810190612c829190614bab565b600061317361316e6020840184614844565b613729565b90506000806131828385613773565b915091506000613192828461394a565b9050611d91838383613a63565b60008060006131ad85613b11565b9150915081600014806131c757506131c58183613b46565b155b156131e5576b1bd999995c8bd99a5b1b195960a21b9250505061154f565b6040805160e08101909152613252908061320436899003890189614dc9565b8152602081018490526040810185905260600160e088013560481c62ffffff16815260200160e088013560251c6303ffffff168152600060208201526001604090910152606087013561394a565b925061244d858585613b6f565b6000806132746001546001600160a01b031690565b90506001600160a01b03811615613391576040805160028082526060820183526000926020830190803683370190505090506132b36020860186614844565b816000815181106132c6576132c6614b2f565b6001600160a01b039092166020928302919091018201526132ed9060408701908701614844565b8160018151811061330057613300614b2f565b6001600160a01b039283166020918202929092010152604051633e142a0760e21b81529083169063f850a81c9061335d9084907f000000000000000000000000000000000000000000000000000000000000000090600401614ec7565b600060405180830381600087803b15801561337757600080fd5b505af115801561338b573d6000803e3d6000fd5b50505050505b612c82848461319f565b6040516001600160a01b03838116602483015260448201839052600091829182919087169063095ea7b360e01b906064015b60408051601f198184030181529181526020820180516001600160e01b03166001600160e01b031990941693909317909252905161340b9190614f48565b6000604051808303816000865af19150503d8060008114613448576040519150601f19603f3d011682016040523d82523d6000602084013e61344d565b606091505b50915091508180156134775750805115806134775750808060200190518101906134779190614d23565b9695505050505050565b6000602182901c6101ff166130bc565b60008061349d84613c1c565b830290506402000000008106156134b55760016134b8565b60005b60ff16602082901c0191505092915050565b8360000361352f576040820151156134f8576134e582613c43565b5093506134f3858486613d68565b611d91565b6040820181905261350882613c43565b506000604084018190528351919550613523919086906130c6565b506134f3858486613d68565b8160400151600003613569576040820181905261354c828561394a565b5060006040830181905282516135639186906130c6565b50611d91565b611452828561394a565b6040516001600160a01b03838116602483015260448201839052600091829182919087169063a9059cbb60e01b906064016133cd565b604080516001600160a01b0385811660248301528481166044830152606480830185905283518084039091018152608490920183526020820180516001600160e01b03166323b872dd60e01b1790529151600092839283929189169161360f9190614f48565b6000604051808303816000865af19150503d806000811461364c576040519150601f19603f3d011682016040523d82523d6000602084013e613651565b606091505b509150915081801561367b57508051158061367b57508080602001905181019061367b9190614d23565b979650505050505050565b60008160000361369857506001610bbd565b306001600160a01b0384160361371e576040516370a0823160e01b81526001600160a01b0384811660048301528391908616906370a0823190602401602060405180830381865afa1580156136f1573d6000803e3d6000fd5b505050506040513d601f19601f820116820180604052508101906137159190614bab565b10159050610bbd565b612c82848484613573565b60007f00000000000000000000000000000000000000000000000000000000000000006001600160a01b0316826001600160a01b03161461376b57600061154f565b600192915050565b600061377d614367565b600061378d858560600135611bdc565b6040805160808101825260075463ffffffff81168252600160201b810462ffffff166020830152600160381b81046001600160581b031692820192909252600160901b9091046001600160701b0316606082015290915060006137ef87613e11565b90506000613819828585604001516001600160581b031686606001516001600160701b0316613e4d565b905061382582826117fe565b95506138308261275d565b808652604051630129e86d60e21b81526000916001600160a01b037f000000000000000000000000000000000000000000000000000000000000000016916304a7a1b491613882918b90600401614d6c565b602060405180830381865afa15801561389f573d6000803e3d6000fd5b505050506040513d601f19601f820116820180604052508101906138c39190614bab565b90506138e060016001607f1b03602c83901c1660c08a0135614bc4565b6040870181905260016001607f1b0310156139035760016001607f1b0360408701525b6139108160401b60eb1d90565b602080880191909152600160c0880152845163ffffffff166080880152939093015162ffffff166060860152509396929550919350505050565b60007f00000000000000000000000000000000000000000000000000000000000000006001600160a01b031663a84b08c88460a0015185600001518660200151876040015188606001518960800151896040518863ffffffff1660e01b81526004016139bb96959493929190614f64565b6000604051808303818588803b1580156139d457600080fd5b505af1935050505080156139e6575060015b613a4b576139f2614f9b565b806308c379a003613a3f5750613a06614fb7565b80613a115750613a41565b8360c001518190613a355760405162461bcd60e51b81526004016109009190615041565b5061151c81615074565b505b3d6000803e3d6000fd5b506c1bd999995c8bdd5c19185d1959609a1b92915050565b6c1bd999995c8bdd5c19185d1959609a1b811480613aa05750807f6d67762f77726974654f666665722f64656e736974792f746f6f4c6f77000000145b15613aaa57505050565b8151606090208390604080517f4b616e64656c2f7570646174654f666665724661696c656400000000000000008152602081018590527f45b7a2e43f35c7d127ad18416b3d34235d187b2060d4050bb82bb11de272a7c391015b60405180910390a3505050565b600080613b3260a084013560016001607f1b036080860135602c1c16614e82565b9150608083013560401b60eb1d9050915091565b6000806000613b5485613e9c565b909250905080613b648584615098565b901c95945050505050565b6b1bd999995c8bd99a5b1b195960a21b811480613b9b57506c1bd999995c8bdd5c19185d1959609a1b81145b80613bc55750807f6d67762f77726974654f666665722f64656e736974792f746f6f4c6f77000000145b15613bcf57505050565b6060830135613be66119d336869003860186614dc9565b60408051858152602081018590527f45b7a2e43f35c7d127ad18416b3d34235d187b2060d4050bb82bb11de272a7c39101613b04565b600060078211613c2d575060031690565b506004600382161760029190911c600119011b90565b6000807f00000000000000000000000000000000000000000000000000000000000000006001600160a01b031663f95902aa8460a00151856000015186602001518760400151886060015189608001516040518763ffffffff1660e01b8152600401613cb39594939291906150af565b60206040518083038185885af193505050508015613cee575060408051601f3d908101601f19168201909252613ceb91810190614bab565b60015b613d4f57613cfa614f9b565b806308c379a003613a3f5750613d0e614fb7565b80613d195750613a41565b8360c001518190613d3d5760405162461bcd60e51b81526004016109009190615041565b50613d4781615074565b915050915091565b936c1bd999995c8bd8dc99585d1959609a1b9350915050565b6001836001811115613d7c57613d7c614db3565b03613da757600081815260056020908152604080832085905584835260039091529020819055613dc9565b6000818152600660209081526040808320859055848352600490915290208190555b826001811115613ddb57613ddb614db3565b60408051848152602081018490527f4414bf83296b9500de34e173e9e5b7ca010ff6de3f093002103e680a3a10512791016130a3565b60006002826001811115613e2757613e27614db3565b613e32906001614bc4565b613e3c91906150df565b600181111561154f5761154f614db3565b60006001856001811115613e6357613e63614db3565b03613e8b57613e728385614bc4565b9050818110613e8657612f94600183614e82565b612c82565b828410612c82576114008385614e82565b600080613ea883613f0e565b909250905060eb83901b60007ed89e8c075c4155dd3213326cbbcf86fd1f63f5c205dd2ad2cf44f9349b39e180830782139083050390607e198285010190811315613ef65793841c93613f00565b8060000385901b94505b81607f039350505050915091565b6000806000808412613f205783613f29565b613f2984615101565b9050620d89e8811115613f7e5760405162461bcd60e51b815260206004820152601760248201527f6d67762f6162735469636b2f6f75744f66426f756e64730000000000000000006044820152606401610900565b60006001821615613fa1576ffff97272373d413259a46990580e21399350613fa9565b600160801b93505b6002821615613fd3576080613fce856ffff2e50f5f656932ef12357cf3c7fdcb615098565b901c93505b6004821615613ffd576080613ff8856fffe5caca7e10e4e61c3624eaa0941ccf615098565b901c93505b6008821615614027576080614022856fffcb9843d60f6159c9db58835c926643615098565b901c93505b601082161561405157608061404c856fff973b41fa98c081472e6896dfb254bf615098565b901c93505b602082161561407b576080614076856fff2ea16466c96a3843ec78b326b52860615098565b901c93505b60408216156140a55760806140a0856ffe5dee046a99a2a811c461f1969c3052615098565b901c93505b60808216156140cf5760806140ca856ffcbe86c7900a88aedcffc83b479aa3a3615098565b901c93505b6101008216156140fa5760806140f5856ff987a7253ac413176f2b074cf7815e53615098565b901c93505b610200821615614125576080614120856ff3392b0822b70005940c7a398e4b70f2615098565b901c93505b61040082161561415057608061414b856fe7159475a2c29b7443b29c7fa6e889d8615098565b901c93505b61080082161561417b576080614176856fd097f3bdfd2022b8845ad8f792aa5825615098565b901c93505b6110008216156141a65760806141a1856fa9f746462d870fdf8a65dc1f90e061e4615098565b901c93505b6120008216156141de5760806141cc856fe1b0d342ada5437121767bec575e65ed615098565b901c93506141db60018261511d565b90505b614000821615614216576080614204856fc6f84d7e5f423f66048c541550bf3e96615098565b901c935061421360028261511d565b90505b61800082161561424e57608061423c856f9aa508b5b7a84e1c677de54f3e99bc8f615098565b901c935061424b60048261511d565b90505b62010000821615614287576080614275856fbad5f1bdb70232cd33865244bdcc089c615098565b901c935061428460098261511d565b90505b620200008216156142c05760806142ae856f885b9613d7e87aa498106fb7fa5edd37615098565b901c93506142bd60128261511d565b90505b620400008216156142f95760806142e7856f9142e0723efb884889d1f447715afacd615098565b901c93506142f660258261511d565b90505b62080000821615614332576080614320856fa4d9a773d61316918f140bd96e8e6814615098565b901c935061432f604b8261511d565b90505b60008513156143535760018485600003040193508061435090615101565b90505b61435e81608061511d565b92505050915091565b604080516101408101909152600060e0820181815261010083018290526101208301919091528190815260200160008152602001600081526020016000815260200160008152602001600081526020016000151581525090565b600080602083850312156143d457600080fd5b823567ffffffffffffffff808211156143ec57600080fd5b818501915085601f83011261440057600080fd5b81358181111561440f57600080fd5b8660208260051b850101111561442457600080fd5b60209290920196919550909350505050565b60006020828403121561444857600080fd5b5035919050565b634e487b7160e01b600052604160045260246000fd5b6060810181811067ffffffffffffffff821117156144855761448561444f565b60405250565b6040810181811067ffffffffffffffff821117156144855761448561444f565b601f8201601f1916810167ffffffffffffffff811182821017156144d1576144d161444f565b6040525050565b600067ffffffffffffffff8211156144f2576144f261444f565b5060051b60200190565b600082601f83011261450d57600080fd5b8135602061451a826144d8565b6040805161452883826144ab565b8481526060948502870184019484820193508886111561454757600080fd5b8488015b8681101561458f5781818b0312156145635760008081fd5b835161456e81614465565b8135815286820135878201528482013585820152855293850193810161454b565b509098975050505050505050565b6000604082840312156145af57600080fd5b6040516145bb8161448b565b809150823567ffffffffffffffff808211156145d657600080fd5b6145e2868387016144fc565b835260208501359150808211156145f857600080fd5b50614605858286016144fc565b6020830152505092915050565b600060808284031215610c7557600080fd5b60008060008060e0858703121561463a57600080fd5b843567ffffffffffffffff81111561465157600080fd5b61465d8782880161459d565b94505061466d8660208701614612565b939693955050505060a08201359160c0013590565b80356002811061469157600080fd5b919050565b6000602082840312156146a857600080fd5b610bbd82614682565b60006101408284031215610c7557600080fd5b600061014082840312156146d757600080fd5b610bbd83836146b1565b60008060008060008060008060006101208a8c03121561470057600080fd5b505087359960208901359950604089013598606081013598506080810135975060a0810135965060c0810135955060e08101359450610100013592509050565b600081518084526020808501945080840160005b838110156147865781518051885283810151848901526040908101519088015260609096019590820190600101614754565b509495945050505050565b6020815260008251604060208401526147ad6060840182614740565b90506020840151601f198483030160408501526114008282614740565b60008060008060008060c087890312156147e357600080fd5b505084359660208601359650604086013595606081013595506080810135945060a0013592509050565b6000806040838503121561482057600080fd5b50508035926020909101359150565b6001600160a01b03811681146116af57600080fd5b60006020828403121561485657600080fd5b8135610bbd8161482f565b6000806040838503121561487457600080fd5b8235915060208301356148868161482f565b809150509250929050565b600080604083850312156148a457600080fd5b6148ad83614682565b946020939093013593505050565b60008060008060008060c087890312156148d457600080fd5b863595506020870135945060408701359350606087013592506080870135915060a08701356149028161482f565b809150509295509295509295565b6000806040838503121561492357600080fd5b823561492e8161482f565b915060208301356148868161482f565b60008060006060848603121561495357600080fd5b8335925060208401359150604084013561496c8161482f565b809150509250925092565b60006060828403121561498957600080fd5b60405161499581614465565b80915082356149a38161482f565b815260208301356149b38161482f565b6020820152604092830135920191909152919050565b600080608083850312156149dc57600080fd5b6149e68484614977565b946060939093013593505050565b600060408284031215610c7557600080fd5b600060208284031215614a1857600080fd5b813567ffffffffffffffff811115614a2f57600080fd5b612c82848285016149f4565b6000806101808385031215614a4f57600080fd5b614a5984846146b1565b9150614a698461014085016149f4565b90509250929050565b600080600060608486031215614a8757600080fd5b8335614a928161482f565b92506020840135614aa28161482f565b929592945050506040919091013590565b6000806000806000806000806000806101a08b8d031215614ad357600080fd5b8a35995060208b0135985060408b0135975060608b0135965060808b0135955060a08b0135945060c08b01359350614b0e8c60e08d01614612565b92506101608b013591506101808b013590509295989b9194979a5092959850565b634e487b7160e01b600052603260045260246000fd5b634e487b7160e01b600052601160045260246000fd5b600060018201614b6d57614b6d614b45565b5060010190565b60208082526018908201527f416363657373436f6e74726f6c6c65642f496e76616c69640000000000000000604082015260600190565b600060208284031215614bbd57600080fd5b5051919050565b8082018082111561154f5761154f614b45565b600082601f830112614be857600080fd5b81516020614bf5826144d8565b60408051614c0383826144ab565b84815260609485028701840194848201935088861115614c2257600080fd5b8488015b8681101561458f5781818b031215614c3e5760008081fd5b8351614c4981614465565b81518152868201518782015284820151858201528552938501938101614c26565b600060208284031215614c7c57600080fd5b815167ffffffffffffffff80821115614c9457600080fd5b9083019060408286031215614ca857600080fd5b604051614cb48161448b565b825182811115614cc357600080fd5b614ccf87828601614bd7565b825250602083015182811115614ce457600080fd5b614cf087828601614bd7565b60208301525095945050505050565b60008060408385031215614d1257600080fd5b505080516020909101519092909150565b600060208284031215614d3557600080fd5b81518015158114610bbd57600080fd5b80516001600160a01b03908116835260208083015190911690830152604090810151910152565b60808101614d7a8285614d45565b8260608301529392505050565b818103600083128015838313168383128216171561154d5761154d614b45565b600061154f368361459d565b634e487b7160e01b600052602160045260246000fd5b600060608284031215614ddb57600080fd5b610bbd8383614977565b600060208284031215614df757600080fd5b81356001600160701b0381168114610bbd57600080fd5b600060208284031215614e2057600080fd5b81356001600160581b0381168114610bbd57600080fd5b600060208284031215614e4957600080fd5b813563ffffffff81168114610bbd57600080fd5b600060208284031215614e6f57600080fd5b813562ffffff81168114610bbd57600080fd5b8181038181111561154f5761154f614b45565b6060810161154f8284614d45565b60a08101614eb18286614d45565b8360608301528215156080830152949350505050565b604080825283519082018190526000906020906060840190828701845b82811015614f095781516001600160a01b031684529284019290840190600101614ee4565b5050506001600160a01b039490941692019190915250919050565b60005b83811015614f3f578181015183820152602001614f27565b50506000910152565b60008251614f5a818460208701614f24565b9190910192915050565b6101008101614f738289614d45565b6060820196909652608081019490945260a084019290925260c083015260e090910152919050565b600060033d1115614fb45760046000803e5060005160e01c5b90565b600060443d1015614fc55790565b6040516003193d81016004833e81513d67ffffffffffffffff8160248401118184111715614ff557505050505090565b828501915081518181111561500d5750505050505090565b843d87010160208285010111156150275750505050505090565b615036602082860101876144ab565b509095945050505050565b6020815260008251806020840152615060816040850160208701614f24565b601f01601f19169190910160400192915050565b80516020808301519190811015610c755760001960209190910360031b1b16919050565b808202811582820484141761154f5761154f614b45565b60e081016150bd8288614d45565b8560608301528460808301528360a08301528260c08301529695505050505050565b6000826150fc57634e487b7160e01b600052601260045260246000fd5b500690565b6000600160ff1b820161511657615116614b45565b5060000390565b808201828112600083128015821682158216171561244d5761244d614b4556fea2646970667358221220a546314e1afca7c558aa0098ea90b224ff5bd6a17f037088fabc23d484e1e70c64736f6c63430008140033",
    "linkReferences": {
      "node_modules/@mangrovedao/mangrove.js/node_modules/@mangrovedao/mangrove-strats/src/strategies/offer_maker/market_making/kandel/abstract/KandelLib.sol": {
        "KandelLib": [
          {
            "start": 5157,
            "length": 20
          }
        ]
      }
    }
  },
  "methodIdentifiers": {
    "BASE()": "ec342ad0",
    "CONSTANT_GASREQ()": "9eb7d4fe",
    "MGV()": "99fa5e2d",
    "NO_ROUTER()": "5570db1d",
    "QUOTE()": "9c579839",
    "RESERVE_ID()": "fbc7d10b",
    "TICK_SPACING()": "46ca626b",
    "activate(address[])": "5293840d",
    "admin()": "f851a440",
    "approve(address,address,uint256)": "e1f21c67",
    "baseQuoteTickOffset()": "14ee02bd",
    "checkList(address[])": "03eb17e2",
    "createDistribution(uint256,uint256,int256,uint256,uint256,uint256,uint256,uint256,uint256)": "3fce15c9",
    "depositFunds(uint256,uint256)": "61638ed5",
    "getOffer(uint8,uint256)": "7692c328",
    "indexOfOfferId(uint8,uint256)": "ea0f394d",
    "initialize(address)": "c4d66de8",
    "makerExecute(((address,address,uint256),uint256,uint256,uint256,uint256,uint256,uint256,uint256))": "2380fafd",
    "makerPosthook(((address,address,uint256),uint256,uint256,uint256,uint256,uint256,uint256,uint256),(bytes32,bytes32))": "c7e1bb44",
    "offerGasreq()": "cfcd2679",
    "offerGasreq(address,address)": "820db1f7",
    "offerIdOfIndex(uint8,uint256)": "bfc353f9",
    "offeredVolume(uint8)": "d2e498fe",
    "params()": "cff0ab96",
    "pending(uint8)": "98ed5340",
    "populate(((uint256,int256,uint256)[],(uint256,int256,uint256)[]),(uint32,uint24,uint88,uint112),uint256,uint256)": "148b7cea",
    "populateChunk(((uint256,int256,uint256)[],(uint256,int256,uint256)[]))": "ace67902",
    "populateChunkFromOffset(uint256,uint256,int256,uint256,uint256,uint256)": "4f605c5b",
    "populateFromOffset(uint256,uint256,int256,uint256,uint256,uint256,uint256,(uint32,uint24,uint88,uint112),uint256,uint256)": "e4f248f4",
    "provisionOf((address,address,uint256),uint256)": "a24f2b2d",
    "reserveBalance(uint8)": "18acf82f",
    "retractAndWithdraw(uint256,uint256,uint256,uint256,uint256,address)": "790532a1",
    "retractOffers(uint256,uint256)": "a2e241af",
    "router()": "f887ea40",
    "setAdmin(address)": "704b6c02",
    "setBaseQuoteTickOffset(uint256)": "a224b5e9",
    "setGasprice(uint256)": "fcaa7e2e",
    "setGasreq(uint256)": "34bd8931",
    "setRouter(address)": "c0d78655",
    "setStepSize(uint256)": "1450acd2",
    "withdrawFromMangrove(uint256,address)": "7144df24",
    "withdrawFunds(uint256,uint256,address)": "9ee8a91c"
  },
  "id": 107
}