{
  "abi": [
    {
      "inputs": [
        {
          "internalType": "contract IMangrove",
          "name": "_mgv",
          "type": "address"
        },
        {
          "components": [
            {
              "internalType": "address",
              "name": "outbound_tkn",
              "type": "address"
            },
            {
              "internalType": "address",
              "name": "inbound_tkn",
              "type": "address"
            },
            {
              "internalType": "uint256",
              "name": "tickSpacing",
              "type": "uint256"
            }
          ],
          "internalType": "struct OLKey",
          "name": "_ol",
          "type": "tuple"
        }
      ],
      "stateMutability": "nonpayable",
      "type": "constructor"
    },
    {
      "anonymous": false,
      "inputs": [
        {
          "indexed": false,
          "internalType": "address",
          "name": "mgv",
          "type": "address"
        },
        {
          "indexed": false,
          "internalType": "address",
          "name": "base",
          "type": "address"
        },
        {
          "indexed": false,
          "internalType": "address",
          "name": "quote",
          "type": "address"
        },
        {
          "indexed": false,
          "internalType": "uint256",
          "name": "tickSpacing",
          "type": "uint256"
        },
        {
          "indexed": false,
          "internalType": "uint256",
          "name": "offerId",
          "type": "uint256"
        },
        {
          "indexed": false,
          "internalType": "uint256",
          "name": "takerWants",
          "type": "uint256"
        },
        {
          "indexed": false,
          "internalType": "uint256",
          "name": "takerGives",
          "type": "uint256"
        }
      ],
      "name": "Execute",
      "type": "event"
    },
    {
      "inputs": [
        {
          "internalType": "contract IERC20",
          "name": "token",
          "type": "address"
        },
        {
          "internalType": "uint256",
          "name": "amount",
          "type": "uint256"
        }
      ],
      "name": "approveMgv",
      "outputs": [],
      "stateMutability": "nonpayable",
      "type": "function"
    },
    {
      "inputs": [
        {
          "internalType": "uint256",
          "name": "offerId",
          "type": "uint256"
        },
        {
          "internalType": "uint256",
          "name": "takerWants",
          "type": "uint256"
        }
      ],
      "name": "clean",
      "outputs": [
        {
          "internalType": "bool",
          "name": "success",
          "type": "bool"
        }
      ],
      "stateMutability": "nonpayable",
      "type": "function"
    },
    {
      "inputs": [
        {
          "components": [
            {
              "internalType": "address",
              "name": "outbound_tkn",
              "type": "address"
            },
            {
              "internalType": "address",
              "name": "inbound_tkn",
              "type": "address"
            },
            {
              "internalType": "uint256",
              "name": "tickSpacing",
              "type": "uint256"
            }
          ],
          "internalType": "struct OLKey",
          "name": "_olKey",
          "type": "tuple"
        },
        {
          "internalType": "uint256",
          "name": "offerId",
          "type": "uint256"
        },
        {
          "internalType": "uint256",
          "name": "takerWants",
          "type": "uint256"
        }
      ],
      "name": "clean",
      "outputs": [
        {
          "internalType": "bool",
          "name": "success",
          "type": "bool"
        }
      ],
      "stateMutability": "nonpayable",
      "type": "function"
    },
    {
      "inputs": [
        {
          "components": [
            {
              "internalType": "address",
              "name": "outbound_tkn",
              "type": "address"
            },
            {
              "internalType": "address",
              "name": "inbound_tkn",
              "type": "address"
            },
            {
              "internalType": "uint256",
              "name": "tickSpacing",
              "type": "uint256"
            }
          ],
          "internalType": "struct OLKey",
          "name": "_olKey",
          "type": "tuple"
        },
        {
          "internalType": "uint256",
          "name": "offerId",
          "type": "uint256"
        },
        {
          "internalType": "Tick",
          "name": "tick",
          "type": "int256"
        },
        {
          "internalType": "uint256",
          "name": "takerWants",
          "type": "uint256"
        }
      ],
      "name": "clean",
      "outputs": [
        {
          "internalType": "bool",
          "name": "success",
          "type": "bool"
        }
      ],
      "stateMutability": "nonpayable",
      "type": "function"
    },
    {
      "inputs": [
        {
          "internalType": "uint256",
          "name": "offerId",
          "type": "uint256"
        },
        {
          "internalType": "Tick",
          "name": "tick",
          "type": "int256"
        },
        {
          "internalType": "uint256",
          "name": "takerWants",
          "type": "uint256"
        }
      ],
      "name": "clean",
      "outputs": [
        {
          "internalType": "bool",
          "name": "success",
          "type": "bool"
        }
      ],
      "stateMutability": "nonpayable",
      "type": "function"
    },
    {
      "inputs": [
        {
          "internalType": "bytes32",
          "name": "mgvData",
          "type": "bytes32"
        }
      ],
      "name": "expect",
      "outputs": [],
      "stateMutability": "nonpayable",
      "type": "function"
    },
    {
      "inputs": [
        {
          "internalType": "address",
          "name": "_mgv",
          "type": "address"
        },
        {
          "components": [
            {
              "internalType": "address",
              "name": "outbound_tkn",
              "type": "address"
            },
            {
              "internalType": "address",
              "name": "inbound_tkn",
              "type": "address"
            },
            {
              "internalType": "uint256",
              "name": "tickSpacing",
              "type": "uint256"
            }
          ],
          "internalType": "struct OLKey",
          "name": "_ol",
          "type": "tuple"
        },
        {
          "internalType": "uint256",
          "name": "offerId",
          "type": "uint256"
        },
        {
          "internalType": "uint256",
          "name": "takerWants",
          "type": "uint256"
        },
        {
          "internalType": "uint256",
          "name": "takerGives",
          "type": "uint256"
        }
      ],
      "name": "logExecute",
      "outputs": [],
      "stateMutability": "nonpayable",
      "type": "function"
    },
    {
      "inputs": [
        {
          "components": [
            {
              "components": [
                {
                  "internalType": "address",
                  "name": "outbound_tkn",
                  "type": "address"
                },
                {
                  "internalType": "address",
                  "name": "inbound_tkn",
                  "type": "address"
                },
                {
                  "internalType": "uint256",
                  "name": "tickSpacing",
                  "type": "uint256"
                }
              ],
              "internalType": "struct OLKey",
              "name": "olKey",
              "type": "tuple"
            },
            {
              "internalType": "uint256",
              "name": "offerId",
              "type": "uint256"
            },
            {
              "internalType": "Offer",
              "name": "offer",
              "type": "uint256"
            },
            {
              "internalType": "uint256",
              "name": "takerWants",
              "type": "uint256"
            },
            {
              "internalType": "uint256",
              "name": "takerGives",
              "type": "uint256"
            },
            {
              "internalType": "OfferDetail",
              "name": "offerDetail",
              "type": "uint256"
            },
            {
              "internalType": "Global",
              "name": "global",
              "type": "uint256"
            },
            {
              "internalType": "Local",
              "name": "local",
              "type": "uint256"
            }
          ],
          "internalType": "struct MgvLib.SingleOrder",
          "name": "order",
          "type": "tuple"
        }
      ],
      "name": "makerExecute",
      "outputs": [
        {
          "internalType": "bytes32",
          "name": "",
          "type": "bytes32"
        }
      ],
      "stateMutability": "nonpayable",
      "type": "function"
    },
    {
      "inputs": [
        {
          "internalType": "uint256",
          "name": "offerId",
          "type": "uint256"
        }
      ],
      "name": "makerExecuteWasCalled",
      "outputs": [
        {
          "internalType": "bool",
          "name": "",
          "type": "bool"
        }
      ],
      "stateMutability": "view",
      "type": "function"
    },
    {
      "inputs": [
        {
          "components": [
            {
              "internalType": "address",
              "name": "outbound_tkn",
              "type": "address"
            },
            {
              "internalType": "address",
              "name": "inbound_tkn",
              "type": "address"
            },
            {
              "internalType": "uint256",
              "name": "tickSpacing",
              "type": "uint256"
            }
          ],
          "internalType": "struct OLKey",
          "name": "_olKey",
          "type": "tuple"
        },
        {
          "internalType": "uint256",
          "name": "offerId",
          "type": "uint256"
        }
      ],
      "name": "makerExecuteWasCalled",
      "outputs": [
        {
          "internalType": "bool",
          "name": "",
          "type": "bool"
        }
      ],
      "stateMutability": "view",
      "type": "function"
    },
    {
      "inputs": [
        {
          "components": [
            {
              "components": [
                {
                  "internalType": "address",
                  "name": "outbound_tkn",
                  "type": "address"
                },
                {
                  "internalType": "address",
                  "name": "inbound_tkn",
                  "type": "address"
                },
                {
                  "internalType": "uint256",
                  "name": "tickSpacing",
                  "type": "uint256"
                }
              ],
              "internalType": "struct OLKey",
              "name": "olKey",
              "type": "tuple"
            },
            {
              "internalType": "uint256",
              "name": "offerId",
              "type": "uint256"
            },
            {
              "internalType": "Offer",
              "name": "offer",
              "type": "uint256"
            },
            {
              "internalType": "uint256",
              "name": "takerWants",
              "type": "uint256"
            },
            {
              "internalType": "uint256",
              "name": "takerGives",
              "type": "uint256"
            },
            {
              "internalType": "OfferDetail",
              "name": "offerDetail",
              "type": "uint256"
            },
            {
              "internalType": "Global",
              "name": "global",
              "type": "uint256"
            },
            {
              "internalType": "Local",
              "name": "local",
              "type": "uint256"
            }
          ],
          "internalType": "struct MgvLib.SingleOrder",
          "name": "order",
          "type": "tuple"
        },
        {
          "components": [
            {
              "internalType": "bytes32",
              "name": "makerData",
              "type": "bytes32"
            },
            {
              "internalType": "bytes32",
              "name": "mgvData",
              "type": "bytes32"
            }
          ],
          "internalType": "struct MgvLib.OrderResult",
          "name": "result",
          "type": "tuple"
        }
      ],
      "name": "makerPosthook",
      "outputs": [],
      "stateMutability": "nonpayable",
      "type": "function"
    },
    {
      "inputs": [
        {
          "internalType": "uint256",
          "name": "offerId",
          "type": "uint256"
        }
      ],
      "name": "makerPosthookWasCalled",
      "outputs": [
        {
          "internalType": "bool",
          "name": "",
          "type": "bool"
        }
      ],
      "stateMutability": "view",
      "type": "function"
    },
    {
      "inputs": [
        {
          "components": [
            {
              "internalType": "address",
              "name": "outbound_tkn",
              "type": "address"
            },
            {
              "internalType": "address",
              "name": "inbound_tkn",
              "type": "address"
            },
            {
              "internalType": "uint256",
              "name": "tickSpacing",
              "type": "uint256"
            }
          ],
          "internalType": "struct OLKey",
          "name": "_olKey",
          "type": "tuple"
        },
        {
          "internalType": "uint256",
          "name": "offerId",
          "type": "uint256"
        }
      ],
      "name": "makerPosthookWasCalled",
      "outputs": [
        {
          "internalType": "bool",
          "name": "",
          "type": "bool"
        }
      ],
      "stateMutability": "view",
      "type": "function"
    },
    {
      "inputs": [
        {
          "components": [
            {
              "internalType": "address",
              "name": "outbound_tkn",
              "type": "address"
            },
            {
              "internalType": "address",
              "name": "inbound_tkn",
              "type": "address"
            },
            {
              "internalType": "uint256",
              "name": "tickSpacing",
              "type": "uint256"
            }
          ],
          "internalType": "struct OLKey",
          "name": "_olKey",
          "type": "tuple"
        },
        {
          "internalType": "uint256",
          "name": "takerWants",
          "type": "uint256"
        },
        {
          "internalType": "uint256",
          "name": "takerGives",
          "type": "uint256"
        }
      ],
      "name": "marketOrderByVolume",
      "outputs": [
        {
          "internalType": "uint256",
          "name": "takerGot",
          "type": "uint256"
        },
        {
          "internalType": "uint256",
          "name": "takerGave",
          "type": "uint256"
        }
      ],
      "stateMutability": "nonpayable",
      "type": "function"
    },
    {
      "inputs": [
        {
          "internalType": "uint256",
          "name": "takerWants",
          "type": "uint256"
        },
        {
          "internalType": "uint256",
          "name": "takerGives",
          "type": "uint256"
        }
      ],
      "name": "marketOrderByVolume",
      "outputs": [
        {
          "internalType": "uint256",
          "name": "takerGot",
          "type": "uint256"
        },
        {
          "internalType": "uint256",
          "name": "takerGave",
          "type": "uint256"
        }
      ],
      "stateMutability": "nonpayable",
      "type": "function"
    },
    {
      "inputs": [],
      "name": "mgv",
      "outputs": [
        {
          "internalType": "contract IMangrove",
          "name": "",
          "type": "address"
        }
      ],
      "stateMutability": "view",
      "type": "function"
    },
    {
      "inputs": [],
      "name": "mgvBalance",
      "outputs": [
        {
          "internalType": "uint256",
          "name": "",
          "type": "uint256"
        }
      ],
      "stateMutability": "view",
      "type": "function"
    },
    {
      "inputs": [
        {
          "internalType": "Tick",
          "name": "tick",
          "type": "int256"
        },
        {
          "internalType": "uint256",
          "name": "gives",
          "type": "uint256"
        },
        {
          "internalType": "uint256",
          "name": "gasreq",
          "type": "uint256"
        }
      ],
      "name": "newFailingOfferByTick",
      "outputs": [
        {
          "internalType": "uint256",
          "name": "",
          "type": "uint256"
        }
      ],
      "stateMutability": "nonpayable",
      "type": "function"
    },
    {
      "inputs": [
        {
          "internalType": "Tick",
          "name": "tick",
          "type": "int256"
        },
        {
          "internalType": "uint256",
          "name": "gives",
          "type": "uint256"
        },
        {
          "internalType": "uint256",
          "name": "gasreq",
          "type": "uint256"
        }
      ],
      "name": "newOfferByTick",
      "outputs": [
        {
          "internalType": "uint256",
          "name": "",
          "type": "uint256"
        }
      ],
      "stateMutability": "nonpayable",
      "type": "function"
    },
    {
      "inputs": [
        {
          "internalType": "Tick",
          "name": "tick",
          "type": "int256"
        },
        {
          "internalType": "uint256",
          "name": "gives",
          "type": "uint256"
        },
        {
          "internalType": "uint256",
          "name": "gasreq",
          "type": "uint256"
        },
        {
          "internalType": "uint256",
          "name": "gasprice",
          "type": "uint256"
        }
      ],
      "name": "newOfferByTick",
      "outputs": [
        {
          "internalType": "uint256",
          "name": "",
          "type": "uint256"
        }
      ],
      "stateMutability": "nonpayable",
      "type": "function"
    },
    {
      "inputs": [
        {
          "components": [
            {
              "internalType": "address",
              "name": "outbound_tkn",
              "type": "address"
            },
            {
              "internalType": "address",
              "name": "inbound_tkn",
              "type": "address"
            },
            {
              "internalType": "uint256",
              "name": "tickSpacing",
              "type": "uint256"
            }
          ],
          "internalType": "struct OLKey",
          "name": "_olKey",
          "type": "tuple"
        },
        {
          "internalType": "Tick",
          "name": "tick",
          "type": "int256"
        },
        {
          "internalType": "uint256",
          "name": "gives",
          "type": "uint256"
        },
        {
          "internalType": "uint256",
          "name": "gasreq",
          "type": "uint256"
        }
      ],
      "name": "newOfferByTick",
      "outputs": [
        {
          "internalType": "uint256",
          "name": "",
          "type": "uint256"
        }
      ],
      "stateMutability": "nonpayable",
      "type": "function"
    },
    {
      "inputs": [
        {
          "components": [
            {
              "internalType": "address",
              "name": "outbound_tkn",
              "type": "address"
            },
            {
              "internalType": "address",
              "name": "inbound_tkn",
              "type": "address"
            },
            {
              "internalType": "uint256",
              "name": "tickSpacing",
              "type": "uint256"
            }
          ],
          "internalType": "struct OLKey",
          "name": "_olKey",
          "type": "tuple"
        },
        {
          "internalType": "Tick",
          "name": "tick",
          "type": "int256"
        },
        {
          "internalType": "uint256",
          "name": "gives",
          "type": "uint256"
        },
        {
          "internalType": "uint256",
          "name": "gasreq",
          "type": "uint256"
        },
        {
          "internalType": "uint256",
          "name": "gasprice",
          "type": "uint256"
        }
      ],
      "name": "newOfferByTick",
      "outputs": [
        {
          "internalType": "uint256",
          "name": "",
          "type": "uint256"
        }
      ],
      "stateMutability": "nonpayable",
      "type": "function"
    },
    {
      "inputs": [
        {
          "components": [
            {
              "internalType": "address",
              "name": "outbound_tkn",
              "type": "address"
            },
            {
              "internalType": "address",
              "name": "inbound_tkn",
              "type": "address"
            },
            {
              "internalType": "uint256",
              "name": "tickSpacing",
              "type": "uint256"
            }
          ],
          "internalType": "struct OLKey",
          "name": "_ol",
          "type": "tuple"
        },
        {
          "internalType": "Tick",
          "name": "tick",
          "type": "int256"
        },
        {
          "internalType": "uint256",
          "name": "gives",
          "type": "uint256"
        },
        {
          "internalType": "uint256",
          "name": "gasreq",
          "type": "uint256"
        },
        {
          "internalType": "uint256",
          "name": "gasprice",
          "type": "uint256"
        },
        {
          "internalType": "uint256",
          "name": "amount",
          "type": "uint256"
        }
      ],
      "name": "newOfferByTickWithFunding",
      "outputs": [
        {
          "internalType": "uint256",
          "name": "",
          "type": "uint256"
        }
      ],
      "stateMutability": "nonpayable",
      "type": "function"
    },
    {
      "inputs": [
        {
          "components": [
            {
              "internalType": "address",
              "name": "outbound_tkn",
              "type": "address"
            },
            {
              "internalType": "address",
              "name": "inbound_tkn",
              "type": "address"
            },
            {
              "internalType": "uint256",
              "name": "tickSpacing",
              "type": "uint256"
            }
          ],
          "internalType": "struct OLKey",
          "name": "_ol",
          "type": "tuple"
        },
        {
          "internalType": "Tick",
          "name": "tick",
          "type": "int256"
        },
        {
          "internalType": "uint256",
          "name": "gives",
          "type": "uint256"
        },
        {
          "internalType": "uint256",
          "name": "gasreq",
          "type": "uint256"
        },
        {
          "internalType": "uint256",
          "name": "gasprice",
          "type": "uint256"
        },
        {
          "internalType": "uint256",
          "name": "amount",
          "type": "uint256"
        },
        {
          "components": [
            {
              "internalType": "bool",
              "name": "shouldRevert",
              "type": "bool"
            },
            {
              "internalType": "string",
              "name": "executeData",
              "type": "string"
            }
          ],
          "internalType": "struct OfferData",
          "name": "offerData",
          "type": "tuple"
        }
      ],
      "name": "newOfferByTickWithFunding",
      "outputs": [
        {
          "internalType": "uint256",
          "name": "",
          "type": "uint256"
        }
      ],
      "stateMutability": "nonpayable",
      "type": "function"
    },
    {
      "inputs": [
        {
          "components": [
            {
              "internalType": "address",
              "name": "outbound_tkn",
              "type": "address"
            },
            {
              "internalType": "address",
              "name": "inbound_tkn",
              "type": "address"
            },
            {
              "internalType": "uint256",
              "name": "tickSpacing",
              "type": "uint256"
            }
          ],
          "internalType": "struct OLKey",
          "name": "_ol",
          "type": "tuple"
        },
        {
          "internalType": "uint256",
          "name": "wants",
          "type": "uint256"
        },
        {
          "internalType": "uint256",
          "name": "gives",
          "type": "uint256"
        },
        {
          "internalType": "uint256",
          "name": "gasreq",
          "type": "uint256"
        },
        {
          "components": [
            {
              "internalType": "bool",
              "name": "shouldRevert",
              "type": "bool"
            },
            {
              "internalType": "string",
              "name": "executeData",
              "type": "string"
            }
          ],
          "internalType": "struct OfferData",
          "name": "offerData",
          "type": "tuple"
        }
      ],
      "name": "newOfferByVolume",
      "outputs": [
        {
          "internalType": "uint256",
          "name": "",
          "type": "uint256"
        }
      ],
      "stateMutability": "nonpayable",
      "type": "function"
    },
    {
      "inputs": [
        {
          "internalType": "uint256",
          "name": "wants",
          "type": "uint256"
        },
        {
          "internalType": "uint256",
          "name": "gives",
          "type": "uint256"
        },
        {
          "internalType": "uint256",
          "name": "gasreq",
          "type": "uint256"
        }
      ],
      "name": "newOfferByVolume",
      "outputs": [
        {
          "internalType": "uint256",
          "name": "",
          "type": "uint256"
        }
      ],
      "stateMutability": "nonpayable",
      "type": "function"
    },
    {
      "inputs": [
        {
          "internalType": "uint256",
          "name": "wants",
          "type": "uint256"
        },
        {
          "internalType": "uint256",
          "name": "gives",
          "type": "uint256"
        },
        {
          "internalType": "uint256",
          "name": "gasreq",
          "type": "uint256"
        },
        {
          "components": [
            {
              "internalType": "bool",
              "name": "shouldRevert",
              "type": "bool"
            },
            {
              "internalType": "string",
              "name": "executeData",
              "type": "string"
            }
          ],
          "internalType": "struct OfferData",
          "name": "offerData",
          "type": "tuple"
        }
      ],
      "name": "newOfferByVolume",
      "outputs": [
        {
          "internalType": "uint256",
          "name": "",
          "type": "uint256"
        }
      ],
      "stateMutability": "nonpayable",
      "type": "function"
    },
    {
      "inputs": [
        {
          "internalType": "uint256",
          "name": "wants",
          "type": "uint256"
        },
        {
          "internalType": "uint256",
          "name": "gives",
          "type": "uint256"
        },
        {
          "internalType": "uint256",
          "name": "gasreq",
          "type": "uint256"
        },
        {
          "internalType": "uint256",
          "name": "gasprice",
          "type": "uint256"
        }
      ],
      "name": "newOfferByVolume",
      "outputs": [
        {
          "internalType": "uint256",
          "name": "",
          "type": "uint256"
        }
      ],
      "stateMutability": "nonpayable",
      "type": "function"
    },
    {
      "inputs": [
        {
          "components": [
            {
              "internalType": "address",
              "name": "outbound_tkn",
              "type": "address"
            },
            {
              "internalType": "address",
              "name": "inbound_tkn",
              "type": "address"
            },
            {
              "internalType": "uint256",
              "name": "tickSpacing",
              "type": "uint256"
            }
          ],
          "internalType": "struct OLKey",
          "name": "_ol",
          "type": "tuple"
        },
        {
          "internalType": "uint256",
          "name": "wants",
          "type": "uint256"
        },
        {
          "internalType": "uint256",
          "name": "gives",
          "type": "uint256"
        },
        {
          "internalType": "uint256",
          "name": "gasreq",
          "type": "uint256"
        }
      ],
      "name": "newOfferByVolume",
      "outputs": [
        {
          "internalType": "uint256",
          "name": "",
          "type": "uint256"
        }
      ],
      "stateMutability": "nonpayable",
      "type": "function"
    },
    {
      "inputs": [
        {
          "internalType": "uint256",
          "name": "wants",
          "type": "uint256"
        },
        {
          "internalType": "uint256",
          "name": "gives",
          "type": "uint256"
        },
        {
          "internalType": "uint256",
          "name": "gasreq",
          "type": "uint256"
        },
        {
          "internalType": "uint256",
          "name": "amount",
          "type": "uint256"
        },
        {
          "components": [
            {
              "internalType": "bool",
              "name": "shouldRevert",
              "type": "bool"
            },
            {
              "internalType": "string",
              "name": "executeData",
              "type": "string"
            }
          ],
          "internalType": "struct OfferData",
          "name": "offerData",
          "type": "tuple"
        }
      ],
      "name": "newOfferByVolumeWithFunding",
      "outputs": [
        {
          "internalType": "uint256",
          "name": "",
          "type": "uint256"
        }
      ],
      "stateMutability": "nonpayable",
      "type": "function"
    },
    {
      "inputs": [
        {
          "components": [
            {
              "internalType": "address",
              "name": "outbound_tkn",
              "type": "address"
            },
            {
              "internalType": "address",
              "name": "inbound_tkn",
              "type": "address"
            },
            {
              "internalType": "uint256",
              "name": "tickSpacing",
              "type": "uint256"
            }
          ],
          "internalType": "struct OLKey",
          "name": "_ol",
          "type": "tuple"
        },
        {
          "internalType": "uint256",
          "name": "wants",
          "type": "uint256"
        },
        {
          "internalType": "uint256",
          "name": "gives",
          "type": "uint256"
        },
        {
          "internalType": "uint256",
          "name": "gasreq",
          "type": "uint256"
        },
        {
          "internalType": "uint256",
          "name": "amount",
          "type": "uint256"
        }
      ],
      "name": "newOfferByVolumeWithFunding",
      "outputs": [
        {
          "internalType": "uint256",
          "name": "",
          "type": "uint256"
        }
      ],
      "stateMutability": "nonpayable",
      "type": "function"
    },
    {
      "inputs": [
        {
          "internalType": "uint256",
          "name": "wants",
          "type": "uint256"
        },
        {
          "internalType": "uint256",
          "name": "gives",
          "type": "uint256"
        },
        {
          "internalType": "uint256",
          "name": "gasreq",
          "type": "uint256"
        },
        {
          "internalType": "uint256",
          "name": "gasprice",
          "type": "uint256"
        },
        {
          "internalType": "uint256",
          "name": "amount",
          "type": "uint256"
        }
      ],
      "name": "newOfferByVolumeWithFunding",
      "outputs": [
        {
          "internalType": "uint256",
          "name": "",
          "type": "uint256"
        }
      ],
      "stateMutability": "nonpayable",
      "type": "function"
    },
    {
      "inputs": [
        {
          "components": [
            {
              "internalType": "address",
              "name": "outbound_tkn",
              "type": "address"
            },
            {
              "internalType": "address",
              "name": "inbound_tkn",
              "type": "address"
            },
            {
              "internalType": "uint256",
              "name": "tickSpacing",
              "type": "uint256"
            }
          ],
          "internalType": "struct OLKey",
          "name": "_ol",
          "type": "tuple"
        },
        {
          "internalType": "uint256",
          "name": "wants",
          "type": "uint256"
        },
        {
          "internalType": "uint256",
          "name": "gives",
          "type": "uint256"
        },
        {
          "internalType": "uint256",
          "name": "gasreq",
          "type": "uint256"
        },
        {
          "internalType": "uint256",
          "name": "amount",
          "type": "uint256"
        },
        {
          "components": [
            {
              "internalType": "bool",
              "name": "shouldRevert",
              "type": "bool"
            },
            {
              "internalType": "string",
              "name": "executeData",
              "type": "string"
            }
          ],
          "internalType": "struct OfferData",
          "name": "offerData",
          "type": "tuple"
        }
      ],
      "name": "newOfferByVolumeWithFunding",
      "outputs": [
        {
          "internalType": "uint256",
          "name": "",
          "type": "uint256"
        }
      ],
      "stateMutability": "nonpayable",
      "type": "function"
    },
    {
      "inputs": [
        {
          "internalType": "uint256",
          "name": "wants",
          "type": "uint256"
        },
        {
          "internalType": "uint256",
          "name": "gives",
          "type": "uint256"
        },
        {
          "internalType": "uint256",
          "name": "gasreq",
          "type": "uint256"
        },
        {
          "internalType": "uint256",
          "name": "amount",
          "type": "uint256"
        }
      ],
      "name": "newOfferByVolumeWithFunding",
      "outputs": [
        {
          "internalType": "uint256",
          "name": "",
          "type": "uint256"
        }
      ],
      "stateMutability": "nonpayable",
      "type": "function"
    },
    {
      "inputs": [
        {
          "components": [
            {
              "internalType": "address",
              "name": "outbound_tkn",
              "type": "address"
            },
            {
              "internalType": "address",
              "name": "inbound_tkn",
              "type": "address"
            },
            {
              "internalType": "uint256",
              "name": "tickSpacing",
              "type": "uint256"
            }
          ],
          "internalType": "struct OLKey",
          "name": "_ol",
          "type": "tuple"
        },
        {
          "internalType": "uint256",
          "name": "wants",
          "type": "uint256"
        },
        {
          "internalType": "uint256",
          "name": "gives",
          "type": "uint256"
        },
        {
          "internalType": "uint256",
          "name": "gasreq",
          "type": "uint256"
        },
        {
          "internalType": "uint256",
          "name": "gasprice",
          "type": "uint256"
        },
        {
          "internalType": "uint256",
          "name": "amount",
          "type": "uint256"
        }
      ],
      "name": "newOfferByVolumeWithFunding",
      "outputs": [
        {
          "internalType": "uint256",
          "name": "",
          "type": "uint256"
        }
      ],
      "stateMutability": "nonpayable",
      "type": "function"
    },
    {
      "inputs": [
        {
          "components": [
            {
              "internalType": "address",
              "name": "outbound_tkn",
              "type": "address"
            },
            {
              "internalType": "address",
              "name": "inbound_tkn",
              "type": "address"
            },
            {
              "internalType": "uint256",
              "name": "tickSpacing",
              "type": "uint256"
            }
          ],
          "internalType": "struct OLKey",
          "name": "_ol",
          "type": "tuple"
        },
        {
          "internalType": "uint256",
          "name": "wants",
          "type": "uint256"
        },
        {
          "internalType": "uint256",
          "name": "gives",
          "type": "uint256"
        },
        {
          "internalType": "uint256",
          "name": "gasreq",
          "type": "uint256"
        },
        {
          "internalType": "uint256",
          "name": "gasprice",
          "type": "uint256"
        },
        {
          "internalType": "uint256",
          "name": "amount",
          "type": "uint256"
        },
        {
          "components": [
            {
              "internalType": "bool",
              "name": "shouldRevert",
              "type": "bool"
            },
            {
              "internalType": "string",
              "name": "executeData",
              "type": "string"
            }
          ],
          "internalType": "struct OfferData",
          "name": "offerData",
          "type": "tuple"
        }
      ],
      "name": "newOfferByVolumeWithFunding",
      "outputs": [
        {
          "internalType": "uint256",
          "name": "",
          "type": "uint256"
        }
      ],
      "stateMutability": "nonpayable",
      "type": "function"
    },
    {
      "inputs": [
        {
          "internalType": "uint256",
          "name": "amount",
          "type": "uint256"
        }
      ],
      "name": "provisionMgv",
      "outputs": [],
      "stateMutability": "payable",
      "type": "function"
    },
    {
      "inputs": [
        {
          "internalType": "uint256",
          "name": "offerId",
          "type": "uint256"
        }
      ],
      "name": "retractOffer",
      "outputs": [
        {
          "internalType": "uint256",
          "name": "",
          "type": "uint256"
        }
      ],
      "stateMutability": "nonpayable",
      "type": "function"
    },
    {
      "inputs": [
        {
          "components": [
            {
              "internalType": "address",
              "name": "outbound_tkn",
              "type": "address"
            },
            {
              "internalType": "address",
              "name": "inbound_tkn",
              "type": "address"
            },
            {
              "internalType": "uint256",
              "name": "tickSpacing",
              "type": "uint256"
            }
          ],
          "internalType": "struct OLKey",
          "name": "_olKey",
          "type": "tuple"
        },
        {
          "internalType": "uint256",
          "name": "offerId",
          "type": "uint256"
        }
      ],
      "name": "retractOffer",
      "outputs": [
        {
          "internalType": "uint256",
          "name": "",
          "type": "uint256"
        }
      ],
      "stateMutability": "nonpayable",
      "type": "function"
    },
    {
      "inputs": [
        {
          "internalType": "uint256",
          "name": "offerId",
          "type": "uint256"
        }
      ],
      "name": "retractOfferWithDeprovision",
      "outputs": [
        {
          "internalType": "uint256",
          "name": "",
          "type": "uint256"
        }
      ],
      "stateMutability": "nonpayable",
      "type": "function"
    },
    {
      "inputs": [
        {
          "internalType": "address",
          "name": "_executeCallbackContract",
          "type": "address"
        },
        {
          "internalType": "bytes4",
          "name": "_executeCallbackSelector",
          "type": "bytes4"
        }
      ],
      "name": "setExecuteCallback",
      "outputs": [],
      "stateMutability": "nonpayable",
      "type": "function"
    },
    {
      "inputs": [
        {
          "internalType": "address",
          "name": "_posthookCallbackContract",
          "type": "address"
        },
        {
          "internalType": "bytes4",
          "name": "_posthookCallbackSelector",
          "type": "bytes4"
        }
      ],
      "name": "setPosthookCallback",
      "outputs": [],
      "stateMutability": "nonpayable",
      "type": "function"
    },
    {
      "inputs": [
        {
          "internalType": "address",
          "name": "_posthookNoArgCallbackContract",
          "type": "address"
        },
        {
          "internalType": "bytes",
          "name": "_posthookNoArgCallback",
          "type": "bytes"
        }
      ],
      "name": "setPosthookNoArgCallback",
      "outputs": [],
      "stateMutability": "nonpayable",
      "type": "function"
    },
    {
      "inputs": [
        {
          "internalType": "bool",
          "name": "should",
          "type": "bool"
        }
      ],
      "name": "setShouldFailHook",
      "outputs": [],
      "stateMutability": "nonpayable",
      "type": "function"
    },
    {
      "inputs": [
        {
          "internalType": "address",
          "name": "_tradeCallbackContract",
          "type": "address"
        },
        {
          "internalType": "bytes",
          "name": "_tradeCallback",
          "type": "bytes"
        }
      ],
      "name": "setTradeCallback",
      "outputs": [],
      "stateMutability": "nonpayable",
      "type": "function"
    },
    {
      "inputs": [
        {
          "internalType": "bool",
          "name": "should",
          "type": "bool"
        }
      ],
      "name": "shouldFail",
      "outputs": [],
      "stateMutability": "nonpayable",
      "type": "function"
    },
    {
      "inputs": [
        {
          "internalType": "bool",
          "name": "should",
          "type": "bool"
        }
      ],
      "name": "shouldRepost",
      "outputs": [],
      "stateMutability": "nonpayable",
      "type": "function"
    },
    {
      "inputs": [
        {
          "internalType": "bool",
          "name": "should",
          "type": "bool"
        }
      ],
      "name": "shouldRevert",
      "outputs": [],
      "stateMutability": "nonpayable",
      "type": "function"
    },
    {
      "inputs": [
        {
          "internalType": "bool",
          "name": "should",
          "type": "bool"
        }
      ],
      "name": "shouldRevertOnNonZeroGives",
      "outputs": [],
      "stateMutability": "nonpayable",
      "type": "function"
    },
    {
      "inputs": [
        {
          "internalType": "contract IERC20",
          "name": "token",
          "type": "address"
        },
        {
          "internalType": "address",
          "name": "to",
          "type": "address"
        },
        {
          "internalType": "uint256",
          "name": "amount",
          "type": "uint256"
        }
      ],
      "name": "transferToken",
      "outputs": [],
      "stateMutability": "nonpayable",
      "type": "function"
    },
    {
      "inputs": [
        {
          "internalType": "Tick",
          "name": "tick",
          "type": "int256"
        },
        {
          "internalType": "uint256",
          "name": "gives",
          "type": "uint256"
        },
        {
          "internalType": "uint256",
          "name": "gasreq",
          "type": "uint256"
        },
        {
          "internalType": "uint256",
          "name": "offerId",
          "type": "uint256"
        }
      ],
      "name": "updateOfferByTick",
      "outputs": [],
      "stateMutability": "nonpayable",
      "type": "function"
    },
    {
      "inputs": [
        {
          "internalType": "Tick",
          "name": "tick",
          "type": "int256"
        },
        {
          "internalType": "uint256",
          "name": "gives",
          "type": "uint256"
        },
        {
          "internalType": "uint256",
          "name": "gasreq",
          "type": "uint256"
        },
        {
          "internalType": "uint256",
          "name": "gasprice",
          "type": "uint256"
        },
        {
          "internalType": "uint256",
          "name": "offerId",
          "type": "uint256"
        }
      ],
      "name": "updateOfferByTick",
      "outputs": [],
      "stateMutability": "nonpayable",
      "type": "function"
    },
    {
      "inputs": [
        {
          "components": [
            {
              "internalType": "address",
              "name": "outbound_tkn",
              "type": "address"
            },
            {
              "internalType": "address",
              "name": "inbound_tkn",
              "type": "address"
            },
            {
              "internalType": "uint256",
              "name": "tickSpacing",
              "type": "uint256"
            }
          ],
          "internalType": "struct OLKey",
          "name": "_olKey",
          "type": "tuple"
        },
        {
          "internalType": "Tick",
          "name": "tick",
          "type": "int256"
        },
        {
          "internalType": "uint256",
          "name": "gives",
          "type": "uint256"
        },
        {
          "internalType": "uint256",
          "name": "gasreq",
          "type": "uint256"
        },
        {
          "internalType": "uint256",
          "name": "gasprice",
          "type": "uint256"
        },
        {
          "internalType": "uint256",
          "name": "offerId",
          "type": "uint256"
        },
        {
          "internalType": "uint256",
          "name": "amount",
          "type": "uint256"
        },
        {
          "components": [
            {
              "internalType": "bool",
              "name": "shouldRevert",
              "type": "bool"
            },
            {
              "internalType": "string",
              "name": "executeData",
              "type": "string"
            }
          ],
          "internalType": "struct OfferData",
          "name": "offerData",
          "type": "tuple"
        }
      ],
      "name": "updateOfferByTickWithFunding",
      "outputs": [],
      "stateMutability": "nonpayable",
      "type": "function"
    },
    {
      "inputs": [
        {
          "internalType": "uint256",
          "name": "wants",
          "type": "uint256"
        },
        {
          "internalType": "uint256",
          "name": "gives",
          "type": "uint256"
        },
        {
          "internalType": "uint256",
          "name": "gasreq",
          "type": "uint256"
        },
        {
          "internalType": "uint256",
          "name": "offerId",
          "type": "uint256"
        },
        {
          "components": [
            {
              "internalType": "bool",
              "name": "shouldRevert",
              "type": "bool"
            },
            {
              "internalType": "string",
              "name": "executeData",
              "type": "string"
            }
          ],
          "internalType": "struct OfferData",
          "name": "offerData",
          "type": "tuple"
        }
      ],
      "name": "updateOfferByVolume",
      "outputs": [],
      "stateMutability": "nonpayable",
      "type": "function"
    },
    {
      "inputs": [
        {
          "internalType": "uint256",
          "name": "wants",
          "type": "uint256"
        },
        {
          "internalType": "uint256",
          "name": "gives",
          "type": "uint256"
        },
        {
          "internalType": "uint256",
          "name": "gasreq",
          "type": "uint256"
        },
        {
          "internalType": "uint256",
          "name": "offerId",
          "type": "uint256"
        }
      ],
      "name": "updateOfferByVolume",
      "outputs": [],
      "stateMutability": "nonpayable",
      "type": "function"
    },
    {
      "inputs": [
        {
          "components": [
            {
              "internalType": "address",
              "name": "outbound_tkn",
              "type": "address"
            },
            {
              "internalType": "address",
              "name": "inbound_tkn",
              "type": "address"
            },
            {
              "internalType": "uint256",
              "name": "tickSpacing",
              "type": "uint256"
            }
          ],
          "internalType": "struct OLKey",
          "name": "_olKey",
          "type": "tuple"
        },
        {
          "internalType": "uint256",
          "name": "wants",
          "type": "uint256"
        },
        {
          "internalType": "uint256",
          "name": "gives",
          "type": "uint256"
        },
        {
          "internalType": "uint256",
          "name": "gasreq",
          "type": "uint256"
        },
        {
          "internalType": "uint256",
          "name": "offerId",
          "type": "uint256"
        }
      ],
      "name": "updateOfferByVolume",
      "outputs": [],
      "stateMutability": "nonpayable",
      "type": "function"
    },
    {
      "inputs": [
        {
          "internalType": "uint256",
          "name": "wants",
          "type": "uint256"
        },
        {
          "internalType": "uint256",
          "name": "gives",
          "type": "uint256"
        },
        {
          "internalType": "uint256",
          "name": "gasreq",
          "type": "uint256"
        },
        {
          "internalType": "uint256",
          "name": "offerId",
          "type": "uint256"
        },
        {
          "internalType": "uint256",
          "name": "amount",
          "type": "uint256"
        },
        {
          "components": [
            {
              "internalType": "bool",
              "name": "shouldRevert",
              "type": "bool"
            },
            {
              "internalType": "string",
              "name": "executeData",
              "type": "string"
            }
          ],
          "internalType": "struct OfferData",
          "name": "offerData",
          "type": "tuple"
        }
      ],
      "name": "updateOfferByVolumeWithFunding",
      "outputs": [],
      "stateMutability": "nonpayable",
      "type": "function"
    },
    {
      "inputs": [
        {
          "internalType": "uint256",
          "name": "wants",
          "type": "uint256"
        },
        {
          "internalType": "uint256",
          "name": "gives",
          "type": "uint256"
        },
        {
          "internalType": "uint256",
          "name": "gasreq",
          "type": "uint256"
        },
        {
          "internalType": "uint256",
          "name": "offerId",
          "type": "uint256"
        },
        {
          "internalType": "uint256",
          "name": "amount",
          "type": "uint256"
        }
      ],
      "name": "updateOfferByVolumeWithFunding",
      "outputs": [],
      "stateMutability": "nonpayable",
      "type": "function"
    },
    {
      "inputs": [
        {
          "components": [
            {
              "internalType": "address",
              "name": "outbound_tkn",
              "type": "address"
            },
            {
              "internalType": "address",
              "name": "inbound_tkn",
              "type": "address"
            },
            {
              "internalType": "uint256",
              "name": "tickSpacing",
              "type": "uint256"
            }
          ],
          "internalType": "struct OLKey",
          "name": "_olKey",
          "type": "tuple"
        },
        {
          "internalType": "uint256",
          "name": "wants",
          "type": "uint256"
        },
        {
          "internalType": "uint256",
          "name": "gives",
          "type": "uint256"
        },
        {
          "internalType": "uint256",
          "name": "gasreq",
          "type": "uint256"
        },
        {
          "internalType": "uint256",
          "name": "offerId",
          "type": "uint256"
        },
        {
          "internalType": "uint256",
          "name": "amount",
          "type": "uint256"
        },
        {
          "components": [
            {
              "internalType": "bool",
              "name": "shouldRevert",
              "type": "bool"
            },
            {
              "internalType": "string",
              "name": "executeData",
              "type": "string"
            }
          ],
          "internalType": "struct OfferData",
          "name": "offerData",
          "type": "tuple"
        }
      ],
      "name": "updateOfferByVolumeWithFunding",
      "outputs": [],
      "stateMutability": "nonpayable",
      "type": "function"
    },
    {
      "inputs": [
        {
          "internalType": "uint256",
          "name": "amount",
          "type": "uint256"
        }
      ],
      "name": "withdrawMgv",
      "outputs": [
        {
          "internalType": "bool",
          "name": "",
          "type": "bool"
        }
      ],
      "stateMutability": "nonpayable",
      "type": "function"
    },
    {
      "stateMutability": "payable",
      "type": "receive"
    }
  ],
  "bytecode": {
    "object": "0x60806040523480156200001157600080fd5b5060405162003bad38038062003bad83398101604081905262000034916200009e565b600080546001600160a01b039384166001600160a01b031991821617909155815160018054918516918316919091179055602082015160028054919094169116179091556040015160035562000144565b6001600160a01b03811681146200009b57600080fd5b50565b6000808284036080811215620000b357600080fd5b8351620000c08162000085565b92506060601f1982011215620000d557600080fd5b50604051606081016001600160401b03811182821017156200010757634e487b7160e01b600052604160045260246000fd5b60405260208401516200011a8162000085565b815260408401516200012c8162000085565b60208201526060939093015160408401525092909150565b613a5980620001546000396000f3fe60806040526004361061039b5760003560e01c80638c198da2116101dc578063c50b482e11610102578063d5208679116100a0578063f95902aa1161006f578063f95902aa14610b83578063fa00d99914610ba3578063fc8349f214610bc3578063ffae399e14610be357600080fd5b8063d520867914610b03578063da4c437614610b23578063e67ecda114610b43578063f5537ede14610b6357600080fd5b8063cafffca8116100dc578063cafffca814610a90578063d239ded814610ab0578063d3845fea14610ad0578063d4b7b46714610ae357600080fd5b8063c50b482e14610a30578063c6a77f9b14610a50578063c7e1bb4414610a7057600080fd5b8063a47395f61161017a578063b5e51e5e11610149578063b5e51e5e146109b0578063b774d279146109d0578063c4780e54146109f0578063c4c6c87d14610a1057600080fd5b8063a47395f614610922578063a6e70ae514610950578063aed012ef14610970578063b1819c671461099057600080fd5b8063a1b8caea116101b6578063a1b8caea146108a2578063a2595f70146108c2578063a3cfe14d146108e2578063a3d863421461090257600080fd5b80638c198da2146108025780638eb1edd214610822578063983531441461085757600080fd5b80635a4924e8116102c157806378f2c6311161025f578063834c617a1161022e578063834c617a1461078d5780638351efb0146107ad57806389fbfa17146107cd5780638b0af9bb146107ed57600080fd5b806378f2c631146106f457806379158d6d146107145780637a943a37146107345780637efcadc51461076d57600080fd5b8063638c36d61161029b578063638c36d614610631578063667542221461067c5780636e3b5a2e1461069c5780637604f954146106d457600080fd5b80635a4924e8146105c35780635c8a4490146105f1578063623bfb451461061157600080fd5b806322375e78116103395780633e4043e7116103085780633e4043e71461052c57806346971b151461054c578063539785341461056c57806358538500146105a357600080fd5b806322375e78146104ac5780632380fafd146104cc5780632754c0c8146104ec5780633b0830bc1461050c57600080fd5b80630b588d13116103755780630b588d131461041c5780631677ad141461043c5780631eafcbdb1461046c578063210ce5131461048c57600080fd5b806303398842146103a7578063041ae880146103da57806304af4e8b146103fc57600080fd5b366103a257005b600080fd5b3480156103b357600080fd5b506103c76103c2366004612c5a565b610c18565b6040519081526020015b60405180910390f35b3480156103e657600080fd5b506103fa6103f5366004612cc5565b610c34565b005b34801561040857600080fd5b506103fa610417366004612cc5565b610c62565b34801561042857600080fd5b506103fa610437366004612d49565b610c8a565b34801561044857600080fd5b5061045c610457366004612db4565b610d3c565b60405190151581526020016103d1565b34801561047857600080fd5b506103c7610487366004612dcd565b610d7c565b34801561049857600080fd5b506103c76104a7366004612dcd565b610d95565b3480156104b857600080fd5b506103fa6104c7366004612df9565b610dd1565b3480156104d857600080fd5b506103c76104e7366004612e9c565b610e98565b3480156104f857600080fd5b506103c7610507366004612eb9565b611384565b34801561051857600080fd5b506103c7610527366004612eeb565b6113cc565b34801561053857600080fd5b506103fa610547366004612f37565b6113fe565b34801561055857600080fd5b506103c7610567366004612f81565b611414565b34801561057857600080fd5b506103fa610587366004612fda565b60048054911515620100000262ff000019909216919091179055565b3480156105af57600080fd5b506103fa6105be366004612eb9565b611451565b3480156105cf57600080fd5b506103fa6105de366004612fda565b600f805460ff1916911515919091179055565b3480156105fd57600080fd5b506103c761060c366004612f37565b61145f565b34801561061d57600080fd5b506103fa61062c366004612ff7565b61149e565b34801561063d57600080fd5b506103fa61064c366004613032565b600b805460e09290921c600160a01b026001600160c01b03199092166001600160a01b0390931692909217179055565b34801561068857600080fd5b506103fa610697366004612ff7565b6114f9565b3480156106a857600080fd5b506000546106bc906001600160a01b031681565b6040516001600160a01b0390911681526020016103d1565b3480156106e057600080fd5b5061045c6106ef366004613078565b61151c565b34801561070057600080fd5b5061045c61070f36600461309a565b6115f2565b34801561072057600080fd5b5061045c61072f366004612db4565b61162c565b34801561074057600080fd5b506103fa61074f366004612fda565b6004805491151563010000000263ff00000019909216919091179055565b34801561077957600080fd5b506103c76107883660046130c5565b611666565b34801561079957600080fd5b506103c76107a8366004612ff7565b611677565b3480156107b957600080fd5b506103fa6107c8366004612eb9565b6116b5565b3480156107d957600080fd5b506103c76107e8366004612dcd565b6116ef565b3480156107f957600080fd5b506103c7611761565b34801561080e57600080fd5b506103c761081d366004613108565b6117d3565b34801561082e57600080fd5b5061084261083d366004613142565b6117e3565b604080519283526020830191909152016103d1565b34801561086357600080fd5b506103fa610872366004613032565b600a805460e09290921c600160a01b026001600160c01b03199092166001600160a01b0390931692909217179055565b3480156108ae57600080fd5b506103fa6108bd366004613176565b61186c565b3480156108ce57600080fd5b506103c76108dd3660046131f6565b611931565b3480156108ee57600080fd5b506103fa6108fd366004613251565b61194e565b34801561090e57600080fd5b506103c761091d366004612eb9565b61196b565b34801561092e57600080fd5b506103fa61093d366004612fda565b6004805460ff1916911515919091179055565b34801561095c57600080fd5b506103c761096b366004612eeb565b6119a5565b34801561097c57600080fd5b506103c761098b366004613176565b6119c7565b34801561099c57600080fd5b5061045c6109ab366004613142565b611aa3565b3480156109bc57600080fd5b5061045c6109cb366004613108565b611b0e565b3480156109dc57600080fd5b506103c76109eb366004612eb9565b611c34565b3480156109fc57600080fd5b5061045c610a0b366004612dcd565b611c72565b348015610a1c57600080fd5b506103c7610a2b366004612db4565b611cae565b348015610a3c57600080fd5b5061045c610a4b36600461309a565b611ce8565b348015610a5c57600080fd5b506103c7610a6b36600461309a565b611cf9565b348015610a7c57600080fd5b506103fa610a8b36600461327d565b611d71565b348015610a9c57600080fd5b506103c7610aab366004612db4565b6120ca565b348015610abc57600080fd5b506103c7610acb366004613176565b612143565b6103fa610ade366004612db4565b612200565b348015610aef57600080fd5b506103fa610afe3660046132c0565b612246565b348015610b0f57600080fd5b506103fa610b1e3660046130c5565b6122af565b348015610b2f57600080fd5b50610842610b3e366004613078565b6122d4565b348015610b4f57600080fd5b506103fa610b5e366004612db4565b600555565b348015610b6f57600080fd5b506103fa610b7e366004613319565b61231c565b348015610b8f57600080fd5b506103c7610b9e3660046130c5565b612327565b348015610baf57600080fd5b506103c7610bbe366004613108565b612338565b348015610bcf57600080fd5b5061045c610bde366004612db4565b61235c565b348015610bef57600080fd5b506103fa610bfe366004612fda565b600480549115156101000261ff0019909216919091179055565b6000610c2a86868686600080886119c7565b9695505050505050565b600680546001600160a01b0319166001600160a01b0385161790556007610c5c8284836133d4565b50505050565b600880546001600160a01b0319166001600160a01b0385161790556009610c5c8284836133d4565b604080516060810182526001546001600160a01b03908116825260025416602082015260035491810191909152610cc69087878787878761186c565b6040805160608082018352600180546001600160a01b0390811684526002541660208085019190915260035484860152919092206000908152600c82528381208782528252929092208351815460ff191690151517815591830151839291820190610d319082613493565b505050505050505050565b604080516060810182526001546001600160a01b03908116825260025416602082015260035491810191909152600090610d7690836115f2565b92915050565b6000610d8b8484846000611384565b90505b9392505050565b604080516060810182526001546001600160a01b03908116825260025416602082015260035491810191909152600090610d8b90858585612338565b600054604051631509611960e31b81526001600160a01b039091169063a84b08c8908490610e0d908c908c908c908c908c908c90600401613579565b6000604051808303818588803b158015610e2657600080fd5b505af1158015610e3a573d6000803e3d6000fd5b505050505080600c6000610e4f8b6060902090565b8152602080820192909252604090810160009081208782528352208251815460ff1916901515178155908201516001820190610e8b9082613493565b5050505050505050505050565b60006001600d82610eb8610eb1368790038701876135b0565b6060902090565b815260208082019290925260409081016000908120606087013582529092529020805460ff1916911515919091179055600b546001600160a01b031615801590610f00575060015b1561101a57600b546040516000916001600160a01b03811691600160a01b90910460e01b90610f33908690602401613604565b60408051601f198184030181529181526020820180516001600160e01b03166001600160e01b0319909416939093179092529051610f719190613687565b6000604051808303816000865af19150503d8060008114610fae576040519150601f19603f3d011682016040523d82523d6000602084013e610fb3565b606091505b50509050806110185760405162461bcd60e51b815260206004820152602660248201527f6d616b657245786563757465206578656375746543616c6c6261636b206d75736044820152657420776f726b60d01b60648201526084015b60405180910390fd5b505b600454610100900460ff161561106b5760405162461bcd60e51b81526020600482015260166024820152751d195cdd13585ad95c8bdcda1bdd5b1914995d995c9d60521b604482015260640161100f565b60045462010000900460ff168015611087575060008260c00135115b156110e05760405162461bcd60e51b8152602060048201526024808201527f746573744d616b65722f73686f756c645265766572744f6e4e6f6e5a65726f476044820152636976657360e01b606482015260840161100f565b6000600c816110f7610eb1368790038701876135b0565b8152602080820192909252604090810160009081206060870135825283528190208151808301909252805460ff161515825260018101805492939192918401916111409061335a565b80601f016020809104026020016040519081016040528092919081815260200182805461116c9061335a565b80156111b95780601f1061118e576101008083540402835291602001916111b9565b820191906000526020600020905b81548152906001019060200180831161119c57829003601f168201915b50505050508152505090508060000151156111ec57806020015160405162461bcd60e51b815260040161100f91906136a3565b60045460ff161561121c5761121a61120760208501856136d6565b600080546001600160a01b0316906123cc565b505b6006546001600160a01b03161580159061124457506000600780546112409061335a565b9050115b15611309576006546040516000916001600160a01b031690611268906007906136f3565b6000604051808303816000865af19150503d80600081146112a5576040519150601f19603f3d011682016040523d82523d6000602084013e6112aa565b606091505b50509050806113075760405162461bcd60e51b8152602060048201526024808201527f6d616b65724578656375746520747261646543616c6c6261636b206d75737420604482015263776f726b60e01b606482015260840161100f565b505b7f01e0a6abf538c4021d8166ef0ecea1fc4a0923ae1b3f01f7d50ca8e836f316943361133860208601866136d6565b61134860408701602088016136d6565b6040805161136e949392918901359060608a01359060a08b01359060c08c013590613769565b60405180910390a18060200151610d8e906137aa565b604080516060810182526001546001600160a01b039081168252600254166020820152600354918101919091526000906113c19086868686612327565b90505b949350505050565b60408051808201909152600080825260606020830152906113f288888888888887612143565b98975050505050505050565b61140d85858585600086610c8a565b5050505050565b604080516060810182526001546001600160a01b039081168252600254166020820152600354918101919091526000906113c19086868686610c18565b610c5c84848460008561149e565b604080516060810182526001546001600160a01b03908116825260025416602082015260035491810191909152600090610c2a908787878588886119c7565b604080518082019091526000815260606020820152604080516060810182526001546001600160a01b039081168252600254166020820152600354918101919091526114f1908787878787600088610dd1565b505050505050565b6040805180820190915260008152606060208201526114f1868686868686610c8a565b60008054604051630129e86d60e21b81526001546001600160a01b0390811660048301526002548116602483015260035460448301526064820186905283926115b6929116906304a7a1b4906084015b602060405180830381865afa158015611589573d6000803e3d6000fd5b505050506040513d601f19601f820116820180604052508101906115ad91906137ce565b60401b60eb1d90565b604080516060810182526001546001600160a01b039081168252600254166020820152600354918101919091529091506113c490858386611b0e565b6000600e6000611603856060902090565b81526020808201929092526040908101600090812085825290925290205460ff16905092915050565b604080516060810182526001546001600160a01b03908116825260025416602082015260035491810191909152600090610d769083611ce8565b6000610c2a868686866000876119a5565b604080516060810182526001546001600160a01b03908116825260025416602082015260035491810191909152600090610c2a9087878787876119a5565b604080516060810182526001546001600160a01b03908116825260025416602082015260035491810191909152610c5c90858585856122af565b60408051606081018252600180546001600160a01b03908116835260025416602080840191909152600354838501528351808501855291825283518085019094526008845267736f6d654461746160c01b84820152810192909252600091610d8b919086908690869086908190612143565b600080546040516370a0823160e01b81523060048201526001600160a01b03909116906370a0823190602401602060405180830381865afa1580156117aa573d6000803e3d6000fd5b505050506040513d601f19601f820116820180604052508101906117ce91906137ce565b905090565b60006113c1858585856000612327565b60008054604051630510398160e21b815282916001600160a01b031690631440e6049061181b908890889088906001906004016137e7565b6080604051808303816000875af115801561183a573d6000803e3d6000fd5b505050506040513d601f19601f8201168201806040525081019061185e9190613812565b509197909650945050505050565b6000805460405163129d19a760e01b81526001600160a01b039091169163129d19a79185916118a7918c918c918c918c918c90600401613579565b6000604051808303818588803b1580156118c057600080fd5b505af11580156118d4573d6000803e3d6000fd5b505050505080600c60006118e98a6060902090565b8152602080820192909252604090810160009081208782528352208251815460ff19169015151781559082015160018201906119259082613493565b50505050505050505050565b600061194387878787600088886119c7565b979650505050505050565b6000546119669083906001600160a01b0316836123cc565b505050565b604080516060810182526001546001600160a01b039081168252600254166020820152600354918101919091526000906113c19086868685875b60408051808201909152600080825260606020830152906113f2888888888888875b60008054604051632c9a204f60e21b815282916001600160a01b03169063b268813c908690611a02908d908d908d908d908d90600401613848565b60206040518083038185885af1158015611a20573d6000803e3d6000fd5b50505050506040513d601f19601f82011682018060405250810190611a4591906137ce565b905082600c6000611a578c6060902090565b8152602080820192909252604090810160009081208582528352208251815460ff1916901515178155908201516001820190611a939082613493565b50919a9950505050505050505050565b60008054604051630129e86d60e21b81526001546001600160a01b039081166004830152600254811660248301526003546044830152606482018690528392611af7929116906304a7a1b49060840161156c565b9050611b0585858386611b0e565b95945050505050565b604080516001808252818301909252600091829190816020015b611b536040518060800160405280600081526020016000815260200160008152602001600081525090565b815260200190600190039081611b28579050509050604051806080016040528086815260200185815260200165ffffffffffff801681526020018481525081600081518110611ba457611ba4613878565b60209081029190910101526000805460405163194086eb60e11b81526001600160a01b03909116906332810dd690611be4908a908690309060040161388e565b60408051808303816000875af1158015611c02573d6000803e3d6000fd5b505050506040513d601f19601f82011682018060405250810190611c269190613911565b501515979650505050505050565b604080516060810182526001546001600160a01b039081168252600254166020820152600354918101919091526000906113c19086868686866119a5565b604080516060810182526001546001600160a01b03908116825260025416602082015260035491810191909152600090610d8b90858585611b0e565b604080516060810182526001546001600160a01b03908116825260025416602082015260035491810191909152600090610d769083611cf9565b6000600d6000611603856060902090565b60008054604051630dcf4b9760e31b81526001600160a01b0390911690636e7a5cb890611d2e90869086908690600401613935565b6020604051808303816000875af1158015611d4d573d6000803e3d6000fd5b505050506040513d601f19601f82011682018060405250810190610d8e91906137ce565b6001600e6000611d89610eb1368790038701876135b0565b815260208082019290925260409081016000908120606087013582529092529020805460ff1916911515919091179055600f5460ff1615611dfb5760405162461bcd60e51b815260206004820152600c60248201526b1c1bdcdd1a1bdbdad1985a5b60a21b604482015260640161100f565b600a546001600160a01b031615801590611e13575060015b15611f2a57600a546040516000916001600160a01b03811691600160a01b90910460e01b90611e46908690602401613604565b60408051601f198184030181529181526020820180516001600160e01b03166001600160e01b0319909416939093179092529051611e849190613687565b6000604051808303816000865af19150503d8060008114611ec1576040519150601f19603f3d011682016040523d82523d6000602084013e611ec6565b606091505b5050905080611f285760405162461bcd60e51b815260206004820152602860248201527f6d616b6572506f7374686f6f6b20706f7374686f6f6b43616c6c6261636b206d60448201526775737420776f726b60c01b606482015260840161100f565b505b6008546001600160a01b031615801590611f525750600060098054611f4e9061335a565b9050115b15612021576008546040516000916001600160a01b031690611f76906009906136f3565b6000604051808303816000865af19150503d8060008114611fb3576040519150601f19603f3d011682016040523d82523d6000602084013e611fb8565b606091505b505090508061201f5760405162461bcd60e51b815260206004820152602d60248201527f6d616b6572506f7374686f6f6b20706f7374686f6f6b4e6f41726743616c6c6260448201526c61636b206d75737420776f726b60981b606482015260840161100f565b505b6004546301000000900460ff16156120c6576000546001600160a01b031663129d19a78361205260808201356123d9565b6080860135602c1c60016001607f1b031660e087013560481c62ffffff16600088606001356040518763ffffffff1660e01b815260040161209896959493929190613959565b600060405180830381600087803b1580156120b257600080fd5b505af11580156114f1573d6000803e3d6000fd5b5050565b60008054604051630dcf4b9760e31b81526001600160a01b0390911690636e7a5cb8906121009060019086908290600401613968565b6020604051808303816000875af115801561211f573d6000803e3d6000fd5b505050506040513d601f19601f82011682018060405250810190610d7691906137ce565b60008054604051637cac815560e11b815282916001600160a01b03169063f95902aa90869061217e908d908d908d908d908d90600401613848565b60206040518083038185885af115801561219c573d6000803e3d6000fd5b50505050506040513d601f19601f820116820180604052508101906121c191906137ce565b60408051606080820183526001546001600160a01b03908116835260025416602083015260035492820192909252209091508390600c90600090611a57565b600054604051630460488160e31b81523060048201526001600160a01b039091169063230244089083906024016000604051808303818588803b1580156120b257600080fd5b7f01e0a6abf538c4021d8166ef0ecea1fc4a0923ae1b3f01f7d50ca8e836f316948561227560208701876136d6565b61228560408801602089016136d6565b87604001358787876040516122a09796959493929190613769565b60405180910390a15050505050565b6040805180820190915260008152606060208201526114f1868686868660008761186c565b604080516060810182526001546001600160a01b0390811682526002541660208201526003549181019190915260009081906123119085856117e3565b915091509250929050565b610c5c8383836123ff565b6000610c2a868686868660006113cc565b6040805180820190915260008082526060602083015290610c2a8686868685610c18565b60008054604051632e1a7d4d60e01b8152600481018490526001600160a01b0390911690632e1a7d4d906024016020604051808303816000875af11580156123a8573d6000803e3d6000fd5b505050506040513d601f19601f82011682018060405250810190610d769190613995565b6000610d8b8484846124a2565b6000610d76602c83901c60016001607f1b03166123f98460401b60eb1d90565b9061257e565b60008160000361241157506001610d8e565b306001600160a01b03841603612497576040516370a0823160e01b81526001600160a01b0384811660048301528391908616906370a0823190602401602060405180830381865afa15801561246a573d6000803e3d6000fd5b505050506040513d601f19601f8201168201806040525081019061248e91906137ce565b10159050610d8e565b610d8b8484846125aa565b6040516001600160a01b03838116602483015260448201839052600091829182919087169063095ea7b360e01b906064015b60408051601f198184030181529181526020820180516001600160e01b03166001600160e01b03199094169390931790925290516125129190613687565b6000604051808303816000865af19150503d806000811461254f576040519150601f19603f3d011682016040523d82523d6000602084013e612554565b606091505b5091509150818015610c2a575080511580610c2a575080806020019051810190610c2a9190613995565b600080600061258c856125e0565b91509150611b05848302826001811b600019018216151591901c0190565b6040516001600160a01b03838116602483015260448201839052600091829182919087169063a9059cbb60e01b906064016124d4565b6000806125ec83612652565b909250905060eb83901b60007ed89e8c075c4155dd3213326cbbcf86fd1f63f5c205dd2ad2cf44f9349b39e180830782139083050390607e19828501019081131561263a5793841c93612644565b8060000385901b94505b81607f039350505050915091565b6000806000808412612664578361266d565b61266d846139c8565b9050620d89e88111156126c25760405162461bcd60e51b815260206004820152601760248201527f6d67762f6162735469636b2f6f75744f66426f756e6473000000000000000000604482015260640161100f565b600060018216156126e5576ffff97272373d413259a46990580e213993506126ed565b600160801b93505b6002821615612717576080612712856ffff2e50f5f656932ef12357cf3c7fdcb6139e4565b901c93505b600482161561274157608061273c856fffe5caca7e10e4e61c3624eaa0941ccf6139e4565b901c93505b600882161561276b576080612766856fffcb9843d60f6159c9db58835c9266436139e4565b901c93505b6010821615612795576080612790856fff973b41fa98c081472e6896dfb254bf6139e4565b901c93505b60208216156127bf5760806127ba856fff2ea16466c96a3843ec78b326b528606139e4565b901c93505b60408216156127e95760806127e4856ffe5dee046a99a2a811c461f1969c30526139e4565b901c93505b608082161561281357608061280e856ffcbe86c7900a88aedcffc83b479aa3a36139e4565b901c93505b61010082161561283e576080612839856ff987a7253ac413176f2b074cf7815e536139e4565b901c93505b610200821615612869576080612864856ff3392b0822b70005940c7a398e4b70f26139e4565b901c93505b61040082161561289457608061288f856fe7159475a2c29b7443b29c7fa6e889d86139e4565b901c93505b6108008216156128bf5760806128ba856fd097f3bdfd2022b8845ad8f792aa58256139e4565b901c93505b6110008216156128ea5760806128e5856fa9f746462d870fdf8a65dc1f90e061e46139e4565b901c93505b612000821615612922576080612910856fe1b0d342ada5437121767bec575e65ed6139e4565b901c935061291f6001826139fb565b90505b61400082161561295a576080612948856fc6f84d7e5f423f66048c541550bf3e966139e4565b901c93506129576002826139fb565b90505b618000821615612992576080612980856f9aa508b5b7a84e1c677de54f3e99bc8f6139e4565b901c935061298f6004826139fb565b90505b620100008216156129cb5760806129b9856fbad5f1bdb70232cd33865244bdcc089c6139e4565b901c93506129c86009826139fb565b90505b62020000821615612a045760806129f2856f885b9613d7e87aa498106fb7fa5edd376139e4565b901c9350612a016012826139fb565b90505b62040000821615612a3d576080612a2b856f9142e0723efb884889d1f447715afacd6139e4565b901c9350612a3a6025826139fb565b90505b62080000821615612a76576080612a64856fa4d9a773d61316918f140bd96e8e68146139e4565b901c9350612a73604b826139fb565b90505b6000851315612a9757600184856000030401935080612a94906139c8565b90505b612aa28160806139fb565b92505050915091565b634e487b7160e01b600052604160045260246000fd5b604080519081016001600160401b0381118282101715612ae357612ae3612aab565b60405290565b604051601f8201601f191681016001600160401b0381118282101715612b1157612b11612aab565b604052919050565b6001600160a01b0381168114612b2e57600080fd5b50565b600060608284031215612b4357600080fd5b604051606081018181106001600160401b0382111715612b6557612b65612aab565b6040529050808235612b7681612b19565b81526020830135612b8681612b19565b6020820152604092830135920191909152919050565b8015158114612b2e57600080fd5b600060408284031215612bbc57600080fd5b612bc4612ac1565b90508135612bd181612b9c565b81526020828101356001600160401b0380821115612bee57600080fd5b818501915085601f830112612c0257600080fd5b813581811115612c1457612c14612aab565b612c26601f8201601f19168501612ae9565b91508082528684828501011115612c3c57600080fd5b80848401858401376000908201840152918301919091525092915050565b600080600080600060e08688031215612c7257600080fd5b612c7c8787612b31565b9450606086013593506080860135925060a0860135915060c08601356001600160401b03811115612cac57600080fd5b612cb888828901612baa565b9150509295509295909350565b600080600060408486031215612cda57600080fd5b8335612ce581612b19565b925060208401356001600160401b0380821115612d0157600080fd5b818601915086601f830112612d1557600080fd5b813581811115612d2457600080fd5b876020828501011115612d3657600080fd5b6020830194508093505050509250925092565b60008060008060008060c08789031215612d6257600080fd5b863595506020870135945060408701359350606087013592506080870135915060a08701356001600160401b03811115612d9b57600080fd5b612da789828a01612baa565b9150509295509295509295565b600060208284031215612dc657600080fd5b5035919050565b600080600060608486031215612de257600080fd5b505081359360208301359350604090920135919050565b600080600080600080600080610140898b031215612e1657600080fd5b612e208a8a612b31565b9750606089013596506080890135955060a0890135945060c0890135935060e0890135925061010089013591506101208901356001600160401b03811115612e6757600080fd5b612e738b828c01612baa565b9150509295985092959890939650565b60006101408284031215612e9657600080fd5b50919050565b60006101408284031215612eaf57600080fd5b610d8e8383612e83565b60008060008060808587031215612ecf57600080fd5b5050823594602084013594506040840135936060013592509050565b6000806000806000806101008789031215612f0557600080fd5b612f0f8888612b31565b986060880135985060808801359760a0810135975060c0810135965060e00135945092505050565b600080600080600060a08688031215612f4f57600080fd5b8535945060208601359350604086013592506060860135915060808601356001600160401b03811115612cac57600080fd5b60008060008060808587031215612f9757600080fd5b84359350602085013592506040850135915060608501356001600160401b03811115612fc257600080fd5b612fce87828801612baa565b91505092959194509250565b600060208284031215612fec57600080fd5b8135610d8e81612b9c565b600080600080600060a0868803121561300f57600080fd5b505083359560208501359550604085013594606081013594506080013592509050565b6000806040838503121561304557600080fd5b823561305081612b19565b915060208301356001600160e01b03198116811461306d57600080fd5b809150509250929050565b6000806040838503121561308b57600080fd5b50508035926020909101359150565b600080608083850312156130ad57600080fd5b6130b78484612b31565b946060939093013593505050565b600080600080600060e086880312156130dd57600080fd5b6130e78787612b31565b976060870135975060808701359660a0810135965060c00135945092505050565b60008060008060c0858703121561311e57600080fd5b6131288686612b31565b966060860135965060808601359560a00135945092505050565b600080600060a0848603121561315757600080fd5b6131618585612b31565b95606085013595506080909401359392505050565b6000806000806000806000610120888a03121561319257600080fd5b61319c8989612b31565b9650606088013595506080880135945060a0880135935060c0880135925060e088013591506101008801356001600160401b038111156131db57600080fd5b6131e78a828b01612baa565b91505092959891949750929550565b600080600080600080610100878903121561321057600080fd5b61321a8888612b31565b9550606087013594506080870135935060a0870135925060c0870135915060e08701356001600160401b03811115612d9b57600080fd5b6000806040838503121561326457600080fd5b823561326f81612b19565b946020939093013593505050565b60008082840361018081121561329257600080fd5b61329c8585612e83565b9250604061013f19820112156132b157600080fd5b50610140830190509250929050565b600080600080600085870360e08112156132d957600080fd5b86356132e481612b19565b95506060601f19820112156132f857600080fd5b50939660208601965060808601359560a0810135955060c001359350915050565b60008060006060848603121561332e57600080fd5b833561333981612b19565b9250602084013561334981612b19565b929592945050506040919091013590565b600181811c9082168061336e57607f821691505b602082108103612e9657634e487b7160e01b600052602260045260246000fd5b601f82111561196657600081815260208120601f850160051c810160208610156133b55750805b601f850160051c820191505b818110156114f1578281556001016133c1565b6001600160401b038311156133eb576133eb612aab565b6133ff836133f9835461335a565b8361338e565b6000601f841160018114613433576000851561341b5750838201355b600019600387901b1c1916600186901b17835561140d565b600083815260209020601f19861690835b828110156134645786850135825560209485019460019092019101613444565b50868210156134815760001960f88860031b161c19848701351681555b505060018560011b0183555050505050565b81516001600160401b038111156134ac576134ac612aab565b6134c0816134ba845461335a565b8461338e565b602080601f8311600181146134f557600084156134dd5750858301515b600019600386901b1c1916600185901b1785556114f1565b600085815260208120601f198616915b8281101561352457888601518255948401946001909101908401613505565b50858210156135425787850151600019600388901b60f8161c191681555b5050505050600190811b01905550565b80516001600160a01b03908116835260208083015190911690830152604090810151910152565b61010081016135888289613552565b6060820196909652608081019490945260a084019290925260c083015260e090910152919050565b6000606082840312156135c257600080fd5b610d8e8383612b31565b80356135d781612b19565b6001600160a01b0390811683526020820135906135f382612b19565b166020830152604090810135910152565b610140810161361382846135cc565b606083013560608301526080830135608083015260a083013560a083015260c083013560c083015260e083013560e083015261010080840135818401525061012080840135818401525092915050565b60005b8381101561367e578181015183820152602001613666565b50506000910152565b60008251613699818460208701613663565b9190910192915050565b60208152600082518060208401526136c2816040850160208701613663565b601f01601f19169190910160400192915050565b6000602082840312156136e857600080fd5b8135610d8e81612b19565b60008083546137018161335a565b60018281168015613719576001811461372e5761375d565b60ff198416875282151583028701945061375d565b8760005260208060002060005b858110156137545781548a82015290840190820161373b565b50505082870194505b50929695505050505050565b6001600160a01b03978816815295871660208701529390951660408501526060840191909152608083015260a082019290925260c081019190915260e00190565b80516020808301519190811015612e965760001960209190910360031b1b16919050565b6000602082840312156137e057600080fd5b5051919050565b60c081016137f58287613552565b84606083015283608083015282151560a083015295945050505050565b6000806000806080858703121561382857600080fd5b505082516020840151604085015160609095015191969095509092509050565b60e081016138568288613552565b8560608301528460808301528360a08301528260c08301529695505050505050565b634e487b7160e01b600052603260045260246000fd5b600060a0820161389e8387613552565b606060a08185015281865180845260c0860191506020935083880160005b828110156138f55781518051855286810151878601526040808201519086015285015185850152608090930192908501906001016138bc565b5050506001600160a01b038616608086015292506113c4915050565b6000806040838503121561392457600080fd5b505080516020909101519092909150565b60a081016139438286613552565b8360608301528215156080830152949350505050565b610100810161358882896135cc565b83546001600160a01b03908116825260018501541660208201526002840154604082015260a08101613943565b6000602082840312156139a757600080fd5b8151610d8e81612b9c565b634e487b7160e01b600052601160045260246000fd5b6000600160ff1b82016139dd576139dd6139b2565b5060000390565b8082028115828204841417610d7657610d766139b2565b8082018281126000831280158216821582161715613a1b57613a1b6139b2565b50509291505056fea2646970667358221220a0f1f6c7688261a8198ec6ff4bd97d5580551d3bff3206ae24fd1944f0ac2b6464736f6c63430008140033",
    "linkReferences": {}
  },
  "methodIdentifiers": {
    "approveMgv(address,uint256)": "a3cfe14d",
    "clean((address,address,uint256),uint256,int256,uint256)": "b5e51e5e",
    "clean((address,address,uint256),uint256,uint256)": "b1819c67",
    "clean(uint256,int256,uint256)": "c4780e54",
    "clean(uint256,uint256)": "7604f954",
    "expect(bytes32)": "e67ecda1",
    "logExecute(address,(address,address,uint256),uint256,uint256,uint256)": "d4b7b467",
    "makerExecute(((address,address,uint256),uint256,uint256,uint256,uint256,uint256,uint256,uint256))": "2380fafd",
    "makerExecuteWasCalled((address,address,uint256),uint256)": "c50b482e",
    "makerExecuteWasCalled(uint256)": "79158d6d",
    "makerPosthook(((address,address,uint256),uint256,uint256,uint256,uint256,uint256,uint256,uint256),(bytes32,bytes32))": "c7e1bb44",
    "makerPosthookWasCalled((address,address,uint256),uint256)": "78f2c631",
    "makerPosthookWasCalled(uint256)": "1677ad14",
    "marketOrderByVolume((address,address,uint256),uint256,uint256)": "8eb1edd2",
    "marketOrderByVolume(uint256,uint256)": "da4c4376",
    "mgv()": "6e3b5a2e",
    "mgvBalance()": "8b0af9bb",
    "newFailingOfferByTick(int256,uint256,uint256)": "89fbfa17",
    "newOfferByTick((address,address,uint256),int256,uint256,uint256)": "8c198da2",
    "newOfferByTick((address,address,uint256),int256,uint256,uint256,uint256)": "f95902aa",
    "newOfferByTick(int256,uint256,uint256)": "1eafcbdb",
    "newOfferByTick(int256,uint256,uint256,uint256)": "2754c0c8",
    "newOfferByTickWithFunding((address,address,uint256),int256,uint256,uint256,uint256,uint256)": "3b0830bc",
    "newOfferByTickWithFunding((address,address,uint256),int256,uint256,uint256,uint256,uint256,(bool,string))": "d239ded8",
    "newOfferByVolume((address,address,uint256),uint256,uint256,uint256)": "fa00d999",
    "newOfferByVolume((address,address,uint256),uint256,uint256,uint256,(bool,string))": "03398842",
    "newOfferByVolume(uint256,uint256,uint256)": "210ce513",
    "newOfferByVolume(uint256,uint256,uint256,(bool,string))": "46971b15",
    "newOfferByVolume(uint256,uint256,uint256,uint256)": "b774d279",
    "newOfferByVolumeWithFunding((address,address,uint256),uint256,uint256,uint256,uint256)": "7efcadc5",
    "newOfferByVolumeWithFunding((address,address,uint256),uint256,uint256,uint256,uint256,(bool,string))": "a2595f70",
    "newOfferByVolumeWithFunding((address,address,uint256),uint256,uint256,uint256,uint256,uint256)": "a6e70ae5",
    "newOfferByVolumeWithFunding((address,address,uint256),uint256,uint256,uint256,uint256,uint256,(bool,string))": "aed012ef",
    "newOfferByVolumeWithFunding(uint256,uint256,uint256,uint256)": "a3d86342",
    "newOfferByVolumeWithFunding(uint256,uint256,uint256,uint256,(bool,string))": "5c8a4490",
    "newOfferByVolumeWithFunding(uint256,uint256,uint256,uint256,uint256)": "834c617a",
    "provisionMgv(uint256)": "d3845fea",
    "retractOffer((address,address,uint256),uint256)": "c6a77f9b",
    "retractOffer(uint256)": "c4c6c87d",
    "retractOfferWithDeprovision(uint256)": "cafffca8",
    "setExecuteCallback(address,bytes4)": "638c36d6",
    "setPosthookCallback(address,bytes4)": "98353144",
    "setPosthookNoArgCallback(address,bytes)": "04af4e8b",
    "setShouldFailHook(bool)": "5a4924e8",
    "setTradeCallback(address,bytes)": "041ae880",
    "shouldFail(bool)": "a47395f6",
    "shouldRepost(bool)": "7a943a37",
    "shouldRevert(bool)": "ffae399e",
    "shouldRevertOnNonZeroGives(bool)": "53978534",
    "transferToken(address,address,uint256)": "f5537ede",
    "updateOfferByTick(int256,uint256,uint256,uint256)": "58538500",
    "updateOfferByTick(int256,uint256,uint256,uint256,uint256)": "623bfb45",
    "updateOfferByTickWithFunding((address,address,uint256),int256,uint256,uint256,uint256,uint256,uint256,(bool,string))": "22375e78",
    "updateOfferByVolume((address,address,uint256),uint256,uint256,uint256,uint256)": "d5208679",
    "updateOfferByVolume(uint256,uint256,uint256,uint256)": "8351efb0",
    "updateOfferByVolume(uint256,uint256,uint256,uint256,(bool,string))": "3e4043e7",
    "updateOfferByVolumeWithFunding((address,address,uint256),uint256,uint256,uint256,uint256,uint256,(bool,string))": "a1b8caea",
    "updateOfferByVolumeWithFunding(uint256,uint256,uint256,uint256,uint256)": "66754222",
    "updateOfferByVolumeWithFunding(uint256,uint256,uint256,uint256,uint256,(bool,string))": "0b588d13",
    "withdrawMgv(uint256)": "fc8349f2"
  },
  "id": 65
}