{
  "abi": [
    {
      "inputs": [
        {
          "components": [
            {
              "components": [
                {
                  "internalType": "address",
                  "name": "outbound_tkn",
                  "type": "address"
                },
                {
                  "internalType": "address",
                  "name": "inbound_tkn",
                  "type": "address"
                },
                {
                  "internalType": "uint256",
                  "name": "tickSpacing",
                  "type": "uint256"
                }
              ],
              "internalType": "struct OLKey",
              "name": "olKey",
              "type": "tuple"
            },
            {
              "internalType": "uint256",
              "name": "offerId",
              "type": "uint256"
            },
            {
              "internalType": "Offer",
              "name": "offer",
              "type": "uint256"
            },
            {
              "internalType": "uint256",
              "name": "takerWants",
              "type": "uint256"
            },
            {
              "internalType": "uint256",
              "name": "takerGives",
              "type": "uint256"
            },
            {
              "internalType": "OfferDetail",
              "name": "offerDetail",
              "type": "uint256"
            },
            {
              "internalType": "Global",
              "name": "global",
              "type": "uint256"
            },
            {
              "internalType": "Local",
              "name": "local",
              "type": "uint256"
            }
          ],
          "internalType": "struct MgvLib.SingleOrder",
          "name": "",
          "type": "tuple"
        }
      ],
      "name": "makerExecute",
      "outputs": [
        {
          "internalType": "bytes32",
          "name": "",
          "type": "bytes32"
        }
      ],
      "stateMutability": "nonpayable",
      "type": "function"
    },
    {
      "inputs": [
        {
          "components": [
            {
              "components": [
                {
                  "internalType": "address",
                  "name": "outbound_tkn",
                  "type": "address"
                },
                {
                  "internalType": "address",
                  "name": "inbound_tkn",
                  "type": "address"
                },
                {
                  "internalType": "uint256",
                  "name": "tickSpacing",
                  "type": "uint256"
                }
              ],
              "internalType": "struct OLKey",
              "name": "olKey",
              "type": "tuple"
            },
            {
              "internalType": "uint256",
              "name": "offerId",
              "type": "uint256"
            },
            {
              "internalType": "Offer",
              "name": "offer",
              "type": "uint256"
            },
            {
              "internalType": "uint256",
              "name": "takerWants",
              "type": "uint256"
            },
            {
              "internalType": "uint256",
              "name": "takerGives",
              "type": "uint256"
            },
            {
              "internalType": "OfferDetail",
              "name": "offerDetail",
              "type": "uint256"
            },
            {
              "internalType": "Global",
              "name": "global",
              "type": "uint256"
            },
            {
              "internalType": "Local",
              "name": "local",
              "type": "uint256"
            }
          ],
          "internalType": "struct MgvLib.SingleOrder",
          "name": "",
          "type": "tuple"
        },
        {
          "components": [
            {
              "internalType": "bytes32",
              "name": "makerData",
              "type": "bytes32"
            },
            {
              "internalType": "bytes32",
              "name": "mgvData",
              "type": "bytes32"
            }
          ],
          "internalType": "struct MgvLib.OrderResult",
          "name": "",
          "type": "tuple"
        }
      ],
      "name": "makerPosthook",
      "outputs": [],
      "stateMutability": "nonpayable",
      "type": "function"
    }
  ],
  "bytecode": {
    "object": "0x608060405234801561001057600080fd5b50610119806100206000396000f3fe6080604052348015600f57600080fd5b506004361060325760003560e01c80632380fafd146037578063c7e1bb4414605a575b600080fd5b604860423660046083565b50600090565b60405190815260200160405180910390f35b6069606536600460a4565b5050565b005b60006101408284031215607d57600080fd5b50919050565b60006101408284031215609557600080fd5b609d8383606b565b9392505050565b60008082840361018081121560b857600080fd5b60c08585606b565b9250604061013f198201121560d457600080fd5b5061014083019050925092905056fea26469706673582212202d73513e938dc253f935e120927803c0ddcc3a76650b6499c56b97df9f82161d64736f6c63430008140033",
    "linkReferences": {}
  },
  "methodIdentifiers": {
    "makerExecute(((address,address,uint256),uint256,uint256,uint256,uint256,uint256,uint256,uint256))": "2380fafd",
    "makerPosthook(((address,address,uint256),uint256,uint256,uint256,uint256,uint256,uint256,uint256),(bytes32,bytes32))": "c7e1bb44"
  },
  "id": 65
}