{
  "abi": [
    {
      "inputs": [
        {
          "internalType": "address",
          "name": "addressesProvider",
          "type": "address"
        }
      ],
      "stateMutability": "nonpayable",
      "type": "constructor"
    },
    {
      "inputs": [],
      "name": "ADDRESS_PROVIDER",
      "outputs": [
        {
          "internalType": "contract IPoolAddressesProvider",
          "name": "",
          "type": "address"
        }
      ],
      "stateMutability": "view",
      "type": "function"
    },
    {
      "inputs": [],
      "name": "POOL",
      "outputs": [
        {
          "internalType": "contract IPool",
          "name": "",
          "type": "address"
        }
      ],
      "stateMutability": "view",
      "type": "function"
    },
    {
      "inputs": [
        {
          "internalType": "contract IERC20",
          "name": "asset",
          "type": "address"
        }
      ],
      "name": "checkAsset",
      "outputs": [
        {
          "internalType": "bool",
          "name": "",
          "type": "bool"
        }
      ],
      "stateMutability": "view",
      "type": "function"
    },
    {
      "inputs": [
        {
          "internalType": "contract IERC20",
          "name": "asset",
          "type": "address"
        }
      ],
      "name": "overlying",
      "outputs": [
        {
          "internalType": "contract IERC20",
          "name": "aToken",
          "type": "address"
        }
      ],
      "stateMutability": "view",
      "type": "function"
    }
  ],
  "bytecode": {
    "object": "0x60c060405234801561001057600080fd5b5060405161059738038061059783398101604081905261002f9161011e565b80806001600160a01b031660a0816001600160a01b0316815250506000816001600160a01b031663026b1d5f6040518163ffffffff1660e01b8152600401602060405180830381865afa15801561008a573d6000803e3d6000fd5b505050506040513d601f19601f820116820180604052508101906100ae919061011e565b90506001600160a01b03811661010a5760405162461bcd60e51b815260206004820152601360248201527f4161766556334c656e6465722f3078506f6f6c00000000000000000000000000604482015260640160405180910390fd5b6001600160a01b03166080525061014e9050565b60006020828403121561013057600080fd5b81516001600160a01b038116811461014757600080fd5b9392505050565b60805160a05161041f6101786000396000608601526000818160ad0152610114015261041f6000f3fe608060405234801561001057600080fd5b506004361061004c5760003560e01c80630efc8fd2146100515780631848effa146100815780637535d246146100a8578063d94bff13146100cf575b600080fd5b61006461005f3660046101c3565b6100f2565b6040516001600160a01b0390911681526020015b60405180910390f35b6100647f000000000000000000000000000000000000000000000000000000000000000081565b6100647f000000000000000000000000000000000000000000000000000000000000000081565b6100e26100dd3660046101c3565b61018d565b6040519015158152602001610078565b6040516335ea6a7560e01b81526001600160a01b0382811660048301526000917f0000000000000000000000000000000000000000000000000000000000000000909116906335ea6a75906024016101e060405180830381865afa15801561015e573d6000803e3d6000fd5b505050506040513d601f19601f8201168201806040525081019061018291906102c6565b610100015192915050565b600080610199836100f2565b6001600160a01b031615159392505050565b6001600160a01b03811681146101c057600080fd5b50565b6000602082840312156101d557600080fd5b81356101e0816101ab565b9392505050565b6040516101e0810167ffffffffffffffff8111828210171561021957634e487b7160e01b600052604160045260246000fd5b60405290565b60006020828403121561023157600080fd5b6040516020810181811067ffffffffffffffff8211171561026257634e487b7160e01b600052604160045260246000fd5b6040529151825250919050565b80516fffffffffffffffffffffffffffffffff8116811461028f57600080fd5b919050565b805164ffffffffff8116811461028f57600080fd5b805161ffff8116811461028f57600080fd5b805161028f816101ab565b60006101e082840312156102d957600080fd5b6102e16101e7565b6102eb848461021f565b81526102f96020840161026f565b602082015261030a6040840161026f565b604082015261031b6060840161026f565b606082015261032c6080840161026f565b608082015261033d60a0840161026f565b60a082015261034e60c08401610294565b60c082015261035f60e084016102a9565b60e08201526101006103728185016102bb565b908201526101206103848482016102bb565b908201526101406103968482016102bb565b908201526101606103a88482016102bb565b908201526101806103ba84820161026f565b908201526101a06103cc84820161026f565b908201526101c06103de84820161026f565b90820152939250505056fea2646970667358221220ffc4a90ce88cacf2783ffde3661c909b71167880d0217f5e5793ae4a1fa50ea364736f6c63430008140033",
    "linkReferences": {}
  },
  "methodIdentifiers": {
    "ADDRESS_PROVIDER()": "1848effa",
    "POOL()": "7535d246",
    "checkAsset(address)": "d94bff13",
    "overlying(address)": "0efc8fd2"
  },
  "id": 122
}