{
  "abi": [
    {
      "inputs": [
        {
          "internalType": "address",
          "name": "addressesProvider",
          "type": "address"
        },
        {
          "internalType": "uint256",
          "name": "overhead",
          "type": "uint256"
        }
      ],
      "stateMutability": "nonpayable",
      "type": "constructor"
    },
    {
      "anonymous": false,
      "inputs": [
        {
          "indexed": true,
          "internalType": "contract IERC20",
          "name": "token",
          "type": "address"
        },
        {
          "indexed": true,
          "internalType": "address",
          "name": "maker",
          "type": "address"
        },
        {
          "indexed": true,
          "internalType": "address",
          "name": "reserveId",
          "type": "address"
        },
        {
          "indexed": false,
          "internalType": "bytes32",
          "name": "aaveReason",
          "type": "bytes32"
        }
      ],
      "name": "AaveIncident",
      "type": "event"
    },
    {
      "anonymous": false,
      "inputs": [
        {
          "indexed": true,
          "internalType": "address",
          "name": "maker",
          "type": "address"
        }
      ],
      "name": "MakerBind",
      "type": "event"
    },
    {
      "anonymous": false,
      "inputs": [
        {
          "indexed": true,
          "internalType": "address",
          "name": "maker",
          "type": "address"
        }
      ],
      "name": "MakerUnbind",
      "type": "event"
    },
    {
      "anonymous": false,
      "inputs": [
        {
          "indexed": false,
          "internalType": "address",
          "name": "manager",
          "type": "address"
        }
      ],
      "name": "SetAaveManager",
      "type": "event"
    },
    {
      "anonymous": false,
      "inputs": [
        {
          "indexed": false,
          "internalType": "address",
          "name": "admin",
          "type": "address"
        }
      ],
      "name": "SetAdmin",
      "type": "event"
    },
    {
      "inputs": [],
      "name": "ADDRESS_PROVIDER",
      "outputs": [
        {
          "internalType": "contract IPoolAddressesProvider",
          "name": "",
          "type": "address"
        }
      ],
      "stateMutability": "view",
      "type": "function"
    },
    {
      "inputs": [],
      "name": "OFFSET",
      "outputs": [
        {
          "internalType": "uint256",
          "name": "",
          "type": "uint256"
        }
      ],
      "stateMutability": "view",
      "type": "function"
    },
    {
      "inputs": [],
      "name": "POOL",
      "outputs": [
        {
          "internalType": "contract IPool",
          "name": "",
          "type": "address"
        }
      ],
      "stateMutability": "view",
      "type": "function"
    },
    {
      "inputs": [],
      "name": "ROUTER_GASREQ",
      "outputs": [
        {
          "internalType": "uint256",
          "name": "",
          "type": "uint256"
        }
      ],
      "stateMutability": "view",
      "type": "function"
    },
    {
      "inputs": [],
      "name": "aaveManager",
      "outputs": [
        {
          "internalType": "address",
          "name": "",
          "type": "address"
        }
      ],
      "stateMutability": "view",
      "type": "function"
    },
    {
      "inputs": [
        {
          "internalType": "contract IERC20",
          "name": "token",
          "type": "address"
        }
      ],
      "name": "activate",
      "outputs": [],
      "stateMutability": "nonpayable",
      "type": "function"
    },
    {
      "inputs": [],
      "name": "admin",
      "outputs": [
        {
          "internalType": "address",
          "name": "current",
          "type": "address"
        }
      ],
      "stateMutability": "view",
      "type": "function"
    },
    {
      "inputs": [
        {
          "internalType": "contract IERC20",
          "name": "token",
          "type": "address"
        },
        {
          "internalType": "address",
          "name": "reserveId",
          "type": "address"
        }
      ],
      "name": "balanceOfReserve",
      "outputs": [
        {
          "internalType": "uint256",
          "name": "",
          "type": "uint256"
        }
      ],
      "stateMutability": "view",
      "type": "function"
    },
    {
      "inputs": [
        {
          "internalType": "address",
          "name": "makerContract",
          "type": "address"
        }
      ],
      "name": "bind",
      "outputs": [],
      "stateMutability": "nonpayable",
      "type": "function"
    },
    {
      "inputs": [
        {
          "internalType": "contract IERC20",
          "name": "asset",
          "type": "address"
        }
      ],
      "name": "checkAsset",
      "outputs": [
        {
          "internalType": "bool",
          "name": "",
          "type": "bool"
        }
      ],
      "stateMutability": "view",
      "type": "function"
    },
    {
      "inputs": [
        {
          "internalType": "contract IERC20",
          "name": "token",
          "type": "address"
        },
        {
          "internalType": "address",
          "name": "reserveId",
          "type": "address"
        }
      ],
      "name": "checkList",
      "outputs": [],
      "stateMutability": "view",
      "type": "function"
    },
    {
      "inputs": [
        {
          "internalType": "address[]",
          "name": "assets",
          "type": "address[]"
        }
      ],
      "name": "claimRewards",
      "outputs": [
        {
          "internalType": "address[]",
          "name": "rewardList",
          "type": "address[]"
        },
        {
          "internalType": "uint256[]",
          "name": "claimedAmounts",
          "type": "uint256[]"
        }
      ],
      "stateMutability": "nonpayable",
      "type": "function"
    },
    {
      "inputs": [
        {
          "internalType": "contract IERC20[]",
          "name": "tokens",
          "type": "address[]"
        }
      ],
      "name": "enterMarket",
      "outputs": [],
      "stateMutability": "nonpayable",
      "type": "function"
    },
    {
      "inputs": [
        {
          "internalType": "contract IERC20",
          "name": "token",
          "type": "address"
        }
      ],
      "name": "exitMarket",
      "outputs": [],
      "stateMutability": "nonpayable",
      "type": "function"
    },
    {
      "inputs": [
        {
          "internalType": "contract IERC20[]",
          "name": "tokens",
          "type": "address[]"
        },
        {
          "internalType": "address",
          "name": "reserveId",
          "type": "address"
        }
      ],
      "name": "flush",
      "outputs": [],
      "stateMutability": "nonpayable",
      "type": "function"
    },
    {
      "inputs": [
        {
          "internalType": "contract IERC20",
          "name": "token",
          "type": "address"
        },
        {
          "internalType": "bool",
          "name": "noRevert",
          "type": "bool"
        }
      ],
      "name": "flushBuffer",
      "outputs": [
        {
          "internalType": "bytes32",
          "name": "reason",
          "type": "bytes32"
        }
      ],
      "stateMutability": "nonpayable",
      "type": "function"
    },
    {
      "inputs": [
        {
          "internalType": "address",
          "name": "mkr",
          "type": "address"
        }
      ],
      "name": "isBound",
      "outputs": [
        {
          "internalType": "bool",
          "name": "",
          "type": "bool"
        }
      ],
      "stateMutability": "view",
      "type": "function"
    },
    {
      "inputs": [
        {
          "internalType": "contract IERC20",
          "name": "asset",
          "type": "address"
        }
      ],
      "name": "overlying",
      "outputs": [
        {
          "internalType": "contract IERC20",
          "name": "aToken",
          "type": "address"
        }
      ],
      "stateMutability": "view",
      "type": "function"
    },
    {
      "inputs": [
        {
          "internalType": "contract IERC20",
          "name": "token",
          "type": "address"
        },
        {
          "internalType": "address",
          "name": "reserveId",
          "type": "address"
        },
        {
          "internalType": "uint256",
          "name": "amount",
          "type": "uint256"
        },
        {
          "internalType": "bool",
          "name": "strict",
          "type": "bool"
        }
      ],
      "name": "pull",
      "outputs": [
        {
          "internalType": "uint256",
          "name": "pulled",
          "type": "uint256"
        }
      ],
      "stateMutability": "nonpayable",
      "type": "function"
    },
    {
      "inputs": [
        {
          "internalType": "contract IERC20",
          "name": "token",
          "type": "address"
        },
        {
          "internalType": "address",
          "name": "reserveId",
          "type": "address"
        },
        {
          "internalType": "uint256",
          "name": "amount",
          "type": "uint256"
        }
      ],
      "name": "push",
      "outputs": [
        {
          "internalType": "uint256",
          "name": "pushed",
          "type": "uint256"
        }
      ],
      "stateMutability": "nonpayable",
      "type": "function"
    },
    {
      "inputs": [
        {
          "internalType": "contract IERC20",
          "name": "token0",
          "type": "address"
        },
        {
          "internalType": "uint256",
          "name": "amount0",
          "type": "uint256"
        },
        {
          "internalType": "contract IERC20",
          "name": "token1",
          "type": "address"
        },
        {
          "internalType": "uint256",
          "name": "amount1",
          "type": "uint256"
        },
        {
          "internalType": "address",
          "name": "reserveId",
          "type": "address"
        }
      ],
      "name": "pushAndSupply",
      "outputs": [
        {
          "internalType": "uint256",
          "name": "pushed0",
          "type": "uint256"
        },
        {
          "internalType": "uint256",
          "name": "pushed1",
          "type": "uint256"
        }
      ],
      "stateMutability": "nonpayable",
      "type": "function"
    },
    {
      "inputs": [
        {
          "internalType": "contract IERC20",
          "name": "token",
          "type": "address"
        }
      ],
      "name": "revokeLenderApproval",
      "outputs": [],
      "stateMutability": "nonpayable",
      "type": "function"
    },
    {
      "inputs": [
        {
          "internalType": "contract IERC20",
          "name": "token",
          "type": "address"
        },
        {
          "internalType": "address",
          "name": "reserveId",
          "type": "address"
        }
      ],
      "name": "routerGasreq",
      "outputs": [
        {
          "internalType": "uint256",
          "name": "overhead",
          "type": "uint256"
        }
      ],
      "stateMutability": "view",
      "type": "function"
    },
    {
      "inputs": [
        {
          "internalType": "address",
          "name": "aaveManager_",
          "type": "address"
        }
      ],
      "name": "setAaveManager",
      "outputs": [],
      "stateMutability": "nonpayable",
      "type": "function"
    },
    {
      "inputs": [
        {
          "internalType": "address",
          "name": "admin_",
          "type": "address"
        }
      ],
      "name": "setAdmin",
      "outputs": [],
      "stateMutability": "nonpayable",
      "type": "function"
    },
    {
      "inputs": [
        {
          "internalType": "contract IERC20",
          "name": "token",
          "type": "address"
        },
        {
          "internalType": "address",
          "name": "reserveId",
          "type": "address"
        }
      ],
      "name": "sharesOf",
      "outputs": [
        {
          "internalType": "uint256",
          "name": "shares",
          "type": "uint256"
        }
      ],
      "stateMutability": "view",
      "type": "function"
    },
    {
      "inputs": [
        {
          "internalType": "contract IERC20",
          "name": "token",
          "type": "address"
        }
      ],
      "name": "totalBalance",
      "outputs": [
        {
          "internalType": "uint256",
          "name": "balance",
          "type": "uint256"
        }
      ],
      "stateMutability": "view",
      "type": "function"
    },
    {
      "inputs": [
        {
          "internalType": "contract IERC20",
          "name": "token",
          "type": "address"
        }
      ],
      "name": "totalShares",
      "outputs": [
        {
          "internalType": "uint256",
          "name": "total",
          "type": "uint256"
        }
      ],
      "stateMutability": "view",
      "type": "function"
    },
    {
      "inputs": [],
      "name": "unbind",
      "outputs": [],
      "stateMutability": "nonpayable",
      "type": "function"
    },
    {
      "inputs": [
        {
          "internalType": "address",
          "name": "makerContract",
          "type": "address"
        }
      ],
      "name": "unbind",
      "outputs": [],
      "stateMutability": "nonpayable",
      "type": "function"
    },
    {
      "inputs": [
        {
          "internalType": "contract IERC20",
          "name": "token",
          "type": "address"
        },
        {
          "internalType": "address",
          "name": "reserveId",
          "type": "address"
        },
        {
          "internalType": "uint256",
          "name": "amount",
          "type": "uint256"
        }
      ],
      "name": "withdraw",
      "outputs": [],
      "stateMutability": "nonpayable",
      "type": "function"
    }
  ],
  "bytecode": {
    "object": "0x60e06040523480156200001157600080fd5b5060405162002cf738038062002cf78339810160408190526200003491620002ea565b80338380806001600160a01b031660a0816001600160a01b0316815250506000816001600160a01b031663026b1d5f6040518163ffffffff1660e01b8152600401602060405180830381865afa15801562000093573d6000803e3d6000fd5b505050506040513d601f19601f82011682018060405250810190620000b9919062000319565b90506001600160a01b038116620001175760405162461bcd60e51b815260206004820152601360248201527f4161766556334c656e6465722f3078506f6f6c0000000000000000000000000060448201526064015b60405180910390fd5b6001600160a01b03908116608052831691506200017990505760405162461bcd60e51b815260206004820152601860248201527f416363657373436f6e74726f6c6c65642f307841646d696e000000000000000060448201526064016200010e565b600080546001600160a01b0319166001600160a01b039290921691909117905560c052620001a733620001af565b50506200033e565b6000546001600160a01b0316331480620001d357506002546001600160a01b031633145b620002215760405162461bcd60e51b815260206004820152601860248201527f416363657373436f6e74726f6c6c65642f496e76616c6964000000000000000060448201526064016200010e565b6001600160a01b038116620002795760405162461bcd60e51b815260206004820152601f60248201527f41617665506f6f6c6564526573657276652f3078416176654d616e616765720060448201526064016200010e565b600280546001600160a01b0319166001600160a01b0383169081179091556040519081527fb6ba5fc5ae0a94b812b11dfa751771f5462efbe2bae48a93a63e2669873f6bb69060200160405180910390a150565b80516001600160a01b0381168114620002e557600080fd5b919050565b60008060408385031215620002fe57600080fd5b6200030983620002cd565b9150602083015190509250929050565b6000602082840312156200032c57600080fd5b6200033782620002cd565b9392505050565b60805160a05160c05161294a620003ad60003960008181610311015261071a01526000818161027b01526116cd0152600081816103ac0152818161060c015281816110ce01528181611200015281816112cb01528181611372015281816116300152611b00015261294a6000f3fe608060405234801561001057600080fd5b50600436106101e55760003560e01c80637535d2461161010f578063cf5e7bd3116100a2578063f850a81c11610071578063f850a81c1461049f578063f851a440146104b2578063f9f031df146104c3578063fe380db5146104e457600080fd5b8063cf5e7bd314610453578063d94bff1314610466578063d9caed1214610479578063ede4edd01461048c57600080fd5b8063a01dccd8116100de578063a01dccd814610407578063b6b257421461041a578063bf6b874e14610422578063ce665dd81461044b57600080fd5b80637535d246146103a75780637cc4fc05146103ce57806381bac14f146103e157806394d4d058146103f457600080fd5b80632f37b624116101875780635383dba4116101565780635383dba4146103465780636eacd398146103595780636f9a302f1461036c578063704b6c021461039457600080fd5b80632f37b624146102d6578063333dbb0d146102f95780633871cb3f1461030c57806351ef65931461033357600080fd5b80631848effa116101c35780631848effa146102765780631c5a9d9c1461029d57806326e8eda2146102b05780632876fb4e146102c357600080fd5b806304e02903146101ea5780630a7292f5146101ff5780630efc8fd21461024b575b600080fd5b6101fd6101f8366004611edf565b6104f7565b005b61023861020d366004611efc565b6001600160a01b03918216600090815260046020908152604080832093909416825291909152205490565b6040519081526020015b60405180910390f35b61025e610259366004611edf565b6105ea565b6040516001600160a01b039091168152602001610242565b61025e7f000000000000000000000000000000000000000000000000000000000000000081565b6101fd6102ab366004611edf565b610685565b6102386102be366004611f35565b6106ca565b6102386102d1366004611efc565b610716565b6102e96102e4366004611edf565b610743565b6040519015158152602001610242565b610238610307366004611f84565b610761565b6102387f000000000000000000000000000000000000000000000000000000000000000081565b60025461025e906001600160a01b031681565b610238610354366004611fd7565b6107b7565b610238610367366004611edf565b610866565b61037f61037a366004612005565b61087a565b60408051928352602083019190915201610242565b6101fd6103a2366004611edf565b6109ad565b61025e7f000000000000000000000000000000000000000000000000000000000000000081565b6101fd6103dc3660046120b0565b610a7b565b6101fd6103ef366004611edf565b610ab5565b6101fd610402366004611edf565b610b2e565b6101fd610415366004611efc565b610b68565b6101fd610c8f565b610238610430366004611edf565b6001600160a01b031660009081526003602052604090205490565b610238601381565b6101fd610461366004611edf565b610cbf565b6102e9610474366004611edf565b610cf2565b6101fd610487366004611f35565b610d10565b6101fd61049a366004611edf565b610d94565b6101fd6104ad3660046120f2565b610dc8565b6000546001600160a01b031661025e565b6104d66104d13660046120b0565b610f1d565b604051610242929190612149565b6102386104f2366004611efc565b610f65565b6000546001600160a01b031633148061051a57506002546001600160a01b031633145b61053f5760405162461bcd60e51b8152600401610536906121cd565b60405180910390fd5b6001600160a01b0381166105955760405162461bcd60e51b815260206004820152601f60248201527f41617665506f6f6c6564526573657276652f3078416176654d616e61676572006044820152606401610536565b600280546001600160a01b0319166001600160a01b0383169081179091556040519081527fb6ba5fc5ae0a94b812b11dfa751771f5462efbe2bae48a93a63e2669873f6bb6906020015b60405180910390a150565b6040516335ea6a7560e01b81526001600160a01b0382811660048301526000917f0000000000000000000000000000000000000000000000000000000000000000909116906335ea6a75906024016101e060405180830381865afa158015610656573d6000803e3d6000fd5b505050506040513d601f19601f8201168201806040525081019061067a919061230a565b610100015192915050565b6000546001600160a01b03163314806106a257506106a233610743565b6106be5760405162461bcd60e51b8152600401610536906121cd565b6106c781610f7a565b50565b60006106d533610743565b6106f15760405162461bcd60e51b8152600401610536906121cd565b816000036107015750600061070f565b61070c848484610f86565b90505b9392505050565b60007f00000000000000000000000000000000000000000000000000000000000000005b90505b92915050565b6001600160a01b031660009081526001602052604090205460ff1690565b600061076c33610743565b6107885760405162461bcd60e51b8152600401610536906121cd565b818015610793575082155b156107a0575060006107af565b6107ac85858585610ffd565b90505b949350505050565b600080546001600160a01b03163314806107d557506107d533610743565b6107f15760405162461bcd60e51b8152600401610536906121cd565b6040516370a0823160e01b815230600482015261073a9084906001600160a01b038216906370a0823190602401602060405180830381865afa15801561083b573d6000803e3d6000fd5b505050506040513d601f19601f8201168201806040525081019061085f919061242d565b3085611087565b6000610870611e95565b61070f83826111d3565b60008061088633610743565b6108a25760405162461bcd60e51b8152600401610536906121cd565b85156108b6576108b3878488610f86565b91505b83156108ca576108c7858486610f86565b90505b60006108d78860016107b7565b9050801561093757836001600160a01b0316336001600160a01b0316896001600160a01b03167f10d8f655f7655a590b4e052b7187565b54bca0cd5cd9521f153c3da722d72f4f8460405161092e91815260200190565b60405180910390a45b6109428660016107b7565b905080156109a257836001600160a01b0316336001600160a01b0316876001600160a01b03167f10d8f655f7655a590b4e052b7187565b54bca0cd5cd9521f153c3da722d72f4f8460405161099991815260200190565b60405180910390a45b509550959350505050565b6000546001600160a01b031633146109d75760405162461bcd60e51b8152600401610536906121cd565b6001600160a01b038116610a2d5760405162461bcd60e51b815260206004820152601860248201527f416363657373436f6e74726f6c6c65642f307841646d696e00000000000000006044820152606401610536565b600080546001600160a01b0319166001600160a01b0383169081179091556040519081527f5a272403b402d892977df56625f4164ccaf70ca3863991c43ecfe76a6905b0a1906020016105df565b6002546001600160a01b0316338114610aa65760405162461bcd60e51b8152600401610536906121cd565b610ab083836111f3565b505050565b6000546001600160a01b03163314610adf5760405162461bcd60e51b8152600401610536906121cd565b6001600160a01b0381166000818152600160208190526040808320805460ff1916909217909155517fecac69b9e48a248381b74f2e1cf855cc6afc2f410751325703374c70351035bc9190a250565b6002546001600160a01b0316338114610b595760405162461bcd60e51b8152600401610536906121cd565b610b648260006112c5565b5050565b610b7133610743565b610bbd5760405162461bcd60e51b815260206004820152601f60248201527f526f757465722f63616c6c657249734e6f74426f756e64546f526f75746572006044820152606401610536565b604051636eb1769f60e11b81523360048201523060248201526000906001600160a01b0384169063dd62ed3e90604401602060405180830381865afa158015610c0a573d6000803e3d6000fd5b505050506040513d601f19601f82011682018060405250810190610c2e919061242d565b11610c855760405162461bcd60e51b815260206004820152602160248201527f526f757465722f4e6f74417070726f76656442794d616b6572436f6e747261636044820152601d60fa1b6064820152608401610536565b610b6482826112f0565b610c9833610743565b610cb45760405162461bcd60e51b8152600401610536906121cd565b610cbd33611442565b565b6000546001600160a01b03163314610ce95760405162461bcd60e51b8152600401610536906121cd565b6106c781611442565b600080610cfe836105ea565b6001600160a01b031615159392505050565b610d1933610743565b610d355760405162461bcd60e51b8152600401610536906121cd565b610d3d611e95565b6000198203610d5457610d5184848361148b565b91505b6000610d608583611500565b90506000838211610d7a57610d75828561245c565b610d7d565b60005b9050610d8c868686848761158d565b505050505050565b6002546001600160a01b0316338114610dbf5760405162461bcd60e51b8152600401610536906121cd565b610b648261160a565b610dd133610743565b610ded5760405162461bcd60e51b8152600401610536906121cd565b60005b82811015610f17576000848483818110610e0c57610e0c61246f565b9050602002016020810190610e219190611edf565b6040516370a0823160e01b81523360048201526001600160a01b0391909116906370a0823190602401602060405180830381865afa158015610e67573d6000803e3d6000fd5b505050506040513d601f19601f82011682018060405250810190610e8b919061242d565b90508015610f065780610ec5868685818110610ea957610ea961246f565b9050602002016020810190610ebe9190611edf565b8584610f86565b14610f065760405162461bcd60e51b81526020600482015260116024820152701c9bdd5d195c8bdc1d5cda11985a5b1959607a1b6044820152606401610536565b50610f1081612485565b9050610df0565b50505050565b60025460609081906001600160a01b0316338114610f4d5760405162461bcd60e51b8152600401610536906121cd565b610f58858533611688565b925092505b509250929050565b6000610f6f611e95565b6107af84848361148b565b6106c7816000196112c5565b6000610f90611e95565b610f9c858585846117bf565b610fa885333086611841565b610ff45760405162461bcd60e51b815260206004820152601b60248201527f41617665506f6f6c6564526f757465722f707573684661696c656400000000006044820152606401610536565b50909392505050565b600080600061100a611e95565b60006110168983611500565b905060006110258a8a8561148b565b90508782101561104f576110398a84611910565b9450866110465780611048565b875b935061106c565b86611067578082116110615781611069565b80611069565b875b93505b6110798a8a86888761158d565b509198975050505050505050565b600083600003611099575060006107af565b60405163617ba03760e01b81526001600160a01b038681166004830152602482018690528481166044830152600060648301527f0000000000000000000000000000000000000000000000000000000000000000169063617ba03790608401600060405180830381600087803b15801561111257600080fd5b505af1925050508015611123575060015b6111cb5761112f61249e565b806308c379a00361117f57506111436124ba565b8061114e5750611181565b808361116d5760405162461bcd60e51b81526004016105369190612568565b506111778161259b565b9150506107af565b505b816111b95760405162461bcd60e51b81526020600482015260086024820152673737a932b0b9b7b760c11b6044820152606401610536565b50673737a932b0b9b7b760c11b6107af565b5060006107af565b60006111df8383611910565b6111e98484611500565b61073a91906125c2565b60005b81811015610ab0577f00000000000000000000000000000000000000000000000000000000000000006001600160a01b0316635a3b74b984848481811061123f5761123f61246f565b90506020020160208101906112549190611edf565b6040516001600160e01b031960e084901b1681526001600160a01b03909116600482015260016024820152604401600060405180830381600087803b15801561129c57600080fd5b505af11580156112b0573d6000803e3d6000fd5b50505050806112be90612485565b90506111f6565b610ab0827f0000000000000000000000000000000000000000000000000000000000000000836119d0565b6112f982610cf2565b6113555760405162461bcd60e51b815260206004820152602760248201527f41617665506f6f6c6564526f757465722f746f6b656e4e6f744c656e6461626c604482015266654f6e4161766560c81b6064820152608401610536565b604051636eb1769f60e11b81523060048201526001600160a01b037f0000000000000000000000000000000000000000000000000000000000000000811660248301526000919084169063dd62ed3e90604401602060405180830381865afa1580156113c5573d6000803e3d6000fd5b505050506040513d601f19601f820116820180604052508101906113e9919061242d565b11610b645760405162461bcd60e51b815260206004820152602360248201527f41617665506f6f6c6564526f757465722f6861734e6f74417070726f766564506044820152621bdbdb60ea1b6064820152608401610536565b6001600160a01b038116600081815260016020526040808220805460ff19169055517f30a4a29afb6d28e62264c8b7cd43fe3a5edce91f4b9c8591b23a99b3838686b59190a250565b6001600160a01b03831660009081526003602052604081205480156114f457806114b586856111d3565b6001600160a01b038088166000908152600460209081526040808320938a16835292905220546114e591906125d5565b6114ef91906125ec565b6114f7565b60005b95945050505050565b60008160200151156115145750805161073d565b600160208301526040516370a0823160e01b81523060048201526001600160a01b038416906370a0823190602401602060405180830381865afa15801561155f573d6000803e3d6000fd5b505050506040513d601f19601f82011682018060405250810190611583919061242d565b808352905061073d565b611599858585846119dd565b81156115ac576115aa858330611aca565b505b6115b7853385611b7c565b6116035760405162461bcd60e51b815260206004820152601f60248201527f41617665506f6f6c6564526f757465722f77697468647261774661696c6564006044820152606401610536565b5050505050565b604051635a3b74b960e01b81526001600160a01b038281166004830152600060248301527f00000000000000000000000000000000000000000000000000000000000000001690635a3b74b990604401600060405180830381600087803b15801561167457600080fd5b505af1158015611603573d6000803e3d6000fd5b6040516321f8a72160e01b81527f703c2c8634bed68d98c029c18f310e7f7ec0e5d6342c590190b3cb8b3ba54532600482015260609081906000906001600160a01b037f000000000000000000000000000000000000000000000000000000000000000016906321f8a72190602401602060405180830381865afa158015611714573d6000803e3d6000fd5b505050506040513d601f19601f82011682018060405250810190611738919061260e565b60405163bb492bf560e01b81529091506001600160a01b0382169063bb492bf59061176b9089908990899060040161262b565b6000604051808303816000875af115801561178a573d6000803e3d6000fd5b505050506040513d6000823e601f3d908101601f191682016040526117b29190810190612723565b9097909650945050505050565b60006117cc858484611c1f565b6001600160a01b0380871660009081526004602090815260408083209389168352929052908120805492935083929091906118089084906125c2565b90915550506001600160a01b038516600090815260036020526040812080548392906118359084906125c2565b90915550505050505050565b600081600003611853575060016107af565b826001600160a01b0316846001600160a01b0316036118e2576040516370a0823160e01b81526001600160a01b0385811660048301528391908716906370a0823190602401602060405180830381865afa1580156118b5573d6000803e3d6000fd5b505050506040513d601f19601f820116820180604052508101906118d9919061242d565b101590506107af565b306001600160a01b03851603611904576118fd858484611c5e565b90506107af565b6107ac85858585611d44565b60008160600151156119275750604081015161073d565b60016060830152600061193a8484611e21565b90506001600160a01b03811661195657600060408401526119c4565b6040516370a0823160e01b81523060048201526001600160a01b038216906370a0823190602401602060405180830381865afa15801561199a573d6000803e3d6000fd5b505050506040513d601f19601f820116820180604052508101906119be919061242d565b60408401525b5050604081015161073d565b600061070c848484611e5f565b60006119ea858484611c1f565b6001600160a01b0380871660009081526004602090815260408083209389168352929052205490915080821115611a6e5760405162461bcd60e51b815260206004820152602260248201527f41617665506f6f6c6564526f757465722f696e73756666696369656e7446756e604482015261647360f01b6064820152608401610536565b611a78828261245c565b6001600160a01b038088166000818152600460209081526040808320948b16835293815283822094909455908152600390925281208054849290611abd90849061245c565b9091555050505050505050565b60008215611b7257604051631a4ca37b60e21b81526001600160a01b0385811660048301526024820185905283811660448301527f000000000000000000000000000000000000000000000000000000000000000016906369328dec906064016020604051808303816000875af1158015611b49573d6000803e3d6000fd5b505050506040513d601f19601f82011682018060405250810190611b6d919061242d565b61070c565b6000949350505050565b600081600003611b8e5750600161070f565b306001600160a01b03841603611c14576040516370a0823160e01b81526001600160a01b0384811660048301528391908616906370a0823190602401602060405180830381865afa158015611be7573d6000803e3d6000fd5b505050506040513d601f19601f82011682018060405250810190611c0b919061242d565b1015905061070f565b61070c848484611c5e565b6001600160a01b0383166000908152600360205260408120548015611c5257611c4885846111d3565b6114e585836125d5565b6114f76013600a6128cf565b6040516001600160a01b03838116602483015260448201839052600091829182919087169063a9059cbb60e01b906064015b60408051601f198184030181529181526020820180516001600160e01b03166001600160e01b0319909416939093179092529051611cce91906128db565b6000604051808303816000865af19150503d8060008114611d0b576040519150601f19603f3d011682016040523d82523d6000602084013e611d10565b606091505b5091509150818015611d3a575080511580611d3a575080806020019051810190611d3a91906128f7565b9695505050505050565b604080516001600160a01b0385811660248301528481166044830152606480830185905283518084039091018152608490920183526020820180516001600160e01b03166323b872dd60e01b17905291516000928392839291891691611daa91906128db565b6000604051808303816000865af19150503d8060008114611de7576040519150601f19603f3d011682016040523d82523d6000602084013e611dec565b606091505b5091509150818015611e16575080511580611e16575080806020019051810190611e1691906128f7565b979650505050505050565b60008160a0015115611e385750608081015161073d565b600160a0830152611e48836105ea565b6001600160a01b031660808301819052905061073d565b6040516001600160a01b03838116602483015260448201839052600091829182919087169063095ea7b360e01b90606401611c90565b6040805160c081018252600080825260208201819052918101829052606081018290526080810182905260a081019190915290565b6001600160a01b03811681146106c757600080fd5b600060208284031215611ef157600080fd5b813561070f81611eca565b60008060408385031215611f0f57600080fd5b8235611f1a81611eca565b91506020830135611f2a81611eca565b809150509250929050565b600080600060608486031215611f4a57600080fd5b8335611f5581611eca565b92506020840135611f6581611eca565b929592945050506040919091013590565b80151581146106c757600080fd5b60008060008060808587031215611f9a57600080fd5b8435611fa581611eca565b93506020850135611fb581611eca565b9250604085013591506060850135611fcc81611f76565b939692955090935050565b60008060408385031215611fea57600080fd5b8235611ff581611eca565b91506020830135611f2a81611f76565b600080600080600060a0868803121561201d57600080fd5b853561202881611eca565b945060208601359350604086013561203f81611eca565b925060608601359150608086013561205681611eca565b809150509295509295909350565b60008083601f84011261207657600080fd5b50813567ffffffffffffffff81111561208e57600080fd5b6020830191508360208260051b85010111156120a957600080fd5b9250929050565b600080602083850312156120c357600080fd5b823567ffffffffffffffff8111156120da57600080fd5b6120e685828601612064565b90969095509350505050565b60008060006040848603121561210757600080fd5b833567ffffffffffffffff81111561211e57600080fd5b61212a86828701612064565b909450925050602084013561213e81611eca565b809150509250925092565b604080825283519082018190526000906020906060840190828701845b8281101561218b5781516001600160a01b031684529284019290840190600101612166565b5050508381038285015284518082528583019183019060005b818110156121c0578351835292840192918401916001016121a4565b5090979650505050505050565b60208082526018908201527f416363657373436f6e74726f6c6c65642f496e76616c69640000000000000000604082015260600190565b634e487b7160e01b600052604160045260246000fd5b601f8201601f1916810167ffffffffffffffff8111828210171561224057612240612204565b6040525050565b6040516101e0810167ffffffffffffffff8111828210171561226b5761226b612204565b60405290565b60006020828403121561228357600080fd5b6040516020810181811067ffffffffffffffff821117156122a6576122a6612204565b6040529151825250919050565b80516fffffffffffffffffffffffffffffffff811681146122d357600080fd5b919050565b805164ffffffffff811681146122d357600080fd5b805161ffff811681146122d357600080fd5b80516122d381611eca565b60006101e0828403121561231d57600080fd5b612325612247565b61232f8484612271565b815261233d602084016122b3565b602082015261234e604084016122b3565b604082015261235f606084016122b3565b6060820152612370608084016122b3565b608082015261238160a084016122b3565b60a082015261239260c084016122d8565b60c08201526123a360e084016122ed565b60e08201526101006123b68185016122ff565b908201526101206123c88482016122ff565b908201526101406123da8482016122ff565b908201526101606123ec8482016122ff565b908201526101806123fe8482016122b3565b908201526101a06124108482016122b3565b908201526101c06124228482016122b3565b908201529392505050565b60006020828403121561243f57600080fd5b5051919050565b634e487b7160e01b600052601160045260246000fd5b8181038181111561073d5761073d612446565b634e487b7160e01b600052603260045260246000fd5b60006001820161249757612497612446565b5060010190565b600060033d11156124b75760046000803e5060005160e01c5b90565b600060443d10156124c85790565b6040516003193d81016004833e81513d67ffffffffffffffff81602484011181841117156124f857505050505090565b82850191508151818111156125105750505050505090565b843d870101602082850101111561252a5750505050505090565b6125396020828601018761221a565b509095945050505050565b60005b8381101561255f578181015183820152602001612547565b50506000910152565b6020815260008251806020840152612587816040850160208701612544565b601f01601f19169190910160400192915050565b805160208083015191908110156125bc576000198160200360031b1b821691505b50919050565b8082018082111561073d5761073d612446565b808202811582820484141761073d5761073d612446565b60008261260957634e487b7160e01b600052601260045260246000fd5b500490565b60006020828403121561262057600080fd5b815161070f81611eca565b6040808252810183905260008460608301825b8681101561266e57823561265181611eca565b6001600160a01b031682526020928301929091019060010161263e565b506001600160a01b03949094166020939093019290925250909392505050565b600067ffffffffffffffff8211156126a8576126a8612204565b5060051b60200190565b600082601f8301126126c357600080fd5b815160206126d08261268e565b6040516126dd828261221a565b83815260059390931b85018201928281019150868411156126fd57600080fd5b8286015b848110156127185780518352918301918301612701565b509695505050505050565b6000806040838503121561273657600080fd5b825167ffffffffffffffff8082111561274e57600080fd5b818501915085601f83011261276257600080fd5b8151602061276f8261268e565b60405161277c828261221a565b83815260059390931b850182019282810191508984111561279c57600080fd5b948201945b838610156127c35785516127b481611eca565b825294820194908201906127a1565b918801519196509093505050808211156127dc57600080fd5b506127e9858286016126b2565b9150509250929050565b600181815b80851115610f5d57816000190482111561281457612814612446565b8085161561282157918102915b93841c93908002906127f8565b60008261283d5750600161073d565b8161284a5750600061073d565b8160018114612860576002811461286a57612886565b600191505061073d565b60ff84111561287b5761287b612446565b50506001821b61073d565b5060208310610133831016604e8410600b84101617156128a9575081810a61073d565b6128b383836127f3565b80600019048211156128c7576128c7612446565b029392505050565b600061073a838361282e565b600082516128ed818460208701612544565b9190910192915050565b60006020828403121561290957600080fd5b815161070f81611f7656fea264697066735822122089774d68c1e273218e80614482aa0c6aef67a296f481109040e5047c6b5a63f864736f6c63430008140033",
    "linkReferences": {}
  },
  "methodIdentifiers": {
    "ADDRESS_PROVIDER()": "1848effa",
    "OFFSET()": "ce665dd8",
    "POOL()": "7535d246",
    "ROUTER_GASREQ()": "3871cb3f",
    "aaveManager()": "51ef6593",
    "activate(address)": "1c5a9d9c",
    "admin()": "f851a440",
    "balanceOfReserve(address,address)": "fe380db5",
    "bind(address)": "81bac14f",
    "checkAsset(address)": "d94bff13",
    "checkList(address,address)": "a01dccd8",
    "claimRewards(address[])": "f9f031df",
    "enterMarket(address[])": "7cc4fc05",
    "exitMarket(address)": "ede4edd0",
    "flush(address[],address)": "f850a81c",
    "flushBuffer(address,bool)": "5383dba4",
    "isBound(address)": "2f37b624",
    "overlying(address)": "0efc8fd2",
    "pull(address,address,uint256,bool)": "333dbb0d",
    "push(address,address,uint256)": "26e8eda2",
    "pushAndSupply(address,uint256,address,uint256,address)": "6f9a302f",
    "revokeLenderApproval(address)": "94d4d058",
    "routerGasreq(address,address)": "2876fb4e",
    "setAaveManager(address)": "04e02903",
    "setAdmin(address)": "704b6c02",
    "sharesOf(address,address)": "0a7292f5",
    "totalBalance(address)": "6eacd398",
    "totalShares(address)": "bf6b874e",
    "unbind()": "b6b25742",
    "unbind(address)": "cf5e7bd3",
    "withdraw(address,address,uint256)": "d9caed12"
  },
  "id": 121
}