{
  "abi": [
    {
      "inputs": [
        {
          "internalType": "address[]",
          "name": "assets",
          "type": "address[]"
        },
        {
          "internalType": "address",
          "name": "to",
          "type": "address"
        }
      ],
      "name": "claimAllRewards",
      "outputs": [
        {
          "internalType": "address[]",
          "name": "rewardsList",
          "type": "address[]"
        },
        {
          "internalType": "uint256[]",
          "name": "claimedAmounts",
          "type": "uint256[]"
        }
      ],
      "stateMutability": "nonpayable",
      "type": "function"
    }
  ],
  "bytecode": {
    "object": "0x608060405234801561001057600080fd5b506101ac806100206000396000f3fe608060405234801561001057600080fd5b506004361061002b5760003560e01c8063bb492bf514610030575b600080fd5b61004961003e366004610060565b606080935093915050565b6040516100579291906100f2565b60405180910390f35b60008060006040848603121561007557600080fd5b833567ffffffffffffffff8082111561008d57600080fd5b818601915086601f8301126100a157600080fd5b8135818111156100b057600080fd5b8760208260051b85010111156100c557600080fd5b602092830195509350508401356001600160a01b03811681146100e757600080fd5b809150509250925092565b604080825283519082018190526000906020906060840190828701845b828110156101345781516001600160a01b03168452928401929084019060010161010f565b5050508381038285015284518082528583019183019060005b818110156101695783518352928401929184019160010161014d565b509097965050505050505056fea26469706673582212202522020fe209340e5b8d89ad10b147c73b2b5a52690b989599319b74e97d22ea64736f6c63430008140033",
    "linkReferences": {}
  },
  "methodIdentifiers": {
    "claimAllRewards(address[],address)": "bb492bf5"
  },
  "id": 94
}