{
  "abi": [
    {
      "inputs": [
        {
          "internalType": "contract IMangrove",
          "name": "mgv",
          "type": "address"
        },
        {
          "internalType": "uint256",
          "name": "kandelGasreq",
          "type": "uint256"
        }
      ],
      "stateMutability": "nonpayable",
      "type": "constructor"
    },
    {
      "anonymous": false,
      "inputs": [
        {
          "indexed": true,
          "internalType": "address",
          "name": "owner",
          "type": "address"
        },
        {
          "indexed": true,
          "internalType": "bytes32",
          "name": "olKeyHash",
          "type": "bytes32"
        },
        {
          "indexed": false,
          "internalType": "address",
          "name": "kandel",
          "type": "address"
        }
      ],
      "name": "NewKandel",
      "type": "event"
    },
    {
      "inputs": [],
      "name": "KANDEL_GASREQ",
      "outputs": [
        {
          "internalType": "uint256",
          "name": "",
          "type": "uint256"
        }
      ],
      "stateMutability": "view",
      "type": "function"
    },
    {
      "inputs": [],
      "name": "MGV",
      "outputs": [
        {
          "internalType": "contract IMangrove",
          "name": "",
          "type": "address"
        }
      ],
      "stateMutability": "view",
      "type": "function"
    },
    {
      "inputs": [
        {
          "components": [
            {
              "internalType": "address",
              "name": "outbound_tkn",
              "type": "address"
            },
            {
              "internalType": "address",
              "name": "inbound_tkn",
              "type": "address"
            },
            {
              "internalType": "uint256",
              "name": "tickSpacing",
              "type": "uint256"
            }
          ],
          "internalType": "struct OLKey",
          "name": "olKeyBaseQuote",
          "type": "tuple"
        },
        {
          "internalType": "bool",
          "name": "liquiditySharing",
          "type": "bool"
        }
      ],
      "name": "sow",
      "outputs": [
        {
          "internalType": "contract GeometricKandel",
          "name": "kandel",
          "type": "address"
        }
      ],
      "stateMutability": "nonpayable",
      "type": "function"
    }
  ],
  "bytecode": {
    "object": "0x60c060405234801561001057600080fd5b50604051615ad0380380615ad083398101604081905261002f91610045565b6001600160a01b0390911660805260a05261007f565b6000806040838503121561005857600080fd5b82516001600160a01b038116811461006f57600080fd5b6020939093015192949293505050565b60805160a051615a126100be600039600081816051015261038c015260008181608c015281816101140152818161018a015261036a0152615a126000f3fe60806040523480156200001157600080fd5b5060043610620000465760003560e01c80633b49aadd146200004b57806399fa5e2d1462000086578063e170fa6a14620000c7575b600080fd5b620000737f000000000000000000000000000000000000000000000000000000000000000081565b6040519081526020015b60405180910390f35b620000ae7f000000000000000000000000000000000000000000000000000000000000000081565b6040516001600160a01b0390911681526020016200007d565b620000ae620000d83660046200045e565b6040805163293ad90960e11b815283516001600160a01b03908116600483015260208501518116602483015291840151604482015260009182917f000000000000000000000000000000000000000000000000000000000000000090911690635275b212906064016040805180830381865afa1580156200015d573d6000803e3d6000fd5b505050506040513d601f19601f8201168201806040525081019062000183919062000503565b91505060007f00000000000000000000000000000000000000000000000000000000000000006001600160a01b0316635275b21262000205876040805160608082018352600080835260208084018290529284015282519081018352838201516001600160a01b03908116825284511691810191909152918101519082015290565b604080516001600160e01b031960e085901b16815282516001600160a01b039081166004830152602084015116602482015291015160448201526064016040805180830381865afa1580156200025f573d6000803e3d6000fd5b505050506040513d601f19601f8201168201806040525081019062000285919062000503565b915050600160ff1b821615158015620002a35750600160ff1b811615155b620002f45760405162461bcd60e51b815260206004820152601b60248201527f4b616e64656c5365656465722f696e6163746976654d61726b65740000000000604482015260640160405180910390fd5b62000300858562000366565b604051633825b60160e11b81523360048201529093506001600160a01b0384169063704b6c0290602401600060405180830381600087803b1580156200034557600080fd5b505af11580156200035a573d6000803e3d6000fd5b50505050505092915050565b60007f0000000000000000000000000000000000000000000000000000000000000000837f00000000000000000000000000000000000000000000000000000000000000006000604051620003bb9062000433565b620003ca949392919062000528565b604051809103906000f080158015620003e7573d6000803e3d6000fd5b50606084209091506040516001600160a01b038316815233907f43922fdf5c9b55f6d73c0b34dcb71a523e01b065c01c259212e85b12ae344a879060200160405180910390a392915050565b61545a806200058383390190565b80356001600160a01b03811681146200045957600080fd5b919050565b60008082840360808112156200047357600080fd5b60608112156200048257600080fd5b506040516060810181811067ffffffffffffffff82111715620004b557634e487b7160e01b600052604160045260246000fd5b604052620004c38462000441565b8152620004d36020850162000441565b602082015260408481013590820152915060608301358015158114620004f857600080fd5b809150509250929050565b600080604083850312156200051757600080fd5b505080516020909101519092909150565b6001600160a01b03858116825260c08201906200056a602084018780516001600160a01b03908116835260208083015190911690830152604090810151910152565b84608084015280841660a0840152509594505050505056fe6101406040523480156200001257600080fd5b506040516200545a3803806200545a833981016040819052620000359162000695565b8383838383838383828483838260008383838233806200009c5760405162461bcd60e51b815260206004820152601860248201527f416363657373436f6e74726f6c6c65642f307841646d696e000000000000000060448201526064015b60405180910390fd5b600080546001600160a01b0319166001600160a01b039290921691909117905562ffffff81168114620001125760405162461bcd60e51b815260206004820152601760248201527f6d67764f666665722f6761737265714f766572666c6f77000000000000000000604482015260640162000093565b6001600160a01b03821660a081905260808290526040519081527f23274a2ea157bc8b802cd1ca98faaaf1e5ed5472079061e406176ba38449d6879060200160405180910390a150506001600160a01b03831615620001765762000176836200026f565b60006001600160a01b038216156200018f578162000191565b305b6001600160a01b03811660c0819052604051919250907f1efc2ac62377bfc2967149995d76b6a9a1ad2809a99afd6106b5ba742698217f90600090a2505086516001600160a01b0390811660e052602088015116610100525050506040840151610120525050606082207fa1824a64387381916c722ef6d39d525cb7c1dcbdfc58fc2dcd8cf57c061fc4e9915060405190815260200160405180910390a15050505050505050506200024b60e0516200031f60201b60201c565b610100516200025a906200031f565b62000265826200046a565b50505050620007b4565b6000546001600160a01b03163314620002cb5760405162461bcd60e51b815260206004820152601860248201527f416363657373436f6e74726f6c6c65642f496e76616c69640000000000000000604482015260640162000093565b600180546001600160a01b0319166001600160a01b0383169081179091556040519081527f6de4326a8b9054d72d9dbab97d27bc4edffadee7d966f5af9cc4eafdaf8e54559060200160405180910390a150565b6000620003346001546001600160a01b031690565b90506200034d8260a0516000196200057760201b60201c565b6200039b5760405162461bcd60e51b815260206004820152601d60248201527f6d67764f666665722f617070726f76654d616e67726f76652f4661696c000000604482015260640162000093565b6001600160a01b038116156200046657620003ba828260001962000577565b620004085760405162461bcd60e51b815260206004820152601a60248201527f6d67764f666665722f617070726f7665526f757465724661696c000000000000604482015260640162000093565b604051630716a76760e21b81526001600160a01b038381166004830152821690631c5a9d9c90602401600060405180830381600087803b1580156200044c57600080fd5b505af115801562000461573d6000803e3d6000fd5b505050505b5050565b6000546001600160a01b03163314620004c65760405162461bcd60e51b815260206004820152601860248201527f416363657373436f6e74726f6c6c65642f496e76616c69640000000000000000604482015260640162000093565b8062ffffff811681146200051d5760405162461bcd60e51b815260206004820152601460248201527f4b616e64656c2f676173726571546f6f48696768000000000000000000000000604482015260640162000093565b6007805462ffffff60201b191664010000000062ffffff8416908102919091179091556040519081527fafef3ad374c0b972e3c793be825735801fa05cc4c67157d98d9a111b4027988d9060200160405180910390a15050565b6000620005868484846200058e565b949350505050565b604080516001600160a01b038481166024830152604480830185905283518084039091018152606490920183526020820180516001600160e01b031663095ea7b360e01b17905291516000928392839291881691620005ee919062000758565b6000604051808303816000865af19150503d80600081146200062d576040519150601f19603f3d011682016040523d82523d6000602084013e62000632565b606091505b5091509150818015620006605750805115806200066057508080602001905181019062000660919062000789565b9695505050505050565b6001600160a01b03811681146200068057600080fd5b50565b805162000690816200066a565b919050565b60008060008084860360c0811215620006ad57600080fd5b8551620006ba816200066a565b94506060601f1982011215620006cf57600080fd5b50604051606081016001600160401b03811182821017156200070157634e487b7160e01b600052604160045260246000fd5b604052602086015162000714816200066a565b8152604086015162000726816200066a565b602082015260608601516040820152608086015190935091506200074d60a0860162000683565b905092959194509250565b6000825160005b818110156200077b57602081860181015185830152016200075f565b506000920191825250919050565b6000602082840312156200079c57600080fd5b81518015158114620007ad57600080fd5b9392505050565b60805160a05160c05160e0516101005161012051614b61620008f96000396000818161037301528181612584015261261601526000818161051b01528181610fba0152818161102f01528181611612015281816120bd0152818161255501526125b80152600081816107aa01528181610edf01528181610f54015281816115e7015281816120e301528181612526015281816125e7015261307f01526000818161081a01528181611ce6015281816122110152612eed0152600081816104e701528181610a2801528181610b57015281816111b10152818161123d015281816113cd0152818161190101528181611ae8015281816122d90152818161274c01528181612891015281816129b001528181612d580152818161319f015281816132a0015261354f01526000818161054f0152818161153d015261156b0152614b616000f3fe60806040526004361061024a5760003560e01c80639c57983911610139578063cfcd2679116100b6578063ea0f394d1161007a578063ea0f394d14610778578063ec342ad014610798578063f851a440146107cc578063f887ea40146107ea578063fbc7d10b14610808578063fcaa7e2e1461083c57600080fd5b8063cfcd267914610671578063cff0ab9614610686578063d2e498fe14610715578063e1f21c6714610735578063e4f248f41461076557600080fd5b8063a2e241af116100fd578063a2e241af146105d1578063ace67902146105f1578063bfc353f914610611578063c0d7865514610631578063c7e1bb441461065157600080fd5b80639c579839146105095780639eb7d4fe1461053d5780639ee8a91c14610571578063a224b5e914610591578063a24f2b2d146105b157600080fd5b80635293840d116101c75780637692c3281161018b5780637692c32814610455578063790532a114610475578063820db1f71461049557806398ed5340146104b557806399fa5e2d146104d557600080fd5b80635293840d146103a85780635570db1d146103c857806361638ed5146103f5578063704b6c02146104155780637144df241461043557600080fd5b80632380fafd1161020e5780632380fafd146102f457806334bd8931146103145780633fce15c91461033457806346ca626b146103615780634f605c5b1461039557600080fd5b806303eb17e2146102565780631450acd214610278578063148b7cea1461029857806314ee02bd146102ab57806318acf82f146102d457600080fd5b3661025157005b600080fd5b34801561026257600080fd5b50610276610271366004613dd3565b61085c565b005b34801561028457600080fd5b50610276610293366004613e48565b6108ab565b6102766102a6366004614036565b6109f6565b3480156102b757600080fd5b506102c160085481565b6040519081526020015b60405180910390f35b3480156102e057600080fd5b506102c16102ef3660046140a8565b610ad5565b34801561030057600080fd5b506102c161030f3660046140d6565b610b53565b34801561032057600080fd5b5061027661032f366004613e48565b610c03565b34801561034057600080fd5b5061035461034f3660046140f3565b610ccc565b6040516102cb91906141a3565b34801561036d57600080fd5b506102c17f000000000000000000000000000000000000000000000000000000000000000081565b6102766103a33660046141dc565b610d9e565b3480156103b457600080fd5b506102766103c3366004613dd3565b610e66565b3480156103d457600080fd5b506103dd600081565b6040516001600160a01b0390911681526020016102cb565b34801561040157600080fd5b5061027661041036600461421f565b610eda565b34801561042157600080fd5b50610276610430366004614256565b611094565b34801561044157600080fd5b50610276610450366004614273565b611169565b34801561046157600080fd5b506102c16104703660046142a3565b611399565b34801561048157600080fd5b506102766104903660046142cd565b61144e565b3480156104a157600080fd5b506102c16104b0366004614322565b61149f565b3480156104c157600080fd5b506102c16104d03660046140a8565b61159a565b3480156104e157600080fd5b506103dd7f000000000000000000000000000000000000000000000000000000000000000081565b34801561051557600080fd5b506103dd7f000000000000000000000000000000000000000000000000000000000000000081565b34801561054957600080fd5b506102c17f000000000000000000000000000000000000000000000000000000000000000081565b34801561057d57600080fd5b5061027661058c366004614350565b6115b8565b34801561059d57600080fd5b506102766105ac366004613e48565b611638565b3480156105bd57600080fd5b506102c16105cc3660046143db565b6116f7565b3480156105dd57600080fd5b506102766105ec36600461421f565b611703565b3480156105fd57600080fd5b5061027661060c366004614418565b61179b565b34801561061d57600080fd5b506102c161062c3660046142a3565b611843565b34801561063d57600080fd5b5061027661064c366004614256565b611887565b34801561065d57600080fd5b5061027661066c36600461444d565b6118ff565b34801561067d57600080fd5b506102c16119d1565b34801561069257600080fd5b506007546106d39063ffffffff811690600160201b810462ffffff1690600160381b81046001600160581b031690600160901b90046001600160701b031684565b6040805163ffffffff909516855262ffffff90931660208501526001600160581b03909116918301919091526001600160701b031660608201526080016102cb565b34801561072157600080fd5b506102c16107303660046140a8565b6119e3565b34801561074157600080fd5b50610755610750366004614484565b611a2a565b60405190151581526020016102cb565b6102766107733660046144c5565b611ab6565b34801561078457600080fd5b506102c16107933660046142a3565b611b91565b3480156107a457600080fd5b506103dd7f000000000000000000000000000000000000000000000000000000000000000081565b3480156107d857600080fd5b506000546001600160a01b03166103dd565b3480156107f657600080fd5b506001546001600160a01b03166103dd565b34801561081457600080fd5b506103dd7f000000000000000000000000000000000000000000000000000000000000000081565b34801561084857600080fd5b50610276610857366004613e48565b611bd5565b60005b818110156108a65761089683838381811061087c5761087c614541565b90506020020160208101906108919190614256565b611c90565b61089f8161456d565b905061085f565b505050565b6000546001600160a01b031633146108de5760405162461bcd60e51b81526004016108d590614586565b60405180910390fd5b80806109245760405162461bcd60e51b81526020600482015260156024820152744b616e64656c2f7374657053697a65546f6f4c6f7760581b60448201526064016108d5565b81816001600160581b031614801561094d5750600754600160901b90046001600160701b031682105b6109925760405162461bcd60e51b8152602060048201526016602482015275096c2dcc8cad85ee6e8cae0a6d2f4caa8dede90d2ced60531b60448201526064016108d5565b6007805471ffffffffffffffffffffff000000000000001916600160381b6001600160581b038416021790556040518281527f0408193baae9f2730f7be76d9be93983ed2dd45af2305c085920b8f00c25bbcd906020015b60405180910390a15050565b6000546001600160a01b03163314610a205760405162461bcd60e51b81526004016108d590614586565b3415610a9b577f00000000000000000000000000000000000000000000000000000000000000006001600160a01b031663b60d4288346040518263ffffffff1660e01b81526004016000604051808303818588803b158015610a8157600080fd5b505af1158015610a95573d6000803e3d6000fd5b50505050505b610aa483611d4d565b610aae8282610eda565b600754610acf90859062ffffff600160201b8204169063ffffffff16611fbd565b50505050565b600080610ae1836120a0565b6040516370a0823160e01b81523060048201529091506001600160a01b038216906370a0823190602401602060405180830381865afa158015610b28573d6000803e3d6000fd5b505050506040513d601f19601f82011682018060405250810190610b4c91906145bd565b9392505050565b60007f0000000000000000000000000000000000000000000000000000000000000000336001600160a01b03821614610b9e5760405162461bcd60e51b81526004016108d590614586565b60009150610bb08360a0013584612108565b15610bfd5760405162461bcd60e51b815260206004820152601860248201527f6d67764f666665722f61626f72742f6765744661696c6564000000000000000060448201526064016108d5565b50919050565b6000546001600160a01b03163314610c2d5760405162461bcd60e51b81526004016108d590614586565b8062ffffff81168114610c795760405162461bcd60e51b8152602060048201526014602482015273096c2dcc8cad85ecec2e6e4cae2a8dede90d2ced60631b60448201526064016108d5565b6007805466ffffff000000001916600160201b62ffffff8416908102919091179091556040519081527fafef3ad374c0b972e3c793be825735801fa05cc4c67157d98d9a111b4027988d906020016109ea565b60408051808201825260608082526020820152905163fbbd4a6560e01b8152600481018b9052602481018a905260448101899052606481018890526084810187905260a4810186905260c4810185905260e48101849052610104810183905273__$c9b0e4557995336ec140d025d87b634e02$__9063fbbd4a659061012401600060405180830381865af4158015610d68573d6000803e3d6000fd5b505050506040513d6000823e601f3d908101601f19168201604052610d909190810190614669565b9a9950505050505050505050565b6000546001600160a01b03163314610dc85760405162461bcd60e51b81526004016108d590614586565b6040805160808101825260075463ffffffff81168252600160201b810462ffffff166020830152600160381b81046001600160581b0316928201839052600160901b90046001600160701b0316606082018190526008549192600092610e3c928b928b928b9290918b918b918b9190610ccc565b9050610e5c81836020015162ffffff16846000015163ffffffff16611fbd565b5050505050505050565b6000546001600160a01b03163314610e905760405162461bcd60e51b81526004016108d590614586565b60005b818110156108a657610eca838383818110610eb057610eb0614541565b9050602002016020810190610ec59190614256565b6122bd565b610ed38161456d565b9050610e93565b610f067f000000000000000000000000000000000000000000000000000000000000000033308561240b565b610f525760405162461bcd60e51b815260206004820152601760248201527f4b616e64656c2f626173655472616e736665724661696c00000000000000000060448201526064016108d5565b7f00000000000000000000000000000000000000000000000000000000000000006001600160a01b03167f1bbf55d483639f8103dc4e035af71a4fbdb16c80be740fa3eef81198acefa09483604051610fad91815260200190565b60405180910390a2610fe17f000000000000000000000000000000000000000000000000000000000000000033308461240b565b61102d5760405162461bcd60e51b815260206004820152601860248201527f4b616e64656c2f71756f74655472616e736665724661696c000000000000000060448201526064016108d5565b7f00000000000000000000000000000000000000000000000000000000000000006001600160a01b03167f1bbf55d483639f8103dc4e035af71a4fbdb16c80be740fa3eef81198acefa0948260405161108891815260200190565b60405180910390a25050565b6000546001600160a01b031633146110be5760405162461bcd60e51b81526004016108d590614586565b6001600160a01b0381166111145760405162461bcd60e51b815260206004820152601860248201527f416363657373436f6e74726f6c6c65642f307841646d696e000000000000000060448201526064016108d5565b600080546001600160a01b0319166001600160a01b0383169081179091556040519081527f5a272403b402d892977df56625f4164ccaf70ca3863991c43ecfe76a6905b0a1906020015b60405180910390a150565b6000546001600160a01b031633146111935760405162461bcd60e51b81526004016108d590614586565b6000198203611227576040516370a0823160e01b81523060048201527f00000000000000000000000000000000000000000000000000000000000000006001600160a01b0316906370a0823190602401602060405180830381865afa158015611200573d6000803e3d6000fd5b505050506040513d601f19601f8201168201806040525081019061122491906145bd565b91505b604051632e1a7d4d60e01b8152600481018390527f00000000000000000000000000000000000000000000000000000000000000006001600160a01b031690632e1a7d4d906024016020604051808303816000875af115801561128e573d6000803e3d6000fd5b505050506040513d601f19601f820116820180604052508101906112b291906146fe565b6112f65760405162461bcd60e51b81526020600482015260156024820152741b59dd93d999995c8bddda5d1a191c985dd1985a5b605a1b60448201526064016108d5565b6000816001600160a01b03168360405160006040518083038185875af1925050503d8060008114611343576040519150601f19603f3d011682016040523d82523d6000602084013e611348565b606091505b50509050806108a65760405162461bcd60e51b815260206004820152601860248201527f6d67764f666665722f7765695472616e736665724661696c000000000000000060448201526064016108d5565b6000806113a68484611843565b905060006113b3856124e5565b604051630129e86d60e21b81529091506001600160a01b037f000000000000000000000000000000000000000000000000000000000000000016906304a7a1b4906114049084908690600401614747565b602060405180830381865afa158015611421573d6000803e3d6000fd5b505050506040513d601f19601f8201168201806040525081019061144591906145bd565b95945050505050565b6000546001600160a01b031633146114785760405162461bcd60e51b81526004016108d590614586565b6114828686611703565b61148d8484836115b8565b6114978282611169565b505050505050565b6000806114b46001546001600160a01b031690565b90506001600160a01b038116156115695760405163143b7da760e11b81526001600160a01b0385811660048301528481166024830152821690632876fb4e90604401602060405180830381865afa158015611513573d6000803e3d6000fd5b505050506040513d601f19601f8201168201806040525081019061153791906145bd565b611561907f0000000000000000000000000000000000000000000000000000000000000000614762565b915050611594565b7f0000000000000000000000000000000000000000000000000000000000000000915050611594565b505b92915050565b60006115a5826119e3565b6115ae83610ad5565b6115949190614775565b6000546001600160a01b031633146115e25760405162461bcd60e51b81526004016108d590614586565b61160d7f0000000000000000000000000000000000000000000000000000000000000000848361263e565b6108a67f0000000000000000000000000000000000000000000000000000000000000000838361263e565b6000546001600160a01b031633146116625760405162461bcd60e51b81526004016108d590614586565b808162ffffff16146116b65760405162461bcd60e51b815260206004820152601860248201527f4b616e64656c2f7469636b4f6666736574546f6f48696768000000000000000060448201526064016108d5565b80600854146116f45760088190556040518181527f286da08673f0eb4b3843f2824fb8e3e412534a62f6094fdc8b4008cfeba4ba669060200161115e565b50565b6000610b4c8383612747565b6000546001600160a01b0316331461172d5760405162461bcd60e51b81526004016108d590614586565b6040517f97714c1c48a0b9a1a347710cb6a62f056f5a811d4006655e3b41959e1e72a40990600090a161176282826001612808565b61176e82826000612808565b6040517fa9bc12cd7db30bdfe60fece3ec52cfa7c8d60e396e2ea5df439a7d458f05f9b690600090a15050565b6000546001600160a01b031633146117c55760405162461bcd60e51b81526004016108d590614586565b6040805160808101825260075463ffffffff81168252600160201b810462ffffff166020830152600160381b81046001600160581b031692820192909252600160901b9091046001600160701b0316606082015261183f61182583614795565b826020015162ffffff16836000015163ffffffff16611fbd565b5050565b60006001836001811115611859576118596147a1565b1461187257600082815260046020526040902054610b4c565b50600090815260036020526040902054919050565b6000546001600160a01b031633146118b15760405162461bcd60e51b81526004016108d590614586565b600180546001600160a01b0319166001600160a01b0383169081179091556040519081527f6de4326a8b9054d72d9dbab97d27bc4edffadee7d966f5af9cc4eafdaf8e54559060200161115e565b7f0000000000000000000000000000000000000000000000000000000000000000336001600160a01b038216146119485760405162461bcd60e51b81526004016108d590614586565b81602001356f6d67762f74726164655375636365737360801b0361197157610acf838335612852565b606083013561198f611988368690038601866147b7565b6060902090565b6040805185358152602080870135908201527f45b7a2e43f35c7d127ad18416b3d34235d187b2060d4050bb82bb11de272a7c3910160405180910390a3505050565b60006119de60008061149f565b905090565b6000805b600254811015610bfd5760006119fd8483611399565b9050611a1660016001607f1b03602c83901c1684614762565b92505080611a239061456d565b90506119e7565b600080546001600160a01b03163314611a555760405162461bcd60e51b81526004016108d590614586565b611a60848484612867565b611aac5760405162461bcd60e51b815260206004820152601760248201527f6d67764f666665722f617070726f76652f6661696c656400000000000000000060448201526064016108d5565b5060019392505050565b6000546001600160a01b03163314611ae05760405162461bcd60e51b81526004016108d590614586565b3415611b5b577f00000000000000000000000000000000000000000000000000000000000000006001600160a01b031663b60d4288346040518263ffffffff1660e01b81526004016000604051808303818588803b158015611b4157600080fd5b505af1158015611b55573d6000803e3d6000fd5b50505050505b611b6483611d4d565b611b6d87611638565b611b778282610eda565b611b858a8a8a898989610d9e565b50505050505050505050565b60006001836001811115611ba757611ba76147a1565b14611bc057600082815260066020526040902054610b4c565b50600090815260056020526040902054919050565b6000546001600160a01b03163314611bff5760405162461bcd60e51b81526004016108d590614586565b63040000008110611c4b5760405162461bcd60e51b8152602060048201526016602482015275096c2dcc8cad85ecec2e6e0e4d2c6caa8dede90d2ced60531b60448201526064016108d5565b6007805463ffffffff191663ffffffff83161790556040518181527fdbebd814ae648f654dcc50c734aa76e55a32e96b7d85303a08e2ddf11874a0dd9060200161115e565b611c9981612874565b6000611cad6001546001600160a01b031690565b6001600160a01b0316146116f4576001546001600160a01b0316604051631403b99b60e31b81526001600160a01b0383811660048301527f000000000000000000000000000000000000000000000000000000000000000081166024830152919091169063a01dccd89060440160006040518083038186803b158015611d3257600080fd5b505afa158015611d46573d6000803e3d6000fd5b5050505050565b604080516080808201835260075463ffffffff81168352600160201b810462ffffff166020840152600160381b81046001600160581b031693830193909352600160901b9092046001600160701b03166060808301919091529091611db7919084019084016147d3565b6001600160701b031681606001516001600160701b031614611eb1576000611de560808401606085016147d3565b9050611df760808401606085016147d3565b6001600160701b0316816001600160701b0316148015611e2157506002816001600160701b031610155b611e6d5760405162461bcd60e51b815260206004820152601960248201527f4b616e64656c2f696e76616c69645072696365506f696e74730000000000000060448201526064016108d5565b611e7f816001600160701b031661295f565b600780546001600160701b03909216600160901b0271ffffffffffffffffffffffffffffffffffff9092169190911790555b611ec160608301604084016147fc565b6001600160581b031681604001516001600160581b031614611efe57611efe611ef060608401604085016147fc565b6001600160581b03166108ab565b611f0b6020830183614825565b63ffffffff1615801590611f385750805163ffffffff16611f2f6020840184614825565b63ffffffff1614155b15611f5857611f58611f4d6020840184614825565b63ffffffff16611bd5565b611f68604083016020840161484b565b62ffffff1615801590611f9b5750806020015162ffffff16826020016020810190611f93919061484b565b62ffffff1614155b1561183f5761183f611fb3604084016020850161484b565b62ffffff16610c03565b6040517faab0a16d4cef87072f3977d7f1c066be401e0e6486526674f5f6172d42703db190600090a1611fee613d79565b606081018390526080810182905261200660006124e5565b8152602084015161201990600083612994565b80516040805160608082018352600080835260208084018290529284015282519081018352818401516001600160a01b0390811682528451169181019190915291810151908201528152835161207190600183612994565b6040517fac65490b93de6b3189ca1e1653852249eb8680e816c258cff6ccf73d8501d3d090600090a150505050565b600060018260018111156120b6576120b66147a1565b146120e1577f0000000000000000000000000000000000000000000000000000000000000000611594565b7f000000000000000000000000000000000000000000000000000000000000000092915050565b6000806121186020840184614256565b6040516370a0823160e01b81523060048201526001600160a01b0391909116906370a0823190602401602060405180830381865afa15801561215e573d6000803e3d6000fd5b505050506040513d601f19601f8201168201806040525081019061218291906145bd565b9050838110612195576000915050611594565b61219f8185614870565b905060006121b56001546001600160a01b031690565b90506001600160a01b0381166121cd57509050611594565b60006001600160a01b03821663333dbb0d6121eb6020880188614256565b6040516001600160e01b031960e084901b1681526001600160a01b0391821660048201527f0000000000000000000000000000000000000000000000000000000000000000909116602482018190526044820187905230141560648201526084016020604051808303816000875af115801561226b573d6000803e3d6000fd5b505050506040513d601f19601f8201168201806040525081019061228f91906145bd565b9050828110156122a8576122a38184614870565b6122ab565b60005b9350505050611594565b505092915050565b60006122d16001546001600160a01b031690565b9050612300827f0000000000000000000000000000000000000000000000000000000000000000600019612867565b61234c5760405162461bcd60e51b815260206004820152601d60248201527f6d67764f666665722f617070726f76654d616e67726f76652f4661696c00000060448201526064016108d5565b6001600160a01b0381161561183f576123688282600019612867565b6123b45760405162461bcd60e51b815260206004820152601a60248201527f6d67764f666665722f617070726f7665526f757465724661696c00000000000060448201526064016108d5565b604051630716a76760e21b81526001600160a01b038381166004830152821690631c5a9d9c90602401600060405180830381600087803b1580156123f757600080fd5b505af1158015611497573d6000803e3d6000fd5b60008160000361241d575060016124dd565b826001600160a01b0316846001600160a01b0316036124ac576040516370a0823160e01b81526001600160a01b0385811660048301528391908716906370a0823190602401602060405180830381865afa15801561247f573d6000803e3d6000fd5b505050506040513d601f19601f820116820180604052508101906124a391906145bd565b101590506124dd565b306001600160a01b038516036124ce576124c7858484612ac2565b90506124dd565b6124da85858585612ba8565b90505b949350505050565b6040805160608101825260008082526020820181905291810182905290826001811115612514576125146147a1565b146125ab5760405180606001604052807f00000000000000000000000000000000000000000000000000000000000000006001600160a01b031681526020017f00000000000000000000000000000000000000000000000000000000000000006001600160a01b031681526020017f0000000000000000000000000000000000000000000000000000000000000000815250611594565b60405180606001604052807f00000000000000000000000000000000000000000000000000000000000000006001600160a01b031681526020017f00000000000000000000000000000000000000000000000000000000000000006001600160a01b031681526020017f000000000000000000000000000000000000000000000000000000000000000081525092915050565b60001982036126b2576040516370a0823160e01b81523060048201526001600160a01b038416906370a0823190602401602060405180830381865afa15801561268b573d6000803e3d6000fd5b505050506040513d601f19601f820116820180604052508101906126af91906145bd565b91505b6126bd838284612c85565b6126ff5760405162461bcd60e51b815260206004820152601360248201527212d85b99195b0bdd1c985b9cd9995c91985a5b606a1b60448201526064016108d5565b826001600160a01b03167f59c79d79be0fadf59fe689b6952b7ebe90201a3a1f00d4a31982377890bc60468360405161273a91815260200190565b60405180910390a2505050565b6000807f00000000000000000000000000000000000000000000000000000000000000006001600160a01b031663e982fb8d85856040518363ffffffff1660e01b8152600401612798929190614747565b602060405180830381865afa1580156127b5573d6000803e3d6000fd5b505050506040513d601f19601f820116820180604052508101906127d991906145bd565b9050604881901c62ffffff166127ee82612d28565b01602582901c6303ffffff1602620f424002949350505050565b6000612813826124e5565b9050835b83811015611d4657600061282b8483611843565b905080156128415761283f83826001612d3e565b505b5061284b8161456d565b9050612817565b600061285d83612dd4565b610b4c8383612e17565b60006124dd848484612f53565b604051636eb1769f60e11b81523060048201526001600160a01b037f0000000000000000000000000000000000000000000000000000000000000000811660248301526000919083169063dd62ed3e90604401602060405180830381865afa1580156128e4573d6000803e3d6000fd5b505050506040513d601f19601f8201168201806040525081019061290891906145bd565b116116f45760405162461bcd60e51b815260206004820152602160248201527f6d67764f666665722f4c6f6769634d757374417070726f76654d616e67726f766044820152606560f81b60648201526084016108d5565b60028190556040518181527f26003f10937c9ed98d59e0d595a28bc7d35537a044aeaad037fedaab24d179989060200161115e565b8051604051631c04321560e01b81526000916001600160a01b037f00000000000000000000000000000000000000000000000000000000000000001691631c043215916129e391600401614883565b602060405180830381865afa158015612a00573d6000803e3d6000fd5b505050506040513d601f19601f82011682018060405250810190612a2491906145bd565b90506000612a52612a3483612f89565b8460600151612a439190614762565b60ee84901c6101ff1690612f99565b905060005b8551811015611497576000868281518110612a7457612a74614541565b60209081029190910181015180518183015192880192909252604080820151908801529150612aaf87612aa78184611843565b838988612fd2565b505080612abb9061456d565b9050612a57565b6040516001600160a01b03838116602483015260448201839052600091829182919087169063a9059cbb60e01b906064015b60408051601f198184030181529181526020820180516001600160e01b03166001600160e01b0319909416939093179092529051612b3291906148b5565b6000604051808303816000865af19150503d8060008114612b6f576040519150601f19603f3d011682016040523d82523d6000602084013e612b74565b606091505b5091509150818015612b9e575080511580612b9e575080806020019051810190612b9e91906146fe565b9695505050505050565b604080516001600160a01b0385811660248301528481166044830152606480830185905283518084039091018152608490920183526020820180516001600160e01b03166323b872dd60e01b17905291516000928392839291891691612c0e91906148b5565b6000604051808303816000865af19150503d8060008114612c4b576040519150601f19603f3d011682016040523d82523d6000602084013e612c50565b606091505b5091509150818015612c7a575080511580612c7a575080806020019051810190612c7a91906146fe565b979650505050505050565b600081600003612c9757506001610b4c565b306001600160a01b03841603612d1d576040516370a0823160e01b81526001600160a01b0384811660048301528391908616906370a0823190602401602060405180830381865afa158015612cf0573d6000803e3d6000fd5b505050506040513d601f19601f82011682018060405250810190612d1491906145bd565b10159050610b4c565b6124dd848484612ac2565b6000603f82901c6101ff165b6103e80292915050565b604051630dcf4b9760e31b81526000906001600160a01b037f00000000000000000000000000000000000000000000000000000000000000001690636e7a5cb890612d91908790879087906004016148d1565b6020604051808303816000875af1158015612db0573d6000803e3d6000fd5b505050506040513d601f19601f820116820180604052508101906124dd91906145bd565b6000612deb612de66020840184614256565b61307b565b9050600080612dfa83856130c5565b915091506000612e0a828461329c565b9050611d468383836133b5565b600080612e2c6001546001600160a01b031690565b90506001600160a01b03811615612f4957604080516002808252606082018352600092602083019080368337019050509050612e6b6020860186614256565b81600081518110612e7e57612e7e614541565b6001600160a01b03909216602092830291909101820152612ea59060408701908701614256565b81600181518110612eb857612eb8614541565b6001600160a01b039283166020918202929092010152604051633e142a0760e21b81529083169063f850a81c90612f159084907f0000000000000000000000000000000000000000000000000000000000000000906004016148f5565b600060405180830381600087803b158015612f2f57600080fd5b505af1158015612f43573d6000803e3d6000fd5b50505050505b6124dd8484613463565b6040516001600160a01b03838116602483015260448201839052600091829182919087169063095ea7b360e01b90606401612af4565b6000602182901c6101ff16612d34565b600080612fa584613523565b83029050640200000000810615612fbd576001612fc0565b60005b60ff16602082901c0191505092915050565b836000036130375760408201511561300057612fed8261354a565b509350612ffb85848661366f565b611d46565b604082018190526130108261354a565b50600060408401819052835191955061302b91908690612d3e565b50612ffb85848661366f565b81604001516000036130715760408201819052613054828561329c565b50600060408301819052825161306b918690612d3e565b50611d46565b611497828561329c565b60007f00000000000000000000000000000000000000000000000000000000000000006001600160a01b0316826001600160a01b0316146130bd576000611594565b600192915050565b60006130cf613d79565b60006130df858560600135611b91565b6040805160808101825260075463ffffffff81168252600160201b810462ffffff166020830152600160381b81046001600160581b031692820192909252600160901b9091046001600160701b03166060820152909150600061314187613718565b9050600061316b828585604001516001600160581b031686606001516001600160701b0316613754565b90506131778282611843565b9550613182826124e5565b808652604051630129e86d60e21b81526000916001600160a01b037f000000000000000000000000000000000000000000000000000000000000000016916304a7a1b4916131d4918b90600401614747565b602060405180830381865afa1580156131f1573d6000803e3d6000fd5b505050506040513d601f19601f8201168201806040525081019061321591906145bd565b905061323260016001607f1b03602c83901c1660c08a0135614762565b6040870181905260016001607f1b0310156132555760016001607f1b0360408701525b6132628160401b60eb1d90565b602080880191909152600160c0880152845163ffffffff166080880152939093015162ffffff166060860152509396929550919350505050565b60007f00000000000000000000000000000000000000000000000000000000000000006001600160a01b031663a84b08c88460a0015185600001518660200151876040015188606001518960800151896040518863ffffffff1660e01b815260040161330d96959493929190614952565b6000604051808303818588803b15801561332657600080fd5b505af193505050508015613338575060015b61339d57613344614989565b806308c379a00361339157506133586149a5565b806133635750613393565b8360c0015181906133875760405162461bcd60e51b81526004016108d59190614a2f565b5061156181614a62565b505b3d6000803e3d6000fd5b506c1bd999995c8bdd5c19185d1959609a1b92915050565b6c1bd999995c8bdd5c19185d1959609a1b8114806133f25750807f6d67762f77726974654f666665722f64656e736974792f746f6f4c6f77000000145b156133fc57505050565b8151606090208390604080517f4b616e64656c2f7570646174654f666665724661696c656400000000000000008152602081018590527f45b7a2e43f35c7d127ad18416b3d34235d187b2060d4050bb82bb11de272a7c391015b60405180910390a3505050565b6000806000613471856137a3565b91509150816000148061348b575061348981836137d8565b155b156134a9576b1bd999995c8bd99a5b1b195960a21b92505050611594565b6040805160e0810190915261351690806134c8368990038901896147b7565b8152602081018490526040810185905260600160e088013560481c62ffffff16815260200160e088013560251c6303ffffff168152600060208201526001604090910152606087013561329c565b92506122b5858585613801565b600060078211613534575060031690565b506004600382161760029190911c600119011b90565b6000807f00000000000000000000000000000000000000000000000000000000000000006001600160a01b031663f95902aa8460a00151856000015186602001518760400151886060015189608001516040518763ffffffff1660e01b81526004016135ba959493929190614a86565b60206040518083038185885af1935050505080156135f5575060408051601f3d908101601f191682019092526135f2918101906145bd565b60015b61365657613601614989565b806308c379a00361339157506136156149a5565b806136205750613393565b8360c0015181906136445760405162461bcd60e51b81526004016108d59190614a2f565b5061364e81614a62565b915050915091565b936c1bd999995c8bd8dc99585d1959609a1b9350915050565b6001836001811115613683576136836147a1565b036136ae576000818152600560209081526040808320859055848352600390915290208190556136d0565b6000818152600660209081526040808320859055848352600490915290208190555b8260018111156136e2576136e26147a1565b60408051848152602081018490527f4414bf83296b9500de34e173e9e5b7ca010ff6de3f093002103e680a3a105127910161273a565b6000600282600181111561372e5761372e6147a1565b613739906001614762565b6137439190614ab6565b6001811115611594576115946147a1565b6000600185600181111561376a5761376a6147a1565b03613792576137798385614762565b905081811061378d576124c7600183614870565b6124dd565b8284106124dd576124da8385614870565b6000806137c460a084013560016001607f1b036080860135602c1c16614870565b9150608083013560401b60eb1d9050915091565b60008060006137e6856138ae565b9092509050806137f68584614ad8565b901c95945050505050565b6b1bd999995c8bd99a5b1b195960a21b81148061382d57506c1bd999995c8bdd5c19185d1959609a1b81145b806138575750807f6d67762f77726974654f666665722f64656e736974792f746f6f4c6f77000000145b1561386157505050565b6060830135613878611988368690038601866147b7565b60408051858152602081018590527f45b7a2e43f35c7d127ad18416b3d34235d187b2060d4050bb82bb11de272a7c39101613456565b6000806138ba83613920565b909250905060eb83901b60007ed89e8c075c4155dd3213326cbbcf86fd1f63f5c205dd2ad2cf44f9349b39e180830782139083050390607e1982850101908113156139085793841c93613912565b8060000385901b94505b81607f039350505050915091565b6000806000808412613932578361393b565b61393b84614aef565b9050620d89e88111156139905760405162461bcd60e51b815260206004820152601760248201527f6d67762f6162735469636b2f6f75744f66426f756e647300000000000000000060448201526064016108d5565b600060018216156139b3576ffff97272373d413259a46990580e213993506139bb565b600160801b93505b60028216156139e55760806139e0856ffff2e50f5f656932ef12357cf3c7fdcb614ad8565b901c93505b6004821615613a0f576080613a0a856fffe5caca7e10e4e61c3624eaa0941ccf614ad8565b901c93505b6008821615613a39576080613a34856fffcb9843d60f6159c9db58835c926643614ad8565b901c93505b6010821615613a63576080613a5e856fff973b41fa98c081472e6896dfb254bf614ad8565b901c93505b6020821615613a8d576080613a88856fff2ea16466c96a3843ec78b326b52860614ad8565b901c93505b6040821615613ab7576080613ab2856ffe5dee046a99a2a811c461f1969c3052614ad8565b901c93505b6080821615613ae1576080613adc856ffcbe86c7900a88aedcffc83b479aa3a3614ad8565b901c93505b610100821615613b0c576080613b07856ff987a7253ac413176f2b074cf7815e53614ad8565b901c93505b610200821615613b37576080613b32856ff3392b0822b70005940c7a398e4b70f2614ad8565b901c93505b610400821615613b62576080613b5d856fe7159475a2c29b7443b29c7fa6e889d8614ad8565b901c93505b610800821615613b8d576080613b88856fd097f3bdfd2022b8845ad8f792aa5825614ad8565b901c93505b611000821615613bb8576080613bb3856fa9f746462d870fdf8a65dc1f90e061e4614ad8565b901c93505b612000821615613bf0576080613bde856fe1b0d342ada5437121767bec575e65ed614ad8565b901c9350613bed600182614b0b565b90505b614000821615613c28576080613c16856fc6f84d7e5f423f66048c541550bf3e96614ad8565b901c9350613c25600282614b0b565b90505b618000821615613c60576080613c4e856f9aa508b5b7a84e1c677de54f3e99bc8f614ad8565b901c9350613c5d600482614b0b565b90505b62010000821615613c99576080613c87856fbad5f1bdb70232cd33865244bdcc089c614ad8565b901c9350613c96600982614b0b565b90505b62020000821615613cd2576080613cc0856f885b9613d7e87aa498106fb7fa5edd37614ad8565b901c9350613ccf601282614b0b565b90505b62040000821615613d0b576080613cf9856f9142e0723efb884889d1f447715afacd614ad8565b901c9350613d08602582614b0b565b90505b62080000821615613d44576080613d32856fa4d9a773d61316918f140bd96e8e6814614ad8565b901c9350613d41604b82614b0b565b90505b6000851315613d6557600184856000030401935080613d6290614aef565b90505b613d70816080614b0b565b92505050915091565b604080516101408101909152600060e0820181815261010083018290526101208301919091528190815260200160008152602001600081526020016000815260200160008152602001600081526020016000151581525090565b60008060208385031215613de657600080fd5b823567ffffffffffffffff80821115613dfe57600080fd5b818501915085601f830112613e1257600080fd5b813581811115613e2157600080fd5b8660208260051b8501011115613e3657600080fd5b60209290920196919550909350505050565b600060208284031215613e5a57600080fd5b5035919050565b634e487b7160e01b600052604160045260246000fd5b6060810181811067ffffffffffffffff82111715613e9757613e97613e61565b60405250565b6040810181811067ffffffffffffffff82111715613e9757613e97613e61565b601f8201601f1916810167ffffffffffffffff81118282101715613ee357613ee3613e61565b6040525050565b600067ffffffffffffffff821115613f0457613f04613e61565b5060051b60200190565b600082601f830112613f1f57600080fd5b81356020613f2c82613eea565b60408051613f3a8382613ebd565b84815260609485028701840194848201935088861115613f5957600080fd5b8488015b86811015613fa15781818b031215613f755760008081fd5b8351613f8081613e77565b81358152868201358782015284820135858201528552938501938101613f5d565b509098975050505050505050565b600060408284031215613fc157600080fd5b604051613fcd81613e9d565b809150823567ffffffffffffffff80821115613fe857600080fd5b613ff486838701613f0e565b8352602085013591508082111561400a57600080fd5b5061401785828601613f0e565b6020830152505092915050565b600060808284031215610bfd57600080fd5b60008060008060e0858703121561404c57600080fd5b843567ffffffffffffffff81111561406357600080fd5b61406f87828801613faf565b94505061407f8660208701614024565b939693955050505060a08201359160c0013590565b8035600281106140a357600080fd5b919050565b6000602082840312156140ba57600080fd5b610b4c82614094565b60006101408284031215610bfd57600080fd5b600061014082840312156140e957600080fd5b610b4c83836140c3565b60008060008060008060008060006101208a8c03121561411257600080fd5b505087359960208901359950604089013598606081013598506080810135975060a0810135965060c0810135955060e08101359450610100013592509050565b600081518084526020808501945080840160005b838110156141985781518051885283810151848901526040908101519088015260609096019590820190600101614166565b509495945050505050565b6020815260008251604060208401526141bf6060840182614152565b90506020840151601f198483030160408501526114458282614152565b60008060008060008060c087890312156141f557600080fd5b505084359660208601359650604086013595606081013595506080810135945060a0013592509050565b6000806040838503121561423257600080fd5b50508035926020909101359150565b6001600160a01b03811681146116f457600080fd5b60006020828403121561426857600080fd5b8135610b4c81614241565b6000806040838503121561428657600080fd5b82359150602083013561429881614241565b809150509250929050565b600080604083850312156142b657600080fd5b6142bf83614094565b946020939093013593505050565b60008060008060008060c087890312156142e657600080fd5b863595506020870135945060408701359350606087013592506080870135915060a087013561431481614241565b809150509295509295509295565b6000806040838503121561433557600080fd5b823561434081614241565b9150602083013561429881614241565b60008060006060848603121561436557600080fd5b8335925060208401359150604084013561437e81614241565b809150509250925092565b60006060828403121561439b57600080fd5b6040516143a781613e77565b80915082356143b581614241565b815260208301356143c581614241565b6020820152604092830135920191909152919050565b600080608083850312156143ee57600080fd5b6143f88484614389565b946060939093013593505050565b600060408284031215610bfd57600080fd5b60006020828403121561442a57600080fd5b813567ffffffffffffffff81111561444157600080fd5b6124dd84828501614406565b600080610180838503121561446157600080fd5b61446b84846140c3565b915061447b846101408501614406565b90509250929050565b60008060006060848603121561449957600080fd5b83356144a481614241565b925060208401356144b481614241565b929592945050506040919091013590565b6000806000806000806000806000806101a08b8d0312156144e557600080fd5b8a35995060208b0135985060408b0135975060608b0135965060808b0135955060a08b0135945060c08b013593506145208c60e08d01614024565b92506101608b013591506101808b013590509295989b9194979a5092959850565b634e487b7160e01b600052603260045260246000fd5b634e487b7160e01b600052601160045260246000fd5b60006001820161457f5761457f614557565b5060010190565b60208082526018908201527f416363657373436f6e74726f6c6c65642f496e76616c69640000000000000000604082015260600190565b6000602082840312156145cf57600080fd5b5051919050565b600082601f8301126145e757600080fd5b815160206145f482613eea565b604080516146028382613ebd565b8481526060948502870184019484820193508886111561462157600080fd5b8488015b86811015613fa15781818b03121561463d5760008081fd5b835161464881613e77565b81518152868201518782015284820151858201528552938501938101614625565b60006020828403121561467b57600080fd5b815167ffffffffffffffff8082111561469357600080fd5b90830190604082860312156146a757600080fd5b6040516146b381613e9d565b8251828111156146c257600080fd5b6146ce878286016145d6565b8252506020830151828111156146e357600080fd5b6146ef878286016145d6565b60208301525095945050505050565b60006020828403121561471057600080fd5b81518015158114610b4c57600080fd5b80516001600160a01b03908116835260208083015190911690830152604090810151910152565b608081016147558285614720565b8260608301529392505050565b8082018082111561159457611594614557565b818103600083128015838313168383128216171561159257611592614557565b60006115943683613faf565b634e487b7160e01b600052602160045260246000fd5b6000606082840312156147c957600080fd5b610b4c8383614389565b6000602082840312156147e557600080fd5b81356001600160701b0381168114610b4c57600080fd5b60006020828403121561480e57600080fd5b81356001600160581b0381168114610b4c57600080fd5b60006020828403121561483757600080fd5b813563ffffffff81168114610b4c57600080fd5b60006020828403121561485d57600080fd5b813562ffffff81168114610b4c57600080fd5b8181038181111561159457611594614557565b606081016115948284614720565b60005b838110156148ac578181015183820152602001614894565b50506000910152565b600082516148c7818460208701614891565b9190910192915050565b60a081016148df8286614720565b8360608301528215156080830152949350505050565b604080825283519082018190526000906020906060840190828701845b828110156149375781516001600160a01b031684529284019290840190600101614912565b5050506001600160a01b039490941692019190915250919050565b61010081016149618289614720565b6060820196909652608081019490945260a084019290925260c083015260e090910152919050565b600060033d11156149a25760046000803e5060005160e01c5b90565b600060443d10156149b35790565b6040516003193d81016004833e81513d67ffffffffffffffff81602484011181841117156149e357505050505090565b82850191508151818111156149fb5750505050505090565b843d8701016020828501011115614a155750505050505090565b614a2460208286010187613ebd565b509095945050505050565b6020815260008251806020840152614a4e816040850160208701614891565b601f01601f19169190910160400192915050565b80516020808301519190811015610bfd5760001960209190910360031b1b16919050565b60e08101614a948288614720565b8560608301528460808301528360a08301528260c08301529695505050505050565b600082614ad357634e487b7160e01b600052601260045260246000fd5b500690565b808202811582820484141761159457611594614557565b6000600160ff1b8201614b0457614b04614557565b5060000390565b80820182811260008312801582168215821617156122b5576122b561455756fea2646970667358221220db51490e85ac4d616b9e2ff7b5dc7d2d927ebef8c376a18ac544d6ec0a38765364736f6c63430008140033a264697066735822122036152d7e780a69cb4d95ea45317c959774f9963c957ac254999ee8e4d0ceb4e664736f6c63430008140033",
    "linkReferences": {
      "node_modules/@mangrovedao/mangrove.js/node_modules/@mangrovedao/mangrove-strats/src/strategies/offer_maker/market_making/kandel/abstract/KandelLib.sol": {
        "KandelLib": [
          {
            "start": 7271,
            "length": 20
          }
        ]
      }
    }
  },
  "methodIdentifiers": {
    "KANDEL_GASREQ()": "3b49aadd",
    "MGV()": "99fa5e2d",
    "sow((address,address,uint256),bool)": "e170fa6a"
  },
  "id": 110
}