{
  "abi": [
    {
      "inputs": [
        {
          "internalType": "address",
          "name": "admin",
          "type": "address"
        },
        {
          "internalType": "string",
          "name": "name",
          "type": "string"
        },
        {
          "internalType": "string",
          "name": "symbol",
          "type": "string"
        },
        {
          "internalType": "uint8",
          "name": "_decimals",
          "type": "uint8"
        }
      ],
      "stateMutability": "nonpayable",
      "type": "constructor"
    },
    {
      "anonymous": false,
      "inputs": [
        {
          "indexed": true,
          "internalType": "address",
          "name": "owner",
          "type": "address"
        },
        {
          "indexed": true,
          "internalType": "address",
          "name": "spender",
          "type": "address"
        },
        {
          "indexed": false,
          "internalType": "uint256",
          "name": "value",
          "type": "uint256"
        }
      ],
      "name": "Approval",
      "type": "event"
    },
    {
      "anonymous": false,
      "inputs": [
        {
          "indexed": true,
          "internalType": "address",
          "name": "from",
          "type": "address"
        },
        {
          "indexed": true,
          "internalType": "address",
          "name": "to",
          "type": "address"
        },
        {
          "indexed": false,
          "internalType": "uint256",
          "name": "value",
          "type": "uint256"
        }
      ],
      "name": "Transfer",
      "type": "event"
    },
    {
      "inputs": [
        {
          "internalType": "uint256",
          "name": "amount",
          "type": "uint256"
        }
      ],
      "name": "$",
      "outputs": [
        {
          "internalType": "uint256",
          "name": "",
          "type": "uint256"
        }
      ],
      "stateMutability": "view",
      "type": "function"
    },
    {
      "inputs": [],
      "name": "DOMAIN_SEPARATOR",
      "outputs": [
        {
          "internalType": "bytes32",
          "name": "",
          "type": "bytes32"
        }
      ],
      "stateMutability": "view",
      "type": "function"
    },
    {
      "inputs": [],
      "name": "__decimals",
      "outputs": [
        {
          "internalType": "uint256",
          "name": "",
          "type": "uint256"
        }
      ],
      "stateMutability": "view",
      "type": "function"
    },
    {
      "inputs": [
        {
          "internalType": "address",
          "name": "",
          "type": "address"
        }
      ],
      "name": "_blacklisted",
      "outputs": [
        {
          "internalType": "bool",
          "name": "",
          "type": "bool"
        }
      ],
      "stateMutability": "view",
      "type": "function"
    },
    {
      "inputs": [
        {
          "internalType": "address",
          "name": "admin",
          "type": "address"
        }
      ],
      "name": "addAdmin",
      "outputs": [],
      "stateMutability": "nonpayable",
      "type": "function"
    },
    {
      "inputs": [
        {
          "internalType": "address",
          "name": "",
          "type": "address"
        }
      ],
      "name": "admins",
      "outputs": [
        {
          "internalType": "bool",
          "name": "",
          "type": "bool"
        }
      ],
      "stateMutability": "view",
      "type": "function"
    },
    {
      "inputs": [
        {
          "internalType": "address",
          "name": "owner",
          "type": "address"
        },
        {
          "internalType": "address",
          "name": "spender",
          "type": "address"
        }
      ],
      "name": "allowance",
      "outputs": [
        {
          "internalType": "uint256",
          "name": "",
          "type": "uint256"
        }
      ],
      "stateMutability": "view",
      "type": "function"
    },
    {
      "inputs": [
        {
          "internalType": "address",
          "name": "spender",
          "type": "address"
        },
        {
          "internalType": "uint256",
          "name": "amount",
          "type": "uint256"
        }
      ],
      "name": "approve",
      "outputs": [
        {
          "internalType": "bool",
          "name": "",
          "type": "bool"
        }
      ],
      "stateMutability": "nonpayable",
      "type": "function"
    },
    {
      "inputs": [
        {
          "internalType": "enum TestToken.MethodResponse",
          "name": "response",
          "type": "uint8"
        }
      ],
      "name": "approveResponse",
      "outputs": [],
      "stateMutability": "nonpayable",
      "type": "function"
    },
    {
      "inputs": [
        {
          "internalType": "address",
          "name": "account",
          "type": "address"
        }
      ],
      "name": "balanceOf",
      "outputs": [
        {
          "internalType": "uint256",
          "name": "",
          "type": "uint256"
        }
      ],
      "stateMutability": "view",
      "type": "function"
    },
    {
      "inputs": [
        {
          "internalType": "address",
          "name": "account",
          "type": "address"
        }
      ],
      "name": "blacklists",
      "outputs": [],
      "stateMutability": "nonpayable",
      "type": "function"
    },
    {
      "inputs": [
        {
          "internalType": "address",
          "name": "from",
          "type": "address"
        },
        {
          "internalType": "uint256",
          "name": "amount",
          "type": "uint256"
        }
      ],
      "name": "burn",
      "outputs": [],
      "stateMutability": "nonpayable",
      "type": "function"
    },
    {
      "inputs": [],
      "name": "decimals",
      "outputs": [
        {
          "internalType": "uint8",
          "name": "",
          "type": "uint8"
        }
      ],
      "stateMutability": "view",
      "type": "function"
    },
    {
      "inputs": [
        {
          "internalType": "address",
          "name": "spender",
          "type": "address"
        },
        {
          "internalType": "uint256",
          "name": "subtractedValue",
          "type": "uint256"
        }
      ],
      "name": "decreaseAllowance",
      "outputs": [
        {
          "internalType": "bool",
          "name": "",
          "type": "bool"
        }
      ],
      "stateMutability": "nonpayable",
      "type": "function"
    },
    {
      "inputs": [
        {
          "internalType": "bool",
          "name": "toggle",
          "type": "bool"
        }
      ],
      "name": "failSoftly",
      "outputs": [],
      "stateMutability": "nonpayable",
      "type": "function"
    },
    {
      "inputs": [],
      "name": "getMethodResponse",
      "outputs": [
        {
          "internalType": "string",
          "name": "",
          "type": "string"
        },
        {
          "internalType": "string",
          "name": "",
          "type": "string"
        }
      ],
      "stateMutability": "view",
      "type": "function"
    },
    {
      "inputs": [
        {
          "internalType": "address",
          "name": "spender",
          "type": "address"
        },
        {
          "internalType": "uint256",
          "name": "addedValue",
          "type": "uint256"
        }
      ],
      "name": "increaseAllowance",
      "outputs": [
        {
          "internalType": "bool",
          "name": "",
          "type": "bool"
        }
      ],
      "stateMutability": "nonpayable",
      "type": "function"
    },
    {
      "inputs": [
        {
          "internalType": "uint256",
          "name": "amount",
          "type": "uint256"
        }
      ],
      "name": "mint",
      "outputs": [],
      "stateMutability": "nonpayable",
      "type": "function"
    },
    {
      "inputs": [],
      "name": "mintLimit",
      "outputs": [
        {
          "internalType": "uint256",
          "name": "",
          "type": "uint256"
        }
      ],
      "stateMutability": "view",
      "type": "function"
    },
    {
      "inputs": [
        {
          "internalType": "address",
          "name": "to",
          "type": "address"
        },
        {
          "internalType": "uint256",
          "name": "amount",
          "type": "uint256"
        }
      ],
      "name": "mintTo",
      "outputs": [],
      "stateMutability": "nonpayable",
      "type": "function"
    },
    {
      "inputs": [],
      "name": "name",
      "outputs": [
        {
          "internalType": "string",
          "name": "",
          "type": "string"
        }
      ],
      "stateMutability": "view",
      "type": "function"
    },
    {
      "inputs": [
        {
          "internalType": "address",
          "name": "owner",
          "type": "address"
        }
      ],
      "name": "nonces",
      "outputs": [
        {
          "internalType": "uint256",
          "name": "",
          "type": "uint256"
        }
      ],
      "stateMutability": "view",
      "type": "function"
    },
    {
      "inputs": [
        {
          "internalType": "address",
          "name": "spender",
          "type": "address"
        },
        {
          "internalType": "uint256",
          "name": "amount",
          "type": "uint256"
        }
      ],
      "name": "parentApprove",
      "outputs": [
        {
          "internalType": "bool",
          "name": "",
          "type": "bool"
        }
      ],
      "stateMutability": "nonpayable",
      "type": "function"
    },
    {
      "inputs": [
        {
          "internalType": "address",
          "name": "to",
          "type": "address"
        },
        {
          "internalType": "uint256",
          "name": "amount",
          "type": "uint256"
        }
      ],
      "name": "parentTransfer",
      "outputs": [
        {
          "internalType": "bool",
          "name": "",
          "type": "bool"
        }
      ],
      "stateMutability": "nonpayable",
      "type": "function"
    },
    {
      "inputs": [
        {
          "internalType": "address",
          "name": "from",
          "type": "address"
        },
        {
          "internalType": "address",
          "name": "to",
          "type": "address"
        },
        {
          "internalType": "uint256",
          "name": "amount",
          "type": "uint256"
        }
      ],
      "name": "parentTransferFrom",
      "outputs": [
        {
          "internalType": "bool",
          "name": "",
          "type": "bool"
        }
      ],
      "stateMutability": "nonpayable",
      "type": "function"
    },
    {
      "inputs": [
        {
          "internalType": "address",
          "name": "owner",
          "type": "address"
        },
        {
          "internalType": "address",
          "name": "spender",
          "type": "address"
        },
        {
          "internalType": "uint256",
          "name": "value",
          "type": "uint256"
        },
        {
          "internalType": "uint256",
          "name": "deadline",
          "type": "uint256"
        },
        {
          "internalType": "uint8",
          "name": "v",
          "type": "uint8"
        },
        {
          "internalType": "bytes32",
          "name": "r",
          "type": "bytes32"
        },
        {
          "internalType": "bytes32",
          "name": "s",
          "type": "bytes32"
        }
      ],
      "name": "permit",
      "outputs": [],
      "stateMutability": "nonpayable",
      "type": "function"
    },
    {
      "inputs": [
        {
          "internalType": "address",
          "name": "admin",
          "type": "address"
        }
      ],
      "name": "removeAdmin",
      "outputs": [],
      "stateMutability": "nonpayable",
      "type": "function"
    },
    {
      "inputs": [
        {
          "internalType": "uint256",
          "name": "limit",
          "type": "uint256"
        }
      ],
      "name": "setMintLimit",
      "outputs": [],
      "stateMutability": "nonpayable",
      "type": "function"
    },
    {
      "inputs": [],
      "name": "symbol",
      "outputs": [
        {
          "internalType": "string",
          "name": "",
          "type": "string"
        }
      ],
      "stateMutability": "view",
      "type": "function"
    },
    {
      "inputs": [],
      "name": "totalSupply",
      "outputs": [
        {
          "internalType": "uint256",
          "name": "",
          "type": "uint256"
        }
      ],
      "stateMutability": "view",
      "type": "function"
    },
    {
      "inputs": [
        {
          "internalType": "address",
          "name": "to",
          "type": "address"
        },
        {
          "internalType": "uint256",
          "name": "amount",
          "type": "uint256"
        }
      ],
      "name": "transfer",
      "outputs": [
        {
          "internalType": "bool",
          "name": "",
          "type": "bool"
        }
      ],
      "stateMutability": "nonpayable",
      "type": "function"
    },
    {
      "inputs": [
        {
          "internalType": "address",
          "name": "from",
          "type": "address"
        },
        {
          "internalType": "address",
          "name": "to",
          "type": "address"
        },
        {
          "internalType": "uint256",
          "name": "amount",
          "type": "uint256"
        }
      ],
      "name": "transferFrom",
      "outputs": [
        {
          "internalType": "bool",
          "name": "",
          "type": "bool"
        }
      ],
      "stateMutability": "nonpayable",
      "type": "function"
    },
    {
      "inputs": [
        {
          "internalType": "enum TestToken.MethodResponse",
          "name": "response",
          "type": "uint8"
        }
      ],
      "name": "transferResponse",
      "outputs": [],
      "stateMutability": "nonpayable",
      "type": "function"
    },
    {
      "inputs": [
        {
          "internalType": "address",
          "name": "account",
          "type": "address"
        }
      ],
      "name": "whitelists",
      "outputs": [],
      "stateMutability": "nonpayable",
      "type": "function"
    }
  ],
  "bytecode": {
    "object": "0x610140604052600a805460ff191690556000600b55600c805461ffff191690553480156200002c57600080fd5b506040516200233a3803806200233a8339810160408190526200004f916200021f565b82828180604051806040016040528060018152602001603160f81b8152508484816003908162000080919062000352565b5060046200008f828262000352565b5050825160208085019190912083518483012060e08290526101008190524660a0818152604080517f8b73c3c69bb8fe3d512ecc4cf759cc79239f7b179b0ffacaa9a75d522b39400f81880181905281830187905260608201869052608082019490945230818401528151808203909301835260c0019052805194019390932091935091906080523060c05261012052505050506001600160a01b03969096166000908152600860205260409020805460ff19166001179055505060ff16600955506200041e915050565b634e487b7160e01b600052604160045260246000fd5b600082601f8301126200018257600080fd5b81516001600160401b03808211156200019f576200019f6200015a565b604051601f8301601f19908116603f01168101908282118183101715620001ca57620001ca6200015a565b81604052838152602092508683858801011115620001e757600080fd5b600091505b838210156200020b5785820183015181830184015290820190620001ec565b600093810190920192909252949350505050565b600080600080608085870312156200023657600080fd5b84516001600160a01b03811681146200024e57600080fd5b60208601519094506001600160401b03808211156200026c57600080fd5b6200027a8883890162000170565b945060408701519150808211156200029157600080fd5b50620002a08782880162000170565b925050606085015160ff81168114620002b857600080fd5b939692955090935050565b600181811c90821680620002d857607f821691505b602082108103620002f957634e487b7160e01b600052602260045260246000fd5b50919050565b601f8211156200034d57600081815260208120601f850160051c81016020861015620003285750805b601f850160051c820191505b81811015620003495782815560010162000334565b5050505b505050565b81516001600160401b038111156200036e576200036e6200015a565b62000386816200037f8454620002c3565b84620002ff565b602080601f831160018114620003be5760008415620003a55750858301515b600019600386901b1c1916600185901b17855562000349565b600085815260208120601f198616915b82811015620003ef57888601518255948401946001909101908401620003ce565b50858210156200040e5787850151600019600388901b60f8161c191681555b5050505050600190811b01905550565b60805160a05160c05160e0516101005161012051611ecc6200046e6000396000610d2401526000610d7301526000610d4e01526000610ca701526000610cd101526000610cfb0152611ecc6000f3fe608060405234801561001057600080fd5b50600436106102065760003560e01c80637a6d69b41161011a578063a0712d68116100ad578063db1566a71161007c578063db1566a71461045f578063dd62ed3e14610472578063ec483fb714610485578063f304cda114610498578063f9ddaf03146104ab57600080fd5b8063a0712d6814610413578063a457c2d714610426578063a9059cbb14610439578063d505accf1461044c57600080fd5b8063996517cf116100e9578063996517cf146103d15780639d8e193d146103da5780639dc29fac146103ed5780639e6a1d7d1461040057600080fd5b80637a6d69b41461038a5780637ecebe00146103ad5780638ea2da7d146103c057806395d89b41146103c957600080fd5b806325db769e1161019d5780633a190d0a1161016c5780633a190d0a14610302578063429b62e514610318578063449a52f81461033b578063704802751461034e57806370a082311461036157600080fd5b806325db769e146102bf578063313ce567146102d25780633644e515146102e757806339509351146102ef57600080fd5b806318160ddd116101d957806318160ddd14610274578063191d2481146102865780631e7be2101461029957806323b872dd146102ac57600080fd5b806306fdde031461020b578063095ea7b31461022957806316c021291461024c5780631785f53c14610261575b600080fd5b6102136104be565b6040516102209190611ac5565b60405180910390f35b61023c610237366004611aef565b610550565b6040519015158152602001610220565b61025f61025a366004611b19565b6105b5565b005b61025f61026f366004611b19565b6105e8565b6002545b604051908152602001610220565b61025f610294366004611b42565b610611565b61025f6102a7366004611b19565b61062c565b61023c6102ba366004611b5f565b610659565b6102786102cd366004611b9b565b6106cb565b60095460405160ff9091168152602001610220565b6102786106eb565b61023c6102fd366004611aef565b6106fa565b61030a610726565b604051610220929190611bb4565b61023c610326366004611b19565b60086020526000908152604090205460ff1681565b61025f610349366004611aef565b610756565b61025f61035c366004611b19565b61082b565b61027861036f366004611b19565b6001600160a01b031660009081526020819052604090205490565b61023c610398366004611b19565b60076020526000908152604090205460ff1681565b6102786103bb366004611b19565b610857565b61027860095481565b610213610875565b610278600b5481565b61025f6103e8366004611bd9565b610884565b61025f6103fb366004611aef565b6108b5565b61025f61040e366004611b9b565b6108cb565b61025f610421366004611b9b565b6108d8565b61023c610434366004611aef565b6108e2565b61023c610447366004611aef565b610968565b61025f61045a366004611bfa565b6109c9565b61023c61046d366004611aef565b610a59565b610278610480366004611c6d565b610a6c565b61025f610493366004611bd9565b610a97565b61023c6104a6366004611aef565b610abe565b61023c6104b9366004611b5f565b610aca565b6060600380546104cd90611ca0565b80601f01602080910402602001604051908101604052809291908181526020018280546104f990611ca0565b80156105465780601f1061051b57610100808354040283529160200191610546565b820191906000526020600020905b81548152906001019060200180831161052957829003601f168201915b5050505050905090565b604080516001600160a01b038416602482015260448082018490528251808303909101815260649091019091526020810180516001600160e01b031663db1566a760e01b179052600c54600091906105ab9060ff1682610adf565b9150505b92915050565b6105bd610c43565b6105e5816001600160a01b03166000908152600760205260409020805460ff19166001179055565b50565b6105f0610c43565b6001600160a01b03166000908152600860205260409020805460ff19169055565b610619610c43565b600a805460ff1916911515919091179055565b610634610c43565b6105e5816001600160a01b03166000908152600760205260409020805460ff19169055565b604080516001600160a01b0385811660248301528416604482015260648082018490528251808303909101815260849091019091526020810180516001600160e01b031663f9ddaf0360e01b179052600c54600091906106c29060ff6101009091041682610adf565b95945050505050565b60006106d660095490565b6106e190600a611dce565b6105af9083611ddd565b60006106f5610c9a565b905090565b60003361071c81858561070d8383610a6c565b6107179190611df4565b610dc1565b5060019392505050565b600c54606090819061073a9060ff16610ee6565b600c5461074e90610100900460ff16610ee6565b915091509091565b60005a600b549091505a61076a9083611e07565b9150600019811461081b576107d082116107cb5760405162461bcd60e51b815260206004820152601d60248201527f546f6f206672657175656e74206d696e74696e6720726571756972656400000060448201526064015b60405180910390fd5b8083111561081b5760405162461bcd60e51b815260206004820152601960248201527f546f6f206d756368206d696e74696e672072657175697265640000000000000060448201526064016107c2565b6108258484610f8e565b50505050565b610833610c43565b6001600160a01b03166000908152600860205260409020805460ff19166001179055565b6001600160a01b0381166000908152600560205260408120546105af565b6060600480546104cd90611ca0565b61088c610c43565b600c805482919061ff0019166101008360028111156108ad576108ad611e1a565b021790555050565b6108bd610c43565b6108c7828261106d565b5050565b6108d3610c43565b600b55565b6105e53382610756565b600033816108f08286610a6c565b9050838110156109505760405162461bcd60e51b815260206004820152602560248201527f45524332303a2064656372656173656420616c6c6f77616e63652062656c6f77604482015264207a65726f60d81b60648201526084016107c2565b61095d8286868403610dc1565b506001949350505050565b604080516001600160a01b038416602482015260448082018490528251808303909101815260649091019091526020810180516001600160e01b031663f304cda160e01b179052600c54600091906105ab9060ff6101009091041682610adf565b6001600160a01b038716600090815260076020526040902054879060ff1615610a045760405162461bcd60e51b81526004016107c290611e30565b6001600160a01b038716600090815260076020526040902054879060ff1615610a3f5760405162461bcd60e51b81526004016107c290611e30565b610a4e898989898989896111b3565b505050505050505050565b6000610a658383611317565b9392505050565b6001600160a01b03918216600090815260016020908152604080832093909416825291909152205490565b610a9f610c43565b600c805482919060ff191660018360028111156108ad576108ad611e1a565b6000610a65838361138c565b6000610ad7848484611401565b949350505050565b600a5460009060ff1615610af5575060006105af565b600080306001600160a01b031684604051610b109190611e5d565b600060405180830381855af49150503d8060008114610b4b576040519150601f19603f3d011682016040523d82523d6000602084013e610b50565b606091505b5090925090506002856002811115610b6a57610b6a611e1a565b03610b9457818015610b8b575080806020019051810190610b8b9190611e79565b925050506105af565b81610ba0578360208501fd5b6001856002811115610bb457610bb4611e1a565b03610c2f5780806020019051810190610bcd9190611e79565b61025f5760405162461bcd60e51b815260206004820152602d60248201527f54657374546f6b656e2f76617279526573706f6e73653a206d6574686f64207260448201526c657475726e65642066616c736560981b60648201526084016107c2565b808060200190518101906106c29190611e79565b3360009081526008602052604090205460ff16610c985760405162461bcd60e51b815260206004820152601360248201527254657374546f6b656e2f61646d696e4f6e6c7960681b60448201526064016107c2565b565b6000306001600160a01b037f000000000000000000000000000000000000000000000000000000000000000016148015610cf357507f000000000000000000000000000000000000000000000000000000000000000046145b15610d1d57507f000000000000000000000000000000000000000000000000000000000000000090565b50604080517f00000000000000000000000000000000000000000000000000000000000000006020808301919091527f0000000000000000000000000000000000000000000000000000000000000000828401527f000000000000000000000000000000000000000000000000000000000000000060608301524660808301523060a0808401919091528351808403909101815260c0909201909252805191012090565b6001600160a01b038316610e235760405162461bcd60e51b8152602060048201526024808201527f45524332303a20617070726f76652066726f6d20746865207a65726f206164646044820152637265737360e01b60648201526084016107c2565b6001600160a01b038216610e845760405162461bcd60e51b815260206004820152602260248201527f45524332303a20617070726f766520746f20746865207a65726f206164647265604482015261737360f01b60648201526084016107c2565b6001600160a01b0383811660008181526001602090815260408083209487168084529482529182902085905590518481527f8c5be1e5ebec7d5bd14f71427d1e84f3dd0314c0f7b2291e5b200ac8c7c3b92591015b60405180910390a3505050565b60606000826002811115610efc57610efc611e1a565b03610f23575050604080518082019091526006815265139bdc9b585b60d21b602082015290565b6001826002811115610f3757610f37611e1a565b03610f6557505060408051808201909152600d81526c26b4b9b9b4b733a932ba3ab93760991b602082015290565b5050604080518082019091526008815267139bd4995d995c9d60c21b602082015290565b919050565b6001600160a01b038216610fe45760405162461bcd60e51b815260206004820152601f60248201527f45524332303a206d696e7420746f20746865207a65726f20616464726573730060448201526064016107c2565b8060026000828254610ff69190611df4565b90915550506001600160a01b03821660009081526020819052604081208054839290611023908490611df4565b90915550506040518181526001600160a01b038316906000907fddf252ad1be2c89b69c2b068fc378daa952ba7f163c4a11628f55a4df523b3ef9060200160405180910390a35050565b6001600160a01b0382166110cd5760405162461bcd60e51b815260206004820152602160248201527f45524332303a206275726e2066726f6d20746865207a65726f206164647265736044820152607360f81b60648201526084016107c2565b6001600160a01b038216600090815260208190526040902054818110156111415760405162461bcd60e51b815260206004820152602260248201527f45524332303a206275726e20616d6f756e7420657863656564732062616c616e604482015261636560f01b60648201526084016107c2565b6001600160a01b0383166000908152602081905260408120838303905560028054849290611170908490611e07565b90915550506040518281526000906001600160a01b038516907fddf252ad1be2c89b69c2b068fc378daa952ba7f163c4a11628f55a4df523b3ef90602001610ed9565b834211156112035760405162461bcd60e51b815260206004820152601d60248201527f45524332305065726d69743a206578706972656420646561646c696e6500000060448201526064016107c2565b60007f6e71edae12b1b97f4d1f60370fef10105fa2faae0126114a169c64845d6126c98888886112328c6114bd565b6040805160208101969096526001600160a01b0394851690860152929091166060840152608083015260a082015260c0810186905260e001604051602081830303815290604052805190602001209050600061128d826114e5565b9050600061129d82878787611533565b9050896001600160a01b0316816001600160a01b0316146113005760405162461bcd60e51b815260206004820152601e60248201527f45524332305065726d69743a20696e76616c6964207369676e6174757265000060448201526064016107c2565b61130b8a8a8a610dc1565b50505050505050505050565b6001600160a01b038216600090815260076020526040812054839060ff16156113525760405162461bcd60e51b81526004016107c290611e30565b3360008181526007602052604090205460ff16156113825760405162461bcd60e51b81526004016107c290611e30565b6106c2858561155b565b6001600160a01b038216600090815260076020526040812054839060ff16156113c75760405162461bcd60e51b81526004016107c290611e30565b3360008181526007602052604090205460ff16156113f75760405162461bcd60e51b81526004016107c290611e30565b6106c28585611569565b6001600160a01b038316600090815260076020526040812054849060ff161561143c5760405162461bcd60e51b81526004016107c290611e30565b6001600160a01b038416600090815260076020526040902054849060ff16156114775760405162461bcd60e51b81526004016107c290611e30565b3360008181526007602052604090205460ff16156114a75760405162461bcd60e51b81526004016107c290611e30565b6114b2878787611577565b979650505050505050565b6001600160a01b03811660009081526005602052604090208054600181018255905b50919050565b60006105af6114f2610c9a565b8360405161190160f01b6020820152602281018390526042810182905260009060620160405160208183030381529060405280519060200120905092915050565b600080600061154487878787611590565b915091506115518161167d565b5095945050505050565b60003361071c818585610dc1565b60003361071c818585611833565b600033611585858285611a01565b61095d858585611833565b6000807f7fffffffffffffffffffffffffffffff5d576e7357a4501ddfe92f46681b20a08311156115c75750600090506003611674565b8460ff16601b141580156115df57508460ff16601c14155b156115f05750600090506004611674565b6040805160008082526020820180845289905260ff881692820192909252606081018690526080810185905260019060a0016020604051602081039080840390855afa158015611644573d6000803e3d6000fd5b5050604051601f1901519150506001600160a01b03811661166d57600060019250925050611674565b9150600090505b94509492505050565b600081600481111561169157611691611e1a565b036116995750565b60018160048111156116ad576116ad611e1a565b036116fa5760405162461bcd60e51b815260206004820152601860248201527f45434453413a20696e76616c6964207369676e6174757265000000000000000060448201526064016107c2565b600281600481111561170e5761170e611e1a565b0361175b5760405162461bcd60e51b815260206004820152601f60248201527f45434453413a20696e76616c6964207369676e6174757265206c656e6774680060448201526064016107c2565b600381600481111561176f5761176f611e1a565b036117c75760405162461bcd60e51b815260206004820152602260248201527f45434453413a20696e76616c6964207369676e6174757265202773272076616c604482015261756560f01b60648201526084016107c2565b60048160048111156117db576117db611e1a565b036105e55760405162461bcd60e51b815260206004820152602260248201527f45434453413a20696e76616c6964207369676e6174757265202776272076616c604482015261756560f01b60648201526084016107c2565b6001600160a01b0383166118975760405162461bcd60e51b815260206004820152602560248201527f45524332303a207472616e736665722066726f6d20746865207a65726f206164604482015264647265737360d81b60648201526084016107c2565b6001600160a01b0382166118f95760405162461bcd60e51b815260206004820152602360248201527f45524332303a207472616e7366657220746f20746865207a65726f206164647260448201526265737360e81b60648201526084016107c2565b6001600160a01b038316600090815260208190526040902054818110156119715760405162461bcd60e51b815260206004820152602660248201527f45524332303a207472616e7366657220616d6f756e7420657863656564732062604482015265616c616e636560d01b60648201526084016107c2565b6001600160a01b038085166000908152602081905260408082208585039055918516815290812080548492906119a8908490611df4565b92505081905550826001600160a01b0316846001600160a01b03167fddf252ad1be2c89b69c2b068fc378daa952ba7f163c4a11628f55a4df523b3ef846040516119f491815260200190565b60405180910390a3610825565b6000611a0d8484610a6c565b905060001981146108255781811015611a685760405162461bcd60e51b815260206004820152601d60248201527f45524332303a20696e73756666696369656e7420616c6c6f77616e636500000060448201526064016107c2565b6108258484848403610dc1565b60005b83811015611a90578181015183820152602001611a78565b50506000910152565b60008151808452611ab1816020860160208601611a75565b601f01601f19169290920160200192915050565b602081526000610a656020830184611a99565b80356001600160a01b0381168114610f8957600080fd5b60008060408385031215611b0257600080fd5b611b0b83611ad8565b946020939093013593505050565b600060208284031215611b2b57600080fd5b610a6582611ad8565b80151581146105e557600080fd5b600060208284031215611b5457600080fd5b8135610a6581611b34565b600080600060608486031215611b7457600080fd5b611b7d84611ad8565b9250611b8b60208501611ad8565b9150604084013590509250925092565b600060208284031215611bad57600080fd5b5035919050565b604081526000611bc76040830185611a99565b82810360208401526106c28185611a99565b600060208284031215611beb57600080fd5b813560038110610a6557600080fd5b600080600080600080600060e0888a031215611c1557600080fd5b611c1e88611ad8565b9650611c2c60208901611ad8565b95506040880135945060608801359350608088013560ff81168114611c5057600080fd5b9699959850939692959460a0840135945060c09093013592915050565b60008060408385031215611c8057600080fd5b611c8983611ad8565b9150611c9760208401611ad8565b90509250929050565b600181811c90821680611cb457607f821691505b6020821081036114df57634e487b7160e01b600052602260045260246000fd5b634e487b7160e01b600052601160045260246000fd5b600181815b80851115611d25578160001904821115611d0b57611d0b611cd4565b80851615611d1857918102915b93841c9390800290611cef565b509250929050565b600082611d3c575060016105af565b81611d49575060006105af565b8160018114611d5f5760028114611d6957611d85565b60019150506105af565b60ff841115611d7a57611d7a611cd4565b50506001821b6105af565b5060208310610133831016604e8410600b8410161715611da8575081810a6105af565b611db28383611cea565b8060001904821115611dc657611dc6611cd4565b029392505050565b6000610a6560ff841683611d2d565b80820281158282048414176105af576105af611cd4565b808201808211156105af576105af611cd4565b818103818111156105af576105af611cd4565b634e487b7160e01b600052602160045260246000fd5b602080825260139082015272115490cc8c10930bd09b1858dadb1a5cdd1959606a1b604082015260600190565b60008251611e6f818460208701611a75565b9190910192915050565b600060208284031215611e8b57600080fd5b8151610a6581611b3456fea26469706673582212203a360c061c4fa925d8c1d51bff4952ef24a681351d55efa9314d2551692eecf664736f6c63430008140033",
    "linkReferences": {}
  },
  "methodIdentifiers": {
    "$(uint256)": "25db769e",
    "DOMAIN_SEPARATOR()": "3644e515",
    "__decimals()": "8ea2da7d",
    "_blacklisted(address)": "7a6d69b4",
    "addAdmin(address)": "70480275",
    "admins(address)": "429b62e5",
    "allowance(address,address)": "dd62ed3e",
    "approve(address,uint256)": "095ea7b3",
    "approveResponse(uint8)": "ec483fb7",
    "balanceOf(address)": "70a08231",
    "blacklists(address)": "16c02129",
    "burn(address,uint256)": "9dc29fac",
    "decimals()": "313ce567",
    "decreaseAllowance(address,uint256)": "a457c2d7",
    "failSoftly(bool)": "191d2481",
    "getMethodResponse()": "3a190d0a",
    "increaseAllowance(address,uint256)": "39509351",
    "mint(uint256)": "a0712d68",
    "mintLimit()": "996517cf",
    "mintTo(address,uint256)": "449a52f8",
    "name()": "06fdde03",
    "nonces(address)": "7ecebe00",
    "parentApprove(address,uint256)": "db1566a7",
    "parentTransfer(address,uint256)": "f304cda1",
    "parentTransferFrom(address,address,uint256)": "f9ddaf03",
    "permit(address,address,uint256,uint256,uint8,bytes32,bytes32)": "d505accf",
    "removeAdmin(address)": "1785f53c",
    "setMintLimit(uint256)": "9e6a1d7d",
    "symbol()": "95d89b41",
    "totalSupply()": "18160ddd",
    "transfer(address,uint256)": "a9059cbb",
    "transferFrom(address,address,uint256)": "23b872dd",
    "transferResponse(uint8)": "9d8e193d",
    "whitelists(address)": "1e7be210"
  },
  "id": 78
}