{
  "abi": [
    {
      "inputs": [
        {
          "internalType": "bytes",
          "name": "jsonBytes",
          "type": "bytes"
        }
      ],
      "name": "parseJsonBytes",
      "outputs": [
        {
          "components": [
            {
              "internalType": "address",
              "name": "addr",
              "type": "address"
            },
            {
              "internalType": "string",
              "name": "name",
              "type": "string"
            }
          ],
          "internalType": "struct Record[]",
          "name": "",
          "type": "tuple[]"
        }
      ],
      "stateMutability": "pure",
      "type": "function"
    }
  ],
  "bytecode": {
    "object": "0x608060405234801561001057600080fd5b506103d4806100206000396000f3fe608060405234801561001057600080fd5b506004361061002b5760003560e01c80633efef57e14610030575b600080fd5b61004361003e36600461010d565b610059565b60405161005091906101b1565b60405180910390f35b60608180602001905181019061006f919061024b565b92915050565b634e487b7160e01b600052604160045260246000fd5b6040805190810167ffffffffffffffff811182821017156100ae576100ae610075565b60405290565b604051601f8201601f1916810167ffffffffffffffff811182821017156100dd576100dd610075565b604052919050565b600067ffffffffffffffff8211156100ff576100ff610075565b50601f01601f191660200190565b60006020828403121561011f57600080fd5b813567ffffffffffffffff81111561013657600080fd5b8201601f8101841361014757600080fd5b803561015a610155826100e5565b6100b4565b81815285602083850101111561016f57600080fd5b81602084016020830137600091810160200191909152949350505050565b60005b838110156101a8578181015183820152602001610190565b50506000910152565b60006020808301818452808551808352604092508286019150828160051b87010184880160005b8381101561023d57888303603f19018552815180516001600160a01b031684528701518784018790528051878501819052606061021a82828801858d0161018d565b96890196601f91909101601f1916949094019093019250908601906001016101d8565b509098975050505050505050565b6000602080838503121561025e57600080fd5b825167ffffffffffffffff8082111561027657600080fd5b818501915085601f83011261028a57600080fd5b81518181111561029c5761029c610075565b8060051b6102ab8582016100b4565b91825283810185019185810190898411156102c557600080fd5b86860192505b83831015610391578251858111156102e35760008081fd5b86016040818c03601f19018113156102fb5760008081fd5b61030361008b565b828a01516001600160a01b038116811461031d5760008081fd5b815282820151888111156103315760008081fd5b8084019350508c603f8401126103475760008081fd5b89830151610357610155826100e5565b8181528e8483870101111561036c5760008081fd5b61037b828d830186880161018d565b828c0152508452505091860191908601906102cb565b999850505050505050505056fea2646970667358221220388edaf97026bec1280dd6b1cc5e5652404bf5b026100c1d38397d5126a350c264736f6c63430008140033",
    "linkReferences": {}
  },
  "methodIdentifiers": {
    "parseJsonBytes(bytes)": "3efef57e"
  },
  "id": 70
}