{
  "abi": [
    {
      "inputs": [
        {
          "internalType": "address",
          "name": "mgv",
          "type": "address"
        }
      ],
      "stateMutability": "nonpayable",
      "type": "constructor"
    },
    {
      "inputs": [],
      "name": "MGV",
      "outputs": [
        {
          "internalType": "contract IMangrove",
          "name": "",
          "type": "address"
        }
      ],
      "stateMutability": "view",
      "type": "function"
    },
    {
      "inputs": [
        {
          "components": [
            {
              "internalType": "address",
              "name": "outbound_tkn",
              "type": "address"
            },
            {
              "internalType": "address",
              "name": "inbound_tkn",
              "type": "address"
            },
            {
              "internalType": "uint256",
              "name": "tickSpacing",
              "type": "uint256"
            }
          ],
          "internalType": "struct OLKey",
          "name": "olKey",
          "type": "tuple"
        }
      ],
      "name": "configInfo",
      "outputs": [
        {
          "components": [
            {
              "internalType": "address",
              "name": "monitor",
              "type": "address"
            },
            {
              "internalType": "bool",
              "name": "useOracle",
              "type": "bool"
            },
            {
              "internalType": "bool",
              "name": "notify",
              "type": "bool"
            },
            {
              "internalType": "uint256",
              "name": "gasprice",
              "type": "uint256"
            },
            {
              "internalType": "uint256",
              "name": "gasmax",
              "type": "uint256"
            },
            {
              "internalType": "bool",
              "name": "dead",
              "type": "bool"
            },
            {
              "internalType": "uint256",
              "name": "maxRecursionDepth",
              "type": "uint256"
            },
            {
              "internalType": "uint256",
              "name": "maxGasreqForFailingOffers",
              "type": "uint256"
            }
          ],
          "internalType": "struct GlobalUnpacked",
          "name": "_global",
          "type": "tuple"
        },
        {
          "components": [
            {
              "internalType": "bool",
              "name": "active",
              "type": "bool"
            },
            {
              "internalType": "uint256",
              "name": "fee",
              "type": "uint256"
            },
            {
              "internalType": "Density",
              "name": "density",
              "type": "uint256"
            },
            {
              "internalType": "uint256",
              "name": "binPosInLeaf",
              "type": "uint256"
            },
            {
              "internalType": "Field",
              "name": "level3",
              "type": "uint256"
            },
            {
              "internalType": "Field",
              "name": "level2",
              "type": "uint256"
            },
            {
              "internalType": "Field",
              "name": "level1",
              "type": "uint256"
            },
            {
              "internalType": "Field",
              "name": "root",
              "type": "uint256"
            },
            {
              "internalType": "uint256",
              "name": "kilo_offer_gasbase",
              "type": "uint256"
            },
            {
              "internalType": "bool",
              "name": "lock",
              "type": "bool"
            },
            {
              "internalType": "uint256",
              "name": "last",
              "type": "uint256"
            }
          ],
          "internalType": "struct LocalUnpacked",
          "name": "_local",
          "type": "tuple"
        }
      ],
      "stateMutability": "view",
      "type": "function"
    },
    {
      "inputs": [
        {
          "components": [
            {
              "internalType": "address",
              "name": "outbound_tkn",
              "type": "address"
            },
            {
              "internalType": "address",
              "name": "inbound_tkn",
              "type": "address"
            },
            {
              "internalType": "uint256",
              "name": "tickSpacing",
              "type": "uint256"
            }
          ],
          "internalType": "struct OLKey",
          "name": "olKey",
          "type": "tuple"
        },
        {
          "internalType": "uint256",
          "name": "outVolume",
          "type": "uint256"
        }
      ],
      "name": "getFee",
      "outputs": [
        {
          "internalType": "uint256",
          "name": "",
          "type": "uint256"
        }
      ],
      "stateMutability": "view",
      "type": "function"
    },
    {
      "inputs": [
        {
          "components": [
            {
              "internalType": "address",
              "name": "outbound_tkn",
              "type": "address"
            },
            {
              "internalType": "address",
              "name": "inbound_tkn",
              "type": "address"
            },
            {
              "internalType": "uint256",
              "name": "tickSpacing",
              "type": "uint256"
            }
          ],
          "internalType": "struct OLKey",
          "name": "olKey",
          "type": "tuple"
        },
        {
          "internalType": "uint256",
          "name": "ofr_gasreq",
          "type": "uint256"
        },
        {
          "internalType": "uint256",
          "name": "ofr_gasprice",
          "type": "uint256"
        }
      ],
      "name": "getProvision",
      "outputs": [
        {
          "internalType": "uint256",
          "name": "",
          "type": "uint256"
        }
      ],
      "stateMutability": "view",
      "type": "function"
    },
    {
      "inputs": [
        {
          "components": [
            {
              "internalType": "address",
              "name": "outbound_tkn",
              "type": "address"
            },
            {
              "internalType": "address",
              "name": "inbound_tkn",
              "type": "address"
            },
            {
              "internalType": "uint256",
              "name": "tickSpacing",
              "type": "uint256"
            }
          ],
          "internalType": "struct OLKey",
          "name": "olKey",
          "type": "tuple"
        },
        {
          "internalType": "uint256",
          "name": "ofr_gasreq",
          "type": "uint256"
        }
      ],
      "name": "getProvisionWithDefaultGasPrice",
      "outputs": [
        {
          "internalType": "uint256",
          "name": "",
          "type": "uint256"
        }
      ],
      "stateMutability": "view",
      "type": "function"
    },
    {
      "inputs": [],
      "name": "globalUnpacked",
      "outputs": [
        {
          "components": [
            {
              "internalType": "address",
              "name": "monitor",
              "type": "address"
            },
            {
              "internalType": "bool",
              "name": "useOracle",
              "type": "bool"
            },
            {
              "internalType": "bool",
              "name": "notify",
              "type": "bool"
            },
            {
              "internalType": "uint256",
              "name": "gasprice",
              "type": "uint256"
            },
            {
              "internalType": "uint256",
              "name": "gasmax",
              "type": "uint256"
            },
            {
              "internalType": "bool",
              "name": "dead",
              "type": "bool"
            },
            {
              "internalType": "uint256",
              "name": "maxRecursionDepth",
              "type": "uint256"
            },
            {
              "internalType": "uint256",
              "name": "maxGasreqForFailingOffers",
              "type": "uint256"
            }
          ],
          "internalType": "struct GlobalUnpacked",
          "name": "",
          "type": "tuple"
        }
      ],
      "stateMutability": "view",
      "type": "function"
    },
    {
      "inputs": [
        {
          "components": [
            {
              "internalType": "address",
              "name": "outbound_tkn",
              "type": "address"
            },
            {
              "internalType": "address",
              "name": "inbound_tkn",
              "type": "address"
            },
            {
              "internalType": "uint256",
              "name": "tickSpacing",
              "type": "uint256"
            }
          ],
          "internalType": "struct OLKey",
          "name": "olKey",
          "type": "tuple"
        }
      ],
      "name": "isEmptyOB",
      "outputs": [
        {
          "internalType": "bool",
          "name": "",
          "type": "bool"
        }
      ],
      "stateMutability": "view",
      "type": "function"
    },
    {
      "inputs": [
        {
          "components": [
            {
              "internalType": "address",
              "name": "tkn0",
              "type": "address"
            },
            {
              "internalType": "address",
              "name": "tkn1",
              "type": "address"
            },
            {
              "internalType": "uint256",
              "name": "tickSpacing",
              "type": "uint256"
            }
          ],
          "internalType": "struct Market",
          "name": "market",
          "type": "tuple"
        }
      ],
      "name": "isMarketOpen",
      "outputs": [
        {
          "internalType": "bool",
          "name": "",
          "type": "bool"
        }
      ],
      "stateMutability": "view",
      "type": "function"
    },
    {
      "inputs": [
        {
          "components": [
            {
              "internalType": "address",
              "name": "outbound_tkn",
              "type": "address"
            },
            {
              "internalType": "address",
              "name": "inbound_tkn",
              "type": "address"
            },
            {
              "internalType": "uint256",
              "name": "tickSpacing",
              "type": "uint256"
            }
          ],
          "internalType": "struct OLKey",
          "name": "olKey",
          "type": "tuple"
        }
      ],
      "name": "localUnpacked",
      "outputs": [
        {
          "components": [
            {
              "internalType": "bool",
              "name": "active",
              "type": "bool"
            },
            {
              "internalType": "uint256",
              "name": "fee",
              "type": "uint256"
            },
            {
              "internalType": "Density",
              "name": "density",
              "type": "uint256"
            },
            {
              "internalType": "uint256",
              "name": "binPosInLeaf",
              "type": "uint256"
            },
            {
              "internalType": "Field",
              "name": "level3",
              "type": "uint256"
            },
            {
              "internalType": "Field",
              "name": "level2",
              "type": "uint256"
            },
            {
              "internalType": "Field",
              "name": "level1",
              "type": "uint256"
            },
            {
              "internalType": "Field",
              "name": "root",
              "type": "uint256"
            },
            {
              "internalType": "uint256",
              "name": "kilo_offer_gasbase",
              "type": "uint256"
            },
            {
              "internalType": "bool",
              "name": "lock",
              "type": "bool"
            },
            {
              "internalType": "uint256",
              "name": "last",
              "type": "uint256"
            }
          ],
          "internalType": "struct LocalUnpacked",
          "name": "",
          "type": "tuple"
        }
      ],
      "stateMutability": "view",
      "type": "function"
    },
    {
      "inputs": [
        {
          "components": [
            {
              "internalType": "address",
              "name": "tkn0",
              "type": "address"
            },
            {
              "internalType": "address",
              "name": "tkn1",
              "type": "address"
            },
            {
              "internalType": "uint256",
              "name": "tickSpacing",
              "type": "uint256"
            }
          ],
          "internalType": "struct Market",
          "name": "market",
          "type": "tuple"
        }
      ],
      "name": "marketConfig",
      "outputs": [
        {
          "components": [
            {
              "components": [
                {
                  "internalType": "bool",
                  "name": "active",
                  "type": "bool"
                },
                {
                  "internalType": "uint256",
                  "name": "fee",
                  "type": "uint256"
                },
                {
                  "internalType": "Density",
                  "name": "density",
                  "type": "uint256"
                },
                {
                  "internalType": "uint256",
                  "name": "binPosInLeaf",
                  "type": "uint256"
                },
                {
                  "internalType": "Field",
                  "name": "level3",
                  "type": "uint256"
                },
                {
                  "internalType": "Field",
                  "name": "level2",
                  "type": "uint256"
                },
                {
                  "internalType": "Field",
                  "name": "level1",
                  "type": "uint256"
                },
                {
                  "internalType": "Field",
                  "name": "root",
                  "type": "uint256"
                },
                {
                  "internalType": "uint256",
                  "name": "kilo_offer_gasbase",
                  "type": "uint256"
                },
                {
                  "internalType": "bool",
                  "name": "lock",
                  "type": "bool"
                },
                {
                  "internalType": "uint256",
                  "name": "last",
                  "type": "uint256"
                }
              ],
              "internalType": "struct LocalUnpacked",
              "name": "config01",
              "type": "tuple"
            },
            {
              "components": [
                {
                  "internalType": "bool",
                  "name": "active",
                  "type": "bool"
                },
                {
                  "internalType": "uint256",
                  "name": "fee",
                  "type": "uint256"
                },
                {
                  "internalType": "Density",
                  "name": "density",
                  "type": "uint256"
                },
                {
                  "internalType": "uint256",
                  "name": "binPosInLeaf",
                  "type": "uint256"
                },
                {
                  "internalType": "Field",
                  "name": "level3",
                  "type": "uint256"
                },
                {
                  "internalType": "Field",
                  "name": "level2",
                  "type": "uint256"
                },
                {
                  "internalType": "Field",
                  "name": "level1",
                  "type": "uint256"
                },
                {
                  "internalType": "Field",
                  "name": "root",
                  "type": "uint256"
                },
                {
                  "internalType": "uint256",
                  "name": "kilo_offer_gasbase",
                  "type": "uint256"
                },
                {
                  "internalType": "bool",
                  "name": "lock",
                  "type": "bool"
                },
                {
                  "internalType": "uint256",
                  "name": "last",
                  "type": "uint256"
                }
              ],
              "internalType": "struct LocalUnpacked",
              "name": "config10",
              "type": "tuple"
            }
          ],
          "internalType": "struct MarketConfig",
          "name": "config",
          "type": "tuple"
        }
      ],
      "stateMutability": "view",
      "type": "function"
    },
    {
      "inputs": [
        {
          "components": [
            {
              "internalType": "address",
              "name": "outbound_tkn",
              "type": "address"
            },
            {
              "internalType": "address",
              "name": "inbound_tkn",
              "type": "address"
            },
            {
              "internalType": "uint256",
              "name": "tickSpacing",
              "type": "uint256"
            }
          ],
          "internalType": "struct OLKey",
          "name": "olKey",
          "type": "tuple"
        },
        {
          "internalType": "uint256",
          "name": "gasreq",
          "type": "uint256"
        }
      ],
      "name": "minVolume",
      "outputs": [
        {
          "internalType": "uint256",
          "name": "",
          "type": "uint256"
        }
      ],
      "stateMutability": "view",
      "type": "function"
    },
    {
      "inputs": [
        {
          "components": [
            {
              "internalType": "address",
              "name": "outbound_tkn",
              "type": "address"
            },
            {
              "internalType": "address",
              "name": "inbound_tkn",
              "type": "address"
            },
            {
              "internalType": "uint256",
              "name": "tickSpacing",
              "type": "uint256"
            }
          ],
          "internalType": "struct OLKey",
          "name": "olKey",
          "type": "tuple"
        },
        {
          "internalType": "uint256",
          "name": "outVolume",
          "type": "uint256"
        }
      ],
      "name": "minusFee",
      "outputs": [
        {
          "internalType": "uint256",
          "name": "",
          "type": "uint256"
        }
      ],
      "stateMutability": "view",
      "type": "function"
    },
    {
      "inputs": [
        {
          "components": [
            {
              "internalType": "address",
              "name": "outbound_tkn",
              "type": "address"
            },
            {
              "internalType": "address",
              "name": "inbound_tkn",
              "type": "address"
            },
            {
              "internalType": "uint256",
              "name": "tickSpacing",
              "type": "uint256"
            }
          ],
          "internalType": "struct OLKey",
          "name": "olKey",
          "type": "tuple"
        },
        {
          "internalType": "Offer",
          "name": "offer",
          "type": "uint256"
        }
      ],
      "name": "nextOfferId",
      "outputs": [
        {
          "internalType": "uint256",
          "name": "",
          "type": "uint256"
        }
      ],
      "stateMutability": "view",
      "type": "function"
    },
    {
      "inputs": [
        {
          "components": [
            {
              "internalType": "address",
              "name": "outbound_tkn",
              "type": "address"
            },
            {
              "internalType": "address",
              "name": "inbound_tkn",
              "type": "address"
            },
            {
              "internalType": "uint256",
              "name": "tickSpacing",
              "type": "uint256"
            }
          ],
          "internalType": "struct OLKey",
          "name": "olKey",
          "type": "tuple"
        },
        {
          "internalType": "uint256",
          "name": "offerId",
          "type": "uint256"
        }
      ],
      "name": "nextOfferIdById",
      "outputs": [
        {
          "internalType": "uint256",
          "name": "",
          "type": "uint256"
        }
      ],
      "stateMutability": "view",
      "type": "function"
    },
    {
      "inputs": [],
      "name": "numOpenMarkets",
      "outputs": [
        {
          "internalType": "uint256",
          "name": "",
          "type": "uint256"
        }
      ],
      "stateMutability": "view",
      "type": "function"
    },
    {
      "inputs": [
        {
          "components": [
            {
              "internalType": "address",
              "name": "outbound_tkn",
              "type": "address"
            },
            {
              "internalType": "address",
              "name": "inbound_tkn",
              "type": "address"
            },
            {
              "internalType": "uint256",
              "name": "tickSpacing",
              "type": "uint256"
            }
          ],
          "internalType": "struct OLKey",
          "name": "olKey",
          "type": "tuple"
        },
        {
          "internalType": "uint256",
          "name": "offerId",
          "type": "uint256"
        }
      ],
      "name": "offerInfo",
      "outputs": [
        {
          "components": [
            {
              "internalType": "uint256",
              "name": "prev",
              "type": "uint256"
            },
            {
              "internalType": "uint256",
              "name": "next",
              "type": "uint256"
            },
            {
              "internalType": "Tick",
              "name": "tick",
              "type": "int256"
            },
            {
              "internalType": "uint256",
              "name": "gives",
              "type": "uint256"
            }
          ],
          "internalType": "struct OfferUnpacked",
          "name": "offer",
          "type": "tuple"
        },
        {
          "components": [
            {
              "internalType": "address",
              "name": "maker",
              "type": "address"
            },
            {
              "internalType": "uint256",
              "name": "gasreq",
              "type": "uint256"
            },
            {
              "internalType": "uint256",
              "name": "kilo_offer_gasbase",
              "type": "uint256"
            },
            {
              "internalType": "uint256",
              "name": "gasprice",
              "type": "uint256"
            }
          ],
          "internalType": "struct OfferDetailUnpacked",
          "name": "offerDetail",
          "type": "tuple"
        }
      ],
      "stateMutability": "view",
      "type": "function"
    },
    {
      "inputs": [
        {
          "components": [
            {
              "internalType": "address",
              "name": "outbound_tkn",
              "type": "address"
            },
            {
              "internalType": "address",
              "name": "inbound_tkn",
              "type": "address"
            },
            {
              "internalType": "uint256",
              "name": "tickSpacing",
              "type": "uint256"
            }
          ],
          "internalType": "struct OLKey",
          "name": "olKey",
          "type": "tuple"
        },
        {
          "internalType": "uint256",
          "name": "fromId",
          "type": "uint256"
        },
        {
          "internalType": "uint256",
          "name": "maxOffers",
          "type": "uint256"
        }
      ],
      "name": "offerList",
      "outputs": [
        {
          "internalType": "uint256",
          "name": "",
          "type": "uint256"
        },
        {
          "internalType": "uint256[]",
          "name": "",
          "type": "uint256[]"
        },
        {
          "components": [
            {
              "internalType": "uint256",
              "name": "prev",
              "type": "uint256"
            },
            {
              "internalType": "uint256",
              "name": "next",
              "type": "uint256"
            },
            {
              "internalType": "Tick",
              "name": "tick",
              "type": "int256"
            },
            {
              "internalType": "uint256",
              "name": "gives",
              "type": "uint256"
            }
          ],
          "internalType": "struct OfferUnpacked[]",
          "name": "",
          "type": "tuple[]"
        },
        {
          "components": [
            {
              "internalType": "address",
              "name": "maker",
              "type": "address"
            },
            {
              "internalType": "uint256",
              "name": "gasreq",
              "type": "uint256"
            },
            {
              "internalType": "uint256",
              "name": "kilo_offer_gasbase",
              "type": "uint256"
            },
            {
              "internalType": "uint256",
              "name": "gasprice",
              "type": "uint256"
            }
          ],
          "internalType": "struct OfferDetailUnpacked[]",
          "name": "",
          "type": "tuple[]"
        }
      ],
      "stateMutability": "view",
      "type": "function"
    },
    {
      "inputs": [
        {
          "components": [
            {
              "internalType": "address",
              "name": "outbound_tkn",
              "type": "address"
            },
            {
              "internalType": "address",
              "name": "inbound_tkn",
              "type": "address"
            },
            {
              "internalType": "uint256",
              "name": "tickSpacing",
              "type": "uint256"
            }
          ],
          "internalType": "struct OLKey",
          "name": "olKey",
          "type": "tuple"
        },
        {
          "internalType": "uint256",
          "name": "fromId",
          "type": "uint256"
        },
        {
          "internalType": "uint256",
          "name": "maxOffers",
          "type": "uint256"
        }
      ],
      "name": "offerListEndPoints",
      "outputs": [
        {
          "internalType": "uint256",
          "name": "startId",
          "type": "uint256"
        },
        {
          "internalType": "uint256",
          "name": "length",
          "type": "uint256"
        }
      ],
      "stateMutability": "view",
      "type": "function"
    },
    {
      "inputs": [
        {
          "internalType": "uint256",
          "name": "from",
          "type": "uint256"
        },
        {
          "internalType": "uint256",
          "name": "maxLen",
          "type": "uint256"
        },
        {
          "internalType": "bool",
          "name": "withConfig",
          "type": "bool"
        }
      ],
      "name": "openMarkets",
      "outputs": [
        {
          "components": [
            {
              "internalType": "address",
              "name": "tkn0",
              "type": "address"
            },
            {
              "internalType": "address",
              "name": "tkn1",
              "type": "address"
            },
            {
              "internalType": "uint256",
              "name": "tickSpacing",
              "type": "uint256"
            }
          ],
          "internalType": "struct Market[]",
          "name": "markets",
          "type": "tuple[]"
        },
        {
          "components": [
            {
              "components": [
                {
                  "internalType": "bool",
                  "name": "active",
                  "type": "bool"
                },
                {
                  "internalType": "uint256",
                  "name": "fee",
                  "type": "uint256"
                },
                {
                  "internalType": "Density",
                  "name": "density",
                  "type": "uint256"
                },
                {
                  "internalType": "uint256",
                  "name": "binPosInLeaf",
                  "type": "uint256"
                },
                {
                  "internalType": "Field",
                  "name": "level3",
                  "type": "uint256"
                },
                {
                  "internalType": "Field",
                  "name": "level2",
                  "type": "uint256"
                },
                {
                  "internalType": "Field",
                  "name": "level1",
                  "type": "uint256"
                },
                {
                  "internalType": "Field",
                  "name": "root",
                  "type": "uint256"
                },
                {
                  "internalType": "uint256",
                  "name": "kilo_offer_gasbase",
                  "type": "uint256"
                },
                {
                  "internalType": "bool",
                  "name": "lock",
                  "type": "bool"
                },
                {
                  "internalType": "uint256",
                  "name": "last",
                  "type": "uint256"
                }
              ],
              "internalType": "struct LocalUnpacked",
              "name": "config01",
              "type": "tuple"
            },
            {
              "components": [
                {
                  "internalType": "bool",
                  "name": "active",
                  "type": "bool"
                },
                {
                  "internalType": "uint256",
                  "name": "fee",
                  "type": "uint256"
                },
                {
                  "internalType": "Density",
                  "name": "density",
                  "type": "uint256"
                },
                {
                  "internalType": "uint256",
                  "name": "binPosInLeaf",
                  "type": "uint256"
                },
                {
                  "internalType": "Field",
                  "name": "level3",
                  "type": "uint256"
                },
                {
                  "internalType": "Field",
                  "name": "level2",
                  "type": "uint256"
                },
                {
                  "internalType": "Field",
                  "name": "level1",
                  "type": "uint256"
                },
                {
                  "internalType": "Field",
                  "name": "root",
                  "type": "uint256"
                },
                {
                  "internalType": "uint256",
                  "name": "kilo_offer_gasbase",
                  "type": "uint256"
                },
                {
                  "internalType": "bool",
                  "name": "lock",
                  "type": "bool"
                },
                {
                  "internalType": "uint256",
                  "name": "last",
                  "type": "uint256"
                }
              ],
              "internalType": "struct LocalUnpacked",
              "name": "config10",
              "type": "tuple"
            }
          ],
          "internalType": "struct MarketConfig[]",
          "name": "configs",
          "type": "tuple[]"
        }
      ],
      "stateMutability": "view",
      "type": "function"
    },
    {
      "inputs": [
        {
          "internalType": "bool",
          "name": "withConfig",
          "type": "bool"
        }
      ],
      "name": "openMarkets",
      "outputs": [
        {
          "components": [
            {
              "internalType": "address",
              "name": "tkn0",
              "type": "address"
            },
            {
              "internalType": "address",
              "name": "tkn1",
              "type": "address"
            },
            {
              "internalType": "uint256",
              "name": "tickSpacing",
              "type": "uint256"
            }
          ],
          "internalType": "struct Market[]",
          "name": "",
          "type": "tuple[]"
        },
        {
          "components": [
            {
              "components": [
                {
                  "internalType": "bool",
                  "name": "active",
                  "type": "bool"
                },
                {
                  "internalType": "uint256",
                  "name": "fee",
                  "type": "uint256"
                },
                {
                  "internalType": "Density",
                  "name": "density",
                  "type": "uint256"
                },
                {
                  "internalType": "uint256",
                  "name": "binPosInLeaf",
                  "type": "uint256"
                },
                {
                  "internalType": "Field",
                  "name": "level3",
                  "type": "uint256"
                },
                {
                  "internalType": "Field",
                  "name": "level2",
                  "type": "uint256"
                },
                {
                  "internalType": "Field",
                  "name": "level1",
                  "type": "uint256"
                },
                {
                  "internalType": "Field",
                  "name": "root",
                  "type": "uint256"
                },
                {
                  "internalType": "uint256",
                  "name": "kilo_offer_gasbase",
                  "type": "uint256"
                },
                {
                  "internalType": "bool",
                  "name": "lock",
                  "type": "bool"
                },
                {
                  "internalType": "uint256",
                  "name": "last",
                  "type": "uint256"
                }
              ],
              "internalType": "struct LocalUnpacked",
              "name": "config01",
              "type": "tuple"
            },
            {
              "components": [
                {
                  "internalType": "bool",
                  "name": "active",
                  "type": "bool"
                },
                {
                  "internalType": "uint256",
                  "name": "fee",
                  "type": "uint256"
                },
                {
                  "internalType": "Density",
                  "name": "density",
                  "type": "uint256"
                },
                {
                  "internalType": "uint256",
                  "name": "binPosInLeaf",
                  "type": "uint256"
                },
                {
                  "internalType": "Field",
                  "name": "level3",
                  "type": "uint256"
                },
                {
                  "internalType": "Field",
                  "name": "level2",
                  "type": "uint256"
                },
                {
                  "internalType": "Field",
                  "name": "level1",
                  "type": "uint256"
                },
                {
                  "internalType": "Field",
                  "name": "root",
                  "type": "uint256"
                },
                {
                  "internalType": "uint256",
                  "name": "kilo_offer_gasbase",
                  "type": "uint256"
                },
                {
                  "internalType": "bool",
                  "name": "lock",
                  "type": "bool"
                },
                {
                  "internalType": "uint256",
                  "name": "last",
                  "type": "uint256"
                }
              ],
              "internalType": "struct LocalUnpacked",
              "name": "config10",
              "type": "tuple"
            }
          ],
          "internalType": "struct MarketConfig[]",
          "name": "",
          "type": "tuple[]"
        }
      ],
      "stateMutability": "view",
      "type": "function"
    },
    {
      "inputs": [
        {
          "internalType": "uint256",
          "name": "from",
          "type": "uint256"
        },
        {
          "internalType": "uint256",
          "name": "maxLen",
          "type": "uint256"
        }
      ],
      "name": "openMarkets",
      "outputs": [
        {
          "components": [
            {
              "internalType": "address",
              "name": "tkn0",
              "type": "address"
            },
            {
              "internalType": "address",
              "name": "tkn1",
              "type": "address"
            },
            {
              "internalType": "uint256",
              "name": "tickSpacing",
              "type": "uint256"
            }
          ],
          "internalType": "struct Market[]",
          "name": "markets",
          "type": "tuple[]"
        },
        {
          "components": [
            {
              "components": [
                {
                  "internalType": "bool",
                  "name": "active",
                  "type": "bool"
                },
                {
                  "internalType": "uint256",
                  "name": "fee",
                  "type": "uint256"
                },
                {
                  "internalType": "Density",
                  "name": "density",
                  "type": "uint256"
                },
                {
                  "internalType": "uint256",
                  "name": "binPosInLeaf",
                  "type": "uint256"
                },
                {
                  "internalType": "Field",
                  "name": "level3",
                  "type": "uint256"
                },
                {
                  "internalType": "Field",
                  "name": "level2",
                  "type": "uint256"
                },
                {
                  "internalType": "Field",
                  "name": "level1",
                  "type": "uint256"
                },
                {
                  "internalType": "Field",
                  "name": "root",
                  "type": "uint256"
                },
                {
                  "internalType": "uint256",
                  "name": "kilo_offer_gasbase",
                  "type": "uint256"
                },
                {
                  "internalType": "bool",
                  "name": "lock",
                  "type": "bool"
                },
                {
                  "internalType": "uint256",
                  "name": "last",
                  "type": "uint256"
                }
              ],
              "internalType": "struct LocalUnpacked",
              "name": "config01",
              "type": "tuple"
            },
            {
              "components": [
                {
                  "internalType": "bool",
                  "name": "active",
                  "type": "bool"
                },
                {
                  "internalType": "uint256",
                  "name": "fee",
                  "type": "uint256"
                },
                {
                  "internalType": "Density",
                  "name": "density",
                  "type": "uint256"
                },
                {
                  "internalType": "uint256",
                  "name": "binPosInLeaf",
                  "type": "uint256"
                },
                {
                  "internalType": "Field",
                  "name": "level3",
                  "type": "uint256"
                },
                {
                  "internalType": "Field",
                  "name": "level2",
                  "type": "uint256"
                },
                {
                  "internalType": "Field",
                  "name": "level1",
                  "type": "uint256"
                },
                {
                  "internalType": "Field",
                  "name": "root",
                  "type": "uint256"
                },
                {
                  "internalType": "uint256",
                  "name": "kilo_offer_gasbase",
                  "type": "uint256"
                },
                {
                  "internalType": "bool",
                  "name": "lock",
                  "type": "bool"
                },
                {
                  "internalType": "uint256",
                  "name": "last",
                  "type": "uint256"
                }
              ],
              "internalType": "struct LocalUnpacked",
              "name": "config10",
              "type": "tuple"
            }
          ],
          "internalType": "struct MarketConfig[]",
          "name": "configs",
          "type": "tuple[]"
        }
      ],
      "stateMutability": "view",
      "type": "function"
    },
    {
      "inputs": [],
      "name": "openMarkets",
      "outputs": [
        {
          "components": [
            {
              "internalType": "address",
              "name": "tkn0",
              "type": "address"
            },
            {
              "internalType": "address",
              "name": "tkn1",
              "type": "address"
            },
            {
              "internalType": "uint256",
              "name": "tickSpacing",
              "type": "uint256"
            }
          ],
          "internalType": "struct Market[]",
          "name": "",
          "type": "tuple[]"
        },
        {
          "components": [
            {
              "components": [
                {
                  "internalType": "bool",
                  "name": "active",
                  "type": "bool"
                },
                {
                  "internalType": "uint256",
                  "name": "fee",
                  "type": "uint256"
                },
                {
                  "internalType": "Density",
                  "name": "density",
                  "type": "uint256"
                },
                {
                  "internalType": "uint256",
                  "name": "binPosInLeaf",
                  "type": "uint256"
                },
                {
                  "internalType": "Field",
                  "name": "level3",
                  "type": "uint256"
                },
                {
                  "internalType": "Field",
                  "name": "level2",
                  "type": "uint256"
                },
                {
                  "internalType": "Field",
                  "name": "level1",
                  "type": "uint256"
                },
                {
                  "internalType": "Field",
                  "name": "root",
                  "type": "uint256"
                },
                {
                  "internalType": "uint256",
                  "name": "kilo_offer_gasbase",
                  "type": "uint256"
                },
                {
                  "internalType": "bool",
                  "name": "lock",
                  "type": "bool"
                },
                {
                  "internalType": "uint256",
                  "name": "last",
                  "type": "uint256"
                }
              ],
              "internalType": "struct LocalUnpacked",
              "name": "config01",
              "type": "tuple"
            },
            {
              "components": [
                {
                  "internalType": "bool",
                  "name": "active",
                  "type": "bool"
                },
                {
                  "internalType": "uint256",
                  "name": "fee",
                  "type": "uint256"
                },
                {
                  "internalType": "Density",
                  "name": "density",
                  "type": "uint256"
                },
                {
                  "internalType": "uint256",
                  "name": "binPosInLeaf",
                  "type": "uint256"
                },
                {
                  "internalType": "Field",
                  "name": "level3",
                  "type": "uint256"
                },
                {
                  "internalType": "Field",
                  "name": "level2",
                  "type": "uint256"
                },
                {
                  "internalType": "Field",
                  "name": "level1",
                  "type": "uint256"
                },
                {
                  "internalType": "Field",
                  "name": "root",
                  "type": "uint256"
                },
                {
                  "internalType": "uint256",
                  "name": "kilo_offer_gasbase",
                  "type": "uint256"
                },
                {
                  "internalType": "bool",
                  "name": "lock",
                  "type": "bool"
                },
                {
                  "internalType": "uint256",
                  "name": "last",
                  "type": "uint256"
                }
              ],
              "internalType": "struct LocalUnpacked",
              "name": "config10",
              "type": "tuple"
            }
          ],
          "internalType": "struct MarketConfig[]",
          "name": "",
          "type": "tuple[]"
        }
      ],
      "stateMutability": "view",
      "type": "function"
    },
    {
      "inputs": [
        {
          "components": [
            {
              "internalType": "address",
              "name": "outbound_tkn",
              "type": "address"
            },
            {
              "internalType": "address",
              "name": "inbound_tkn",
              "type": "address"
            },
            {
              "internalType": "uint256",
              "name": "tickSpacing",
              "type": "uint256"
            }
          ],
          "internalType": "struct OLKey",
          "name": "olKey",
          "type": "tuple"
        },
        {
          "internalType": "uint256",
          "name": "fromId",
          "type": "uint256"
        },
        {
          "internalType": "uint256",
          "name": "maxOffers",
          "type": "uint256"
        }
      ],
      "name": "packedOfferList",
      "outputs": [
        {
          "internalType": "uint256",
          "name": "",
          "type": "uint256"
        },
        {
          "internalType": "uint256[]",
          "name": "",
          "type": "uint256[]"
        },
        {
          "internalType": "Offer[]",
          "name": "",
          "type": "uint256[]"
        },
        {
          "internalType": "OfferDetail[]",
          "name": "",
          "type": "uint256[]"
        }
      ],
      "stateMutability": "view",
      "type": "function"
    },
    {
      "inputs": [
        {
          "components": [
            {
              "internalType": "address",
              "name": "outbound_tkn",
              "type": "address"
            },
            {
              "internalType": "address",
              "name": "inbound_tkn",
              "type": "address"
            },
            {
              "internalType": "uint256",
              "name": "tickSpacing",
              "type": "uint256"
            }
          ],
          "internalType": "struct OLKey",
          "name": "olKey",
          "type": "tuple"
        },
        {
          "internalType": "Offer",
          "name": "offer",
          "type": "uint256"
        }
      ],
      "name": "prevOfferId",
      "outputs": [
        {
          "internalType": "uint256",
          "name": "offerId",
          "type": "uint256"
        }
      ],
      "stateMutability": "view",
      "type": "function"
    },
    {
      "inputs": [
        {
          "components": [
            {
              "internalType": "address",
              "name": "outbound_tkn",
              "type": "address"
            },
            {
              "internalType": "address",
              "name": "inbound_tkn",
              "type": "address"
            },
            {
              "internalType": "uint256",
              "name": "tickSpacing",
              "type": "uint256"
            }
          ],
          "internalType": "struct OLKey",
          "name": "olKey",
          "type": "tuple"
        },
        {
          "internalType": "uint256",
          "name": "offerId",
          "type": "uint256"
        }
      ],
      "name": "prevOfferIdById",
      "outputs": [
        {
          "internalType": "uint256",
          "name": "",
          "type": "uint256"
        }
      ],
      "stateMutability": "view",
      "type": "function"
    },
    {
      "inputs": [
        {
          "components": [
            {
              "internalType": "address",
              "name": "outbound_tkn",
              "type": "address"
            },
            {
              "internalType": "address",
              "name": "inbound_tkn",
              "type": "address"
            },
            {
              "internalType": "uint256",
              "name": "tickSpacing",
              "type": "uint256"
            }
          ],
          "internalType": "struct OLKey",
          "name": "olKey",
          "type": "tuple"
        },
        {
          "internalType": "Tick",
          "name": "maxTick",
          "type": "int256"
        },
        {
          "internalType": "uint256",
          "name": "fillVolume",
          "type": "uint256"
        },
        {
          "internalType": "bool",
          "name": "fillWants",
          "type": "bool"
        },
        {
          "internalType": "bool",
          "name": "accumulate",
          "type": "bool"
        }
      ],
      "name": "simulateMarketOrderByTick",
      "outputs": [
        {
          "components": [
            {
              "internalType": "uint256",
              "name": "totalGot",
              "type": "uint256"
            },
            {
              "internalType": "uint256",
              "name": "totalGave",
              "type": "uint256"
            },
            {
              "internalType": "uint256",
              "name": "totalGasreq",
              "type": "uint256"
            }
          ],
          "internalType": "struct VolumeData[]",
          "name": "",
          "type": "tuple[]"
        }
      ],
      "stateMutability": "view",
      "type": "function"
    },
    {
      "inputs": [
        {
          "components": [
            {
              "internalType": "address",
              "name": "outbound_tkn",
              "type": "address"
            },
            {
              "internalType": "address",
              "name": "inbound_tkn",
              "type": "address"
            },
            {
              "internalType": "uint256",
              "name": "tickSpacing",
              "type": "uint256"
            }
          ],
          "internalType": "struct OLKey",
          "name": "olKey",
          "type": "tuple"
        },
        {
          "internalType": "Tick",
          "name": "maxTick",
          "type": "int256"
        },
        {
          "internalType": "uint256",
          "name": "fillVolume",
          "type": "uint256"
        },
        {
          "internalType": "bool",
          "name": "fillWants",
          "type": "bool"
        }
      ],
      "name": "simulateMarketOrderByTick",
      "outputs": [
        {
          "components": [
            {
              "internalType": "uint256",
              "name": "totalGot",
              "type": "uint256"
            },
            {
              "internalType": "uint256",
              "name": "totalGave",
              "type": "uint256"
            },
            {
              "internalType": "uint256",
              "name": "totalGasreq",
              "type": "uint256"
            }
          ],
          "internalType": "struct VolumeData[]",
          "name": "",
          "type": "tuple[]"
        }
      ],
      "stateMutability": "view",
      "type": "function"
    },
    {
      "inputs": [
        {
          "components": [
            {
              "internalType": "address",
              "name": "outbound_tkn",
              "type": "address"
            },
            {
              "internalType": "address",
              "name": "inbound_tkn",
              "type": "address"
            },
            {
              "internalType": "uint256",
              "name": "tickSpacing",
              "type": "uint256"
            }
          ],
          "internalType": "struct OLKey",
          "name": "olKey",
          "type": "tuple"
        },
        {
          "internalType": "uint256",
          "name": "takerWants",
          "type": "uint256"
        },
        {
          "internalType": "uint256",
          "name": "takerGives",
          "type": "uint256"
        },
        {
          "internalType": "bool",
          "name": "fillWants",
          "type": "bool"
        },
        {
          "internalType": "bool",
          "name": "accumulate",
          "type": "bool"
        }
      ],
      "name": "simulateMarketOrderByVolume",
      "outputs": [
        {
          "components": [
            {
              "internalType": "uint256",
              "name": "totalGot",
              "type": "uint256"
            },
            {
              "internalType": "uint256",
              "name": "totalGave",
              "type": "uint256"
            },
            {
              "internalType": "uint256",
              "name": "totalGasreq",
              "type": "uint256"
            }
          ],
          "internalType": "struct VolumeData[]",
          "name": "",
          "type": "tuple[]"
        }
      ],
      "stateMutability": "view",
      "type": "function"
    },
    {
      "inputs": [
        {
          "components": [
            {
              "internalType": "address",
              "name": "outbound_tkn",
              "type": "address"
            },
            {
              "internalType": "address",
              "name": "inbound_tkn",
              "type": "address"
            },
            {
              "internalType": "uint256",
              "name": "tickSpacing",
              "type": "uint256"
            }
          ],
          "internalType": "struct OLKey",
          "name": "olKey",
          "type": "tuple"
        },
        {
          "internalType": "uint256",
          "name": "takerWants",
          "type": "uint256"
        },
        {
          "internalType": "uint256",
          "name": "takerGives",
          "type": "uint256"
        },
        {
          "internalType": "bool",
          "name": "fillWants",
          "type": "bool"
        }
      ],
      "name": "simulateMarketOrderByVolume",
      "outputs": [
        {
          "components": [
            {
              "internalType": "uint256",
              "name": "totalGot",
              "type": "uint256"
            },
            {
              "internalType": "uint256",
              "name": "totalGave",
              "type": "uint256"
            },
            {
              "internalType": "uint256",
              "name": "totalGasreq",
              "type": "uint256"
            }
          ],
          "internalType": "struct VolumeData[]",
          "name": "",
          "type": "tuple[]"
        }
      ],
      "stateMutability": "view",
      "type": "function"
    },
    {
      "inputs": [
        {
          "components": [
            {
              "internalType": "address",
              "name": "tkn0",
              "type": "address"
            },
            {
              "internalType": "address",
              "name": "tkn1",
              "type": "address"
            },
            {
              "internalType": "uint256",
              "name": "tickSpacing",
              "type": "uint256"
            }
          ],
          "internalType": "struct Market",
          "name": "market",
          "type": "tuple"
        }
      ],
      "name": "updateMarket",
      "outputs": [],
      "stateMutability": "nonpayable",
      "type": "function"
    }
  ],
  "bytecode": {
    "object": "0x60a06040523480156200001157600080fd5b50604051620047d4380380620047d4833981016040819052620000349162000046565b6001600160a01b031660805262000078565b6000602082840312156200005957600080fd5b81516001600160a01b03811681146200007157600080fd5b9392505050565b608051614628620001ac600039600081816103d6015281816104fe015281816105960152818161064a0152818161078e0152818161083f01528181610903015281816109b201528181610a5401528181610b0e01528181610bad01528181610c4c01528181610cd101528181610d83015281816111950152818161122a015281816112bf015281816113f0015281816114d4015281816115560152818161161301528181611920015281816119ec01528181611bde01528181611d1c01528181611dbd015281816120d0015281816121c00152818161227301528181612337015281816123e60152818161248801528181612542015281816125e1015281816126800152818161270501528181612742015281816127ef0152818161287201528181612ab00152612bb501526146286000f3fe608060405234801561001057600080fd5b50600436106101da5760003560e01c80636534564511610104578063c4febe21116100a2578063de6d2c6211610071578063de6d2c6214610481578063f6baa87d14610494578063fbc9dd9f146104a9578063ff71dcee146104c957600080fd5b8063c4febe2114610433578063c60176c614610446578063c8c642a61461045b578063d52e77661461046e57600080fd5b80638267f649116100de5780638267f649146103b65780638f5a667c146103be57806399fa5e2d146103d15780639b69c7d21461041057600080fd5b8063653456451461035f57806379bfb7e114610372578063808c44231461039557600080fd5b80633c29bc4f1161017c578063543c76661161014b578063543c7666146103135780635ab31853146103265780635ea47a7d146103395780636001af261461034c57600080fd5b80633c29bc4f146102aa57806346bce56a146102ca5780634e2719de146102ea5780634ee79c92146102f257600080fd5b80632ab8d113116101b85780632ab8d113146102505780632cbdfc52146102635780633105b5de14610276578063336d4f771461029757600080fd5b80630cbbc897146101df5780631398392e1461020c578063148987371461022f575b600080fd5b6101f26101ed366004613e42565b6104dc565b604080519283526020830191909152015b60405180910390f35b61021f61021a366004613e76565b6106ed565b6040519015158152602001610203565b61024261023d366004613e92565b61074a565b604051908152602001610203565b61024261025e366004613e92565b610d7b565b610242610271366004613e92565b610e17565b610289610284366004613ecd565b610e25565b604051610203929190613fc1565b6102896102a5366004614052565b6110ad565b6102bd6102b836600461406d565b6110c9565b60405161020391906140c5565b6102dd6102d8366004613e76565b611389565b604051610203919061411e565b600054610242565b610305610300366004613e92565b6113b8565b60405161020392919061412d565b610289610321366004614182565b61149f565b61021f610334366004613e76565b6114ba565b610242610347366004613e92565b611551565b61024261035a366004613e42565b61160c565b6102bd61036d36600461406d565b6116e6565b610385610380366004613e42565b611720565b60405161020394939291906141df565b6103a86103a3366004613e76565b61190b565b604051610203929190614325565b6102896119cb565b6102426103cc366004613e92565b6119e7565b6103f87f000000000000000000000000000000000000000000000000000000000000000081565b6040516001600160a01b039091168152602001610203565b61042361041e366004613e42565b611aa1565b6040516102039493929190614342565b6102bd6104413660046143d5565b611cd3565b610459610454366004613e76565b611cec565b005b610242610469366004613e92565b6120cb565b6102bd61047c3660046143d5565b61216e565b61024261048f366004613e92565b61217e565b61049c612735565b604051610203919061441c565b6104bc6104b7366004613e76565b6127cc565b604051610203919061442b565b6102426104d7366004613e92565b61286a565b6000808360000361057b57604051630902455360e41b81526001600160a01b037f0000000000000000000000000000000000000000000000000000000000000000169063902455309061053390889060040161443a565b602060405180830381865afa158015610550573d6000803e3d6000fd5b505050506040513d601f19601f820116820180604052508101906105749190614448565b915061062f565b604051630129e86d60e21b815261061f906001600160a01b037f000000000000000000000000000000000000000000000000000000000000000016906304a7a1b4906105cd9089908990600401614461565b602060405180830381865afa1580156105ea573d6000803e3d6000fd5b505050506040513d601f19601f8201168201806040525081019061060e9190614448565b602c1c60016001607f1b0316151590565b61062a57600061062c565b835b91505b815b801580159061063f57508382105b156106e4576106d7867f00000000000000000000000000000000000000000000000000000000000000006001600160a01b03166304a7a1b489856040518363ffffffff1660e01b8152600401610696929190614461565b602060405180830381865afa1580156106b3573d6000803e3d6000fd5b505050506040513d601f19601f8201168201806040525081019061048f9190614448565b9050816001019150610631565b50935093915050565b6000610701826000015183602001516128be565b6001600160a01b03908116602080860191825292821680865260009081526001845260408082209251909316815290835281812094820151815293909152909120541515919050565b6000806107648460400151846128e990919063ffffffff16565b905060006107728460e01c90565b905080600003610d715760006107888360021d90565b905060007f00000000000000000000000000000000000000000000000000000000000000006001600160a01b031663ce5bbece88846040518363ffffffff1660e01b81526004016107da929190614461565b602060405180830381865afa1580156107f7573d6000803e3d6000fd5b505050506040513d601f19601f8201168201806040525081019061081b9190614448565b600019604060038716021c1916905080610d63576108398460081d90565b915060007f00000000000000000000000000000000000000000000000000000000000000006001600160a01b031663fec777b489856040518363ffffffff1660e01b815260040161088b929190614461565b602060405180830381865afa1580156108a8573d6000803e3d6000fd5b505050506040513d601f19601f820116820180604052508101906108cc9190614448565b90506108d88186612909565b905080610cc7576108e985600e1d90565b604051630adf51a960e01b81529093506001600160a01b037f00000000000000000000000000000000000000000000000000000000000000001690630adf51a99061093a908b908790600401614461565b602060405180830381865afa158015610957573d6000803e3d6000fd5b505050506040513d601f19601f8201168201806040525081019061097b9190614448565b90506109878186612926565b905080610c28576109988560141d90565b604051633637ed2b60e11b81529093506001600160a01b037f00000000000000000000000000000000000000000000000000000000000000001690636c6fda56906109e9908b908790600401614461565b602060405180830381865afa158015610a06573d6000803e3d6000fd5b505050506040513d601f19601f82011682018060405250810190610a2a9190614448565b9050610a368186612932565b905080610b89576040516341b12acf60e01b81526001600160a01b037f000000000000000000000000000000000000000000000000000000000000000016906341b12acf90610a89908b9060040161443a565b602060405180830381865afa158015610aa6573d6000803e3d6000fd5b505050506040513d601f19601f82011682018060405250810190610aca9190614448565b9050610ad6818661293e565b905080610aeb57600095505050505050610d75565b610af48161294e565b604051633637ed2b60e11b81529093506001600160a01b037f00000000000000000000000000000000000000000000000000000000000000001690636c6fda5690610b45908b908790600401614461565b602060405180830381865afa158015610b62573d6000803e3d6000fd5b505050506040513d601f19601f82011682018060405250810190610b869190614448565b90505b610b938184612962565b604051630adf51a960e01b81529093506001600160a01b037f00000000000000000000000000000000000000000000000000000000000000001690630adf51a990610be4908b908790600401614461565b602060405180830381865afa158015610c01573d6000803e3d6000fd5b505050506040513d601f19601f82011682018060405250810190610c259190614448565b90505b610c328184612962565b604051633fb1dded60e21b81529093506001600160a01b037f0000000000000000000000000000000000000000000000000000000000000000169063fec777b490610c83908b908790600401614461565b602060405180830381865afa158015610ca0573d6000803e3d6000fd5b505050506040513d601f19601f82011682018060405250810190610cc49190614448565b90505b6001600160a01b037f00000000000000000000000000000000000000000000000000000000000000001663ce5bbece89610d018487612962565b6040518363ffffffff1660e01b8152600401610d1e929190614461565b602060405180830381865afa158015610d3b573d6000803e3d6000fd5b505050506040513d601f19601f82011682018060405250810190610d5f9190614448565b9150505b610d6c8161297a565b925050505b9150505b92915050565b6000610e10837f00000000000000000000000000000000000000000000000000000000000000006001600160a01b03166304a7a1b486866040518363ffffffff1660e01b8152600401610dcf929190614461565b602060405180830381865afa158015610dec573d6000803e3d6000fd5b505050506040513d601f19601f8201168201806040525081019061023d9190614448565b9392505050565b6000610e108383600061160c565b600054606090819080610e388688614492565b1115610e4b57610e4886826144a5565b94505b846001600160401b03811115610e6357610e63613d9b565b604051908082528060200260200182016040528015610eae57816020015b6040805160608101825260008082526020808301829052928201528252600019909201910181610e815790505b50925083610ebd576000610ebf565b845b6001600160401b03811115610ed657610ed6613d9b565b604051908082528060200260200182016040528015610f0f57816020015b610efc613c93565b815260200190600190039081610ef45790505b50915060005b858110156110a35760008082890181548110610f3357610f336144b8565b6000918252602082206003909102015481546001600160a01b03909116925081908a8501908110610f6657610f666144b8565b6000918252602082206001600390920201015481546001600160a01b03909116925081908b8601908110610f9c57610f9c6144b8565b90600052602060002090600302016002015490506040518060600160405280846001600160a01b03168152602001836001600160a01b0316815260200182815250878581518110610fef57610fef6144b8565b60200260200101819052508715611095576110256104b7888681518110611018576110186144b8565b60200260200101516129af565b868581518110611037576110376144b8565b6020026020010151600001819052506110736104b761106e898781518110611061576110616144b8565b60200260200101516129f8565b6129af565b868581518110611085576110856144b8565b6020026020010151602001819052505b505050806001019050610f15565b5050935093915050565b6060806110c06000808054905085610e25565b91509150915091565b6060611178604080516102a08101909152600061024082018181526102608301829052610280830191909152819081526020016000815260200160008152602001600081526020016000815260200160008152602001600081526020016000815260200160008152602001600015158152602001600081526020016000815260200160008152602001600081526020016060815260200160008152602001600015158152602001600081525090565b86815260405163293ad90960e11b81526000906001600160a01b037f00000000000000000000000000000000000000000000000000000000000000001690635275b212906111ca908b9060040161443a565b6040805180830381865afa1580156111e6573d6000803e3d6000fd5b505050506040513d601f19601f8201168201806040525081019061120a91906144ce565b6101a0840152604051630902455360e41b81529091506001600160a01b037f0000000000000000000000000000000000000000000000000000000000000000169063902455309061125f908b9060040161443a565b602060405180830381865afa15801561127c573d6000803e3d6000fd5b505050506040513d601f19601f820116820180604052508101906112a09190614448565b6101408301819052604051630129e86d60e21b81526001600160a01b037f000000000000000000000000000000000000000000000000000000000000000016916304a7a1b4916112f4918c91600401614461565b602060405180830381865afa158015611311573d6000803e3d6000fd5b505050506040513d601f19601f820116820180604052508101906113359190614448565b6101608301526020820187905260c0820186905260408201869052841515610120830152831515610200830152602381901c60ff1661022083015261137982612a41565b506101c001519695505050505050565b611391613c93565b61139d6104b7836129af565b81526113ae6104b761106e846129f8565b6020820152919050565b6113e36040518060800160405280600081526020016000815260200160008152602001600081525090565b6113eb613cb8565b6000807f00000000000000000000000000000000000000000000000000000000000000006001600160a01b031663c7b06e8787876040518363ffffffff1660e01b815260040161143c929190614461565b6040805180830381865afa158015611458573d6000803e3d6000fd5b505050506040513d601f19601f8201168201806040525081019061147c91906144ce565b9150915061148982612d9c565b935061149481612e01565b925050509250929050565b6060806114ae84846001610e25565b915091505b9250929050565b604051630902455360e41b81526000906001600160a01b037f0000000000000000000000000000000000000000000000000000000000000000169063902455309061150990859060040161443a565b602060405180830381865afa158015611526573d6000803e3d6000fd5b505050506040513d601f19601f8201168201806040525081019061154a9190614448565b1592915050565b6000807f00000000000000000000000000000000000000000000000000000000000000006001600160a01b0316635275b212856040518263ffffffff1660e01b81526004016115a0919061443a565b6040805180830381865afa1580156115bc573d6000803e3d6000fd5b505050506040513d601f19601f820116820180604052508101906115e091906144ce565b915061271090506115f860ff60f784901c16826144a5565b61160290856144f2565b610d71919061451f565b60008060007f00000000000000000000000000000000000000000000000000000000000000006001600160a01b0316635275b212876040518263ffffffff1660e01b815260040161165d919061443a565b6040805180830381865afa158015611679573d6000803e3d6000fd5b505050506040513d601f19601f8201168201806040525081019061169d91906144ce565b909250905060006303ffffff604484901c16858111156116bf578091506116c3565b8591505b816103e86101ff602186901c1602880102620f4240029450505050509392505050565b60606000836116f557846116f7565b855b905060006117058688612e43565b905061171488828488886110c9565b98975050505050505050565b604080516060818101835285825260208201859052918101839052600091908190819084806117508a8a8a6104dc565b915091506000816001600160401b0381111561176e5761176e613d9b565b604051908082528060200260200182016040528015611797578160200160208202803683370190505b5090506000826001600160401b038111156117b4576117b4613d9b565b60405190808252806020026020018201604052801561181057816020015b6117fd6040518060800160405280600081526020016000815260200160008152602001600081525090565b8152602001906001900390816117d25790505b5090506000836001600160401b0381111561182d5761182d613d9b565b60405190808252806020026020018201604052801561186657816020015b611853613cb8565b81526020019060019003908161184b5790505b50905060005b851580159061187a57508481105b156118f65785848281518110611892576118926144b8565b6020026020010181815250506118a88e876113b8565b8483815181106118ba576118ba6144b8565b602002602001018484815181106118d3576118d36144b8565b6020026020010182905282905250506118ec8e8761286a565b955060010161186c565b50939c919b5099509197509095505050505050565b611913613ce9565b61191b613d3d565b6000807f00000000000000000000000000000000000000000000000000000000000000006001600160a01b0316635275b212866040518263ffffffff1660e01b815260040161196a919061443a565b6040805180830381865afa158015611986573d6000803e3d6000fd5b505050506040513d601f19601f820116820180604052508101906119aa91906144ce565b915091506119b782612e60565b93506119c281612eda565b92505050915091565b6060806119df600080805490506001610e25565b915091509091565b6000807f00000000000000000000000000000000000000000000000000000000000000006001600160a01b0316631c043215856040518263ffffffff1660e01b8152600401611a36919061443a565b602060405180830381865afa158015611a53573d6000803e3d6000fd5b505050506040513d601f19601f82011682018060405250810190611a779190614448565b9050610d71611a92602183901c6101ff166103e80285614492565b60ee83901c6101ff1690612f7a565b60408051606081810183528582526020820185905291810183905260009190819081908480611ad18a8a8a6104dc565b915091506000816001600160401b03811115611aef57611aef613d9b565b604051908082528060200260200182016040528015611b18578160200160208202803683370190505b5090506000826001600160401b03811115611b3557611b35613d9b565b604051908082528060200260200182016040528015611b5e578160200160208202803683370190505b5090506000836001600160401b03811115611b7b57611b7b613d9b565b604051908082528060200260200182016040528015611ba4578160200160208202803683370190505b50905060005b8515801590611bb857508481105b156118f65785848281518110611bd057611bd06144b8565b6020026020010181815250507f00000000000000000000000000000000000000000000000000000000000000006001600160a01b031663c7b06e878f886040518363ffffffff1660e01b8152600401611c2a929190614461565b6040805180830381865afa158015611c46573d6000803e3d6000fd5b505050506040513d601f19601f82011682018060405250810190611c6a91906144ce565b848381518110611c7c57611c7c6144b8565b60200260200101848481518110611c9557611c956144b8565b6020026020010182815250828152505050611cc98e848381518110611cbc57611cbc6144b8565b602002602001015161217e565b9550600101611baa565b6060611ce38585858560016110c9565b95945050505050565b611cfe816000015182602001516128be565b6001600160a01b0390811660208401529081168252600090611db2907f000000000000000000000000000000000000000000000000000000000000000016631c043215611d4a856129af565b6040518263ffffffff1660e01b8152600401611d66919061443a565b602060405180830381865afa158015611d83573d6000803e3d6000fd5b505050506040513d601f19601f82011682018060405250810190611da79190614448565b600160ff1b16151590565b80611df65750611df67f00000000000000000000000000000000000000000000000000000000000000006001600160a01b0316631c043215611d4a61106e866129f8565b82516001600160a01b03908116600090815260016020908152604080832082880151909416835292815282822083870151835290522054909150818015611e3b575080155b15611f22576000805460018181018355828052855160039092027f290decd9548b62a8d60345a988386fc84ba6bc95484008f6362f93160ef3e563810180546001600160a01b039485166001600160a01b031991821681179092556020808a0180517f290decd9548b62a8d60345a988386fc84ba6bc95484008f6362f93160ef3e5648601805491891691909416179092556040808b0180517f290decd9548b62a8d60345a988386fc84ba6bc95484008f6362f93160ef3e56590960195909555875493885294815284872091519095168652845282852091518552925290912055505050565b81158015611f305750600081115b156120c657600054600181111561204257600080611f4f6001846144a5565b81548110611f5f57611f5f6144b8565b6000918252602080832060408051606081018252600390940290910180546001600160a01b039081168552600180830154909116938501939093526002015490830152909250829190611fb290866144a5565b81548110611fc257611fc26144b8565b60009182526020808320845160039093020180546001600160a01b039384166001600160a01b03199182161782558583015160018084018054928716929093169190911790915560409586015160029092019190915585518316845281528383208582015190921683529081528282209383015182529290925290208290555b600080548061205357612053614541565b6000828152602080822060036000199094019384020180546001600160a01b031990811682556001828101805490921690915560029091018390559290935586516001600160a01b0390811682529183526040808220888501519093168252918352818120828801518252909252812055505b505050565b6000807f00000000000000000000000000000000000000000000000000000000000000006001600160a01b0316635275b212856040518263ffffffff1660e01b815260040161211a919061443a565b6040805180830381865afa158015612136573d6000803e3d6000fd5b505050506040513d601f19601f8201168201806040525081019061215a91906144ce565b9150612710905060f782901c60ff166115f8565b6060611ce38585858560016116e6565b6000806121988460400151846128e990919063ffffffff16565b905063ffffffff60c084901c166000819003610d715760006121ba8360021d90565b905060007f00000000000000000000000000000000000000000000000000000000000000006001600160a01b031663ce5bbece88846040518363ffffffff1660e01b815260040161220c929190614461565b602060405180830381865afa158015612229573d6000803e3d6000fd5b505050506040513d601f19601f8201168201806040525081019061224d9190614448565b600019604060016003881601021c16905080610d635761226d8460081d90565b915060007f00000000000000000000000000000000000000000000000000000000000000006001600160a01b031663fec777b489856040518363ffffffff1660e01b81526004016122bf929190614461565b602060405180830381865afa1580156122dc573d6000803e3d6000fd5b505050506040513d601f19601f820116820180604052508101906123009190614448565b905061230c8186612fb3565b9050806126fb5761231d85600e1d90565b604051630adf51a960e01b81529093506001600160a01b037f00000000000000000000000000000000000000000000000000000000000000001690630adf51a99061236e908b908790600401614461565b602060405180830381865afa15801561238b573d6000803e3d6000fd5b505050506040513d601f19601f820116820180604052508101906123af9190614448565b90506123bb8186612fd4565b90508061265c576123cc8560141d90565b604051633637ed2b60e11b81529093506001600160a01b037f00000000000000000000000000000000000000000000000000000000000000001690636c6fda569061241d908b908790600401614461565b602060405180830381865afa15801561243a573d6000803e3d6000fd5b505050506040513d601f19601f8201168201806040525081019061245e9190614448565b905061246a8186612fe0565b9050806125bd576040516341b12acf60e01b81526001600160a01b037f000000000000000000000000000000000000000000000000000000000000000016906341b12acf906124bd908b9060040161443a565b602060405180830381865afa1580156124da573d6000803e3d6000fd5b505050506040513d601f19601f820116820180604052508101906124fe9190614448565b905061250a8186612fec565b90508061251f57600095505050505050610d75565b61252881612ffc565b604051633637ed2b60e11b81529093506001600160a01b037f00000000000000000000000000000000000000000000000000000000000000001690636c6fda5690612579908b908790600401614461565b602060405180830381865afa158015612596573d6000803e3d6000fd5b505050506040513d601f19601f820116820180604052508101906125ba9190614448565b90505b6125c78184613009565b604051630adf51a960e01b81529093506001600160a01b037f00000000000000000000000000000000000000000000000000000000000000001690630adf51a990612618908b908790600401614461565b602060405180830381865afa158015612635573d6000803e3d6000fd5b505050506040513d601f19601f820116820180604052508101906126599190614448565b90505b6126668184613009565b604051633fb1dded60e21b81529093506001600160a01b037f0000000000000000000000000000000000000000000000000000000000000000169063fec777b4906126b7908b908790600401614461565b602060405180830381865afa1580156126d4573d6000803e3d6000fd5b505050506040513d601f19601f820116820180604052508101906126f89190614448565b90505b6001600160a01b037f00000000000000000000000000000000000000000000000000000000000000001663ce5bbece89610d018487613009565b61273d613ce9565b6127c77f00000000000000000000000000000000000000000000000000000000000000006001600160a01b031663a05f99066040518163ffffffff1660e01b8152600401602060405180830381865afa15801561279e573d6000803e3d6000fd5b505050506040513d601f19601f820116820180604052508101906127c29190614448565b612e60565b905090565b6127d4613d3d565b604051631c04321560e01b8152610d75906001600160a01b037f00000000000000000000000000000000000000000000000000000000000000001690631c0432159061282490869060040161443a565b602060405180830381865afa158015612841573d6000803e3d6000fd5b505050506040513d601f19601f820116820180604052508101906128659190614448565b612eda565b6000610e10837f00000000000000000000000000000000000000000000000000000000000000006001600160a01b03166304a7a1b486866040518363ffffffff1660e01b8152600401610696929190614461565b600080826001600160a01b0316846001600160a01b0316106128e15782846114ae565b509192909150565b6000610e10826128fc8560401b60eb1d90565b9060008183071391050190565b60008061291583613014565b600019901b19841691505092915050565b60008061291583613029565b60008061291583613037565b6000806129158360141d60010190565b6000600161295b83613045565b0392915050565b600061296d83613045565b6040830201905092915050565b6000610d75826001600160401b036001600160801b038211600781901b83901c9190911115901560011b176040021b60e01c90565b604080516060808201835260008083526020808401829052928401528251908101835283516001600160a01b039081168252848301511691810191909152918101519082015290565b6040805160608082018352600080835260208084018290529284015282519081018352838201516001600160a01b03908116825284511691810191909152918101519082015290565b60008160c00151118015612a645750602081015161016082015160401b60eb1d13155b8015612a7557506000816101400151115b8015612a8657506000816102200151115b15612cc0576101e0810151815161014083015160405163e982fb8d60e01b81526001600160a01b037f0000000000000000000000000000000000000000000000000000000000000000169263e982fb8d92612ae392600401614461565b602060405180830381865afa158015612b00573d6000803e3d6000fd5b505050506040513d601f19601f82011682018060405250810190612b249190614448565b61018083015261022082018051600019019052612b4082613050565b6060820151608083015160a08401516101e0850180516001019052610120850151612b7057846101000151612b76565b8460e001515b60c0860180519190910390528451610160860151612b94919061217e565b61014086018190528551604051630129e86d60e21b81526001600160a01b037f000000000000000000000000000000000000000000000000000000000000000016926304a7a1b492612beb92909190600401614461565b602060405180830381865afa158015612c08573d6000803e3d6000fd5b505050506040513d601f19601f82011682018060405250810190612c2c9190614448565b610160860152612c3b85612a41565b84610200015180612c4a575083155b15612cb9576101a08501516000906127109060f71c60ff1687606001510281612c7557612c75614509565b0490506040518060600160405280828603815260200184815260200183815250866101c001518681518110612cac57612cac6144b8565b6020026020010181905250505b5050505050565b80610200015115612d4757806101e001516001600160401b03811115612ce857612ce8613d9b565b604051908082528060200260200182016040528015612d3d57816020015b612d2a60405180606001604052806000815260200160008152602001600081525090565b815260200190600190039081612d065790505b506101c082015250565b60408051600180825281830190925290816020015b612d8060405180606001604052806000815260200160008152602001600081525090565b815260200190600190039081612d5c579050506101c082015250565b612dc76040518060800160405280600081526020016000815260200160008152602001600081525090565b60e082901c815260c082901c63ffffffff166020820152604082811b60eb1d90820152602c9190911c60016001607f1b0316606082015290565b612e09613cb8565b606082811c8252604883901c62ffffff166020830152603f83901c6101ff16604083015260259290921c6303ffffff169181019190915290565b6000806000612e52858561315d565b91509150611ce38282613301565b612e68613ce9565b606082811c82526001605f1b8316151560208301526001605e1b831615156040830152604483901c6303ffffff1690820152602c82901c62ffffff166080820152650800000000008216151560a082015260ff602383901c1660c082015260039190911c63ffffffff1660e082015290565b612ee2613d3d565b600160ff1b82161515815260f782901c60ff1660208201526101ff60ee83901c81166040830152600360ec84901c811660608401526001600160401b0360ac85901c81166080850152606c85901c811660a0850152602c85901c1660c0840152602a84901c1660e0830152602183901c166101008201526401000000008216151561012082015263ffffffff90911661014082015290565b600080612f868461362b565b83029050640200000000810615612f9e576001612fa1565b60005b60ff16602082901c0191505092915050565b600080612fbf83613014565b6000196001919091011b841691505092915050565b600080612fbf83613029565b600080612fbf83613037565b600080612fbf8360141d60010190565b6000600161295b83613652565b600061296d83613652565b6000603f6130228360021d90565b1692915050565b6000603f6130228360081d90565b6000603f61302283600e1d90565b6000610d75826136b3565b60c081015161016082015160016001607f1b03602c82901c169060009061307690613736565b9050836101200151801561308957508282105b806130a157508361012001511580156130a157508281105b156130ba5760e08401829052610100840181905261311d565b836101200151156130f3576130e1836130db86610160015160401b60eb1d90565b90613756565b61010085015260e0840183905261311d565b61310f8361310986610160015160401b60eb1d90565b90613782565b60e085015261010084018390525b50505060e08101516060820180519091019052610100810151608082018051909101905261018081015160481c62ffffff1660a090910180519091019052565b60008060016001607f1b038411156131bc5760405162461bcd60e51b815260206004820152601f60248201527f6d67762f726174696f46726f6d566f6c2f696e626f756e642f746f6f4269670060448201526064015b60405180910390fd5b60016001607f1b038311156132135760405162461bcd60e51b815260206004820181905260248201527f6d67762f726174696f46726f6d566f6c2f6f7574626f756e642f746f6f42696760448201526064016131b3565b8260000361323657506ffffb12cdf1087799c03e5a811a7aaa1c905060006114b3565b8360000361325957506f800276a52a62a71c29fc1cc441e523bc905060ff6114b3565b600083608086901b8161326e5761326e614509565b049050600061327c826136b3565b9050816000036132ce5760405162461bcd60e51b815260206004820152601e60248201527f6d67762f726174696f46726f6d566f6c756d65732f7a65726f526174696f000060448201526064016131b3565b607f8111156132ef57607e1981019190911c9250608003607f0190506114b3565b607f0390811b925060800190506114b3565b600061332083836f800276a52a62a71c29fc1cc441e523bc60ff6137b2565b1561336d5760405162461bcd60e51b815260206004820152601860248201527f6d67762f7469636b46726f6d526174696f2f746f6f4c6f77000000000000000060448201526064016131b3565b61338a6ffffb12cdf1087799c03e5a811a7aaa1c600085856137b2565b156133d75760405162461bcd60e51b815260206004820152601960248201527f6d67762f7469636b46726f6d526174696f2f746f6f486967680000000000000060448201526064016131b3565b600060406133e684607f614557565b901b905060006133f7607f806144a5565b85901c800260c081901c6780000000000000001692909217607f83811c60ff94851c1c800260c181901c674000000000000000169290921782821c92851c9290921c800260c281901c672000000000000000169290921782821c92851c9290921c800260c381901c671000000000000000169290921782821c92851c9290921c800260c481901c670800000000000000169290921782821c92851c9290921c800260c581901c670400000000000000169290921782821c92851c9290921c800260c681901c670200000000000000169290921782821c92851c9290921c800260c781901c670100000000000000169290921782821c92851c9290921c800260c881901c6680000000000000169290921782821c92851c9290921c800260c981901c6640000000000000169290921782821c92851c9290921c800260ca81901c6620000000000000169290921782821c92851c9290921c800260cb81901c6610000000000000169290921782821c9290941c9190911c800260cc81901c6608000000000000169390931792901c9050600061359b83691b13d180eb882abba64361457e565b9050600060806135bb6f0147b240d5bf82739a122ad49697223684614557565b901d9050600060806135dd846fd9e63e52eeeb7875a857348794e736756145ae565b901d90506000806135ed836137d1565b9150915060006135ff8b8b85856137b2565b90508385148061360c5750805b156136195784985061361d565b8398505b505050505050505092915050565b60006007821161363c575060031690565b506004600382161760029190911c600119011b90565b6000610d75827e011c021d0e18031e16140f191104081f1b0d17151310071a0c12060b050a096001600160401b0382811680196001019093161663ffffffff811160051b921560061b9290921791821c63077cb53160e01b0260fb1c1a1790565b7e09010a0d15021d0b0e10121619031e080c141c0f111807131b17061a05041f8115600890811b6001600160801b03841160071b1783811c6001600160401b031060061b1783811c63ffffffff1060051b1792831c600181901c17600281901c17600481901c179081901c17601081901c176307c4acdd60e01b0260fb1c1a1790565b6000610d75602c83901c60016001607f1b03166130db8460401b60eb1d90565b6000806000613764856137d1565b91509150611ce3848302826001811b600019018216151591901c0190565b60008080613797613792866145d6565b6137d1565b9092509050806137a785846144f2565b901c95945050505050565b600081841180611ce357508184148015611ce357505050909110919050565b6000806137dd83613843565b909250905060eb83901b60007ed89e8c075c4155dd3213326cbbcf86fd1f63f5c205dd2ad2cf44f9349b39e180830782139083050390607e19828501019081131561382b5793841c93613835565b8060000385901b94505b81607f039350505050915091565b6000806000808412613855578361385e565b61385e846145d6565b9050620d89e88111156138b35760405162461bcd60e51b815260206004820152601760248201527f6d67762f6162735469636b2f6f75744f66426f756e647300000000000000000060448201526064016131b3565b600060018216156138d6576ffff97272373d413259a46990580e213993506138de565b600160801b93505b6002821615613908576080613903856ffff2e50f5f656932ef12357cf3c7fdcb6144f2565b901c93505b600482161561393257608061392d856fffe5caca7e10e4e61c3624eaa0941ccf6144f2565b901c93505b600882161561395c576080613957856fffcb9843d60f6159c9db58835c9266436144f2565b901c93505b6010821615613986576080613981856fff973b41fa98c081472e6896dfb254bf6144f2565b901c93505b60208216156139b05760806139ab856fff2ea16466c96a3843ec78b326b528606144f2565b901c93505b60408216156139da5760806139d5856ffe5dee046a99a2a811c461f1969c30526144f2565b901c93505b6080821615613a045760806139ff856ffcbe86c7900a88aedcffc83b479aa3a36144f2565b901c93505b610100821615613a2f576080613a2a856ff987a7253ac413176f2b074cf7815e536144f2565b901c93505b610200821615613a5a576080613a55856ff3392b0822b70005940c7a398e4b70f26144f2565b901c93505b610400821615613a85576080613a80856fe7159475a2c29b7443b29c7fa6e889d86144f2565b901c93505b610800821615613ab0576080613aab856fd097f3bdfd2022b8845ad8f792aa58256144f2565b901c93505b611000821615613adb576080613ad6856fa9f746462d870fdf8a65dc1f90e061e46144f2565b901c93505b612000821615613b13576080613b01856fe1b0d342ada5437121767bec575e65ed6144f2565b901c9350613b106001826145ae565b90505b614000821615613b4b576080613b39856fc6f84d7e5f423f66048c541550bf3e966144f2565b901c9350613b486002826145ae565b90505b618000821615613b83576080613b71856f9aa508b5b7a84e1c677de54f3e99bc8f6144f2565b901c9350613b806004826145ae565b90505b62010000821615613bbc576080613baa856fbad5f1bdb70232cd33865244bdcc089c6144f2565b901c9350613bb96009826145ae565b90505b62020000821615613bf5576080613be3856f885b9613d7e87aa498106fb7fa5edd376144f2565b901c9350613bf26012826145ae565b90505b62040000821615613c2e576080613c1c856f9142e0723efb884889d1f447715afacd6144f2565b901c9350613c2b6025826145ae565b90505b62080000821615613c67576080613c55856fa4d9a773d61316918f140bd96e8e68146144f2565b901c9350613c64604b826145ae565b90505b6000851315613c8857600184856000030401935080613c85906145d6565b90505b6119c28160806145ae565b6040518060400160405280613ca6613d3d565b8152602001613cb3613d3d565b905290565b604051806080016040528060006001600160a01b031681526020016000815260200160008152602001600081525090565b60405180610100016040528060006001600160a01b03168152602001600015158152602001600015158152602001600081526020016000815260200160001515815260200160008152602001600081525090565b6040518061016001604052806000151581526020016000815260200160008152602001600081526020016000815260200160008152602001600081526020016000815260200160008152602001600015158152602001600081525090565b634e487b7160e01b600052604160045260246000fd5b80356001600160a01b0381168114613dc857600080fd5b919050565b600060608284031215613ddf57600080fd5b604051606081018181106001600160401b0382111715613e0f57634e487b7160e01b600052604160045260246000fd5b604052905080613e1e83613db1565b8152613e2c60208401613db1565b6020820152604083013560408201525092915050565b600080600060a08486031215613e5757600080fd5b613e618585613dcd565b95606085013595506080909401359392505050565b600060608284031215613e8857600080fd5b610e108383613dcd565b60008060808385031215613ea557600080fd5b613eaf8484613dcd565b946060939093013593505050565b80358015158114613dc857600080fd5b600080600060608486031215613ee257600080fd5b8335925060208401359150613ef960408501613ebd565b90509250925092565b80516001600160a01b03908116835260208083015190911690830152604090810151910152565b8051151582526020810151602083015260408101516040830152606081015160608301526080810151608083015260a081015160a083015260c081015160c083015260e081015160e083015261010080820151818401525061012080820151613f958285018215159052565b505061014090810151910152565b613fae828251613f29565b60208101516120c6610160840182613f29565b60408082528351908201819052600090606090818401906020808801855b8381101561400257613ff2858351613f02565b9385019390820190600101613fdf565b5050858303818701528651808452928101935086810192915060005b8281101561404557614031858551613fa3565b6102c094909401939281019260010161401e565b5092979650505050505050565b60006020828403121561406457600080fd5b610e1082613ebd565b600080600080600060e0868803121561408557600080fd5b61408f8787613dcd565b945060608601359350608086013592506140ab60a08701613ebd565b91506140b960c08701613ebd565b90509295509295909350565b602080825282518282018190526000919060409081850190868401855b8281101561411157815180518552868101518786015285015185850152606090930192908501906001016140e2565b5091979650505050505050565b6102c08101610d758284613fa3565b8251815260208084015181830152604080850151818401526060808601518185015284516001600160a01b031660808501529184015160a084015283015160c083015282015160e08201526101008101610e10565b6000806040838503121561419557600080fd5b50508035926020909101359150565b600081518084526020808501945080840160005b838110156141d4578151875295820195908201906001016141b8565b509495945050505050565b60006080868352602081818501526141f9828501886141a4565b848103604086015286518082528288019183019060005b8181101561425457614244838551805182526020810151602083015260408101516040830152606081015160608301525050565b9284019291850191600101614210565b50508581036060870152865180825290830191508287019060005b818110156142b9576142a984845180516001600160a01b031682526020808201519083015260408082015190830152606090810151910152565b928501929184019160010161426f565b50919a9950505050505050505050565b60018060a01b038151168252602081015115156020830152604081015115156040830152606081015160608301526080810151608083015260a0810151151560a083015260c081015160c083015260e081015160e08301525050565b610260810161433482856142c9565b610e10610100830184613f29565b8481526000602060808184015261435c60808401876141a4565b838103604085015285518082528287019183019060005b8181101561438f57835183529284019291840191600101614373565b50508481036060860152855180825290830191508286019060005b818110156143c6578251845292840192918401916001016143aa565b50919998505050505050505050565b60008060008060c085870312156143eb57600080fd5b6143f58686613dcd565b9350606085013592506080850135915061441160a08601613ebd565b905092959194509250565b6101008101610d7582846142c9565b6101608101610d758284613f29565b60608101610d758284613f02565b60006020828403121561445a57600080fd5b5051919050565b6080810161446f8285613f02565b8260608301529392505050565b634e487b7160e01b600052601160045260246000fd5b80820180821115610d7557610d7561447c565b81810381811115610d7557610d7561447c565b634e487b7160e01b600052603260045260246000fd5b600080604083850312156144e157600080fd5b505080516020909101519092909150565b8082028115828204841417610d7557610d7561447c565b634e487b7160e01b600052601260045260246000fd5b60008261453c57634e487b7160e01b600052601260045260246000fd5b500490565b634e487b7160e01b600052603160045260246000fd5b81810360008312801583831316838312821617156145775761457761447c565b5092915050565b80820260008212600160ff1b8414161561459a5761459a61447c565b8181058314821517610d7557610d7561447c565b80820182811260008312801582168215821617156145ce576145ce61447c565b505092915050565b6000600160ff1b82016145eb576145eb61447c565b506000039056fea26469706673582212206d66ade74d3be5dbd3bf5cd17ae4de509affbaa6cc75a7bcd60d45ac79e73ad864736f6c63430008140033",
    "linkReferences": {}
  },
  "methodIdentifiers": {
    "MGV()": "99fa5e2d",
    "configInfo((address,address,uint256))": "808c4423",
    "getFee((address,address,uint256),uint256)": "c8c642a6",
    "getProvision((address,address,uint256),uint256,uint256)": "6001af26",
    "getProvisionWithDefaultGasPrice((address,address,uint256),uint256)": "2cbdfc52",
    "globalUnpacked()": "f6baa87d",
    "isEmptyOB((address,address,uint256))": "5ab31853",
    "isMarketOpen((address,address,uint256))": "1398392e",
    "localUnpacked((address,address,uint256))": "fbc9dd9f",
    "marketConfig((address,address,uint256))": "46bce56a",
    "minVolume((address,address,uint256),uint256)": "8f5a667c",
    "minusFee((address,address,uint256),uint256)": "5ea47a7d",
    "nextOfferId((address,address,uint256),uint256)": "de6d2c62",
    "nextOfferIdById((address,address,uint256),uint256)": "ff71dcee",
    "numOpenMarkets()": "4e2719de",
    "offerInfo((address,address,uint256),uint256)": "4ee79c92",
    "offerList((address,address,uint256),uint256,uint256)": "79bfb7e1",
    "offerListEndPoints((address,address,uint256),uint256,uint256)": "0cbbc897",
    "openMarkets()": "8267f649",
    "openMarkets(bool)": "336d4f77",
    "openMarkets(uint256,uint256)": "543c7666",
    "openMarkets(uint256,uint256,bool)": "3105b5de",
    "packedOfferList((address,address,uint256),uint256,uint256)": "9b69c7d2",
    "prevOfferId((address,address,uint256),uint256)": "14898737",
    "prevOfferIdById((address,address,uint256),uint256)": "2ab8d113",
    "simulateMarketOrderByTick((address,address,uint256),int256,uint256,bool)": "c4febe21",
    "simulateMarketOrderByTick((address,address,uint256),int256,uint256,bool,bool)": "3c29bc4f",
    "simulateMarketOrderByVolume((address,address,uint256),uint256,uint256,bool)": "d52e7766",
    "simulateMarketOrderByVolume((address,address,uint256),uint256,uint256,bool,bool)": "65345645",
    "updateMarket((address,address,uint256))": "c60176c6"
  },
  "id": 53
}