{
  "abi": [
    {
      "anonymous": false,
      "inputs": [
        {
          "indexed": true,
          "internalType": "address",
          "name": "outbound_tkn",
          "type": "address"
        },
        {
          "indexed": true,
          "internalType": "address",
          "name": "inbound_tkn",
          "type": "address"
        },
        {
          "indexed": true,
          "internalType": "address",
          "name": "owner",
          "type": "address"
        },
        {
          "indexed": false,
          "internalType": "address",
          "name": "spender",
          "type": "address"
        },
        {
          "indexed": false,
          "internalType": "uint256",
          "name": "value",
          "type": "uint256"
        }
      ],
      "name": "Approval",
      "type": "event"
    },
    {
      "anonymous": false,
      "inputs": [],
      "name": "CleanComplete",
      "type": "event"
    },
    {
      "anonymous": false,
      "inputs": [
        {
          "indexed": true,
          "internalType": "bytes32",
          "name": "olKeyHash",
          "type": "bytes32"
        },
        {
          "indexed": true,
          "internalType": "address",
          "name": "taker",
          "type": "address"
        },
        {
          "indexed": false,
          "internalType": "uint256",
          "name": "offersToBeCleaned",
          "type": "uint256"
        }
      ],
      "name": "CleanStart",
      "type": "event"
    },
    {
      "anonymous": false,
      "inputs": [
        {
          "indexed": true,
          "internalType": "address",
          "name": "maker",
          "type": "address"
        },
        {
          "indexed": false,
          "internalType": "uint256",
          "name": "amount",
          "type": "uint256"
        }
      ],
      "name": "Credit",
      "type": "event"
    },
    {
      "anonymous": false,
      "inputs": [
        {
          "indexed": true,
          "internalType": "address",
          "name": "maker",
          "type": "address"
        },
        {
          "indexed": false,
          "internalType": "uint256",
          "name": "amount",
          "type": "uint256"
        }
      ],
      "name": "Debit",
      "type": "event"
    },
    {
      "anonymous": false,
      "inputs": [],
      "name": "Kill",
      "type": "event"
    },
    {
      "anonymous": false,
      "inputs": [],
      "name": "NewMgv",
      "type": "event"
    },
    {
      "anonymous": false,
      "inputs": [
        {
          "indexed": true,
          "internalType": "bytes32",
          "name": "olKeyHash",
          "type": "bytes32"
        },
        {
          "indexed": true,
          "internalType": "address",
          "name": "taker",
          "type": "address"
        },
        {
          "indexed": true,
          "internalType": "uint256",
          "name": "id",
          "type": "uint256"
        },
        {
          "indexed": false,
          "internalType": "uint256",
          "name": "takerWants",
          "type": "uint256"
        },
        {
          "indexed": false,
          "internalType": "uint256",
          "name": "takerGives",
          "type": "uint256"
        },
        {
          "indexed": false,
          "internalType": "uint256",
          "name": "penalty",
          "type": "uint256"
        },
        {
          "indexed": false,
          "internalType": "bytes32",
          "name": "mgvData",
          "type": "bytes32"
        }
      ],
      "name": "OfferFail",
      "type": "event"
    },
    {
      "anonymous": false,
      "inputs": [
        {
          "indexed": true,
          "internalType": "bytes32",
          "name": "olKeyHash",
          "type": "bytes32"
        },
        {
          "indexed": true,
          "internalType": "address",
          "name": "taker",
          "type": "address"
        },
        {
          "indexed": true,
          "internalType": "uint256",
          "name": "id",
          "type": "uint256"
        },
        {
          "indexed": false,
          "internalType": "uint256",
          "name": "takerWants",
          "type": "uint256"
        },
        {
          "indexed": false,
          "internalType": "uint256",
          "name": "takerGives",
          "type": "uint256"
        },
        {
          "indexed": false,
          "internalType": "uint256",
          "name": "penalty",
          "type": "uint256"
        },
        {
          "indexed": false,
          "internalType": "bytes32",
          "name": "mgvData",
          "type": "bytes32"
        },
        {
          "indexed": false,
          "internalType": "bytes32",
          "name": "posthookData",
          "type": "bytes32"
        }
      ],
      "name": "OfferFailWithPosthookData",
      "type": "event"
    },
    {
      "anonymous": false,
      "inputs": [
        {
          "indexed": true,
          "internalType": "bytes32",
          "name": "olKeyHash",
          "type": "bytes32"
        },
        {
          "indexed": true,
          "internalType": "address",
          "name": "maker",
          "type": "address"
        },
        {
          "indexed": false,
          "internalType": "uint256",
          "name": "id",
          "type": "uint256"
        },
        {
          "indexed": false,
          "internalType": "bool",
          "name": "deprovision",
          "type": "bool"
        }
      ],
      "name": "OfferRetract",
      "type": "event"
    },
    {
      "anonymous": false,
      "inputs": [
        {
          "indexed": true,
          "internalType": "bytes32",
          "name": "olKeyHash",
          "type": "bytes32"
        },
        {
          "indexed": true,
          "internalType": "address",
          "name": "taker",
          "type": "address"
        },
        {
          "indexed": true,
          "internalType": "uint256",
          "name": "id",
          "type": "uint256"
        },
        {
          "indexed": false,
          "internalType": "uint256",
          "name": "takerWants",
          "type": "uint256"
        },
        {
          "indexed": false,
          "internalType": "uint256",
          "name": "takerGives",
          "type": "uint256"
        }
      ],
      "name": "OfferSuccess",
      "type": "event"
    },
    {
      "anonymous": false,
      "inputs": [
        {
          "indexed": true,
          "internalType": "bytes32",
          "name": "olKeyHash",
          "type": "bytes32"
        },
        {
          "indexed": true,
          "internalType": "address",
          "name": "taker",
          "type": "address"
        },
        {
          "indexed": true,
          "internalType": "uint256",
          "name": "id",
          "type": "uint256"
        },
        {
          "indexed": false,
          "internalType": "uint256",
          "name": "takerWants",
          "type": "uint256"
        },
        {
          "indexed": false,
          "internalType": "uint256",
          "name": "takerGives",
          "type": "uint256"
        },
        {
          "indexed": false,
          "internalType": "bytes32",
          "name": "posthookData",
          "type": "bytes32"
        }
      ],
      "name": "OfferSuccessWithPosthookData",
      "type": "event"
    },
    {
      "anonymous": false,
      "inputs": [
        {
          "indexed": true,
          "internalType": "bytes32",
          "name": "olKeyHash",
          "type": "bytes32"
        },
        {
          "indexed": true,
          "internalType": "address",
          "name": "maker",
          "type": "address"
        },
        {
          "indexed": false,
          "internalType": "int256",
          "name": "tick",
          "type": "int256"
        },
        {
          "indexed": false,
          "internalType": "uint256",
          "name": "gives",
          "type": "uint256"
        },
        {
          "indexed": false,
          "internalType": "uint256",
          "name": "gasprice",
          "type": "uint256"
        },
        {
          "indexed": false,
          "internalType": "uint256",
          "name": "gasreq",
          "type": "uint256"
        },
        {
          "indexed": false,
          "internalType": "uint256",
          "name": "id",
          "type": "uint256"
        }
      ],
      "name": "OfferWrite",
      "type": "event"
    },
    {
      "anonymous": false,
      "inputs": [
        {
          "indexed": true,
          "internalType": "bytes32",
          "name": "olKeyHash",
          "type": "bytes32"
        },
        {
          "indexed": true,
          "internalType": "address",
          "name": "taker",
          "type": "address"
        },
        {
          "indexed": false,
          "internalType": "uint256",
          "name": "fee",
          "type": "uint256"
        }
      ],
      "name": "OrderComplete",
      "type": "event"
    },
    {
      "anonymous": false,
      "inputs": [
        {
          "indexed": true,
          "internalType": "bytes32",
          "name": "olKeyHash",
          "type": "bytes32"
        },
        {
          "indexed": true,
          "internalType": "address",
          "name": "taker",
          "type": "address"
        },
        {
          "indexed": false,
          "internalType": "Tick",
          "name": "maxTick",
          "type": "int256"
        },
        {
          "indexed": false,
          "internalType": "uint256",
          "name": "fillVolume",
          "type": "uint256"
        },
        {
          "indexed": false,
          "internalType": "bool",
          "name": "fillWants",
          "type": "bool"
        }
      ],
      "name": "OrderStart",
      "type": "event"
    },
    {
      "anonymous": false,
      "inputs": [
        {
          "indexed": true,
          "internalType": "bytes32",
          "name": "olKeyHash",
          "type": "bytes32"
        },
        {
          "indexed": true,
          "internalType": "address",
          "name": "outbound_tkn",
          "type": "address"
        },
        {
          "indexed": true,
          "internalType": "address",
          "name": "inbound_tkn",
          "type": "address"
        },
        {
          "indexed": false,
          "internalType": "uint256",
          "name": "tickSpacing",
          "type": "uint256"
        },
        {
          "indexed": false,
          "internalType": "bool",
          "name": "value",
          "type": "bool"
        }
      ],
      "name": "SetActive",
      "type": "event"
    },
    {
      "anonymous": false,
      "inputs": [
        {
          "indexed": true,
          "internalType": "bytes32",
          "name": "olKeyHash",
          "type": "bytes32"
        },
        {
          "indexed": false,
          "internalType": "uint256",
          "name": "value",
          "type": "uint256"
        }
      ],
      "name": "SetDensity96X32",
      "type": "event"
    },
    {
      "anonymous": false,
      "inputs": [
        {
          "indexed": true,
          "internalType": "bytes32",
          "name": "olKeyHash",
          "type": "bytes32"
        },
        {
          "indexed": false,
          "internalType": "uint256",
          "name": "value",
          "type": "uint256"
        }
      ],
      "name": "SetFee",
      "type": "event"
    },
    {
      "anonymous": false,
      "inputs": [
        {
          "indexed": true,
          "internalType": "bytes32",
          "name": "olKeyHash",
          "type": "bytes32"
        },
        {
          "indexed": false,
          "internalType": "uint256",
          "name": "offer_gasbase",
          "type": "uint256"
        }
      ],
      "name": "SetGasbase",
      "type": "event"
    },
    {
      "anonymous": false,
      "inputs": [
        {
          "indexed": false,
          "internalType": "uint256",
          "name": "value",
          "type": "uint256"
        }
      ],
      "name": "SetGasmax",
      "type": "event"
    },
    {
      "anonymous": false,
      "inputs": [
        {
          "indexed": false,
          "internalType": "uint256",
          "name": "value",
          "type": "uint256"
        }
      ],
      "name": "SetGasprice",
      "type": "event"
    },
    {
      "anonymous": false,
      "inputs": [
        {
          "indexed": false,
          "internalType": "address",
          "name": "value",
          "type": "address"
        }
      ],
      "name": "SetGovernance",
      "type": "event"
    },
    {
      "anonymous": false,
      "inputs": [
        {
          "indexed": false,
          "internalType": "uint256",
          "name": "value",
          "type": "uint256"
        }
      ],
      "name": "SetMaxGasreqForFailingOffers",
      "type": "event"
    },
    {
      "anonymous": false,
      "inputs": [
        {
          "indexed": false,
          "internalType": "uint256",
          "name": "value",
          "type": "uint256"
        }
      ],
      "name": "SetMaxRecursionDepth",
      "type": "event"
    },
    {
      "anonymous": false,
      "inputs": [
        {
          "indexed": false,
          "internalType": "address",
          "name": "value",
          "type": "address"
        }
      ],
      "name": "SetMonitor",
      "type": "event"
    },
    {
      "anonymous": false,
      "inputs": [
        {
          "indexed": false,
          "internalType": "bool",
          "name": "value",
          "type": "bool"
        }
      ],
      "name": "SetNotify",
      "type": "event"
    },
    {
      "anonymous": false,
      "inputs": [
        {
          "indexed": false,
          "internalType": "bool",
          "name": "value",
          "type": "bool"
        }
      ],
      "name": "SetUseOracle",
      "type": "event"
    },
    {
      "inputs": [
        {
          "internalType": "address",
          "name": "maker",
          "type": "address"
        }
      ],
      "name": "fund",
      "outputs": [],
      "stateMutability": "payable",
      "type": "function"
    },
    {
      "inputs": [],
      "name": "fund",
      "outputs": [],
      "stateMutability": "payable",
      "type": "function"
    },
    {
      "inputs": [],
      "name": "governance",
      "outputs": [
        {
          "internalType": "address",
          "name": "",
          "type": "address"
        }
      ],
      "stateMutability": "view",
      "type": "function"
    },
    {
      "inputs": [
        {
          "components": [
            {
              "internalType": "address",
              "name": "outbound_tkn",
              "type": "address"
            },
            {
              "internalType": "address",
              "name": "inbound_tkn",
              "type": "address"
            },
            {
              "internalType": "uint256",
              "name": "tickSpacing",
              "type": "uint256"
            }
          ],
          "internalType": "struct OLKey",
          "name": "olKey",
          "type": "tuple"
        },
        {
          "internalType": "Tick",
          "name": "tick",
          "type": "int256"
        },
        {
          "internalType": "uint256",
          "name": "gives",
          "type": "uint256"
        },
        {
          "internalType": "uint256",
          "name": "gasreq",
          "type": "uint256"
        },
        {
          "internalType": "uint256",
          "name": "gasprice",
          "type": "uint256"
        }
      ],
      "name": "newOfferByTick",
      "outputs": [
        {
          "internalType": "uint256",
          "name": "offerId",
          "type": "uint256"
        }
      ],
      "stateMutability": "payable",
      "type": "function"
    },
    {
      "inputs": [
        {
          "components": [
            {
              "internalType": "address",
              "name": "outbound_tkn",
              "type": "address"
            },
            {
              "internalType": "address",
              "name": "inbound_tkn",
              "type": "address"
            },
            {
              "internalType": "uint256",
              "name": "tickSpacing",
              "type": "uint256"
            }
          ],
          "internalType": "struct OLKey",
          "name": "olKey",
          "type": "tuple"
        },
        {
          "internalType": "uint256",
          "name": "wants",
          "type": "uint256"
        },
        {
          "internalType": "uint256",
          "name": "gives",
          "type": "uint256"
        },
        {
          "internalType": "uint256",
          "name": "gasreq",
          "type": "uint256"
        },
        {
          "internalType": "uint256",
          "name": "gasprice",
          "type": "uint256"
        }
      ],
      "name": "newOfferByVolume",
      "outputs": [
        {
          "internalType": "uint256",
          "name": "offerId",
          "type": "uint256"
        }
      ],
      "stateMutability": "payable",
      "type": "function"
    },
    {
      "inputs": [
        {
          "components": [
            {
              "internalType": "address",
              "name": "outbound_tkn",
              "type": "address"
            },
            {
              "internalType": "address",
              "name": "inbound_tkn",
              "type": "address"
            },
            {
              "internalType": "uint256",
              "name": "tickSpacing",
              "type": "uint256"
            }
          ],
          "internalType": "struct OLKey",
          "name": "olKey",
          "type": "tuple"
        },
        {
          "internalType": "uint256",
          "name": "offerId",
          "type": "uint256"
        },
        {
          "internalType": "bool",
          "name": "deprovision",
          "type": "bool"
        }
      ],
      "name": "retractOffer",
      "outputs": [
        {
          "internalType": "uint256",
          "name": "provision",
          "type": "uint256"
        }
      ],
      "stateMutability": "nonpayable",
      "type": "function"
    },
    {
      "inputs": [
        {
          "components": [
            {
              "internalType": "address",
              "name": "outbound_tkn",
              "type": "address"
            },
            {
              "internalType": "address",
              "name": "inbound_tkn",
              "type": "address"
            },
            {
              "internalType": "uint256",
              "name": "tickSpacing",
              "type": "uint256"
            }
          ],
          "internalType": "struct OLKey",
          "name": "olKey",
          "type": "tuple"
        },
        {
          "internalType": "Tick",
          "name": "tick",
          "type": "int256"
        },
        {
          "internalType": "uint256",
          "name": "gives",
          "type": "uint256"
        },
        {
          "internalType": "uint256",
          "name": "gasreq",
          "type": "uint256"
        },
        {
          "internalType": "uint256",
          "name": "gasprice",
          "type": "uint256"
        },
        {
          "internalType": "uint256",
          "name": "offerId",
          "type": "uint256"
        }
      ],
      "name": "updateOfferByTick",
      "outputs": [],
      "stateMutability": "payable",
      "type": "function"
    },
    {
      "inputs": [
        {
          "components": [
            {
              "internalType": "address",
              "name": "outbound_tkn",
              "type": "address"
            },
            {
              "internalType": "address",
              "name": "inbound_tkn",
              "type": "address"
            },
            {
              "internalType": "uint256",
              "name": "tickSpacing",
              "type": "uint256"
            }
          ],
          "internalType": "struct OLKey",
          "name": "olKey",
          "type": "tuple"
        },
        {
          "internalType": "uint256",
          "name": "wants",
          "type": "uint256"
        },
        {
          "internalType": "uint256",
          "name": "gives",
          "type": "uint256"
        },
        {
          "internalType": "uint256",
          "name": "gasreq",
          "type": "uint256"
        },
        {
          "internalType": "uint256",
          "name": "gasprice",
          "type": "uint256"
        },
        {
          "internalType": "uint256",
          "name": "offerId",
          "type": "uint256"
        }
      ],
      "name": "updateOfferByVolume",
      "outputs": [],
      "stateMutability": "payable",
      "type": "function"
    },
    {
      "inputs": [
        {
          "internalType": "uint256",
          "name": "amount",
          "type": "uint256"
        }
      ],
      "name": "withdraw",
      "outputs": [
        {
          "internalType": "bool",
          "name": "noRevert",
          "type": "bool"
        }
      ],
      "stateMutability": "nonpayable",
      "type": "function"
    },
    {
      "stateMutability": "payable",
      "type": "receive"
    }
  ],
  "bytecode": {
    "object": "0x608060405234801561001057600080fd5b506128e0806100206000396000f3fe60806040526004361061008a5760003560e01c80636e7a5cb8116100595780636e7a5cb814610132578063a84b08c814610160578063b268813c14610173578063b60d428814610186578063f95902aa1461018e57600080fd5b8063129d19a71461009f57806323024408146100b25780632e1a7d4d146100c55780635aa6e675146100fa57600080fd5b3661009a57610098336101a1565b005b600080fd5b6100986100ad36600461268c565b6101e1565b6100986100c03660046126d8565b6101a1565b3480156100d157600080fd5b506100e56100e03660046126f3565b610200565b60405190151581526020015b60405180910390f35b34801561010657600080fd5b5060005461011a906001600160a01b031681565b6040516001600160a01b0390911681526020016100f1565b34801561013e57600080fd5b5061015261014d36600461270c565b61025a565b6040519081526020016100f1565b61009861016e36600461268c565b6103e6565b610152610181366004612752565b61049b565b6100986104bd565b61015261019c366004612752565b6104c8565b604080516060810182526000808252602082018190529181018290526101c6906105d2565b505090506101d381610711565b6101dd8234610755565b5050565b6101f8866101ef87876107b1565b868686866103e6565b505050505050565b600061020c33836107d9565b60405133908390600081818185875af1925050503d806000811461024c576040519150601f19603f3d011682016040523d82523d6000602084013e610251565b606091505b50909392505050565b6000806000610268866105d2565b92509250506102768261089e565b60008581526005820160205260409020805460018201546102978160601c90565b6001600160a01b0316336001600160a01b0316146102fc5760405162461bcd60e51b815260206004820152601d60248201527f6d67762f726574726163744f666665722f756e617574686f72697a656400000060448201526064015b60405180910390fd5b602c82901c60016001607f1b03161561033f57600085905061032f858b6040015185896103288b6108ea565b60016108f5565b50955080861461033d578585555b505b61034b8383838a610dec565b86156103825761035a81610e29565b604882901c62ffffff1601602582901c6303ffffff16620f4240020295506103823387610755565b61038c8160601c90565b6001600160a01b03166103a08a6060902090565b604080518b81528a151560208201527f69a8c809e58310d1995905640ab3d1e8efe2ca772c21432a693da69912a478f1910160405180910390a350505050509392505050565b6103ee61259b565b60006103f9886105d2565b60c0850182905260a08501929092529091506104149061089e565b6104268260a001518360c00151610e3f565b3415610436576104363334610755565b87825260208083018790526040808401859052606084018790526080840186905260008581526005840190925290205460e083015260c082015161047d82848a6001610e8a565b60c083015181146104905760c083015182555b505050505050505050565b60006104b3866104ab87876107b1565b8686866104c8565b9695505050505050565b6104c6336101a1565b565b60006104d261259b565b60006104dd886105d2565b60c0850182905260a08501929092529091506104f89061089e565b61050a8260a001518360c00151610e3f565b341561051a5761051a3334610755565b60c082015163ffffffff166001016040830181905263ffffffff8116146105795760405162461bcd60e51b81526020600482015260136024820152726d67762f6f6666657249644f766572666c6f7760681b60448201526064016102f3565b604082015160c083015163ffffffff191663ffffffff9091161760c08301528782526020820186905260608201859052608082018490526105bd8183896000610e8a565b60c08201519055604001519695505050505050565b6000806000600260006105e6866060902090565b81526020019081526020016000209050600154925080600001549150610611836001605f1b16151590565b1561070a576000806106238560601c90565b6040805163361d8a6b60e21b815288516001600160a01b03908116600483015260208a01518116602483015291890151604482015291169063d87629ac906064016040805180830381865afa158015610680573d6000803e3d6000fd5b505050506040513d601f19601f820116820180604052508101906106a49190612795565b915091506106b7826303ffffff81161490565b156106e3576b3ffffff000000000000000001985166b3ffffff00000000000000000604484901b161794505b6101ff81168103610707576101ff60ee1b1984166101ff60ee1b60ee83901b161793505b50505b9193909250565b650800000000008116156107525760405162461bcd60e51b81526020600482015260086024820152671b59dd8bd919585960c21b60448201526064016102f3565b50565b6001600160a01b03821660008181526004602052604090819020805484019055517f1bbf55d483639f8103dc4e035af71a4fbdb16c80be740fa3eef81198acefa094906107a59084815260200190565b60405180910390a25050565b60008060006107c08585611837565b915091506107ce8282611a5a565b925050505b92915050565b6001600160a01b038216600090815260046020526040902054818110156108425760405162461bcd60e51b815260206004820152601960248201527f6d67762f696e73756666696369656e7450726f766973696f6e0000000000000060448201526064016102f3565b6001600160a01b038316600081815260046020526040908190208484039055517f59c79d79be0fadf59fe689b6952b7ebe90201a3a1f00d4a31982377890bc6046906108919085815260200190565b60405180910390a2505050565b6401000000008116156107525760405162461bcd60e51b81526020600482015260146024820152731b59dd8bdc99595b9d1c985b98de531bd8dad95960621b60448201526064016102f3565b60006107d382611d84565b6000808080610904888a611dfd565b905060006109128960e01c90565b905063ffffffff60c08a901c1681158061092a575080155b1561095c576109598c60040160006109428660021d90565b815260200190815260200160002054600181141890565b93505b816000036109765761096f848483611e24565b9350610995565b600082815260058d016020526040902080546109929083611e4a565b90555b806000036109af576109a8848484611e67565b93506109d3565b600081815260058d016020526040902080546001600160e01b031660e084901b1790555b81158015906109e157508015155b156109f6578860009550955050505050610de1565b868015610a01575081155b8015610a0d5750878313155b96505050811582178a6004016000610a258460021d90565b815260208101919091526040016000205581610da0576000610a478260081d90565b90506000610a558860081d90565b8203610ac557610a748360ac8b901c6001600160401b03165b90611e8e565b9050610a808982611ea9565b9850868015610a8d575080155b15610ac057600082815260038d01602052604090205415610ac057600082815260038d0160205260409020600160ff1b90555b610b05565b600082815260038d016020526040902054610aea9084906001600160ff1b0316610a6e565b9050600160ff1b8117600083815260038e0160205260409020555b80610d8157610b1483600e1d90565b9150610b2088600e1d90565b8203610b9057610b3f83606c8b901c6001600160401b03165b90611ece565b9050610b4b8982611eda565b9850868015610b58575080155b15610b8b57600082815260028d01602052604090205415610b8b57600082815260028d0160205260409020600160ff1b90555b610bd0565b600082815260028d016020526040902054610bb59084906001600160ff1b0316610b39565b9050600160ff1b8117600083815260028e0160205260409020555b80610d4557610bdf8360141d90565b9150610beb8860141d90565b8203610c4657610c0a83602c8b901c6001600160401b03165b90611eff565b9050610c168982611f0b565b9850868015610c23575080155b15610c4157600160ff1b8117600083815260018e0160205260409020555b610c86565b600082815260018d016020526040902054610c6b9084906001600160ff1b0316610c04565b9050600160ff1b8117600083815260018e0160205260409020555b80610d0957610c9e83602a8b901c6003165b90611f36565b9050650c0000000000198916650c0000000000602a83901b1617985080610cce5788879550955050505050610de1565b8615610d0957610cdd81611f46565b600081815260018e0160205260409020549092506001600160ff1b03169050610d068982611f0b565b98505b8615610d4557610d198183611f5a565b600081815260028e0160205260409020549092506001600160ff1b03169050610d428982611eda565b98505b8615610d8157610d558183611f5a565b600081815260038e0160205260409020549092506001600160ff1b03169050610d7e8982611ea9565b98505b8615610d9d57610d9a60048d0160006109428486611f5a565b93505b50505b8415610dd857610dd56001600160401b036001600160801b038411600781901b85901c9190911115901560011b178890611f72565b96505b50508483915091505b965096945050505050565b7507fffffffffffffffffffffffffffffff0000000000019831692508015610e1d57677fffffe00000000019821691505b50908255600190910155565b6000603f82901c6101ff165b6103e80292915050565b610e4882610711565b600160ff1b81166101dd5760405162461bcd60e51b815260206004820152600c60248201526b6d67762f696e61637469766560a01b60448201526064016102f3565b60808301516303ffffff811614610ee35760405162461bcd60e51b815260206004820152601e60248201527f6d67762f77726974654f666665722f67617370726963652f746f6f426967000060448201526064016102f3565b60a083015160441c6303ffffff1683608001511015610f105760a083015160441c6303ffffff1660808401525b60a0830151602c1c62ffffff1683606001511115610f705760405162461bcd60e51b815260206004820152601d60248201527f6d67762f77726974654f666665722f6761737265712f746f6f4869676800000060448201526064016102f3565b6000836020015111610fc45760405162461bcd60e51b815260206004820152601b60248201527f6d67762f77726974654f666665722f67697665732f746f6f4c6f77000000000060448201526064016102f3565b610fee610fd48460c00151611f89565b606085015160c086015191019060ee1c6101ff1690611f99565b836020015110156110415760405162461bcd60e51b815260206004820152601d60248201527f6d67762f77726974654f666665722f64656e736974792f746f6f4c6f7700000060448201526064016102f3565b602083015160016001607f1b0381161461109d5760405162461bcd60e51b815260206004820152601b60248201527f6d67762f77726974654f666665722f67697665732f746f6f426967000000000060448201526064016102f3565b825160400151808307600012818405016110b78183611fb2565b93506110c284611fbe565b61110e5760405162461bcd60e51b815260206004820152601e60248201527f6d67762f77726974654f666665722f7469636b2f6f75744f6652616e6765000060448201526064016102f3565b604085015185516060902033906020808901516080808b01516060808d0151604080518e8152968701959095529385019190915283019190915281018490527fbeb2dc87c4db0b489fe0485121086dfff34fcaac67b1120861b95f1b6649c97b9060a00160405180910390a360008181526005880160205260408120600181015486156112275761119f8160601c90565b6001600160a01b0316336001600160a01b0316146111ff5760405162461bcd60e51b815260206004820152601c60248201527f6d67762f7570646174654f666665722f756e617574686f72697a65640000000060448201526064016102f3565b61120881610e29565b604882901c62ffffff1601602582901c6303ffffff16620f4240020292505b86158061124157506060890151604882901c62ffffff1614155b8061125a57506080890151602582901c6303ffffff1614155b80611279575061126d8960c00151611f89565b61127682610e29565b14155b1561130757600061128d8a60c00151611f89565b9050611300338b606001516103e884816112a9576112a96127b9565b048d60800151677fffffe000000000602582901b1668ff8000000000000000603f84901b166bffffff000000000000000000604886901b166bffffffffffffffffffffffff19606088901b16171717949350505050565b6001840155505b6000896080015161131b8b60c00151611f89565b8b606001510102620f4240029050838111156113425761133d338583036107d9565b611356565b838110156113565761135633828603610755565b50505060c0870151600091506113769060ac1c6001600160401b03161590565b1561138257508161140e565b61138f8760c001516108ea565b60e0880151909150602c1c60016001607f1b03161561140e5760008382131590506113c689868a60e001518b60c0015186866108f5565b60c08a01919091529050801561140c5760c08801516113ef9060ac1c6001600160401b03161590565b156113fc5783915061140c565b6114098860c001516108ea565b91505b505b80831361142d576114276003841660c089015190611f72565b60c08801525b60006114428960040160006109428760021d90565b905080611762576000806114568660081d90565b905060006114648560081d90565b90508082036114855760c08b015160ac1c6001600160401b031692506114fa565b600082815260038d0160205260409020546001600160ff1b03169250808212156114fa5760c08b015160ac1c6001600160401b0316801515806114d75750600082815260038e01602052604090205415155b80156114f757600083815260038f0160205260409020600160ff1b831790555b50505b8082136115235761151961150e8489611e8e565b60c08d015190611ea9565b60c08c015261154b565b6115396115308489611e8e565b600160ff1b1790565b600083815260038e0160205260409020555b8261175e5761155a87600e1d90565b915061156685600e1d90565b90508082036115875760c08b0151606c1c6001600160401b031692506115fc565b600082815260028d0160205260409020546001600160ff1b03169250808212156115fc5760c08b0151606c1c6001600160401b0316801515806115d95750600082815260028e01602052604090205415155b80156115f957600083815260028f0160205260409020600160ff1b831790555b50505b8082136116255761161b6116108489611ece565b60c08d015190611eda565b60c08c0152611644565b6116326115308489611ece565b600083815260028e0160205260409020555b8261175e576116538760141d90565b915061165f8560141d90565b90508082036116805760c08b0151602c1c6001600160401b031692506116d0565b600082815260018d0160205260409020546001600160ff1b03169250808212156116d05760c08b01516116be90602c1c6001600160401b0316611530565b600082815260018e0160205260409020555b8082136116f9576116ef6116e48489611eff565b60c08d015190611f0b565b60c08c0152611718565b6117066115308489611eff565b600083815260018e0160205260409020555b8261175e5760c08b015161175890611737908990602a1c600316610c98565b60c08d015190602a1b650c000000000016650c000000000019919091161790565b60c08c01525b5050505b600061176e8286611fd9565b90508060000361178a57611783828686611e24565b91506117a9565b600081815260058b016020526040902080546117a69086611e4a565b90555b6117b4828686611e67565b9150811582178a60040160006117ca8860021d90565b81526020808201929092526040016000908120929092558a015160e083901b60ab8b901b621fffff60ab1b1617602c9190911b7507fffffffffffffffffffffffffffffff00000000000161760009586526005909b01602052505060409092209790975550505050505050565b60008060016001607f1b038411156118915760405162461bcd60e51b815260206004820152601f60248201527f6d67762f726174696f46726f6d566f6c2f696e626f756e642f746f6f4269670060448201526064016102f3565b60016001607f1b038311156118e85760405162461bcd60e51b815260206004820181905260248201527f6d67762f726174696f46726f6d566f6c2f6f7574626f756e642f746f6f42696760448201526064016102f3565b8260000361190b57506ffffb12cdf1087799c03e5a811a7aaa1c90506000611a53565b8360000361192e57506f800276a52a62a71c29fc1cc441e523bc905060ff611a53565b600083608086901b81611943576119436127b9565b04905060006119d2827e09010a0d15021d0b0e10121619031e080c141c0f111807131b17061a05041f6307c4acdd60e01b6001600160801b03831160071b8315600890811b9190911784811c6001600160401b031060061b1784811c63ffffffff1060051b1793841c600181901c17600281901c17600481901c179081901c17601081901c170260fb1c1a1790565b905081600003611a245760405162461bcd60e51b815260206004820152601e60248201527f6d67762f726174696f46726f6d566f6c756d65732f7a65726f526174696f000060448201526064016102f3565b607f811115611a4557607e1981019190911c9250608003607f019050611a53565b607f0390811b925060800190505b9250929050565b6000611a7983836f800276a52a62a71c29fc1cc441e523bc60ff611ff3565b15611ac65760405162461bcd60e51b815260206004820152601860248201527f6d67762f7469636b46726f6d526174696f2f746f6f4c6f77000000000000000060448201526064016102f3565b611ae36ffffb12cdf1087799c03e5a811a7aaa1c60008585611ff3565b15611b305760405162461bcd60e51b815260206004820152601960248201527f6d67762f7469636b46726f6d526174696f2f746f6f486967680000000000000060448201526064016102f3565b60006040611b3f84607f6127e5565b901b90506000611b50607f8061280c565b85901c800260c081901c6780000000000000001692909217607f83811c60ff94851c1c800260c181901c674000000000000000169290921782821c92851c9290921c800260c281901c672000000000000000169290921782821c92851c9290921c800260c381901c671000000000000000169290921782821c92851c9290921c800260c481901c670800000000000000169290921782821c92851c9290921c800260c581901c670400000000000000169290921782821c92851c9290921c800260c681901c670200000000000000169290921782821c92851c9290921c800260c781901c670100000000000000169290921782821c92851c9290921c800260c881901c6680000000000000169290921782821c92851c9290921c800260c981901c6640000000000000169290921782821c92851c9290921c800260ca81901c6620000000000000169290921782821c92851c9290921c800260cb81901c6610000000000000169290921782821c9290941c9190911c800260cc81901c6608000000000000169390931792901c90506000611cf483691b13d180eb882abba64361281f565b905060006080611d146f0147b240d5bf82739a122ad496972236846127e5565b901d905060006080611d36846fd9e63e52eeeb7875a857348794e7367561284f565b901d9050600080611d4683612012565b915091506000611d588b8b8585611ff3565b905083851480611d655750805b15611d7257849850611d76565b8398505b505050505050505092915050565b6000806002600680806001611d9f6003602a8a901c16612084565b03901b611db8602c88901c6001600160401b0316612084565b17901b611dd1606c87901c6001600160401b0316612084565b17901b611dea60ac86901c6001600160401b0316612084565b17901b60ec84901c600316179392505050565b6000611e1d82611e108560401b60eb1d90565b9060008183071391050190565b9392505050565b6000600383166040810260e00383811b63ffffffff90911b198616175b95945050505050565b60c01b63ffffffff60c01b1663ffffffff60c01b19919091161790565b6000600383166002810260010160200260e00383811b63ffffffff90911b19861617611e41565b600080611e9a836120df565b6001901b939093189392505050565b60ac1b67ffffffffffffffff60ac1b1667ffffffffffffffff60ac1b19919091161790565b600080611e9a836120f4565b606c1b67ffffffffffffffff606c1b1667ffffffffffffffff606c1b19919091161790565b600080611e9a83612102565b602c1b6d0ffffffffffffffff00000000000166d0ffffffffffffffff0000000000019919091161790565b600080611e9a8360141d60010190565b60006001611f5383612110565b0392915050565b6000611f6583612110565b6040830201905092915050565b60ec1b600360ec1b16600360ec1b19919091161790565b6000602182901c6101ff16610e35565b60006020611fa68461211b565b8302901c905092915050565b6000611e1d828461281f565b6000620d89e71982121580156107d3575050620d89e8121590565b60006001600260038416020160200283901b60e01c611e1d565b600081841180611e4157508184148015611e4157505050909110919050565b60008061201e83612142565b909250905060eb83901b60007ed89e8c075c4155dd3213326cbbcf86fd1f63f5c205dd2ad2cf44f9349b39e180830782139083050390607e19828501019081131561206c5793841c93612076565b8060000385901b94505b81607f039350505050915091565b7e011c021d0e18031e16140f191104081f1b0d17151310071a0c12060b050a096001600160401b0382811680196001019093161663ffffffff811160051b921560061b9290921791821c63077cb53160e01b0260fb1c1a1790565b6000603f6120ed8360021d90565b1692915050565b6000603f6120ed8360081d90565b6000603f6120ed83600e1d90565b60006107d382612084565b60006007821161212c575060031690565b506004600382161760029190911c600119011b90565b6000806000808412612154578361215d565b61215d84612877565b9050620d89e88111156121b25760405162461bcd60e51b815260206004820152601760248201527f6d67762f6162735469636b2f6f75744f66426f756e647300000000000000000060448201526064016102f3565b600060018216156121d5576ffff97272373d413259a46990580e213993506121dd565b600160801b93505b6002821615612207576080612202856ffff2e50f5f656932ef12357cf3c7fdcb612893565b901c93505b600482161561223157608061222c856fffe5caca7e10e4e61c3624eaa0941ccf612893565b901c93505b600882161561225b576080612256856fffcb9843d60f6159c9db58835c926643612893565b901c93505b6010821615612285576080612280856fff973b41fa98c081472e6896dfb254bf612893565b901c93505b60208216156122af5760806122aa856fff2ea16466c96a3843ec78b326b52860612893565b901c93505b60408216156122d95760806122d4856ffe5dee046a99a2a811c461f1969c3052612893565b901c93505b60808216156123035760806122fe856ffcbe86c7900a88aedcffc83b479aa3a3612893565b901c93505b61010082161561232e576080612329856ff987a7253ac413176f2b074cf7815e53612893565b901c93505b610200821615612359576080612354856ff3392b0822b70005940c7a398e4b70f2612893565b901c93505b61040082161561238457608061237f856fe7159475a2c29b7443b29c7fa6e889d8612893565b901c93505b6108008216156123af5760806123aa856fd097f3bdfd2022b8845ad8f792aa5825612893565b901c93505b6110008216156123da5760806123d5856fa9f746462d870fdf8a65dc1f90e061e4612893565b901c93505b612000821615612412576080612400856fe1b0d342ada5437121767bec575e65ed612893565b901c935061240f60018261284f565b90505b61400082161561244a576080612438856fc6f84d7e5f423f66048c541550bf3e96612893565b901c935061244760028261284f565b90505b618000821615612482576080612470856f9aa508b5b7a84e1c677de54f3e99bc8f612893565b901c935061247f60048261284f565b90505b620100008216156124bb5760806124a9856fbad5f1bdb70232cd33865244bdcc089c612893565b901c93506124b860098261284f565b90505b620200008216156124f45760806124e2856f885b9613d7e87aa498106fb7fa5edd37612893565b901c93506124f160128261284f565b90505b6204000082161561252d57608061251b856f9142e0723efb884889d1f447715afacd612893565b901c935061252a60258261284f565b90505b62080000821615612566576080612554856fa4d9a773d61316918f140bd96e8e6814612893565b901c9350612563604b8261284f565b90505b60008513156125875760018485600003040193508061258490612877565b90505b61259281608061284f565b92505050915091565b60408051610160810190915260006101008201818152610120830182905261014083019190915281908152602001600081526020016000815260200160008152602001600081526020016000815260200160008152602001600081525090565b80356001600160a01b038116811461261257600080fd5b919050565b60006060828403121561262957600080fd5b604051606081018181106001600160401b038211171561265957634e487b7160e01b600052604160045260246000fd5b604052905080612668836125fb565b8152612676602084016125fb565b6020820152604083013560408201525092915050565b60008060008060008061010087890312156126a657600080fd5b6126b08888612617565b986060880135985060808801359760a0810135975060c0810135965060e00135945092505050565b6000602082840312156126ea57600080fd5b611e1d826125fb565b60006020828403121561270557600080fd5b5035919050565b600080600060a0848603121561272157600080fd5b61272b8585612617565b9250606084013591506080840135801515811461274757600080fd5b809150509250925092565b600080600080600060e0868803121561276a57600080fd5b6127748787612617565b976060870135975060808701359660a0810135965060c00135945092505050565b600080604083850312156127a857600080fd5b505080516020909101519092909150565b634e487b7160e01b600052601260045260246000fd5b634e487b7160e01b600052601160045260246000fd5b8181036000831280158383131683831282161715612805576128056127cf565b5092915050565b818103818111156107d3576107d36127cf565b80820260008212600160ff1b8414161561283b5761283b6127cf565b81810583148215176107d3576107d36127cf565b808201828112600083128015821682158216171561286f5761286f6127cf565b505092915050565b6000600160ff1b820161288c5761288c6127cf565b5060000390565b80820281158282048414176107d3576107d36127cf56fea264697066735822122010138cd40be55076c8b359fcef2d859f699c4b1951f499737681e4a28ee9fcd564736f6c63430008140033",
    "linkReferences": {}
  },
  "methodIdentifiers": {
    "fund()": "b60d4288",
    "fund(address)": "23024408",
    "governance()": "5aa6e675",
    "newOfferByTick((address,address,uint256),int256,uint256,uint256,uint256)": "f95902aa",
    "newOfferByVolume((address,address,uint256),uint256,uint256,uint256,uint256)": "b268813c",
    "retractOffer((address,address,uint256),uint256,bool)": "6e7a5cb8",
    "updateOfferByTick((address,address,uint256),int256,uint256,uint256,uint256,uint256)": "a84b08c8",
    "updateOfferByVolume((address,address,uint256),uint256,uint256,uint256,uint256,uint256)": "129d19a7",
    "withdraw(uint256)": "2e1a7d4d"
  },
  "id": 48
}