{
  "abi": [
    {
      "anonymous": false,
      "inputs": [
        {
          "indexed": true,
          "internalType": "address",
          "name": "outbound_tkn",
          "type": "address"
        },
        {
          "indexed": true,
          "internalType": "address",
          "name": "inbound_tkn",
          "type": "address"
        },
        {
          "indexed": true,
          "internalType": "address",
          "name": "owner",
          "type": "address"
        },
        {
          "indexed": false,
          "internalType": "address",
          "name": "spender",
          "type": "address"
        },
        {
          "indexed": false,
          "internalType": "uint256",
          "name": "value",
          "type": "uint256"
        }
      ],
      "name": "Approval",
      "type": "event"
    },
    {
      "anonymous": false,
      "inputs": [],
      "name": "CleanComplete",
      "type": "event"
    },
    {
      "anonymous": false,
      "inputs": [
        {
          "indexed": true,
          "internalType": "bytes32",
          "name": "olKeyHash",
          "type": "bytes32"
        },
        {
          "indexed": true,
          "internalType": "address",
          "name": "taker",
          "type": "address"
        },
        {
          "indexed": false,
          "internalType": "uint256",
          "name": "offersToBeCleaned",
          "type": "uint256"
        }
      ],
      "name": "CleanStart",
      "type": "event"
    },
    {
      "anonymous": false,
      "inputs": [
        {
          "indexed": true,
          "internalType": "address",
          "name": "maker",
          "type": "address"
        },
        {
          "indexed": false,
          "internalType": "uint256",
          "name": "amount",
          "type": "uint256"
        }
      ],
      "name": "Credit",
      "type": "event"
    },
    {
      "anonymous": false,
      "inputs": [
        {
          "indexed": true,
          "internalType": "address",
          "name": "maker",
          "type": "address"
        },
        {
          "indexed": false,
          "internalType": "uint256",
          "name": "amount",
          "type": "uint256"
        }
      ],
      "name": "Debit",
      "type": "event"
    },
    {
      "anonymous": false,
      "inputs": [],
      "name": "Kill",
      "type": "event"
    },
    {
      "anonymous": false,
      "inputs": [],
      "name": "NewMgv",
      "type": "event"
    },
    {
      "anonymous": false,
      "inputs": [
        {
          "indexed": true,
          "internalType": "bytes32",
          "name": "olKeyHash",
          "type": "bytes32"
        },
        {
          "indexed": true,
          "internalType": "address",
          "name": "taker",
          "type": "address"
        },
        {
          "indexed": true,
          "internalType": "uint256",
          "name": "id",
          "type": "uint256"
        },
        {
          "indexed": false,
          "internalType": "uint256",
          "name": "takerWants",
          "type": "uint256"
        },
        {
          "indexed": false,
          "internalType": "uint256",
          "name": "takerGives",
          "type": "uint256"
        },
        {
          "indexed": false,
          "internalType": "uint256",
          "name": "penalty",
          "type": "uint256"
        },
        {
          "indexed": false,
          "internalType": "bytes32",
          "name": "mgvData",
          "type": "bytes32"
        }
      ],
      "name": "OfferFail",
      "type": "event"
    },
    {
      "anonymous": false,
      "inputs": [
        {
          "indexed": true,
          "internalType": "bytes32",
          "name": "olKeyHash",
          "type": "bytes32"
        },
        {
          "indexed": true,
          "internalType": "address",
          "name": "taker",
          "type": "address"
        },
        {
          "indexed": true,
          "internalType": "uint256",
          "name": "id",
          "type": "uint256"
        },
        {
          "indexed": false,
          "internalType": "uint256",
          "name": "takerWants",
          "type": "uint256"
        },
        {
          "indexed": false,
          "internalType": "uint256",
          "name": "takerGives",
          "type": "uint256"
        },
        {
          "indexed": false,
          "internalType": "uint256",
          "name": "penalty",
          "type": "uint256"
        },
        {
          "indexed": false,
          "internalType": "bytes32",
          "name": "mgvData",
          "type": "bytes32"
        },
        {
          "indexed": false,
          "internalType": "bytes32",
          "name": "posthookData",
          "type": "bytes32"
        }
      ],
      "name": "OfferFailWithPosthookData",
      "type": "event"
    },
    {
      "anonymous": false,
      "inputs": [
        {
          "indexed": true,
          "internalType": "bytes32",
          "name": "olKeyHash",
          "type": "bytes32"
        },
        {
          "indexed": true,
          "internalType": "address",
          "name": "maker",
          "type": "address"
        },
        {
          "indexed": false,
          "internalType": "uint256",
          "name": "id",
          "type": "uint256"
        },
        {
          "indexed": false,
          "internalType": "bool",
          "name": "deprovision",
          "type": "bool"
        }
      ],
      "name": "OfferRetract",
      "type": "event"
    },
    {
      "anonymous": false,
      "inputs": [
        {
          "indexed": true,
          "internalType": "bytes32",
          "name": "olKeyHash",
          "type": "bytes32"
        },
        {
          "indexed": true,
          "internalType": "address",
          "name": "taker",
          "type": "address"
        },
        {
          "indexed": true,
          "internalType": "uint256",
          "name": "id",
          "type": "uint256"
        },
        {
          "indexed": false,
          "internalType": "uint256",
          "name": "takerWants",
          "type": "uint256"
        },
        {
          "indexed": false,
          "internalType": "uint256",
          "name": "takerGives",
          "type": "uint256"
        }
      ],
      "name": "OfferSuccess",
      "type": "event"
    },
    {
      "anonymous": false,
      "inputs": [
        {
          "indexed": true,
          "internalType": "bytes32",
          "name": "olKeyHash",
          "type": "bytes32"
        },
        {
          "indexed": true,
          "internalType": "address",
          "name": "taker",
          "type": "address"
        },
        {
          "indexed": true,
          "internalType": "uint256",
          "name": "id",
          "type": "uint256"
        },
        {
          "indexed": false,
          "internalType": "uint256",
          "name": "takerWants",
          "type": "uint256"
        },
        {
          "indexed": false,
          "internalType": "uint256",
          "name": "takerGives",
          "type": "uint256"
        },
        {
          "indexed": false,
          "internalType": "bytes32",
          "name": "posthookData",
          "type": "bytes32"
        }
      ],
      "name": "OfferSuccessWithPosthookData",
      "type": "event"
    },
    {
      "anonymous": false,
      "inputs": [
        {
          "indexed": true,
          "internalType": "bytes32",
          "name": "olKeyHash",
          "type": "bytes32"
        },
        {
          "indexed": true,
          "internalType": "address",
          "name": "maker",
          "type": "address"
        },
        {
          "indexed": false,
          "internalType": "int256",
          "name": "tick",
          "type": "int256"
        },
        {
          "indexed": false,
          "internalType": "uint256",
          "name": "gives",
          "type": "uint256"
        },
        {
          "indexed": false,
          "internalType": "uint256",
          "name": "gasprice",
          "type": "uint256"
        },
        {
          "indexed": false,
          "internalType": "uint256",
          "name": "gasreq",
          "type": "uint256"
        },
        {
          "indexed": false,
          "internalType": "uint256",
          "name": "id",
          "type": "uint256"
        }
      ],
      "name": "OfferWrite",
      "type": "event"
    },
    {
      "anonymous": false,
      "inputs": [
        {
          "indexed": true,
          "internalType": "bytes32",
          "name": "olKeyHash",
          "type": "bytes32"
        },
        {
          "indexed": true,
          "internalType": "address",
          "name": "taker",
          "type": "address"
        },
        {
          "indexed": false,
          "internalType": "uint256",
          "name": "fee",
          "type": "uint256"
        }
      ],
      "name": "OrderComplete",
      "type": "event"
    },
    {
      "anonymous": false,
      "inputs": [
        {
          "indexed": true,
          "internalType": "bytes32",
          "name": "olKeyHash",
          "type": "bytes32"
        },
        {
          "indexed": true,
          "internalType": "address",
          "name": "taker",
          "type": "address"
        },
        {
          "indexed": false,
          "internalType": "Tick",
          "name": "maxTick",
          "type": "int256"
        },
        {
          "indexed": false,
          "internalType": "uint256",
          "name": "fillVolume",
          "type": "uint256"
        },
        {
          "indexed": false,
          "internalType": "bool",
          "name": "fillWants",
          "type": "bool"
        }
      ],
      "name": "OrderStart",
      "type": "event"
    },
    {
      "anonymous": false,
      "inputs": [
        {
          "indexed": true,
          "internalType": "bytes32",
          "name": "olKeyHash",
          "type": "bytes32"
        },
        {
          "indexed": true,
          "internalType": "address",
          "name": "outbound_tkn",
          "type": "address"
        },
        {
          "indexed": true,
          "internalType": "address",
          "name": "inbound_tkn",
          "type": "address"
        },
        {
          "indexed": false,
          "internalType": "uint256",
          "name": "tickSpacing",
          "type": "uint256"
        },
        {
          "indexed": false,
          "internalType": "bool",
          "name": "value",
          "type": "bool"
        }
      ],
      "name": "SetActive",
      "type": "event"
    },
    {
      "anonymous": false,
      "inputs": [
        {
          "indexed": true,
          "internalType": "bytes32",
          "name": "olKeyHash",
          "type": "bytes32"
        },
        {
          "indexed": false,
          "internalType": "uint256",
          "name": "value",
          "type": "uint256"
        }
      ],
      "name": "SetDensity96X32",
      "type": "event"
    },
    {
      "anonymous": false,
      "inputs": [
        {
          "indexed": true,
          "internalType": "bytes32",
          "name": "olKeyHash",
          "type": "bytes32"
        },
        {
          "indexed": false,
          "internalType": "uint256",
          "name": "value",
          "type": "uint256"
        }
      ],
      "name": "SetFee",
      "type": "event"
    },
    {
      "anonymous": false,
      "inputs": [
        {
          "indexed": true,
          "internalType": "bytes32",
          "name": "olKeyHash",
          "type": "bytes32"
        },
        {
          "indexed": false,
          "internalType": "uint256",
          "name": "offer_gasbase",
          "type": "uint256"
        }
      ],
      "name": "SetGasbase",
      "type": "event"
    },
    {
      "anonymous": false,
      "inputs": [
        {
          "indexed": false,
          "internalType": "uint256",
          "name": "value",
          "type": "uint256"
        }
      ],
      "name": "SetGasmax",
      "type": "event"
    },
    {
      "anonymous": false,
      "inputs": [
        {
          "indexed": false,
          "internalType": "uint256",
          "name": "value",
          "type": "uint256"
        }
      ],
      "name": "SetGasprice",
      "type": "event"
    },
    {
      "anonymous": false,
      "inputs": [
        {
          "indexed": false,
          "internalType": "address",
          "name": "value",
          "type": "address"
        }
      ],
      "name": "SetGovernance",
      "type": "event"
    },
    {
      "anonymous": false,
      "inputs": [
        {
          "indexed": false,
          "internalType": "uint256",
          "name": "value",
          "type": "uint256"
        }
      ],
      "name": "SetMaxGasreqForFailingOffers",
      "type": "event"
    },
    {
      "anonymous": false,
      "inputs": [
        {
          "indexed": false,
          "internalType": "uint256",
          "name": "value",
          "type": "uint256"
        }
      ],
      "name": "SetMaxRecursionDepth",
      "type": "event"
    },
    {
      "anonymous": false,
      "inputs": [
        {
          "indexed": false,
          "internalType": "address",
          "name": "value",
          "type": "address"
        }
      ],
      "name": "SetMonitor",
      "type": "event"
    },
    {
      "anonymous": false,
      "inputs": [
        {
          "indexed": false,
          "internalType": "bool",
          "name": "value",
          "type": "bool"
        }
      ],
      "name": "SetNotify",
      "type": "event"
    },
    {
      "anonymous": false,
      "inputs": [
        {
          "indexed": false,
          "internalType": "bool",
          "name": "value",
          "type": "bool"
        }
      ],
      "name": "SetUseOracle",
      "type": "event"
    },
    {
      "inputs": [],
      "name": "PERMIT_TYPEHASH",
      "outputs": [
        {
          "internalType": "bytes32",
          "name": "",
          "type": "bytes32"
        }
      ],
      "stateMutability": "pure",
      "type": "function"
    },
    {
      "inputs": [
        {
          "components": [
            {
              "internalType": "address",
              "name": "outbound_tkn",
              "type": "address"
            },
            {
              "internalType": "address",
              "name": "inbound_tkn",
              "type": "address"
            },
            {
              "internalType": "uint256",
              "name": "tickSpacing",
              "type": "uint256"
            }
          ],
          "internalType": "struct OLKey",
          "name": "olKey",
          "type": "tuple"
        },
        {
          "internalType": "uint256",
          "name": "fee",
          "type": "uint256"
        },
        {
          "internalType": "uint256",
          "name": "density96X32",
          "type": "uint256"
        },
        {
          "internalType": "uint256",
          "name": "offer_gasbase",
          "type": "uint256"
        }
      ],
      "name": "activate",
      "outputs": [],
      "stateMutability": "nonpayable",
      "type": "function"
    },
    {
      "inputs": [
        {
          "internalType": "address",
          "name": "outbound_tkn",
          "type": "address"
        },
        {
          "internalType": "address",
          "name": "inbound_tkn",
          "type": "address"
        },
        {
          "internalType": "address",
          "name": "owner",
          "type": "address"
        },
        {
          "internalType": "address",
          "name": "spender",
          "type": "address"
        }
      ],
      "name": "allowance",
      "outputs": [
        {
          "internalType": "uint256",
          "name": "amount",
          "type": "uint256"
        }
      ],
      "stateMutability": "view",
      "type": "function"
    },
    {
      "inputs": [
        {
          "internalType": "address",
          "name": "maker",
          "type": "address"
        }
      ],
      "name": "balanceOf",
      "outputs": [
        {
          "internalType": "uint256",
          "name": "balance",
          "type": "uint256"
        }
      ],
      "stateMutability": "view",
      "type": "function"
    },
    {
      "inputs": [
        {
          "components": [
            {
              "internalType": "address",
              "name": "outbound_tkn",
              "type": "address"
            },
            {
              "internalType": "address",
              "name": "inbound_tkn",
              "type": "address"
            },
            {
              "internalType": "uint256",
              "name": "tickSpacing",
              "type": "uint256"
            }
          ],
          "internalType": "struct OLKey",
          "name": "olKey",
          "type": "tuple"
        }
      ],
      "name": "best",
      "outputs": [
        {
          "internalType": "uint256",
          "name": "offerId",
          "type": "uint256"
        }
      ],
      "stateMutability": "view",
      "type": "function"
    },
    {
      "inputs": [
        {
          "components": [
            {
              "internalType": "address",
              "name": "outbound_tkn",
              "type": "address"
            },
            {
              "internalType": "address",
              "name": "inbound_tkn",
              "type": "address"
            },
            {
              "internalType": "uint256",
              "name": "tickSpacing",
              "type": "uint256"
            }
          ],
          "internalType": "struct OLKey",
          "name": "olKey",
          "type": "tuple"
        }
      ],
      "name": "config",
      "outputs": [
        {
          "internalType": "Global",
          "name": "_global",
          "type": "uint256"
        },
        {
          "internalType": "Local",
          "name": "_local",
          "type": "uint256"
        }
      ],
      "stateMutability": "view",
      "type": "function"
    },
    {
      "inputs": [
        {
          "components": [
            {
              "internalType": "address",
              "name": "outbound_tkn",
              "type": "address"
            },
            {
              "internalType": "address",
              "name": "inbound_tkn",
              "type": "address"
            },
            {
              "internalType": "uint256",
              "name": "tickSpacing",
              "type": "uint256"
            }
          ],
          "internalType": "struct OLKey",
          "name": "olKey",
          "type": "tuple"
        }
      ],
      "name": "deactivate",
      "outputs": [],
      "stateMutability": "nonpayable",
      "type": "function"
    },
    {
      "inputs": [],
      "name": "global",
      "outputs": [
        {
          "internalType": "Global",
          "name": "_global",
          "type": "uint256"
        }
      ],
      "stateMutability": "view",
      "type": "function"
    },
    {
      "inputs": [],
      "name": "governance",
      "outputs": [
        {
          "internalType": "address",
          "name": "",
          "type": "address"
        }
      ],
      "stateMutability": "view",
      "type": "function"
    },
    {
      "inputs": [],
      "name": "kill",
      "outputs": [],
      "stateMutability": "nonpayable",
      "type": "function"
    },
    {
      "inputs": [
        {
          "components": [
            {
              "internalType": "address",
              "name": "outbound_tkn",
              "type": "address"
            },
            {
              "internalType": "address",
              "name": "inbound_tkn",
              "type": "address"
            },
            {
              "internalType": "uint256",
              "name": "tickSpacing",
              "type": "uint256"
            }
          ],
          "internalType": "struct OLKey",
          "name": "olKey",
          "type": "tuple"
        },
        {
          "internalType": "int256",
          "name": "index",
          "type": "int256"
        }
      ],
      "name": "leafs",
      "outputs": [
        {
          "internalType": "Leaf",
          "name": "",
          "type": "uint256"
        }
      ],
      "stateMutability": "view",
      "type": "function"
    },
    {
      "inputs": [
        {
          "components": [
            {
              "internalType": "address",
              "name": "outbound_tkn",
              "type": "address"
            },
            {
              "internalType": "address",
              "name": "inbound_tkn",
              "type": "address"
            },
            {
              "internalType": "uint256",
              "name": "tickSpacing",
              "type": "uint256"
            }
          ],
          "internalType": "struct OLKey",
          "name": "olKey",
          "type": "tuple"
        },
        {
          "internalType": "int256",
          "name": "index",
          "type": "int256"
        }
      ],
      "name": "level1s",
      "outputs": [
        {
          "internalType": "Field",
          "name": "",
          "type": "uint256"
        }
      ],
      "stateMutability": "view",
      "type": "function"
    },
    {
      "inputs": [
        {
          "components": [
            {
              "internalType": "address",
              "name": "outbound_tkn",
              "type": "address"
            },
            {
              "internalType": "address",
              "name": "inbound_tkn",
              "type": "address"
            },
            {
              "internalType": "uint256",
              "name": "tickSpacing",
              "type": "uint256"
            }
          ],
          "internalType": "struct OLKey",
          "name": "olKey",
          "type": "tuple"
        },
        {
          "internalType": "int256",
          "name": "index",
          "type": "int256"
        }
      ],
      "name": "level2s",
      "outputs": [
        {
          "internalType": "Field",
          "name": "",
          "type": "uint256"
        }
      ],
      "stateMutability": "view",
      "type": "function"
    },
    {
      "inputs": [
        {
          "components": [
            {
              "internalType": "address",
              "name": "outbound_tkn",
              "type": "address"
            },
            {
              "internalType": "address",
              "name": "inbound_tkn",
              "type": "address"
            },
            {
              "internalType": "uint256",
              "name": "tickSpacing",
              "type": "uint256"
            }
          ],
          "internalType": "struct OLKey",
          "name": "olKey",
          "type": "tuple"
        },
        {
          "internalType": "int256",
          "name": "index",
          "type": "int256"
        }
      ],
      "name": "level3s",
      "outputs": [
        {
          "internalType": "Field",
          "name": "",
          "type": "uint256"
        }
      ],
      "stateMutability": "view",
      "type": "function"
    },
    {
      "inputs": [
        {
          "components": [
            {
              "internalType": "address",
              "name": "outbound_tkn",
              "type": "address"
            },
            {
              "internalType": "address",
              "name": "inbound_tkn",
              "type": "address"
            },
            {
              "internalType": "uint256",
              "name": "tickSpacing",
              "type": "uint256"
            }
          ],
          "internalType": "struct OLKey",
          "name": "olKey",
          "type": "tuple"
        }
      ],
      "name": "local",
      "outputs": [
        {
          "internalType": "Local",
          "name": "_local",
          "type": "uint256"
        }
      ],
      "stateMutability": "view",
      "type": "function"
    },
    {
      "inputs": [
        {
          "components": [
            {
              "internalType": "address",
              "name": "outbound_tkn",
              "type": "address"
            },
            {
              "internalType": "address",
              "name": "inbound_tkn",
              "type": "address"
            },
            {
              "internalType": "uint256",
              "name": "tickSpacing",
              "type": "uint256"
            }
          ],
          "internalType": "struct OLKey",
          "name": "olKey",
          "type": "tuple"
        }
      ],
      "name": "locked",
      "outputs": [
        {
          "internalType": "bool",
          "name": "",
          "type": "bool"
        }
      ],
      "stateMutability": "view",
      "type": "function"
    },
    {
      "inputs": [
        {
          "internalType": "address",
          "name": "owner",
          "type": "address"
        }
      ],
      "name": "nonces",
      "outputs": [
        {
          "internalType": "uint256",
          "name": "nonce",
          "type": "uint256"
        }
      ],
      "stateMutability": "view",
      "type": "function"
    },
    {
      "inputs": [
        {
          "components": [
            {
              "internalType": "address",
              "name": "outbound_tkn",
              "type": "address"
            },
            {
              "internalType": "address",
              "name": "inbound_tkn",
              "type": "address"
            },
            {
              "internalType": "uint256",
              "name": "tickSpacing",
              "type": "uint256"
            }
          ],
          "internalType": "struct OLKey",
          "name": "olKey",
          "type": "tuple"
        },
        {
          "internalType": "uint256",
          "name": "offerId",
          "type": "uint256"
        }
      ],
      "name": "offerData",
      "outputs": [
        {
          "internalType": "Offer",
          "name": "offer",
          "type": "uint256"
        },
        {
          "internalType": "OfferDetail",
          "name": "offerDetail",
          "type": "uint256"
        }
      ],
      "stateMutability": "view",
      "type": "function"
    },
    {
      "inputs": [
        {
          "components": [
            {
              "internalType": "address",
              "name": "outbound_tkn",
              "type": "address"
            },
            {
              "internalType": "address",
              "name": "inbound_tkn",
              "type": "address"
            },
            {
              "internalType": "uint256",
              "name": "tickSpacing",
              "type": "uint256"
            }
          ],
          "internalType": "struct OLKey",
          "name": "olKey",
          "type": "tuple"
        },
        {
          "internalType": "uint256",
          "name": "offerId",
          "type": "uint256"
        }
      ],
      "name": "offerDetails",
      "outputs": [
        {
          "internalType": "OfferDetail",
          "name": "offerDetail",
          "type": "uint256"
        }
      ],
      "stateMutability": "view",
      "type": "function"
    },
    {
      "inputs": [
        {
          "components": [
            {
              "internalType": "address",
              "name": "outbound_tkn",
              "type": "address"
            },
            {
              "internalType": "address",
              "name": "inbound_tkn",
              "type": "address"
            },
            {
              "internalType": "uint256",
              "name": "tickSpacing",
              "type": "uint256"
            }
          ],
          "internalType": "struct OLKey",
          "name": "olKey",
          "type": "tuple"
        },
        {
          "internalType": "uint256",
          "name": "offerId",
          "type": "uint256"
        }
      ],
      "name": "offers",
      "outputs": [
        {
          "internalType": "Offer",
          "name": "offer",
          "type": "uint256"
        }
      ],
      "stateMutability": "view",
      "type": "function"
    },
    {
      "inputs": [
        {
          "internalType": "bytes32",
          "name": "olKeyHash",
          "type": "bytes32"
        }
      ],
      "name": "olKeys",
      "outputs": [
        {
          "components": [
            {
              "internalType": "address",
              "name": "outbound_tkn",
              "type": "address"
            },
            {
              "internalType": "address",
              "name": "inbound_tkn",
              "type": "address"
            },
            {
              "internalType": "uint256",
              "name": "tickSpacing",
              "type": "uint256"
            }
          ],
          "internalType": "struct OLKey",
          "name": "olKey",
          "type": "tuple"
        }
      ],
      "stateMutability": "view",
      "type": "function"
    },
    {
      "inputs": [
        {
          "components": [
            {
              "internalType": "address",
              "name": "outbound_tkn",
              "type": "address"
            },
            {
              "internalType": "address",
              "name": "inbound_tkn",
              "type": "address"
            },
            {
              "internalType": "uint256",
              "name": "tickSpacing",
              "type": "uint256"
            }
          ],
          "internalType": "struct OLKey",
          "name": "olKey",
          "type": "tuple"
        }
      ],
      "name": "root",
      "outputs": [
        {
          "internalType": "Field",
          "name": "",
          "type": "uint256"
        }
      ],
      "stateMutability": "view",
      "type": "function"
    },
    {
      "inputs": [
        {
          "components": [
            {
              "internalType": "address",
              "name": "outbound_tkn",
              "type": "address"
            },
            {
              "internalType": "address",
              "name": "inbound_tkn",
              "type": "address"
            },
            {
              "internalType": "uint256",
              "name": "tickSpacing",
              "type": "uint256"
            }
          ],
          "internalType": "struct OLKey",
          "name": "olKey",
          "type": "tuple"
        },
        {
          "internalType": "uint256",
          "name": "density96X32",
          "type": "uint256"
        }
      ],
      "name": "setDensity96X32",
      "outputs": [],
      "stateMutability": "nonpayable",
      "type": "function"
    },
    {
      "inputs": [
        {
          "components": [
            {
              "internalType": "address",
              "name": "outbound_tkn",
              "type": "address"
            },
            {
              "internalType": "address",
              "name": "inbound_tkn",
              "type": "address"
            },
            {
              "internalType": "uint256",
              "name": "tickSpacing",
              "type": "uint256"
            }
          ],
          "internalType": "struct OLKey",
          "name": "olKey",
          "type": "tuple"
        },
        {
          "internalType": "uint256",
          "name": "fee",
          "type": "uint256"
        }
      ],
      "name": "setFee",
      "outputs": [],
      "stateMutability": "nonpayable",
      "type": "function"
    },
    {
      "inputs": [
        {
          "components": [
            {
              "internalType": "address",
              "name": "outbound_tkn",
              "type": "address"
            },
            {
              "internalType": "address",
              "name": "inbound_tkn",
              "type": "address"
            },
            {
              "internalType": "uint256",
              "name": "tickSpacing",
              "type": "uint256"
            }
          ],
          "internalType": "struct OLKey",
          "name": "olKey",
          "type": "tuple"
        },
        {
          "internalType": "uint256",
          "name": "offer_gasbase",
          "type": "uint256"
        }
      ],
      "name": "setGasbase",
      "outputs": [],
      "stateMutability": "nonpayable",
      "type": "function"
    },
    {
      "inputs": [
        {
          "internalType": "uint256",
          "name": "gasmax",
          "type": "uint256"
        }
      ],
      "name": "setGasmax",
      "outputs": [],
      "stateMutability": "nonpayable",
      "type": "function"
    },
    {
      "inputs": [
        {
          "internalType": "uint256",
          "name": "gasprice",
          "type": "uint256"
        }
      ],
      "name": "setGasprice",
      "outputs": [],
      "stateMutability": "nonpayable",
      "type": "function"
    },
    {
      "inputs": [
        {
          "internalType": "address",
          "name": "governanceAddress",
          "type": "address"
        }
      ],
      "name": "setGovernance",
      "outputs": [],
      "stateMutability": "nonpayable",
      "type": "function"
    },
    {
      "inputs": [
        {
          "internalType": "uint256",
          "name": "maxGasreqForFailingOffers",
          "type": "uint256"
        }
      ],
      "name": "setMaxGasreqForFailingOffers",
      "outputs": [],
      "stateMutability": "nonpayable",
      "type": "function"
    },
    {
      "inputs": [
        {
          "internalType": "uint256",
          "name": "maxRecursionDepth",
          "type": "uint256"
        }
      ],
      "name": "setMaxRecursionDepth",
      "outputs": [],
      "stateMutability": "nonpayable",
      "type": "function"
    },
    {
      "inputs": [
        {
          "internalType": "address",
          "name": "monitor",
          "type": "address"
        }
      ],
      "name": "setMonitor",
      "outputs": [],
      "stateMutability": "nonpayable",
      "type": "function"
    },
    {
      "inputs": [
        {
          "internalType": "bool",
          "name": "notify",
          "type": "bool"
        }
      ],
      "name": "setNotify",
      "outputs": [],
      "stateMutability": "nonpayable",
      "type": "function"
    },
    {
      "inputs": [
        {
          "internalType": "bool",
          "name": "useOracle",
          "type": "bool"
        }
      ],
      "name": "setUseOracle",
      "outputs": [],
      "stateMutability": "nonpayable",
      "type": "function"
    },
    {
      "inputs": [
        {
          "internalType": "address",
          "name": "tokenAddress",
          "type": "address"
        },
        {
          "internalType": "uint256",
          "name": "value",
          "type": "uint256"
        }
      ],
      "name": "withdrawERC20",
      "outputs": [],
      "stateMutability": "nonpayable",
      "type": "function"
    }
  ],
  "bytecode": {
    "object": "0x608060405234801561001057600080fd5b50611aef806100206000396000f3fe608060405234801561001057600080fd5b50600436106102065760003560e01c806374bfac331161011a578063c7b06e87116100ad578063e982fb8d1161007c578063e982fb8d1461056a578063eeba33681461057d578063f514244414610590578063fcaa7e2e146105a3578063fec777b4146105b657600080fd5b8063c7b06e87146104e3578063cd6a7ca7146104f6578063ce5bbece14610544578063e37de38b1461055757600080fd5b806396b4c30f116100e957806396b4c30f146104a2578063a05f9906146104b5578063a1db9782146104bd578063ab033ea9146104d057600080fd5b806374bfac33146104405780637ecebe0014610453578063902455301461047c57806395999ee31461048f57600080fd5b80635275b2121161019d5780635cd823901161016c5780635cd82390146103495780635d49dc111461035c5780636804f613146103f15780636c6fda561461040457806370a082311461041757600080fd5b80635275b212146102d05780635a611f4e146102f85780635aa6e6751461030b5780635b2752961461033657600080fd5b806330adf81f116101d957806330adf81f1461027a57806341b12acf146102a057806341c0e1b5146102b3578063443759fb146102bd57600080fd5b80630469bb661461020b57806304a7a1b4146102335780630adf51a9146102545780631c04321514610267575b600080fd5b61021e610219366004611837565b6105c9565b60405190151581526020015b60405180910390f35b610246610241366004611853565b610601565b60405190815260200161022a565b610246610262366004611853565b610646565b610246610275366004611837565b6106c6565b7ff0ea0a7146fb6eedb561d97b593d57d9b7df3c94d689372dc01302e5780248f4610246565b6102466102ae366004611837565b6106e4565b6102bb610725565b005b6102bb6102cb366004611853565b61076f565b6102e36102de366004611837565b61084a565b6040805192835260208301919091520161022a565b6102bb61030636600461188c565b61086a565b60005461031e906001600160a01b031681565b6040516001600160a01b03909116815260200161022a565b6102bb610344366004611837565b6108c4565b6102bb6103573660046118a9565b610967565b6103c161036a3660046118c4565b60408051606080820183526000808352602080840182905292840181905293845260038252928290208251938401835280546001600160a01b03908116855260018201541691840191909152600201549082015290565b6040805182516001600160a01b03908116825260208085015190911690820152918101519082015260600161022a565b6102bb6103ff36600461188c565b6109d1565b610246610412366004611853565b610a24565b6102466104253660046118a9565b6001600160a01b031660009081526004602052604090205490565b6102bb61044e3660046118c4565b610a9f565b6102466104613660046118a9565b6001600160a01b031660009081526006602052604090205490565b61024661048a366004611837565b610b33565b6102bb61049d3660046118c4565b610b9d565b6102bb6104b03660046118dd565b610c52565b610246610d69565b6102bb6104cb366004611917565b610d96565b6102bb6104de3660046118a9565b610dfe565b6102e36104f1366004611853565b610ea0565b610246610504366004611941565b6001600160a01b03938416600090815260056020908152604080832095871683529481528482209386168252928352838120919094168452905290205490565b610246610552366004611853565b610ef1565b6102bb6105653660046118c4565b610f3b565b610246610578366004611853565b610fce565b6102bb61058b366004611853565b611016565b6102bb61059e366004611853565b6110cd565b6102bb6105b13660046118c4565b611191565b6102466105c4366004611853565b611243565b60006105fb600260006105dd856060902090565b81526020019081526020016000206000015464010000000016151590565b92915050565b60008060026000610613866060902090565b8152602001908152602001600020905061063081600001546112be565b6000928352600501602052506040902054919050565b60008060026000610658866060902090565b815260208101919091526040016000208054909150610676816112be565b836106896106838361130d565b600e1d90565b036106a757606c81901c67ffffffffffffffff165b925050506105fb565b60008481526002830160205260409020546001600160ff1b031661069e565b60006106d182611318565b5091506106df9050816112be565b919050565b600080600260006106f6856060902090565b815260208101919091526040016000208054909150610714816112be565b602a81901c6003165b949350505050565b61072d611441565b60015465080000000000191665080000000000176001556040517fbe26733c2bf6ff3ea5ba8cfe744422bd49052ff9ed5685c9e81e6f9321dbaddd90600090a1565b610777611441565b6040805180820190915260148152736d67762f636f6e6669672f6665652f386269747360601b602082015260ff821682146107ce5760405162461bcd60e51b81526004016107c591906119b9565b60405180910390fd5b506000600260006107e0856060902090565b815260208101919091526040016000208054909150600161010160f71b031660ff60f71b60f784901b16178155606083206040518381527f139d6f58e9a127229667c8e3b36e88890a66cfc8ab1024ddc513e189e125b75b906020015b60405180910390a2505050565b60008061085683611318565b509092509050610865816112be565b915091565b610872611441565b6001546001605e1b1916605e82901b6001605e1b161760015560405181151581527f9b84fe4d9ffc14a6f7ec50c18884ee0d4bb8165aa718a28558df12ab4bd32b14906020015b60405180910390a150565b6108cc611441565b6000600260006108dd846060902090565b81526020019081526020016000209050610905600082600001546114ae90919063ffffffff16565b8155602082015182516001600160a01b039182169116610926846060902090565b6040808601518151908152600060208201527fae754ab4fca7273731e24a2db3350b4f89e22d7eff0819e2e3ab99aadca96de2910160405180910390a45050565b61096f611441565b6001546bffffffffffffffffffffffff166bffffffffffffffffffffffff19606083901b16176001556040516001600160a01b03821681527ff592e42c32883b35bebfbf9d9b801570a25d5ccbba452310746ad2cfd20d548f906020016108b9565b6109d9611441565b6001546001605f1b1916605f82901b6001605f1b161760015560405181151581527fbf39fbfab835c119637f4dbc4fb0f428c559c210200405d1ec25ddb50a93f9d4906020016108b9565b60008060026000610a36866060902090565b815260208101919091526040016000208054909150610a54816112be565b83610a67610a618361130d565b60141d90565b03610a8057602c81901c67ffffffffffffffff1661069e565b60008481526001830160205260409020546001600160ff1b031661069e565b610aa7611441565b63ffffffff811681146040518060600160405280602b8152602001611a8f602b913990610ae75760405162461bcd60e51b81526004016107c591906119b9565b506001546407fffffff819166407fffffff8600383901b16176001556040518181527fd03e2a424e8f5cf53988a496e7a6a3b7e11e7c082a349bdfdb61f4623863bc01906020016108b9565b60008060026000610b45856060902090565b815260208101919091526040016000208054909150610b63816112be565b61071d610b98836004016000610b81610b7b8661130d565b60021d90565b815260200190815260200160002054600181141890565b6114c1565b610ba5611441565b60408051808201909152601881527f6d67762f636f6e6669672f6761736d61782f3234626974730000000000000000602082015262ffffff82168214610bfe5760405162461bcd60e51b81526004016107c591906119b9565b50600154680ffffff000000000001916680ffffff00000000000602c83901b16176001556040518181527f8cdff0cd5ed2543bcdf7eb93d8ec1c23626e579925f4531beeef15d84cf78d18906020016108b9565b610c5a611441565b606084206000818152600360209081526040808320885181546001600160a01b03199081166001600160a01b03928316178355848b0151600184018054909216921691909117905581890151600291820155909152902080546001600160ff1b0316600160ff1b178155602086015186516001600160a01b039182169116610ce3886060902090565b6040808a01518151908152600160208201527fae754ab4fca7273731e24a2db3350b4f89e22d7eff0819e2e3ab99aadca96de2910160405180910390a4610d2a868661076f565b610d3486856110cd565b610d3e8684611016565b600019600090815260019091016020526040808220600160ff1b908190558280529120555050505050565b60408051606081018252600080825260208201819052918101829052610d8e90611318565b509092915050565b610d9e611441565b600054610db69083906001600160a01b0316836114f7565b610dfa5760405162461bcd60e51b81526020600482015260156024820152741b59dd8bddda5d1a191c985dd15490cc8c11985a5b605a1b60448201526064016107c5565b5050565b610e06611441565b6001600160a01b038116610e525760405162461bcd60e51b815260206004820152601360248201527206d67762f636f6e6669672f676f762f6e6f743606c1b60448201526064016107c5565b600080546001600160a01b0319166001600160a01b0383169081179091556040519081527f24a8c4807b324a269a51827c3446b8ac1cc13810d7d0c0ca1efafabddd7b6219906020016108b9565b600080600060026000610eb4876060902090565b81526020019081526020016000209050610ed181600001546112be565b600093845260050160205250506040902080546001909101549092909150565b60008060026000610f03866060902090565b81526020019081526020016000209050610f2081600001546112be565b60009283526004016020525060409020546001811418919050565b610f43611441565b60ff81168114604051806060016040528060228152602001611a4a6022913990610f805760405162461bcd60e51b81526004016107c591906119b9565b506001546507f80000000019166507f800000000602383901b16176001556040518181527ff9212b044703fa96962c8e40c32a62753a62752f2508fc05be2648e74dd24d85906020016108b9565b60008060026000610fe0866060902090565b81526020019081526020016000209050610ffd81600001546112be565b6000928352600501602052506040902060010154919050565b61101e611441565b61102f6103e882046101ff81161490565b604051806060016040528060238152602001611a6c60239139906110665760405162461bcd60e51b81526004016107c591906119b9565b50600060026000611078856060902090565b81526020810191909152604001600020805490915061109790836115cc565b8155606083206040518381527f4e29e260c5052737cbcd072416e6066a3db8a95f90ed5a03d4b424fc04c54b839060200161083d565b6110d5611441565b6000600260006110e6856060902090565b8152602001908152602001600020905061110382600160801b1190565b61114f5760405162461bcd60e51b815260206004820152601d60248201527f6d67762f636f6e6669672f64656e7369747939365833322f77726f6e6700000060448201526064016107c5565b805461115b90836115f1565b8155606083206040518381527f0bd5b439c78e74e0095d271b67b573d223bc701828c7e2f0bb943a44c5eaa4fe9060200161083d565b611199611441565b60408051808201909152601a81527f6d67762f636f6e6669672f67617370726963652f32366269747300000000000060208201526303ffffff821682146111f35760405162461bcd60e51b81526004016107c591906119b9565b506001546303ffffff60441b19166303ffffff60441b604483901b16176001556040518181527fdbebd814ae648f654dcc50c734aa76e55a32e96b7d85303a08e2ddf11874a0dd906020016108b9565b60008060026000611255866060902090565b815260208101919091526040016000208054909150611273816112be565b836112866112808361130d565b60081d90565b0361129f5760ac81901c67ffffffffffffffff1661069e565b60008481526003830160205260409020546001600160ff1b031661069e565b64010000000081161561130a5760405162461bcd60e51b81526020600482015260146024820152731b59dd8bdc99595b9d1c985b98de531bd8dad95960621b60448201526064016107c5565b50565b60006105fb82611606565b60008060006002600061132c866060902090565b81526020019081526020016000209050600154925080600001549150611357836001605f1b16151590565b1561143a576000806113698560601c90565b6040805163361d8a6b60e21b815288516001600160a01b03908116600483015260208a01518116602483015291890151604482015291169063d87629ac906064016040805180830381865afa1580156113c6573d6000803e3d6000fd5b505050506040513d601f19601f820116820180604052508101906113ea91906119ec565b915091506113fd826303ffffff81161490565b1561141f576303ffffff60441b1985166303ffffff60441b604484901b161794505b6101ff81168103611437576114348482611682565b93505b50505b9193909250565b6000546001600160a01b031633148061145957503330145b8061146d57506000546001600160a01b0316155b6114ac5760405162461bcd60e51b815260206004820152601060248201526f1b59dd8bdd5b985d5d1a1bdc9a5e995960821b60448201526064016107c5565b565b60ff1b6001600160ff1b03919091161790565b60006105fb8267ffffffffffffffff6001600160801b038211600781901b83901c9190911115901560011b176040021b60e01c90565b604080516001600160a01b038481166024830152604480830185905283518084039091018152606490920183526020820180516001600160e01b031663a9059cbb60e01b179052915160009283918291881690611555908590611a10565b6000604051808303816000865af19150503d8060008114611592576040519150601f19603f3d011682016040523d82523d6000602084013e611597565b606091505b50915091508180156115c15750805115806115c15750808060200190518101906115c19190611a2c565b979650505050505050565b60006503fe000000001983166503fe000000006103e8840460211b16175b9392505050565b60006115ea6115ff8361169b565b8490611682565b60008060026006808060016116216003602a8a901c1661174e565b03901b61163b602c88901c67ffffffffffffffff1661174e565b17901b611655606c87901c67ffffffffffffffff1661174e565b17901b61166f60ac86901c67ffffffffffffffff1661174e565b17901b60ec84901c600316179392505050565b60ee1b6101ff60ee1b166101ff60ee1b19919091161790565b6000600382116116a9575090565b6000611736837e09010a0d15021d0b0e10121619031e080c141c0f111807131b17061a05041f6307c4acdd60e01b6001600160801b03831160071b8315600890811b9190911784811c67ffffffffffffffff1060061b1784811c63ffffffff1060051b1793841c600181901c17600281901c17600481901c179081901c17601081901c170260fb1c1a1790565b90506003600119820184901c16600282901b176115ea565b7e011c021d0e18031e16140f191104081f1b0d17151310071a0c12060b050a0967ffffffffffffffff82811680196001019093161663ffffffff811160051b921560061b9290921791821c63077cb53160e01b0260fb1c1a1790565b80356001600160a01b03811681146106df57600080fd5b6000606082840312156117d357600080fd5b6040516060810181811067ffffffffffffffff8211171561180457634e487b7160e01b600052604160045260246000fd5b604052905080611813836117aa565b8152611821602084016117aa565b6020820152604083013560408201525092915050565b60006060828403121561184957600080fd5b6115ea83836117c1565b6000806080838503121561186657600080fd5b61187084846117c1565b946060939093013593505050565b801515811461130a57600080fd5b60006020828403121561189e57600080fd5b81356115ea8161187e565b6000602082840312156118bb57600080fd5b6115ea826117aa565b6000602082840312156118d657600080fd5b5035919050565b60008060008060c085870312156118f357600080fd5b6118fd86866117c1565b966060860135965060808601359560a00135945092505050565b6000806040838503121561192a57600080fd5b611933836117aa565b946020939093013593505050565b6000806000806080858703121561195757600080fd5b611960856117aa565b935061196e602086016117aa565b925061197c604086016117aa565b915061198a606086016117aa565b905092959194509250565b60005b838110156119b0578181015183820152602001611998565b50506000910152565b60208152600082518060208401526119d8816040850160208701611995565b601f01601f19169190910160400192915050565b600080604083850312156119ff57600080fd5b505080516020909101519092909150565b60008251611a22818460208701611995565b9190910192915050565b600060208284031215611a3e57600080fd5b81516115ea8161187e56fe6d67762f636f6e6669672f6d6178526563757273696f6e44657074682f38626974736d67762f636f6e6669672f6b696c6f5f6f666665725f676173626173652f39626974736d67762f636f6e6669672f6d6178476173726571466f724661696c696e674f66666572732f333262697473a2646970667358221220654134cbb6ea0a65086ae9ee9b8ce79546c407e2c386f7faf3a7f1b97230f04564736f6c63430008140033",
    "linkReferences": {}
  },
  "methodIdentifiers": {
    "PERMIT_TYPEHASH()": "30adf81f",
    "activate((address,address,uint256),uint256,uint256,uint256)": "96b4c30f",
    "allowance(address,address,address,address)": "cd6a7ca7",
    "balanceOf(address)": "70a08231",
    "best((address,address,uint256))": "90245530",
    "config((address,address,uint256))": "5275b212",
    "deactivate((address,address,uint256))": "5b275296",
    "global()": "a05f9906",
    "governance()": "5aa6e675",
    "kill()": "41c0e1b5",
    "leafs((address,address,uint256),int256)": "ce5bbece",
    "level1s((address,address,uint256),int256)": "6c6fda56",
    "level2s((address,address,uint256),int256)": "0adf51a9",
    "level3s((address,address,uint256),int256)": "fec777b4",
    "local((address,address,uint256))": "1c043215",
    "locked((address,address,uint256))": "0469bb66",
    "nonces(address)": "7ecebe00",
    "offerData((address,address,uint256),uint256)": "c7b06e87",
    "offerDetails((address,address,uint256),uint256)": "e982fb8d",
    "offers((address,address,uint256),uint256)": "04a7a1b4",
    "olKeys(bytes32)": "5d49dc11",
    "root((address,address,uint256))": "41b12acf",
    "setDensity96X32((address,address,uint256),uint256)": "f5142444",
    "setFee((address,address,uint256),uint256)": "443759fb",
    "setGasbase((address,address,uint256),uint256)": "eeba3368",
    "setGasmax(uint256)": "95999ee3",
    "setGasprice(uint256)": "fcaa7e2e",
    "setGovernance(address)": "ab033ea9",
    "setMaxGasreqForFailingOffers(uint256)": "74bfac33",
    "setMaxRecursionDepth(uint256)": "e37de38b",
    "setMonitor(address)": "5cd82390",
    "setNotify(bool)": "5a611f4e",
    "setUseOracle(bool)": "6804f613",
    "withdrawERC20(address,uint256)": "a1db9782"
  },
  "id": 43
}