{
  "abi": [
    {
      "inputs": [
        {
          "internalType": "contract IMangrove",
          "name": "mgv",
          "type": "address"
        },
        {
          "internalType": "address",
          "name": "addressesProvider",
          "type": "address"
        },
        {
          "internalType": "uint256",
          "name": "routerGasreq",
          "type": "uint256"
        },
        {
          "internalType": "uint256",
          "name": "aaveKandelGasreq",
          "type": "uint256"
        }
      ],
      "stateMutability": "nonpayable",
      "type": "constructor"
    },
    {
      "anonymous": false,
      "inputs": [
        {
          "indexed": true,
          "internalType": "address",
          "name": "owner",
          "type": "address"
        },
        {
          "indexed": true,
          "internalType": "bytes32",
          "name": "olKeyHash",
          "type": "bytes32"
        },
        {
          "indexed": false,
          "internalType": "address",
          "name": "aaveKandel",
          "type": "address"
        },
        {
          "indexed": false,
          "internalType": "address",
          "name": "reserveId",
          "type": "address"
        }
      ],
      "name": "NewAaveKandel",
      "type": "event"
    },
    {
      "inputs": [],
      "name": "AAVE_ROUTER",
      "outputs": [
        {
          "internalType": "contract AavePooledRouter",
          "name": "",
          "type": "address"
        }
      ],
      "stateMutability": "view",
      "type": "function"
    },
    {
      "inputs": [],
      "name": "KANDEL_GASREQ",
      "outputs": [
        {
          "internalType": "uint256",
          "name": "",
          "type": "uint256"
        }
      ],
      "stateMutability": "view",
      "type": "function"
    },
    {
      "inputs": [],
      "name": "MGV",
      "outputs": [
        {
          "internalType": "contract IMangrove",
          "name": "",
          "type": "address"
        }
      ],
      "stateMutability": "view",
      "type": "function"
    },
    {
      "inputs": [
        {
          "components": [
            {
              "internalType": "address",
              "name": "outbound_tkn",
              "type": "address"
            },
            {
              "internalType": "address",
              "name": "inbound_tkn",
              "type": "address"
            },
            {
              "internalType": "uint256",
              "name": "tickSpacing",
              "type": "uint256"
            }
          ],
          "internalType": "struct OLKey",
          "name": "olKeyBaseQuote",
          "type": "tuple"
        },
        {
          "internalType": "bool",
          "name": "liquiditySharing",
          "type": "bool"
        }
      ],
      "name": "sow",
      "outputs": [
        {
          "internalType": "contract GeometricKandel",
          "name": "kandel",
          "type": "address"
        }
      ],
      "stateMutability": "nonpayable",
      "type": "function"
    }
  ],
  "bytecode": {
    "object": "0x60e060405234801561001057600080fd5b50604051618d77380380618d7783398101604081905261002f91610116565b6001600160a01b03841660805260a081905260405160009084908490610054906100f1565b6001600160a01b0390921682526020820152604001604051809103906000f080158015610085573d6000803e3d6000fd5b506001600160a01b03811660c08190526040516304e0290360e01b8152336004820152919250906304e0290390602401600060405180830381600087803b1580156100cf57600080fd5b505af11580156100e3573d6000803e3d6000fd5b50505050505050505061015e565b612cf78061608083390190565b6001600160a01b038116811461011357600080fd5b50565b6000806000806080858703121561012c57600080fd5b8451610137816100fe565b6020860151909450610148816100fe565b6040860151606090960151949790965092505050565b60805160a05160c051615ecc6101b46000396000818160560152818161042f01526104a2015260008181609a01526103b701526000818160cf0152818161013b015281816101ae01526103950152615ecc6000f3fe608060405234801561001057600080fd5b506004361061004c5760003560e01c806322f44d7d146100515780633b49aadd1461009557806399fa5e2d146100ca578063e170fa6a146100f1575b600080fd5b6100787f000000000000000000000000000000000000000000000000000000000000000081565b6040516001600160a01b0390911681526020015b60405180910390f35b6100bc7f000000000000000000000000000000000000000000000000000000000000000081565b60405190815260200161008c565b6100787f000000000000000000000000000000000000000000000000000000000000000081565b6100786100ff366004610589565b6040805163293ad90960e11b815283516001600160a01b03908116600483015260208501518116602483015291840151604482015260009182917f000000000000000000000000000000000000000000000000000000000000000090911690635275b212906064016040805180830381865afa158015610183573d6000803e3d6000fd5b505050506040513d601f19601f820116820180604052508101906101a79190610626565b91505060007f00000000000000000000000000000000000000000000000000000000000000006001600160a01b0316635275b212610228876040805160608082018352600080835260208084018290529284015282519081018352838201516001600160a01b03908116825284511691810191909152918101519082015290565b604080516001600160e01b031960e085901b16815282516001600160a01b039081166004830152602084015116602482015291015160448201526064016040805180830381865afa158015610281573d6000803e3d6000fd5b505050506040513d601f19601f820116820180604052508101906102a59190610626565b915050600160ff1b8216151580156102c25750600160ff1b811615155b6103125760405162461bcd60e51b815260206004820152601b60248201527f4b616e64656c5365656465722f696e6163746976654d61726b65740000000000604482015260640160405180910390fd5b61031c8585610380565b604051633825b60160e11b81523360048201529093506001600160a01b0384169063704b6c0290602401600060405180830381600087803b15801561036057600080fd5b505af1158015610374573d6000803e3d6000fd5b50505050505092915050565b6000808261038f576000610391565b335b90507f0000000000000000000000000000000000000000000000000000000000000000847f0000000000000000000000000000000000000000000000000000000000000000836040516103e39061055f565b6103f0949392919061064a565b604051809103906000f08015801561040c573d6000803e3d6000fd5b506040516381bac14f60e01b81526001600160a01b0380831660048301529193507f0000000000000000000000000000000000000000000000000000000000000000909116906381bac14f90602401600060405180830381600087803b15801561047557600080fd5b505af1158015610489573d6000803e3d6000fd5b505060405163189acdbd60e31b81526001600160a01b037f0000000000000000000000000000000000000000000000000000000000000000811660048301528516925063c4d66de89150602401600060405180830381600087803b1580156104f057600080fd5b505af1158015610504573d6000803e3d6000fd5b50505050610513846060902090565b604080516001600160a01b0385811682528416602082015233917f4a45f2ea0bd450a785293d559d31c15e5760146fa775aba273d502fb8632d64a910160405180910390a35092915050565b6157f380620006a483390190565b80356001600160a01b038116811461058457600080fd5b919050565b600080828403608081121561059d57600080fd5b60608112156105ab57600080fd5b506040516060810181811067ffffffffffffffff821117156105dd57634e487b7160e01b600052604160045260246000fd5b6040526105e98461056d565b81526105f76020850161056d565b60208201526040848101359082015291506060830135801515811461061b57600080fd5b809150509250929050565b6000806040838503121561063957600080fd5b505080516020909101519092909150565b6001600160a01b03858116825260c082019061068b602084018780516001600160a01b03908116835260208083015190911690830152604090810151910152565b84608084015280841660a0840152509594505050505056fe6101406040523480156200001257600080fd5b50604051620057f3380380620057f383398101604081905262000035916200040b565b8383838383838383828483838260008383838233806200009c5760405162461bcd60e51b815260206004820152601860248201527f416363657373436f6e74726f6c6c65642f307841646d696e000000000000000060448201526064015b60405180910390fd5b600080546001600160a01b0319166001600160a01b039290921691909117905562ffffff81168114620001125760405162461bcd60e51b815260206004820152601760248201527f6d67764f666665722f6761737265714f766572666c6f77000000000000000000604482015260640162000093565b6001600160a01b03821660a081905260808290526040519081527f23274a2ea157bc8b802cd1ca98faaaf1e5ed5472079061e406176ba38449d6879060200160405180910390a150506001600160a01b0383161562000176576200017683620002ba565b60006001600160a01b038216156200018f578162000191565b305b6001600160a01b03811660c0819052604051919250907f1efc2ac62377bfc2967149995d76b6a9a1ad2809a99afd6106b5ba742698217f90600090a2505086516001600160a01b0390811660e052602088015116610100525050506040840151610120525050606082207fa1824a64387381916c722ef6d39d525cb7c1dcbdfc58fc2dcd8cf57c061fc4e9915060405190815260200160405180910390a1505089516200024797509550506200036a9350505050565b158015620002625750602083015162000260906200036a565b155b620002b05760405162461bcd60e51b815260206004820152601c60248201527f416176654b616e64656c2f63616e6e6f74547261646541546f6b656e00000000604482015260640162000093565b50505050620004f5565b6000546001600160a01b03163314620003165760405162461bcd60e51b815260206004820152601860248201527f416363657373436f6e74726f6c6c65642f496e76616c69640000000000000000604482015260640162000093565b600180546001600160a01b0319166001600160a01b0383169081179091556040519081527f6de4326a8b9054d72d9dbab97d27bc4edffadee7d966f5af9cc4eafdaf8e54559060200160405180910390a150565b6000816001600160a01b031663b16a19de6040518163ffffffff1660e01b8152600401602060405180830381865afa925050508015620003c9575060408051601f3d908101601f19168201909252620003c691810190620004ce565b60015b15620003d85750600192915050565b506000919050565b6001600160a01b0381168114620003f657600080fd5b50565b80516200040681620003e0565b919050565b60008060008084860360c08112156200042357600080fd5b85516200043081620003e0565b94506060601f19820112156200044557600080fd5b50604051606081016001600160401b03811182821017156200047757634e487b7160e01b600052604160045260246000fd5b60405260208601516200048a81620003e0565b815260408601516200049c81620003e0565b60208201526060860151604082015260808601519093509150620004c360a08601620003f9565b905092959194509250565b600060208284031215620004e157600080fd5b8151620004ee81620003e0565b9392505050565b60805160a05160c05160e0516101005161012051615173620006806000396000818161037e015281816127fc015261288e01526000818161052601528181610faa015281816115cd0152818161191b0152818161210801528181612683015281816126f8015281816127cd015281816128300152612b3c0152600081816107d501528181610f7b015281816115a2015281816118f20152818161212e015281816125a80152818161261d0152818161279e0152818161285f01528181612aba015261372d01526000818161084501528181610b3e01528181610fd901528181611d31015281816123a9015281816128e301528181612bec01526133350152600081816104f201528181610a5301528181610bc80152818161116c015281816111f8015281816113880152818161194c01528181611b33015281816124710152818161296101528181612ca701528181612dc6015281816130e00152818161384d0152818161394e0152613c4801526000818161055a015281816114f8015261152601526151736000f3fe6080604052600436106102555760003560e01c80639eb7d4fe11610139578063cfcd2679116100b6578063ea0f394d1161007a578063ea0f394d146107a3578063ec342ad0146107c3578063f851a440146107f7578063f887ea4014610815578063fbc7d10b14610833578063fcaa7e2e1461086757600080fd5b8063cfcd26791461069c578063cff0ab96146106b1578063d2e498fe14610740578063e1f21c6714610760578063e4f248f41461079057600080fd5b8063ace67902116100fd578063ace67902146105fc578063bfc353f91461061c578063c0d786551461063c578063c4d66de81461065c578063c7e1bb441461067c57600080fd5b80639eb7d4fe146105485780639ee8a91c1461057c578063a224b5e91461059c578063a24f2b2d146105bc578063a2e241af146105dc57600080fd5b80635293840d116101d25780637692c328116101965780637692c32814610460578063790532a114610480578063820db1f7146104a057806398ed5340146104c057806399fa5e2d146104e05780639c5798391461051457600080fd5b80635293840d146103b35780635570db1d146103d357806361638ed514610400578063704b6c02146104205780637144df241461044057600080fd5b80632380fafd116102195780632380fafd146102ff57806334bd89311461031f5780633fce15c91461033f57806346ca626b1461036c5780634f605c5b146103a057600080fd5b806303eb17e2146102615780631450acd214610283578063148b7cea146102a357806314ee02bd146102b657806318acf82f146102df57600080fd5b3661025c57005b600080fd5b34801561026d57600080fd5b5061028161027c3660046143c1565b610887565b005b34801561028f57600080fd5b5061028161029e366004614436565b6108d6565b6102816102b1366004614624565b610a21565b3480156102c257600080fd5b506102cc60085481565b6040519081526020015b60405180910390f35b3480156102eb57600080fd5b506102cc6102fa366004614696565b610b00565b34801561030b57600080fd5b506102cc61031a3660046146c4565b610bc4565b34801561032b57600080fd5b5061028161033a366004614436565b610c7b565b34801561034b57600080fd5b5061035f61035a3660046146e1565b610d44565b6040516102d69190614791565b34801561037857600080fd5b506102cc7f000000000000000000000000000000000000000000000000000000000000000081565b6102816103ae3660046147ca565b610e16565b3480156103bf57600080fd5b506102816103ce3660046143c1565b610ede565b3480156103df57600080fd5b506103e8600081565b6040516001600160a01b0390911681526020016102d6565b34801561040c57600080fd5b5061028161041b36600461480d565b610f52565b34801561042c57600080fd5b5061028161043b366004614844565b61104f565b34801561044c57600080fd5b5061028161045b366004614861565b611124565b34801561046c57600080fd5b506102cc61047b366004614891565b611354565b34801561048c57600080fd5b5061028161049b3660046148bb565b611409565b3480156104ac57600080fd5b506102cc6104bb366004614910565b61145a565b3480156104cc57600080fd5b506102cc6104db366004614696565b611555565b3480156104ec57600080fd5b506103e87f000000000000000000000000000000000000000000000000000000000000000081565b34801561052057600080fd5b506103e87f000000000000000000000000000000000000000000000000000000000000000081565b34801561055457600080fd5b506102cc7f000000000000000000000000000000000000000000000000000000000000000081565b34801561058857600080fd5b5061028161059736600461493e565b611573565b3480156105a857600080fd5b506102816105b7366004614436565b6115f3565b3480156105c857600080fd5b506102cc6105d73660046149c9565b6116b2565b3480156105e857600080fd5b506102816105f736600461480d565b6116be565b34801561060857600080fd5b50610281610617366004614a06565b611756565b34801561062857600080fd5b506102cc610637366004614891565b6117fe565b34801561064857600080fd5b50610281610657366004614844565b611842565b34801561066857600080fd5b50610281610677366004614844565b6118ba565b34801561068857600080fd5b50610281610697366004614a3b565b61194a565b3480156106a857600080fd5b506102cc611a1c565b3480156106bd57600080fd5b506007546106fe9063ffffffff811690600160201b810462ffffff1690600160381b81046001600160581b031690600160901b90046001600160701b031684565b6040805163ffffffff909516855262ffffff90931660208501526001600160581b03909116918301919091526001600160701b031660608201526080016102d6565b34801561074c57600080fd5b506102cc61075b366004614696565b611a2e565b34801561076c57600080fd5b5061078061077b366004614a72565b611a75565b60405190151581526020016102d6565b61028161079e366004614ab3565b611b01565b3480156107af57600080fd5b506102cc6107be366004614891565b611bdc565b3480156107cf57600080fd5b506103e87f000000000000000000000000000000000000000000000000000000000000000081565b34801561080357600080fd5b506000546001600160a01b03166103e8565b34801561082157600080fd5b506001546001600160a01b03166103e8565b34801561083f57600080fd5b506103e87f000000000000000000000000000000000000000000000000000000000000000081565b34801561087357600080fd5b50610281610882366004614436565b611c20565b60005b818110156108d1576108c18383838181106108a7576108a7614b2f565b90506020020160208101906108bc9190614844565b611cdb565b6108ca81614b5b565b905061088a565b505050565b6000546001600160a01b031633146109095760405162461bcd60e51b815260040161090090614b74565b60405180910390fd5b808061094f5760405162461bcd60e51b81526020600482015260156024820152744b616e64656c2f7374657053697a65546f6f4c6f7760581b6044820152606401610900565b81816001600160581b03161480156109785750600754600160901b90046001600160701b031682105b6109bd5760405162461bcd60e51b8152602060048201526016602482015275096c2dcc8cad85ee6e8cae0a6d2f4caa8dede90d2ced60531b6044820152606401610900565b6007805471ffffffffffffffffffffff000000000000001916600160381b6001600160581b038416021790556040518281527f0408193baae9f2730f7be76d9be93983ed2dd45af2305c085920b8f00c25bbcd906020015b60405180910390a15050565b6000546001600160a01b03163314610a4b5760405162461bcd60e51b815260040161090090614b74565b3415610ac6577f00000000000000000000000000000000000000000000000000000000000000006001600160a01b031663b60d4288346040518263ffffffff1660e01b81526004016000604051808303818588803b158015610aac57600080fd5b505af1158015610ac0573d6000803e3d6000fd5b50505050505b610acf83611d98565b610ad98282610f52565b600754610afa90859062ffffff600160201b8204169063ffffffff16612008565b50505050565b600080610b0c836120eb565b9050610b1783612153565b610b1f6121ca565b60405163fe380db560e01b81526001600160a01b0384811660048301527f000000000000000000000000000000000000000000000000000000000000000081166024830152919091169063fe380db590604401602060405180830381865afa158015610b8f573d6000803e3d6000fd5b505050506040513d601f19601f82011682018060405250810190610bb39190614bab565b610bbd9190614bc4565b9392505050565b60007f0000000000000000000000000000000000000000000000000000000000000000336001600160a01b03821614610c0f5760405162461bcd60e51b815260040161090090614b74565b610c18836121de565b9150610c288360a00135846122a0565b15610c755760405162461bcd60e51b815260206004820152601860248201527f6d67764f666665722f61626f72742f6765744661696c656400000000000000006044820152606401610900565b50919050565b6000546001600160a01b03163314610ca55760405162461bcd60e51b815260040161090090614b74565b8062ffffff81168114610cf15760405162461bcd60e51b8152602060048201526014602482015273096c2dcc8cad85ecec2e6e4cae2a8dede90d2ced60631b6044820152606401610900565b6007805466ffffff000000001916600160201b62ffffff8416908102919091179091556040519081527fafef3ad374c0b972e3c793be825735801fa05cc4c67157d98d9a111b4027988d90602001610a15565b60408051808201825260608082526020820152905163fbbd4a6560e01b8152600481018b9052602481018a905260448101899052606481018890526084810187905260a4810186905260c4810185905260e48101849052610104810183905273__$c9b0e4557995336ec140d025d87b634e02$__9063fbbd4a659061012401600060405180830381865af4158015610de0573d6000803e3d6000fd5b505050506040513d6000823e601f3d908101601f19168201604052610e089190810190614c6a565b9a9950505050505050505050565b6000546001600160a01b03163314610e405760405162461bcd60e51b815260040161090090614b74565b6040805160808101825260075463ffffffff81168252600160201b810462ffffff166020830152600160381b81046001600160581b0316928201839052600160901b90046001600160701b0316606082018190526008549192600092610eb4928b928b928b9290918b918b918b9190610d44565b9050610ed481836020015162ffffff16846000015163ffffffff16612008565b5050505050505050565b6000546001600160a01b03163314610f085760405162461bcd60e51b815260040161090090614b74565b60005b818110156108d157610f42838383818110610f2857610f28614b2f565b9050602002016020810190610f3d9190614844565b612455565b610f4b81614b5b565b9050610f0b565b610f5c82826125a3565b610f646121ca565b604051636f9a302f60e01b81526001600160a01b037f000000000000000000000000000000000000000000000000000000000000000081166004830152602482018590527f000000000000000000000000000000000000000000000000000000000000000081166044830152606482018490527f0000000000000000000000000000000000000000000000000000000000000000811660848301529190911690636f9a302f9060a40160408051808303816000875af115801561102b573d6000803e3d6000fd5b505050506040513d601f19601f82011682018060405250810190610afa9190614cff565b6000546001600160a01b031633146110795760405162461bcd60e51b815260040161090090614b74565b6001600160a01b0381166110cf5760405162461bcd60e51b815260206004820152601860248201527f416363657373436f6e74726f6c6c65642f307841646d696e00000000000000006044820152606401610900565b600080546001600160a01b0319166001600160a01b0383169081179091556040519081527f5a272403b402d892977df56625f4164ccaf70ca3863991c43ecfe76a6905b0a1906020015b60405180910390a150565b6000546001600160a01b0316331461114e5760405162461bcd60e51b815260040161090090614b74565b60001982036111e2576040516370a0823160e01b81523060048201527f00000000000000000000000000000000000000000000000000000000000000006001600160a01b0316906370a0823190602401602060405180830381865afa1580156111bb573d6000803e3d6000fd5b505050506040513d601f19601f820116820180604052508101906111df9190614bab565b91505b604051632e1a7d4d60e01b8152600481018390527f00000000000000000000000000000000000000000000000000000000000000006001600160a01b031690632e1a7d4d906024016020604051808303816000875af1158015611249573d6000803e3d6000fd5b505050506040513d601f19601f8201168201806040525081019061126d9190614d23565b6112b15760405162461bcd60e51b81526020600482015260156024820152741b59dd93d999995c8bddda5d1a191c985dd1985a5b605a1b6044820152606401610900565b6000816001600160a01b03168360405160006040518083038185875af1925050503d80600081146112fe576040519150601f19603f3d011682016040523d82523d6000602084013e611303565b606091505b50509050806108d15760405162461bcd60e51b815260206004820152601860248201527f6d67764f666665722f7765695472616e736665724661696c00000000000000006044820152606401610900565b60008061136184846117fe565b9050600061136e8561275d565b604051630129e86d60e21b81529091506001600160a01b037f000000000000000000000000000000000000000000000000000000000000000016906304a7a1b4906113bf9084908690600401614d6c565b602060405180830381865afa1580156113dc573d6000803e3d6000fd5b505050506040513d601f19601f820116820180604052508101906114009190614bab565b95945050505050565b6000546001600160a01b031633146114335760405162461bcd60e51b815260040161090090614b74565b61143d86866116be565b611448848483611573565b6114528282611124565b505050505050565b60008061146f6001546001600160a01b031690565b90506001600160a01b038116156115245760405163143b7da760e11b81526001600160a01b0385811660048301528481166024830152821690632876fb4e90604401602060405180830381865afa1580156114ce573d6000803e3d6000fd5b505050506040513d601f19601f820116820180604052508101906114f29190614bab565b61151c907f0000000000000000000000000000000000000000000000000000000000000000614bc4565b91505061154f565b7f000000000000000000000000000000000000000000000000000000000000000091505061154f565b505b92915050565b600061156082611a2e565b61156983610b00565b61154f9190614d87565b6000546001600160a01b0316331461159d5760405162461bcd60e51b815260040161090090614b74565b6115c87f000000000000000000000000000000000000000000000000000000000000000084836128b6565b6108d17f000000000000000000000000000000000000000000000000000000000000000083836128b6565b6000546001600160a01b0316331461161d5760405162461bcd60e51b815260040161090090614b74565b808162ffffff16146116715760405162461bcd60e51b815260206004820152601860248201527f4b616e64656c2f7469636b4f6666736574546f6f4869676800000000000000006044820152606401610900565b80600854146116af5760088190556040518181527f286da08673f0eb4b3843f2824fb8e3e412534a62f6094fdc8b4008cfeba4ba6690602001611119565b50565b6000610bbd838361295c565b6000546001600160a01b031633146116e85760405162461bcd60e51b815260040161090090614b74565b6040517f97714c1c48a0b9a1a347710cb6a62f056f5a811d4006655e3b41959e1e72a40990600090a161171d82826001612a1d565b61172982826000612a1d565b6040517fa9bc12cd7db30bdfe60fece3ec52cfa7c8d60e396e2ea5df439a7d458f05f9b690600090a15050565b6000546001600160a01b031633146117805760405162461bcd60e51b815260040161090090614b74565b6040805160808101825260075463ffffffff81168252600160201b810462ffffff166020830152600160381b81046001600160581b031692820192909252600160901b9091046001600160701b031660608201526117fa6117e083614da7565b826020015162ffffff16836000015163ffffffff16612008565b5050565b6000600183600181111561181457611814614db3565b1461182d57600082815260046020526040902054610bbd565b50600090815260036020526040902054919050565b6000546001600160a01b0316331461186c5760405162461bcd60e51b815260040161090090614b74565b600180546001600160a01b0319166001600160a01b0383169081179091556040519081527f6de4326a8b9054d72d9dbab97d27bc4edffadee7d966f5af9cc4eafdaf8e545590602001611119565b6000546001600160a01b031633146118e45760405162461bcd60e51b815260040161090090614b74565b6118ed81611842565b6119167f0000000000000000000000000000000000000000000000000000000000000000612455565b61193f7f0000000000000000000000000000000000000000000000000000000000000000612455565b6116af61033a611a1c565b7f0000000000000000000000000000000000000000000000000000000000000000336001600160a01b038216146119935760405162461bcd60e51b815260040161090090614b74565b81602001356f6d67762f74726164655375636365737360801b036119bc57610afa838335612a67565b60608301356119da6119d336869003860186614dc9565b6060902090565b6040805185358152602080870135908201527f45b7a2e43f35c7d127ad18416b3d34235d187b2060d4050bb82bb11de272a7c3910160405180910390a3505050565b6000611a2960008061145a565b905090565b6000805b600254811015610c75576000611a488483611354565b9050611a6160016001607f1b03602c83901c1684614bc4565b92505080611a6e90614b5b565b9050611a32565b600080546001600160a01b03163314611aa05760405162461bcd60e51b815260040161090090614b74565b611aab848484612c75565b611af75760405162461bcd60e51b815260206004820152601760248201527f6d67764f666665722f617070726f76652f6661696c65640000000000000000006044820152606401610900565b5060019392505050565b6000546001600160a01b03163314611b2b5760405162461bcd60e51b815260040161090090614b74565b3415611ba6577f00000000000000000000000000000000000000000000000000000000000000006001600160a01b031663b60d4288346040518263ffffffff1660e01b81526004016000604051808303818588803b158015611b8c57600080fd5b505af1158015611ba0573d6000803e3d6000fd5b50505050505b611baf83611d98565b611bb8876115f3565b611bc28282610f52565b611bd08a8a8a898989610e16565b50505050505050505050565b60006001836001811115611bf257611bf2614db3565b14611c0b57600082815260066020526040902054610bbd565b50600090815260056020526040902054919050565b6000546001600160a01b03163314611c4a5760405162461bcd60e51b815260040161090090614b74565b63040000008110611c965760405162461bcd60e51b8152602060048201526016602482015275096c2dcc8cad85ecec2e6e0e4d2c6caa8dede90d2ced60531b6044820152606401610900565b6007805463ffffffff191663ffffffff83161790556040518181527fdbebd814ae648f654dcc50c734aa76e55a32e96b7d85303a08e2ddf11874a0dd90602001611119565b611ce481612c8a565b6000611cf86001546001600160a01b031690565b6001600160a01b0316146116af576001546001600160a01b0316604051631403b99b60e31b81526001600160a01b0383811660048301527f000000000000000000000000000000000000000000000000000000000000000081166024830152919091169063a01dccd89060440160006040518083038186803b158015611d7d57600080fd5b505afa158015611d91573d6000803e3d6000fd5b5050505050565b604080516080808201835260075463ffffffff81168352600160201b810462ffffff166020840152600160381b81046001600160581b031693830193909352600160901b9092046001600160701b03166060808301919091529091611e0291908401908401614de5565b6001600160701b031681606001516001600160701b031614611efc576000611e306080840160608501614de5565b9050611e426080840160608501614de5565b6001600160701b0316816001600160701b0316148015611e6c57506002816001600160701b031610155b611eb85760405162461bcd60e51b815260206004820152601960248201527f4b616e64656c2f696e76616c69645072696365506f696e7473000000000000006044820152606401610900565b611eca816001600160701b0316612d75565b600780546001600160701b03909216600160901b0271ffffffffffffffffffffffffffffffffffff9092169190911790555b611f0c6060830160408401614e0e565b6001600160581b031681604001516001600160581b031614611f4957611f49611f3b6060840160408501614e0e565b6001600160581b03166108d6565b611f566020830183614e37565b63ffffffff1615801590611f835750805163ffffffff16611f7a6020840184614e37565b63ffffffff1614155b15611fa357611fa3611f986020840184614e37565b63ffffffff16611c20565b611fb36040830160208401614e5d565b62ffffff1615801590611fe65750806020015162ffffff16826020016020810190611fde9190614e5d565b62ffffff1614155b156117fa576117fa611ffe6040840160208501614e5d565b62ffffff16610c7b565b6040517faab0a16d4cef87072f3977d7f1c066be401e0e6486526674f5f6172d42703db190600090a1612039614367565b6060810183905260808101829052612051600061275d565b8152602084015161206490600083612daa565b80516040805160608082018352600080835260208084018290529284015282519081018352818401516001600160a01b039081168252845116918101919091529181015190820152815283516120bc90600183612daa565b6040517fac65490b93de6b3189ca1e1653852249eb8680e816c258cff6ccf73d8501d3d090600090a150505050565b6000600182600181111561210157612101614db3565b1461212c577f000000000000000000000000000000000000000000000000000000000000000061154f565b7f000000000000000000000000000000000000000000000000000000000000000092915050565b60008061215f836120eb565b6040516370a0823160e01b81523060048201529091506001600160a01b038216906370a0823190602401602060405180830381865afa1580156121a6573d6000803e3d6000fd5b505050506040513d601f19601f82011682018060405250810190610bbd9190614bab565b6000611a296001546001600160a01b031690565b60008060a08301356121f36020850185614844565b6001600160a01b03166370a082316122136001546001600160a01b031690565b6040516001600160e01b031960e084901b1681526001600160a01b039091166004820152602401602060405180830381865afa158015612257573d6000803e3d6000fd5b505050506040513d601f19601f8201168201806040525081019061227b9190614bab565b106122865780610bbd565b6e24a9afa324a929aa2fa82aa62622a960891b9392505050565b6000806122b06020840184614844565b6040516370a0823160e01b81523060048201526001600160a01b0391909116906370a0823190602401602060405180830381865afa1580156122f6573d6000803e3d6000fd5b505050506040513d601f19601f8201168201806040525081019061231a9190614bab565b905083811061232d57600091505061154f565b6123378185614e82565b9050600061234d6001546001600160a01b031690565b90506001600160a01b0381166123655750905061154f565b60006001600160a01b03821663333dbb0d6123836020880188614844565b6040516001600160e01b031960e084901b1681526001600160a01b0391821660048201527f0000000000000000000000000000000000000000000000000000000000000000909116602482018190526044820187905230141560648201526084016020604051808303816000875af1158015612403573d6000803e3d6000fd5b505050506040513d601f19601f820116820180604052508101906124279190614bab565b9050828110156124405761243b8184614e82565b612443565b60005b935050505061154f565b505092915050565b60006124696001546001600160a01b031690565b9050612498827f0000000000000000000000000000000000000000000000000000000000000000600019612c75565b6124e45760405162461bcd60e51b815260206004820152601d60248201527f6d67764f666665722f617070726f76654d616e67726f76652f4661696c0000006044820152606401610900565b6001600160a01b038116156117fa576125008282600019612c75565b61254c5760405162461bcd60e51b815260206004820152601a60248201527f6d67764f666665722f617070726f7665526f757465724661696c0000000000006044820152606401610900565b604051630716a76760e21b81526001600160a01b038381166004830152821690631c5a9d9c90602401600060405180830381600087803b15801561258f57600080fd5b505af1158015611452573d6000803e3d6000fd5b6125cf7f0000000000000000000000000000000000000000000000000000000000000000333085612ed8565b61261b5760405162461bcd60e51b815260206004820152601760248201527f4b616e64656c2f626173655472616e736665724661696c0000000000000000006044820152606401610900565b7f00000000000000000000000000000000000000000000000000000000000000006001600160a01b03167f1bbf55d483639f8103dc4e035af71a4fbdb16c80be740fa3eef81198acefa0948360405161267691815260200190565b60405180910390a26126aa7f0000000000000000000000000000000000000000000000000000000000000000333084612ed8565b6126f65760405162461bcd60e51b815260206004820152601860248201527f4b616e64656c2f71756f74655472616e736665724661696c00000000000000006044820152606401610900565b7f00000000000000000000000000000000000000000000000000000000000000006001600160a01b03167f1bbf55d483639f8103dc4e035af71a4fbdb16c80be740fa3eef81198acefa0948260405161275191815260200190565b60405180910390a25050565b604080516060810182526000808252602082018190529181018290529082600181111561278c5761278c614db3565b146128235760405180606001604052807f00000000000000000000000000000000000000000000000000000000000000006001600160a01b031681526020017f00000000000000000000000000000000000000000000000000000000000000006001600160a01b031681526020017f000000000000000000000000000000000000000000000000000000000000000081525061154f565b60405180606001604052807f00000000000000000000000000000000000000000000000000000000000000006001600160a01b031681526020017f00000000000000000000000000000000000000000000000000000000000000006001600160a01b031681526020017f000000000000000000000000000000000000000000000000000000000000000081525092915050565b8115612951576128c46121ca565b604051636ce5768960e11b81526001600160a01b0385811660048301527f00000000000000000000000000000000000000000000000000000000000000008116602483015260448201859052919091169063d9caed1290606401600060405180830381600087803b15801561293857600080fd5b505af115801561294c573d6000803e3d6000fd5b505050505b6108d1838383612fa7565b6000807f00000000000000000000000000000000000000000000000000000000000000006001600160a01b031663e982fb8d85856040518363ffffffff1660e01b81526004016129ad929190614d6c565b602060405180830381865afa1580156129ca573d6000803e3d6000fd5b505050506040513d601f19601f820116820180604052508101906129ee9190614bab565b9050604881901c62ffffff16612a03826130b0565b01602582901c6303ffffff1602620f424002949350505050565b6000612a288261275d565b9050835b83811015611d91576000612a4084836117fe565b90508015612a5657612a54838260016130c6565b505b50612a6081614b5b565b9050612a2c565b6000612a728361315c565b6e24a9afa324a929aa2fa82aa62622a960891b8203612c6b57612a936121ca565b6040516370a0823160e01b81523060048201526001600160a01b0391821691636f9a302f917f0000000000000000000000000000000000000000000000000000000000000000918216906370a0823190602401602060405180830381865afa158015612b03573d6000803e3d6000fd5b505050506040513d601f19601f82011682018060405250810190612b279190614bab565b6040516370a0823160e01b81523060048201527f0000000000000000000000000000000000000000000000000000000000000000906001600160a01b038216906370a0823190602401602060405180830381865afa158015612b8d573d6000803e3d6000fd5b505050506040513d601f19601f82011682018060405250810190612bb19190614bab565b60405160e086901b6001600160e01b03191681526001600160a01b0394851660048201526024810193909352908316604483015260648201527f0000000000000000000000000000000000000000000000000000000000000000909116608482015260a40160408051808303816000875af1158015612c34573d6000803e3d6000fd5b505050506040513d601f19601f82011682018060405250810190612c589190614cff565b5050612c64838361319f565b905061154f565b610bbd838361325f565b6000612c8284848461339b565b949350505050565b604051636eb1769f60e11b81523060048201526001600160a01b037f0000000000000000000000000000000000000000000000000000000000000000811660248301526000919083169063dd62ed3e90604401602060405180830381865afa158015612cfa573d6000803e3d6000fd5b505050506040513d601f19601f82011682018060405250810190612d1e9190614bab565b116116af5760405162461bcd60e51b815260206004820152602160248201527f6d67764f666665722f4c6f6769634d757374417070726f76654d616e67726f766044820152606560f81b6064820152608401610900565b60028190556040518181527f26003f10937c9ed98d59e0d595a28bc7d35537a044aeaad037fedaab24d1799890602001611119565b8051604051631c04321560e01b81526000916001600160a01b037f00000000000000000000000000000000000000000000000000000000000000001691631c04321591612df991600401614e95565b602060405180830381865afa158015612e16573d6000803e3d6000fd5b505050506040513d601f19601f82011682018060405250810190612e3a9190614bab565b90506000612e68612e4a83613481565b8460600151612e599190614bc4565b60ee84901c6101ff1690613491565b905060005b8551811015611452576000868281518110612e8a57612e8a614b2f565b60209081029190910181015180518183015192880192909252604080820151908801529150612ec587612ebd81846117fe565b8389886134ca565b505080612ed190614b5b565b9050612e6d565b600081600003612eea57506001612c82565b826001600160a01b0316846001600160a01b031603612f79576040516370a0823160e01b81526001600160a01b0385811660048301528391908716906370a0823190602401602060405180830381865afa158015612f4c573d6000803e3d6000fd5b505050506040513d601f19601f82011682018060405250810190612f709190614bab565b10159050612c82565b306001600160a01b03851603612f9b57612f94858484613573565b9050612c82565b611400858585856135a9565b600019820361301b576040516370a0823160e01b81523060048201526001600160a01b038416906370a0823190602401602060405180830381865afa158015612ff4573d6000803e3d6000fd5b505050506040513d601f19601f820116820180604052508101906130189190614bab565b91505b613026838284613686565b6130685760405162461bcd60e51b815260206004820152601360248201527212d85b99195b0bdd1c985b9cd9995c91985a5b606a1b6044820152606401610900565b826001600160a01b03167f59c79d79be0fadf59fe689b6952b7ebe90201a3a1f00d4a31982377890bc6046836040516130a391815260200190565b60405180910390a2505050565b6000603f82901c6101ff165b6103e80292915050565b604051630dcf4b9760e31b81526000906001600160a01b037f00000000000000000000000000000000000000000000000000000000000000001690636e7a5cb89061311990879087908790600401614ea3565b6020604051808303816000875af1158015613138573d6000803e3d6000fd5b505050506040513d601f19601f82011682018060405250810190612c829190614bab565b600061317361316e6020840184614844565b613729565b90506000806131828385613773565b915091506000613192828461394a565b9050611d91838383613a63565b60008060006131ad85613b11565b9150915081600014806131c757506131c58183613b46565b155b156131e5576b1bd999995c8bd99a5b1b195960a21b9250505061154f565b6040805160e08101909152613252908061320436899003890189614dc9565b8152602081018490526040810185905260600160e088013560481c62ffffff16815260200160e088013560251c6303ffffff168152600060208201526001604090910152606087013561394a565b925061244d858585613b6f565b6000806132746001546001600160a01b031690565b90506001600160a01b03811615613391576040805160028082526060820183526000926020830190803683370190505090506132b36020860186614844565b816000815181106132c6576132c6614b2f565b6001600160a01b039092166020928302919091018201526132ed9060408701908701614844565b8160018151811061330057613300614b2f565b6001600160a01b039283166020918202929092010152604051633e142a0760e21b81529083169063f850a81c9061335d9084907f000000000000000000000000000000000000000000000000000000000000000090600401614ec7565b600060405180830381600087803b15801561337757600080fd5b505af115801561338b573d6000803e3d6000fd5b50505050505b612c82848461319f565b6040516001600160a01b03838116602483015260448201839052600091829182919087169063095ea7b360e01b906064015b60408051601f198184030181529181526020820180516001600160e01b03166001600160e01b031990941693909317909252905161340b9190614f48565b6000604051808303816000865af19150503d8060008114613448576040519150601f19603f3d011682016040523d82523d6000602084013e61344d565b606091505b50915091508180156134775750805115806134775750808060200190518101906134779190614d23565b9695505050505050565b6000602182901c6101ff166130bc565b60008061349d84613c1c565b830290506402000000008106156134b55760016134b8565b60005b60ff16602082901c0191505092915050565b8360000361352f576040820151156134f8576134e582613c43565b5093506134f3858486613d68565b611d91565b6040820181905261350882613c43565b506000604084018190528351919550613523919086906130c6565b506134f3858486613d68565b8160400151600003613569576040820181905261354c828561394a565b5060006040830181905282516135639186906130c6565b50611d91565b611452828561394a565b6040516001600160a01b03838116602483015260448201839052600091829182919087169063a9059cbb60e01b906064016133cd565b604080516001600160a01b0385811660248301528481166044830152606480830185905283518084039091018152608490920183526020820180516001600160e01b03166323b872dd60e01b1790529151600092839283929189169161360f9190614f48565b6000604051808303816000865af19150503d806000811461364c576040519150601f19603f3d011682016040523d82523d6000602084013e613651565b606091505b509150915081801561367b57508051158061367b57508080602001905181019061367b9190614d23565b979650505050505050565b60008160000361369857506001610bbd565b306001600160a01b0384160361371e576040516370a0823160e01b81526001600160a01b0384811660048301528391908616906370a0823190602401602060405180830381865afa1580156136f1573d6000803e3d6000fd5b505050506040513d601f19601f820116820180604052508101906137159190614bab565b10159050610bbd565b612c82848484613573565b60007f00000000000000000000000000000000000000000000000000000000000000006001600160a01b0316826001600160a01b03161461376b57600061154f565b600192915050565b600061377d614367565b600061378d858560600135611bdc565b6040805160808101825260075463ffffffff81168252600160201b810462ffffff166020830152600160381b81046001600160581b031692820192909252600160901b9091046001600160701b0316606082015290915060006137ef87613e11565b90506000613819828585604001516001600160581b031686606001516001600160701b0316613e4d565b905061382582826117fe565b95506138308261275d565b808652604051630129e86d60e21b81526000916001600160a01b037f000000000000000000000000000000000000000000000000000000000000000016916304a7a1b491613882918b90600401614d6c565b602060405180830381865afa15801561389f573d6000803e3d6000fd5b505050506040513d601f19601f820116820180604052508101906138c39190614bab565b90506138e060016001607f1b03602c83901c1660c08a0135614bc4565b6040870181905260016001607f1b0310156139035760016001607f1b0360408701525b6139108160401b60eb1d90565b602080880191909152600160c0880152845163ffffffff166080880152939093015162ffffff166060860152509396929550919350505050565b60007f00000000000000000000000000000000000000000000000000000000000000006001600160a01b031663a84b08c88460a0015185600001518660200151876040015188606001518960800151896040518863ffffffff1660e01b81526004016139bb96959493929190614f64565b6000604051808303818588803b1580156139d457600080fd5b505af1935050505080156139e6575060015b613a4b576139f2614f9b565b806308c379a003613a3f5750613a06614fb7565b80613a115750613a41565b8360c001518190613a355760405162461bcd60e51b81526004016109009190615041565b5061151c81615074565b505b3d6000803e3d6000fd5b506c1bd999995c8bdd5c19185d1959609a1b92915050565b6c1bd999995c8bdd5c19185d1959609a1b811480613aa05750807f6d67762f77726974654f666665722f64656e736974792f746f6f4c6f77000000145b15613aaa57505050565b8151606090208390604080517f4b616e64656c2f7570646174654f666665724661696c656400000000000000008152602081018590527f45b7a2e43f35c7d127ad18416b3d34235d187b2060d4050bb82bb11de272a7c391015b60405180910390a3505050565b600080613b3260a084013560016001607f1b036080860135602c1c16614e82565b9150608083013560401b60eb1d9050915091565b6000806000613b5485613e9c565b909250905080613b648584615098565b901c95945050505050565b6b1bd999995c8bd99a5b1b195960a21b811480613b9b57506c1bd999995c8bdd5c19185d1959609a1b81145b80613bc55750807f6d67762f77726974654f666665722f64656e736974792f746f6f4c6f77000000145b15613bcf57505050565b6060830135613be66119d336869003860186614dc9565b60408051858152602081018590527f45b7a2e43f35c7d127ad18416b3d34235d187b2060d4050bb82bb11de272a7c39101613b04565b600060078211613c2d575060031690565b506004600382161760029190911c600119011b90565b6000807f00000000000000000000000000000000000000000000000000000000000000006001600160a01b031663f95902aa8460a00151856000015186602001518760400151886060015189608001516040518763ffffffff1660e01b8152600401613cb39594939291906150af565b60206040518083038185885af193505050508015613cee575060408051601f3d908101601f19168201909252613ceb91810190614bab565b60015b613d4f57613cfa614f9b565b806308c379a003613a3f5750613d0e614fb7565b80613d195750613a41565b8360c001518190613d3d5760405162461bcd60e51b81526004016109009190615041565b50613d4781615074565b915050915091565b936c1bd999995c8bd8dc99585d1959609a1b9350915050565b6001836001811115613d7c57613d7c614db3565b03613da757600081815260056020908152604080832085905584835260039091529020819055613dc9565b6000818152600660209081526040808320859055848352600490915290208190555b826001811115613ddb57613ddb614db3565b60408051848152602081018490527f4414bf83296b9500de34e173e9e5b7ca010ff6de3f093002103e680a3a10512791016130a3565b60006002826001811115613e2757613e27614db3565b613e32906001614bc4565b613e3c91906150df565b600181111561154f5761154f614db3565b60006001856001811115613e6357613e63614db3565b03613e8b57613e728385614bc4565b9050818110613e8657612f94600183614e82565b612c82565b828410612c82576114008385614e82565b600080613ea883613f0e565b909250905060eb83901b60007ed89e8c075c4155dd3213326cbbcf86fd1f63f5c205dd2ad2cf44f9349b39e180830782139083050390607e198285010190811315613ef65793841c93613f00565b8060000385901b94505b81607f039350505050915091565b6000806000808412613f205783613f29565b613f2984615101565b9050620d89e8811115613f7e5760405162461bcd60e51b815260206004820152601760248201527f6d67762f6162735469636b2f6f75744f66426f756e64730000000000000000006044820152606401610900565b60006001821615613fa1576ffff97272373d413259a46990580e21399350613fa9565b600160801b93505b6002821615613fd3576080613fce856ffff2e50f5f656932ef12357cf3c7fdcb615098565b901c93505b6004821615613ffd576080613ff8856fffe5caca7e10e4e61c3624eaa0941ccf615098565b901c93505b6008821615614027576080614022856fffcb9843d60f6159c9db58835c926643615098565b901c93505b601082161561405157608061404c856fff973b41fa98c081472e6896dfb254bf615098565b901c93505b602082161561407b576080614076856fff2ea16466c96a3843ec78b326b52860615098565b901c93505b60408216156140a55760806140a0856ffe5dee046a99a2a811c461f1969c3052615098565b901c93505b60808216156140cf5760806140ca856ffcbe86c7900a88aedcffc83b479aa3a3615098565b901c93505b6101008216156140fa5760806140f5856ff987a7253ac413176f2b074cf7815e53615098565b901c93505b610200821615614125576080614120856ff3392b0822b70005940c7a398e4b70f2615098565b901c93505b61040082161561415057608061414b856fe7159475a2c29b7443b29c7fa6e889d8615098565b901c93505b61080082161561417b576080614176856fd097f3bdfd2022b8845ad8f792aa5825615098565b901c93505b6110008216156141a65760806141a1856fa9f746462d870fdf8a65dc1f90e061e4615098565b901c93505b6120008216156141de5760806141cc856fe1b0d342ada5437121767bec575e65ed615098565b901c93506141db60018261511d565b90505b614000821615614216576080614204856fc6f84d7e5f423f66048c541550bf3e96615098565b901c935061421360028261511d565b90505b61800082161561424e57608061423c856f9aa508b5b7a84e1c677de54f3e99bc8f615098565b901c935061424b60048261511d565b90505b62010000821615614287576080614275856fbad5f1bdb70232cd33865244bdcc089c615098565b901c935061428460098261511d565b90505b620200008216156142c05760806142ae856f885b9613d7e87aa498106fb7fa5edd37615098565b901c93506142bd60128261511d565b90505b620400008216156142f95760806142e7856f9142e0723efb884889d1f447715afacd615098565b901c93506142f660258261511d565b90505b62080000821615614332576080614320856fa4d9a773d61316918f140bd96e8e6814615098565b901c935061432f604b8261511d565b90505b60008513156143535760018485600003040193508061435090615101565b90505b61435e81608061511d565b92505050915091565b604080516101408101909152600060e0820181815261010083018290526101208301919091528190815260200160008152602001600081526020016000815260200160008152602001600081526020016000151581525090565b600080602083850312156143d457600080fd5b823567ffffffffffffffff808211156143ec57600080fd5b818501915085601f83011261440057600080fd5b81358181111561440f57600080fd5b8660208260051b850101111561442457600080fd5b60209290920196919550909350505050565b60006020828403121561444857600080fd5b5035919050565b634e487b7160e01b600052604160045260246000fd5b6060810181811067ffffffffffffffff821117156144855761448561444f565b60405250565b6040810181811067ffffffffffffffff821117156144855761448561444f565b601f8201601f1916810167ffffffffffffffff811182821017156144d1576144d161444f565b6040525050565b600067ffffffffffffffff8211156144f2576144f261444f565b5060051b60200190565b600082601f83011261450d57600080fd5b8135602061451a826144d8565b6040805161452883826144ab565b8481526060948502870184019484820193508886111561454757600080fd5b8488015b8681101561458f5781818b0312156145635760008081fd5b835161456e81614465565b8135815286820135878201528482013585820152855293850193810161454b565b509098975050505050505050565b6000604082840312156145af57600080fd5b6040516145bb8161448b565b809150823567ffffffffffffffff808211156145d657600080fd5b6145e2868387016144fc565b835260208501359150808211156145f857600080fd5b50614605858286016144fc565b6020830152505092915050565b600060808284031215610c7557600080fd5b60008060008060e0858703121561463a57600080fd5b843567ffffffffffffffff81111561465157600080fd5b61465d8782880161459d565b94505061466d8660208701614612565b939693955050505060a08201359160c0013590565b80356002811061469157600080fd5b919050565b6000602082840312156146a857600080fd5b610bbd82614682565b60006101408284031215610c7557600080fd5b600061014082840312156146d757600080fd5b610bbd83836146b1565b60008060008060008060008060006101208a8c03121561470057600080fd5b505087359960208901359950604089013598606081013598506080810135975060a0810135965060c0810135955060e08101359450610100013592509050565b600081518084526020808501945080840160005b838110156147865781518051885283810151848901526040908101519088015260609096019590820190600101614754565b509495945050505050565b6020815260008251604060208401526147ad6060840182614740565b90506020840151601f198483030160408501526114008282614740565b60008060008060008060c087890312156147e357600080fd5b505084359660208601359650604086013595606081013595506080810135945060a0013592509050565b6000806040838503121561482057600080fd5b50508035926020909101359150565b6001600160a01b03811681146116af57600080fd5b60006020828403121561485657600080fd5b8135610bbd8161482f565b6000806040838503121561487457600080fd5b8235915060208301356148868161482f565b809150509250929050565b600080604083850312156148a457600080fd5b6148ad83614682565b946020939093013593505050565b60008060008060008060c087890312156148d457600080fd5b863595506020870135945060408701359350606087013592506080870135915060a08701356149028161482f565b809150509295509295509295565b6000806040838503121561492357600080fd5b823561492e8161482f565b915060208301356148868161482f565b60008060006060848603121561495357600080fd5b8335925060208401359150604084013561496c8161482f565b809150509250925092565b60006060828403121561498957600080fd5b60405161499581614465565b80915082356149a38161482f565b815260208301356149b38161482f565b6020820152604092830135920191909152919050565b600080608083850312156149dc57600080fd5b6149e68484614977565b946060939093013593505050565b600060408284031215610c7557600080fd5b600060208284031215614a1857600080fd5b813567ffffffffffffffff811115614a2f57600080fd5b612c82848285016149f4565b6000806101808385031215614a4f57600080fd5b614a5984846146b1565b9150614a698461014085016149f4565b90509250929050565b600080600060608486031215614a8757600080fd5b8335614a928161482f565b92506020840135614aa28161482f565b929592945050506040919091013590565b6000806000806000806000806000806101a08b8d031215614ad357600080fd5b8a35995060208b0135985060408b0135975060608b0135965060808b0135955060a08b0135945060c08b01359350614b0e8c60e08d01614612565b92506101608b013591506101808b013590509295989b9194979a5092959850565b634e487b7160e01b600052603260045260246000fd5b634e487b7160e01b600052601160045260246000fd5b600060018201614b6d57614b6d614b45565b5060010190565b60208082526018908201527f416363657373436f6e74726f6c6c65642f496e76616c69640000000000000000604082015260600190565b600060208284031215614bbd57600080fd5b5051919050565b8082018082111561154f5761154f614b45565b600082601f830112614be857600080fd5b81516020614bf5826144d8565b60408051614c0383826144ab565b84815260609485028701840194848201935088861115614c2257600080fd5b8488015b8681101561458f5781818b031215614c3e5760008081fd5b8351614c4981614465565b81518152868201518782015284820151858201528552938501938101614c26565b600060208284031215614c7c57600080fd5b815167ffffffffffffffff80821115614c9457600080fd5b9083019060408286031215614ca857600080fd5b604051614cb48161448b565b825182811115614cc357600080fd5b614ccf87828601614bd7565b825250602083015182811115614ce457600080fd5b614cf087828601614bd7565b60208301525095945050505050565b60008060408385031215614d1257600080fd5b505080516020909101519092909150565b600060208284031215614d3557600080fd5b81518015158114610bbd57600080fd5b80516001600160a01b03908116835260208083015190911690830152604090810151910152565b60808101614d7a8285614d45565b8260608301529392505050565b818103600083128015838313168383128216171561154d5761154d614b45565b600061154f368361459d565b634e487b7160e01b600052602160045260246000fd5b600060608284031215614ddb57600080fd5b610bbd8383614977565b600060208284031215614df757600080fd5b81356001600160701b0381168114610bbd57600080fd5b600060208284031215614e2057600080fd5b81356001600160581b0381168114610bbd57600080fd5b600060208284031215614e4957600080fd5b813563ffffffff81168114610bbd57600080fd5b600060208284031215614e6f57600080fd5b813562ffffff81168114610bbd57600080fd5b8181038181111561154f5761154f614b45565b6060810161154f8284614d45565b60a08101614eb18286614d45565b8360608301528215156080830152949350505050565b604080825283519082018190526000906020906060840190828701845b82811015614f095781516001600160a01b031684529284019290840190600101614ee4565b5050506001600160a01b039490941692019190915250919050565b60005b83811015614f3f578181015183820152602001614f27565b50506000910152565b60008251614f5a818460208701614f24565b9190910192915050565b6101008101614f738289614d45565b6060820196909652608081019490945260a084019290925260c083015260e090910152919050565b600060033d1115614fb45760046000803e5060005160e01c5b90565b600060443d1015614fc55790565b6040516003193d81016004833e81513d67ffffffffffffffff8160248401118184111715614ff557505050505090565b828501915081518181111561500d5750505050505090565b843d87010160208285010111156150275750505050505090565b615036602082860101876144ab565b509095945050505050565b6020815260008251806020840152615060816040850160208701614f24565b601f01601f19169190910160400192915050565b80516020808301519190811015610c755760001960209190910360031b1b16919050565b808202811582820484141761154f5761154f614b45565b60e081016150bd8288614d45565b8560608301528460808301528360a08301528260c08301529695505050505050565b6000826150fc57634e487b7160e01b600052601260045260246000fd5b500690565b6000600160ff1b820161511657615116614b45565b5060000390565b808201828112600083128015821682158216171561244d5761244d614b4556fea2646970667358221220a546314e1afca7c558aa0098ea90b224ff5bd6a17f037088fabc23d484e1e70c64736f6c63430008140033a2646970667358221220774d57b043d2303f083855fa035c89980099d1f25ef494a8e9fb501d6617162e64736f6c6343000814003360e06040523480156200001157600080fd5b5060405162002cf738038062002cf78339810160408190526200003491620002ea565b80338380806001600160a01b031660a0816001600160a01b0316815250506000816001600160a01b031663026b1d5f6040518163ffffffff1660e01b8152600401602060405180830381865afa15801562000093573d6000803e3d6000fd5b505050506040513d601f19601f82011682018060405250810190620000b9919062000319565b90506001600160a01b038116620001175760405162461bcd60e51b815260206004820152601360248201527f4161766556334c656e6465722f3078506f6f6c0000000000000000000000000060448201526064015b60405180910390fd5b6001600160a01b03908116608052831691506200017990505760405162461bcd60e51b815260206004820152601860248201527f416363657373436f6e74726f6c6c65642f307841646d696e000000000000000060448201526064016200010e565b600080546001600160a01b0319166001600160a01b039290921691909117905560c052620001a733620001af565b50506200033e565b6000546001600160a01b0316331480620001d357506002546001600160a01b031633145b620002215760405162461bcd60e51b815260206004820152601860248201527f416363657373436f6e74726f6c6c65642f496e76616c6964000000000000000060448201526064016200010e565b6001600160a01b038116620002795760405162461bcd60e51b815260206004820152601f60248201527f41617665506f6f6c6564526573657276652f3078416176654d616e616765720060448201526064016200010e565b600280546001600160a01b0319166001600160a01b0383169081179091556040519081527fb6ba5fc5ae0a94b812b11dfa751771f5462efbe2bae48a93a63e2669873f6bb69060200160405180910390a150565b80516001600160a01b0381168114620002e557600080fd5b919050565b60008060408385031215620002fe57600080fd5b6200030983620002cd565b9150602083015190509250929050565b6000602082840312156200032c57600080fd5b6200033782620002cd565b9392505050565b60805160a05160c05161294a620003ad60003960008181610311015261071a01526000818161027b01526116cd0152600081816103ac0152818161060c015281816110ce01528181611200015281816112cb01528181611372015281816116300152611b00015261294a6000f3fe608060405234801561001057600080fd5b50600436106101e55760003560e01c80637535d2461161010f578063cf5e7bd3116100a2578063f850a81c11610071578063f850a81c1461049f578063f851a440146104b2578063f9f031df146104c3578063fe380db5146104e457600080fd5b8063cf5e7bd314610453578063d94bff1314610466578063d9caed1214610479578063ede4edd01461048c57600080fd5b8063a01dccd8116100de578063a01dccd814610407578063b6b257421461041a578063bf6b874e14610422578063ce665dd81461044b57600080fd5b80637535d246146103a75780637cc4fc05146103ce57806381bac14f146103e157806394d4d058146103f457600080fd5b80632f37b624116101875780635383dba4116101565780635383dba4146103465780636eacd398146103595780636f9a302f1461036c578063704b6c021461039457600080fd5b80632f37b624146102d6578063333dbb0d146102f95780633871cb3f1461030c57806351ef65931461033357600080fd5b80631848effa116101c35780631848effa146102765780631c5a9d9c1461029d57806326e8eda2146102b05780632876fb4e146102c357600080fd5b806304e02903146101ea5780630a7292f5146101ff5780630efc8fd21461024b575b600080fd5b6101fd6101f8366004611edf565b6104f7565b005b61023861020d366004611efc565b6001600160a01b03918216600090815260046020908152604080832093909416825291909152205490565b6040519081526020015b60405180910390f35b61025e610259366004611edf565b6105ea565b6040516001600160a01b039091168152602001610242565b61025e7f000000000000000000000000000000000000000000000000000000000000000081565b6101fd6102ab366004611edf565b610685565b6102386102be366004611f35565b6106ca565b6102386102d1366004611efc565b610716565b6102e96102e4366004611edf565b610743565b6040519015158152602001610242565b610238610307366004611f84565b610761565b6102387f000000000000000000000000000000000000000000000000000000000000000081565b60025461025e906001600160a01b031681565b610238610354366004611fd7565b6107b7565b610238610367366004611edf565b610866565b61037f61037a366004612005565b61087a565b60408051928352602083019190915201610242565b6101fd6103a2366004611edf565b6109ad565b61025e7f000000000000000000000000000000000000000000000000000000000000000081565b6101fd6103dc3660046120b0565b610a7b565b6101fd6103ef366004611edf565b610ab5565b6101fd610402366004611edf565b610b2e565b6101fd610415366004611efc565b610b68565b6101fd610c8f565b610238610430366004611edf565b6001600160a01b031660009081526003602052604090205490565b610238601381565b6101fd610461366004611edf565b610cbf565b6102e9610474366004611edf565b610cf2565b6101fd610487366004611f35565b610d10565b6101fd61049a366004611edf565b610d94565b6101fd6104ad3660046120f2565b610dc8565b6000546001600160a01b031661025e565b6104d66104d13660046120b0565b610f1d565b604051610242929190612149565b6102386104f2366004611efc565b610f65565b6000546001600160a01b031633148061051a57506002546001600160a01b031633145b61053f5760405162461bcd60e51b8152600401610536906121cd565b60405180910390fd5b6001600160a01b0381166105955760405162461bcd60e51b815260206004820152601f60248201527f41617665506f6f6c6564526573657276652f3078416176654d616e61676572006044820152606401610536565b600280546001600160a01b0319166001600160a01b0383169081179091556040519081527fb6ba5fc5ae0a94b812b11dfa751771f5462efbe2bae48a93a63e2669873f6bb6906020015b60405180910390a150565b6040516335ea6a7560e01b81526001600160a01b0382811660048301526000917f0000000000000000000000000000000000000000000000000000000000000000909116906335ea6a75906024016101e060405180830381865afa158015610656573d6000803e3d6000fd5b505050506040513d601f19601f8201168201806040525081019061067a919061230a565b610100015192915050565b6000546001600160a01b03163314806106a257506106a233610743565b6106be5760405162461bcd60e51b8152600401610536906121cd565b6106c781610f7a565b50565b60006106d533610743565b6106f15760405162461bcd60e51b8152600401610536906121cd565b816000036107015750600061070f565b61070c848484610f86565b90505b9392505050565b60007f00000000000000000000000000000000000000000000000000000000000000005b90505b92915050565b6001600160a01b031660009081526001602052604090205460ff1690565b600061076c33610743565b6107885760405162461bcd60e51b8152600401610536906121cd565b818015610793575082155b156107a0575060006107af565b6107ac85858585610ffd565b90505b949350505050565b600080546001600160a01b03163314806107d557506107d533610743565b6107f15760405162461bcd60e51b8152600401610536906121cd565b6040516370a0823160e01b815230600482015261073a9084906001600160a01b038216906370a0823190602401602060405180830381865afa15801561083b573d6000803e3d6000fd5b505050506040513d601f19601f8201168201806040525081019061085f919061242d565b3085611087565b6000610870611e95565b61070f83826111d3565b60008061088633610743565b6108a25760405162461bcd60e51b8152600401610536906121cd565b85156108b6576108b3878488610f86565b91505b83156108ca576108c7858486610f86565b90505b60006108d78860016107b7565b9050801561093757836001600160a01b0316336001600160a01b0316896001600160a01b03167f10d8f655f7655a590b4e052b7187565b54bca0cd5cd9521f153c3da722d72f4f8460405161092e91815260200190565b60405180910390a45b6109428660016107b7565b905080156109a257836001600160a01b0316336001600160a01b0316876001600160a01b03167f10d8f655f7655a590b4e052b7187565b54bca0cd5cd9521f153c3da722d72f4f8460405161099991815260200190565b60405180910390a45b509550959350505050565b6000546001600160a01b031633146109d75760405162461bcd60e51b8152600401610536906121cd565b6001600160a01b038116610a2d5760405162461bcd60e51b815260206004820152601860248201527f416363657373436f6e74726f6c6c65642f307841646d696e00000000000000006044820152606401610536565b600080546001600160a01b0319166001600160a01b0383169081179091556040519081527f5a272403b402d892977df56625f4164ccaf70ca3863991c43ecfe76a6905b0a1906020016105df565b6002546001600160a01b0316338114610aa65760405162461bcd60e51b8152600401610536906121cd565b610ab083836111f3565b505050565b6000546001600160a01b03163314610adf5760405162461bcd60e51b8152600401610536906121cd565b6001600160a01b0381166000818152600160208190526040808320805460ff1916909217909155517fecac69b9e48a248381b74f2e1cf855cc6afc2f410751325703374c70351035bc9190a250565b6002546001600160a01b0316338114610b595760405162461bcd60e51b8152600401610536906121cd565b610b648260006112c5565b5050565b610b7133610743565b610bbd5760405162461bcd60e51b815260206004820152601f60248201527f526f757465722f63616c6c657249734e6f74426f756e64546f526f75746572006044820152606401610536565b604051636eb1769f60e11b81523360048201523060248201526000906001600160a01b0384169063dd62ed3e90604401602060405180830381865afa158015610c0a573d6000803e3d6000fd5b505050506040513d601f19601f82011682018060405250810190610c2e919061242d565b11610c855760405162461bcd60e51b815260206004820152602160248201527f526f757465722f4e6f74417070726f76656442794d616b6572436f6e747261636044820152601d60fa1b6064820152608401610536565b610b6482826112f0565b610c9833610743565b610cb45760405162461bcd60e51b8152600401610536906121cd565b610cbd33611442565b565b6000546001600160a01b03163314610ce95760405162461bcd60e51b8152600401610536906121cd565b6106c781611442565b600080610cfe836105ea565b6001600160a01b031615159392505050565b610d1933610743565b610d355760405162461bcd60e51b8152600401610536906121cd565b610d3d611e95565b6000198203610d5457610d5184848361148b565b91505b6000610d608583611500565b90506000838211610d7a57610d75828561245c565b610d7d565b60005b9050610d8c868686848761158d565b505050505050565b6002546001600160a01b0316338114610dbf5760405162461bcd60e51b8152600401610536906121cd565b610b648261160a565b610dd133610743565b610ded5760405162461bcd60e51b8152600401610536906121cd565b60005b82811015610f17576000848483818110610e0c57610e0c61246f565b9050602002016020810190610e219190611edf565b6040516370a0823160e01b81523360048201526001600160a01b0391909116906370a0823190602401602060405180830381865afa158015610e67573d6000803e3d6000fd5b505050506040513d601f19601f82011682018060405250810190610e8b919061242d565b90508015610f065780610ec5868685818110610ea957610ea961246f565b9050602002016020810190610ebe9190611edf565b8584610f86565b14610f065760405162461bcd60e51b81526020600482015260116024820152701c9bdd5d195c8bdc1d5cda11985a5b1959607a1b6044820152606401610536565b50610f1081612485565b9050610df0565b50505050565b60025460609081906001600160a01b0316338114610f4d5760405162461bcd60e51b8152600401610536906121cd565b610f58858533611688565b925092505b509250929050565b6000610f6f611e95565b6107af84848361148b565b6106c7816000196112c5565b6000610f90611e95565b610f9c858585846117bf565b610fa885333086611841565b610ff45760405162461bcd60e51b815260206004820152601b60248201527f41617665506f6f6c6564526f757465722f707573684661696c656400000000006044820152606401610536565b50909392505050565b600080600061100a611e95565b60006110168983611500565b905060006110258a8a8561148b565b90508782101561104f576110398a84611910565b9450866110465780611048565b875b935061106c565b86611067578082116110615781611069565b80611069565b875b93505b6110798a8a86888761158d565b509198975050505050505050565b600083600003611099575060006107af565b60405163617ba03760e01b81526001600160a01b038681166004830152602482018690528481166044830152600060648301527f0000000000000000000000000000000000000000000000000000000000000000169063617ba03790608401600060405180830381600087803b15801561111257600080fd5b505af1925050508015611123575060015b6111cb5761112f61249e565b806308c379a00361117f57506111436124ba565b8061114e5750611181565b808361116d5760405162461bcd60e51b81526004016105369190612568565b506111778161259b565b9150506107af565b505b816111b95760405162461bcd60e51b81526020600482015260086024820152673737a932b0b9b7b760c11b6044820152606401610536565b50673737a932b0b9b7b760c11b6107af565b5060006107af565b60006111df8383611910565b6111e98484611500565b61073a91906125c2565b60005b81811015610ab0577f00000000000000000000000000000000000000000000000000000000000000006001600160a01b0316635a3b74b984848481811061123f5761123f61246f565b90506020020160208101906112549190611edf565b6040516001600160e01b031960e084901b1681526001600160a01b03909116600482015260016024820152604401600060405180830381600087803b15801561129c57600080fd5b505af11580156112b0573d6000803e3d6000fd5b50505050806112be90612485565b90506111f6565b610ab0827f0000000000000000000000000000000000000000000000000000000000000000836119d0565b6112f982610cf2565b6113555760405162461bcd60e51b815260206004820152602760248201527f41617665506f6f6c6564526f757465722f746f6b656e4e6f744c656e6461626c604482015266654f6e4161766560c81b6064820152608401610536565b604051636eb1769f60e11b81523060048201526001600160a01b037f0000000000000000000000000000000000000000000000000000000000000000811660248301526000919084169063dd62ed3e90604401602060405180830381865afa1580156113c5573d6000803e3d6000fd5b505050506040513d601f19601f820116820180604052508101906113e9919061242d565b11610b645760405162461bcd60e51b815260206004820152602360248201527f41617665506f6f6c6564526f757465722f6861734e6f74417070726f766564506044820152621bdbdb60ea1b6064820152608401610536565b6001600160a01b038116600081815260016020526040808220805460ff19169055517f30a4a29afb6d28e62264c8b7cd43fe3a5edce91f4b9c8591b23a99b3838686b59190a250565b6001600160a01b03831660009081526003602052604081205480156114f457806114b586856111d3565b6001600160a01b038088166000908152600460209081526040808320938a16835292905220546114e591906125d5565b6114ef91906125ec565b6114f7565b60005b95945050505050565b60008160200151156115145750805161073d565b600160208301526040516370a0823160e01b81523060048201526001600160a01b038416906370a0823190602401602060405180830381865afa15801561155f573d6000803e3d6000fd5b505050506040513d601f19601f82011682018060405250810190611583919061242d565b808352905061073d565b611599858585846119dd565b81156115ac576115aa858330611aca565b505b6115b7853385611b7c565b6116035760405162461bcd60e51b815260206004820152601f60248201527f41617665506f6f6c6564526f757465722f77697468647261774661696c6564006044820152606401610536565b5050505050565b604051635a3b74b960e01b81526001600160a01b038281166004830152600060248301527f00000000000000000000000000000000000000000000000000000000000000001690635a3b74b990604401600060405180830381600087803b15801561167457600080fd5b505af1158015611603573d6000803e3d6000fd5b6040516321f8a72160e01b81527f703c2c8634bed68d98c029c18f310e7f7ec0e5d6342c590190b3cb8b3ba54532600482015260609081906000906001600160a01b037f000000000000000000000000000000000000000000000000000000000000000016906321f8a72190602401602060405180830381865afa158015611714573d6000803e3d6000fd5b505050506040513d601f19601f82011682018060405250810190611738919061260e565b60405163bb492bf560e01b81529091506001600160a01b0382169063bb492bf59061176b9089908990899060040161262b565b6000604051808303816000875af115801561178a573d6000803e3d6000fd5b505050506040513d6000823e601f3d908101601f191682016040526117b29190810190612723565b9097909650945050505050565b60006117cc858484611c1f565b6001600160a01b0380871660009081526004602090815260408083209389168352929052908120805492935083929091906118089084906125c2565b90915550506001600160a01b038516600090815260036020526040812080548392906118359084906125c2565b90915550505050505050565b600081600003611853575060016107af565b826001600160a01b0316846001600160a01b0316036118e2576040516370a0823160e01b81526001600160a01b0385811660048301528391908716906370a0823190602401602060405180830381865afa1580156118b5573d6000803e3d6000fd5b505050506040513d601f19601f820116820180604052508101906118d9919061242d565b101590506107af565b306001600160a01b03851603611904576118fd858484611c5e565b90506107af565b6107ac85858585611d44565b60008160600151156119275750604081015161073d565b60016060830152600061193a8484611e21565b90506001600160a01b03811661195657600060408401526119c4565b6040516370a0823160e01b81523060048201526001600160a01b038216906370a0823190602401602060405180830381865afa15801561199a573d6000803e3d6000fd5b505050506040513d601f19601f820116820180604052508101906119be919061242d565b60408401525b5050604081015161073d565b600061070c848484611e5f565b60006119ea858484611c1f565b6001600160a01b0380871660009081526004602090815260408083209389168352929052205490915080821115611a6e5760405162461bcd60e51b815260206004820152602260248201527f41617665506f6f6c6564526f757465722f696e73756666696369656e7446756e604482015261647360f01b6064820152608401610536565b611a78828261245c565b6001600160a01b038088166000818152600460209081526040808320948b16835293815283822094909455908152600390925281208054849290611abd90849061245c565b9091555050505050505050565b60008215611b7257604051631a4ca37b60e21b81526001600160a01b0385811660048301526024820185905283811660448301527f000000000000000000000000000000000000000000000000000000000000000016906369328dec906064016020604051808303816000875af1158015611b49573d6000803e3d6000fd5b505050506040513d601f19601f82011682018060405250810190611b6d919061242d565b61070c565b6000949350505050565b600081600003611b8e5750600161070f565b306001600160a01b03841603611c14576040516370a0823160e01b81526001600160a01b0384811660048301528391908616906370a0823190602401602060405180830381865afa158015611be7573d6000803e3d6000fd5b505050506040513d601f19601f82011682018060405250810190611c0b919061242d565b1015905061070f565b61070c848484611c5e565b6001600160a01b0383166000908152600360205260408120548015611c5257611c4885846111d3565b6114e585836125d5565b6114f76013600a6128cf565b6040516001600160a01b03838116602483015260448201839052600091829182919087169063a9059cbb60e01b906064015b60408051601f198184030181529181526020820180516001600160e01b03166001600160e01b0319909416939093179092529051611cce91906128db565b6000604051808303816000865af19150503d8060008114611d0b576040519150601f19603f3d011682016040523d82523d6000602084013e611d10565b606091505b5091509150818015611d3a575080511580611d3a575080806020019051810190611d3a91906128f7565b9695505050505050565b604080516001600160a01b0385811660248301528481166044830152606480830185905283518084039091018152608490920183526020820180516001600160e01b03166323b872dd60e01b17905291516000928392839291891691611daa91906128db565b6000604051808303816000865af19150503d8060008114611de7576040519150601f19603f3d011682016040523d82523d6000602084013e611dec565b606091505b5091509150818015611e16575080511580611e16575080806020019051810190611e1691906128f7565b979650505050505050565b60008160a0015115611e385750608081015161073d565b600160a0830152611e48836105ea565b6001600160a01b031660808301819052905061073d565b6040516001600160a01b03838116602483015260448201839052600091829182919087169063095ea7b360e01b90606401611c90565b6040805160c081018252600080825260208201819052918101829052606081018290526080810182905260a081019190915290565b6001600160a01b03811681146106c757600080fd5b600060208284031215611ef157600080fd5b813561070f81611eca565b60008060408385031215611f0f57600080fd5b8235611f1a81611eca565b91506020830135611f2a81611eca565b809150509250929050565b600080600060608486031215611f4a57600080fd5b8335611f5581611eca565b92506020840135611f6581611eca565b929592945050506040919091013590565b80151581146106c757600080fd5b60008060008060808587031215611f9a57600080fd5b8435611fa581611eca565b93506020850135611fb581611eca565b9250604085013591506060850135611fcc81611f76565b939692955090935050565b60008060408385031215611fea57600080fd5b8235611ff581611eca565b91506020830135611f2a81611f76565b600080600080600060a0868803121561201d57600080fd5b853561202881611eca565b945060208601359350604086013561203f81611eca565b925060608601359150608086013561205681611eca565b809150509295509295909350565b60008083601f84011261207657600080fd5b50813567ffffffffffffffff81111561208e57600080fd5b6020830191508360208260051b85010111156120a957600080fd5b9250929050565b600080602083850312156120c357600080fd5b823567ffffffffffffffff8111156120da57600080fd5b6120e685828601612064565b90969095509350505050565b60008060006040848603121561210757600080fd5b833567ffffffffffffffff81111561211e57600080fd5b61212a86828701612064565b909450925050602084013561213e81611eca565b809150509250925092565b604080825283519082018190526000906020906060840190828701845b8281101561218b5781516001600160a01b031684529284019290840190600101612166565b5050508381038285015284518082528583019183019060005b818110156121c0578351835292840192918401916001016121a4565b5090979650505050505050565b60208082526018908201527f416363657373436f6e74726f6c6c65642f496e76616c69640000000000000000604082015260600190565b634e487b7160e01b600052604160045260246000fd5b601f8201601f1916810167ffffffffffffffff8111828210171561224057612240612204565b6040525050565b6040516101e0810167ffffffffffffffff8111828210171561226b5761226b612204565b60405290565b60006020828403121561228357600080fd5b6040516020810181811067ffffffffffffffff821117156122a6576122a6612204565b6040529151825250919050565b80516fffffffffffffffffffffffffffffffff811681146122d357600080fd5b919050565b805164ffffffffff811681146122d357600080fd5b805161ffff811681146122d357600080fd5b80516122d381611eca565b60006101e0828403121561231d57600080fd5b612325612247565b61232f8484612271565b815261233d602084016122b3565b602082015261234e604084016122b3565b604082015261235f606084016122b3565b6060820152612370608084016122b3565b608082015261238160a084016122b3565b60a082015261239260c084016122d8565b60c08201526123a360e084016122ed565b60e08201526101006123b68185016122ff565b908201526101206123c88482016122ff565b908201526101406123da8482016122ff565b908201526101606123ec8482016122ff565b908201526101806123fe8482016122b3565b908201526101a06124108482016122b3565b908201526101c06124228482016122b3565b908201529392505050565b60006020828403121561243f57600080fd5b5051919050565b634e487b7160e01b600052601160045260246000fd5b8181038181111561073d5761073d612446565b634e487b7160e01b600052603260045260246000fd5b60006001820161249757612497612446565b5060010190565b600060033d11156124b75760046000803e5060005160e01c5b90565b600060443d10156124c85790565b6040516003193d81016004833e81513d67ffffffffffffffff81602484011181841117156124f857505050505090565b82850191508151818111156125105750505050505090565b843d870101602082850101111561252a5750505050505090565b6125396020828601018761221a565b509095945050505050565b60005b8381101561255f578181015183820152602001612547565b50506000910152565b6020815260008251806020840152612587816040850160208701612544565b601f01601f19169190910160400192915050565b805160208083015191908110156125bc576000198160200360031b1b821691505b50919050565b8082018082111561073d5761073d612446565b808202811582820484141761073d5761073d612446565b60008261260957634e487b7160e01b600052601260045260246000fd5b500490565b60006020828403121561262057600080fd5b815161070f81611eca565b6040808252810183905260008460608301825b8681101561266e57823561265181611eca565b6001600160a01b031682526020928301929091019060010161263e565b506001600160a01b03949094166020939093019290925250909392505050565b600067ffffffffffffffff8211156126a8576126a8612204565b5060051b60200190565b600082601f8301126126c357600080fd5b815160206126d08261268e565b6040516126dd828261221a565b83815260059390931b85018201928281019150868411156126fd57600080fd5b8286015b848110156127185780518352918301918301612701565b509695505050505050565b6000806040838503121561273657600080fd5b825167ffffffffffffffff8082111561274e57600080fd5b818501915085601f83011261276257600080fd5b8151602061276f8261268e565b60405161277c828261221a565b83815260059390931b850182019282810191508984111561279c57600080fd5b948201945b838610156127c35785516127b481611eca565b825294820194908201906127a1565b918801519196509093505050808211156127dc57600080fd5b506127e9858286016126b2565b9150509250929050565b600181815b80851115610f5d57816000190482111561281457612814612446565b8085161561282157918102915b93841c93908002906127f8565b60008261283d5750600161073d565b8161284a5750600061073d565b8160018114612860576002811461286a57612886565b600191505061073d565b60ff84111561287b5761287b612446565b50506001821b61073d565b5060208310610133831016604e8410600b84101617156128a9575081810a61073d565b6128b383836127f3565b80600019048211156128c7576128c7612446565b029392505050565b600061073a838361282e565b600082516128ed818460208701612544565b9190910192915050565b60006020828403121561290957600080fd5b815161070f81611f7656fea264697066735822122089774d68c1e273218e80614482aa0c6aef67a296f481109040e5047c6b5a63f864736f6c63430008140033",
    "linkReferences": {
      "node_modules/@mangrovedao/mangrove.js/node_modules/@mangrovedao/mangrove-strats/src/strategies/offer_maker/market_making/kandel/abstract/KandelLib.sol": {
        "KandelLib": [
          {
            "start": 7293,
            "length": 20
          }
        ]
      }
    }
  },
  "methodIdentifiers": {
    "AAVE_ROUTER()": "22f44d7d",
    "KANDEL_GASREQ()": "3b49aadd",
    "MGV()": "99fa5e2d",
    "sow((address,address,uint256),bool)": "e170fa6a"
  },
  "id": 108
}