{
  "abi": [
    {
      "inputs": [
        {
          "internalType": "address",
          "name": "governance_",
          "type": "address"
        },
        {
          "internalType": "address",
          "name": "initialMutator_",
          "type": "address"
        },
        {
          "internalType": "uint256",
          "name": "initialGasPrice_",
          "type": "uint256"
        }
      ],
      "stateMutability": "nonpayable",
      "type": "constructor"
    },
    {
      "anonymous": false,
      "inputs": [
        {
          "indexed": false,
          "internalType": "uint256",
          "name": "density96X32",
          "type": "uint256"
        }
      ],
      "name": "SetDensity96X32",
      "type": "event"
    },
    {
      "anonymous": false,
      "inputs": [
        {
          "indexed": false,
          "internalType": "uint256",
          "name": "gasPrice",
          "type": "uint256"
        }
      ],
      "name": "SetGasprice",
      "type": "event"
    },
    {
      "inputs": [
        {
          "components": [
            {
              "components": [
                {
                  "internalType": "address",
                  "name": "outbound_tkn",
                  "type": "address"
                },
                {
                  "internalType": "address",
                  "name": "inbound_tkn",
                  "type": "address"
                },
                {
                  "internalType": "uint256",
                  "name": "tickSpacing",
                  "type": "uint256"
                }
              ],
              "internalType": "struct OLKey",
              "name": "olKey",
              "type": "tuple"
            },
            {
              "internalType": "uint256",
              "name": "offerId",
              "type": "uint256"
            },
            {
              "internalType": "Offer",
              "name": "offer",
              "type": "uint256"
            },
            {
              "internalType": "uint256",
              "name": "takerWants",
              "type": "uint256"
            },
            {
              "internalType": "uint256",
              "name": "takerGives",
              "type": "uint256"
            },
            {
              "internalType": "OfferDetail",
              "name": "offerDetail",
              "type": "uint256"
            },
            {
              "internalType": "Global",
              "name": "global",
              "type": "uint256"
            },
            {
              "internalType": "Local",
              "name": "local",
              "type": "uint256"
            }
          ],
          "internalType": "struct MgvLib.SingleOrder",
          "name": "sor",
          "type": "tuple"
        },
        {
          "internalType": "address",
          "name": "taker",
          "type": "address"
        }
      ],
      "name": "notifyFail",
      "outputs": [],
      "stateMutability": "nonpayable",
      "type": "function"
    },
    {
      "inputs": [
        {
          "components": [
            {
              "components": [
                {
                  "internalType": "address",
                  "name": "outbound_tkn",
                  "type": "address"
                },
                {
                  "internalType": "address",
                  "name": "inbound_tkn",
                  "type": "address"
                },
                {
                  "internalType": "uint256",
                  "name": "tickSpacing",
                  "type": "uint256"
                }
              ],
              "internalType": "struct OLKey",
              "name": "olKey",
              "type": "tuple"
            },
            {
              "internalType": "uint256",
              "name": "offerId",
              "type": "uint256"
            },
            {
              "internalType": "Offer",
              "name": "offer",
              "type": "uint256"
            },
            {
              "internalType": "uint256",
              "name": "takerWants",
              "type": "uint256"
            },
            {
              "internalType": "uint256",
              "name": "takerGives",
              "type": "uint256"
            },
            {
              "internalType": "OfferDetail",
              "name": "offerDetail",
              "type": "uint256"
            },
            {
              "internalType": "Global",
              "name": "global",
              "type": "uint256"
            },
            {
              "internalType": "Local",
              "name": "local",
              "type": "uint256"
            }
          ],
          "internalType": "struct MgvLib.SingleOrder",
          "name": "sor",
          "type": "tuple"
        },
        {
          "internalType": "address",
          "name": "taker",
          "type": "address"
        }
      ],
      "name": "notifySuccess",
      "outputs": [],
      "stateMutability": "nonpayable",
      "type": "function"
    },
    {
      "inputs": [
        {
          "components": [
            {
              "internalType": "address",
              "name": "outbound_tkn",
              "type": "address"
            },
            {
              "internalType": "address",
              "name": "inbound_tkn",
              "type": "address"
            },
            {
              "internalType": "uint256",
              "name": "tickSpacing",
              "type": "uint256"
            }
          ],
          "internalType": "struct OLKey",
          "name": "",
          "type": "tuple"
        }
      ],
      "name": "read",
      "outputs": [
        {
          "internalType": "uint256",
          "name": "gasprice",
          "type": "uint256"
        },
        {
          "internalType": "Density",
          "name": "density",
          "type": "uint256"
        }
      ],
      "stateMutability": "view",
      "type": "function"
    },
    {
      "inputs": [
        {
          "internalType": "uint256",
          "name": "density96X32",
          "type": "uint256"
        }
      ],
      "name": "setDensity96X32",
      "outputs": [],
      "stateMutability": "nonpayable",
      "type": "function"
    },
    {
      "inputs": [
        {
          "internalType": "uint256",
          "name": "gasPrice",
          "type": "uint256"
        }
      ],
      "name": "setGasPrice",
      "outputs": [],
      "stateMutability": "nonpayable",
      "type": "function"
    },
    {
      "inputs": [
        {
          "internalType": "address",
          "name": "governance_",
          "type": "address"
        }
      ],
      "name": "setGovernance",
      "outputs": [],
      "stateMutability": "nonpayable",
      "type": "function"
    },
    {
      "inputs": [
        {
          "internalType": "address",
          "name": "mutator_",
          "type": "address"
        }
      ],
      "name": "setMutator",
      "outputs": [],
      "stateMutability": "nonpayable",
      "type": "function"
    }
  ],
  "bytecode": {
    "object": "0x608060405234801561001057600080fd5b5060405161061338038061061383398101604081905261002f91610089565b600080546001600160a01b039485166001600160a01b03199182161790915560018054939094169216919091179091556002556000196003556100c5565b80516001600160a01b038116811461008457600080fd5b919050565b60008060006060848603121561009e57600080fd5b6100a78461006d565b92506100b56020850161006d565b9150604084015190509250925092565b61053f806100d46000396000f3fe608060405234801561001057600080fd5b506004361061007d5760003560e01c8063604f88a01161005b578063604f88a014610082578063ab033ea9146100bc578063bf1fe420146100cf578063d87629ac146100e257600080fd5b80630c2969291461008257806324a9ac0414610096578063402d7b3c146100a9575b600080fd5b6100946100903660046103f1565b5050565b005b6100946100a436600461042f565b610114565b6100946100b736600461044a565b61013e565b6100946100ca36600461042f565b61022e565b6100946100dd36600461044a565b610258565b6100fb6100f0366004610463565b506002546003549091565b6040805192835260208301919091520160405180910390f35b61011c6102cc565b600180546001600160a01b0319166001600160a01b0392909216919091179055565b6000546001600160a01b031633148061016157506001546001600160a01b031633145b6101865760405162461bcd60e51b815260040161017d906104d9565b60405180910390fd5b61019381600160801b1190565b6101eb5760405162461bcd60e51b815260206004820152602360248201527f4d67764f7261636c652f636f6e6669672f64656e7369747939365833322f77726044820152626f6e6760e81b606482015260840161017d565b6101f481610316565b6003556040518181527f011dba0b9838c65c0cc37cab2c50a6ab1d75d8266f96f477a288844487524b44906020015b60405180910390a150565b6102366102cc565b600080546001600160a01b0319166001600160a01b0392909216919091179055565b6000546001600160a01b031633148061027b57506001546001600160a01b031633145b6102975760405162461bcd60e51b815260040161017d906104d9565b60028190556040518181527fdbebd814ae648f654dcc50c734aa76e55a32e96b7d85303a08e2ddf11874a0dd90602001610223565b6000546001600160a01b03163314806102e457503330145b806102f857506000546001600160a01b0316155b6103145760405162461bcd60e51b815260040161017d906104d9565b565b600060038211610324575090565b60006103ba837e09010a0d15021d0b0e10121619031e080c141c0f111807131b17061a05041f6307c4acdd60e01b6fffffffffffffffffffffffffffffffff831160071b8315600890811b9190911784811c67ffffffffffffffff1060061b1784811c63ffffffff1060051b1793841c600181901c17600281901c17600481901c179081901c17601081901c170260fb1c1a1790565b90506003600119820184901c16600282901b175b9392505050565b80356001600160a01b03811681146103ec57600080fd5b919050565b60008082840361016081121561040657600080fd5b6101408082121561041657600080fd5b8493506104248186016103d5565b925050509250929050565b60006020828403121561044157600080fd5b6103ce826103d5565b60006020828403121561045c57600080fd5b5035919050565b60006060828403121561047557600080fd5b6040516060810181811067ffffffffffffffff821117156104a657634e487b7160e01b600052604160045260246000fd5b6040526104b2836103d5565b81526104c0602084016103d5565b6020820152604083013560408201528091505092915050565b6020808252601690820152751359dd93dc9858db194bdd5b985d5d1a1bdc9a5e995960521b60408201526060019056fea26469706673582212207161b307873ac73bae91d470ff946738bcd34333f429109b3d6648eed616639764736f6c63430008140033",
    "linkReferences": {}
  },
  "methodIdentifiers": {
    "notifyFail(((address,address,uint256),uint256,uint256,uint256,uint256,uint256,uint256,uint256),address)": "604f88a0",
    "notifySuccess(((address,address,uint256),uint256,uint256,uint256,uint256,uint256,uint256,uint256),address)": "0c296929",
    "read((address,address,uint256))": "d87629ac",
    "setDensity96X32(uint256)": "402d7b3c",
    "setGasPrice(uint256)": "bf1fe420",
    "setGovernance(address)": "ab033ea9",
    "setMutator(address)": "24a9ac04"
  },
  "id": 52
}