{
  "abi": [
    {
      "inputs": [
        {
          "internalType": "contract IMangrove",
          "name": "mgv",
          "type": "address"
        },
        {
          "internalType": "address",
          "name": "deployer",
          "type": "address"
        },
        {
          "internalType": "uint256",
          "name": "gasreq",
          "type": "uint256"
        }
      ],
      "stateMutability": "nonpayable",
      "type": "constructor"
    },
    {
      "anonymous": false,
      "inputs": [
        {
          "indexed": true,
          "internalType": "bytes32",
          "name": "olKeyHash",
          "type": "bytes32"
        },
        {
          "indexed": true,
          "internalType": "uint256",
          "name": "offerId",
          "type": "uint256"
        },
        {
          "indexed": false,
          "internalType": "bytes32",
          "name": "makerData",
          "type": "bytes32"
        },
        {
          "indexed": false,
          "internalType": "bytes32",
          "name": "mgvData",
          "type": "bytes32"
        }
      ],
      "name": "LogIncident",
      "type": "event"
    },
    {
      "anonymous": false,
      "inputs": [],
      "name": "MangroveOrderComplete",
      "type": "event"
    },
    {
      "anonymous": false,
      "inputs": [
        {
          "indexed": true,
          "internalType": "bytes32",
          "name": "olKeyHash",
          "type": "bytes32"
        },
        {
          "indexed": true,
          "internalType": "address",
          "name": "taker",
          "type": "address"
        },
        {
          "indexed": false,
          "internalType": "bool",
          "name": "fillOrKill",
          "type": "bool"
        },
        {
          "indexed": false,
          "internalType": "Tick",
          "name": "tick",
          "type": "int256"
        },
        {
          "indexed": false,
          "internalType": "uint256",
          "name": "fillVolume",
          "type": "uint256"
        },
        {
          "indexed": false,
          "internalType": "bool",
          "name": "fillWants",
          "type": "bool"
        },
        {
          "indexed": false,
          "internalType": "bool",
          "name": "restingOrder",
          "type": "bool"
        },
        {
          "indexed": false,
          "internalType": "uint256",
          "name": "offerId",
          "type": "uint256"
        }
      ],
      "name": "MangroveOrderStart",
      "type": "event"
    },
    {
      "anonymous": false,
      "inputs": [
        {
          "indexed": false,
          "internalType": "contract IMangrove",
          "name": "mgv",
          "type": "address"
        }
      ],
      "name": "Mgv",
      "type": "event"
    },
    {
      "anonymous": false,
      "inputs": [
        {
          "indexed": true,
          "internalType": "bytes32",
          "name": "olKeyHash",
          "type": "bytes32"
        },
        {
          "indexed": true,
          "internalType": "uint256",
          "name": "offerId",
          "type": "uint256"
        },
        {
          "indexed": true,
          "internalType": "address",
          "name": "owner",
          "type": "address"
        }
      ],
      "name": "NewOwnedOffer",
      "type": "event"
    },
    {
      "anonymous": false,
      "inputs": [
        {
          "indexed": false,
          "internalType": "address",
          "name": "admin",
          "type": "address"
        }
      ],
      "name": "SetAdmin",
      "type": "event"
    },
    {
      "anonymous": false,
      "inputs": [
        {
          "indexed": true,
          "internalType": "bytes32",
          "name": "olKeyHash",
          "type": "bytes32"
        },
        {
          "indexed": true,
          "internalType": "uint256",
          "name": "offerId",
          "type": "uint256"
        },
        {
          "indexed": false,
          "internalType": "uint256",
          "name": "date",
          "type": "uint256"
        }
      ],
      "name": "SetExpiry",
      "type": "event"
    },
    {
      "anonymous": false,
      "inputs": [
        {
          "indexed": false,
          "internalType": "contract AbstractRouter",
          "name": "router",
          "type": "address"
        }
      ],
      "name": "SetRouter",
      "type": "event"
    },
    {
      "inputs": [],
      "name": "CONSTANT_GASREQ",
      "outputs": [
        {
          "internalType": "uint256",
          "name": "",
          "type": "uint256"
        }
      ],
      "stateMutability": "view",
      "type": "function"
    },
    {
      "inputs": [],
      "name": "MGV",
      "outputs": [
        {
          "internalType": "contract IMangrove",
          "name": "",
          "type": "address"
        }
      ],
      "stateMutability": "view",
      "type": "function"
    },
    {
      "inputs": [],
      "name": "NO_ROUTER",
      "outputs": [
        {
          "internalType": "contract AbstractRouter",
          "name": "",
          "type": "address"
        }
      ],
      "stateMutability": "view",
      "type": "function"
    },
    {
      "inputs": [
        {
          "internalType": "contract IERC20[]",
          "name": "tokens",
          "type": "address[]"
        }
      ],
      "name": "activate",
      "outputs": [],
      "stateMutability": "nonpayable",
      "type": "function"
    },
    {
      "inputs": [],
      "name": "admin",
      "outputs": [
        {
          "internalType": "address",
          "name": "current",
          "type": "address"
        }
      ],
      "stateMutability": "view",
      "type": "function"
    },
    {
      "inputs": [
        {
          "internalType": "contract IERC20",
          "name": "token",
          "type": "address"
        },
        {
          "internalType": "address",
          "name": "spender",
          "type": "address"
        },
        {
          "internalType": "uint256",
          "name": "amount",
          "type": "uint256"
        }
      ],
      "name": "approve",
      "outputs": [
        {
          "internalType": "bool",
          "name": "",
          "type": "bool"
        }
      ],
      "stateMutability": "nonpayable",
      "type": "function"
    },
    {
      "inputs": [
        {
          "internalType": "contract IERC20[]",
          "name": "tokens",
          "type": "address[]"
        }
      ],
      "name": "checkList",
      "outputs": [],
      "stateMutability": "view",
      "type": "function"
    },
    {
      "inputs": [
        {
          "internalType": "bytes32",
          "name": "olKeyHash",
          "type": "bytes32"
        },
        {
          "internalType": "uint256",
          "name": "offerId",
          "type": "uint256"
        }
      ],
      "name": "expiring",
      "outputs": [
        {
          "internalType": "uint256",
          "name": "expiry",
          "type": "uint256"
        }
      ],
      "stateMutability": "view",
      "type": "function"
    },
    {
      "inputs": [
        {
          "components": [
            {
              "components": [
                {
                  "internalType": "address",
                  "name": "outbound_tkn",
                  "type": "address"
                },
                {
                  "internalType": "address",
                  "name": "inbound_tkn",
                  "type": "address"
                },
                {
                  "internalType": "uint256",
                  "name": "tickSpacing",
                  "type": "uint256"
                }
              ],
              "internalType": "struct OLKey",
              "name": "olKey",
              "type": "tuple"
            },
            {
              "internalType": "uint256",
              "name": "offerId",
              "type": "uint256"
            },
            {
              "internalType": "Offer",
              "name": "offer",
              "type": "uint256"
            },
            {
              "internalType": "uint256",
              "name": "takerWants",
              "type": "uint256"
            },
            {
              "internalType": "uint256",
              "name": "takerGives",
              "type": "uint256"
            },
            {
              "internalType": "OfferDetail",
              "name": "offerDetail",
              "type": "uint256"
            },
            {
              "internalType": "Global",
              "name": "global",
              "type": "uint256"
            },
            {
              "internalType": "Local",
              "name": "local",
              "type": "uint256"
            }
          ],
          "internalType": "struct MgvLib.SingleOrder",
          "name": "order",
          "type": "tuple"
        }
      ],
      "name": "makerExecute",
      "outputs": [
        {
          "internalType": "bytes32",
          "name": "ret",
          "type": "bytes32"
        }
      ],
      "stateMutability": "nonpayable",
      "type": "function"
    },
    {
      "inputs": [
        {
          "components": [
            {
              "components": [
                {
                  "internalType": "address",
                  "name": "outbound_tkn",
                  "type": "address"
                },
                {
                  "internalType": "address",
                  "name": "inbound_tkn",
                  "type": "address"
                },
                {
                  "internalType": "uint256",
                  "name": "tickSpacing",
                  "type": "uint256"
                }
              ],
              "internalType": "struct OLKey",
              "name": "olKey",
              "type": "tuple"
            },
            {
              "internalType": "uint256",
              "name": "offerId",
              "type": "uint256"
            },
            {
              "internalType": "Offer",
              "name": "offer",
              "type": "uint256"
            },
            {
              "internalType": "uint256",
              "name": "takerWants",
              "type": "uint256"
            },
            {
              "internalType": "uint256",
              "name": "takerGives",
              "type": "uint256"
            },
            {
              "internalType": "OfferDetail",
              "name": "offerDetail",
              "type": "uint256"
            },
            {
              "internalType": "Global",
              "name": "global",
              "type": "uint256"
            },
            {
              "internalType": "Local",
              "name": "local",
              "type": "uint256"
            }
          ],
          "internalType": "struct MgvLib.SingleOrder",
          "name": "order",
          "type": "tuple"
        },
        {
          "components": [
            {
              "internalType": "bytes32",
              "name": "makerData",
              "type": "bytes32"
            },
            {
              "internalType": "bytes32",
              "name": "mgvData",
              "type": "bytes32"
            }
          ],
          "internalType": "struct MgvLib.OrderResult",
          "name": "result",
          "type": "tuple"
        }
      ],
      "name": "makerPosthook",
      "outputs": [],
      "stateMutability": "nonpayable",
      "type": "function"
    },
    {
      "inputs": [
        {
          "internalType": "contract IERC20",
          "name": "token",
          "type": "address"
        },
        {
          "internalType": "address",
          "name": "reserveId",
          "type": "address"
        }
      ],
      "name": "offerGasreq",
      "outputs": [
        {
          "internalType": "uint256",
          "name": "",
          "type": "uint256"
        }
      ],
      "stateMutability": "view",
      "type": "function"
    },
    {
      "inputs": [],
      "name": "offerGasreq",
      "outputs": [
        {
          "internalType": "uint256",
          "name": "",
          "type": "uint256"
        }
      ],
      "stateMutability": "view",
      "type": "function"
    },
    {
      "inputs": [
        {
          "internalType": "bytes32",
          "name": "olKeyHash",
          "type": "bytes32"
        },
        {
          "internalType": "uint256[]",
          "name": "offerIds",
          "type": "uint256[]"
        }
      ],
      "name": "offerOwners",
      "outputs": [
        {
          "internalType": "address[]",
          "name": "offerOwners_",
          "type": "address[]"
        }
      ],
      "stateMutability": "view",
      "type": "function"
    },
    {
      "inputs": [
        {
          "internalType": "bytes32",
          "name": "olKeyHash",
          "type": "bytes32"
        },
        {
          "internalType": "uint256",
          "name": "offerId",
          "type": "uint256"
        }
      ],
      "name": "ownerOf",
      "outputs": [
        {
          "internalType": "address",
          "name": "owner",
          "type": "address"
        }
      ],
      "stateMutability": "view",
      "type": "function"
    },
    {
      "inputs": [
        {
          "components": [
            {
              "internalType": "address",
              "name": "outbound_tkn",
              "type": "address"
            },
            {
              "internalType": "address",
              "name": "inbound_tkn",
              "type": "address"
            },
            {
              "internalType": "uint256",
              "name": "tickSpacing",
              "type": "uint256"
            }
          ],
          "internalType": "struct OLKey",
          "name": "olKey",
          "type": "tuple"
        },
        {
          "internalType": "uint256",
          "name": "offerId",
          "type": "uint256"
        }
      ],
      "name": "provisionOf",
      "outputs": [
        {
          "internalType": "uint256",
          "name": "provision",
          "type": "uint256"
        }
      ],
      "stateMutability": "view",
      "type": "function"
    },
    {
      "inputs": [
        {
          "components": [
            {
              "internalType": "address",
              "name": "outbound_tkn",
              "type": "address"
            },
            {
              "internalType": "address",
              "name": "inbound_tkn",
              "type": "address"
            },
            {
              "internalType": "uint256",
              "name": "tickSpacing",
              "type": "uint256"
            }
          ],
          "internalType": "struct OLKey",
          "name": "olKey",
          "type": "tuple"
        },
        {
          "internalType": "uint256",
          "name": "offerId",
          "type": "uint256"
        },
        {
          "internalType": "bool",
          "name": "deprovision",
          "type": "bool"
        }
      ],
      "name": "retractOffer",
      "outputs": [
        {
          "internalType": "uint256",
          "name": "freeWei",
          "type": "uint256"
        }
      ],
      "stateMutability": "nonpayable",
      "type": "function"
    },
    {
      "inputs": [],
      "name": "router",
      "outputs": [
        {
          "internalType": "contract AbstractRouter",
          "name": "",
          "type": "address"
        }
      ],
      "stateMutability": "view",
      "type": "function"
    },
    {
      "inputs": [
        {
          "internalType": "address",
          "name": "admin_",
          "type": "address"
        }
      ],
      "name": "setAdmin",
      "outputs": [],
      "stateMutability": "nonpayable",
      "type": "function"
    },
    {
      "inputs": [
        {
          "internalType": "bytes32",
          "name": "olKeyHash",
          "type": "bytes32"
        },
        {
          "internalType": "uint256",
          "name": "offerId",
          "type": "uint256"
        },
        {
          "internalType": "uint256",
          "name": "date",
          "type": "uint256"
        }
      ],
      "name": "setExpiry",
      "outputs": [],
      "stateMutability": "nonpayable",
      "type": "function"
    },
    {
      "inputs": [
        {
          "internalType": "contract AbstractRouter",
          "name": "router_",
          "type": "address"
        }
      ],
      "name": "setRouter",
      "outputs": [],
      "stateMutability": "nonpayable",
      "type": "function"
    },
    {
      "inputs": [
        {
          "components": [
            {
              "components": [
                {
                  "internalType": "address",
                  "name": "outbound_tkn",
                  "type": "address"
                },
                {
                  "internalType": "address",
                  "name": "inbound_tkn",
                  "type": "address"
                },
                {
                  "internalType": "uint256",
                  "name": "tickSpacing",
                  "type": "uint256"
                }
              ],
              "internalType": "struct OLKey",
              "name": "olKey",
              "type": "tuple"
            },
            {
              "internalType": "bool",
              "name": "fillOrKill",
              "type": "bool"
            },
            {
              "internalType": "Tick",
              "name": "tick",
              "type": "int256"
            },
            {
              "internalType": "uint256",
              "name": "fillVolume",
              "type": "uint256"
            },
            {
              "internalType": "bool",
              "name": "fillWants",
              "type": "bool"
            },
            {
              "internalType": "bool",
              "name": "restingOrder",
              "type": "bool"
            },
            {
              "internalType": "uint256",
              "name": "expiryDate",
              "type": "uint256"
            },
            {
              "internalType": "uint256",
              "name": "offerId",
              "type": "uint256"
            }
          ],
          "internalType": "struct IOrderLogic.TakerOrder",
          "name": "tko",
          "type": "tuple"
        }
      ],
      "name": "take",
      "outputs": [
        {
          "components": [
            {
              "internalType": "uint256",
              "name": "takerGot",
              "type": "uint256"
            },
            {
              "internalType": "uint256",
              "name": "takerGave",
              "type": "uint256"
            },
            {
              "internalType": "uint256",
              "name": "bounty",
              "type": "uint256"
            },
            {
              "internalType": "uint256",
              "name": "fee",
              "type": "uint256"
            },
            {
              "internalType": "uint256",
              "name": "offerId",
              "type": "uint256"
            },
            {
              "internalType": "bytes32",
              "name": "offerWriteData",
              "type": "bytes32"
            }
          ],
          "internalType": "struct IOrderLogic.TakerOrderResult",
          "name": "res",
          "type": "tuple"
        }
      ],
      "stateMutability": "payable",
      "type": "function"
    },
    {
      "inputs": [
        {
          "components": [
            {
              "internalType": "address",
              "name": "outbound_tkn",
              "type": "address"
            },
            {
              "internalType": "address",
              "name": "inbound_tkn",
              "type": "address"
            },
            {
              "internalType": "uint256",
              "name": "tickSpacing",
              "type": "uint256"
            }
          ],
          "internalType": "struct OLKey",
          "name": "olKey",
          "type": "tuple"
        },
        {
          "internalType": "Tick",
          "name": "tick",
          "type": "int256"
        },
        {
          "internalType": "uint256",
          "name": "gives",
          "type": "uint256"
        },
        {
          "internalType": "uint256",
          "name": "offerId",
          "type": "uint256"
        }
      ],
      "name": "updateOffer",
      "outputs": [],
      "stateMutability": "payable",
      "type": "function"
    },
    {
      "inputs": [
        {
          "internalType": "uint256",
          "name": "amount",
          "type": "uint256"
        },
        {
          "internalType": "address payable",
          "name": "receiver",
          "type": "address"
        }
      ],
      "name": "withdrawFromMangrove",
      "outputs": [],
      "stateMutability": "nonpayable",
      "type": "function"
    },
    {
      "stateMutability": "payable",
      "type": "receive"
    }
  ],
  "bytecode": {
    "object": "0x60c06040523480156200001157600080fd5b50604051620051ff380380620051ff8339810160408190526200003491620004da565b826040516200004390620004b3565b604051809103906000f08015801562000060573d6000803e3d6000fd5b508282813380620000b85760405162461bcd60e51b815260206004820152601860248201527f416363657373436f6e74726f6c6c65642f307841646d696e000000000000000060448201526064015b60405180910390fd5b600080546001600160a01b0319166001600160a01b039290921691909117905562ffffff811681146200012e5760405162461bcd60e51b815260206004820152601760248201527f6d67764f666665722f6761737265714f766572666c6f770000000000000000006044820152606401620000af565b6001600160a01b03821660a081905260808290526040519081527f23274a2ea157bc8b802cd1ca98faaaf1e5ed5472079061e406176ba38449d6879060200160405180910390a150506001600160a01b038216620001db5760405162461bcd60e51b815260206004820152602360248201527f466f72776172646572206c6f67696373206d7573742068617665206120726f756044820152623a32b960e91b6064820152608401620000af565b620001e682620002f0565b50506001546001600160a01b031690506040516381bac14f60e01b81523060048201526001600160a01b0391909116906381bac14f90602401600060405180830381600087803b1580156200023a57600080fd5b505af11580156200024f573d6000803e3d6000fd5b5050505062000263620003a160201b60201c565b604051633825b60160e11b81526001600160a01b038481166004830152919091169063704b6c0290602401600060405180830381600087803b158015620002a957600080fd5b505af1158015620002be573d6000803e3d6000fd5b50505050816001600160a01b0316336001600160a01b031614620002e757620002e782620003b0565b50505062000522565b6000546001600160a01b031633146200034c5760405162461bcd60e51b815260206004820152601860248201527f416363657373436f6e74726f6c6c65642f496e76616c696400000000000000006044820152606401620000af565b600180546001600160a01b0319166001600160a01b0383169081179091556040519081527f6de4326a8b9054d72d9dbab97d27bc4edffadee7d966f5af9cc4eafdaf8e5455906020015b60405180910390a150565b6001546001600160a01b031690565b6000546001600160a01b031633146200040c5760405162461bcd60e51b815260206004820152601860248201527f416363657373436f6e74726f6c6c65642f496e76616c696400000000000000006044820152606401620000af565b6001600160a01b038116620004645760405162461bcd60e51b815260206004820152601860248201527f416363657373436f6e74726f6c6c65642f307841646d696e00000000000000006044820152606401620000af565b600080546001600160a01b0319166001600160a01b0383169081179091556040519081527f5a272403b402d892977df56625f4164ccaf70ca3863991c43ecfe76a6905b0a19060200162000396565b610f94806200426b83390190565b6001600160a01b0381168114620004d757600080fd5b50565b600080600060608486031215620004f057600080fd5b8351620004fd81620004c1565b60208501519093506200051081620004c1565b80925050604084015190509250925092565b60805160a051613c97620005d46000396000818161036e0152818161070e01528181610b9201528181610e4c01528181610f1d015281816110b701528181611143015281816114610152818161196f01528181611d6101528181611dfe01528181611fb3015281816120f80152818161228d01528181612346015281816124a5015281816127af0152818161294501526131560152600081816103a20152818161133801526113660152613c976000f3fe6080604052600436106101445760003560e01c80637144df24116100b6578063c7e1bb441161006f578063c7e1bb4414610404578063ceba736014610424578063cfcd267914610451578063e1f21c6714610466578063f851a44014610496578063f887ea40146104b457600080fd5b80637144df241461031c578063820db1f71461033c57806399fa5e2d1461035c5780639eb7d4fe14610390578063a24f2b2d146103c4578063c0d78655146103e457600080fd5b8063400ee57111610108578063400ee571146102745780635293840d14610287578063535f55ca146102a75780635570db1d146102c75780636e7a5cb8146102dc578063704b6c02146102fc57600080fd5b806303eb17e2146101505780630479ab9314610172578063126490ee146101bd5780632380fafd1461021c5780633a9dfae21461023c57600080fd5b3661014b57005b600080fd5b34801561015c57600080fd5b5061017061016b366004613306565b6104d2565b005b34801561017e57600080fd5b506101aa61018d366004613348565b600360209081526000928352604080842090915290825290205481565b6040519081526020015b60405180910390f35b6101d06101cb36600461337d565b610521565b6040516101b49190600060c082019050825182526020830151602083015260408301516040830152606083015160608301526080830151608083015260a083015160a083015292915050565b34801561022857600080fd5b506101aa61023736600461337d565b610b8e565b34801561024857600080fd5b5061025c610257366004613348565b610ca0565b6040516001600160a01b0390911681526020016101b4565b6101706102823660046134b2565b610d0f565b34801561029357600080fd5b506101706102a2366004613306565b610dcb565b3480156102b357600080fd5b506101706102c23660046134ec565b610e3f565b3480156102d357600080fd5b5061025c600081565b3480156102e857600080fd5b506101aa6102f7366004613536565b610f0a565b34801561030857600080fd5b50610170610317366004613577565b610f9a565b34801561032857600080fd5b50610170610337366004613594565b61106f565b34801561034857600080fd5b506101aa6103573660046135c4565b61129a565b34801561036857600080fd5b5061025c7f000000000000000000000000000000000000000000000000000000000000000081565b34801561039c57600080fd5b506101aa7f000000000000000000000000000000000000000000000000000000000000000081565b3480156103d057600080fd5b506101aa6103df3660046135f2565b611394565b3480156103f057600080fd5b506101706103ff366004613577565b6113e7565b34801561041057600080fd5b5061017061041f36600461361d565b61145f565b34801561043057600080fd5b5061044461043f366004613660565b61153b565b6040516101b491906136ac565b34801561045d57600080fd5b506101aa6115f1565b34801561047257600080fd5b506104866104813660046136f9565b611603565b60405190151581526020016101b4565b3480156104a257600080fd5b506000546001600160a01b031661025c565b3480156104c057600080fd5b506001546001600160a01b031661025c565b60005b8181101561051c5761050c8383838181106104f2576104f261373a565b90506020020160208101906105079190613577565b61168f565b61051581613766565b90506104d5565b505050565b61055d6040518060c001604052806000815260200160008152602001600081526020016000815260200160008152602001600080191681525090565b610100820135158061057457508161010001354211155b6105b85760405162461bcd60e51b815260206004820152601060248201526f1b59dd93dc99195c8bd95e1c1a5c995960821b60448201526064015b60405180910390fd5b60006105ca60e0840160c0850161377f565b6105d8578260a001356105ea565b6105ea608084013560a0850135611713565b905060006106006001546001600160a01b031690565b6001600160a01b031663333dbb0d61061e6040870160208801613577565b6040516001600160e01b031960e084901b1681526001600160a01b03909116600482015233602482015260448101859052600160648201526084016020604051808303816000875af1158015610678573d6000803e3d6000fd5b505050506040513d601f19601f8201168201806040525081019061069c919061379c565b90508181146106ed5760405162461bcd60e51b815260206004820152601760248201527f6d67764f726465722f7472616e73666572496e4661696c00000000000000000060448201526064016105af565b6107046106ff368690038601866137b5565b611748565b6001600160a01b037f00000000000000000000000000000000000000000000000000000000000000001663d6a522ce85608081013560a082013561074e60e0840160c0850161377f565b6040518563ffffffff1660e01b815260040161076d9493929190613840565b6080604051808303816000875af115801561078c573d6000803e3d6000fd5b505050506040513d601f19601f820116820180604052508101906107b09190613899565b606087015260408601526020850152835260006107cd85856117d5565b90506107df608086016060870161377f565b15806107e85750805b806107ff57506107ff610100860160e0870161377f565b6108425760405162461bcd60e51b81526020600482015260146024820152731b59dd93dc99195c8bdc185c9d1a585b119a5b1b60621b60448201526064016105af565b8351156109235783516001546001600160a01b03166326e8eda26108696020890189613577565b875160405160e084901b6001600160e01b03191681526001600160a01b03909216600483015233602483015260448201526064016020604051808303816000875af11580156108bc573d6000803e3d6000fd5b505050506040513d601f19601f820116820180604052508101906108e0919061379c565b146109235760405162461bcd60e51b81526020600482015260136024820152721b59dd93dc99195c8bdc1d5cda11985a5b1959606a1b60448201526064016105af565b600084602001518461093591906138cf565b90508015610a2857806109506001546001600160a01b031690565b6001600160a01b03166326e8eda261096e60408a0160208b01613577565b6040516001600160e01b031960e084901b1681526001600160a01b039091166004820152336024820152604481018590526064016020604051808303816000875af11580156109c1573d6000803e3d6000fd5b505050506040513d601f19601f820116820180604052508101906109e5919061379c565b14610a285760405162461bcd60e51b81526020600482015260136024820152721b59dd93dc99195c8bdc1d5cda11985a5b1959606a1b60448201526064016105af565b6000856040015134610a3a91906138e2565b9050610a4d610100880160e0890161377f565b8015610a57575082155b15610ac557610ac287610abb610a72368390038301836138f5565b6040805160608082018352600080835260208084018290529284015282519081018352838201516001600160a01b03908116825284511691810191909152918101519082015290565b888461181e565b90505b8015610b5b57604051600090339083908381818185875af1925050503d8060008114610b0d576040519150601f19603f3d011682016040523d82523d6000602084013e610b12565b606091505b5050905080610b595760405162461bcd60e51b81526020600482015260136024820152721b59dd93dc99195c8bdc99599d5b9911985a5b606a1b60448201526064016105af565b505b6040517fe5581490ac6db4ceba3be5a2a4af71b3a09f180284199da3ff36d62711bb1b6d90600090a15050505050919050565b60007f0000000000000000000000000000000000000000000000000000000000000000336001600160a01b03821614610bd95760405162461bcd60e51b81526004016105af90613911565b610be283611b1e565b9150610bf28360c0013584611bb4565b15610c3f5760405162461bcd60e51b815260206004820152601860248201527f6d67764f666665722f61626f72742f7075744661696c6564000000000000000060448201526064016105af565b610c4d8360a0013584611c90565b15610c9a5760405162461bcd60e51b815260206004820152601860248201527f6d67764f666665722f61626f72742f6765744661696c6564000000000000000060448201526064016105af565b50919050565b60008281526002602090815260408083208484529091529020546001600160a01b031680610d095760405162461bcd60e51b81526020600482015260166024820152752337b93bb0b93232b917bab735b737bbb727b33332b960511b60448201526064016105af565b92915050565b60608420600081815260026020908152604080832085845290915290205482906001600160a01b03163314610d565760405162461bcd60e51b81526004016105af90613911565b6040805161014081018252600060e0820181905261010082018190526101208201819052606082018190526080820181905260c08201523460a082015287815260208101879052908101859052610dab6115f1565b6060820152600060c0820152610dc18185611d1b565b5050505050505050565b6000546001600160a01b03163314610df55760405162461bcd60e51b81526004016105af90613911565b60005b8181101561051c57610e2f838383818110610e1557610e1561373a565b9050602002016020810190610e2a9190613577565b6120dc565b610e3881613766565b9050610df8565b8282336001600160a01b037f00000000000000000000000000000000000000000000000000000000000000001614610eb25760008281526002602090815260408083208484529091529020546001600160a01b03163314610eb25760405162461bcd60e51b81526004016105af90613911565b60008581526003602090815260408083208784528252918290208590559051848152859187917f0c72c6233a690301ad287cb9d2547d931bea06b00eb5f73bf6a369610d909822910160405180910390a35050505050565b6060832060009083336001600160a01b037f00000000000000000000000000000000000000000000000000000000000000001614610f835760008281526002602090815260408083208484529091529020546001600160a01b03163314610f835760405162461bcd60e51b81526004016105af90613911565b610f8e86868661222e565b92505b50509392505050565b6000546001600160a01b03163314610fc45760405162461bcd60e51b81526004016105af90613911565b6001600160a01b03811661101a5760405162461bcd60e51b815260206004820152601860248201527f416363657373436f6e74726f6c6c65642f307841646d696e000000000000000060448201526064016105af565b600080546001600160a01b0319166001600160a01b0383169081179091556040519081527f5a272403b402d892977df56625f4164ccaf70ca3863991c43ecfe76a6905b0a1906020015b60405180910390a150565b6000546001600160a01b031633146110995760405162461bcd60e51b81526004016105af90613911565b600019820361112d576040516370a0823160e01b81523060048201527f00000000000000000000000000000000000000000000000000000000000000006001600160a01b0316906370a0823190602401602060405180830381865afa158015611106573d6000803e3d6000fd5b505050506040513d601f19601f8201168201806040525081019061112a919061379c565b91505b604051632e1a7d4d60e01b8152600481018390527f00000000000000000000000000000000000000000000000000000000000000006001600160a01b031690632e1a7d4d906024016020604051808303816000875af1158015611194573d6000803e3d6000fd5b505050506040513d601f19601f820116820180604052508101906111b89190613948565b6111fc5760405162461bcd60e51b81526020600482015260156024820152741b59dd93d999995c8bddda5d1a191c985dd1985a5b605a1b60448201526064016105af565b6000816001600160a01b03168360405160006040518083038185875af1925050503d8060008114611249576040519150601f19603f3d011682016040523d82523d6000602084013e61124e565b606091505b505090508061051c5760405162461bcd60e51b81526020600482015260186024820152771b59dd93d999995c8bddd95a551c985b9cd9995c91985a5b60421b60448201526064016105af565b6000806112af6001546001600160a01b031690565b90506001600160a01b038116156113645760405163143b7da760e11b81526001600160a01b0385811660048301528481166024830152821690632876fb4e90604401602060405180830381865afa15801561130e573d6000803e3d6000fd5b505050506040513d601f19601f82011682018060405250810190611332919061379c565b61135c907f00000000000000000000000000000000000000000000000000000000000000006138e2565b915050610d09565b7f0000000000000000000000000000000000000000000000000000000000000000915050610d09565b5092915050565b60006113a083836124a0565b9050600260006113b1856060902090565b8152602080820192909252604090810160009081209481529390915290912054600160a01b90046001600160601b031601919050565b6000546001600160a01b031633146114115760405162461bcd60e51b81526004016105af90613911565b600180546001600160a01b0319166001600160a01b0383169081179091556040519081527f6de4326a8b9054d72d9dbab97d27bc4edffadee7d966f5af9cc4eafdaf8e545590602001611064565b7f0000000000000000000000000000000000000000000000000000000000000000336001600160a01b038216146114a85760405162461bcd60e51b81526004016105af90613911565b81602001356f6d67762f74726164655375636365737360801b036114d7576114d1838335612561565b50505050565b60608301356114f56114ee368690038601866138f5565b6060902090565b6040805185358152602080870135908201527f45b7a2e43f35c7d127ad18416b3d34235d187b2060d4050bb82bb11de272a7c3910160405180910390a361051c83612621565b60608167ffffffffffffffff8111156115565761155661339a565b60405190808252806020026020018201604052801561157f578160200160208202803683370190505b50905060005b828110156115e9576115af858585848181106115a3576115a361373a565b90506020020135610ca0565b8282815181106115c1576115c161373a565b6001600160a01b03909216602092830291909101909101526115e281613766565b9050611585565b509392505050565b60006115fe60008061129a565b905090565b600080546001600160a01b0316331461162e5760405162461bcd60e51b81526004016105af90613911565b61163984848461277d565b6116855760405162461bcd60e51b815260206004820152601760248201527f6d67764f666665722f617070726f76652f6661696c656400000000000000000060448201526064016105af565b5060019392505050565b61169881612792565b60006116ac6001546001600160a01b031690565b604051631403b99b60e31b81526001600160a01b0384811660048301523360248301529192509082169063a01dccd89060440160006040518083038186803b1580156116f757600080fd5b505afa15801561170b573d6000803e3d6000fd5b505050505050565b600080600061172185612880565b9150915061173f848302826001811b600019018216151591901c0190565b95945050505050565b80516060902033907fc4e60059977c6a198b374650f86f380c8bf5b3f4aead390a5823d463616a3b8783602001518460400151856060015186608001518760a001518860e001516040516117ca96959493929190951515865260208601949094526040850192909252151560608401521515608083015260a082015260c00190565b60405180910390a350565b60006117e760e0840160c0850161377f565b1561180b576060820151825160a085013591611802916138e2565b10159050610d09565b8260a00135826020015110159050610d09565b60008061182e6080870135613965565b9050600061184260e0880160c0890161377f565b1561187c576060850151855160009161185a916138e2565b6118689060a08a01356138cf565b905061187483826128f2565b915050611892565b602085015161188f9060a08901356138cf565b90505b60006040518060e001604052808881526020018481526020018381526020016118b96115f1565b8152602001600081526020018681526020016001151581525090508761012001356000036118fa576118eb8133612903565b60a08801526080870152611a88565b61012088013533600260006119108b6060902090565b8152602080820192909252604090810160009081208582529092529020546001600160a01b0316146119545760405162461bcd60e51b81526004016105af90613911565b604051630129e86d60e21b81526119f8906001600160a01b037f000000000000000000000000000000000000000000000000000000000000000016906304a7a1b4906119a6908c9086906004016139a8565b602060405180830381865afa1580156119c3573d6000803e3d6000fd5b505050506040513d601f19601f820116820180604052508101906119e7919061379c565b602c1c60016001607f1b0316151590565b15611a455760405162461bcd60e51b815260206004820152601b60248201527f6d67764f726465722f6f66666572416c7265616479416374697665000000000060448201526064016105af565b6000611a518383611d1b565b60a0890181905290506c24266666a37422a3e6e7a2e6a7609a1b8101611a7d5760808801829052611a85565b600060808901525b50505b8560800151600003611af057611aa46080890160608a0161377f565b15611ae85760405162461bcd60e51b81526020600482015260146024820152731b59dd93dc99195c8bdc185c9d1a585b119a5b1b60621b60448201526064016105af565b849350611b13565b61010088013515611b135760608720611b139087608001518a6101000135610e3f565b505050949350505050565b600080600381611b366114ee368790038701876138f5565b81526020019081526020016000206000846060013581526020019081526020016000205490508060001480611b6b5750804211155b611baa5760405162461bcd60e51b815260206004820152601060248201526f1b59dd93dc99195c8bd95e1c1a5c995960821b60448201526064016105af565b60005b9392505050565b600080611bd6611bcc6114ee368690038601866138f5565b8460600135610ca0565b90506000611bec6001546001600160a01b031690565b6001600160a01b03166326e8eda2611c0a6040870160208801613577565b6040516001600160e01b031960e084901b1681526001600160a01b0391821660048201529085166024820152604481018890526064015b6020604051808303816000875af1158015611c60573d6000803e3d6000fd5b505050506040513d601f19601f82011682018060405250810190611c84919061379c565b905061173f81866138cf565b600080611ca8611bcc6114ee368690038601866138f5565b90506000611cbe6001546001600160a01b031690565b6001600160a01b031663333dbb0d611cd96020870187613577565b6040516001600160e01b031960e084901b1681526001600160a01b03918216600482015290851660248201526044810188905260016064820152608401611c41565b6000611d486040518060800160405280600081526020016000815260200160008152602001600081525090565b835160405163293ad90960e11b81526001600160a01b037f00000000000000000000000000000000000000000000000000000000000000001691635275b21291611d9591906004016139c3565b6040805180830381865afa158015611db1573d6000803e3d6000fd5b505050506040513d601f19601f82011682018060405250810190611dd591906139d1565b60408084019190915260208301919091528451905163e982fb8d60e01b81526001600160a01b037f0000000000000000000000000000000000000000000000000000000000000000169163e982fb8d91611e34919087906004016139a8565b602060405180830381865afa158015611e51573d6000803e3d6000fd5b505050506040513d601f19601f82011682018060405250810190611e75919061379c565b6060820181905260009060481c62ffffff16905060008560a001511180611ea0575080856060015114155b80611ec35750611eb38260400151612a4b565b611ec08360600151612a61565b14155b15611f6c576000611ed78360600151612a61565b60608401519083019060251c6303ffffff16620f424002029050611f128660600151828860a0015101611f0d8660400151612a4b565b612a71565b845260808701525081518551606090206000908152600260209081526040808320888452909152902080546001600160601b03600160a01b8083048216909401169092026001600160a01b03909216919091179055611f80565b606082015160251c6303ffffff1660808601525b602082015160441c6303ffffff1685608001511015611fb15760405162461bcd60e51b81526004016105af906139f5565b7f00000000000000000000000000000000000000000000000000000000000000006001600160a01b031663a84b08c88660a001518760000151886020015189604001518a606001518b608001518b6040518863ffffffff1660e01b815260040161202096959493929190613a2c565b6000604051808303818588803b15801561203957600080fd5b505af19350505050801561204b575060015b6120ba57612057613a63565b806308c379a0036120ae575061206b613a7f565b8061207657506120b0565b8560c00151819061209a5760405162461bcd60e51b81526004016105af9190613b2d565b506120a481613b60565b9350505050610d09565b505b3d6000803e3d6000fd5b6c1bd999995c8bdd5c19185d1959609a1b92505050610d09565b505092915050565b60006120f06001546001600160a01b031690565b905061211f827f000000000000000000000000000000000000000000000000000000000000000060001961277d565b61216b5760405162461bcd60e51b815260206004820152601d60248201527f6d67764f666665722f617070726f76654d616e67726f76652f4661696c00000060448201526064016105af565b6001600160a01b0381161561222a57612187828260001961277d565b6121d35760405162461bcd60e51b815260206004820152601a60248201527f6d67764f666665722f617070726f7665526f757465724661696c00000000000060448201526064016105af565b604051630716a76760e21b81526001600160a01b038381166004830152821690631c5a9d9c90602401600060405180830381600087803b15801561221657600080fd5b505af115801561170b573d6000803e3d6000fd5b5050565b60008060026000612240876060902090565b8152602001908152602001600020600085815260200190815260200160002090508261226d576000612280565b8054600160a01b90046001600160601b03165b6001600160601b031691507f00000000000000000000000000000000000000000000000000000000000000006001600160a01b0316636e7a5cb88686866040518463ffffffff1660e01b81526004016122db93929190613b84565b6020604051808303816000875af11580156122fa573d6000803e3d6000fd5b505050506040513d601f19601f8201168201806040525081019061231e919061379c565b61232890836138e2565b915081156115e957604051632e1a7d4d60e01b8152600481018390527f00000000000000000000000000000000000000000000000000000000000000006001600160a01b031690632e1a7d4d906024016020604051808303816000875af1158015612397573d6000803e3d6000fd5b505050506040513d601f19601f820116820180604052508101906123bb9190613948565b6124005760405162461bcd60e51b8152602060048201526016602482015275119bdc9dd85c99195c8bddda5d1a191c985dd1985a5b60521b60448201526064016105af565b80546001600160a01b03168082556040516000919084908381818185875af1925050503d806000811461244f576040519150601f19603f3d011682016040523d82523d6000602084013e612454565b606091505b5050905080610f915760405162461bcd60e51b81526020600482015260186024820152771b59dd93d999995c8bddd95a551c985b9cd9995c91985a5b60421b60448201526064016105af565b6000807f00000000000000000000000000000000000000000000000000000000000000006001600160a01b031663e982fb8d85856040518363ffffffff1660e01b81526004016124f19291906139a8565b602060405180830381865afa15801561250e573d6000803e3d6000fd5b505050506040513d601f19601f82011682018060405250810190612532919061379c565b9050604881901c62ffffff1661254782612a61565b01602582901c6303ffffff1602620f424002949350505050565b600080600061256f85612b18565b91509150816000148061258957506125878183612b4d565b155b156125a7576b1bd999995c8bd99a5b1b195960a21b92505050610d09565b6040805160e0810190915261261490806125c6368990038901896138f5565b8152602081018490526040810185905260600160e088013560481c62ffffff16815260200160e088013560251c6303ffffff1681526000602082015260016040909101526060870135611d1b565b92506120d4858585612b76565b60006002816126386114ee368690038601866138f5565b815260208101919091526040016000908120915060e083013560481c62ffffff169050600061266a8460e00135612a61565b61267490836138e2565b61268e6303ffffff60e087013560251c16620f4240613ba8565b6126989190613ba8565b905060006126b76303ffffff61010087013560441c16620f4240613ba8565b905060006126c9866101200135612a4b565b6126d56107d0866138e2565b6126df91906138e2565b90506000825a6126ef90846138cf565b6126f99190613ba8565b90506000848210156127145761270f82866138cf565b612717565b60005b606089013560009081526020899052604090208054919250829160149061274f908490600160a01b90046001600160601b0316613bbf565b92506101000a8154816001600160601b0302191690836001600160601b031602179055505050505050505050565b600061278a848484612c2b565b949350505050565b604051636eb1769f60e11b81523060048201526001600160a01b037f0000000000000000000000000000000000000000000000000000000000000000811660248301526000919083169063dd62ed3e90604401602060405180830381865afa158015612802573d6000803e3d6000fd5b505050506040513d601f19601f82011682018060405250810190612826919061379c565b1161287d5760405162461bcd60e51b815260206004820152602160248201527f6d67764f666665722f4c6f6769634d757374417070726f76654d616e67726f766044820152606560f81b60648201526084016105af565b50565b60008061288c83612cf5565b909250905060eb83901b60007ed89e8c075c4155dd3213326cbbcf86fd1f63f5c205dd2ad2cf44f9349b39e180830782139083050390607e1982850101908113156128da5793841c936128e4565b8060000385901b94505b81607f039350505050915091565b600080600061172185600003612880565b6000806000806129128661314e565b60a0880151885160208a01516040808c015160608d01519151637cac815560e11b81529698509496506001600160a01b037f0000000000000000000000000000000000000000000000000000000000000000169563f95902aa9561297e94939290918a90600401613bdf565b60206040518083038185885af1935050505080156129b9575060408051601f3d908101601f191682019092526129b69181019061379c565b60015b612a1a576129c5613a63565b806308c379a0036120ae57506129d9613a7f565b806129e457506120b0565b8660c001518190612a085760405162461bcd60e51b81526004016105af9190613b2d565b50612a1281613b60565b935050612a42565b865160609020612a2c90828885613234565b93506c1bd999995c8bd8dc99585d1959609a1b92505b50509250929050565b6000602182901c6101ff165b6103e80292915050565b6000603f82901c6101ff16612a57565b600080620f42408386010280851015612a9c5760405162461bcd60e51b81526004016105af906139f5565b806303ffffff028510612af15760405162461bcd60e51b815260206004820152601a60248201527f466f727761726465722f70726f766973696f6e546f6f4869676800000000000060448201526064016105af565b808581612b0057612b00613c0f565b0496939095018602620f424002909303935090915050565b600080612b3960a084013560016001607f1b036080860135602c1c166138cf565b9150608083013560401b60eb1d9050915091565b6000806000612b5b85612880565b909250905080612b6b8584613ba8565b901c95945050505050565b6b1bd999995c8bd99a5b1b195960a21b811480612ba257506c1bd999995c8bdd5c19185d1959609a1b81145b80612bcc5750807f6d67762f77726974654f666665722f64656e736974792f746f6f4c6f77000000145b15612bd657505050565b6060830135612bed6114ee368690038601866138f5565b60408051858152602081018590527f45b7a2e43f35c7d127ad18416b3d34235d187b2060d4050bb82bb11de272a7c3910160405180910390a3505050565b604080516001600160a01b038481166024830152604480830185905283518084039091018152606490920183526020820180516001600160e01b031663095ea7b360e01b17905291516000928392839291881691612c899190613c25565b6000604051808303816000865af19150503d8060008114612cc6576040519150601f19603f3d011682016040523d82523d6000602084013e612ccb565b606091505b5091509150818015610f8e575080511580610f8e575080806020019051810190610f8e9190613948565b6000806000808412612d075783612d10565b612d1084613965565b9050620d89e8811115612d655760405162461bcd60e51b815260206004820152601760248201527f6d67762f6162735469636b2f6f75744f66426f756e647300000000000000000060448201526064016105af565b60006001821615612d88576ffff97272373d413259a46990580e21399350612d90565b600160801b93505b6002821615612dba576080612db5856ffff2e50f5f656932ef12357cf3c7fdcb613ba8565b901c93505b6004821615612de4576080612ddf856fffe5caca7e10e4e61c3624eaa0941ccf613ba8565b901c93505b6008821615612e0e576080612e09856fffcb9843d60f6159c9db58835c926643613ba8565b901c93505b6010821615612e38576080612e33856fff973b41fa98c081472e6896dfb254bf613ba8565b901c93505b6020821615612e62576080612e5d856fff2ea16466c96a3843ec78b326b52860613ba8565b901c93505b6040821615612e8c576080612e87856ffe5dee046a99a2a811c461f1969c3052613ba8565b901c93505b6080821615612eb6576080612eb1856ffcbe86c7900a88aedcffc83b479aa3a3613ba8565b901c93505b610100821615612ee1576080612edc856ff987a7253ac413176f2b074cf7815e53613ba8565b901c93505b610200821615612f0c576080612f07856ff3392b0822b70005940c7a398e4b70f2613ba8565b901c93505b610400821615612f37576080612f32856fe7159475a2c29b7443b29c7fa6e889d8613ba8565b901c93505b610800821615612f62576080612f5d856fd097f3bdfd2022b8845ad8f792aa5825613ba8565b901c93505b611000821615612f8d576080612f88856fa9f746462d870fdf8a65dc1f90e061e4613ba8565b901c93505b612000821615612fc5576080612fb3856fe1b0d342ada5437121767bec575e65ed613ba8565b901c9350612fc2600182613c41565b90505b614000821615612ffd576080612feb856fc6f84d7e5f423f66048c541550bf3e96613ba8565b901c9350612ffa600282613c41565b90505b618000821615613035576080613023856f9aa508b5b7a84e1c677de54f3e99bc8f613ba8565b901c9350613032600482613c41565b90505b6201000082161561306e57608061305c856fbad5f1bdb70232cd33865244bdcc089c613ba8565b901c935061306b600982613c41565b90505b620200008216156130a7576080613095856f885b9613d7e87aa498106fb7fa5edd37613ba8565b901c93506130a4601282613c41565b90505b620400008216156130e05760806130ce856f9142e0723efb884889d1f447715afacd613ba8565b901c93506130dd602582613c41565b90505b62080000821615613119576080613107856fa4d9a773d61316918f140bd96e8e6814613ba8565b901c9350613116604b82613c41565b90505b600085131561313a5760018485600003040193508061313790613965565b90505b613145816080613c41565b92505050915091565b6000806000807f00000000000000000000000000000000000000000000000000000000000000006001600160a01b0316635275b21286600001516040518263ffffffff1660e01b81526004016131a491906139c3565b6040805180830381865afa1580156131c0573d6000803e3d6000fd5b505050506040513d601f19601f820116820180604052508101906131e491906139d1565b915091506131fe85606001518660a00151611f0d84612a4b565b9094509250604482901c6303ffffff1684101561322d5760405162461bcd60e51b81526004016105af906139f5565b5050915091565b6040805180820182526001600160a01b038085168083526001600160601b03808616602080860191825260008b8152600282528781208b825290915286812095519151909216600160a01b0293169290921790925591519091859187917fbcee40f594b2f79b90531f446b9f530e5e45cd6c586f31ae8a16c3aff208656091a450505050565b60008083601f8401126132cc57600080fd5b50813567ffffffffffffffff8111156132e457600080fd5b6020830191508360208260051b85010111156132ff57600080fd5b9250929050565b6000806020838503121561331957600080fd5b823567ffffffffffffffff81111561333057600080fd5b61333c858286016132ba565b90969095509350505050565b6000806040838503121561335b57600080fd5b50508035926020909101359150565b60006101408284031215610c9a57600080fd5b6000610140828403121561339057600080fd5b611bad838361336a565b634e487b7160e01b600052604160045260246000fd5b601f8201601f1916810167ffffffffffffffff811182821017156133e457634e487b7160e01b600052604160045260246000fd5b6040525050565b604051610100810167ffffffffffffffff8111828210171561341d57634e487b7160e01b600052604160045260246000fd5b60405290565b6001600160a01b038116811461287d57600080fd5b60006060828403121561344a57600080fd5b6040516060810181811067ffffffffffffffff8211171561347b57634e487b7160e01b600052604160045260246000fd5b604052905080823561348c81613423565b8152602083013561349c81613423565b6020820152604092830135920191909152919050565b60008060008060c085870312156134c857600080fd5b6134d28686613438565b966060860135965060808601359560a00135945092505050565b60008060006060848603121561350157600080fd5b505081359360208301359350604090920135919050565b801515811461287d57600080fd5b803561353181613518565b919050565b600080600060a0848603121561354b57600080fd5b6135558585613438565b925060608401359150608084013561356c81613518565b809150509250925092565b60006020828403121561358957600080fd5b8135611bad81613423565b600080604083850312156135a757600080fd5b8235915060208301356135b981613423565b809150509250929050565b600080604083850312156135d757600080fd5b82356135e281613423565b915060208301356135b981613423565b6000806080838503121561360557600080fd5b61360f8484613438565b946060939093013593505050565b60008082840361018081121561363257600080fd5b61363c858561336a565b9250604061013f198201121561365157600080fd5b50610140830190509250929050565b60008060006040848603121561367557600080fd5b83359250602084013567ffffffffffffffff81111561369357600080fd5b61369f868287016132ba565b9497909650939450505050565b6020808252825182820181905260009190848201906040850190845b818110156136ed5783516001600160a01b0316835292840192918401916001016136c8565b50909695505050505050565b60008060006060848603121561370e57600080fd5b833561371981613423565b9250602084013561372981613423565b929592945050506040919091013590565b634e487b7160e01b600052603260045260246000fd5b634e487b7160e01b600052601160045260246000fd5b60006001820161377857613778613750565b5060010190565b60006020828403121561379157600080fd5b8135611bad81613518565b6000602082840312156137ae57600080fd5b5051919050565b600061014082840312156137c857600080fd5b6137d06133eb565b6137da8484613438565b81526137e860608401613526565b60208201526080830135604082015260a0830135606082015261380d60c08401613526565b608082015261381e60e08401613526565b60a082015261010083013560c08201526101209092013560e083015250919050565b60c08101853561384f81613423565b6001600160a01b03908116835260208701359061386b82613423565b1660208301526040958601359582019590955260608101939093526080830191909152151560a09091015290565b600080600080608085870312156138af57600080fd5b505082516020840151604085015160609095015191969095509092509050565b81810381811115610d0957610d09613750565b80820180821115610d0957610d09613750565b60006060828403121561390757600080fd5b611bad8383613438565b60208082526018908201527f416363657373436f6e74726f6c6c65642f496e76616c69640000000000000000604082015260600190565b60006020828403121561395a57600080fd5b8151611bad81613518565b6000600160ff1b820161397a5761397a613750565b5060000390565b80516001600160a01b03908116835260208083015190911690830152604090810151910152565b608081016139b68285613981565b8260608301529392505050565b60608101610d098284613981565b600080604083850312156139e457600080fd5b505080516020909101519092909150565b60208082526019908201527f6d67762f696e73756666696369656e7450726f766973696f6e00000000000000604082015260600190565b6101008101613a3b8289613981565b6060820196909652608081019490945260a084019290925260c083015260e090910152919050565b600060033d1115613a7c5760046000803e5060005160e01c5b90565b600060443d1015613a8d5790565b6040516003193d81016004833e81513d67ffffffffffffffff8160248401118184111715613abd57505050505090565b8285019150815181811115613ad55750505050505090565b843d8701016020828501011115613aef5750505050505090565b613afe602082860101876133b0565b509095945050505050565b60005b83811015613b24578181015183820152602001613b0c565b50506000910152565b6020815260008251806020840152613b4c816040850160208701613b09565b601f01601f19169190910160400192915050565b80516020808301519190811015610c9a5760001960209190910360031b1b16919050565b60a08101613b928286613981565b8360608301528215156080830152949350505050565b8082028115828204841417610d0957610d09613750565b6001600160601b0381811683821601908082111561138d5761138d613750565b60e08101613bed8288613981565b8560608301528460808301528360a08301528260c08301529695505050505050565b634e487b7160e01b600052601260045260246000fd5b60008251613c37818460208701613b09565b9190910192915050565b80820182811260008312801582168215821617156120d4576120d461375056fea2646970667358221220daedb367835eb92698b2eb1b6328d0a513ffdee31badaaa482b8d209116afb9564736f6c6343000814003360a060405234801561001057600080fd5b506201117033806100675760405162461bcd60e51b815260206004820152601860248201527f416363657373436f6e74726f6c6c65642f307841646d696e0000000000000000604482015260640160405180910390fd5b600080546001600160a01b0319166001600160a01b0392909216919091179055608052608051610ee86100ac6000396000818161017801526102c40152610ee86000f3fe608060405234801561001057600080fd5b50600436106100ea5760003560e01c806381bac14f1161008c578063cf5e7bd311610066578063cf5e7bd3146101db578063f850a81c146101ee578063f851a44014610201578063fe380db51461021c57600080fd5b806381bac14f146101ad578063a01dccd8146101c0578063b6b25742146101d357600080fd5b80632f37b624116100c85780632f37b6241461013d578063333dbb0d146101605780633871cb3f14610173578063704b6c021461019a57600080fd5b80631c5a9d9c146100ef57806326e8eda2146101045780632876fb4e1461012a575b600080fd5b6101026100fd366004610c5b565b61022f565b005b610117610112366004610c78565b610274565b6040519081526020015b60405180910390f35b610117610138366004610cb9565b6102c0565b61015061014b366004610c5b565b6102e8565b6040519015158152602001610121565b61011761016e366004610d00565b610306565b6101177f000000000000000000000000000000000000000000000000000000000000000081565b6101026101a8366004610c5b565b61035c565b6101026101bb366004610c5b565b610430565b6101026101ce366004610cb9565b6104a9565b6101026105d4565b6101026101e9366004610c5b565b610604565b6101026101fc366004610d53565b610637565b6000546040516001600160a01b039091168152602001610121565b61011761022a366004610cb9565b61078c565b6000546001600160a01b031633148061024c575061024c336102e8565b6102715760405162461bcd60e51b815260040161026890610dd9565b60405180910390fd5b50565b600061027f336102e8565b61029b5760405162461bcd60e51b815260040161026890610dd9565b816000036102ab575060006102b9565b6102b68484846107fa565b90505b9392505050565b60007f00000000000000000000000000000000000000000000000000000000000000006102b9565b6001600160a01b031660009081526001602052604090205460ff1690565b6000610311336102e8565b61032d5760405162461bcd60e51b815260040161026890610dd9565b818015610338575082155b1561034557506000610354565b61035185858585610822565b90505b949350505050565b6000546001600160a01b031633146103865760405162461bcd60e51b815260040161026890610dd9565b6001600160a01b0381166103dc5760405162461bcd60e51b815260206004820152601860248201527f416363657373436f6e74726f6c6c65642f307841646d696e00000000000000006044820152606401610268565b600080546001600160a01b0319166001600160a01b0383169081179091556040519081527f5a272403b402d892977df56625f4164ccaf70ca3863991c43ecfe76a6905b0a19060200160405180910390a150565b6000546001600160a01b0316331461045a5760405162461bcd60e51b815260040161026890610dd9565b6001600160a01b0381166000818152600160208190526040808320805460ff1916909217909155517fecac69b9e48a248381b74f2e1cf855cc6afc2f410751325703374c70351035bc9190a250565b6104b2336102e8565b6104fe5760405162461bcd60e51b815260206004820152601f60248201527f526f757465722f63616c6c657249734e6f74426f756e64546f526f75746572006044820152606401610268565b604051636eb1769f60e11b81523360048201523060248201526000906001600160a01b0384169063dd62ed3e90604401602060405180830381865afa15801561054b573d6000803e3d6000fd5b505050506040513d601f19601f8201168201806040525081019061056f9190610e10565b116105c65760405162461bcd60e51b815260206004820152602160248201527f526f757465722f4e6f74417070726f76656442794d616b6572436f6e747261636044820152601d60fa1b6064820152608401610268565b6105d082826108bc565b5050565b6105dd336102e8565b6105f95760405162461bcd60e51b815260040161026890610dd9565b6106023361097d565b565b6000546001600160a01b0316331461062e5760405162461bcd60e51b815260040161026890610dd9565b6102718161097d565b610640336102e8565b61065c5760405162461bcd60e51b815260040161026890610dd9565b60005b8281101561078657600084848381811061067b5761067b610e29565b90506020020160208101906106909190610c5b565b6040516370a0823160e01b81523360048201526001600160a01b0391909116906370a0823190602401602060405180830381865afa1580156106d6573d6000803e3d6000fd5b505050506040513d601f19601f820116820180604052508101906106fa9190610e10565b90508015610775578061073486868581811061071857610718610e29565b905060200201602081019061072d9190610c5b565b85846107fa565b146107755760405162461bcd60e51b81526020600482015260116024820152701c9bdd5d195c8bdc1d5cda11985a5b1959607a1b6044820152606401610268565b5061077f81610e3f565b905061065f565b50505050565b6040516370a0823160e01b81526001600160a01b038281166004830152600091908416906370a0823190602401602060405180830381865afa1580156107d6573d6000803e3d6000fd5b505050506040513d601f19601f820116820180604052508101906102b99190610e10565b600080610809853386866109c6565b905080610817576000610819565b825b95945050505050565b600081610898576040516370a0823160e01b81526001600160a01b0385811660048301528616906370a0823190602401602060405180830381865afa15801561086f573d6000803e3d6000fd5b505050506040513d601f19601f820116820180604052508101906108939190610e10565b61089a565b825b92506108a8858533866109c6565b156108b4575081610354565b506000610354565b604051636eb1769f60e11b81526001600160a01b0382811660048301523060248301526000919084169063dd62ed3e90604401602060405180830381865afa15801561090c573d6000803e3d6000fd5b505050506040513d601f19601f820116820180604052508101906109309190610e10565b116105d05760405162461bcd60e51b815260206004820152601f60248201527f53696d706c65526f757465722f4e6f74417070726f76656442794f776e6572006044820152606401610268565b6001600160a01b038116600081815260016020526040808220805460ff19169055517f30a4a29afb6d28e62264c8b7cd43fe3a5edce91f4b9c8591b23a99b3838686b59190a250565b6000816000036109d857506001610354565b826001600160a01b0316846001600160a01b031603610a67576040516370a0823160e01b81526001600160a01b0385811660048301528391908716906370a0823190602401602060405180830381865afa158015610a3a573d6000803e3d6000fd5b505050506040513d601f19601f82011682018060405250810190610a5e9190610e10565b10159050610354565b306001600160a01b03851603610a8957610a82858484610a95565b9050610354565b61035185858585610b69565b604080516001600160a01b038481166024830152604480830185905283518084039091018152606490920183526020820180516001600160e01b031663a9059cbb60e01b17905291516000928392839291881691610af39190610e66565b6000604051808303816000865af19150503d8060008114610b30576040519150601f19603f3d011682016040523d82523d6000602084013e610b35565b606091505b5091509150818015610b5f575080511580610b5f575080806020019051810190610b5f9190610e95565b9695505050505050565b604080516001600160a01b0385811660248301528481166044830152606480830185905283518084039091018152608490920183526020820180516001600160e01b03166323b872dd60e01b17905291516000928392839291891691610bcf9190610e66565b6000604051808303816000865af19150503d8060008114610c0c576040519150601f19603f3d011682016040523d82523d6000602084013e610c11565b606091505b5091509150818015610c3b575080511580610c3b575080806020019051810190610c3b9190610e95565b979650505050505050565b6001600160a01b038116811461027157600080fd5b600060208284031215610c6d57600080fd5b81356102b981610c46565b600080600060608486031215610c8d57600080fd5b8335610c9881610c46565b92506020840135610ca881610c46565b929592945050506040919091013590565b60008060408385031215610ccc57600080fd5b8235610cd781610c46565b91506020830135610ce781610c46565b809150509250929050565b801515811461027157600080fd5b60008060008060808587031215610d1657600080fd5b8435610d2181610c46565b93506020850135610d3181610c46565b9250604085013591506060850135610d4881610cf2565b939692955090935050565b600080600060408486031215610d6857600080fd5b833567ffffffffffffffff80821115610d8057600080fd5b818601915086601f830112610d9457600080fd5b813581811115610da357600080fd5b8760208260051b8501011115610db857600080fd5b60209283019550935050840135610dce81610c46565b809150509250925092565b60208082526018908201527f416363657373436f6e74726f6c6c65642f496e76616c69640000000000000000604082015260600190565b600060208284031215610e2257600080fd5b5051919050565b634e487b7160e01b600052603260045260246000fd5b600060018201610e5f57634e487b7160e01b600052601160045260246000fd5b5060010190565b6000825160005b81811015610e875760208186018101518583015201610e6d565b506000920191825250919050565b600060208284031215610ea757600080fd5b81516102b981610cf256fea2646970667358221220488559b74d71829856bcef9dfe67dd11cd479cfea710cbfa15ab298e063ada0f64736f6c63430008140033",
    "linkReferences": {}
  },
  "methodIdentifiers": {
    "CONSTANT_GASREQ()": "9eb7d4fe",
    "MGV()": "99fa5e2d",
    "NO_ROUTER()": "5570db1d",
    "activate(address[])": "5293840d",
    "admin()": "f851a440",
    "approve(address,address,uint256)": "e1f21c67",
    "checkList(address[])": "03eb17e2",
    "expiring(bytes32,uint256)": "0479ab93",
    "makerExecute(((address,address,uint256),uint256,uint256,uint256,uint256,uint256,uint256,uint256))": "2380fafd",
    "makerPosthook(((address,address,uint256),uint256,uint256,uint256,uint256,uint256,uint256,uint256),(bytes32,bytes32))": "c7e1bb44",
    "offerGasreq()": "cfcd2679",
    "offerGasreq(address,address)": "820db1f7",
    "offerOwners(bytes32,uint256[])": "ceba7360",
    "ownerOf(bytes32,uint256)": "3a9dfae2",
    "provisionOf((address,address,uint256),uint256)": "a24f2b2d",
    "retractOffer((address,address,uint256),uint256,bool)": "6e7a5cb8",
    "router()": "f887ea40",
    "setAdmin(address)": "704b6c02",
    "setExpiry(bytes32,uint256,uint256)": "535f55ca",
    "setRouter(address)": "c0d78655",
    "take(((address,address,uint256),bool,int256,uint256,bool,bool,uint256,uint256))": "126490ee",
    "updateOffer((address,address,uint256),int256,uint256,uint256)": "400ee571",
    "withdrawFromMangrove(uint256,address)": "7144df24"
  },
  "id": 100
}