{
  "abi": [
    {
      "inputs": [],
      "name": "refuseNative",
      "outputs": [],
      "stateMutability": "nonpayable",
      "type": "function"
    },
    {
      "stateMutability": "payable",
      "type": "receive"
    }
  ],
  "bytecode": {
    "object": "0x60806040526000805460ff1916600117905534801561001d57600080fd5b5060d08061002c6000396000f3fe60806040526004361060205760003560e01c80633609055b14608057600080fd5b36607b5760005460ff1660795760405162461bcd60e51b815260206004820152601860248201527f5465737453656e6465722f726566757365734e61746976650000000000000000604482015260640160405180910390fd5b005b600080fd5b348015608b57600080fd5b5060796000805460ff1916905556fea2646970667358221220c450cfe657890e3b5dcdb70df26d1b5eb063d8fb3c4ff41d4a32268e21d772cd64736f6c63430008140033",
    "linkReferences": {}
  },
  "methodIdentifiers": {
    "refuseNative()": "3609055b"
  },
  "id": 66
}