{
  "abi": [
    {
      "inputs": [
        {
          "internalType": "contract IMangrove",
          "name": "_mgv",
          "type": "address"
        },
        {
          "components": [
            {
              "internalType": "address",
              "name": "outbound_tkn",
              "type": "address"
            },
            {
              "internalType": "address",
              "name": "inbound_tkn",
              "type": "address"
            },
            {
              "internalType": "uint256",
              "name": "tickSpacing",
              "type": "uint256"
            }
          ],
          "internalType": "struct OLKey",
          "name": "_ol",
          "type": "tuple"
        }
      ],
      "stateMutability": "nonpayable",
      "type": "constructor"
    },
    {
      "inputs": [
        {
          "internalType": "uint256",
          "name": "k",
          "type": "uint256"
        }
      ],
      "name": "deploy",
      "outputs": [],
      "stateMutability": "nonpayable",
      "type": "function"
    },
    {
      "inputs": [],
      "name": "dispatch",
      "outputs": [],
      "stateMutability": "nonpayable",
      "type": "function"
    },
    {
      "inputs": [
        {
          "internalType": "uint256",
          "name": "i",
          "type": "uint256"
        }
      ],
      "name": "getMaker",
      "outputs": [
        {
          "internalType": "contract TestMaker",
          "name": "",
          "type": "address"
        }
      ],
      "stateMutability": "view",
      "type": "function"
    },
    {
      "inputs": [],
      "name": "length",
      "outputs": [
        {
          "internalType": "uint256",
          "name": "",
          "type": "uint256"
        }
      ],
      "stateMutability": "view",
      "type": "function"
    }
  ],
  "bytecode": {
    "object": "0x608060405234801561001057600080fd5b50604051614e94380380614e9483398101604081905261002f916100a1565b600180546001600160a01b0393841661010002610100600160a81b03199091161790558051600280549184166001600160a01b0319928316179055602082015160038054919094169116179091556040015160045561013e565b6001600160a01b038116811461009e57600080fd5b50565b60008082840360808112156100b557600080fd5b83516100c081610089565b92506060601f19820112156100d457600080fd5b50604051606081016001600160401b038111828210171561010557634e487b7160e01b600052604160045260246000fd5b604052602084015161011681610089565b8152604084015161012681610089565b60208201526060939093015160408401525092909150565b614d478061014d6000396000f3fe608060405234801561001057600080fd5b506004361061004c5760003560e01c80631f7b6d32146100515780635686153214610067578063a5e3875114610092578063e9c4a3ac146100a7575b600080fd5b6000546040519081526020015b60405180910390f35b61007a61007536600461047d565b6100af565b6040516001600160a01b03909116815260200161005e565b6100a56100a036600461047d565b6100de565b005b6100a5610323565b60008082815481106100c3576100c3610496565b6000918252602090912001546001600160a01b031692915050565b60015460ff16610314578067ffffffffffffffff811115610101576101016104ac565b60405190808252806020026020018201604052801561012a578160200160208202803683370190505b50805161013f916000916020909101906103f6565b5060005b818110156103125760018054906101000a90046001600160a01b0316600260405161016d9061045b565b6001600160a01b03928316815281548316602082015260018201549092166040830152600201546060820152608001604051809103906000f0801580156101b8573d6000803e3d6000fd5b50600082815481106101cc576101cc610496565b9060005260206000200160006101000a8154816001600160a01b0302191690836001600160a01b031602179055506000818154811061020d5761020d610496565b60009182526020909120015460025460405163a3cfe14d60e01b81526001600160a01b039182166004820152678ac7230489e80000602482015291169063a3cfe14d90604401600060405180830381600087803b15801561026d57600080fd5b505af1158015610281573d6000803e3d6000fd5b505050506000818154811061029857610298610496565b600091825260209091200154604051635239cafb60e11b8152821560048201526001600160a01b039091169063a47395f690602401600060405180830381600087803b1580156102e757600080fd5b505af11580156102fb573d6000803e3d6000fd5b50505050808061030a906104c2565b915050610143565b505b506001805460ff191681179055565b600080549061033282476104e9565b90506000811161037e5760405162461bcd60e51b8152602060048201526013602482015272181032ba3432b9103a37903a3930b739b332b960691b604482015260640160405180910390fd5b60005b828110156103f157600080828154811061039d5761039d610496565b60009182526020822001546040516001600160a01b039091169250829085156108fc0290869084818181858888f193505050509050806103dc57600080fd5b505080806103e9906104c2565b915050610381565b505050565b82805482825590600052602060002090810192821561044b579160200282015b8281111561044b57825182546001600160a01b0319166001600160a01b03909116178255602090920191600190910190610416565b50610457929150610468565b5090565b6148068061050c83390190565b5b808211156104575760008155600101610469565b60006020828403121561048f57600080fd5b5035919050565b634e487b7160e01b600052603260045260246000fd5b634e487b7160e01b600052604160045260246000fd5b6000600182016104e257634e487b7160e01b600052601160045260246000fd5b5060010190565b60008261050657634e487b7160e01b600052601260045260246000fd5b50049056fe6080604052600f805461ff0019166101001790556013805460ff191660011790553480156200002d57600080fd5b5060405162004806380380620048068339810160408190526200005091620000ba565b600080546001600160a01b039384166001600160a01b031991821617909155815160018054918516918316919091179055602082015160028054919094169116179091556040015160035562000160565b6001600160a01b0381168114620000b757600080fd5b50565b6000808284036080811215620000cf57600080fd5b8351620000dc81620000a1565b92506060601f1982011215620000f157600080fd5b50604051606081016001600160401b03811182821017156200012357634e487b7160e01b600052604160045260246000fd5b60405260208401516200013681620000a1565b815260408401516200014881620000a1565b60208201526060939093015160408401525092909150565b61469680620001706000396000f3fe6080604052600436106104095760003560e01c80638c198da211610213578063c4c6c87d11610123578063da4c4376116100ab578063f95902aa1161007a578063f95902aa14610cd5578063fa00d99914610cf5578063fa7626d414610d15578063fc8349f214610d34578063ffae399e14610d5457600080fd5b8063da4c437614610c60578063e20c9f7114610c80578063e67ecda114610c95578063f5537ede14610cb557600080fd5b8063cafffca8116100f2578063cafffca814610bcd578063d239ded814610bed578063d3845fea14610c0d578063d4b7b46714610c20578063d520867914610c4057600080fd5b8063c4c6c87d14610b4d578063c50b482e14610b6d578063c6a77f9b14610b8d578063c7e1bb4414610bad57600080fd5b8063a47395f6116101a6578063b5508aa911610175578063b5508aa914610ac3578063b5e51e5e14610ad8578063b774d27914610af8578063ba414fa614610b18578063c4780e5414610b2d57600080fd5b8063a47395f614610a35578063a6e70ae514610a63578063aed012ef14610a83578063b1819c6714610aa357600080fd5b8063a1b8caea116101e2578063a1b8caea146109b5578063a2595f70146109d5578063a3cfe14d146109f5578063a3d8634214610a1557600080fd5b80638c198da2146109005780638eb1edd214610920578063916a17c614610955578063983531441461096a57600080fd5b8063585385001161031957806378f2c631116102a1578063834c617a11610270578063834c617a146108695780638351efb01461088957806385226c81146108a957806389fbfa17146108cb5780638b0af9bb146108eb57600080fd5b806378f2c631146107d057806379158d6d146107f05780637a943a37146108105780637efcadc51461084957600080fd5b8063638c36d6116102e8578063638c36d6146106eb578063667542221461073657806366d9a9a0146107565780636e3b5a2e146107785780637604f954146107b057600080fd5b8063585385001461065d5780635a4924e81461067d5780635c8a4490146106ab578063623bfb45146106cb57600080fd5b806322375e781161039c5780633e4043e71161036b5780633e4043e7146105bc5780633e5e3c23146105dc5780633f7286f4146105f157806346971b1514610606578063539785341461062657600080fd5b806322375e781461053c5780632380fafd1461055c5780632754c0c81461057c5780633b0830bc1461059c57600080fd5b80631677ad14116103d85780631677ad14146104aa5780631eafcbdb146104da5780631ed7831c146104fa578063210ce5131461051c57600080fd5b80630339884214610415578063041ae8801461044857806304af4e8b1461046a5780630b588d131461048a57600080fd5b3661041057005b600080fd5b34801561042157600080fd5b506104356104303660046136c9565b610d89565b6040519081526020015b60405180910390f35b34801561045457600080fd5b50610468610463366004613734565b610da5565b005b34801561047657600080fd5b50610468610485366004613734565b610dd3565b34801561049657600080fd5b506104686104a53660046137b8565b610dfb565b3480156104b657600080fd5b506104ca6104c5366004613823565b610ead565b604051901515815260200161043f565b3480156104e657600080fd5b506104356104f536600461383c565b610eed565b34801561050657600080fd5b5061050f610f06565b60405161043f9190613868565b34801561052857600080fd5b5061043561053736600461383c565b610f68565b34801561054857600080fd5b506104686105573660046138b5565b610fa4565b34801561056857600080fd5b50610435610577366004613958565b61106b565b34801561058857600080fd5b50610435610597366004613975565b611557565b3480156105a857600080fd5b506104356105b73660046139a7565b61159f565b3480156105c857600080fd5b506104686105d73660046139f3565b6115d1565b3480156105e857600080fd5b5061050f6115e7565b3480156105fd57600080fd5b5061050f611647565b34801561061257600080fd5b50610435610621366004613a3d565b6116a7565b34801561063257600080fd5b50610468610641366004613a96565b60048054911515620100000262ff000019909216919091179055565b34801561066957600080fd5b50610468610678366004613975565b6116e4565b34801561068957600080fd5b50610468610698366004613a96565b600f805460ff1916911515919091179055565b3480156106b757600080fd5b506104356106c63660046139f3565b6116f2565b3480156106d757600080fd5b506104686106e6366004613ab3565b611731565b3480156106f757600080fd5b50610468610706366004613aee565b600b805460e09290921c600160a01b026001600160c01b03199092166001600160a01b0390931692909217179055565b34801561074257600080fd5b50610468610751366004613ab3565b61178c565b34801561076257600080fd5b5061076b6117af565b60405161043f9190613b34565b34801561078457600080fd5b50600054610798906001600160a01b031681565b6040516001600160a01b03909116815260200161043f565b3480156107bc57600080fd5b506104ca6107cb366004613be7565b61189e565b3480156107dc57600080fd5b506104ca6107eb366004613c09565b611974565b3480156107fc57600080fd5b506104ca61080b366004613823565b6119ae565b34801561081c57600080fd5b5061046861082b366004613a96565b6004805491151563010000000263ff00000019909216919091179055565b34801561085557600080fd5b50610435610864366004613c34565b6119e8565b34801561087557600080fd5b50610435610884366004613ab3565b6119f9565b34801561089557600080fd5b506104686108a4366004613975565b611a37565b3480156108b557600080fd5b506108be611a71565b60405161043f9190613cc7565b3480156108d757600080fd5b506104356108e636600461383c565b611b41565b3480156108f757600080fd5b50610435611bb3565b34801561090c57600080fd5b5061043561091b366004613d29565b611c25565b34801561092c57600080fd5b5061094061093b366004613d63565b611c35565b6040805192835260208301919091520161043f565b34801561096157600080fd5b5061076b611cbe565b34801561097657600080fd5b50610468610985366004613aee565b600a805460e09290921c600160a01b026001600160c01b03199092166001600160a01b0390931692909217179055565b3480156109c157600080fd5b506104686109d0366004613d97565b611da4565b3480156109e157600080fd5b506104356109f0366004613e17565b611e69565b348015610a0157600080fd5b50610468610a10366004613e72565b611e86565b348015610a2157600080fd5b50610435610a30366004613975565b611ea3565b348015610a4157600080fd5b50610468610a50366004613a96565b6004805460ff1916911515919091179055565b348015610a6f57600080fd5b50610435610a7e3660046139a7565b611edd565b348015610a8f57600080fd5b50610435610a9e366004613d97565b611eff565b348015610aaf57600080fd5b506104ca610abe366004613d63565b611fdb565b348015610acf57600080fd5b506108be612046565b348015610ae457600080fd5b506104ca610af3366004613d29565b612116565b348015610b0457600080fd5b50610435610b13366004613975565b61223c565b348015610b2457600080fd5b506104ca61227a565b348015610b3957600080fd5b506104ca610b4836600461383c565b6123a9565b348015610b5957600080fd5b50610435610b68366004613823565b6123e5565b348015610b7957600080fd5b506104ca610b88366004613c09565b61241f565b348015610b9957600080fd5b50610435610ba8366004613c09565b612430565b348015610bb957600080fd5b50610468610bc8366004613e9e565b6124a8565b348015610bd957600080fd5b50610435610be8366004613823565b612504565b348015610bf957600080fd5b50610435610c08366004613d97565b61257d565b610468610c1b366004613823565b61263a565b348015610c2c57600080fd5b50610468610c3b366004613ee1565b612694565b348015610c4c57600080fd5b50610468610c5b366004613c34565b6126fd565b348015610c6c57600080fd5b50610940610c7b366004613be7565b612722565b348015610c8c57600080fd5b5061050f61276a565b348015610ca157600080fd5b50610468610cb0366004613823565b600555565b348015610cc157600080fd5b50610468610cd0366004613f3a565b6127ca565b348015610ce157600080fd5b50610435610cf0366004613c34565b6127d5565b348015610d0157600080fd5b50610435610d10366004613d29565b6127e6565b348015610d2157600080fd5b50600f546104ca90610100900460ff1681565b348015610d4057600080fd5b506104ca610d4f366004613823565b61280a565b348015610d6057600080fd5b50610468610d6f366004613a96565b600480549115156101000261ff0019909216919091179055565b6000610d9b8686868660008088611eff565b9695505050505050565b600680546001600160a01b0319166001600160a01b0385161790556007610dcd828483613ff5565b50505050565b600880546001600160a01b0319166001600160a01b0385161790556009610dcd828483613ff5565b604080516060810182526001546001600160a01b03908116825260025416602082015260035491810191909152610e3790878787878787611da4565b6040805160608082018352600180546001600160a01b0390811684526002541660208085019190915260035484860152919092206000908152600c82528381208782528252929092208351815460ff191690151517815591830151839291820190610ea290826140b4565b505050505050505050565b604080516060810182526001546001600160a01b03908116825260025416602082015260035491810191909152600090610ee79083611974565b92915050565b6000610efc8484846000611557565b90505b9392505050565b6060601c805480602002602001604051908101604052809291908181526020018280548015610f5e57602002820191906000526020600020905b81546001600160a01b03168152600190910190602001808311610f40575b5050505050905090565b604080516060810182526001546001600160a01b03908116825260025416602082015260035491810191909152600090610efc908585856127e6565b600054604051631509611960e31b81526001600160a01b039091169063a84b08c8908490610fe0908c908c908c908c908c908c9060040161419a565b6000604051808303818588803b158015610ff957600080fd5b505af115801561100d573d6000803e3d6000fd5b505050505080600c60006110228b6060902090565b8152602080820192909252604090810160009081208782528352208251815460ff191690151517815590820151600182019061105e90826140b4565b5050505050505050505050565b60006001600d8261108b611084368790038701876141d1565b6060902090565b815260208082019290925260409081016000908120606087013582529092529020805460ff1916911515919091179055600b546001600160a01b0316158015906110d3575060015b156111ed57600b546040516000916001600160a01b03811691600160a01b90910460e01b90611106908690602401614225565b60408051601f198184030181529181526020820180516001600160e01b03166001600160e01b03199094169390931790925290516111449190614284565b6000604051808303816000865af19150503d8060008114611181576040519150601f19603f3d011682016040523d82523d6000602084013e611186565b606091505b50509050806111eb5760405162461bcd60e51b815260206004820152602660248201527f6d616b657245786563757465206578656375746543616c6c6261636b206d75736044820152657420776f726b60d01b60648201526084015b60405180910390fd5b505b600454610100900460ff161561123e5760405162461bcd60e51b81526020600482015260166024820152751d195cdd13585ad95c8bdcda1bdd5b1914995d995c9d60521b60448201526064016111e2565b60045462010000900460ff16801561125a575060008260c00135115b156112b35760405162461bcd60e51b8152602060048201526024808201527f746573744d616b65722f73686f756c645265766572744f6e4e6f6e5a65726f476044820152636976657360e01b60648201526084016111e2565b6000600c816112ca611084368790038701876141d1565b8152602080820192909252604090810160009081206060870135825283528190208151808301909252805460ff1615158252600181018054929391929184019161131390613f7b565b80601f016020809104026020016040519081016040528092919081815260200182805461133f90613f7b565b801561138c5780601f106113615761010080835404028352916020019161138c565b820191906000526020600020905b81548152906001019060200180831161136f57829003601f168201915b50505050508152505090508060000151156113bf57806020015160405162461bcd60e51b81526004016111e291906142a0565b60045460ff16156113ef576113ed6113da60208501856142b3565b600080546001600160a01b03169061287a565b505b6006546001600160a01b031615801590611417575060006007805461141390613f7b565b9050115b156114dc576006546040516000916001600160a01b03169061143b906007906142d0565b6000604051808303816000865af19150503d8060008114611478576040519150601f19603f3d011682016040523d82523d6000602084013e61147d565b606091505b50509050806114da5760405162461bcd60e51b8152602060048201526024808201527f6d616b65724578656375746520747261646543616c6c6261636b206d75737420604482015263776f726b60e01b60648201526084016111e2565b505b7f01e0a6abf538c4021d8166ef0ecea1fc4a0923ae1b3f01f7d50ca8e836f316943361150b60208601866142b3565b61151b60408701602088016142b3565b60408051611541949392918901359060608a01359060a08b01359060c08c013590614346565b60405180910390a18060200151610eff90614387565b604080516060810182526001546001600160a01b0390811682526002541660208201526003549181019190915260009061159490868686866127d5565b90505b949350505050565b60408051808201909152600080825260606020830152906115c58888888888888761257d565b98975050505050505050565b6115e085858585600086610dfb565b5050505050565b6060601e805480602002602001604051908101604052809291908181526020018280548015610f5e576020028201919060005260206000209081546001600160a01b03168152600190910190602001808311610f40575050505050905090565b6060601d805480602002602001604051908101604052809291908181526020018280548015610f5e576020028201919060005260206000209081546001600160a01b03168152600190910190602001808311610f40575050505050905090565b604080516060810182526001546001600160a01b039081168252600254166020820152600354918101919091526000906115949086868686610d89565b610dcd848484600085611731565b604080516060810182526001546001600160a01b03908116825260025416602082015260035491810191909152600090610d9b90878787858888611eff565b604080518082019091526000815260606020820152604080516060810182526001546001600160a01b03908116825260025416602082015260035491810191909152611784908787878787600088610fa4565b505050505050565b604080518082019091526000815260606020820152611784868686868686610dfb565b60606021805480602002602001604051908101604052809291908181526020016000905b828210156118955760008481526020908190206040805180820182526002860290920180546001600160a01b0316835260018101805483518187028101870190945280845293949193858301939283018282801561187d57602002820191906000526020600020906000905b82829054906101000a900460e01b6001600160e01b0319168152602001906004019060208260030104928301926001038202915080841161183f5790505b505050505081525050815260200190600101906117d3565b50505050905090565b60008054604051630129e86d60e21b81526001546001600160a01b039081166004830152600254811660248301526003546044830152606482018690528392611938929116906304a7a1b4906084015b602060405180830381865afa15801561190b573d6000803e3d6000fd5b505050506040513d601f19601f8201168201806040525081019061192f91906143ab565b60401b60eb1d90565b604080516060810182526001546001600160a01b0390811682526002541660208201526003549181019190915290915061159790858386612116565b6000600e6000611985856060902090565b81526020808201929092526040908101600090812085825290925290205460ff16905092915050565b604080516060810182526001546001600160a01b03908116825260025416602082015260035491810191909152600090610ee7908361241f565b6000610d9b86868686600087611edd565b604080516060810182526001546001600160a01b03908116825260025416602082015260035491810191909152600090610d9b908787878787611edd565b604080516060810182526001546001600160a01b03908116825260025416602082015260035491810191909152610dcd90858585856126fd565b60606020805480602002602001604051908101604052809291908181526020016000905b82821015611895578382906000526020600020018054611ab490613f7b565b80601f0160208091040260200160405190810160405280929190818152602001828054611ae090613f7b565b8015611b2d5780601f10611b0257610100808354040283529160200191611b2d565b820191906000526020600020905b815481529060010190602001808311611b1057829003601f168201915b505050505081526020019060010190611a95565b60408051606081018252600180546001600160a01b03908116835260025416602080840191909152600354838501528351808501855291825283518085019094526008845267736f6d654461746160c01b84820152810192909252600091610efc91908690869086908690819061257d565b600080546040516370a0823160e01b81523060048201526001600160a01b03909116906370a0823190602401602060405180830381865afa158015611bfc573d6000803e3d6000fd5b505050506040513d601f19601f82011682018060405250810190611c2091906143ab565b905090565b60006115948585858560006127d5565b60008054604051630510398160e21b815282916001600160a01b031690631440e60490611c6d908890889088906001906004016143c4565b6080604051808303816000875af1158015611c8c573d6000803e3d6000fd5b505050506040513d601f19601f82011682018060405250810190611cb091906143ef565b509197909650945050505050565b60606022805480602002602001604051908101604052809291908181526020016000905b828210156118955760008481526020908190206040805180820182526002860290920180546001600160a01b03168352600181018054835181870281018701909452808452939491938583019392830182828015611d8c57602002820191906000526020600020906000905b82829054906101000a900460e01b6001600160e01b03191681526020019060040190602082600301049283019260010382029150808411611d4e5790505b50505050508152505081526020019060010190611ce2565b6000805460405163129d19a760e01b81526001600160a01b039091169163129d19a7918591611ddf918c918c918c918c918c9060040161419a565b6000604051808303818588803b158015611df857600080fd5b505af1158015611e0c573d6000803e3d6000fd5b505050505080600c6000611e218a6060902090565b8152602080820192909252604090810160009081208782528352208251815460ff1916901515178155908201516001820190611e5d90826140b4565b50505050505050505050565b6000611e7b8787878760008888611eff565b979650505050505050565b600054611e9e9083906001600160a01b03168361287a565b505050565b604080516060810182526001546001600160a01b039081168252600254166020820152600354918101919091526000906115949086868685875b60408051808201909152600080825260606020830152906115c5888888888888875b60008054604051632c9a204f60e21b815282916001600160a01b03169063b268813c908690611f3a908d908d908d908d908d90600401614425565b60206040518083038185885af1158015611f58573d6000803e3d6000fd5b50505050506040513d601f19601f82011682018060405250810190611f7d91906143ab565b905082600c6000611f8f8c6060902090565b8152602080820192909252604090810160009081208582528352208251815460ff1916901515178155908201516001820190611fcb90826140b4565b50919a9950505050505050505050565b60008054604051630129e86d60e21b81526001546001600160a01b03908116600483015260025481166024830152600354604483015260648201869052839261202f929116906304a7a1b4906084016118ee565b905061203d85858386612116565b95945050505050565b6060601f805480602002602001604051908101604052809291908181526020016000905b8282101561189557838290600052602060002001805461208990613f7b565b80601f01602080910402602001604051908101604052809291908181526020018280546120b590613f7b565b80156121025780601f106120d757610100808354040283529160200191612102565b820191906000526020600020905b8154815290600101906020018083116120e557829003601f168201915b50505050508152602001906001019061206a565b604080516001808252818301909252600091829190816020015b61215b6040518060800160405280600081526020016000815260200160008152602001600081525090565b815260200190600190039081612130579050509050604051806080016040528086815260200185815260200165ffffffffffff8016815260200184815250816000815181106121ac576121ac614455565b60209081029190910101526000805460405163194086eb60e11b81526001600160a01b03909116906332810dd6906121ec908a908690309060040161446b565b60408051808303816000875af115801561220a573d6000803e3d6000fd5b505050506040513d601f19601f8201168201806040525081019061222e91906144ee565b501515979650505050505050565b604080516060810182526001546001600160a01b03908116825260025416602082015260035491810191909152600090611594908686868686611edd565b600f5460009062010000900460ff161561229e5750600f5462010000900460ff1690565b6000737109709ecfa91a80626ff3989d68f67f5b1dd12d3b156123a45760408051737109709ecfa91a80626ff3989d68f67f5b1dd12d602082018190526519985a5b195960d21b8284015282518083038401815260608301909352600092909161232c917f667f9d70ca411d70ead50d8d5c22070dafc36ad75f3dcf5e7237b22ade9aecc491608001614512565b60408051601f198184030181529082905261234691614284565b6000604051808303816000865af19150503d8060008114612383576040519150601f19603f3d011682016040523d82523d6000602084013e612388565b606091505b50915050808060200190518101906123a09190614543565b9150505b919050565b604080516060810182526001546001600160a01b03908116825260025416602082015260035491810191909152600090610efc90858585612116565b604080516060810182526001546001600160a01b03908116825260025416602082015260035491810191909152600090610ee79083612430565b6000600d6000611985856060902090565b60008054604051630dcf4b9760e31b81526001600160a01b0390911690636e7a5cb89061246590869086908690600401614560565b6020604051808303816000875af1158015612484573d6000803e3d6000fd5b505050506040513d601f19601f82011682018060405250810190610eff91906143ab565b600554156124f6576124f681602001356005546040518060400160405280601881526020017f496e636f727265637420737461747573206d6573736167650000000000000000815250612887565b61250082826128cf565b5050565b60008054604051630dcf4b9760e31b81526001600160a01b0390911690636e7a5cb89061253a9060019086908290600401614584565b6020604051808303816000875af1158015612559573d6000803e3d6000fd5b505050506040513d601f19601f82011682018060405250810190610ee791906143ab565b60008054604051637cac815560e11b815282916001600160a01b03169063f95902aa9086906125b8908d908d908d908d908d90600401614425565b60206040518083038185885af11580156125d6573d6000803e3d6000fd5b50505050506040513d601f19601f820116820180604052508101906125fb91906143ab565b60408051606080820183526001546001600160a01b03908116835260025416602083015260035492820192909252209091508390600c90600090611f8f565b600054604051630460488160e31b81523060048201526001600160a01b039091169063230244089083906024016000604051808303818588803b15801561268057600080fd5b505af1158015611784573d6000803e3d6000fd5b7f01e0a6abf538c4021d8166ef0ecea1fc4a0923ae1b3f01f7d50ca8e836f31694856126c360208701876142b3565b6126d360408801602089016142b3565b87604001358787876040516126ee9796959493929190614346565b60405180910390a15050505050565b6040805180820190915260008152606060208201526117848686868686600087611da4565b604080516060810182526001546001600160a01b03908116825260025416602082015260035491810191909152600090819061275f908585611c35565b915091509250929050565b6060601b805480602002602001604051908101604052809291908181526020018280548015610f5e576020028201919060005260206000209081546001600160a01b03168152600190910190602001808311610f40575050505050905090565b610dcd838383612c10565b6000610d9b8686868686600061159f565b6040805180820190915260008082526060602083015290610d9b8686868685610d89565b60008054604051632e1a7d4d60e01b8152600481018490526001600160a01b0390911690632e1a7d4d906024016020604051808303816000875af1158015612856573d6000803e3d6000fd5b505050506040513d601f19601f82011682018060405250810190610ee79190614543565b6000610efc848484612cb3565b818314611e9e577f280f4446b28a1372417dda658d30b95b2992b12ac9c7f378535f29a97acf3583816040516128bd91906145b1565b60405180910390a1611e9e8383612d8f565b6001600e60006128e7611084368790038701876141d1565b815260208082019290925260409081016000908120606087013582529092529020805460ff1916911515919091179055600f5460ff16156129595760405162461bcd60e51b815260206004820152600c60248201526b1c1bdcdd1a1bdbdad1985a5b60a21b60448201526064016111e2565b600a546001600160a01b031615801590612971575060015b15612a8857600a546040516000916001600160a01b03811691600160a01b90910460e01b906129a4908690602401614225565b60408051601f198184030181529181526020820180516001600160e01b03166001600160e01b03199094169390931790925290516129e29190614284565b6000604051808303816000865af19150503d8060008114612a1f576040519150601f19603f3d011682016040523d82523d6000602084013e612a24565b606091505b5050905080612a865760405162461bcd60e51b815260206004820152602860248201527f6d616b6572506f7374686f6f6b20706f7374686f6f6b43616c6c6261636b206d60448201526775737420776f726b60c01b60648201526084016111e2565b505b6008546001600160a01b031615801590612ab05750600060098054612aac90613f7b565b9050115b15612b7f576008546040516000916001600160a01b031690612ad4906009906142d0565b6000604051808303816000865af19150503d8060008114612b11576040519150601f19603f3d011682016040523d82523d6000602084013e612b16565b606091505b5050905080612b7d5760405162461bcd60e51b815260206004820152602d60248201527f6d616b6572506f7374686f6f6b20706f7374686f6f6b4e6f41726743616c6c6260448201526c61636b206d75737420776f726b60981b60648201526084016111e2565b505b6004546301000000900460ff1615612500576000546001600160a01b031663129d19a783612bb06080820135612eb9565b6080860135602c1c60016001607f1b031660e087013560481c62ffffff16600088606001356040518763ffffffff1660e01b8152600401612bf6969594939291906145e0565b600060405180830381600087803b15801561268057600080fd5b600081600003612c2257506001610eff565b306001600160a01b03841603612ca8576040516370a0823160e01b81526001600160a01b0384811660048301528391908616906370a0823190602401602060405180830381865afa158015612c7b573d6000803e3d6000fd5b505050506040513d601f19601f82011682018060405250810190612c9f91906143ab565b10159050610eff565b610efc848484612edf565b6040516001600160a01b03838116602483015260448201839052600091829182919087169063095ea7b360e01b906064015b60408051601f198184030181529181526020820180516001600160e01b03166001600160e01b0319909416939093179092529051612d239190614284565b6000604051808303816000865af19150503d8060008114612d60576040519150601f19603f3d011682016040523d82523d6000602084013e612d65565b606091505b5091509150818015610d9b575080511580610d9b575080806020019051810190610d9b9190614543565b808214612500577f41304facd9323d75b11bcdd609cb38effffdb05710f7caf0e9b16c6d9d709f50604051612e039060208082526025908201527f4572726f723a2061203d3d2062206e6f7420736174697366696564205b627974604082015264657333325d60d81b606082015260800190565b60405180910390a160408051818152600a81830152690808080808081319599d60b21b60608201526020810184905290517fafb795c9c61e4fe7468c386f925d7a5429ecad9c0495ddb8d38d690614d32f999181900360800190a160408051818152600a81830152690808080808149a59da1d60b21b60608201526020810183905290517fafb795c9c61e4fe7468c386f925d7a5429ecad9c0495ddb8d38d690614d32f999181900360800190a1612500612f15565b6000610ee7602c83901c60016001607f1b0316612ed98460401b60eb1d90565b90613023565b6040516001600160a01b03838116602483015260448201839052600091829182919087169063a9059cbb60e01b90606401612ce5565b737109709ecfa91a80626ff3989d68f67f5b1dd12d3b156130105760408051737109709ecfa91a80626ff3989d68f67f5b1dd12d602082018190526519985a5b195960d21b9282019290925260016060820152600091907f70ca10bbd0dbfd9020a9f4b13402c16cb120705e0d1c0aeab10fa353ae586fc49060800160408051601f1981840301815290829052612faf9291602001614512565b60408051601f1981840301815290829052612fc991614284565b6000604051808303816000865af19150503d8060008114613006576040519150601f19603f3d011682016040523d82523d6000602084013e61300b565b606091505b505050505b600f805462ff0000191662010000179055565b60008060006130318561304f565b9150915061203d848302826001811b600019018216151591901c0190565b60008061305b836130c1565b909250905060eb83901b60007ed89e8c075c4155dd3213326cbbcf86fd1f63f5c205dd2ad2cf44f9349b39e180830782139083050390607e1982850101908113156130a95793841c936130b3565b8060000385901b94505b81607f039350505050915091565b60008060008084126130d357836130dc565b6130dc84614605565b9050620d89e88111156131315760405162461bcd60e51b815260206004820152601760248201527f6d67762f6162735469636b2f6f75744f66426f756e647300000000000000000060448201526064016111e2565b60006001821615613154576ffff97272373d413259a46990580e2139935061315c565b600160801b93505b6002821615613186576080613181856ffff2e50f5f656932ef12357cf3c7fdcb614621565b901c93505b60048216156131b05760806131ab856fffe5caca7e10e4e61c3624eaa0941ccf614621565b901c93505b60088216156131da5760806131d5856fffcb9843d60f6159c9db58835c926643614621565b901c93505b60108216156132045760806131ff856fff973b41fa98c081472e6896dfb254bf614621565b901c93505b602082161561322e576080613229856fff2ea16466c96a3843ec78b326b52860614621565b901c93505b6040821615613258576080613253856ffe5dee046a99a2a811c461f1969c3052614621565b901c93505b608082161561328257608061327d856ffcbe86c7900a88aedcffc83b479aa3a3614621565b901c93505b6101008216156132ad5760806132a8856ff987a7253ac413176f2b074cf7815e53614621565b901c93505b6102008216156132d85760806132d3856ff3392b0822b70005940c7a398e4b70f2614621565b901c93505b6104008216156133035760806132fe856fe7159475a2c29b7443b29c7fa6e889d8614621565b901c93505b61080082161561332e576080613329856fd097f3bdfd2022b8845ad8f792aa5825614621565b901c93505b611000821615613359576080613354856fa9f746462d870fdf8a65dc1f90e061e4614621565b901c93505b61200082161561339157608061337f856fe1b0d342ada5437121767bec575e65ed614621565b901c935061338e600182614638565b90505b6140008216156133c95760806133b7856fc6f84d7e5f423f66048c541550bf3e96614621565b901c93506133c6600282614638565b90505b6180008216156134015760806133ef856f9aa508b5b7a84e1c677de54f3e99bc8f614621565b901c93506133fe600482614638565b90505b6201000082161561343a576080613428856fbad5f1bdb70232cd33865244bdcc089c614621565b901c9350613437600982614638565b90505b62020000821615613473576080613461856f885b9613d7e87aa498106fb7fa5edd37614621565b901c9350613470601282614638565b90505b620400008216156134ac57608061349a856f9142e0723efb884889d1f447715afacd614621565b901c93506134a9602582614638565b90505b620800008216156134e55760806134d3856fa4d9a773d61316918f140bd96e8e6814614621565b901c93506134e2604b82614638565b90505b60008513156135065760018485600003040193508061350390614605565b90505b613511816080614638565b92505050915091565b634e487b7160e01b600052604160045260246000fd5b604080519081016001600160401b03811182821017156135525761355261351a565b60405290565b604051601f8201601f191681016001600160401b03811182821017156135805761358061351a565b604052919050565b6001600160a01b038116811461359d57600080fd5b50565b6000606082840312156135b257600080fd5b604051606081018181106001600160401b03821117156135d4576135d461351a565b60405290508082356135e581613588565b815260208301356135f581613588565b6020820152604092830135920191909152919050565b801515811461359d57600080fd5b60006040828403121561362b57600080fd5b613633613530565b905081356136408161360b565b81526020828101356001600160401b038082111561365d57600080fd5b818501915085601f83011261367157600080fd5b8135818111156136835761368361351a565b613695601f8201601f19168501613558565b915080825286848285010111156136ab57600080fd5b80848401858401376000908201840152918301919091525092915050565b600080600080600060e086880312156136e157600080fd5b6136eb87876135a0565b9450606086013593506080860135925060a0860135915060c08601356001600160401b0381111561371b57600080fd5b61372788828901613619565b9150509295509295909350565b60008060006040848603121561374957600080fd5b833561375481613588565b925060208401356001600160401b038082111561377057600080fd5b818601915086601f83011261378457600080fd5b81358181111561379357600080fd5b8760208285010111156137a557600080fd5b6020830194508093505050509250925092565b60008060008060008060c087890312156137d157600080fd5b863595506020870135945060408701359350606087013592506080870135915060a08701356001600160401b0381111561380a57600080fd5b61381689828a01613619565b9150509295509295509295565b60006020828403121561383557600080fd5b5035919050565b60008060006060848603121561385157600080fd5b505081359360208301359350604090920135919050565b6020808252825182820181905260009190848201906040850190845b818110156138a95783516001600160a01b031683529284019291840191600101613884565b50909695505050505050565b600080600080600080600080610140898b0312156138d257600080fd5b6138dc8a8a6135a0565b9750606089013596506080890135955060a0890135945060c0890135935060e0890135925061010089013591506101208901356001600160401b0381111561392357600080fd5b61392f8b828c01613619565b9150509295985092959890939650565b6000610140828403121561395257600080fd5b50919050565b6000610140828403121561396b57600080fd5b610eff838361393f565b6000806000806080858703121561398b57600080fd5b5050823594602084013594506040840135936060013592509050565b60008060008060008061010087890312156139c157600080fd5b6139cb88886135a0565b986060880135985060808801359760a0810135975060c0810135965060e00135945092505050565b600080600080600060a08688031215613a0b57600080fd5b8535945060208601359350604086013592506060860135915060808601356001600160401b0381111561371b57600080fd5b60008060008060808587031215613a5357600080fd5b84359350602085013592506040850135915060608501356001600160401b03811115613a7e57600080fd5b613a8a87828801613619565b91505092959194509250565b600060208284031215613aa857600080fd5b8135610eff8161360b565b600080600080600060a08688031215613acb57600080fd5b505083359560208501359550604085013594606081013594506080013592509050565b60008060408385031215613b0157600080fd5b8235613b0c81613588565b915060208301356001600160e01b031981168114613b2957600080fd5b809150509250929050565b60006020808301818452808551808352604092508286019150828160051b8701018488016000805b84811015613bd857898403603f19018652825180516001600160a01b03168552880151888501889052805188860181905290890190839060608701905b80831015613bc35783516001600160e01b0319168252928b019260019290920191908b0190613b99565b50978a01979550505091870191600101613b5c565b50919998505050505050505050565b60008060408385031215613bfa57600080fd5b50508035926020909101359150565b60008060808385031215613c1c57600080fd5b613c2684846135a0565b946060939093013593505050565b600080600080600060e08688031215613c4c57600080fd5b613c5687876135a0565b976060870135975060808701359660a0810135965060c00135945092505050565b60005b83811015613c92578181015183820152602001613c7a565b50506000910152565b60008151808452613cb3816020860160208601613c77565b601f01601f19169290920160200192915050565b6000602080830181845280855180835260408601915060408160051b870101925083870160005b82811015613d1c57603f19888603018452613d0a858351613c9b565b94509285019290850190600101613cee565b5092979650505050505050565b60008060008060c08587031215613d3f57600080fd5b613d4986866135a0565b966060860135965060808601359560a00135945092505050565b600080600060a08486031215613d7857600080fd5b613d8285856135a0565b95606085013595506080909401359392505050565b6000806000806000806000610120888a031215613db357600080fd5b613dbd89896135a0565b9650606088013595506080880135945060a0880135935060c0880135925060e088013591506101008801356001600160401b03811115613dfc57600080fd5b613e088a828b01613619565b91505092959891949750929550565b6000806000806000806101008789031215613e3157600080fd5b613e3b88886135a0565b9550606087013594506080870135935060a0870135925060c0870135915060e08701356001600160401b0381111561380a57600080fd5b60008060408385031215613e8557600080fd5b8235613e9081613588565b946020939093013593505050565b600080828403610180811215613eb357600080fd5b613ebd858561393f565b9250604061013f1982011215613ed257600080fd5b50610140830190509250929050565b600080600080600085870360e0811215613efa57600080fd5b8635613f0581613588565b95506060601f1982011215613f1957600080fd5b50939660208601965060808601359560a0810135955060c001359350915050565b600080600060608486031215613f4f57600080fd5b8335613f5a81613588565b92506020840135613f6a81613588565b929592945050506040919091013590565b600181811c90821680613f8f57607f821691505b60208210810361395257634e487b7160e01b600052602260045260246000fd5b601f821115611e9e57600081815260208120601f850160051c81016020861015613fd65750805b601f850160051c820191505b8181101561178457828155600101613fe2565b6001600160401b0383111561400c5761400c61351a565b6140208361401a8354613f7b565b83613faf565b6000601f841160018114614054576000851561403c5750838201355b600019600387901b1c1916600186901b1783556115e0565b600083815260209020601f19861690835b828110156140855786850135825560209485019460019092019101614065565b50868210156140a25760001960f88860031b161c19848701351681555b505060018560011b0183555050505050565b81516001600160401b038111156140cd576140cd61351a565b6140e1816140db8454613f7b565b84613faf565b602080601f83116001811461411657600084156140fe5750858301515b600019600386901b1c1916600185901b178555611784565b600085815260208120601f198616915b8281101561414557888601518255948401946001909101908401614126565b50858210156141635787850151600019600388901b60f8161c191681555b5050505050600190811b01905550565b80516001600160a01b03908116835260208083015190911690830152604090810151910152565b61010081016141a98289614173565b6060820196909652608081019490945260a084019290925260c083015260e090910152919050565b6000606082840312156141e357600080fd5b610eff83836135a0565b80356141f881613588565b6001600160a01b03908116835260208201359061421482613588565b166020830152604090810135910152565b610140810161423482846141ed565b606083013560608301526080830135608083015260a083013560a083015260c083013560c083015260e083013560e083015261010080840135818401525061012080840135818401525092915050565b60008251614296818460208701613c77565b9190910192915050565b602081526000610eff6020830184613c9b565b6000602082840312156142c557600080fd5b8135610eff81613588565b60008083546142de81613f7b565b600182811680156142f6576001811461430b5761433a565b60ff198416875282151583028701945061433a565b8760005260208060002060005b858110156143315781548a820152908401908201614318565b50505082870194505b50929695505050505050565b6001600160a01b03978816815295871660208701529390951660408501526060840191909152608083015260a082019290925260c081019190915260e00190565b805160208083015191908110156139525760001960209190910360031b1b16919050565b6000602082840312156143bd57600080fd5b5051919050565b60c081016143d28287614173565b84606083015283608083015282151560a083015295945050505050565b6000806000806080858703121561440557600080fd5b505082516020840151604085015160609095015191969095509092509050565b60e081016144338288614173565b8560608301528460808301528360a08301528260c08301529695505050505050565b634e487b7160e01b600052603260045260246000fd5b600060a0820161447b8387614173565b606060a08185015281865180845260c0860191506020935083880160005b828110156144d2578151805185528681015187860152604080820151908601528501518585015260809093019290850190600101614499565b5050506001600160a01b03861660808601529250611597915050565b6000806040838503121561450157600080fd5b505080516020909101519092909150565b6001600160e01b0319831681528151600090614535816004850160208701613c77565b919091016004019392505050565b60006020828403121561455557600080fd5b8151610eff8161360b565b60a0810161456e8286614173565b8360608301528215156080830152949350505050565b83546001600160a01b03908116825260018501541660208201526002840154604082015260a0810161456e565b60408152600560408201526422b93937b960d91b6060820152608060208201526000610eff6080830184613c9b565b61010081016141a982896141ed565b634e487b7160e01b600052601160045260246000fd5b6000600160ff1b820161461a5761461a6145ef565b5060000390565b8082028115828204841417610ee757610ee76145ef565b8082018281126000831280158216821582161715614658576146586145ef565b50509291505056fea2646970667358221220d62f6544603484bb1cb78ef14fb409dfbd18553cf1b2a1c82abb37e0f9d0728a64736f6c63430008140033a26469706673582212204f7827894dd2d5693a2a4390ea6a80b6197234d8444631b23f181cbe6e5e66dc64736f6c63430008140033",
    "linkReferences": {}
  },
  "methodIdentifiers": {
    "deploy(uint256)": "a5e38751",
    "dispatch()": "e9c4a3ac",
    "getMaker(uint256)": "56861532",
    "length()": "1f7b6d32"
  },
  "id": 64
}