{
  "abi": [
    {
      "anonymous": false,
      "inputs": [
        {
          "indexed": true,
          "internalType": "address",
          "name": "maker",
          "type": "address"
        }
      ],
      "name": "MakerBind",
      "type": "event"
    },
    {
      "anonymous": false,
      "inputs": [
        {
          "indexed": true,
          "internalType": "address",
          "name": "maker",
          "type": "address"
        }
      ],
      "name": "MakerUnbind",
      "type": "event"
    },
    {
      "anonymous": false,
      "inputs": [
        {
          "indexed": false,
          "internalType": "address",
          "name": "admin",
          "type": "address"
        }
      ],
      "name": "SetAdmin",
      "type": "event"
    },
    {
      "inputs": [],
      "name": "ROUTER_GASREQ",
      "outputs": [
        {
          "internalType": "uint256",
          "name": "",
          "type": "uint256"
        }
      ],
      "stateMutability": "view",
      "type": "function"
    },
    {
      "inputs": [
        {
          "internalType": "contract IERC20",
          "name": "token",
          "type": "address"
        }
      ],
      "name": "activate",
      "outputs": [],
      "stateMutability": "nonpayable",
      "type": "function"
    },
    {
      "inputs": [],
      "name": "admin",
      "outputs": [
        {
          "internalType": "address",
          "name": "current",
          "type": "address"
        }
      ],
      "stateMutability": "view",
      "type": "function"
    },
    {
      "inputs": [
        {
          "internalType": "contract IERC20",
          "name": "token",
          "type": "address"
        },
        {
          "internalType": "address",
          "name": "owner",
          "type": "address"
        }
      ],
      "name": "balanceOfReserve",
      "outputs": [
        {
          "internalType": "uint256",
          "name": "",
          "type": "uint256"
        }
      ],
      "stateMutability": "view",
      "type": "function"
    },
    {
      "inputs": [
        {
          "internalType": "address",
          "name": "makerContract",
          "type": "address"
        }
      ],
      "name": "bind",
      "outputs": [],
      "stateMutability": "nonpayable",
      "type": "function"
    },
    {
      "inputs": [
        {
          "internalType": "contract IERC20",
          "name": "token",
          "type": "address"
        },
        {
          "internalType": "address",
          "name": "reserveId",
          "type": "address"
        }
      ],
      "name": "checkList",
      "outputs": [],
      "stateMutability": "view",
      "type": "function"
    },
    {
      "inputs": [
        {
          "internalType": "contract IERC20[]",
          "name": "tokens",
          "type": "address[]"
        },
        {
          "internalType": "address",
          "name": "reserveId",
          "type": "address"
        }
      ],
      "name": "flush",
      "outputs": [],
      "stateMutability": "nonpayable",
      "type": "function"
    },
    {
      "inputs": [
        {
          "internalType": "address",
          "name": "mkr",
          "type": "address"
        }
      ],
      "name": "isBound",
      "outputs": [
        {
          "internalType": "bool",
          "name": "",
          "type": "bool"
        }
      ],
      "stateMutability": "view",
      "type": "function"
    },
    {
      "inputs": [
        {
          "internalType": "contract IERC20",
          "name": "token",
          "type": "address"
        },
        {
          "internalType": "address",
          "name": "reserveId",
          "type": "address"
        },
        {
          "internalType": "uint256",
          "name": "amount",
          "type": "uint256"
        },
        {
          "internalType": "bool",
          "name": "strict",
          "type": "bool"
        }
      ],
      "name": "pull",
      "outputs": [
        {
          "internalType": "uint256",
          "name": "pulled",
          "type": "uint256"
        }
      ],
      "stateMutability": "nonpayable",
      "type": "function"
    },
    {
      "inputs": [
        {
          "internalType": "contract IERC20",
          "name": "token",
          "type": "address"
        },
        {
          "internalType": "address",
          "name": "reserveId",
          "type": "address"
        },
        {
          "internalType": "uint256",
          "name": "amount",
          "type": "uint256"
        }
      ],
      "name": "push",
      "outputs": [
        {
          "internalType": "uint256",
          "name": "pushed",
          "type": "uint256"
        }
      ],
      "stateMutability": "nonpayable",
      "type": "function"
    },
    {
      "inputs": [
        {
          "internalType": "contract IERC20",
          "name": "token",
          "type": "address"
        },
        {
          "internalType": "address",
          "name": "reserveId",
          "type": "address"
        }
      ],
      "name": "routerGasreq",
      "outputs": [
        {
          "internalType": "uint256",
          "name": "overhead",
          "type": "uint256"
        }
      ],
      "stateMutability": "view",
      "type": "function"
    },
    {
      "inputs": [
        {
          "internalType": "address",
          "name": "admin_",
          "type": "address"
        }
      ],
      "name": "setAdmin",
      "outputs": [],
      "stateMutability": "nonpayable",
      "type": "function"
    },
    {
      "inputs": [],
      "name": "unbind",
      "outputs": [],
      "stateMutability": "nonpayable",
      "type": "function"
    },
    {
      "inputs": [
        {
          "internalType": "address",
          "name": "makerContract",
          "type": "address"
        }
      ],
      "name": "unbind",
      "outputs": [],
      "stateMutability": "nonpayable",
      "type": "function"
    }
  ],
  "bytecode": {
    "object": "0x60a060405234801561001057600080fd5b506201117033806100675760405162461bcd60e51b815260206004820152601860248201527f416363657373436f6e74726f6c6c65642f307841646d696e0000000000000000604482015260640160405180910390fd5b600080546001600160a01b0319166001600160a01b0392909216919091179055608052608051610ee86100ac6000396000818161017801526102c40152610ee86000f3fe608060405234801561001057600080fd5b50600436106100ea5760003560e01c806381bac14f1161008c578063cf5e7bd311610066578063cf5e7bd3146101db578063f850a81c146101ee578063f851a44014610201578063fe380db51461021c57600080fd5b806381bac14f146101ad578063a01dccd8146101c0578063b6b25742146101d357600080fd5b80632f37b624116100c85780632f37b6241461013d578063333dbb0d146101605780633871cb3f14610173578063704b6c021461019a57600080fd5b80631c5a9d9c146100ef57806326e8eda2146101045780632876fb4e1461012a575b600080fd5b6101026100fd366004610c5b565b61022f565b005b610117610112366004610c78565b610274565b6040519081526020015b60405180910390f35b610117610138366004610cb9565b6102c0565b61015061014b366004610c5b565b6102e8565b6040519015158152602001610121565b61011761016e366004610d00565b610306565b6101177f000000000000000000000000000000000000000000000000000000000000000081565b6101026101a8366004610c5b565b61035c565b6101026101bb366004610c5b565b610430565b6101026101ce366004610cb9565b6104a9565b6101026105d4565b6101026101e9366004610c5b565b610604565b6101026101fc366004610d53565b610637565b6000546040516001600160a01b039091168152602001610121565b61011761022a366004610cb9565b61078c565b6000546001600160a01b031633148061024c575061024c336102e8565b6102715760405162461bcd60e51b815260040161026890610dd9565b60405180910390fd5b50565b600061027f336102e8565b61029b5760405162461bcd60e51b815260040161026890610dd9565b816000036102ab575060006102b9565b6102b68484846107fa565b90505b9392505050565b60007f00000000000000000000000000000000000000000000000000000000000000006102b9565b6001600160a01b031660009081526001602052604090205460ff1690565b6000610311336102e8565b61032d5760405162461bcd60e51b815260040161026890610dd9565b818015610338575082155b1561034557506000610354565b61035185858585610822565b90505b949350505050565b6000546001600160a01b031633146103865760405162461bcd60e51b815260040161026890610dd9565b6001600160a01b0381166103dc5760405162461bcd60e51b815260206004820152601860248201527f416363657373436f6e74726f6c6c65642f307841646d696e00000000000000006044820152606401610268565b600080546001600160a01b0319166001600160a01b0383169081179091556040519081527f5a272403b402d892977df56625f4164ccaf70ca3863991c43ecfe76a6905b0a19060200160405180910390a150565b6000546001600160a01b0316331461045a5760405162461bcd60e51b815260040161026890610dd9565b6001600160a01b0381166000818152600160208190526040808320805460ff1916909217909155517fecac69b9e48a248381b74f2e1cf855cc6afc2f410751325703374c70351035bc9190a250565b6104b2336102e8565b6104fe5760405162461bcd60e51b815260206004820152601f60248201527f526f757465722f63616c6c657249734e6f74426f756e64546f526f75746572006044820152606401610268565b604051636eb1769f60e11b81523360048201523060248201526000906001600160a01b0384169063dd62ed3e90604401602060405180830381865afa15801561054b573d6000803e3d6000fd5b505050506040513d601f19601f8201168201806040525081019061056f9190610e10565b116105c65760405162461bcd60e51b815260206004820152602160248201527f526f757465722f4e6f74417070726f76656442794d616b6572436f6e747261636044820152601d60fa1b6064820152608401610268565b6105d082826108bc565b5050565b6105dd336102e8565b6105f95760405162461bcd60e51b815260040161026890610dd9565b6106023361097d565b565b6000546001600160a01b0316331461062e5760405162461bcd60e51b815260040161026890610dd9565b6102718161097d565b610640336102e8565b61065c5760405162461bcd60e51b815260040161026890610dd9565b60005b8281101561078657600084848381811061067b5761067b610e29565b90506020020160208101906106909190610c5b565b6040516370a0823160e01b81523360048201526001600160a01b0391909116906370a0823190602401602060405180830381865afa1580156106d6573d6000803e3d6000fd5b505050506040513d601f19601f820116820180604052508101906106fa9190610e10565b90508015610775578061073486868581811061071857610718610e29565b905060200201602081019061072d9190610c5b565b85846107fa565b146107755760405162461bcd60e51b81526020600482015260116024820152701c9bdd5d195c8bdc1d5cda11985a5b1959607a1b6044820152606401610268565b5061077f81610e3f565b905061065f565b50505050565b6040516370a0823160e01b81526001600160a01b038281166004830152600091908416906370a0823190602401602060405180830381865afa1580156107d6573d6000803e3d6000fd5b505050506040513d601f19601f820116820180604052508101906102b99190610e10565b600080610809853386866109c6565b905080610817576000610819565b825b95945050505050565b600081610898576040516370a0823160e01b81526001600160a01b0385811660048301528616906370a0823190602401602060405180830381865afa15801561086f573d6000803e3d6000fd5b505050506040513d601f19601f820116820180604052508101906108939190610e10565b61089a565b825b92506108a8858533866109c6565b156108b4575081610354565b506000610354565b604051636eb1769f60e11b81526001600160a01b0382811660048301523060248301526000919084169063dd62ed3e90604401602060405180830381865afa15801561090c573d6000803e3d6000fd5b505050506040513d601f19601f820116820180604052508101906109309190610e10565b116105d05760405162461bcd60e51b815260206004820152601f60248201527f53696d706c65526f757465722f4e6f74417070726f76656442794f776e6572006044820152606401610268565b6001600160a01b038116600081815260016020526040808220805460ff19169055517f30a4a29afb6d28e62264c8b7cd43fe3a5edce91f4b9c8591b23a99b3838686b59190a250565b6000816000036109d857506001610354565b826001600160a01b0316846001600160a01b031603610a67576040516370a0823160e01b81526001600160a01b0385811660048301528391908716906370a0823190602401602060405180830381865afa158015610a3a573d6000803e3d6000fd5b505050506040513d601f19601f82011682018060405250810190610a5e9190610e10565b10159050610354565b306001600160a01b03851603610a8957610a82858484610a95565b9050610354565b61035185858585610b69565b604080516001600160a01b038481166024830152604480830185905283518084039091018152606490920183526020820180516001600160e01b031663a9059cbb60e01b17905291516000928392839291881691610af39190610e66565b6000604051808303816000865af19150503d8060008114610b30576040519150601f19603f3d011682016040523d82523d6000602084013e610b35565b606091505b5091509150818015610b5f575080511580610b5f575080806020019051810190610b5f9190610e95565b9695505050505050565b604080516001600160a01b0385811660248301528481166044830152606480830185905283518084039091018152608490920183526020820180516001600160e01b03166323b872dd60e01b17905291516000928392839291891691610bcf9190610e66565b6000604051808303816000865af19150503d8060008114610c0c576040519150601f19603f3d011682016040523d82523d6000602084013e610c11565b606091505b5091509150818015610c3b575080511580610c3b575080806020019051810190610c3b9190610e95565b979650505050505050565b6001600160a01b038116811461027157600080fd5b600060208284031215610c6d57600080fd5b81356102b981610c46565b600080600060608486031215610c8d57600080fd5b8335610c9881610c46565b92506020840135610ca881610c46565b929592945050506040919091013590565b60008060408385031215610ccc57600080fd5b8235610cd781610c46565b91506020830135610ce781610c46565b809150509250929050565b801515811461027157600080fd5b60008060008060808587031215610d1657600080fd5b8435610d2181610c46565b93506020850135610d3181610c46565b9250604085013591506060850135610d4881610cf2565b939692955090935050565b600080600060408486031215610d6857600080fd5b833567ffffffffffffffff80821115610d8057600080fd5b818601915086601f830112610d9457600080fd5b813581811115610da357600080fd5b8760208260051b8501011115610db857600080fd5b60209283019550935050840135610dce81610c46565b809150509250925092565b60208082526018908201527f416363657373436f6e74726f6c6c65642f496e76616c69640000000000000000604082015260600190565b600060208284031215610e2257600080fd5b5051919050565b634e487b7160e01b600052603260045260246000fd5b600060018201610e5f57634e487b7160e01b600052601160045260246000fd5b5060010190565b6000825160005b81811015610e875760208186018101518583015201610e6d565b506000920191825250919050565b600060208284031215610ea757600080fd5b81516102b981610cf256fea2646970667358221220488559b74d71829856bcef9dfe67dd11cd479cfea710cbfa15ab298e063ada0f64736f6c63430008140033",
    "linkReferences": {}
  },
  "methodIdentifiers": {
    "ROUTER_GASREQ()": "3871cb3f",
    "activate(address)": "1c5a9d9c",
    "admin()": "f851a440",
    "balanceOfReserve(address,address)": "fe380db5",
    "bind(address)": "81bac14f",
    "checkList(address,address)": "a01dccd8",
    "flush(address[],address)": "f850a81c",
    "isBound(address)": "2f37b624",
    "pull(address,address,uint256,bool)": "333dbb0d",
    "push(address,address,uint256)": "26e8eda2",
    "routerGasreq(address,address)": "2876fb4e",
    "setAdmin(address)": "704b6c02",
    "unbind()": "b6b25742",
    "unbind(address)": "cf5e7bd3"
  },
  "id": 118
}