{
  "abi": [
    {
      "inputs": [
        {
          "internalType": "contract IMangrove",
          "name": "mgv",
          "type": "address"
        },
        {
          "internalType": "contract IERC20",
          "name": "base",
          "type": "address"
        },
        {
          "internalType": "contract IERC20",
          "name": "stable1",
          "type": "address"
        },
        {
          "internalType": "contract IERC20",
          "name": "stable2",
          "type": "address"
        },
        {
          "internalType": "uint256",
          "name": "tickSpacing1",
          "type": "uint256"
        },
        {
          "internalType": "uint256",
          "name": "tickSpacing2",
          "type": "uint256"
        },
        {
          "internalType": "address",
          "name": "admin",
          "type": "address"
        }
      ],
      "stateMutability": "nonpayable",
      "type": "constructor"
    },
    {
      "anonymous": false,
      "inputs": [
        {
          "indexed": true,
          "internalType": "bytes32",
          "name": "olKeyHash",
          "type": "bytes32"
        },
        {
          "indexed": true,
          "internalType": "uint256",
          "name": "offerId",
          "type": "uint256"
        },
        {
          "indexed": false,
          "internalType": "bytes32",
          "name": "makerData",
          "type": "bytes32"
        },
        {
          "indexed": false,
          "internalType": "bytes32",
          "name": "mgvData",
          "type": "bytes32"
        }
      ],
      "name": "LogIncident",
      "type": "event"
    },
    {
      "anonymous": false,
      "inputs": [
        {
          "indexed": false,
          "internalType": "contract IMangrove",
          "name": "mgv",
          "type": "address"
        }
      ],
      "name": "Mgv",
      "type": "event"
    },
    {
      "anonymous": false,
      "inputs": [
        {
          "indexed": false,
          "internalType": "address",
          "name": "admin",
          "type": "address"
        }
      ],
      "name": "SetAdmin",
      "type": "event"
    },
    {
      "anonymous": false,
      "inputs": [
        {
          "indexed": true,
          "internalType": "address",
          "name": "reserveId",
          "type": "address"
        }
      ],
      "name": "SetReserveId",
      "type": "event"
    },
    {
      "anonymous": false,
      "inputs": [
        {
          "indexed": false,
          "internalType": "contract AbstractRouter",
          "name": "router",
          "type": "address"
        }
      ],
      "name": "SetRouter",
      "type": "event"
    },
    {
      "inputs": [],
      "name": "BASE",
      "outputs": [
        {
          "internalType": "contract IERC20",
          "name": "",
          "type": "address"
        }
      ],
      "stateMutability": "view",
      "type": "function"
    },
    {
      "inputs": [],
      "name": "CONSTANT_GASREQ",
      "outputs": [
        {
          "internalType": "uint256",
          "name": "",
          "type": "uint256"
        }
      ],
      "stateMutability": "view",
      "type": "function"
    },
    {
      "inputs": [],
      "name": "MGV",
      "outputs": [
        {
          "internalType": "contract IMangrove",
          "name": "",
          "type": "address"
        }
      ],
      "stateMutability": "view",
      "type": "function"
    },
    {
      "inputs": [],
      "name": "NO_ROUTER",
      "outputs": [
        {
          "internalType": "contract AbstractRouter",
          "name": "",
          "type": "address"
        }
      ],
      "stateMutability": "view",
      "type": "function"
    },
    {
      "inputs": [],
      "name": "RESERVE_ID",
      "outputs": [
        {
          "internalType": "address",
          "name": "",
          "type": "address"
        }
      ],
      "stateMutability": "view",
      "type": "function"
    },
    {
      "inputs": [],
      "name": "STABLE1",
      "outputs": [
        {
          "internalType": "contract IERC20",
          "name": "",
          "type": "address"
        }
      ],
      "stateMutability": "view",
      "type": "function"
    },
    {
      "inputs": [],
      "name": "STABLE2",
      "outputs": [
        {
          "internalType": "contract IERC20",
          "name": "",
          "type": "address"
        }
      ],
      "stateMutability": "view",
      "type": "function"
    },
    {
      "inputs": [],
      "name": "TICK_SPACING1",
      "outputs": [
        {
          "internalType": "uint256",
          "name": "",
          "type": "uint256"
        }
      ],
      "stateMutability": "view",
      "type": "function"
    },
    {
      "inputs": [],
      "name": "TICK_SPACING2",
      "outputs": [
        {
          "internalType": "uint256",
          "name": "",
          "type": "uint256"
        }
      ],
      "stateMutability": "view",
      "type": "function"
    },
    {
      "inputs": [
        {
          "internalType": "contract IERC20[]",
          "name": "tokens",
          "type": "address[]"
        }
      ],
      "name": "activate",
      "outputs": [],
      "stateMutability": "nonpayable",
      "type": "function"
    },
    {
      "inputs": [],
      "name": "admin",
      "outputs": [
        {
          "internalType": "address",
          "name": "current",
          "type": "address"
        }
      ],
      "stateMutability": "view",
      "type": "function"
    },
    {
      "inputs": [
        {
          "internalType": "contract IERC20",
          "name": "token",
          "type": "address"
        },
        {
          "internalType": "address",
          "name": "spender",
          "type": "address"
        },
        {
          "internalType": "uint256",
          "name": "amount",
          "type": "uint256"
        }
      ],
      "name": "approve",
      "outputs": [
        {
          "internalType": "bool",
          "name": "",
          "type": "bool"
        }
      ],
      "stateMutability": "nonpayable",
      "type": "function"
    },
    {
      "inputs": [
        {
          "internalType": "contract IERC20[]",
          "name": "tokens",
          "type": "address[]"
        }
      ],
      "name": "checkList",
      "outputs": [],
      "stateMutability": "view",
      "type": "function"
    },
    {
      "inputs": [
        {
          "components": [
            {
              "components": [
                {
                  "internalType": "address",
                  "name": "outbound_tkn",
                  "type": "address"
                },
                {
                  "internalType": "address",
                  "name": "inbound_tkn",
                  "type": "address"
                },
                {
                  "internalType": "uint256",
                  "name": "tickSpacing",
                  "type": "uint256"
                }
              ],
              "internalType": "struct OLKey",
              "name": "olKey",
              "type": "tuple"
            },
            {
              "internalType": "uint256",
              "name": "offerId",
              "type": "uint256"
            },
            {
              "internalType": "Offer",
              "name": "offer",
              "type": "uint256"
            },
            {
              "internalType": "uint256",
              "name": "takerWants",
              "type": "uint256"
            },
            {
              "internalType": "uint256",
              "name": "takerGives",
              "type": "uint256"
            },
            {
              "internalType": "OfferDetail",
              "name": "offerDetail",
              "type": "uint256"
            },
            {
              "internalType": "Global",
              "name": "global",
              "type": "uint256"
            },
            {
              "internalType": "Local",
              "name": "local",
              "type": "uint256"
            }
          ],
          "internalType": "struct MgvLib.SingleOrder",
          "name": "order",
          "type": "tuple"
        }
      ],
      "name": "makerExecute",
      "outputs": [
        {
          "internalType": "bytes32",
          "name": "ret",
          "type": "bytes32"
        }
      ],
      "stateMutability": "nonpayable",
      "type": "function"
    },
    {
      "inputs": [
        {
          "components": [
            {
              "components": [
                {
                  "internalType": "address",
                  "name": "outbound_tkn",
                  "type": "address"
                },
                {
                  "internalType": "address",
                  "name": "inbound_tkn",
                  "type": "address"
                },
                {
                  "internalType": "uint256",
                  "name": "tickSpacing",
                  "type": "uint256"
                }
              ],
              "internalType": "struct OLKey",
              "name": "olKey",
              "type": "tuple"
            },
            {
              "internalType": "uint256",
              "name": "offerId",
              "type": "uint256"
            },
            {
              "internalType": "Offer",
              "name": "offer",
              "type": "uint256"
            },
            {
              "internalType": "uint256",
              "name": "takerWants",
              "type": "uint256"
            },
            {
              "internalType": "uint256",
              "name": "takerGives",
              "type": "uint256"
            },
            {
              "internalType": "OfferDetail",
              "name": "offerDetail",
              "type": "uint256"
            },
            {
              "internalType": "Global",
              "name": "global",
              "type": "uint256"
            },
            {
              "internalType": "Local",
              "name": "local",
              "type": "uint256"
            }
          ],
          "internalType": "struct MgvLib.SingleOrder",
          "name": "order",
          "type": "tuple"
        },
        {
          "components": [
            {
              "internalType": "bytes32",
              "name": "makerData",
              "type": "bytes32"
            },
            {
              "internalType": "bytes32",
              "name": "mgvData",
              "type": "bytes32"
            }
          ],
          "internalType": "struct MgvLib.OrderResult",
          "name": "result",
          "type": "tuple"
        }
      ],
      "name": "makerPosthook",
      "outputs": [],
      "stateMutability": "nonpayable",
      "type": "function"
    },
    {
      "inputs": [
        {
          "internalType": "uint256",
          "name": "gives",
          "type": "uint256"
        },
        {
          "internalType": "uint256",
          "name": "wants1",
          "type": "uint256"
        },
        {
          "internalType": "uint256",
          "name": "wants2",
          "type": "uint256"
        }
      ],
      "name": "newAmplifiedOffers",
      "outputs": [
        {
          "internalType": "uint256",
          "name": "",
          "type": "uint256"
        },
        {
          "internalType": "uint256",
          "name": "",
          "type": "uint256"
        }
      ],
      "stateMutability": "payable",
      "type": "function"
    },
    {
      "inputs": [
        {
          "internalType": "contract IERC20",
          "name": "token",
          "type": "address"
        },
        {
          "internalType": "address",
          "name": "reserveId",
          "type": "address"
        }
      ],
      "name": "offerGasreq",
      "outputs": [
        {
          "internalType": "uint256",
          "name": "",
          "type": "uint256"
        }
      ],
      "stateMutability": "view",
      "type": "function"
    },
    {
      "inputs": [],
      "name": "offerGasreq",
      "outputs": [
        {
          "internalType": "uint256",
          "name": "",
          "type": "uint256"
        }
      ],
      "stateMutability": "view",
      "type": "function"
    },
    {
      "inputs": [
        {
          "components": [
            {
              "internalType": "address",
              "name": "outbound_tkn",
              "type": "address"
            },
            {
              "internalType": "address",
              "name": "inbound_tkn",
              "type": "address"
            },
            {
              "internalType": "uint256",
              "name": "tickSpacing",
              "type": "uint256"
            }
          ],
          "internalType": "struct OLKey",
          "name": "olKey",
          "type": "tuple"
        },
        {
          "internalType": "uint256",
          "name": "offerId",
          "type": "uint256"
        }
      ],
      "name": "provisionOf",
      "outputs": [
        {
          "internalType": "uint256",
          "name": "provision",
          "type": "uint256"
        }
      ],
      "stateMutability": "view",
      "type": "function"
    },
    {
      "inputs": [
        {
          "components": [
            {
              "internalType": "address",
              "name": "outbound_tkn",
              "type": "address"
            },
            {
              "internalType": "address",
              "name": "inbound_tkn",
              "type": "address"
            },
            {
              "internalType": "uint256",
              "name": "tickSpacing",
              "type": "uint256"
            }
          ],
          "internalType": "struct OLKey",
          "name": "olKey",
          "type": "tuple"
        },
        {
          "internalType": "uint256",
          "name": "offerId",
          "type": "uint256"
        },
        {
          "internalType": "bool",
          "name": "deprovision",
          "type": "bool"
        }
      ],
      "name": "retractOffer",
      "outputs": [
        {
          "internalType": "uint256",
          "name": "freeWei",
          "type": "uint256"
        }
      ],
      "stateMutability": "nonpayable",
      "type": "function"
    },
    {
      "inputs": [
        {
          "internalType": "bool",
          "name": "deprovision",
          "type": "bool"
        }
      ],
      "name": "retractOffers",
      "outputs": [],
      "stateMutability": "nonpayable",
      "type": "function"
    },
    {
      "inputs": [],
      "name": "router",
      "outputs": [
        {
          "internalType": "contract AbstractRouter",
          "name": "",
          "type": "address"
        }
      ],
      "stateMutability": "view",
      "type": "function"
    },
    {
      "inputs": [
        {
          "internalType": "address",
          "name": "admin_",
          "type": "address"
        }
      ],
      "name": "setAdmin",
      "outputs": [],
      "stateMutability": "nonpayable",
      "type": "function"
    },
    {
      "inputs": [
        {
          "internalType": "contract AbstractRouter",
          "name": "router_",
          "type": "address"
        }
      ],
      "name": "setRouter",
      "outputs": [],
      "stateMutability": "nonpayable",
      "type": "function"
    },
    {
      "inputs": [
        {
          "internalType": "uint256",
          "name": "amount",
          "type": "uint256"
        },
        {
          "internalType": "address payable",
          "name": "receiver",
          "type": "address"
        }
      ],
      "name": "withdrawFromMangrove",
      "outputs": [],
      "stateMutability": "nonpayable",
      "type": "function"
    },
    {
      "stateMutability": "payable",
      "type": "receive"
    }
  ],
  "bytecode": {
    "object": "0x6101806040523480156200001257600080fd5b5060405162004f1f38038062004f1f8339810160408190526200003591620004de565b86600062030d408383823380620000935760405162461bcd60e51b815260206004820152601860248201527f416363657373436f6e74726f6c6c65642f307841646d696e000000000000000060448201526064015b60405180910390fd5b600080546001600160a01b0319166001600160a01b039290921691909117905562ffffff81168114620001095760405162461bcd60e51b815260206004820152601760248201527f6d67764f666665722f6761737265714f766572666c6f7700000000000000000060448201526064016200008a565b6001600160a01b03821660a081905260808290526040519081527f23274a2ea157bc8b802cd1ca98faaaf1e5ed5472079061e406176ba38449d6879060200160405180910390a150506001600160a01b038316156200016d576200016d8362000303565b60006001600160a01b0382161562000186578162000188565b305b6001600160a01b03811660c0819052604051919250907f1efc2ac62377bfc2967149995d76b6a9a1ad2809a99afd6106b5ba742698217f90600090a25050506001600160a01b038088166101005286811661012052610140869052610160859052881660e05250506040516000906200020190620004b7565b604051809103906000f0801580156200021e573d6000803e3d6000fd5b5090506200022c8162000303565b6040516381bac14f60e01b81523060048201526001600160a01b038216906381bac14f90602401600060405180830381600087803b1580156200026e57600080fd5b505af115801562000283573d6000803e3d6000fd5b5050604051633825b60160e11b81526001600160a01b0385811660048301528416925063704b6c029150602401600060405180830381600087803b158015620002cb57600080fd5b505af1158015620002e0573d6000803e3d6000fd5b50505050620002f582620003b460201b60201c565b505050505050505062000572565b6000546001600160a01b031633146200035f5760405162461bcd60e51b815260206004820152601860248201527f416363657373436f6e74726f6c6c65642f496e76616c6964000000000000000060448201526064016200008a565b600180546001600160a01b0319166001600160a01b0383169081179091556040519081527f6de4326a8b9054d72d9dbab97d27bc4edffadee7d966f5af9cc4eafdaf8e5455906020015b60405180910390a150565b6000546001600160a01b03163314620004105760405162461bcd60e51b815260206004820152601860248201527f416363657373436f6e74726f6c6c65642f496e76616c6964000000000000000060448201526064016200008a565b6001600160a01b038116620004685760405162461bcd60e51b815260206004820152601860248201527f416363657373436f6e74726f6c6c65642f307841646d696e000000000000000060448201526064016200008a565b600080546001600160a01b0319166001600160a01b0383169081179091556040519081527f5a272403b402d892977df56625f4164ccaf70ca3863991c43ecfe76a6905b0a190602001620003a9565b610f948062003f8b83390190565b6001600160a01b0381168114620004db57600080fd5b50565b600080600080600080600060e0888a031215620004fa57600080fd5b87516200050781620004c5565b60208901519097506200051a81620004c5565b60408901519096506200052d81620004c5565b60608901519095506200054081620004c5565b809450506080880151925060a0880151915060c08801516200056281620004c5565b8091505092959891949750929550565b60805160a05160c05160e0516101005161012051610140516101605161385c6200072f600039600081816103e2015281816106bb01528181610abc01528181610cb201528181611c6d0152611fd201526000818161049b015281816106200152818161093e01528181610bd201528181611beb0152611f880152600081816102a60152818161068c01528181610a8d01528181610c8301528181611c3e0152611fb1015260008181610245015281816105f10152818161090f01528181610ba301528181611b5501528181611bbc01528181611f270152611f670152600081816104cf015281816105c20152818161065d015281816108e001528181610a5e01528181610b740152610c5401526000818161053f01528181611515015281816117d4015261278b01526000818161035a0152818161070e015281816108a601528181610a2401528181610d2501528181610e4901528181610fd601528181611062015281816113460152818161159f0152818161189c015281816119f001528181611a7901528181611cc001528181611d5301528181612090015261285001526000818161038e0152818161125c015261128a015261385c6000f3fe60806040526004361061016a5760003560e01c806399fa5e2d116100d1578063cfcd26791161008a578063ec342ad011610064578063ec342ad0146104bd578063f851a440146104f1578063f887ea401461050f578063fbc7d10b1461052d57600080fd5b8063cfcd267914610444578063e1f21c6714610459578063eafb61411461048957600080fd5b806399fa5e2d146103485780639eb7d4fe1461037c578063a24f2b2d146103b0578063bbce228e146103d0578063c0d7865514610404578063c7e1bb441461042457600080fd5b80635570db1d116101235780635570db1d1461027f5780636a7ee749146102945780636e7a5cb8146102c8578063704b6c02146102e85780637144df2414610308578063820db1f71461032857600080fd5b806303eb17e214610176578063150957c71461019857806315986e4a146101b85780632380fafd146101e55780635293840d146102135780635450af301461023357600080fd5b3661017157005b600080fd5b34801561018257600080fd5b506101966101913660046130e1565b610561565b005b3480156101a457600080fd5b506101966101b3366004613164565b6105b0565b6101cb6101c6366004613181565b610874565b604080519283526020830191909152015b60405180910390f35b3480156101f157600080fd5b506102056102003660046131c0565b610d21565b6040519081526020016101dc565b34801561021f57600080fd5b5061019661022e3660046130e1565b610dd1565b34801561023f57600080fd5b506102677f000000000000000000000000000000000000000000000000000000000000000081565b6040516001600160a01b0390911681526020016101dc565b34801561028b57600080fd5b50610267600081565b3480156102a057600080fd5b506102677f000000000000000000000000000000000000000000000000000000000000000081565b3480156102d457600080fd5b506102056102e33660046132a7565b610e45565b3480156102f457600080fd5b506101966103033660046132e8565b610eb9565b34801561031457600080fd5b50610196610323366004613305565b610f8e565b34801561033457600080fd5b50610205610343366004613335565b6111be565b34801561035457600080fd5b506102677f000000000000000000000000000000000000000000000000000000000000000081565b34801561038857600080fd5b506102057f000000000000000000000000000000000000000000000000000000000000000081565b3480156103bc57600080fd5b506102056103cb366004613363565b6112b9565b3480156103dc57600080fd5b506102057f000000000000000000000000000000000000000000000000000000000000000081565b34801561041057600080fd5b5061019661041f3660046132e8565b6112cc565b34801561043057600080fd5b5061019661043f36600461338e565b611344565b34801561045057600080fd5b50610205611421565b34801561046557600080fd5b506104796104743660046133d1565b611433565b60405190151581526020016101dc565b34801561049557600080fd5b506102057f000000000000000000000000000000000000000000000000000000000000000081565b3480156104c957600080fd5b506102677f000000000000000000000000000000000000000000000000000000000000000081565b3480156104fd57600080fd5b506000546001600160a01b0316610267565b34801561051b57600080fd5b506001546001600160a01b0316610267565b34801561053957600080fd5b506102677f000000000000000000000000000000000000000000000000000000000000000081565b60005b818110156105ab5761059b83838381811061058157610581613412565b905060200201602081019061059691906132e8565b6114bf565b6105a48161343e565b9050610564565b505050565b600061064b60405180606001604052807f00000000000000000000000000000000000000000000000000000000000000006001600160a01b031681526020017f00000000000000000000000000000000000000000000000000000000000000006001600160a01b031681526020017f000000000000000000000000000000000000000000000000000000000000000081525060025484610e45565b90506106e660405180606001604052807f00000000000000000000000000000000000000000000000000000000000000006001600160a01b031681526020017f00000000000000000000000000000000000000000000000000000000000000006001600160a01b031681526020017f000000000000000000000000000000000000000000000000000000000000000081525060035484610e45565b6106f09082613457565b9050801561087057604051632e1a7d4d60e01b8152600481018290527f00000000000000000000000000000000000000000000000000000000000000006001600160a01b031690632e1a7d4d906024016020604051808303816000875af115801561075f573d6000803e3d6000fd5b505050506040513d601f19601f82011682018060405250810190610783919061346a565b6107cd5760405162461bcd60e51b8152602060048201526016602482015275105b5c1b1a599a595c8bddda5d1a191c985dd1985a5b60521b60448201526064015b60405180910390fd5b600080546040516001600160a01b039091169083908381818185875af1925050503d806000811461081a576040519150601f19603f3d011682016040523d82523d6000602084013e61081f565b606091505b50509050806105ab5760405162461bcd60e51b815260206004820152601960248201527f416d706c69666965722f7765695472616e736665724661696c0000000000000060448201526064016107c4565b5050565b6000805481906001600160a01b031633146108a15760405162461bcd60e51b81526004016107c490613487565b6109d27f00000000000000000000000000000000000000000000000000000000000000006001600160a01b03166304a7a1b460405180606001604052807f00000000000000000000000000000000000000000000000000000000000000006001600160a01b031681526020017f00000000000000000000000000000000000000000000000000000000000000006001600160a01b031681526020017f00000000000000000000000000000000000000000000000000000000000000008152506002546040518363ffffffff1660e01b81526004016109809291906134e5565b602060405180830381865afa15801561099d573d6000803e3d6000fd5b505050506040513d601f19601f820116820180604052508101906109c19190613500565b602c1c60016001607f1b0316151590565b15610a1f5760405162461bcd60e51b815260206004820152601d60248201527f416d706c69666965722f6f6666657231416c726561647941637469766500000060448201526064016107c4565b610afe7f00000000000000000000000000000000000000000000000000000000000000006001600160a01b03166304a7a1b460405180606001604052807f00000000000000000000000000000000000000000000000000000000000000006001600160a01b031681526020017f00000000000000000000000000000000000000000000000000000000000000006001600160a01b031681526020017f00000000000000000000000000000000000000000000000000000000000000008152506003546040518363ffffffff1660e01b81526004016109809291906134e5565b15610b4b5760405162461bcd60e51b815260206004820152601d60248201527f416d706c69666965722f6f6666657232416c726561647941637469766500000060448201526064016107c4565b6000610b57858761157d565b9050610c296040518060e0016040528060405180606001604052807f00000000000000000000000000000000000000000000000000000000000000006001600160a01b031681526020017f00000000000000000000000000000000000000000000000000000000000000006001600160a01b031681526020017f00000000000000000000000000000000000000000000000000000000000000008152508152602001838152602001888152602001610c0d611421565b815260006020820181905234604083015260609091015261159a565b50600255610c37848761157d565b9050610d0c6040518060e0016040528060405180606001604052807f00000000000000000000000000000000000000000000000000000000000000006001600160a01b031681526020017f00000000000000000000000000000000000000000000000000000000000000006001600160a01b031681526020017f00000000000000000000000000000000000000000000000000000000000000008152508152602001838152602001888152602001610ced611421565b815260200160008152602001600081526020016000151581525061159a565b50600381905560025497909650945050505050565b60007f0000000000000000000000000000000000000000000000000000000000000000336001600160a01b03821614610d6c5760405162461bcd60e51b81526004016107c490613487565b60009150610d7e8360a00135846116cb565b15610dcb5760405162461bcd60e51b815260206004820152601860248201527f6d67764f666665722f61626f72742f6765744661696c6564000000000000000060448201526064016107c4565b50919050565b6000546001600160a01b03163314610dfb5760405162461bcd60e51b81526004016107c490613487565b60005b818110156105ab57610e35838383818110610e1b57610e1b613412565b9050602002016020810190610e3091906132e8565b611880565b610e3e8161343e565b9050610dfe565b60007f0000000000000000000000000000000000000000000000000000000000000000336001600160a01b0382161480610e8957506000546001600160a01b031633145b610ea55760405162461bcd60e51b81526004016107c490613487565b610eb08585856119d6565b95945050505050565b6000546001600160a01b03163314610ee35760405162461bcd60e51b81526004016107c490613487565b6001600160a01b038116610f395760405162461bcd60e51b815260206004820152601860248201527f416363657373436f6e74726f6c6c65642f307841646d696e000000000000000060448201526064016107c4565b600080546001600160a01b0319166001600160a01b0383169081179091556040519081527f5a272403b402d892977df56625f4164ccaf70ca3863991c43ecfe76a6905b0a1906020015b60405180910390a150565b6000546001600160a01b03163314610fb85760405162461bcd60e51b81526004016107c490613487565b600019820361104c576040516370a0823160e01b81523060048201527f00000000000000000000000000000000000000000000000000000000000000006001600160a01b0316906370a0823190602401602060405180830381865afa158015611025573d6000803e3d6000fd5b505050506040513d601f19601f820116820180604052508101906110499190613500565b91505b604051632e1a7d4d60e01b8152600481018390527f00000000000000000000000000000000000000000000000000000000000000006001600160a01b031690632e1a7d4d906024016020604051808303816000875af11580156110b3573d6000803e3d6000fd5b505050506040513d601f19601f820116820180604052508101906110d7919061346a565b61111b5760405162461bcd60e51b81526020600482015260156024820152741b59dd93d999995c8bddda5d1a191c985dd1985a5b605a1b60448201526064016107c4565b6000816001600160a01b03168360405160006040518083038185875af1925050503d8060008114611168576040519150601f19603f3d011682016040523d82523d6000602084013e61116d565b606091505b50509050806105ab5760405162461bcd60e51b815260206004820152601860248201527f6d67764f666665722f7765695472616e736665724661696c000000000000000060448201526064016107c4565b6000806111d36001546001600160a01b031690565b90506001600160a01b038116156112885760405163143b7da760e11b81526001600160a01b0385811660048301528481166024830152821690632876fb4e90604401602060405180830381865afa158015611232573d6000803e3d6000fd5b505050506040513d601f19601f820116820180604052508101906112569190613500565b611280907f0000000000000000000000000000000000000000000000000000000000000000613457565b9150506112b3565b7f00000000000000000000000000000000000000000000000000000000000000009150506112b3565b505b92915050565b60006112c58383611a74565b9392505050565b6000546001600160a01b031633146112f65760405162461bcd60e51b81526004016107c490613487565b600180546001600160a01b0319166001600160a01b0383169081179091556040519081527f6de4326a8b9054d72d9dbab97d27bc4edffadee7d966f5af9cc4eafdaf8e545590602001610f83565b7f0000000000000000000000000000000000000000000000000000000000000000336001600160a01b0382161461138d5760405162461bcd60e51b81526004016107c490613487565b81602001356f6d67762f74726164655375636365737360801b036113bc576113b6838335611b39565b50505050565b60608301356113da6113d336869003860186613519565b6060902090565b6040805185358152602080870135908201527f45b7a2e43f35c7d127ad18416b3d34235d187b2060d4050bb82bb11de272a7c3910160405180910390a36113b68383611f18565b600061142e6000806111be565b905090565b600080546001600160a01b0316331461145e5760405162461bcd60e51b81526004016107c490613487565b611469848484612066565b6114b55760405162461bcd60e51b815260206004820152601760248201527f6d67764f666665722f617070726f76652f6661696c656400000000000000000060448201526064016107c4565b5060019392505050565b6114c881612073565b60006114dc6001546001600160a01b031690565b6001600160a01b03161461157a576001546001600160a01b0316604051631403b99b60e31b81526001600160a01b0383811660048301527f000000000000000000000000000000000000000000000000000000000000000081166024830152919091169063a01dccd89060440160006040518083038186803b15801561156157600080fd5b505afa158015611575573d6000803e3d6000fd5b505050505b50565b600080600061158c858561215e565b91509150610eb0828261238b565b6000807f00000000000000000000000000000000000000000000000000000000000000006001600160a01b031663f95902aa8460a00151856000015186602001518760400151886060015189608001516040518763ffffffff1660e01b815260040161160a959493929190613535565b60206040518083038185885af193505050508015611645575060408051601f3d908101601f1916820190925261164291810190613500565b60015b6116b257611651613565565b806308c379a0036116a65750611665613581565b8061167057506116a8565b8360c0015181906116945760405162461bcd60e51b81526004016107c4919061362f565b5061169e81613662565b915050915091565b505b3d6000803e3d6000fd5b936c1bd999995c8bd8dc99585d1959609a1b9350915050565b6000806116db60208401846132e8565b6040516370a0823160e01b81523060048201526001600160a01b0391909116906370a0823190602401602060405180830381865afa158015611721573d6000803e3d6000fd5b505050506040513d601f19601f820116820180604052508101906117459190613500565b90508381106117585760009150506112b3565b6117628185613686565b905060006117786001546001600160a01b031690565b90506001600160a01b038116611790575090506112b3565b60006001600160a01b03821663333dbb0d6117ae60208801886132e8565b6040516001600160e01b031960e084901b1681526001600160a01b0391821660048201527f0000000000000000000000000000000000000000000000000000000000000000909116602482018190526044820187905230141560648201526084016020604051808303816000875af115801561182e573d6000803e3d6000fd5b505050506040513d601f19601f820116820180604052508101906118529190613500565b90508281101561186b576118668184613686565b61186e565b60005b93505050506112b3565b505092915050565b60006118946001546001600160a01b031690565b90506118c3827f0000000000000000000000000000000000000000000000000000000000000000600019612066565b61190f5760405162461bcd60e51b815260206004820152601d60248201527f6d67764f666665722f617070726f76654d616e67726f76652f4661696c00000060448201526064016107c4565b6001600160a01b038116156108705761192b8282600019612066565b6119775760405162461bcd60e51b815260206004820152601a60248201527f6d67764f666665722f617070726f7665526f757465724661696c00000000000060448201526064016107c4565b604051630716a76760e21b81526001600160a01b038381166004830152821690631c5a9d9c90602401600060405180830381600087803b1580156119ba57600080fd5b505af11580156119ce573d6000803e3d6000fd5b505050505050565b604051630dcf4b9760e31b81526000906001600160a01b037f00000000000000000000000000000000000000000000000000000000000000001690636e7a5cb890611a2990879087908790600401613699565b6020604051808303816000875af1158015611a48573d6000803e3d6000fd5b505050506040513d601f19601f82011682018060405250810190611a6c9190613500565b949350505050565b6000807f00000000000000000000000000000000000000000000000000000000000000006001600160a01b031663e982fb8d85856040518363ffffffff1660e01b8152600401611ac59291906134e5565b602060405180830381865afa158015611ae2573d6000803e3d6000fd5b505050506040513d601f19601f82011682018060405250810190611b069190613500565b905062ffffff604882901c166103e86101ff603f84901c160201602582901c6303ffffff1602620f424002949350505050565b600080611b4684846126b5565b90506000806001600160a01b037f000000000000000000000000000000000000000000000000000000000000000016611b8560408801602089016132e8565b6001600160a01b031614611c1557604080516060810190915280611bac60208901896132e8565b6001600160a01b031681526020017f00000000000000000000000000000000000000000000000000000000000000006001600160a01b031681526020017f0000000000000000000000000000000000000000000000000000000000000000815250600254611c93565b604080516060810190915280611c2e60208901896132e8565b6001600160a01b031681526020017f00000000000000000000000000000000000000000000000000000000000000006001600160a01b031681526020017f00000000000000000000000000000000000000000000000000000000000000008152506003545b915091506c1bd999995c8bdd5c19185d1959609a1b8303611ee7576000611cb9876127f1565b50905060007f00000000000000000000000000000000000000000000000000000000000000006001600160a01b03166304a7a1b485856040518363ffffffff1660e01b8152600401611d0c9291906134e5565b602060405180830381865afa158015611d29573d6000803e3d6000fd5b505050506040513d601f19601f82011682018060405250810190611d4d9190613500565b905060007f00000000000000000000000000000000000000000000000000000000000000006001600160a01b031663e982fb8d86866040518363ffffffff1660e01b8152600401611d9f9291906134e5565b602060405180830381865afa158015611dbc573d6000803e3d6000fd5b505050506040513d601f19601f82011682018060405250810190611de09190613500565b90506000611ded83612826565b905060016001607f1b0360808b0135602c1c1660008186840281611e1357611e136136bd565b0490506000611e6a6040518060e001604052808b8152602001611e36858b61157d565b8152602081018a9052604001604888901c62ffffff168152600060208201819052604082015260016060909101528961284c565b90506c1bd999995c8bdd5c19185d1959609a1b8114611eb5577f706f7374686f6f6b2f616c744f666665725265706f73744661696c00000000009a50505050505050505050506112b3565b7f706f7374686f6f6b2f626f74684f666665725265706f737465640000000000009a50505050505050505050506112b3565b611ef382826000610e45565b50751c1bdcdd1a1bdbdacbd89bdd1a14995d1c9858dd195960521b93505050506112b3565b60008080806001600160a01b037f000000000000000000000000000000000000000000000000000000000000000016611f5760408801602089016132e8565b6001600160a01b031614611faf577f00000000000000000000000000000000000000000000000000000000000000007f0000000000000000000000000000000000000000000000000000000000000000600254611ff5565b7f00000000000000000000000000000000000000000000000000000000000000007f00000000000000000000000000000000000000000000000000000000000000006003545b60408051606081019091529295509093509150612043908061201a60208a018a6132e8565b6001600160a01b03168152602001856001600160a01b0316815260200184815250826000610e45565b5073706f7374686f6f6b2f626f74684661696c696e6760601b9695505050505050565b6000611a6c848484612959565b604051636eb1769f60e11b81523060048201526001600160a01b037f0000000000000000000000000000000000000000000000000000000000000000811660248301526000919083169063dd62ed3e90604401602060405180830381865afa1580156120e3573d6000803e3d6000fd5b505050506040513d601f19601f820116820180604052508101906121079190613500565b1161157a5760405162461bcd60e51b815260206004820152602160248201527f6d67764f666665722f4c6f6769634d757374417070726f76654d616e67726f766044820152606560f81b60648201526084016107c4565b60008060016001607f1b038411156121b85760405162461bcd60e51b815260206004820152601f60248201527f6d67762f726174696f46726f6d566f6c2f696e626f756e642f746f6f4269670060448201526064016107c4565b60016001607f1b0383111561220f5760405162461bcd60e51b815260206004820181905260248201527f6d67762f726174696f46726f6d566f6c2f6f7574626f756e642f746f6f42696760448201526064016107c4565b8260000361223257506ffffb12cdf1087799c03e5a811a7aaa1c90506000612384565b8360000361225557506f800276a52a62a71c29fc1cc441e523bc905060ff612384565b600083608086901b8161226a5761226a6136bd565b0490506000612303827e09010a0d15021d0b0e10121619031e080c141c0f111807131b17061a05041f6307c4acdd60e01b6fffffffffffffffffffffffffffffffff831160071b8315600890811b9190911784811c67ffffffffffffffff1060061b1784811c63ffffffff1060051b1793841c600181901c17600281901c17600481901c179081901c17601081901c170260fb1c1a1790565b9050816000036123555760405162461bcd60e51b815260206004820152601e60248201527f6d67762f726174696f46726f6d566f6c756d65732f7a65726f526174696f000060448201526064016107c4565b607f81111561237657607e1981019190911c9250608003607f019050612384565b607f0390811b925060800190505b9250929050565b60006123aa83836f800276a52a62a71c29fc1cc441e523bc60ff612a2d565b156123f75760405162461bcd60e51b815260206004820152601860248201527f6d67762f7469636b46726f6d526174696f2f746f6f4c6f77000000000000000060448201526064016107c4565b6124146ffffb12cdf1087799c03e5a811a7aaa1c60008585612a2d565b156124615760405162461bcd60e51b815260206004820152601960248201527f6d67762f7469636b46726f6d526174696f2f746f6f486967680000000000000060448201526064016107c4565b6000604061247084607f6136d3565b901b90506000612481607f80613686565b85901c800260c081901c6780000000000000001692909217607f83811c60ff94851c1c800260c181901c674000000000000000169290921782821c92851c9290921c800260c281901c672000000000000000169290921782821c92851c9290921c800260c381901c671000000000000000169290921782821c92851c9290921c800260c481901c670800000000000000169290921782821c92851c9290921c800260c581901c670400000000000000169290921782821c92851c9290921c800260c681901c670200000000000000169290921782821c92851c9290921c800260c781901c670100000000000000169290921782821c92851c9290921c800260c881901c6680000000000000169290921782821c92851c9290921c800260c981901c6640000000000000169290921782821c92851c9290921c800260ca81901c6620000000000000169290921782821c92851c9290921c800260cb81901c6610000000000000169290921782821c9290941c9190911c800260cc81901c6608000000000000169390931792901c9050600061262583691b13d180eb882abba6436136f3565b9050600060806126456f0147b240d5bf82739a122ad496972236846136d3565b901d905060006080612667846fd9e63e52eeeb7875a857348794e73675613723565b901d905060008061267783612a4c565b9150915060006126898b8b8585612a2d565b9050838514806126965750805b156126a3578498506126a7565b8398505b505050505050505092915050565b6000806126ca6001546001600160a01b031690565b90506001600160a01b038116156127e75760408051600280825260608201835260009260208301908036833701905050905061270960208601866132e8565b8160008151811061271c5761271c613412565b6001600160a01b0390921660209283029190910182015261274390604087019087016132e8565b8160018151811061275657612756613412565b6001600160a01b039283166020918202929092010152604051633e142a0760e21b81529083169063f850a81c906127b39084907f000000000000000000000000000000000000000000000000000000000000000090600401613743565b600060405180830381600087803b1580156127cd57600080fd5b505af11580156127e1573d6000803e3d6000fd5b50505050505b611a6c8484612abe565b60008061281260a084013560016001607f1b036080860135602c1c16613686565b9150608083013560401b60eb1d9050915091565b60006112b3602c83901c60016001607f1b03166128468460401b60eb1d90565b90612b7e565b60007f00000000000000000000000000000000000000000000000000000000000000006001600160a01b031663a84b08c88460a0015185600001518660200151876040015188606001518960800151896040518863ffffffff1660e01b81526004016128bd969594939291906137a0565b6000604051808303818588803b1580156128d657600080fd5b505af1935050505080156128e8575060015b612941576128f4613565565b806308c379a0036116a65750612908613581565b8061291357506116a8565b8360c0015181906129375760405162461bcd60e51b81526004016107c4919061362f565b5061128081613662565b506c1bd999995c8bdd5c19185d1959609a1b92915050565b604080516001600160a01b038481166024830152604480830185905283518084039091018152606490920183526020820180516001600160e01b031663095ea7b360e01b179052915160009283928392918816916129b791906137d7565b6000604051808303816000865af19150503d80600081146129f4576040519150601f19603f3d011682016040523d82523d6000602084013e6129f9565b606091505b5091509150818015612a23575080511580612a23575080806020019051810190612a23919061346a565b9695505050505050565b600081841180610eb057508184148015610eb057505050909110919050565b600080612a5883612baa565b909250905060eb83901b60007ed89e8c075c4155dd3213326cbbcf86fd1f63f5c205dd2ad2cf44f9349b39e180830782139083050390607e198285010190811315612aa65793841c93612ab0565b8060000385901b94505b81607f039350505050915091565b6000806000612acc856127f1565b915091508160001480612ae65750612ae48183613003565b155b15612b04576b1bd999995c8bd99a5b1b195960a21b925050506112b3565b6040805160e08101909152612b719080612b2336899003890189613519565b8152602081018490526040810185905260600160e088013560481c62ffffff16815260200160e088013560251c6303ffffff168152600060208201526001604090910152606087013561284c565b925061187885858561302c565b6000806000612b8c85612a4c565b91509150610eb0848302826001811b600019018216151591901c0190565b6000806000808412612bbc5783612bc5565b612bc5846137f3565b9050620d89e8811115612c1a5760405162461bcd60e51b815260206004820152601760248201527f6d67762f6162735469636b2f6f75744f66426f756e647300000000000000000060448201526064016107c4565b60006001821615612c3d576ffff97272373d413259a46990580e21399350612c45565b600160801b93505b6002821615612c6f576080612c6a856ffff2e50f5f656932ef12357cf3c7fdcb61380f565b901c93505b6004821615612c99576080612c94856fffe5caca7e10e4e61c3624eaa0941ccf61380f565b901c93505b6008821615612cc3576080612cbe856fffcb9843d60f6159c9db58835c92664361380f565b901c93505b6010821615612ced576080612ce8856fff973b41fa98c081472e6896dfb254bf61380f565b901c93505b6020821615612d17576080612d12856fff2ea16466c96a3843ec78b326b5286061380f565b901c93505b6040821615612d41576080612d3c856ffe5dee046a99a2a811c461f1969c305261380f565b901c93505b6080821615612d6b576080612d66856ffcbe86c7900a88aedcffc83b479aa3a361380f565b901c93505b610100821615612d96576080612d91856ff987a7253ac413176f2b074cf7815e5361380f565b901c93505b610200821615612dc1576080612dbc856ff3392b0822b70005940c7a398e4b70f261380f565b901c93505b610400821615612dec576080612de7856fe7159475a2c29b7443b29c7fa6e889d861380f565b901c93505b610800821615612e17576080612e12856fd097f3bdfd2022b8845ad8f792aa582561380f565b901c93505b611000821615612e42576080612e3d856fa9f746462d870fdf8a65dc1f90e061e461380f565b901c93505b612000821615612e7a576080612e68856fe1b0d342ada5437121767bec575e65ed61380f565b901c9350612e77600182613723565b90505b614000821615612eb2576080612ea0856fc6f84d7e5f423f66048c541550bf3e9661380f565b901c9350612eaf600282613723565b90505b618000821615612eea576080612ed8856f9aa508b5b7a84e1c677de54f3e99bc8f61380f565b901c9350612ee7600482613723565b90505b62010000821615612f23576080612f11856fbad5f1bdb70232cd33865244bdcc089c61380f565b901c9350612f20600982613723565b90505b62020000821615612f5c576080612f4a856f885b9613d7e87aa498106fb7fa5edd3761380f565b901c9350612f59601282613723565b90505b62040000821615612f95576080612f83856f9142e0723efb884889d1f447715afacd61380f565b901c9350612f92602582613723565b90505b62080000821615612fce576080612fbc856fa4d9a773d61316918f140bd96e8e681461380f565b901c9350612fcb604b82613723565b90505b6000851315612fef57600184856000030401935080612fec906137f3565b90505b612ffa816080613723565b92505050915091565b600080600061301185612a4c565b909250905080613021858461380f565b901c95945050505050565b6b1bd999995c8bd99a5b1b195960a21b81148061305857506c1bd999995c8bdd5c19185d1959609a1b81145b806130825750807f6d67762f77726974654f666665722f64656e736974792f746f6f4c6f77000000145b1561308c57505050565b60608301356130a36113d336869003860186613519565b60408051858152602081018590527f45b7a2e43f35c7d127ad18416b3d34235d187b2060d4050bb82bb11de272a7c3910160405180910390a3505050565b600080602083850312156130f457600080fd5b823567ffffffffffffffff8082111561310c57600080fd5b818501915085601f83011261312057600080fd5b81358181111561312f57600080fd5b8660208260051b850101111561314457600080fd5b60209290920196919550909350505050565b801515811461157a57600080fd5b60006020828403121561317657600080fd5b81356112c581613156565b60008060006060848603121561319657600080fd5b505081359360208301359350604090920135919050565b60006101408284031215610dcb57600080fd5b600061014082840312156131d357600080fd5b6112c583836131ad565b601f8201601f1916810167ffffffffffffffff8111828210171561321157634e487b7160e01b600052604160045260246000fd5b6040525050565b6001600160a01b038116811461157a57600080fd5b60006060828403121561323f57600080fd5b6040516060810181811067ffffffffffffffff8211171561327057634e487b7160e01b600052604160045260246000fd5b604052905080823561328181613218565b8152602083013561329181613218565b6020820152604092830135920191909152919050565b600080600060a084860312156132bc57600080fd5b6132c6858561322d565b92506060840135915060808401356132dd81613156565b809150509250925092565b6000602082840312156132fa57600080fd5b81356112c581613218565b6000806040838503121561331857600080fd5b82359150602083013561332a81613218565b809150509250929050565b6000806040838503121561334857600080fd5b823561335381613218565b9150602083013561332a81613218565b6000806080838503121561337657600080fd5b613380848461322d565b946060939093013593505050565b6000808284036101808112156133a357600080fd5b6133ad85856131ad565b9250604061013f19820112156133c257600080fd5b50610140830190509250929050565b6000806000606084860312156133e657600080fd5b83356133f181613218565b9250602084013561340181613218565b929592945050506040919091013590565b634e487b7160e01b600052603260045260246000fd5b634e487b7160e01b600052601160045260246000fd5b60006001820161345057613450613428565b5060010190565b808201808211156112b3576112b3613428565b60006020828403121561347c57600080fd5b81516112c581613156565b60208082526018908201527f416363657373436f6e74726f6c6c65642f496e76616c69640000000000000000604082015260600190565b80516001600160a01b03908116835260208083015190911690830152604090810151910152565b608081016134f382856134be565b8260608301529392505050565b60006020828403121561351257600080fd5b5051919050565b60006060828403121561352b57600080fd5b6112c5838361322d565b60e0810161354382886134be565b8560608301528460808301528360a08301528260c08301529695505050505050565b600060033d111561357e5760046000803e5060005160e01c5b90565b600060443d101561358f5790565b6040516003193d81016004833e81513d67ffffffffffffffff81602484011181841117156135bf57505050505090565b82850191508151818111156135d75750505050505090565b843d87010160208285010111156135f15750505050505090565b613600602082860101876131dd565b509095945050505050565b60005b8381101561362657818101518382015260200161360e565b50506000910152565b602081526000825180602084015261364e81604085016020870161360b565b601f01601f19169190910160400192915050565b80516020808301519190811015610dcb5760001960209190910360031b1b16919050565b818103818111156112b3576112b3613428565b60a081016136a782866134be565b8360608301528215156080830152949350505050565b634e487b7160e01b600052601260045260246000fd5b81810360008312801583831316838312821617156112b1576112b1613428565b80820260008212600160ff1b8414161561370f5761370f613428565b81810583148215176112b3576112b3613428565b808201828112600083128015821682158216171561187857611878613428565b604080825283519082018190526000906020906060840190828701845b828110156137855781516001600160a01b031684529284019290840190600101613760565b5050506001600160a01b039490941692019190915250919050565b61010081016137af82896134be565b6060820196909652608081019490945260a084019290925260c083015260e090910152919050565b600082516137e981846020870161360b565b9190910192915050565b6000600160ff1b820161380857613808613428565b5060000390565b80820281158282048414176112b3576112b361342856fea264697066735822122004fe444cb894e06d30fe873e8b36caea9f24cc5aeb15967a0e9bf038dd92d3b664736f6c6343000814003360a060405234801561001057600080fd5b506201117033806100675760405162461bcd60e51b815260206004820152601860248201527f416363657373436f6e74726f6c6c65642f307841646d696e0000000000000000604482015260640160405180910390fd5b600080546001600160a01b0319166001600160a01b0392909216919091179055608052608051610ee86100ac6000396000818161017801526102c40152610ee86000f3fe608060405234801561001057600080fd5b50600436106100ea5760003560e01c806381bac14f1161008c578063cf5e7bd311610066578063cf5e7bd3146101db578063f850a81c146101ee578063f851a44014610201578063fe380db51461021c57600080fd5b806381bac14f146101ad578063a01dccd8146101c0578063b6b25742146101d357600080fd5b80632f37b624116100c85780632f37b6241461013d578063333dbb0d146101605780633871cb3f14610173578063704b6c021461019a57600080fd5b80631c5a9d9c146100ef57806326e8eda2146101045780632876fb4e1461012a575b600080fd5b6101026100fd366004610c5b565b61022f565b005b610117610112366004610c78565b610274565b6040519081526020015b60405180910390f35b610117610138366004610cb9565b6102c0565b61015061014b366004610c5b565b6102e8565b6040519015158152602001610121565b61011761016e366004610d00565b610306565b6101177f000000000000000000000000000000000000000000000000000000000000000081565b6101026101a8366004610c5b565b61035c565b6101026101bb366004610c5b565b610430565b6101026101ce366004610cb9565b6104a9565b6101026105d4565b6101026101e9366004610c5b565b610604565b6101026101fc366004610d53565b610637565b6000546040516001600160a01b039091168152602001610121565b61011761022a366004610cb9565b61078c565b6000546001600160a01b031633148061024c575061024c336102e8565b6102715760405162461bcd60e51b815260040161026890610dd9565b60405180910390fd5b50565b600061027f336102e8565b61029b5760405162461bcd60e51b815260040161026890610dd9565b816000036102ab575060006102b9565b6102b68484846107fa565b90505b9392505050565b60007f00000000000000000000000000000000000000000000000000000000000000006102b9565b6001600160a01b031660009081526001602052604090205460ff1690565b6000610311336102e8565b61032d5760405162461bcd60e51b815260040161026890610dd9565b818015610338575082155b1561034557506000610354565b61035185858585610822565b90505b949350505050565b6000546001600160a01b031633146103865760405162461bcd60e51b815260040161026890610dd9565b6001600160a01b0381166103dc5760405162461bcd60e51b815260206004820152601860248201527f416363657373436f6e74726f6c6c65642f307841646d696e00000000000000006044820152606401610268565b600080546001600160a01b0319166001600160a01b0383169081179091556040519081527f5a272403b402d892977df56625f4164ccaf70ca3863991c43ecfe76a6905b0a19060200160405180910390a150565b6000546001600160a01b0316331461045a5760405162461bcd60e51b815260040161026890610dd9565b6001600160a01b0381166000818152600160208190526040808320805460ff1916909217909155517fecac69b9e48a248381b74f2e1cf855cc6afc2f410751325703374c70351035bc9190a250565b6104b2336102e8565b6104fe5760405162461bcd60e51b815260206004820152601f60248201527f526f757465722f63616c6c657249734e6f74426f756e64546f526f75746572006044820152606401610268565b604051636eb1769f60e11b81523360048201523060248201526000906001600160a01b0384169063dd62ed3e90604401602060405180830381865afa15801561054b573d6000803e3d6000fd5b505050506040513d601f19601f8201168201806040525081019061056f9190610e10565b116105c65760405162461bcd60e51b815260206004820152602160248201527f526f757465722f4e6f74417070726f76656442794d616b6572436f6e747261636044820152601d60fa1b6064820152608401610268565b6105d082826108bc565b5050565b6105dd336102e8565b6105f95760405162461bcd60e51b815260040161026890610dd9565b6106023361097d565b565b6000546001600160a01b0316331461062e5760405162461bcd60e51b815260040161026890610dd9565b6102718161097d565b610640336102e8565b61065c5760405162461bcd60e51b815260040161026890610dd9565b60005b8281101561078657600084848381811061067b5761067b610e29565b90506020020160208101906106909190610c5b565b6040516370a0823160e01b81523360048201526001600160a01b0391909116906370a0823190602401602060405180830381865afa1580156106d6573d6000803e3d6000fd5b505050506040513d601f19601f820116820180604052508101906106fa9190610e10565b90508015610775578061073486868581811061071857610718610e29565b905060200201602081019061072d9190610c5b565b85846107fa565b146107755760405162461bcd60e51b81526020600482015260116024820152701c9bdd5d195c8bdc1d5cda11985a5b1959607a1b6044820152606401610268565b5061077f81610e3f565b905061065f565b50505050565b6040516370a0823160e01b81526001600160a01b038281166004830152600091908416906370a0823190602401602060405180830381865afa1580156107d6573d6000803e3d6000fd5b505050506040513d601f19601f820116820180604052508101906102b99190610e10565b600080610809853386866109c6565b905080610817576000610819565b825b95945050505050565b600081610898576040516370a0823160e01b81526001600160a01b0385811660048301528616906370a0823190602401602060405180830381865afa15801561086f573d6000803e3d6000fd5b505050506040513d601f19601f820116820180604052508101906108939190610e10565b61089a565b825b92506108a8858533866109c6565b156108b4575081610354565b506000610354565b604051636eb1769f60e11b81526001600160a01b0382811660048301523060248301526000919084169063dd62ed3e90604401602060405180830381865afa15801561090c573d6000803e3d6000fd5b505050506040513d601f19601f820116820180604052508101906109309190610e10565b116105d05760405162461bcd60e51b815260206004820152601f60248201527f53696d706c65526f757465722f4e6f74417070726f76656442794f776e6572006044820152606401610268565b6001600160a01b038116600081815260016020526040808220805460ff19169055517f30a4a29afb6d28e62264c8b7cd43fe3a5edce91f4b9c8591b23a99b3838686b59190a250565b6000816000036109d857506001610354565b826001600160a01b0316846001600160a01b031603610a67576040516370a0823160e01b81526001600160a01b0385811660048301528391908716906370a0823190602401602060405180830381865afa158015610a3a573d6000803e3d6000fd5b505050506040513d601f19601f82011682018060405250810190610a5e9190610e10565b10159050610354565b306001600160a01b03851603610a8957610a82858484610a95565b9050610354565b61035185858585610b69565b604080516001600160a01b038481166024830152604480830185905283518084039091018152606490920183526020820180516001600160e01b031663a9059cbb60e01b17905291516000928392839291881691610af39190610e66565b6000604051808303816000865af19150503d8060008114610b30576040519150601f19603f3d011682016040523d82523d6000602084013e610b35565b606091505b5091509150818015610b5f575080511580610b5f575080806020019051810190610b5f9190610e95565b9695505050505050565b604080516001600160a01b0385811660248301528481166044830152606480830185905283518084039091018152608490920183526020820180516001600160e01b03166323b872dd60e01b17905291516000928392839291891691610bcf9190610e66565b6000604051808303816000865af19150503d8060008114610c0c576040519150601f19603f3d011682016040523d82523d6000602084013e610c11565b606091505b5091509150818015610c3b575080511580610c3b575080806020019051810190610c3b9190610e95565b979650505050505050565b6001600160a01b038116811461027157600080fd5b600060208284031215610c6d57600080fd5b81356102b981610c46565b600080600060608486031215610c8d57600080fd5b8335610c9881610c46565b92506020840135610ca881610c46565b929592945050506040919091013590565b60008060408385031215610ccc57600080fd5b8235610cd781610c46565b91506020830135610ce781610c46565b809150509250929050565b801515811461027157600080fd5b60008060008060808587031215610d1657600080fd5b8435610d2181610c46565b93506020850135610d3181610c46565b9250604085013591506060850135610d4881610cf2565b939692955090935050565b600080600060408486031215610d6857600080fd5b833567ffffffffffffffff80821115610d8057600080fd5b818601915086601f830112610d9457600080fd5b813581811115610da357600080fd5b8760208260051b8501011115610db857600080fd5b60209283019550935050840135610dce81610c46565b809150509250925092565b60208082526018908201527f416363657373436f6e74726f6c6c65642f496e76616c69640000000000000000604082015260600190565b600060208284031215610e2257600080fd5b5051919050565b634e487b7160e01b600052603260045260246000fd5b600060018201610e5f57634e487b7160e01b600052601160045260246000fd5b5060010190565b6000825160005b81811015610e875760208186018101518583015201610e6d565b506000920191825250919050565b600060208284031215610ea757600080fd5b81516102b981610cf256fea2646970667358221220488559b74d71829856bcef9dfe67dd11cd479cfea710cbfa15ab298e063ada0f64736f6c63430008140033",
    "linkReferences": {}
  },
  "methodIdentifiers": {
    "BASE()": "ec342ad0",
    "CONSTANT_GASREQ()": "9eb7d4fe",
    "MGV()": "99fa5e2d",
    "NO_ROUTER()": "5570db1d",
    "RESERVE_ID()": "fbc7d10b",
    "STABLE1()": "5450af30",
    "STABLE2()": "6a7ee749",
    "TICK_SPACING1()": "eafb6141",
    "TICK_SPACING2()": "bbce228e",
    "activate(address[])": "5293840d",
    "admin()": "f851a440",
    "approve(address,address,uint256)": "e1f21c67",
    "checkList(address[])": "03eb17e2",
    "makerExecute(((address,address,uint256),uint256,uint256,uint256,uint256,uint256,uint256,uint256))": "2380fafd",
    "makerPosthook(((address,address,uint256),uint256,uint256,uint256,uint256,uint256,uint256,uint256),(bytes32,bytes32))": "c7e1bb44",
    "newAmplifiedOffers(uint256,uint256,uint256)": "15986e4a",
    "offerGasreq()": "cfcd2679",
    "offerGasreq(address,address)": "820db1f7",
    "provisionOf((address,address,uint256),uint256)": "a24f2b2d",
    "retractOffer((address,address,uint256),uint256,bool)": "6e7a5cb8",
    "retractOffers(bool)": "150957c7",
    "router()": "f887ea40",
    "setAdmin(address)": "704b6c02",
    "setRouter(address)": "c0d78655",
    "withdrawFromMangrove(uint256,address)": "7144df24"
  },
  "id": 130
}