{
  "abi": [
    {
      "inputs": [
        {
          "internalType": "address",
          "name": "governance",
          "type": "address"
        },
        {
          "internalType": "uint256",
          "name": "gasprice",
          "type": "uint256"
        },
        {
          "internalType": "uint256",
          "name": "gasmax",
          "type": "uint256"
        }
      ],
      "stateMutability": "nonpayable",
      "type": "constructor"
    },
    {
      "anonymous": false,
      "inputs": [
        {
          "indexed": true,
          "internalType": "address",
          "name": "outbound_tkn",
          "type": "address"
        },
        {
          "indexed": true,
          "internalType": "address",
          "name": "inbound_tkn",
          "type": "address"
        },
        {
          "indexed": true,
          "internalType": "address",
          "name": "owner",
          "type": "address"
        },
        {
          "indexed": false,
          "internalType": "address",
          "name": "spender",
          "type": "address"
        },
        {
          "indexed": false,
          "internalType": "uint256",
          "name": "value",
          "type": "uint256"
        }
      ],
      "name": "Approval",
      "type": "event"
    },
    {
      "anonymous": false,
      "inputs": [],
      "name": "CleanComplete",
      "type": "event"
    },
    {
      "anonymous": false,
      "inputs": [
        {
          "indexed": true,
          "internalType": "bytes32",
          "name": "olKeyHash",
          "type": "bytes32"
        },
        {
          "indexed": true,
          "internalType": "address",
          "name": "taker",
          "type": "address"
        },
        {
          "indexed": false,
          "internalType": "uint256",
          "name": "offersToBeCleaned",
          "type": "uint256"
        }
      ],
      "name": "CleanStart",
      "type": "event"
    },
    {
      "anonymous": false,
      "inputs": [
        {
          "indexed": true,
          "internalType": "address",
          "name": "maker",
          "type": "address"
        },
        {
          "indexed": false,
          "internalType": "uint256",
          "name": "amount",
          "type": "uint256"
        }
      ],
      "name": "Credit",
      "type": "event"
    },
    {
      "anonymous": false,
      "inputs": [
        {
          "indexed": true,
          "internalType": "address",
          "name": "maker",
          "type": "address"
        },
        {
          "indexed": false,
          "internalType": "uint256",
          "name": "amount",
          "type": "uint256"
        }
      ],
      "name": "Debit",
      "type": "event"
    },
    {
      "anonymous": false,
      "inputs": [],
      "name": "Kill",
      "type": "event"
    },
    {
      "anonymous": false,
      "inputs": [],
      "name": "NewMgv",
      "type": "event"
    },
    {
      "anonymous": false,
      "inputs": [
        {
          "indexed": true,
          "internalType": "bytes32",
          "name": "olKeyHash",
          "type": "bytes32"
        },
        {
          "indexed": true,
          "internalType": "address",
          "name": "taker",
          "type": "address"
        },
        {
          "indexed": true,
          "internalType": "uint256",
          "name": "id",
          "type": "uint256"
        },
        {
          "indexed": false,
          "internalType": "uint256",
          "name": "takerWants",
          "type": "uint256"
        },
        {
          "indexed": false,
          "internalType": "uint256",
          "name": "takerGives",
          "type": "uint256"
        },
        {
          "indexed": false,
          "internalType": "uint256",
          "name": "penalty",
          "type": "uint256"
        },
        {
          "indexed": false,
          "internalType": "bytes32",
          "name": "mgvData",
          "type": "bytes32"
        }
      ],
      "name": "OfferFail",
      "type": "event"
    },
    {
      "anonymous": false,
      "inputs": [
        {
          "indexed": true,
          "internalType": "bytes32",
          "name": "olKeyHash",
          "type": "bytes32"
        },
        {
          "indexed": true,
          "internalType": "address",
          "name": "taker",
          "type": "address"
        },
        {
          "indexed": true,
          "internalType": "uint256",
          "name": "id",
          "type": "uint256"
        },
        {
          "indexed": false,
          "internalType": "uint256",
          "name": "takerWants",
          "type": "uint256"
        },
        {
          "indexed": false,
          "internalType": "uint256",
          "name": "takerGives",
          "type": "uint256"
        },
        {
          "indexed": false,
          "internalType": "uint256",
          "name": "penalty",
          "type": "uint256"
        },
        {
          "indexed": false,
          "internalType": "bytes32",
          "name": "mgvData",
          "type": "bytes32"
        },
        {
          "indexed": false,
          "internalType": "bytes32",
          "name": "posthookData",
          "type": "bytes32"
        }
      ],
      "name": "OfferFailWithPosthookData",
      "type": "event"
    },
    {
      "anonymous": false,
      "inputs": [
        {
          "indexed": true,
          "internalType": "bytes32",
          "name": "olKeyHash",
          "type": "bytes32"
        },
        {
          "indexed": true,
          "internalType": "address",
          "name": "maker",
          "type": "address"
        },
        {
          "indexed": false,
          "internalType": "uint256",
          "name": "id",
          "type": "uint256"
        },
        {
          "indexed": false,
          "internalType": "bool",
          "name": "deprovision",
          "type": "bool"
        }
      ],
      "name": "OfferRetract",
      "type": "event"
    },
    {
      "anonymous": false,
      "inputs": [
        {
          "indexed": true,
          "internalType": "bytes32",
          "name": "olKeyHash",
          "type": "bytes32"
        },
        {
          "indexed": true,
          "internalType": "address",
          "name": "taker",
          "type": "address"
        },
        {
          "indexed": true,
          "internalType": "uint256",
          "name": "id",
          "type": "uint256"
        },
        {
          "indexed": false,
          "internalType": "uint256",
          "name": "takerWants",
          "type": "uint256"
        },
        {
          "indexed": false,
          "internalType": "uint256",
          "name": "takerGives",
          "type": "uint256"
        }
      ],
      "name": "OfferSuccess",
      "type": "event"
    },
    {
      "anonymous": false,
      "inputs": [
        {
          "indexed": true,
          "internalType": "bytes32",
          "name": "olKeyHash",
          "type": "bytes32"
        },
        {
          "indexed": true,
          "internalType": "address",
          "name": "taker",
          "type": "address"
        },
        {
          "indexed": true,
          "internalType": "uint256",
          "name": "id",
          "type": "uint256"
        },
        {
          "indexed": false,
          "internalType": "uint256",
          "name": "takerWants",
          "type": "uint256"
        },
        {
          "indexed": false,
          "internalType": "uint256",
          "name": "takerGives",
          "type": "uint256"
        },
        {
          "indexed": false,
          "internalType": "bytes32",
          "name": "posthookData",
          "type": "bytes32"
        }
      ],
      "name": "OfferSuccessWithPosthookData",
      "type": "event"
    },
    {
      "anonymous": false,
      "inputs": [
        {
          "indexed": true,
          "internalType": "bytes32",
          "name": "olKeyHash",
          "type": "bytes32"
        },
        {
          "indexed": true,
          "internalType": "address",
          "name": "maker",
          "type": "address"
        },
        {
          "indexed": false,
          "internalType": "int256",
          "name": "tick",
          "type": "int256"
        },
        {
          "indexed": false,
          "internalType": "uint256",
          "name": "gives",
          "type": "uint256"
        },
        {
          "indexed": false,
          "internalType": "uint256",
          "name": "gasprice",
          "type": "uint256"
        },
        {
          "indexed": false,
          "internalType": "uint256",
          "name": "gasreq",
          "type": "uint256"
        },
        {
          "indexed": false,
          "internalType": "uint256",
          "name": "id",
          "type": "uint256"
        }
      ],
      "name": "OfferWrite",
      "type": "event"
    },
    {
      "anonymous": false,
      "inputs": [
        {
          "indexed": true,
          "internalType": "bytes32",
          "name": "olKeyHash",
          "type": "bytes32"
        },
        {
          "indexed": true,
          "internalType": "address",
          "name": "taker",
          "type": "address"
        },
        {
          "indexed": false,
          "internalType": "uint256",
          "name": "fee",
          "type": "uint256"
        }
      ],
      "name": "OrderComplete",
      "type": "event"
    },
    {
      "anonymous": false,
      "inputs": [
        {
          "indexed": true,
          "internalType": "bytes32",
          "name": "olKeyHash",
          "type": "bytes32"
        },
        {
          "indexed": true,
          "internalType": "address",
          "name": "taker",
          "type": "address"
        },
        {
          "indexed": false,
          "internalType": "Tick",
          "name": "maxTick",
          "type": "int256"
        },
        {
          "indexed": false,
          "internalType": "uint256",
          "name": "fillVolume",
          "type": "uint256"
        },
        {
          "indexed": false,
          "internalType": "bool",
          "name": "fillWants",
          "type": "bool"
        }
      ],
      "name": "OrderStart",
      "type": "event"
    },
    {
      "anonymous": false,
      "inputs": [
        {
          "indexed": true,
          "internalType": "bytes32",
          "name": "olKeyHash",
          "type": "bytes32"
        },
        {
          "indexed": true,
          "internalType": "address",
          "name": "outbound_tkn",
          "type": "address"
        },
        {
          "indexed": true,
          "internalType": "address",
          "name": "inbound_tkn",
          "type": "address"
        },
        {
          "indexed": false,
          "internalType": "uint256",
          "name": "tickSpacing",
          "type": "uint256"
        },
        {
          "indexed": false,
          "internalType": "bool",
          "name": "value",
          "type": "bool"
        }
      ],
      "name": "SetActive",
      "type": "event"
    },
    {
      "anonymous": false,
      "inputs": [
        {
          "indexed": true,
          "internalType": "bytes32",
          "name": "olKeyHash",
          "type": "bytes32"
        },
        {
          "indexed": false,
          "internalType": "uint256",
          "name": "value",
          "type": "uint256"
        }
      ],
      "name": "SetDensity96X32",
      "type": "event"
    },
    {
      "anonymous": false,
      "inputs": [
        {
          "indexed": true,
          "internalType": "bytes32",
          "name": "olKeyHash",
          "type": "bytes32"
        },
        {
          "indexed": false,
          "internalType": "uint256",
          "name": "value",
          "type": "uint256"
        }
      ],
      "name": "SetFee",
      "type": "event"
    },
    {
      "anonymous": false,
      "inputs": [
        {
          "indexed": true,
          "internalType": "bytes32",
          "name": "olKeyHash",
          "type": "bytes32"
        },
        {
          "indexed": false,
          "internalType": "uint256",
          "name": "offer_gasbase",
          "type": "uint256"
        }
      ],
      "name": "SetGasbase",
      "type": "event"
    },
    {
      "anonymous": false,
      "inputs": [
        {
          "indexed": false,
          "internalType": "uint256",
          "name": "value",
          "type": "uint256"
        }
      ],
      "name": "SetGasmax",
      "type": "event"
    },
    {
      "anonymous": false,
      "inputs": [
        {
          "indexed": false,
          "internalType": "uint256",
          "name": "value",
          "type": "uint256"
        }
      ],
      "name": "SetGasprice",
      "type": "event"
    },
    {
      "anonymous": false,
      "inputs": [
        {
          "indexed": false,
          "internalType": "address",
          "name": "value",
          "type": "address"
        }
      ],
      "name": "SetGovernance",
      "type": "event"
    },
    {
      "anonymous": false,
      "inputs": [
        {
          "indexed": false,
          "internalType": "uint256",
          "name": "value",
          "type": "uint256"
        }
      ],
      "name": "SetMaxGasreqForFailingOffers",
      "type": "event"
    },
    {
      "anonymous": false,
      "inputs": [
        {
          "indexed": false,
          "internalType": "uint256",
          "name": "value",
          "type": "uint256"
        }
      ],
      "name": "SetMaxRecursionDepth",
      "type": "event"
    },
    {
      "anonymous": false,
      "inputs": [
        {
          "indexed": false,
          "internalType": "address",
          "name": "value",
          "type": "address"
        }
      ],
      "name": "SetMonitor",
      "type": "event"
    },
    {
      "anonymous": false,
      "inputs": [
        {
          "indexed": false,
          "internalType": "bool",
          "name": "value",
          "type": "bool"
        }
      ],
      "name": "SetNotify",
      "type": "event"
    },
    {
      "anonymous": false,
      "inputs": [
        {
          "indexed": false,
          "internalType": "bool",
          "name": "value",
          "type": "bool"
        }
      ],
      "name": "SetUseOracle",
      "type": "event"
    },
    {
      "stateMutability": "nonpayable",
      "type": "fallback"
    },
    {
      "inputs": [],
      "name": "DOMAIN_SEPARATOR",
      "outputs": [
        {
          "internalType": "bytes32",
          "name": "",
          "type": "bytes32"
        }
      ],
      "stateMutability": "view",
      "type": "function"
    },
    {
      "inputs": [
        {
          "internalType": "address",
          "name": "outbound_tkn",
          "type": "address"
        },
        {
          "internalType": "address",
          "name": "inbound_tkn",
          "type": "address"
        },
        {
          "internalType": "address",
          "name": "spender",
          "type": "address"
        },
        {
          "internalType": "uint256",
          "name": "value",
          "type": "uint256"
        }
      ],
      "name": "approve",
      "outputs": [
        {
          "internalType": "bool",
          "name": "",
          "type": "bool"
        }
      ],
      "stateMutability": "nonpayable",
      "type": "function"
    },
    {
      "inputs": [
        {
          "components": [
            {
              "internalType": "address",
              "name": "outbound_tkn",
              "type": "address"
            },
            {
              "internalType": "address",
              "name": "inbound_tkn",
              "type": "address"
            },
            {
              "internalType": "uint256",
              "name": "tickSpacing",
              "type": "uint256"
            }
          ],
          "internalType": "struct OLKey",
          "name": "olKey",
          "type": "tuple"
        },
        {
          "components": [
            {
              "internalType": "uint256",
              "name": "offerId",
              "type": "uint256"
            },
            {
              "internalType": "Tick",
              "name": "tick",
              "type": "int256"
            },
            {
              "internalType": "uint256",
              "name": "gasreq",
              "type": "uint256"
            },
            {
              "internalType": "uint256",
              "name": "takerWants",
              "type": "uint256"
            }
          ],
          "internalType": "struct MgvLib.CleanTarget[]",
          "name": "targets",
          "type": "tuple[]"
        },
        {
          "internalType": "address",
          "name": "taker",
          "type": "address"
        }
      ],
      "name": "cleanByImpersonation",
      "outputs": [
        {
          "internalType": "uint256",
          "name": "successes",
          "type": "uint256"
        },
        {
          "internalType": "uint256",
          "name": "bounty",
          "type": "uint256"
        }
      ],
      "stateMutability": "nonpayable",
      "type": "function"
    },
    {
      "inputs": [
        {
          "components": [
            {
              "components": [
                {
                  "internalType": "address",
                  "name": "outbound_tkn",
                  "type": "address"
                },
                {
                  "internalType": "address",
                  "name": "inbound_tkn",
                  "type": "address"
                },
                {
                  "internalType": "uint256",
                  "name": "tickSpacing",
                  "type": "uint256"
                }
              ],
              "internalType": "struct OLKey",
              "name": "olKey",
              "type": "tuple"
            },
            {
              "internalType": "uint256",
              "name": "offerId",
              "type": "uint256"
            },
            {
              "internalType": "Offer",
              "name": "offer",
              "type": "uint256"
            },
            {
              "internalType": "uint256",
              "name": "takerWants",
              "type": "uint256"
            },
            {
              "internalType": "uint256",
              "name": "takerGives",
              "type": "uint256"
            },
            {
              "internalType": "OfferDetail",
              "name": "offerDetail",
              "type": "uint256"
            },
            {
              "internalType": "Global",
              "name": "global",
              "type": "uint256"
            },
            {
              "internalType": "Local",
              "name": "local",
              "type": "uint256"
            }
          ],
          "internalType": "struct MgvLib.SingleOrder",
          "name": "sor",
          "type": "tuple"
        },
        {
          "internalType": "address",
          "name": "taker",
          "type": "address"
        }
      ],
      "name": "flashloan",
      "outputs": [
        {
          "internalType": "uint256",
          "name": "gasused",
          "type": "uint256"
        },
        {
          "internalType": "bytes32",
          "name": "makerData",
          "type": "bytes32"
        }
      ],
      "stateMutability": "nonpayable",
      "type": "function"
    },
    {
      "inputs": [
        {
          "internalType": "address",
          "name": "maker",
          "type": "address"
        }
      ],
      "name": "fund",
      "outputs": [],
      "stateMutability": "payable",
      "type": "function"
    },
    {
      "inputs": [],
      "name": "fund",
      "outputs": [],
      "stateMutability": "payable",
      "type": "function"
    },
    {
      "inputs": [],
      "name": "governance",
      "outputs": [
        {
          "internalType": "address",
          "name": "",
          "type": "address"
        }
      ],
      "stateMutability": "view",
      "type": "function"
    },
    {
      "inputs": [
        {
          "components": [
            {
              "internalType": "address",
              "name": "outbound_tkn",
              "type": "address"
            },
            {
              "internalType": "address",
              "name": "inbound_tkn",
              "type": "address"
            },
            {
              "internalType": "uint256",
              "name": "tickSpacing",
              "type": "uint256"
            }
          ],
          "internalType": "struct OLKey",
          "name": "olKey",
          "type": "tuple"
        },
        {
          "internalType": "uint256",
          "name": "offerId",
          "type": "uint256"
        },
        {
          "internalType": "Tick",
          "name": "tick",
          "type": "int256"
        },
        {
          "internalType": "uint256",
          "name": "gasreq",
          "type": "uint256"
        },
        {
          "internalType": "uint256",
          "name": "takerWants",
          "type": "uint256"
        },
        {
          "internalType": "address",
          "name": "taker",
          "type": "address"
        }
      ],
      "name": "internalCleanByImpersonation",
      "outputs": [
        {
          "internalType": "uint256",
          "name": "bounty",
          "type": "uint256"
        }
      ],
      "stateMutability": "nonpayable",
      "type": "function"
    },
    {
      "inputs": [
        {
          "components": [
            {
              "internalType": "address",
              "name": "outbound_tkn",
              "type": "address"
            },
            {
              "internalType": "address",
              "name": "inbound_tkn",
              "type": "address"
            },
            {
              "internalType": "uint256",
              "name": "tickSpacing",
              "type": "uint256"
            }
          ],
          "internalType": "struct OLKey",
          "name": "olKey",
          "type": "tuple"
        },
        {
          "internalType": "Tick",
          "name": "maxTick",
          "type": "int256"
        },
        {
          "internalType": "uint256",
          "name": "fillVolume",
          "type": "uint256"
        },
        {
          "internalType": "bool",
          "name": "fillWants",
          "type": "bool"
        }
      ],
      "name": "marketOrderByTick",
      "outputs": [
        {
          "internalType": "uint256",
          "name": "takerGot",
          "type": "uint256"
        },
        {
          "internalType": "uint256",
          "name": "takerGave",
          "type": "uint256"
        },
        {
          "internalType": "uint256",
          "name": "bounty",
          "type": "uint256"
        },
        {
          "internalType": "uint256",
          "name": "feePaid",
          "type": "uint256"
        }
      ],
      "stateMutability": "nonpayable",
      "type": "function"
    },
    {
      "inputs": [
        {
          "components": [
            {
              "internalType": "address",
              "name": "outbound_tkn",
              "type": "address"
            },
            {
              "internalType": "address",
              "name": "inbound_tkn",
              "type": "address"
            },
            {
              "internalType": "uint256",
              "name": "tickSpacing",
              "type": "uint256"
            }
          ],
          "internalType": "struct OLKey",
          "name": "olKey",
          "type": "tuple"
        },
        {
          "internalType": "Tick",
          "name": "maxTick",
          "type": "int256"
        },
        {
          "internalType": "uint256",
          "name": "fillVolume",
          "type": "uint256"
        },
        {
          "internalType": "bool",
          "name": "fillWants",
          "type": "bool"
        },
        {
          "internalType": "uint256",
          "name": "maxGasreqForFailingOffers",
          "type": "uint256"
        }
      ],
      "name": "marketOrderByTickCustom",
      "outputs": [
        {
          "internalType": "uint256",
          "name": "takerGot",
          "type": "uint256"
        },
        {
          "internalType": "uint256",
          "name": "takerGave",
          "type": "uint256"
        },
        {
          "internalType": "uint256",
          "name": "bounty",
          "type": "uint256"
        },
        {
          "internalType": "uint256",
          "name": "feePaid",
          "type": "uint256"
        }
      ],
      "stateMutability": "nonpayable",
      "type": "function"
    },
    {
      "inputs": [
        {
          "components": [
            {
              "internalType": "address",
              "name": "outbound_tkn",
              "type": "address"
            },
            {
              "internalType": "address",
              "name": "inbound_tkn",
              "type": "address"
            },
            {
              "internalType": "uint256",
              "name": "tickSpacing",
              "type": "uint256"
            }
          ],
          "internalType": "struct OLKey",
          "name": "olKey",
          "type": "tuple"
        },
        {
          "internalType": "uint256",
          "name": "takerWants",
          "type": "uint256"
        },
        {
          "internalType": "uint256",
          "name": "takerGives",
          "type": "uint256"
        },
        {
          "internalType": "bool",
          "name": "fillWants",
          "type": "bool"
        }
      ],
      "name": "marketOrderByVolume",
      "outputs": [
        {
          "internalType": "uint256",
          "name": "takerGot",
          "type": "uint256"
        },
        {
          "internalType": "uint256",
          "name": "takerGave",
          "type": "uint256"
        },
        {
          "internalType": "uint256",
          "name": "bounty",
          "type": "uint256"
        },
        {
          "internalType": "uint256",
          "name": "feePaid",
          "type": "uint256"
        }
      ],
      "stateMutability": "nonpayable",
      "type": "function"
    },
    {
      "inputs": [
        {
          "components": [
            {
              "internalType": "address",
              "name": "outbound_tkn",
              "type": "address"
            },
            {
              "internalType": "address",
              "name": "inbound_tkn",
              "type": "address"
            },
            {
              "internalType": "uint256",
              "name": "tickSpacing",
              "type": "uint256"
            }
          ],
          "internalType": "struct OLKey",
          "name": "olKey",
          "type": "tuple"
        },
        {
          "internalType": "Tick",
          "name": "maxTick",
          "type": "int256"
        },
        {
          "internalType": "uint256",
          "name": "fillVolume",
          "type": "uint256"
        },
        {
          "internalType": "bool",
          "name": "fillWants",
          "type": "bool"
        },
        {
          "internalType": "address",
          "name": "taker",
          "type": "address"
        }
      ],
      "name": "marketOrderForByTick",
      "outputs": [
        {
          "internalType": "uint256",
          "name": "takerGot",
          "type": "uint256"
        },
        {
          "internalType": "uint256",
          "name": "takerGave",
          "type": "uint256"
        },
        {
          "internalType": "uint256",
          "name": "bounty",
          "type": "uint256"
        },
        {
          "internalType": "uint256",
          "name": "feePaid",
          "type": "uint256"
        }
      ],
      "stateMutability": "nonpayable",
      "type": "function"
    },
    {
      "inputs": [
        {
          "components": [
            {
              "internalType": "address",
              "name": "outbound_tkn",
              "type": "address"
            },
            {
              "internalType": "address",
              "name": "inbound_tkn",
              "type": "address"
            },
            {
              "internalType": "uint256",
              "name": "tickSpacing",
              "type": "uint256"
            }
          ],
          "internalType": "struct OLKey",
          "name": "olKey",
          "type": "tuple"
        },
        {
          "internalType": "uint256",
          "name": "takerWants",
          "type": "uint256"
        },
        {
          "internalType": "uint256",
          "name": "takerGives",
          "type": "uint256"
        },
        {
          "internalType": "bool",
          "name": "fillWants",
          "type": "bool"
        },
        {
          "internalType": "address",
          "name": "taker",
          "type": "address"
        }
      ],
      "name": "marketOrderForByVolume",
      "outputs": [
        {
          "internalType": "uint256",
          "name": "takerGot",
          "type": "uint256"
        },
        {
          "internalType": "uint256",
          "name": "takerGave",
          "type": "uint256"
        },
        {
          "internalType": "uint256",
          "name": "bounty",
          "type": "uint256"
        },
        {
          "internalType": "uint256",
          "name": "feePaid",
          "type": "uint256"
        }
      ],
      "stateMutability": "nonpayable",
      "type": "function"
    },
    {
      "inputs": [
        {
          "components": [
            {
              "internalType": "address",
              "name": "outbound_tkn",
              "type": "address"
            },
            {
              "internalType": "address",
              "name": "inbound_tkn",
              "type": "address"
            },
            {
              "internalType": "uint256",
              "name": "tickSpacing",
              "type": "uint256"
            }
          ],
          "internalType": "struct OLKey",
          "name": "olKey",
          "type": "tuple"
        },
        {
          "internalType": "Tick",
          "name": "tick",
          "type": "int256"
        },
        {
          "internalType": "uint256",
          "name": "gives",
          "type": "uint256"
        },
        {
          "internalType": "uint256",
          "name": "gasreq",
          "type": "uint256"
        },
        {
          "internalType": "uint256",
          "name": "gasprice",
          "type": "uint256"
        }
      ],
      "name": "newOfferByTick",
      "outputs": [
        {
          "internalType": "uint256",
          "name": "offerId",
          "type": "uint256"
        }
      ],
      "stateMutability": "payable",
      "type": "function"
    },
    {
      "inputs": [
        {
          "components": [
            {
              "internalType": "address",
              "name": "outbound_tkn",
              "type": "address"
            },
            {
              "internalType": "address",
              "name": "inbound_tkn",
              "type": "address"
            },
            {
              "internalType": "uint256",
              "name": "tickSpacing",
              "type": "uint256"
            }
          ],
          "internalType": "struct OLKey",
          "name": "olKey",
          "type": "tuple"
        },
        {
          "internalType": "uint256",
          "name": "wants",
          "type": "uint256"
        },
        {
          "internalType": "uint256",
          "name": "gives",
          "type": "uint256"
        },
        {
          "internalType": "uint256",
          "name": "gasreq",
          "type": "uint256"
        },
        {
          "internalType": "uint256",
          "name": "gasprice",
          "type": "uint256"
        }
      ],
      "name": "newOfferByVolume",
      "outputs": [
        {
          "internalType": "uint256",
          "name": "offerId",
          "type": "uint256"
        }
      ],
      "stateMutability": "payable",
      "type": "function"
    },
    {
      "inputs": [
        {
          "internalType": "address",
          "name": "outbound_tkn",
          "type": "address"
        },
        {
          "internalType": "address",
          "name": "inbound_tkn",
          "type": "address"
        },
        {
          "internalType": "address",
          "name": "owner",
          "type": "address"
        },
        {
          "internalType": "address",
          "name": "spender",
          "type": "address"
        },
        {
          "internalType": "uint256",
          "name": "value",
          "type": "uint256"
        },
        {
          "internalType": "uint256",
          "name": "deadline",
          "type": "uint256"
        },
        {
          "internalType": "uint8",
          "name": "v",
          "type": "uint8"
        },
        {
          "internalType": "bytes32",
          "name": "r",
          "type": "bytes32"
        },
        {
          "internalType": "bytes32",
          "name": "s",
          "type": "bytes32"
        }
      ],
      "name": "permit",
      "outputs": [],
      "stateMutability": "nonpayable",
      "type": "function"
    },
    {
      "inputs": [
        {
          "components": [
            {
              "internalType": "address",
              "name": "outbound_tkn",
              "type": "address"
            },
            {
              "internalType": "address",
              "name": "inbound_tkn",
              "type": "address"
            },
            {
              "internalType": "uint256",
              "name": "tickSpacing",
              "type": "uint256"
            }
          ],
          "internalType": "struct OLKey",
          "name": "olKey",
          "type": "tuple"
        },
        {
          "internalType": "uint256",
          "name": "offerId",
          "type": "uint256"
        },
        {
          "internalType": "bool",
          "name": "deprovision",
          "type": "bool"
        }
      ],
      "name": "retractOffer",
      "outputs": [
        {
          "internalType": "uint256",
          "name": "provision",
          "type": "uint256"
        }
      ],
      "stateMutability": "nonpayable",
      "type": "function"
    },
    {
      "inputs": [
        {
          "internalType": "uint256",
          "name": "",
          "type": "uint256"
        }
      ],
      "name": "totalGasUsed",
      "outputs": [
        {
          "internalType": "uint256",
          "name": "",
          "type": "uint256"
        }
      ],
      "stateMutability": "view",
      "type": "function"
    },
    {
      "inputs": [
        {
          "components": [
            {
              "internalType": "address",
              "name": "outbound_tkn",
              "type": "address"
            },
            {
              "internalType": "address",
              "name": "inbound_tkn",
              "type": "address"
            },
            {
              "internalType": "uint256",
              "name": "tickSpacing",
              "type": "uint256"
            }
          ],
          "internalType": "struct OLKey",
          "name": "olKey",
          "type": "tuple"
        },
        {
          "internalType": "Tick",
          "name": "tick",
          "type": "int256"
        },
        {
          "internalType": "uint256",
          "name": "gives",
          "type": "uint256"
        },
        {
          "internalType": "uint256",
          "name": "gasreq",
          "type": "uint256"
        },
        {
          "internalType": "uint256",
          "name": "gasprice",
          "type": "uint256"
        },
        {
          "internalType": "uint256",
          "name": "offerId",
          "type": "uint256"
        }
      ],
      "name": "updateOfferByTick",
      "outputs": [],
      "stateMutability": "payable",
      "type": "function"
    },
    {
      "inputs": [
        {
          "components": [
            {
              "internalType": "address",
              "name": "outbound_tkn",
              "type": "address"
            },
            {
              "internalType": "address",
              "name": "inbound_tkn",
              "type": "address"
            },
            {
              "internalType": "uint256",
              "name": "tickSpacing",
              "type": "uint256"
            }
          ],
          "internalType": "struct OLKey",
          "name": "olKey",
          "type": "tuple"
        },
        {
          "internalType": "uint256",
          "name": "wants",
          "type": "uint256"
        },
        {
          "internalType": "uint256",
          "name": "gives",
          "type": "uint256"
        },
        {
          "internalType": "uint256",
          "name": "gasreq",
          "type": "uint256"
        },
        {
          "internalType": "uint256",
          "name": "gasprice",
          "type": "uint256"
        },
        {
          "internalType": "uint256",
          "name": "offerId",
          "type": "uint256"
        }
      ],
      "name": "updateOfferByVolume",
      "outputs": [],
      "stateMutability": "payable",
      "type": "function"
    },
    {
      "inputs": [
        {
          "internalType": "uint256",
          "name": "amount",
          "type": "uint256"
        }
      ],
      "name": "withdraw",
      "outputs": [
        {
          "internalType": "bool",
          "name": "noRevert",
          "type": "bool"
        }
      ],
      "stateMutability": "nonpayable",
      "type": "function"
    },
    {
      "stateMutability": "payable",
      "type": "receive"
    }
  ],
  "bytecode": {
    "object": "0x60c06040523480156200001157600080fd5b50604051620076e6380380620076e683398101604081905262000034916200061c565b60408051808201825260088152674d616e67726f766560c01b6020808301919091528251808401845260018152603160f81b9082015282517f8b73c3c69bb8fe3d512ecc4cf759cc79239f7b179b0ffacaa9a75d522b39400f918101919091527fad429437ccd58094880a2ef8967aa0dfef6b6570d8cd0712b6a3c11a4d76aa21928101929092527fc89efdaa54c0f20c7adf612882df0950f5a951637e0307cdcb4c672f298b8bc660608301524660808301523060a083015284918491849160c00160408051601f198184030181529082905280516020909101206080527f72201d073f249840099a96530e189c4291c1852040b1e96ff1f606db656be4ff9150600090a160405162000148906200060e565b604051809103906000f08015801562000165573d6000803e3d6000fd5b506001600160a01b031660a0819052604051602481018490526000919060440160408051601f198184030181529181526020820180516001600160e01b0316637e553f1760e11b17905251620001bc919062000661565b600060405180830381855af49150503d8060008114620001f9576040519150601f19603f3d011682016040523d82523d6000602084013e620001fe565b606091505b505080915050806200024b5760405162461bcd60e51b81526020600482015260116024820152706d67762f63746f722f676173707269636560781b60448201526064015b60405180910390fd5b60a0516001600160a01b0316826040516024016200026b91815260200190565b60408051601f198184030181529181526020820180516001600160e01b03166395999ee360e01b17905251620002a2919062000661565b600060405180830381855af49150503d8060008114620002df576040519150601f19603f3d011682016040523d82523d6000602084013e620002e4565b606091505b505080915050806200032b5760405162461bcd60e51b815260206004820152600f60248201526e0daceec5ec6e8dee45ecec2e6dac2f608b1b604482015260640162000242565b60a0516001600160a01b0316604b6040516024016200034c91815260200190565b60408051601f198184030181529181526020820180516001600160e01b031663e37de38b60e01b1790525162000383919062000661565b600060405180830381855af49150503d8060008114620003c0576040519150601f19603f3d011682016040523d82523d6000602084013e620003c5565b606091505b505080915050806200041a5760405162461bcd60e51b815260206004820152601a60248201527f6d67762f63746f722f6d6178526563757273696f6e4465707468000000000000604482015260640162000242565b60a0516001600160a01b0316826003026040516024016200043d91815260200190565b60408051601f198184030181529181526020820180516001600160e01b03166374bfac3360e01b1790525162000474919062000661565b600060405180830381855af49150503d8060008114620004b1576040519150601f19603f3d011682016040523d82523d6000602084013e620004b6565b606091505b50508091505080620005165760405162461bcd60e51b815260206004820152602260248201527f6d67762f63746f722f6d6178476173726571466f724661696c696e674f666665604482015261727360f01b606482015260840162000242565b60a0516040516001600160a01b0386811660248301529091169060440160408051601f198184030181529181526020820180516001600160e01b031663ab033ea960e01b179052516200056a919062000661565b600060405180830381855af49150503d8060008114620005a7576040519150601f19603f3d011682016040523d82523d6000602084013e620005ac565b606091505b50508091505080620006015760405162461bcd60e51b815260206004820152601360248201527f6d67762f63746f722f676f7665726e616e636500000000000000000000000000604482015260640162000242565b5050505050505062000692565b611b0f8062005bd783390190565b6000806000606084860312156200063257600080fd5b83516001600160a01b03811681146200064a57600080fd5b602085015160409095015190969495509392505050565b6000825160005b8181101562000684576020818601810151858301520162000668565b506000920191825250919050565b60805160a051615518620006bf6000396000610155015260008181610324015261110a01526155186000f3fe60806040526004361061012e5760003560e01c80636e7a5cb8116100ab578063b268813c1161006f578063b268813c14610431578063b60d428814610444578063d6a522ce1461044c578063e030e04b1461046c578063e9801a291461048c578063f95902aa146104ac5761013e565b80636e7a5cb81461039e57806378393c88146103be5780637d3e6162146103de578063a84b08c8146103fe578063b09d2a16146104115761013e565b80632e1a7d4d116100f25780632e1a7d4d146102ad57806332810dd6146102dd5780633644e5151461031257806359eba454146103465780635aa6e675146103665761013e565b8063129d19a7146101f45780631440e604146102075780632275123f1461024c578063230244081461026c5780632deb63491461027f5761013e565b3661013e5761013c336104bf565b005b34801561014a57600080fd5b5060003660606000807f00000000000000000000000000000000000000000000000000000000000000006001600160a01b0316858560405161018d929190614cf6565b600060405180830381855af49150503d80600081146101c8576040519150601f19603f3d011682016040523d82523d6000602084013e6101cd565b606091505b509150915081156101e15791506101e99050565b805160208201fd5b915050805190602001f35b61013c610202366004614d97565b6104ff565b34801561021357600080fd5b50610227610222366004614df1565b61051e565b6040805194855260208501939093529183015260608201526080015b60405180910390f35b34801561025857600080fd5b50610227610267366004614e3a565b610566565b61013c61027a366004614e94565b6104bf565b34801561028b57600080fd5b5061029f61029a366004614eaf565b610664565b604051908152602001610243565b3480156102b957600080fd5b506102cd6102c8366004614eaf565b610685565b6040519015158152602001610243565b3480156102e957600080fd5b506102fd6102f8366004614ec8565b6106df565b60408051928352602083019190915201610243565b34801561031e57600080fd5b5061029f7f000000000000000000000000000000000000000000000000000000000000000081565b34801561035257600080fd5b506102cd610361366004614f5f565b610898565b34801561037257600080fd5b50600054610386906001600160a01b031681565b6040516001600160a01b039091168152602001610243565b3480156103aa57600080fd5b5061029f6103b9366004614faa565b61091f565b3480156103ca57600080fd5b506102fd6103d9366004614feb565b610aa6565b3480156103ea57600080fd5b5061029f6103f9366004615029565b610be0565b61013c61040c366004614d97565b610f69565b34801561041d57600080fd5b5061013c61042c366004615083565b61101e565b61029f61043f366004615119565b611333565b61013c611355565b34801561045857600080fd5b50610227610467366004614df1565b611360565b34801561047857600080fd5b5061022761048736600461515c565b611387565b34801561049857600080fd5b506102276104a7366004614e3a565b6113ae565b61029f6104ba366004615119565b6113e0565b604080516060810182526000808252602082018190529181018290526104e4906114ea565b505090506104f181611613565b6104fb8234611657565b5050565b6105168661050d87876116b3565b86868686610f69565b505050505050565b6000806000806000856105315786610533565b875b90506000610541888a6116b3565b90506105528a82848a3360006116db565b929d919c509a509098509650505050505050565b60008060008087886001600160a01b0316146105c95760405162461bcd60e51b815260206004820152601d60248201527f6d67762f6d4f726465722f74616b657257616e74732f3136306269747300000060448201526064015b60405180910390fd5b86876001600160a01b0316146106215760405162461bcd60e51b815260206004820152601d60248201527f6d67762f6d4f726465722f74616b657247697665732f3136306269747300000060448201526064016105c0565b60008661062e5787610630565b885b9050600061063e898b6116b3565b905061064d8b82848b8b6113ae565b955095509550955050505b95509550955095915050565b6007818154811061067457600080fd5b600091825260209091200154905081565b60006106913383611990565b60405133908390600081818185875af1925050503d80600081146106d1576040519150601f19603f3d011682016040523d82523d6000602084013e6106d6565b606091505b50909392505050565b600080826001600160a01b03166106f7876060902090565b6040518681527fd301a4893957e66d0ef05ff8028181ee134fa453ff2aa849e0546aac493af6dd9060200160405180910390a360005b8481101561085c5760603687878481811061074a5761074a6151ad565b9050608002019050306001600160a01b0316637d3e61628a83600001358460200135856040013586606001358c60405160240161078c969594939291906151ea565b604051602081830303815290604052915060e01b6020820180516001600160e01b03838183161783525050505091505060606000306001600160a01b0316836040516107d8919061522a565b6000604051808303816000865af19150503d8060008114610815576040519150601f19603f3d011682016040523d82523d6000602084013e61081a565b606091505b50925090508061082c57505050610854565b50848060010195505060008180602001905181019061084b9190615259565b94909401935050505b60010161072d565b5061086681611a55565b6040517f3ee675eb8551a3a94e52d27289fd8bc0ef6f57c148b6bc9a9104ac9d7269f8d590600090a194509492505050565b6001600160a01b03848116600081815260056020908152604080832088861680855290835281842033808652908452828520968916808652968452828520889055825196875292860187905292949193917f6e791f456e6f5034d4928b936c32bf7e650d8228543ce7985d632ab03934837d910160405180910390a4506001949350505050565b600080600061092d866114ea565b925092505061093b82611af3565b600085815260058201602052604090208054600182015461095c8160601c90565b6001600160a01b0316336001600160a01b0316146109bc5760405162461bcd60e51b815260206004820152601d60248201527f6d67762f726574726163744f666665722f756e617574686f72697a656400000060448201526064016105c0565b602c82901c60016001607f1b0316156109ff5760008590506109ef858b6040015185896109e88b611b3f565b6001611b4a565b5095508086146109fd578585555b505b610a0b8383838a61201c565b8615610a4257610a1a81612059565b604882901c62ffffff1601602582901c6303ffffff16620f424002029550610a423387611657565b610a4c8160601c90565b6001600160a01b0316610a608a6060902090565b604080518b81528a151560208201527f69a8c809e58310d1995905640ab3d1e8efe2ca772c21432a693da69912a478f1910160405180910390a350505050509392505050565b600080333014610af85760405162461bcd60e51b815260206004820152601760248201527f6d67762f666c6173686c6f616e2f70726f74656374656400000000000000000060448201526064016105c0565b610b17610b0b6040860160208701614e94565b84308760c0013561206f565b15610b9b57610b41610b2f6040860160208701614e94565b60e086013560601c8660c0013561214d565b15610b5957610b4f84612222565b9092509050610bd9565b60408051606081018252731b59dd8bdb585ad95c949958d95a5d9951985a5b60621b815260006020820181905291810191909152610b9690606081fd5b610bd9565b60408051606081018252741b59dd8bdd185ad95c951c985b9cd9995c91985a5b605a1b815260006020820181905291810191909152610bd990606081fd5b9250929050565b6000333014610c275760405162461bcd60e51b81526020600482015260136024820152721b59dd8bd8db19585b8bdc1c9bdd1958dd1959606a1b60448201526064016105c0565b610c2f614c0c565b610c3886612392565b610c845760405162461bcd60e51b815260206004820152601960248201527f6d67762f636c65616e2f7469636b2f6f75744f6652616e67650000000000000060448201526064016105c0565b610100810186905260016001607f1b03841115610ce35760405162461bcd60e51b815260206004820152601b60248201527f6d67762f636c65616e2f74616b657257616e74732f746f6f426967000000000060448201526064016105c0565b60a081018490526001600160a01b038316606082015260016080820152610d08614c78565b8881526000610d168a6114ea565b60e0850191825260c0850192835260208086018d905260008d815260058301909152604090819020805491870191909152600181015460a087015292519151909350610d6291906123ad565b610d6f8360e00151611af3565b6040830151602c1c60016001607f1b0316610dc55760405162461bcd60e51b81526020600482015260166024820152756d67762f636c65616e2f6f666665724e6f744c69766560501b60448201526064016105c0565b60a0830151889060481c62ffffff161115610e1b5760405162461bcd60e51b81526020600482015260166024820152756d67762f636c65616e2f676173726571546f6f4c6f7760501b60448201526064016105c0565b610e3489610e30856040015160401b60eb1d90565b1490565b610e795760405162461bcd60e51b81526020600482015260166024820152750daceec5ec6d8cac2dc5ee8d2c6d69ad2e6dac2e8c6d60531b60448201526064016105c0565b60e0830151610e899060016123f8565b60e08401819052825560008080610ea1858888612414565b925092509250806f6d67762f74726164655375636365737360801b03610f095760405162461bcd60e51b815260206004820152601960248201527f6d67762f636c65616e2f6f666665724469644e6f744661696c0000000000000060448201526064016105c0565b610f29858f6040015188604001518960e001516109e88b60e00151611b3f565b5060e08701819052610f3c9060006123f8565b60e087018190528555610f52878785858561297f565b5050506040909301519a9950505050505050505050565b610f71614c78565b6000610f7c886114ea565b60c0850182905260a0850192909252909150610f9790611af3565b610fa98260a001518360c001516123ad565b3415610fb957610fb93334611657565b87825260208083018790526040808401859052606084018790526080840186905260008581526005840190925290205460e083015260c082015161100082848a6001612bd4565b60c083015181146110135760c083015182555b505050505050505050565b428410156110635760405162461bcd60e51b81526020600482015260126024820152711b59dd8bdc195c9b5a5d0bd95e1c1a5c995960721b60448201526064016105c0565b6001600160a01b03878116600081815260066020908152604080832080546001810190915581517ff0ea0a7146fb6eedb561d97b593d57d9b7df3c94d689372dc01302e5780248f4818501528f8716818401528e871660608201526080810195909552948b1660a085015260c084018a905260e084018590526101008085018a9052815180860390910181526101208501909152805191012061190160f01b6101408401527f0000000000000000000000000000000000000000000000000000000000000000610142840152610162830152906101820160408051601f198184030181528282528051602091820120600080855291840180845281905260ff89169284019290925260608301879052608083018690529092509060019060a0016020604051602081039080840390855afa1580156111a5573d6000803e3d6000fd5b5050604051601f1901519150506001600160a01b038116158015906111db5750896001600160a01b0316816001600160a01b0316145b6112275760405162461bcd60e51b815260206004820152601b60248201527f6d67762f7065726d69742f696e76616c69645369676e6174757265000000000060448201526064016105c0565b87600560008e6001600160a01b03166001600160a01b0316815260200190815260200160002060008d6001600160a01b03166001600160a01b0316815260200190815260200160002060008c6001600160a01b03166001600160a01b0316815260200190815260200160002060008b6001600160a01b03166001600160a01b0316815260200190815260200160002081905550896001600160a01b03168b6001600160a01b03168d6001600160a01b03167f6e791f456e6f5034d4928b936c32bf7e650d8228543ce7985d632ab03934837d8c8c60405161131d9291906001600160a01b03929092168252602082015260400190565b60405180910390a4505050505050505050505050565b600061134b8661134387876116b3565b8686866113e0565b9695505050505050565b61135e336104bf565b565b600080600080611375888888883360006116db565b929b919a509850909650945050505050565b60008060008061139b89898989338a6116db565b929c919b50995090975095505050505050565b6000806000806113c3898989898960006116db565b8c5160208e0151949850929650909450925061065891878661356b565b60006113ea614c78565b60006113f5886114ea565b60c0850182905260a085019290925290915061141090611af3565b6114228260a001518360c001516123ad565b3415611432576114323334611657565b60c082015163ffffffff166001016040830181905263ffffffff8116146114915760405162461bcd60e51b81526020600482015260136024820152726d67762f6f6666657249644f766572666c6f7760681b60448201526064016105c0565b604082015160c083015163ffffffff191663ffffffff9091161760c08301528782526020820186905260608201859052608082018490526114d58183896000612bd4565b60c08201519055604001519695505050505050565b6000806000600260006114fe866060902090565b81526020019081526020016000209050600154925080600001549150611529836001605f1b16151590565b1561160c5760008061153b8560601c90565b6001600160a01b031663d87629ac876040518263ffffffff1660e01b81526004016115669190615272565b6040805180830381865afa158015611582573d6000803e3d6000fd5b505050506040513d601f19601f820116820180604052508101906115a69190615280565b915091506115b9826303ffffff81161490565b156115e5576b3ffffff000000000000000001985166b3ffffff00000000000000000604484901b161794505b6101ff81168103611609576101ff60ee1b1984166101ff60ee1b60ee83901b161793505b50505b9193909250565b650800000000008116156116545760405162461bcd60e51b81526020600482015260086024820152671b59dd8bd919585960c21b60448201526064016105c0565b50565b6001600160a01b03821660008181526004602052604090819020805484019055517f1bbf55d483639f8103dc4e035af71a4fbdb16c80be740fa3eef81198acefa094906116a79084815260200190565b60405180910390a25050565b60008060006116c28585613652565b915091506116d08282613872565b925050505b92915050565b60008060008060016001607f1b038811156117385760405162461bcd60e51b815260206004820152601c60248201527f6d67762f6d4f726465722f66696c6c566f6c756d652f746f6f4269670000000060448201526064016105c0565b61174189612392565b61178d5760405162461bcd60e51b815260206004820152601a60248201527f6d67762f6d4f726465722f7469636b2f6f75744f6652616e676500000000000060448201526064016105c0565b611795614c0c565b61010081018a90526001600160a01b038716606082015287151560808201526117bc614c78565b8b815260006117ca8d6114ea565b60e085019190915260c08401829052915060231c60ff16610160840152876117ff5760c082015160031c63ffffffff16611801565b875b8361012001818152505061184181600401600061182a6118248660e00151611b3f565b60021d90565b815260200190815260200160002054600181141890565b60e0840181905261185190613b9c565b60208084018290526000918252600583019052604090819020549083015260a083018b905260c082015160e083015161188a91906123ad565b6118978260e00151611af3565b60e08201516118a79060016123f8565b60e0830181905281558151606090819020604080518f8152602081018f90528d15158183015290516001600160a01b038d16937f730e8e2cc287cd5296445ccef0dcf7f0695d8b3d620dcc9dd19c671a6f5663a5928290030190a361190d818484613bd1565b61191a8360400151611a55565b8151606090206001600160a01b038a16907feab9f920eda38e2e10cfc76b3f85201b8bbe82fac69de4c4509001b66e5e33af8560c0015160405161196091815260200190565b60405180910390a3505080516020820151604083015160c090930151919d909c50919a5098509650505050505050565b6001600160a01b038216600090815260046020526040902054818110156119f95760405162461bcd60e51b815260206004820152601960248201527f6d67762f696e73756666696369656e7450726f766973696f6e0000000000000060448201526064016105c0565b6001600160a01b038316600081815260046020526040908190208484039055517f59c79d79be0fadf59fe689b6952b7ebe90201a3a1f00d4a31982377890bc604690611a489085815260200190565b60405180910390a2505050565b801561165457604051600090339083908381818185875af1925050503d8060008114611a9d576040519150601f19603f3d011682016040523d82523d6000602084013e611aa2565b606091505b50509050806104fb5760405162461bcd60e51b815260206004820152601760248201527f6d67762f73656e6450656e616c7479526576657274656400000000000000000060448201526064016105c0565b6401000000008116156116545760405162461bcd60e51b81526020600482015260146024820152731b59dd8bdc99595b9d1c985b98de531bd8dad95960621b60448201526064016105c0565b60006116d582613e0a565b6000808080611b59888a613e83565b90506000611b678960e01c90565b905063ffffffff60c08a901c16811580611b7f575080155b15611b9a57611b978c600401600061182a8660021d90565b93505b81600003611bb457611bad848483613eaa565b9350611bd3565b600082815260058d01602052604090208054611bd09083613ed0565b90555b80600003611bed57611be6848484613eed565b9350611c11565b600081815260058d016020526040902080546001600160e01b031660e084901b1790555b8115801590611c1f57508015155b15611c34578860009550955050505050612011565b868015611c3f575081155b8015611c4b5750878313155b96505050811582178a6004016000611c638460021d90565b815260208101919091526040016000205581611fd0576000611c858260081d90565b90506000611c938860081d90565b8203611d0357611cb28360ac8b901c6001600160401b03165b90613f14565b9050611cbe8982613f2f565b9850868015611ccb575080155b15611cfe57600082815260038d01602052604090205415611cfe57600082815260038d0160205260409020600160ff1b90555b611d43565b600082815260038d016020526040902054611d289084906001600160ff1b0316611cac565b9050600160ff1b8117600083815260038e0160205260409020555b80611fb157611d5283600e1d90565b9150611d5e88600e1d90565b8203611dce57611d7d83606c8b901c6001600160401b03165b90613f54565b9050611d898982613f60565b9850868015611d96575080155b15611dc957600082815260028d01602052604090205415611dc957600082815260028d0160205260409020600160ff1b90555b611e0e565b600082815260028d016020526040902054611df39084906001600160ff1b0316611d77565b9050600160ff1b8117600083815260028e0160205260409020555b80611f7557611e1d8360141d90565b9150611e298860141d90565b8203611e8457611e4883602c8b901c6001600160401b03165b90613f85565b9050611e548982613f91565b9850868015611e61575080155b15611e7f57600160ff1b8117600083815260018e0160205260409020555b611ec4565b600082815260018d016020526040902054611ea99084906001600160ff1b0316611e42565b9050600160ff1b8117600083815260018e0160205260409020555b80611f3957611edc83602a8b901c6003165b90613fbc565b9050611ee88982613fcc565b985080611efe5788879550955050505050612011565b8615611f3957611f0d81613fe7565b600081815260018e0160205260409020549092506001600160ff1b03169050611f368982613f91565b98505b8615611f7557611f498183613ffb565b600081815260028e0160205260409020549092506001600160ff1b03169050611f728982613f60565b98505b8615611fb157611f858183613ffb565b600081815260038e0160205260409020549092506001600160ff1b03169050611fae8982613f2f565b98505b8615611fcd57611fca60048d01600061182a8486613ffb565b93505b50505b8415612008576120056001600160401b036001600160801b038411600781901b85901c9190911115901560011b178890614013565b96505b50508483915091505b965096945050505050565b7507fffffffffffffffffffffffffffffff000000000001983169250801561204d57677fffffe00000000019821691505b50908255600190910155565b6000603f82901c6101ff165b6103e80292915050565b604080516001600160a01b0385811660248301528481166044830152606480830185905283518084039091018152608490920183526020820180516001600160e01b03166323b872dd60e01b1790529151600092839182918916906120d590859061522a565b6000604051808303816000865af19150503d8060008114612112576040519150601f19603f3d011682016040523d82523d6000602084013e612117565b606091505b509150915081801561214157508051158061214157508080602001905181019061214191906152a4565b98975050505050505050565b604080516001600160a01b038481166024830152604480830185905283518084039091018152606490920183526020820180516001600160e01b031663a9059cbb60e01b1790529151600092839182918816906121ab90859061522a565b6000604051808303816000865af19150503d80600081146121e8576040519150601f19603f3d011682016040523d82523d6000602084013e6121ed565b606091505b509150915081801561221757508051158061221757508080602001905181019061221791906152a4565b979650505050505050565b60008060008360405160240161223891906152c1565b60408051808303601f19018152919052602081018051632380fafd60e01b6001600160e01b03909116179052905060e0840135604881901c62ffffff169060601c60005a90508260408204820310156122d157604080516060810182527f6d67762f6e6f74456e6f756768476173466f724d616b657254726164650000008152600060208201819052918101919091526122d190606081fd5b60006122de83858761402a565b965090505a82039650806123245761232460405180606001604052806e1b59dd8bdb585ad95c94995d995c9d608a1b81526020018960001b815260200188815250606081fd5b600061234261233660208b018b614e94565b85308c60a0013561206f565b905080612387576123876040518060600160405280741b59dd8bdb585ad95c951c985b9cd9995c91985a5b605a1b81526020018a60001b815260200189815250606081fd5b505050505050915091565b6000620d89e71982121580156116d5575050620d89e8121590565b6123b682611613565b600160ff1b81166104fb5760405162461bcd60e51b815260206004820152600c60248201526b6d67762f696e61637469766560a01b60448201526064016105c0565b64010000000060209190911b1664010000000019919091161790565b60a08201516040820151600091829182919060016001607f1b03602c82901c1690839061244090614058565b9050876080015180156124535750828211155b8061246b5750876080015115801561246b5750828111155b156124835760608701829052608087018190526124e1565b8760800151156124b9576124a8836124a2896040015160401b60eb1d90565b90614078565b6080880152606087018390526124e1565b6124d4836124ce896040015160401b60eb1d90565b906140a4565b6060880152608087018390525b50505060408401516000906060906001600160c01b038116604088015260e08701516503ff00000001600160ee1b0319811660e08901526060890151604051309182916378393c8891612539918d91906024016153b6565b60408051601f198184030181529181526020820180516001600160e01b031660e09490941b939093179092529051612571925061522a565b6000604051808303816000865af19150503d80600081146125ae576040519150601f19603f3d011682016040523d82523d6000602084013e6125b3565b606091505b5060408a019390935260e089019190915292509050811561272657808060200190518101906125e29190615280565b60c088015191965094506f6d67762f74726164655375636365737360801b93506001605e1b16156126725760c0860151606088810151604051630c29692960e01b81529290911c91630c2969299161263f918a91906004016153b6565b600060405180830381600087803b15801561265957600080fd5b505af115801561266d573d6000803e3d6000fd5b505050505b606086018051885101808952905111156126c65760405162461bcd60e51b81526020600482015260156024820152746d67762f746f74616c476f742f6f766572666c6f7760581b60448201526064016105c0565b60808601805160208901805190910190819052905111156127215760405162461bcd60e51b81526020600482015260156024820152746d67762f746f74616c476f742f6f766572666c6f7760581b60448201526064016105c0565b612932565b602081015160408201516060830151909650945092506e1b59dd8bdb585ad95c94995d995c9d608a1b831480612773575082741b59dd8bdb585ad95c951c985b9cd9995c91985a5b605a1b145b80612794575082731b59dd8bdb585ad95c949958d95a5d9951985a5b60621b145b1561282c5760a086015160481c62ffffff166101408801805191909101905260c08601516001605e1b16156127215760c08601516060888101516040516303027c4560e51b81529290911c9163604f88a0916127f5918a91906004016153b6565b600060405180830381600087803b15801561280f57600080fd5b505af1158015612823573d6000803e3d6000fd5b50505050612932565b827f6d67762f6e6f74456e6f756768476173466f724d616b657254726164650000000361289b5760405162461bcd60e51b815260206004820152601d60248201527f6d67762f6e6f74456e6f756768476173466f724d616b6572547261646500000060448201526064016105c0565b82741b59dd8bdd185ad95c951c985b9cd9995c91985a5b605a1b036128fa5760405162461bcd60e51b81526020600482015260156024820152741b59dd8bdd185ad95c951c985b9cd9995c91985a5b605a1b60448201526064016105c0565b60405162461bcd60e51b815260206004820152600d60248201526c36b3bb17b9bbb0b822b93937b960991b60448201526064016105c0565b6129748860050160008860200151815260200190815260200160002087604001518860a00151866f6d67762f74726164655375636365737360801b141561201c565b505093509350939050565b60a084015160481c62ffffff1680841115612998578093505b60008060006129ab8888860388886140d4565b9250925092508287019650846f6d67762f74726164655375636365737360801b14612ae75760006129dc8989614141565b60408b01805182019052905082612a6d5788602001518a606001516001600160a01b0316612a0f8b600001516060902090565b6060808d01516080808f015160408051938452602084019190915282018790529181018b90529081018690527f4f6fba9fcbdb2ad30462ad0e0e92fd280ffee4e24885661c7a7497802240008d9060a00160405180910390a4612ae1565b88602001518a606001516001600160a01b0316612a8f8b600001516060902090565b6060808d01516080808f015160408051938452602084019190915282018790529181018b90527f8e83cc09450b5666c4b273f69ceff6631efac5291f291422fdc1e6e6c9223e19910160405180910390a45b50611013565b81612b5d57876020015189606001516001600160a01b0316612b0e8a600001516060902090565b6060808c015160808d015160408051928352602083019190915281018690527f88e7a2023de6638f80f184ea4126f2f532f046b745646d0b5ac8c205cc1b4874910160405180910390a4611013565b876020015189606001516001600160a01b0316612b7f8a600001516060902090565b7f5575d7d7c01adb4eeee1e2ec4a63652fdf5086d71fd325fa1af8034796b899048b606001518c60800151604051612bc1929190918252602082015260400190565b60405180910390a4505050505050505050565b60808301516303ffffff811614612c2d5760405162461bcd60e51b815260206004820152601e60248201527f6d67762f77726974654f666665722f67617370726963652f746f6f426967000060448201526064016105c0565b60a083015160441c6303ffffff1683608001511015612c5a5760a083015160441c6303ffffff1660808401525b60a0830151602c1c62ffffff1683606001511115612cba5760405162461bcd60e51b815260206004820152601d60248201527f6d67762f77726974654f666665722f6761737265712f746f6f4869676800000060448201526064016105c0565b6000836020015111612d0e5760405162461bcd60e51b815260206004820152601b60248201527f6d67762f77726974654f666665722f67697665732f746f6f4c6f77000000000060448201526064016105c0565b612d38612d1e8460c001516141d2565b606085015160c086015191019060ee1c6101ff16906141e2565b83602001511015612d8b5760405162461bcd60e51b815260206004820152601d60248201527f6d67762f77726974654f666665722f64656e736974792f746f6f4c6f7700000060448201526064016105c0565b602083015160016001607f1b03811614612de75760405162461bcd60e51b815260206004820152601b60248201527f6d67762f77726974654f666665722f67697665732f746f6f426967000000000060448201526064016105c0565b82516040015180830760001281840501612e0181836141fb565b9350612e0c84612392565b612e585760405162461bcd60e51b815260206004820152601e60248201527f6d67762f77726974654f666665722f7469636b2f6f75744f6652616e6765000060448201526064016105c0565b604085015185516060902033906020808901516080808b01516060808d0151604080518e8152968701959095529385019190915283019190915281018490527fbeb2dc87c4db0b489fe0485121086dfff34fcaac67b1120861b95f1b6649c97b9060a00160405180910390a36000818152600588016020526040812060018101548615612f7157612ee98160601c90565b6001600160a01b0316336001600160a01b031614612f495760405162461bcd60e51b815260206004820152601c60248201527f6d67762f7570646174654f666665722f756e617574686f72697a65640000000060448201526064016105c0565b612f5281612059565b604882901c62ffffff1601602582901c6303ffffff16620f4240020292505b861580612f8b57506060890151604882901c62ffffff1614155b80612fa457506080890151602582901c6303ffffff1614155b80612fc35750612fb78960c001516141d2565b612fc082612059565b14155b15613051576000612fd78a60c001516141d2565b905061304a338b606001516103e88481612ff357612ff3615349565b048d60800151677fffffe000000000602582901b1668ff8000000000000000603f84901b166bffffff000000000000000000604886901b166bffffffffffffffffffffffff19606088901b16171717949350505050565b6001840155505b600089608001516130658b60c001516141d2565b8b606001510102620f42400290508381111561308c5761308733858303611990565b6130a0565b838110156130a0576130a033828603611657565b50505060c0870151600091506130c09060ac1c6001600160401b03161590565b156130cc575081613158565b6130d98760c00151611b3f565b60e0880151909150602c1c60016001607f1b03161561315857600083821315905061311089868a60e001518b60c001518686611b4a565b60c08a0191909152905080156131565760c08801516131399060ac1c6001600160401b03161590565b1561314657839150613156565b6131538860c00151611b3f565b91505b505b808313613177576131716003841660c089015190614013565b60c08801525b600061318c89600401600061182a8760021d90565b905080613496576000806131a08660081d90565b905060006131ae8560081d90565b90508082036131cf5760c08b015160ac1c6001600160401b03169250613244565b600082815260038d0160205260409020546001600160ff1b03169250808212156132445760c08b015160ac1c6001600160401b0316801515806132215750600082815260038e01602052604090205415155b801561324157600083815260038f0160205260409020600160ff1b831790555b50505b80821361326d576132636132588489613f14565b60c08d015190613f2f565b60c08c0152613295565b61328361327a8489613f14565b600160ff1b1790565b600083815260038e0160205260409020555b82613492576132a487600e1d90565b91506132b085600e1d90565b90508082036132d15760c08b0151606c1c6001600160401b03169250613346565b600082815260028d0160205260409020546001600160ff1b03169250808212156133465760c08b0151606c1c6001600160401b0316801515806133235750600082815260028e01602052604090205415155b801561334357600083815260028f0160205260409020600160ff1b831790555b50505b80821361336f5761336561335a8489613f54565b60c08d015190613f60565b60c08c015261338e565b61337c61327a8489613f54565b600083815260028e0160205260409020555b826134925761339d8760141d90565b91506133a98560141d90565b90508082036133ca5760c08b0151602c1c6001600160401b0316925061341a565b600082815260018d0160205260409020546001600160ff1b031692508082121561341a5760c08b015161340890602c1c6001600160401b031661327a565b600082815260018e0160205260409020555b8082136134435761343961342e8489613f85565b60c08d015190613f91565b60c08c0152613462565b61345061327a8489613f85565b600083815260018e0160205260409020555b826134925760c08b015161348c90613481908990602a1c600316611ed6565b60c08d015190613fcc565b60c08c01525b5050505b60006134a28286614207565b9050806000036134be576134b7828686613eaa565b91506134dd565b600081815260058b016020526040902080546134da9086613ed0565b90555b6134e8828686613eed565b9150811582178a60040160006134fe8860021d90565b81526020808201929092526040016000908120929092558a015160e083901b60ab8b901b621fffff60ab1b1617602c9190911b7507fffffffffffffffffffffffffffffff00000000000161760009586526005909b01602052505060409092209790975550505050505050565b6001600160a01b0380851660009081526005602090815260408083208785168452825280832093861683529281528282203383529081905291902054828110156135ea5760405162461bcd60e51b815260206004820152601060248201526f6d67762f6c6f77416c6c6f77616e636560801b60448201526064016105c0565b3360008181526020848152604091829020868503908190558251938452908301526001600160a01b038681169288821692918a16917f6e791f456e6f5034d4928b936c32bf7e650d8228543ce7985d632ab03934837d910160405180910390a4505050505050565b60008060016001607f1b038411156136ac5760405162461bcd60e51b815260206004820152601f60248201527f6d67762f726174696f46726f6d566f6c2f696e626f756e642f746f6f4269670060448201526064016105c0565b60016001607f1b038311156137035760405162461bcd60e51b815260206004820181905260248201527f6d67762f726174696f46726f6d566f6c2f6f7574626f756e642f746f6f42696760448201526064016105c0565b8260000361372657506ffffb12cdf1087799c03e5a811a7aaa1c90506000610bd9565b8360000361374957506f800276a52a62a71c29fc1cc441e523bc905060ff610bd9565b600083608086901b8161375e5761375e615349565b04905060006137ed827e09010a0d15021d0b0e10121619031e080c141c0f111807131b17061a05041f6307c4acdd60e01b6001600160801b03831160071b8315600890811b9190911784811c6001600160401b031060061b1784811c63ffffffff1060051b1793841c600181901c17600281901c17600481901c179081901c17601081901c170260fb1c1a1790565b90508160000361383f5760405162461bcd60e51b815260206004820152601e60248201527f6d67762f726174696f46726f6d566f6c756d65732f7a65726f526174696f000060448201526064016105c0565b607f81111561386057607e1981019190911c9250608003607f019050610bd9565b607f0390811b92506080019050610bd9565b600061389183836f800276a52a62a71c29fc1cc441e523bc60ff614221565b156138de5760405162461bcd60e51b815260206004820152601860248201527f6d67762f7469636b46726f6d526174696f2f746f6f4c6f77000000000000000060448201526064016105c0565b6138fb6ffffb12cdf1087799c03e5a811a7aaa1c60008585614221565b156139485760405162461bcd60e51b815260206004820152601960248201527f6d67762f7469636b46726f6d526174696f2f746f6f486967680000000000000060448201526064016105c0565b6000604061395784607f6153f4565b901b90506000613968607f8061541b565b85901c800260c081901c6780000000000000001692909217607f83811c60ff94851c1c800260c181901c674000000000000000169290921782821c92851c9290921c800260c281901c672000000000000000169290921782821c92851c9290921c800260c381901c671000000000000000169290921782821c92851c9290921c800260c481901c670800000000000000169290921782821c92851c9290921c800260c581901c670400000000000000169290921782821c92851c9290921c800260c681901c670200000000000000169290921782821c92851c9290921c800260c781901c670100000000000000169290921782821c92851c9290921c800260c881901c6680000000000000169290921782821c92851c9290921c800260c981901c6640000000000000169290921782821c92851c9290921c800260ca81901c6620000000000000169290921782821c92851c9290921c800260cb81901c6610000000000000169290921782821c9290941c9190911c800260cc81901c6608000000000000169390931792901c90506000613b0c83691b13d180eb882abba64361542e565b905060006080613b2c6f0147b240d5bf82739a122ad496972236846153f4565b901d905060006080613b4e846fd9e63e52eeeb7875a857348794e7367561545e565b901d9050600080613b5e83614240565b915091506000613b708b8b8585614221565b905083851480613b7d5750805b15613b8a57849850613b8e565b8398505b505050505050505092915050565b60006116d5826001600160401b036001600160801b038211600781901b83901c9190911115901560011b176040021b60e01c90565b60008260a00151118015613bfa5750816101000151613bf7826040015160401b60eb1d90565b13155b8015613c0a575060008160200151115b8015613c1b57506000826101600151115b8015613c31575081610120015182610140015111155b15613d535761016082018051600019019052602080820151600090815260058501909152604081206001015460a08301528080613c6f868686612414565b60608701516080880151602089015160408a015160a08b015196995094975092955090939092906f6d67762f74726164655375636365737360801b869003613ccf578960800151613cc05783613cc2565b845b60a08b0180519190910390525b613ce88b8b848c60e001518d60000151604001516142b2565b60e08b01526020808b01829052600091825260058d01905260409081902054908a0152613d168b8b8b613bd1565b6060890185905260808901849052602089018390526040890182905260a08901819052613d468a8a8a8a8a61297f565b5050505050505050505050565b604080820151825190910151600090613d6d908390613e83565b90508260200151600014613ddf57613d858260e01c90565b15613db05760408301516001600160e01b031660208085015160009081526005880190915260409020555b6000613dbc8260021d90565b9050613dcc8560e0015180151790565b6000918252600487016020526040909120555b60e0830151613def9060006123f8565b60e084018190528555613e028484614571565b50505b505050565b6000806002600680806001613e256003602a8a901c1661460b565b03901b613e3e602c88901c6001600160401b031661460b565b17901b613e57606c87901c6001600160401b031661460b565b17901b613e7060ac86901c6001600160401b031661460b565b17901b60ec84901c600316179392505050565b6000613ea382613e968560401b60eb1d90565b9060008183071391050190565b9392505050565b6000600383166040810260e00383811b63ffffffff90911b198616175b95945050505050565b60c01b63ffffffff60c01b1663ffffffff60c01b19919091161790565b6000600383166002810260010160200260e00383811b63ffffffff90911b19861617613ec7565b600080613f2083614666565b6001901b939093189392505050565b60ac1b67ffffffffffffffff60ac1b1667ffffffffffffffff60ac1b19919091161790565b600080613f208361467b565b606c1b67ffffffffffffffff606c1b1667ffffffffffffffff606c1b19919091161790565b600080613f2083614689565b602c1b6d0ffffffffffffffff00000000000166d0ffffffffffffffff0000000000019919091161790565b600080613f208360141d60010190565b602a1b650c000000000016650c000000000019919091161790565b60006001613ff483614697565b0392915050565b600061400683614697565b6040830201905092915050565b60ec1b600360ec1b16600360ec1b19919091161790565b600080614035614cd8565b60648185516020870160008a8af192508060448415020151915050935093915050565b60006116d5602c83901c60016001607f1b03166124a28460401b60eb1d90565b600080600061408685614240565b915091506116d0848302826001811b600019018216151591901c0190565b600080806140b96140b486615486565b614240565b9092509050806140c985846154a2565b901c95945050505050565b60008060006140e5878787876146a2565b60a099909901516007805460018101825560009190915260489190911c62ffffff169890980382017fa66cc928b5edb82af9bd49922954155ab7b0942694bea4ce44661d9a8736c6889098019790975597959695945050505050565b60a082015160009062ffffff604882901c1690829061415f90612059565b60a08601519083019060251c6303ffffff16620f42400202905081841115614185578193505b60006141948660e001516141d2565b60c08701519086019060441c6303ffffff16620f424002029050818111156141b95750805b6116d06141ca8760a0015160601c90565b828403611657565b6000602182901c6101ff16612065565b600060206141ef8461478c565b8302901c905092915050565b6000613ea3828461542e565b60006001600260038416020160200283901b60e01c613ea3565b600081841180613ec757508184148015613ec757505050909110919050565b60008061424c836147b3565b909250905060eb83901b60007ed89e8c075c4155dd3213326cbbcf86fd1f63f5c205dd2ad2cf44f9349b39e180830782139083050390607e19828501019081131561429a5793841c936142a4565b8060000385901b94505b81607f039350505050915091565b600080806142c08685613e83565b60e088015190915063ffffffff60c088901c16906142df818484613eaa565b90508160000361455b576142f581846000613eed565b90508061451757801581178a60040160006143108660021d90565b815260200190815260200160002081905550600061433e84611cac8a6001600160401b0360ac9190911c1690565b9050600061434c8560081d90565b9050816144f357600081815260038d0160205260409020541561438157600081815260038d0160205260409020600160ff1b90555b61438b85600e1d90565b90506143a485606c8b901c6001600160401b0316611d77565b9150816144c757600081815260028d016020526040902054156143d957600081815260028d0160205260409020600160ff1b90555b6143e38560141d90565b90506143fc85602c8b901c6001600160401b0316611e42565b91508161449b57600081815260018d0160205260409020600160ff1b905561442b85602a8b901c600316611ed6565b91506144378983613fcc565b98508161447c576144488983613f91565b98506144548983613f60565b98506144608983613f2f565b600060e08d018190529099509650889550614567945050505050565b61448582613fe7565b600081815260018e016020526040902054925090505b6144a58983613f91565b98506144b18282613ffb565b600081815260028e016020526040902054925090505b6144d18983613f60565b98506144dd8282613ffb565b600081815260038e016020526040902054925090505b6144fd8983613f2f565b985061451260048d01600061182a8585613ffb565b925050505b6001600160401b036001600160801b038211600781901b83901c9190911115901560011b176145468882614013565b975061455782826040021b60e01c90565b9250505b60e08901529250849150505b9550959350505050565b60e08101516000906127109060f71c60ff168451028161459357614593615349565b04905080156145ab578251819003835260c083018190525b825115613e0557815151606084015184516145c792919061214d565b613e055760405162461bcd60e51b815260206004820152601560248201527436b3bb17a6b3bb2330b4b62a37a830bcaa30b5b2b960591b60448201526064016105c0565b7e011c021d0e18031e16140f191104081f1b0d17151310071a0c12060b050a096001600160401b0382811680196001019093161663ffffffff811160051b921560061b9290921791821c63077cb53160e01b0260fb1c1a1790565b6000603f6146748360021d90565b1692915050565b6000603f6146748360081d90565b6000603f61467483600e1d90565b60006116d58261460b565b600080600080876040518060400160405280888152602001878152506040516024016146cf9291906154b9565b60408051601f198184030181529190526020810180516001600160e01b03166331f86ed160e21b17905260a089015190915060009061470e9060601c90565b905060005a905088604082048203101561476a5760405162461bcd60e51b815260206004820181905260248201527f6d67762f6e6f74456e6f756768476173466f724d616b6572506f7374686f6f6b60448201526064016105c0565b614775828a8561402a565b90955093505a810395505050509450945094915050565b60006007821161479d575060031690565b506004600382161760029190911c600119011b90565b60008060008084126147c557836147ce565b6147ce84615486565b9050620d89e88111156148235760405162461bcd60e51b815260206004820152601760248201527f6d67762f6162735469636b2f6f75744f66426f756e647300000000000000000060448201526064016105c0565b60006001821615614846576ffff97272373d413259a46990580e2139935061484e565b600160801b93505b6002821615614878576080614873856ffff2e50f5f656932ef12357cf3c7fdcb6154a2565b901c93505b60048216156148a257608061489d856fffe5caca7e10e4e61c3624eaa0941ccf6154a2565b901c93505b60088216156148cc5760806148c7856fffcb9843d60f6159c9db58835c9266436154a2565b901c93505b60108216156148f65760806148f1856fff973b41fa98c081472e6896dfb254bf6154a2565b901c93505b602082161561492057608061491b856fff2ea16466c96a3843ec78b326b528606154a2565b901c93505b604082161561494a576080614945856ffe5dee046a99a2a811c461f1969c30526154a2565b901c93505b608082161561497457608061496f856ffcbe86c7900a88aedcffc83b479aa3a36154a2565b901c93505b61010082161561499f57608061499a856ff987a7253ac413176f2b074cf7815e536154a2565b901c93505b6102008216156149ca5760806149c5856ff3392b0822b70005940c7a398e4b70f26154a2565b901c93505b6104008216156149f55760806149f0856fe7159475a2c29b7443b29c7fa6e889d86154a2565b901c93505b610800821615614a20576080614a1b856fd097f3bdfd2022b8845ad8f792aa58256154a2565b901c93505b611000821615614a4b576080614a46856fa9f746462d870fdf8a65dc1f90e061e46154a2565b901c93505b612000821615614a83576080614a71856fe1b0d342ada5437121767bec575e65ed6154a2565b901c9350614a8060018261545e565b90505b614000821615614abb576080614aa9856fc6f84d7e5f423f66048c541550bf3e966154a2565b901c9350614ab860028261545e565b90505b618000821615614af3576080614ae1856f9aa508b5b7a84e1c677de54f3e99bc8f6154a2565b901c9350614af060048261545e565b90505b62010000821615614b2c576080614b1a856fbad5f1bdb70232cd33865244bdcc089c6154a2565b901c9350614b2960098261545e565b90505b62020000821615614b65576080614b53856f885b9613d7e87aa498106fb7fa5edd376154a2565b901c9350614b6260128261545e565b90505b62040000821615614b9e576080614b8c856f9142e0723efb884889d1f447715afacd6154a2565b901c9350614b9b60258261545e565b90505b62080000821615614bd7576080614bc5856fa4d9a773d61316918f140bd96e8e68146154a2565b901c9350614bd4604b8261545e565b90505b6000851315614bf857600184856000030401935080614bf590615486565b90505b614c0381608061545e565b92505050915091565b60405180610180016040528060008152602001600081526020016000815260200160006001600160a01b03168152602001600015158152602001600081526020016000815260200160008152602001600081526020016000815260200160008152602001600081525090565b60408051610160810190915260006101008201818152610120830182905261014083019190915281908152602001600081526020016000815260200160008152602001600081526020016000815260200160008152602001600081525090565b60405180608001604052806004906020820280368337509192915050565b8183823760009101908152919050565b80356001600160a01b0381168114614d1d57600080fd5b919050565b600060608284031215614d3457600080fd5b604051606081018181106001600160401b0382111715614d6457634e487b7160e01b600052604160045260246000fd5b604052905080614d7383614d06565b8152614d8160208401614d06565b6020820152604083013560408201525092915050565b6000806000806000806101008789031215614db157600080fd5b614dbb8888614d22565b986060880135985060808801359760a0810135975060c0810135965060e00135945092505050565b801515811461165457600080fd5b60008060008060c08587031215614e0757600080fd5b614e118686614d22565b9350606085013592506080850135915060a0850135614e2f81614de3565b939692955090935050565b600080600080600060e08688031215614e5257600080fd5b614e5c8787614d22565b9450606086013593506080860135925060a0860135614e7a81614de3565b9150614e8860c08701614d06565b90509295509295909350565b600060208284031215614ea657600080fd5b613ea382614d06565b600060208284031215614ec157600080fd5b5035919050565b60008060008060a08587031215614ede57600080fd5b614ee88686614d22565b935060608501356001600160401b0380821115614f0457600080fd5b818701915087601f830112614f1857600080fd5b813581811115614f2757600080fd5b8860208260071b8501011115614f3c57600080fd5b602083019550809450505050614f5460808601614d06565b905092959194509250565b60008060008060808587031215614f7557600080fd5b614f7e85614d06565b9350614f8c60208601614d06565b9250614f9a60408601614d06565b9396929550929360600135925050565b600080600060a08486031215614fbf57600080fd5b614fc98585614d22565b9250606084013591506080840135614fe081614de3565b809150509250925092565b60008082840361016081121561500057600080fd5b6101408082121561501057600080fd5b84935061501e818601614d06565b925050509250929050565b600080600080600080610100878903121561504357600080fd5b61504d8888614d22565b9550606087013594506080870135935060a0870135925060c0870135915061507760e08801614d06565b90509295509295509295565b60008060008060008060008060006101208a8c0312156150a257600080fd5b6150ab8a614d06565b98506150b960208b01614d06565b97506150c760408b01614d06565b96506150d560608b01614d06565b955060808a0135945060a08a0135935060c08a013560ff811681146150f957600080fd5b8093505060e08a013591506101008a013590509295985092959850929598565b600080600080600060e0868803121561513157600080fd5b61513b8787614d22565b976060870135975060808701359660a0810135965060c00135945092505050565b600080600080600060e0868803121561517457600080fd5b61517e8787614d22565b9450606086013593506080860135925060a086013561519c81614de3565b9497939650919460c0013592915050565b634e487b7160e01b600052603260045260246000fd5b80516001600160a01b03908116835260208083015190911690830152604090810151910152565b61010081016151f982896151c3565b6060820196909652608081019490945260a084019290925260c08301526001600160a01b031660e090910152919050565b6000825160005b8181101561524b5760208186018101518583015201615231565b506000920191825250919050565b60006020828403121561526b57600080fd5b5051919050565b606081016116d582846151c3565b6000806040838503121561529357600080fd5b505080516020909101519092909150565b6000602082840312156152b657600080fd5b8151613ea381614de3565b61014081016001600160a01b03806152d885614d06565b168352806152e860208601614d06565b1660208401525060408301356040830152606083013560608301526080830135608083015260a083013560a083015260c083013560c083015260e083013560e083015261010080840135818401525061012080840135818401525092915050565b634e487b7160e01b600052601260045260246000fd5b61536a8282516151c3565b6020810151606083015260408101516080830152606081015160a0830152608081015160c083015260a081015160e083015260c081015161010083015260e08101516101208301525050565b61016081016153c5828561535f565b6001600160a01b03929092166101409190910152919050565b634e487b7160e01b600052601160045260246000fd5b8181036000831280158383131683831282161715615414576154146153de565b5092915050565b818103818111156116d5576116d56153de565b80820260008212600160ff1b8414161561544a5761544a6153de565b81810583148215176116d5576116d56153de565b808201828112600083128015821682158216171561547e5761547e6153de565b505092915050565b6000600160ff1b820161549b5761549b6153de565b5060000390565b80820281158282048414176116d5576116d56153de565b61018081016154c8828561535f565b82516101408301526020830151610160830152939250505056fea264697066735822122081de6c4fa951b7763d303a7295ba2e59439712054d185cf0997e88e6755b39ef64736f6c63430008140033608060405234801561001057600080fd5b50611aef806100206000396000f3fe608060405234801561001057600080fd5b50600436106102065760003560e01c806374bfac331161011a578063c7b06e87116100ad578063e982fb8d1161007c578063e982fb8d1461056a578063eeba33681461057d578063f514244414610590578063fcaa7e2e146105a3578063fec777b4146105b657600080fd5b8063c7b06e87146104e3578063cd6a7ca7146104f6578063ce5bbece14610544578063e37de38b1461055757600080fd5b806396b4c30f116100e957806396b4c30f146104a2578063a05f9906146104b5578063a1db9782146104bd578063ab033ea9146104d057600080fd5b806374bfac33146104405780637ecebe0014610453578063902455301461047c57806395999ee31461048f57600080fd5b80635275b2121161019d5780635cd823901161016c5780635cd82390146103495780635d49dc111461035c5780636804f613146103f15780636c6fda561461040457806370a082311461041757600080fd5b80635275b212146102d05780635a611f4e146102f85780635aa6e6751461030b5780635b2752961461033657600080fd5b806330adf81f116101d957806330adf81f1461027a57806341b12acf146102a057806341c0e1b5146102b3578063443759fb146102bd57600080fd5b80630469bb661461020b57806304a7a1b4146102335780630adf51a9146102545780631c04321514610267575b600080fd5b61021e610219366004611837565b6105c9565b60405190151581526020015b60405180910390f35b610246610241366004611853565b610601565b60405190815260200161022a565b610246610262366004611853565b610646565b610246610275366004611837565b6106c6565b7ff0ea0a7146fb6eedb561d97b593d57d9b7df3c94d689372dc01302e5780248f4610246565b6102466102ae366004611837565b6106e4565b6102bb610725565b005b6102bb6102cb366004611853565b61076f565b6102e36102de366004611837565b61084a565b6040805192835260208301919091520161022a565b6102bb61030636600461188c565b61086a565b60005461031e906001600160a01b031681565b6040516001600160a01b03909116815260200161022a565b6102bb610344366004611837565b6108c4565b6102bb6103573660046118a9565b610967565b6103c161036a3660046118c4565b60408051606080820183526000808352602080840182905292840181905293845260038252928290208251938401835280546001600160a01b03908116855260018201541691840191909152600201549082015290565b6040805182516001600160a01b03908116825260208085015190911690820152918101519082015260600161022a565b6102bb6103ff36600461188c565b6109d1565b610246610412366004611853565b610a24565b6102466104253660046118a9565b6001600160a01b031660009081526004602052604090205490565b6102bb61044e3660046118c4565b610a9f565b6102466104613660046118a9565b6001600160a01b031660009081526006602052604090205490565b61024661048a366004611837565b610b33565b6102bb61049d3660046118c4565b610b9d565b6102bb6104b03660046118dd565b610c52565b610246610d69565b6102bb6104cb366004611917565b610d96565b6102bb6104de3660046118a9565b610dfe565b6102e36104f1366004611853565b610ea0565b610246610504366004611941565b6001600160a01b03938416600090815260056020908152604080832095871683529481528482209386168252928352838120919094168452905290205490565b610246610552366004611853565b610ef1565b6102bb6105653660046118c4565b610f3b565b610246610578366004611853565b610fce565b6102bb61058b366004611853565b611016565b6102bb61059e366004611853565b6110cd565b6102bb6105b13660046118c4565b611191565b6102466105c4366004611853565b611243565b60006105fb600260006105dd856060902090565b81526020019081526020016000206000015464010000000016151590565b92915050565b60008060026000610613866060902090565b8152602001908152602001600020905061063081600001546112be565b6000928352600501602052506040902054919050565b60008060026000610658866060902090565b815260208101919091526040016000208054909150610676816112be565b836106896106838361130d565b600e1d90565b036106a757606c81901c67ffffffffffffffff165b925050506105fb565b60008481526002830160205260409020546001600160ff1b031661069e565b60006106d182611318565b5091506106df9050816112be565b919050565b600080600260006106f6856060902090565b815260208101919091526040016000208054909150610714816112be565b602a81901c6003165b949350505050565b61072d611441565b60015465080000000000191665080000000000176001556040517fbe26733c2bf6ff3ea5ba8cfe744422bd49052ff9ed5685c9e81e6f9321dbaddd90600090a1565b610777611441565b6040805180820190915260148152736d67762f636f6e6669672f6665652f386269747360601b602082015260ff821682146107ce5760405162461bcd60e51b81526004016107c591906119b9565b60405180910390fd5b506000600260006107e0856060902090565b815260208101919091526040016000208054909150600161010160f71b031660ff60f71b60f784901b16178155606083206040518381527f139d6f58e9a127229667c8e3b36e88890a66cfc8ab1024ddc513e189e125b75b906020015b60405180910390a2505050565b60008061085683611318565b509092509050610865816112be565b915091565b610872611441565b6001546001605e1b1916605e82901b6001605e1b161760015560405181151581527f9b84fe4d9ffc14a6f7ec50c18884ee0d4bb8165aa718a28558df12ab4bd32b14906020015b60405180910390a150565b6108cc611441565b6000600260006108dd846060902090565b81526020019081526020016000209050610905600082600001546114ae90919063ffffffff16565b8155602082015182516001600160a01b039182169116610926846060902090565b6040808601518151908152600060208201527fae754ab4fca7273731e24a2db3350b4f89e22d7eff0819e2e3ab99aadca96de2910160405180910390a45050565b61096f611441565b6001546bffffffffffffffffffffffff166bffffffffffffffffffffffff19606083901b16176001556040516001600160a01b03821681527ff592e42c32883b35bebfbf9d9b801570a25d5ccbba452310746ad2cfd20d548f906020016108b9565b6109d9611441565b6001546001605f1b1916605f82901b6001605f1b161760015560405181151581527fbf39fbfab835c119637f4dbc4fb0f428c559c210200405d1ec25ddb50a93f9d4906020016108b9565b60008060026000610a36866060902090565b815260208101919091526040016000208054909150610a54816112be565b83610a67610a618361130d565b60141d90565b03610a8057602c81901c67ffffffffffffffff1661069e565b60008481526001830160205260409020546001600160ff1b031661069e565b610aa7611441565b63ffffffff811681146040518060600160405280602b8152602001611a8f602b913990610ae75760405162461bcd60e51b81526004016107c591906119b9565b506001546407fffffff819166407fffffff8600383901b16176001556040518181527fd03e2a424e8f5cf53988a496e7a6a3b7e11e7c082a349bdfdb61f4623863bc01906020016108b9565b60008060026000610b45856060902090565b815260208101919091526040016000208054909150610b63816112be565b61071d610b98836004016000610b81610b7b8661130d565b60021d90565b815260200190815260200160002054600181141890565b6114c1565b610ba5611441565b60408051808201909152601881527f6d67762f636f6e6669672f6761736d61782f3234626974730000000000000000602082015262ffffff82168214610bfe5760405162461bcd60e51b81526004016107c591906119b9565b50600154680ffffff000000000001916680ffffff00000000000602c83901b16176001556040518181527f8cdff0cd5ed2543bcdf7eb93d8ec1c23626e579925f4531beeef15d84cf78d18906020016108b9565b610c5a611441565b606084206000818152600360209081526040808320885181546001600160a01b03199081166001600160a01b03928316178355848b0151600184018054909216921691909117905581890151600291820155909152902080546001600160ff1b0316600160ff1b178155602086015186516001600160a01b039182169116610ce3886060902090565b6040808a01518151908152600160208201527fae754ab4fca7273731e24a2db3350b4f89e22d7eff0819e2e3ab99aadca96de2910160405180910390a4610d2a868661076f565b610d3486856110cd565b610d3e8684611016565b600019600090815260019091016020526040808220600160ff1b908190558280529120555050505050565b60408051606081018252600080825260208201819052918101829052610d8e90611318565b509092915050565b610d9e611441565b600054610db69083906001600160a01b0316836114f7565b610dfa5760405162461bcd60e51b81526020600482015260156024820152741b59dd8bddda5d1a191c985dd15490cc8c11985a5b605a1b60448201526064016107c5565b5050565b610e06611441565b6001600160a01b038116610e525760405162461bcd60e51b815260206004820152601360248201527206d67762f636f6e6669672f676f762f6e6f743606c1b60448201526064016107c5565b600080546001600160a01b0319166001600160a01b0383169081179091556040519081527f24a8c4807b324a269a51827c3446b8ac1cc13810d7d0c0ca1efafabddd7b6219906020016108b9565b600080600060026000610eb4876060902090565b81526020019081526020016000209050610ed181600001546112be565b600093845260050160205250506040902080546001909101549092909150565b60008060026000610f03866060902090565b81526020019081526020016000209050610f2081600001546112be565b60009283526004016020525060409020546001811418919050565b610f43611441565b60ff81168114604051806060016040528060228152602001611a4a6022913990610f805760405162461bcd60e51b81526004016107c591906119b9565b506001546507f80000000019166507f800000000602383901b16176001556040518181527ff9212b044703fa96962c8e40c32a62753a62752f2508fc05be2648e74dd24d85906020016108b9565b60008060026000610fe0866060902090565b81526020019081526020016000209050610ffd81600001546112be565b6000928352600501602052506040902060010154919050565b61101e611441565b61102f6103e882046101ff81161490565b604051806060016040528060238152602001611a6c60239139906110665760405162461bcd60e51b81526004016107c591906119b9565b50600060026000611078856060902090565b81526020810191909152604001600020805490915061109790836115cc565b8155606083206040518381527f4e29e260c5052737cbcd072416e6066a3db8a95f90ed5a03d4b424fc04c54b839060200161083d565b6110d5611441565b6000600260006110e6856060902090565b8152602001908152602001600020905061110382600160801b1190565b61114f5760405162461bcd60e51b815260206004820152601d60248201527f6d67762f636f6e6669672f64656e7369747939365833322f77726f6e6700000060448201526064016107c5565b805461115b90836115f1565b8155606083206040518381527f0bd5b439c78e74e0095d271b67b573d223bc701828c7e2f0bb943a44c5eaa4fe9060200161083d565b611199611441565b60408051808201909152601a81527f6d67762f636f6e6669672f67617370726963652f32366269747300000000000060208201526303ffffff821682146111f35760405162461bcd60e51b81526004016107c591906119b9565b506001546303ffffff60441b19166303ffffff60441b604483901b16176001556040518181527fdbebd814ae648f654dcc50c734aa76e55a32e96b7d85303a08e2ddf11874a0dd906020016108b9565b60008060026000611255866060902090565b815260208101919091526040016000208054909150611273816112be565b836112866112808361130d565b60081d90565b0361129f5760ac81901c67ffffffffffffffff1661069e565b60008481526003830160205260409020546001600160ff1b031661069e565b64010000000081161561130a5760405162461bcd60e51b81526020600482015260146024820152731b59dd8bdc99595b9d1c985b98de531bd8dad95960621b60448201526064016107c5565b50565b60006105fb82611606565b60008060006002600061132c866060902090565b81526020019081526020016000209050600154925080600001549150611357836001605f1b16151590565b1561143a576000806113698560601c90565b6040805163361d8a6b60e21b815288516001600160a01b03908116600483015260208a01518116602483015291890151604482015291169063d87629ac906064016040805180830381865afa1580156113c6573d6000803e3d6000fd5b505050506040513d601f19601f820116820180604052508101906113ea91906119ec565b915091506113fd826303ffffff81161490565b1561141f576303ffffff60441b1985166303ffffff60441b604484901b161794505b6101ff81168103611437576114348482611682565b93505b50505b9193909250565b6000546001600160a01b031633148061145957503330145b8061146d57506000546001600160a01b0316155b6114ac5760405162461bcd60e51b815260206004820152601060248201526f1b59dd8bdd5b985d5d1a1bdc9a5e995960821b60448201526064016107c5565b565b60ff1b6001600160ff1b03919091161790565b60006105fb8267ffffffffffffffff6001600160801b038211600781901b83901c9190911115901560011b176040021b60e01c90565b604080516001600160a01b038481166024830152604480830185905283518084039091018152606490920183526020820180516001600160e01b031663a9059cbb60e01b179052915160009283918291881690611555908590611a10565b6000604051808303816000865af19150503d8060008114611592576040519150601f19603f3d011682016040523d82523d6000602084013e611597565b606091505b50915091508180156115c15750805115806115c15750808060200190518101906115c19190611a2c565b979650505050505050565b60006503fe000000001983166503fe000000006103e8840460211b16175b9392505050565b60006115ea6115ff8361169b565b8490611682565b60008060026006808060016116216003602a8a901c1661174e565b03901b61163b602c88901c67ffffffffffffffff1661174e565b17901b611655606c87901c67ffffffffffffffff1661174e565b17901b61166f60ac86901c67ffffffffffffffff1661174e565b17901b60ec84901c600316179392505050565b60ee1b6101ff60ee1b166101ff60ee1b19919091161790565b6000600382116116a9575090565b6000611736837e09010a0d15021d0b0e10121619031e080c141c0f111807131b17061a05041f6307c4acdd60e01b6001600160801b03831160071b8315600890811b9190911784811c67ffffffffffffffff1060061b1784811c63ffffffff1060051b1793841c600181901c17600281901c17600481901c179081901c17601081901c170260fb1c1a1790565b90506003600119820184901c16600282901b176115ea565b7e011c021d0e18031e16140f191104081f1b0d17151310071a0c12060b050a0967ffffffffffffffff82811680196001019093161663ffffffff811160051b921560061b9290921791821c63077cb53160e01b0260fb1c1a1790565b80356001600160a01b03811681146106df57600080fd5b6000606082840312156117d357600080fd5b6040516060810181811067ffffffffffffffff8211171561180457634e487b7160e01b600052604160045260246000fd5b604052905080611813836117aa565b8152611821602084016117aa565b6020820152604083013560408201525092915050565b60006060828403121561184957600080fd5b6115ea83836117c1565b6000806080838503121561186657600080fd5b61187084846117c1565b946060939093013593505050565b801515811461130a57600080fd5b60006020828403121561189e57600080fd5b81356115ea8161187e565b6000602082840312156118bb57600080fd5b6115ea826117aa565b6000602082840312156118d657600080fd5b5035919050565b60008060008060c085870312156118f357600080fd5b6118fd86866117c1565b966060860135965060808601359560a00135945092505050565b6000806040838503121561192a57600080fd5b611933836117aa565b946020939093013593505050565b6000806000806080858703121561195757600080fd5b611960856117aa565b935061196e602086016117aa565b925061197c604086016117aa565b915061198a606086016117aa565b905092959194509250565b60005b838110156119b0578181015183820152602001611998565b50506000910152565b60208152600082518060208401526119d8816040850160208701611995565b601f01601f19169190910160400192915050565b600080604083850312156119ff57600080fd5b505080516020909101519092909150565b60008251611a22818460208701611995565b9190910192915050565b600060208284031215611a3e57600080fd5b81516115ea8161187e56fe6d67762f636f6e6669672f6d6178526563757273696f6e44657074682f38626974736d67762f636f6e6669672f6b696c6f5f6f666665725f676173626173652f39626974736d67762f636f6e6669672f6d6178476173726571466f724661696c696e674f66666572732f333262697473a2646970667358221220654134cbb6ea0a65086ae9ee9b8ce79546c407e2c386f7faf3a7f1b97230f04564736f6c63430008140033",
    "linkReferences": {}
  },
  "methodIdentifiers": {
    "DOMAIN_SEPARATOR()": "3644e515",
    "approve(address,address,address,uint256)": "59eba454",
    "cleanByImpersonation((address,address,uint256),(uint256,int256,uint256,uint256)[],address)": "32810dd6",
    "flashloan(((address,address,uint256),uint256,uint256,uint256,uint256,uint256,uint256,uint256),address)": "78393c88",
    "fund()": "b60d4288",
    "fund(address)": "23024408",
    "governance()": "5aa6e675",
    "internalCleanByImpersonation((address,address,uint256),uint256,int256,uint256,uint256,address)": "7d3e6162",
    "marketOrderByTick((address,address,uint256),int256,uint256,bool)": "d6a522ce",
    "marketOrderByTickCustom((address,address,uint256),int256,uint256,bool,uint256)": "e030e04b",
    "marketOrderByVolume((address,address,uint256),uint256,uint256,bool)": "1440e604",
    "marketOrderForByTick((address,address,uint256),int256,uint256,bool,address)": "e9801a29",
    "marketOrderForByVolume((address,address,uint256),uint256,uint256,bool,address)": "2275123f",
    "newOfferByTick((address,address,uint256),int256,uint256,uint256,uint256)": "f95902aa",
    "newOfferByVolume((address,address,uint256),uint256,uint256,uint256,uint256)": "b268813c",
    "permit(address,address,address,address,uint256,uint256,uint8,bytes32,bytes32)": "b09d2a16",
    "retractOffer((address,address,uint256),uint256,bool)": "6e7a5cb8",
    "totalGasUsed(uint256)": "2deb6349",
    "updateOfferByTick((address,address,uint256),int256,uint256,uint256,uint256,uint256)": "a84b08c8",
    "updateOfferByVolume((address,address,uint256),uint256,uint256,uint256,uint256,uint256)": "129d19a7",
    "withdraw(uint256)": "2e1a7d4d"
  },
  "id": 77
}